:100000005555AAAAB6030000000000000000000039
:100010002181000000000000000000008795157D90
:10002000002810002D110000590200006F0200008E
:10003000850200009B020000B102000000000000E9
:100040000000000000000000000000006128000027
:1000500071280000000000007328000083280000C1
:1000600087280000AB260000A1280000E52600003C
:10007000A3280000A7280000B7280000C728000018
:10008000C7020000E5280000E7280000E92800007A
:10009000EB280000ED280000EF2800000000000021
:1000A0000000000000000000000000000000000050
:1000B0000000000000000000000000000000000040
:1000C0000000000000000000000000000000000030
:1000D0000000000000000000000000000000000020
:1000E000B603000000F002F800F062F80AA090E801
:1000F000000C82448344AAF10107DA4501D100F0E3
:1001000057F8AFF2090EBAE80F0013F0010F18BF4D
:10011000FB1A43F001031847E8F2000008F300005F
:100120000A444FF0000C10F8013B13F0070408BF1D
:1001300010F8014B1D1108BF10F8015B641E05D0BB
:1001400010F8016B641E01F8016BF9D113F0080F70
:100150001EBF10F8014BAD1C0C1B09D16D1E58BF02
:1001600001F801CBFAD505E014F8016B01F8016B39
:100170006D1EF9D59142D6D37047000000230024AC
:1001800000250026103A28BF78C1FBD8520728BFA7
:1001900030C148BF0B6070471FB5024802490EF0DE
:1001A00031FF1FBD000810000028100010B510BD61
:1001B000DFF80CD0FFF7F0FF02F0ABFC0FF023F8F4
:1001C0000028100003B4FFF7F1FF03BC0FF04EF856
:1001D0001A4B19680868B0E8F00F80F309884FF0EF
:1001E000000080F311884EF00D0E704700000000F3
:1001F00003480068006880F3088862B600DF00BF2B
:1002000008ED00E0EFF309800C4B1A6820E9F00FCD
:10021000106008B54FF0200080F3118800F02FFD2A
:100220004FF0000080F31188BDE8084019680868A5
:10023000B0E8F00F80F30988704700BF0428100071
:1002400001B44FF0200080F3118801BC704701B465
:100250004FF0000080F3118801BC704740BA70472E
:10026000C0BA7047401E0028FCDC704700BE7047D3
:1002700040BA7047C0BA70471EF0040F0CBFEFF3CE
:100280000880EFF309804FF0010102F056BA1EF02A
:10029000040F0CBFEFF30880EFF309804FF0020169
:1002A00002F04BBA1EF0040F0CBFEFF30880EFF31F
:1002B00009804FF0030102F040BA1EF0040F0CBF9A
:1002C000EFF30880EFF309804FF0040102F035BA34
:1002D0001EF0040F0CBFEFF30880EFF309804FF01E
:1002E000050102F02ABA1EF0040F0CBFEFF30880DC
:1002F000EFF309804FF0000102F01FBA10B5044679
:1003000000F029FC20460EF023FD044600F0BAFB65
:10031000204610BD10B5040008D000F01CFC20469B
:100320000EF045FDBDE8104000F0ACBB10BD00F183
:1003300008014FF0FF32C0E90112C16001610021E4
:1003400001607047002101617047426853684B604B
:1003500043688B605368996051604160086101682F
:10036000491C0160704710B50B685A1C02D000F19F
:10037000080202E0026904E05268546824689C4262
:10038000FAD953684B6099608A60516008610168CE
:10039000491C016010BDD0E901128A60D0E9011248
:1003A000516001694A68824201D182684A60002234
:1003B00002610868401E08607047000010B5031F06
:1003C0004FF0807420381C6081610021416140F849
:1003D000202910BD1D4810B5016841F47F0101605E
:1003E000016841F07F4101604FF0E0201849416110
:1003F00007210161174900200860FFF7F9FE00207E
:1004000010BD704711494FF080501C39086070478B
:1004100010B5FFF715FF0F480168491C016010BDBA
:100420000C490868401E086001D1FFF710BF7047F3
:10043000064910B51C394FF080500860FFF700FFE7
:1004400000F0D5FABDE81040FFF701BF20ED00E055
:1004500098990300002810002DE9F0410E46050090
:100460004FF000072AD05020FFF748FF040025D0A6
:10047000B84605FB06F0401CC4F84C80FFF73EFF71
:100480002060C0B105FB0601C4F838806160A0603F
:10049000691E01FB0600E563E060781EC4E9106098
:1004A000A06404F11000FFF742FF04F12400FFF7FD
:1004B0003EFF274602E02046FFF72CFF3846BDE806
:1004C000F08170B50446FFF7A3FF04F12405A06C8A
:1004D0000AE0606A50B1284600F0E6FC08B100F07E
:1004E00035FDA06C401EA0640028F2DC4FF0FF3602
:1004F000A664FFF795FFFFF78BFF04F11005606C12
:100500000AE0206950B1284600F0CEFC08B100F0A6
:100510001DFD606C401E60640028F2DC6664BDE86E
:100520007040FFF77DBF10B51346026C04466AB1F8
:1005300083B1E0680EF086FCE168206C091AE16086
:100540002268914202D26168081AE060A06B401CE8
:10055000A06310BDA0680EF075FC216CA068084473
:10056000A06061688842F1D32068A060EEE72DE9C1
:10057000FF41002582B01F46884604464FEA050623
:10058000FFF746FFA16BE06B814213D23A4641462A
:100590002046FFF7C8FF606A38B104F1240000F07C
:1005A00083FC012801D1FFF72DFFFFF739FF012060
:1005B00006B084E7049808B11DB106E0FFF730FFEC
:1005C0001DE0684600F098FC0125FFF729FF00F0C8
:1005D000C2FAFFF71DFF606C401C00D16664A06C7E
:1005E000401C00D1A664FFF71BFF04A9684600F079
:1005F00089FC30B12046FFF764FF00F043FA002089
:10060000D6E7FFF705FFA06BE16B884210D1FFF73B
:1006100007FF04F11000049900F02DFC2046FFF7BD
:1006200050FF00F02FFA0028AAD1FFF7EBFEA7E752
:10063000FFF7F6FE2046FFF744FF00F023FA9FE79E
:10064000944AC16C1268914201D000207047002387
:100650001A4619468BE72DE9F0411E4615460F460E
:100660000446FFF7EDFDA06BE16B884217D23246DE
:1006700039462046FFF757FFA06C411C03D0401CB1
:10068000A06401240CE0606A0028FAD004F1240080
:1006900000F00AFC0028F4D001202860F1E70024D3
:1006A000FFF7D5FD20460AE730B403680D46002B5E
:1006B0000CD0026CC1688C18C46041688C4200D3B5
:1006C000C360C168284630BC0EF0BCBB30BC70476C
:1006D0002DE9FF43002683B09846894604463746F5
:1006E00000F12405FFF794FEA06B30B36948E6687B
:1006F0000068E06449462046FFF7D6FFB8F1000FD6
:100700000ED0E660606A28B1284600F0CDFB08B143
:10071000FFF778FEFFF784FE012007B0BDE8F08305
:10072000A06B401EA06320690028F3D004F11000E4
:1007300000F0BAFB0128EBD0ECE7059808B11EB138
:1007400006E0FFF76DFE1DE0684600F0D5FB0126D0
:10075000FFF766FE00F0FFF9FFF75AFE606C401CE1
:1007600000D16764A06C401C00D1A764FFF758FE5D
:1007700005A9684600F0C6FB30B12046FFF7A1FE90
:1007800000F080F90020C8E7FFF742FEA06B38B107
:10079000FFF746FE2046FFF794FE00F073F9A1E74D
:1007A000FFF73EFE2846059900F065FB2046FFF75F
:1007B00088FE00F067F9002894D1FFF723FE91E747
:1007C00070B515460E460446FFF73AFDA06BC8B15A
:1007D00031462046FFF768FFA06B401EA063606CA7
:1007E000411C03D0401C606401240CE020690028F7
:1007F000FAD004F1100000F057FB0028F4D00120DB
:100800002860F1E70024FFF722FD204670BD10B5F7
:100810000446FFF7FDFDA46BFFF702FE204610BD66
:10082000806B704710B504461B48002100EBC102E5
:100830005368A34203D1002240F8312002E0491C52
:100840000A29F3D32068FFF765FD2046BDE8104074
:10085000FFF760BD806B08B1002070470120704732
:10086000816BC06B814201D101207047002070472D
:1008700010B5094B002200BF53F832401CB1521C86
:100880000A2AF9D310BD43F8321003EBC2014860C5
:1008900010BD000004281000942A10002DE9F05F1C
:1008A0008346DDE90A6815469A46894648200C9F2A
:1008B000FFF724FD04004AD01FB9A800FFF71EFD72
:1008C0000746676338003FD0A900A5220EF0FFFA63
:1008D0006FF0030101EB8501606B3546084420F0A1
:1008E00007074946102204F138000EF041FB0020B2
:1008F00084F847000F2D00D30E25E5622086608620
:10090000201DFFF71FFD04F11800FFF71BFDC5F1C7
:100910000F012461A1615246594638466462FFF7CF
:100920004DFD2060B8F1000F01D0C8F80040FFF77E
:100930006FFDFB4D6868401C68602868DFF8E48341
:1009400040B1686968B331E02046FFF7E3FC4FF03F
:10095000FF3449E02C606868012827D15FF0000768
:1009600007EB870108EB8100FFF7E1FC7F1C0F2FED
:10097000F6D3ED48FFF7DBFCEB481430FFF7D7FC6C
:10098000E9482830FFF7D3FCE7483C30FFF7CFFCBD
:10099000E5485030FFF7CBFCE34828631430686328
:1009A00004E02868C06AB04200D82C60E06AE968B8
:1009B000884200D9E860A96A491CA962296988426D
:1009C00000D9286100EB800108EB8100211DFFF7B1
:1009D000BCFC0124FFF724FD686928B12868C06ABF
:1009E000B04201D2FFF70EFD2046BDE8F09F2DE991
:1009F000F041CB4CA06920B1E069401CE061BDE84A
:100A0000F081A068401CA060A0684FF0FF3570B96D
:100A1000206B616B21636063606A401C6062206BC5
:100A20000068A8B1206BC068C0684068E062A06838
:100A3000E16A8842E3D3BB4F206B006850B1206B62
:100A4000C068C668A1687068814205D2E062D6E7D6
:100A5000E562ECE7E562D2E7301DFFF79CFCB06A87
:100A600018B106F11800FFF796FCF06A2169884278
:100A700000D9206100EB800007EB8000311DFFF7FB
:100A800064FCD9E72DE9F0470026FFF7C1FCA44C30
:100A9000A069401EA061A069A8BB606898B3DFF898
:100AA0008882002508F12808DFF878921AE0C068EB
:100AB000C76807F11800FFF76EFC381DFFF76BFCE5
:100AC000F86A2169884200D9206100EB800109EBB6
:100AD0008100391DFFF739FCF86A2168C96A88422C
:100AE00000D30125D8F8001040460029DFD1E06985
:100AF00028B909E0FFF77BFFE069401EE061E0698B
:100B00000028F7D105E009E0012D02D0206A012874
:100B100004D1002001262062FFF774FCFFF780FC5F
:100B20003046BDE8F08770B57D4C054620684560CD
:100B3000A0682168854201F1040104D2606BBDE820
:100B40007040FFF710BC206BFFF70DFCE06A854298
:100B500000D2E56270BD72488169491C81617047AD
:100B600010B50B460246FFF7F6FF10686C49C41833
:100B70008B68984205D9A0420ED98868844202D871
:100B80000AE0A042F9D914600868001DFFF703FCD1
:100B90002046FFF7C8FF00E01460FFF773FF00284E
:100BA00003D1BDE81040FFF72DBC10BD10B5020009
:100BB0000FD0FFF7D0FF5A48816800688C18001DDD
:100BC000FFF7E9FB2046FFF7AEFFFFF75BFF0028CA
:100BD00003D1BDE81040FFF715BC10BD10B50446A9
:100BE000FFF716FC0CB94E480468E46AFFF718FCDE
:100BF000204610BD2DE9F04100270D4606460F297D
:100C000000D30E25FFF704FCDFF81481D8F80000AC
:100C1000864201D1002608E03EB13446E06AA8428F
:100C200029D0854204D926B904E0D8F80040F5E778
:100C300006B90127C5F10F01E562A161394D00EB4D
:100C40008000616905EB8000814210D1201DFFF713
:100C5000A2FBE06AD8F810204146904200D9086112
:100C600000EB800005EB8000211DFFF76EFB012FDC
:100C700001D1FFF7C7FBBDE8F041FFF7D1BB284822
:100C80008269284922B1012101627047521E026126
:100C9000026902EB820251F82220002A0269F5D093
:100CA00002EB820201EB82014A68526801F10803FB
:100CB0004A609A4201D152684A60D1680160704727
:100CC00070B50646FFF7A4FB154D2868864201D192
:100CD000002619E0C6B13446201DFFF75CFBA06A70
:100CE00018B104F11800FFF756FB0F48211D3C30E6
:100CF000FFF72BFBFFF794FB002E0FD1686928B19B
:100D0000BDE87040FFF77EBB2C68E5E706483C3045
:100D100000686968884209D10020286070BD000021
:100D200004281000E42A1000102C1000BDE87040C8
:100D3000A5E7F04B426900219A4206D1806AA3F1EF
:100D40001402904201D000B901210846704770B5E5
:100D50000400E3D0E84D28688442DFD0FFF758FB59
:100D60002046FFF7E6FF012816D1201DFFF713FBF1
:100D7000E06A2969884200D92861E04900EB8000D7
:100D800001EB8000211DFFF7E0FAE06A2968C96ADB
:100D9000884201D3FFF736FBBDE87040FFF740BB48
:100DA000BCE770B500260446FFF7C3FF01281FD13A
:100DB000D14DA86920B1CF4804F11801143815E0CD
:100DC000E06A2968C96A884201D3012600E000264A
:100DD000201DFFF7E0FAE06A2969884200D92861FE
:100DE000C64900EB800001EB8000211DFFF7ADFA42
:100DF000304693E7C14C2068012801D9FFF702FB78
:100E00000DF018FCF7E71FB500240094019402943C
:100E100023464022BAA1BC480394FFF73FFD0128B6
:100E200009D1FFF70DFAB448012141618460BDE8A2
:100E30001F40FFF7CFBA1FBD10B5FFF701FAAE494B
:100E400000204861BDE81040FFF7DBBA10B5FFF79E
:100E5000DFFAA9488468FFF7E3FA204610BD10B511
:100E6000FFF7EEF9A4488468FFF7F1F9204610BDBA
:100E7000A1484068704770B59F4D0C4629681831ED
:100E8000FFF771FA2868001DFFF785FA601C04D08F
:100E9000A8682044BDE8704045E62968BDE8704078
:100EA000091D9448FFF751BA70B5C068C46804F1D1
:100EB00018000646FFF76FFA8F4DA86918B18D48E4
:100EC000314614380DE0201DFFF765FAE06A296904
:100ED000884200D92861894900EB800001EB80003D
:100EE000211DFFF732FAE06A2968C96A884201D3F6
:100EF000012013E7002011E77F494A6A02608968F0
:100F00004160704770B50D460446FFF781FA2868C6
:100F1000411C14D0784A2168536A994203D0616811
:100F2000936899420DD9616893685B1A834208D22D
:100F30009268511A401A28602046FFF7DDFF00240E
:100F400000E00124FFF76CFA2046E7E66A49012039
:100F5000086270476848006870476748416919B17E
:100F6000806918B102207047002070470120704747
:100F700070B5614D064639B14FEA0104FFF748FAF2
:100F8000208E304211D101E02C68F7E7201DFFF7D9
:100F900002FAA06A18B104F11800FFF7FCF95548ED
:100FA000211D1430FFF7D1F96686FFF739FA686919
:100FB00018B1BDE87040FFF725BA6868012802D073
:100FC000BDE870405BE600202860A7E670B50546E6
:100FD00009B9494801680C46FFF71AFA608EA84320
:100FE0006086208EA8432086BDE87040FFF718BABF
:100FF000404B4269002114339A4206D1806AA3F122
:101000002802904201D000B901210846704770B50E
:1010100006460C002BD0384D2868844227D0FFF7B5
:10102000F7F9208E30432086608E30421BD0204658
:10103000FFF7DEFF012816D1201DFFF7ACF9E06AAB
:101040002969884200D928612C4900EB800001EB16
:101050008000211DFFF779F9E06A2968C96A884292
:1010600001D3FFF7CFF9BDE87040FFF7D9B955E6D6
:1010700070B5002605460C000DD0FFF7E1F8208E74
:1010800028432086608E284227D02046FFF7B0FFF5
:10109000012802D021E0304640E6174DA86920B172
:1010A000144804F11801143815E0E06A2968C96A87
:1010B000884201D3012600E00026201DFFF76BF9CE
:1010C000E06A2969884200D928610C4900EB800058
:1010D00001EB8000211DFFF738F9FFF7B8F8DAE7D8
:1010E000054810B50468FFF793F9248EFFF798F9C7
:1010F000204610BD4C2C100004281000E42A1000DB
:1011000049444C4500000000D50D0000F0B5844670
:10111000002004460C4F14E05CF824600323DD003B
:1011200046FA05F280EA02600825002802DA87EA1A
:10113000400000E040006D1E002DF6DC5B1EEED589
:10114000641C8C42E8DBF0BD1B0000800D4880472A
:101150000D480047FEE7FEE7FEE7FEE7FEE7FEE795
:10116000FEE7FEE7FEE7FEE7FEE7FEE7FEE7FEE757
:10117000FEE7FEE7FEE7FEE7FEE7FEE7FEE7FEE747
:10118000FEE7FEE799110000C50000004FF0005196
:1011900091F8210010F00C0008D0042808D008288D
:1011A00008D0782001F8280F087070470F20F9E761
:1011B0001E20F7E73C20F5E77047000010B508490E
:1011C000042001240023C1F8FC00064A14601360C7
:1011D000054BA0221A70C1F8FC01C86710BD0000C1
:1011E00084E000E0D403002202E400E010B5042013
:1011F00000F0D6F8052000F0D3F8062000F0D0F873
:10120000072000F0CDF8082000F0CAF87649002049
:10121000086075492031086074490880724A121DBF
:101220001060714A2432106088806F4A0832106062
:101230006D4A2832106008816B4A0C3210606A4A8D
:101240002C3210608881684A10321060664A303251
:10125000106008820621042000F0BAF8062105205B
:1012600000F0B6F80621084600F0B2F80621072083
:1012700000F0AEF80421082000F0AAF8042000F0E5
:101280009BF8052000F098F8062000F095F807205C
:1012900000F092F8082000F08FF8042000F074F8B5
:1012A000052000F071F8062000F06EF8072000F02D
:1012B0006BF8BDE81040082000F066B800EB800035
:1012C0004FF6FF7101EA4001474800220260C20662
:1012D0001186012101607047434900200860704772
:1012E00000EB80004FF6FF7101EA40013E4800220A
:1012F000001D02604FF0005291860121016070478D
:1013000039490020091D0860704700EB80004FF646
:10131000FF7101EA400134480022083002604FF0BA
:10132000005211870121016070472F4900200831C8
:101330000860704700EB80004FF6FF7101EA400142
:10134000294800220C3002604FF0005291870121A1
:1013500001607047244900200C310860704700EBA1
:1013600080004FF6FF7101EA40011F480022103053
:1013700002601E4A0E3211800121016070471A4935
:10138000002010310860704700F01F0201219140D9
:1013900040094FF0E02202EB8000C0F800117047D6
:1013A00000F01F020121914040094FF0E02202EBC2
:1013B0008000C0F88011704700F01F0201219140A9
:1013C00040094FF0E02202EB8000C0F88012704725
:1013D0004907090E002803DA00F00F00044A00E074
:1013E000044A815470470000240500223200002086
:1013F00014ED00E000E400E0594801210160002103
:101400000160704757480121016000210160704769
:1014100010B5002000F08BF8534800220260FFF75F
:10142000F1FFFFF7E9FF514802605149A020087021
:10143000002000F088F8BDE81040002000F06BB8F4
:101440004A4801211C38016000210160704710B535
:101450000446002000F06BF8434841490460012035
:101460000860002000F06FF8BDE81040002000F098
:1014700052B830B53C4889B00468002C11D0202106
:1014800068460DF04EFD3B4800783A4B00216A4615
:101490005B1C02E0CD5C5554491C8142FADB1146CD
:1014A000A04709B030BD2E4901201C3908607047A3
:1014B0003048203000782F4921310978401A00F057
:1014C0003F0070472C4902780A7042784A7082784F
:1014D0008A70C278CA7002790A7142794A71827937
:1014E0008A71C079C8717047244800684178827851
:1014F0004FF00050437A0374214B1B7843744389A7
:101500001B0A83744389C37401754275C17981755F
:10151000017AC175704700F01F0201219140400916
:101520004FF0E02202EB8000C0F80011704700F09D
:101530001F020121914040094FF0E02202EB8000A0
:10154000C0F88011704700F01F020121914040094E
:101550004FF0E02202EB8000C0F8801270470000DC
:101560005C840022A00000223C2810007C040022A1
:1015700000E400E000040020000200204C281000DD
:10158000AC28100010B5092000F02AF80A2000F05D
:1015900027F8092000F030F80A2000F02DF8052186
:1015A000092000F035F805210A2000F031F81E4826
:1015B0007F21417081700171002100F848191B4999
:1015C000096891F8C810CA0709D08A0707D510F82A
:1015D0004A2FC1F38203012199408A43027010BD52
:1015E00000F01F020121914040094FF0E02202EB80
:1015F0008000C0F88011704700F01F020121914067
:1016000040094FF0E02202EB8000C0F880127047E2
:101610004907090E002803DA00F00F00044A00E031
:10162000044A815470470000480000204C281000F4
:1016300014ED00E000E400E0704710B5A44C072072
:1016400060700020207044F2C000608000BF00BFC6
:1016500000BF4CF2C000608000BF00BF00BF4CF272
:10166000E00060800920FEF7FDFD44F2E0006080AC
:1016700000BF00BF00BF4FF48040608010BDF0B5D8
:1016800000252E464FF00054E02716E0883401F084
:101690003F0160702170678000BF00BF00BFD4F8B9
:1016A00008C043F825C06680883C00BF6D1C521EF0
:1016B000491C3F2901D9401CC0B2002AE6DCF0BD1C
:1016C0002DE9F047824C0026A41C05462680DFF851
:1016D00004920121C9F880104FF4C058A4F800808A
:1016E00000BF00BF00BF00BF00BF4FF4805727807E
:1016F0003520FEF7B7FD2680FFF79FFF00F0A9F821
:101700005C2000F0B7F82B46012202210720FFF7EA
:10171000B6FF2B1D012203210620FFF7B0FF05F1C4
:101720000803012204210520FFF7A9FF05F10C039E
:10173000012203210720FFF7A2FF05F11003012278
:1017400004210720FFF79BFF00F083F8FFF775FFE8
:10175000278000BF00BF00BF00BF00BF00BF00BFA9
:1017600000BF00BF00BFA4F8008000BF00BF00BFE3
:1017700000BF00BF4FF440602080C9F88060BDE822
:10178000F0872DE9F0439946079B002603B1802698
:101790000023504C1F4665044FF001081DE000BFB8
:1017A00085F8890001F03F0C4CEA060C85F888C0EA
:1017B00059F823C0C5F88CC0C4F8B080C4F8B07024
:1017C000491CC9B2402902D3401CC0B20021D4F840
:1017D000C0C0BCF1000FFAD15B1C9342E0DBBDE856
:1017E000F0834FF0005282F88900002319B1802065
:1017F00082F8880001E082F8883036480121C0F87C
:10180000AC10C0F8AC3000BFD0F8C0100029FBD13C
:10181000704738B50C4605460021F820FFF7E1FF78
:101820000020014600902B462246F820FFF7A9FF32
:1018300038BD38B50C46054601210020FFF7D1FF21
:101840000120002100902B4622460846FFF799FF11
:1018500038BD10B51E4C4FF48040A41C20800420DD
:10186000FEF700FD0020208000BF00BF00BF00BFCA
:1018700000BF10BD70B5164C2126A41C268000BFE9
:1018800000BF00BF00BF00BF40F02105258000BFA2
:1018900000BF00BF00BF00BF44F221010843208009
:1018A0000420FEF7DFFC258000BF00BF00BF00BFA3
:1018B00000BF268000BF00BF00BF00BF00BF0020E8
:1018C000208000BF00BF00BF00BF00BF70BD000090
:1018D0008800002000100022F8B5FD4C0026354697
:1018E00026700120A66000F02AFC0E2000F027FCE4
:1018F0000D2000F024FC0C2000F021FC032000F05F
:101900001EFC012000F027FC0E2000F024FC0D201E
:1019100000F021FC0C2000F01EFC032000F01BFC5A
:1019200000F04AFD6A460221EA4800F0B6FEEA49A4
:101930009DF8010008709DF80000422800D00326A1
:101940000521012000F013FC05210E2000F00FFC02
:1019500005210D2000F00BFC05210C2000F007FCF8
:101960000621032000F003FC012000F0DCFB0E2028
:1019700000F0D9FB0D2000F0D6FB032000F0D3FBD4
:10198000A57065703046F8BD70B5D14BD888C0F3EE
:101990008001C0F34016C0F300247140C0F3C022A0
:1019A0006140C0F3803551406940400840EAC13091
:1019B000D88070BD38B520F040400D4600901446E8
:1019C0000421684601F01CFAC4494978C90602D5C9
:1019D000062D00D1401C0099616484F8420038BD96
:1019E000906470472DE9F047BD4D0646BB4C286812
:1019F00090F83404800718D5607840F0800060705B
:101A0000FFF7C2FF296800F00700084490F835048A
:101A100084F83100FFF7B8FF2968C0F302100844CA
:101A200090F83504800084F83000002084F83A00F3
:101A3000AC484FF0E908C0F30E074FF00109042E3F
:101A400006D0032E1AD0022E37D0052E4CD072E0CD
:101A5000A24A3146606AFFF7ADFFA06AA064A7877B
:101A6000607880060028286890F88B0701DA40F03B
:101A7000060084F8410084F83E805CE0974A3146D5
:101A8000606AFFF797FFA06AA0649448042124309D
:101A900001F0B6F9934901EB8000C0F30E00A08776
:101AA000607880060028286890F88B0701DA40F0FB
:101AB000060084F84100ED2013E0884A3146606A50
:101AC000FFF778FFA06AA064A787607880060028E7
:101AD000286890F88B0701DA40F0060084F841008E
:101AE000E52084F83E0026E06078800623D528684B
:101AF000243400F2C930794A0178A173C178217485
:101B00004178E1748078207584F816903146206819
:101B1000FFF750FF7348C830C0F30E0020832868D9
:101B200090F88B0720F0060040F00200607784F800
:101B30001A80A4F12404286890F87A17C90708D0FD
:101B40006949C1F8009014F8400F40F0030020707C
:101B500008E0617890F8BA07890701D520F0030002
:101B600084F840005A484670BDE8F0475B4800F0F2
:101B7000C5BC2DE9F047594C4FF00009584E84F888
:101B80003A90E123054684F83E303068DFF860C1C2
:101B90004F4F90F8881784F83F1090F87A175FEA53
:101BA000C1785249C1F30E022146497801D0012D76
:101BB00002D0062D1FD03AE0A37CFB7039710A23B6
:101BC000A37441F001016170A28790F8AD279CF8E1
:101BD000003002F0F00203F00F031A43227690F86F
:101BE000B4076076C80602D5F12084F83E003B4A6F
:101BF0002946012017E0A28790F8AD279CF800C085
:101C000002F0F0020CF00F0C42EA0C02227690F87F
:101C1000B4076076C80603D543F0100084F83E0090
:101C20002E4A2946A068FFF7C5FEE068A0646078E8
:101C3000410794F83F1002D521F0020105E0326817
:101C400092F8882702F00202114384F83F10C1077E
:101C500005D094F83E1041F0020184F83E1031683E
:101C600091F87A27D20716D0062D04D0072D02D07E
:101C7000012D05D017E014F8400F20F0030008E014
:101C80001949C1F8009014F8400F20F0030000F14A
:101C90000200207007E0800791F8BA0701D520F014
:101CA000030084F840007D70BDE8F0470B4800F069
:101CB000E1BB06281ED007281CD001281AD0042812
:101CC00005D0032803D0052801D0022813D189E6C6
:101CD0004028100004100020AC281000742C1000C4
:101CE0004C28100080840120280A00220080012056
:101CF000F60710003DE770472DE9F843FC4D81469B
:101D0000012901D1002068716C79FB4F641CF94EE8
:101D1000A7F124080FE0306890F87A07C00702D0D6
:101D200057F8242001E058F8242069464846904797
:101D3000012805D0641C082CEDD90020BDE8F883EB
:101D40006C719DF80000F9E770B5017800292CD07E
:101D500001464C22E94801F01FFBE64E306890F83E
:101D60007A07C0070AD0E548017811F0760F05D050
:101D70004278920702D441F080010170DC4D68780E
:101D8000002812D10121DD48FFF7B6FF04000CD076
:101D9000306890F81801000708D500F070FC0120A9
:101DA000A8700A2000F058FB6C7070BD00202870ED
:101DB0002046BDE870407CE70020704782689200B2
:101DC00005D00078000602D5012008707047002079
:101DD00070478268920006D00078C00703D00620C2
:101DE00008700120704700207047C269920006D039
:101DF0000078000703D507200870012070470020F5
:101E00007047426A920008D0826A32B10078800638
:101E100003D5022008700120704700207047426AF5
:101E2000920006D00078C00603D505200870012076
:101E3000704700207047426A920006D00078800701
:101E400003D5042008700120704700207047826A83
:101E500032B10078400703D5032008700120704795
:101E60000020704700200870012070471FB500F067
:101E700070FA01208DF80000A148019000F59060F3
:101E80000290C83003909D484168684688471FBD4E
:101E90002DE9F05FDFF85CA29A4E0025DAF8000029
:101EA0004FF0010B90F87017C9073AD093493531BC
:101EB0000A784F78B2FBF7F807B901278C4CDFF8A6
:101EC00044926178042907D1407D2225420009EB24
:101ED00040018D4801F060FA6078032813D18748EB
:101EE00040250421243000F08BFFDAF8002009EBB4
:101EF0008006107D527D00EB420209EB4201420058
:101F0000824801F049FA20466478022C0AD0052C58
:101F10000BD0042C10D0032C0ED0022C0CD0052C8E
:101F20000AD074E06225774E06E0DAF80010754EAC
:101F3000222591F87187C83681688946414566DC5B
:101F4000B9F1000F04D14FF4C87171480CF0E9FFEA
:101F5000DFF89CC16E48042C03D0032C01D0022C66
:101F60000CD1002108E000BF50F8212036F91130D3
:101F70001A4440F82120491CA942F5DB052C0BD15D
:101F8000002107E050F8212036F911301A4440F8BA
:101F90002120491CA942F5DB09F10101CCF8081008
:101FA00041452FDB0021CCF80810042C03D0032C72
:101FB00001D0022C13D1DAF80010564CD1F8742756
:101FC00000210AE030F821307B439B1A26F81130BB
:101FD00050F8213044F82130491CA942F2DB9CF82A
:101FE0000110052913D100214B4A08E030F82130B7
:101FF00026F8113050F8213042F82130491CA9420E
:10200000F4DB04E02046FFF754FE4FF0000B584687
:10201000BDE8F09F2DE9FF41384D6878400603D4B4
:10202000FFF736FF002816D0324F314C386890F851
:102030007A07C00708D06078012805D1E078A87435
:102040002079687007F08AF900212C48FFF754FEC8
:1020500018B1FFF72EFEBDE8FF81002666703868D4
:1020600090F87A17C90701D02C490E602C4AA42198
:10207000117390F81801000702D5A67000F0FAFA63
:10208000207801280BD08DF800601D4801901D4874
:102090000290C8300390696868468847DBE70220F1
:1020A0008DF80000F1E7134810B500684FF000020A
:1020B00090F8180101070E4806D58178012907D04C
:1020C00002290ED003292DD18270BDE81040CDE643
:1020D0000221817000F0D8FABDE81040322000F0F3
:1020E000BBB9032181704078BDE81040E1E50000F4
:1020F000402810004C281000BCF20000742C100086
:102100000080012080840120E2190120061A0120AC
:102110009085012020870120B0880120280A002214
:102120000010002010BD00F01F0201219140400965
:102130004FF0E02202EB8000C0F80011704700F081
:102140001F020121914040094FF0E02202EB800084
:10215000C0F88011704700F01F0201219140400932
:102160004FF0E02202EB8000C0F880127047490770
:10217000090E002803DA00F00F00024A00E0024ACC
:102180008154704714ED00E000E400E0F0B53A251A
:1021900000224FF480141146FE4B0020A65CC718A5
:1021A000521C401C87F860600C28F7DB01F03F00F0
:1021B00040F0800083F83500491CA942EDDBF0BDFA
:1021C0002DE9F0430024F34E8146254627460020A2
:1021D0009C4206DA00EB060819F804C088F860C0D3
:1021E00003E000EB060C8CF86070641C401C0C28AB
:1021F000EEDB501900F03F00084340F0800086F805
:1022000035006D1C032DE2DBBDE8F08300B514231F
:102210003A220021E048FFF7D3FFDF4820233D2288
:10222000002114305DF804EBCAE7DC480168D948A6
:1022300001F29971183011F8122C00F8112C11F8D4
:10224000112C00F8102C11F8102C00F80F2C11F89C
:102250000F2C00F80E2C11F80E2C00F80D2C0A781B
:1022600042704A7882708A78C270CA7802710A799C
:1022700042714A7982718A79C271CA7902720A7A84
:1022800042724A7A82728A7AC272C54A127802739C
:102290000A7B42734A7B82738A7BC273CA7B027455
:1022A000BF4A521C127842744A7C82748A7CC2747F
:1022B000CA7C0275BA4B0A7DDB1E02F0F0021B7865
:1022C00003F00F031A4342754A7D82758A7DC275F9
:1022D000CA7D02760A7E4276B14A921E12788276D2
:1022E000AF4A521E1278C276CA7E02774A7F827740
:1022F0008A7FC277CA7F80F8202091F8202080F85A
:10230000212091F8212080F8222091F8222080F8C5
:10231000232091F8232080F8242091F8242080F8AD
:10232000252091F8252080F8262091F8262080F895
:10233000272091F82F209B490A701E22027033201B
:1023400048740B2088747047974801680029FCD1B5
:10235000704796480022026094481C3802609448F6
:10236000026101210161826081600260016002609E
:102370008D49A0F574700B68002BFCD185490B7B4F
:1023800043F020030B730B7B23F040030B730B7B99
:1023900023F080030B730B7B23F020030B73C0F837
:1023A000D823C0F8E0238348027070477E48183075
:1023B00001680029FCD1704730B57D480024743095
:1023C00004607B48803004607948C4600121C160AA
:1023D000C460046001600460724D2020AD1D28704F
:1023E00068706C49593D0873A42008736E48183012
:1023F00001680029FCD1FFF7ACFFFFF716FFFFF7DC
:1024000005FFFFF7C3FE6C4804606B482030046092
:10241000AC8530BD5F49426C4A73130A8B73130C51
:10242000CB73130E0B7492FAA2F2B2FA82F24A74D0
:1024300090F842208A74806CC874020A0A75020CF3
:102440004A75020E8A75820F81F8402090FAA0F03A
:10245000B0FA80F0C8757047574900220A600A0632
:1024600090850120086070474F48001F01680129CE
:10247000FCD1704710B50446FFF7CCFF4948A18F47
:10248000401C0180434994F84020193181F82120F3
:10249000424A126802F2997253784B7093788B70AB
:1024A000237CCB70238A1B0A0B71A37C8B77E37C84
:1024B0008B74637D4B77237D00F8013CA37DCB7744
:1024C000E37DCB74237E0B7512780A7094F83E205E
:1024D000427394F83F20543801F8112C627ECA767A
:1024E000314A1939121F1368012BFCD190F8610091
:1024F0000873BDE8104041F28830ADE770B504467E
:10250000FFF788FF4FF00053A08FA3F85400234833
:10251000016891F87A07C2071E4854D06578B1F86F
:102520007D272D0691F8AA5709D594F831603544D6
:1025300080F82A5094F830502A4492B201E080F892
:102540002A508276120AC276193014F82C2FC271E2
:102550002288120A0272A27802736288120A4273F7
:10256000A2798277E27983F85320E27AC277227BDC
:102570004275627BC275A27C83F86120627D00F89F
:102580000E2C91F8992722F0070200F81929A27B56
:102590002C3C13E000100020B80210004C28100062
:1025A000F907100053000020040B00221C0C00222D
:1025B000D00300224128100020050022D20708D0B5
:1025C00091F8CE1707E091F89A27827691F89B2729
:1025D000B9E794F8341080F8361050490A68012A97
:1025E000FCD194F8401080F83A1093F86110017310
:1025F000BDE8704041F288302EE74949494B0A68EE
:1026000092F8892702700A68B2F89E27428009680A
:102610001B7801F2A27103F00F03CA7A02F0F002F4
:102620001A4302710A88C280B1F8052002814A7BF0
:102630008272CA7BC272897C017370473A49027800
:1026400001F80C2C82784A724288120A8A72027946
:102650000A7682794A73C288120A8A73027A8A7465
:102660000289120ACA74827A8A76C27A0A77007B51
:10267000C87770472C4904201539087370472A49D8
:1026800020201539087370472749C0201539087371
:102690007047264900200860704770B51F4C1C34F5
:1026A0002368002BFCD11D4603E0C6185B1C86F88E
:1026B00080508B42F9D32368002BFCD102E0C45C2C
:1026C000D4545B1C8B42FAD370BD10B5002000F0CF
:1026D000FCFE16490020086015480078002810D03C
:1026E0000E48001D01680029FCD10F481538C0783C
:1026F000400602D50F4901200870BDE81040FFF7E1
:1027000089BC10BD10B5002000F0DFFE0749002095
:102710000860BDE81040FFF7C6BC0000000B0022B7
:102720004C281000F607100015100020200500228C
:102730004128100040281000FEE70446012006F062
:102740001CFF00210F20226806F02CFF01210F2022
:10275000626806F027FF02210F20A26806F022FF20
:1027600003210F20E26806F01DFF0C210F202269D3
:1027700006F018FF0E210F20626906F013FF0F21EB
:102780000846A26906F00EFF20210F20E26906F03C
:1027900009FF3948026821210F2006F003FF36485F
:1027A0001038026822210F2006F0FCFE32480C3857
:1027B000026823210F2006F0F5FE2F480838026832
:1027C00024210F2006F0EEFE2B48001D0268252173
:1027D0000F2006F0E7FE28483438026826210F2033
:1027E00006F0E0FE24481438026827210F2006F086
:1027F000D9FE224800683021C06AC0F106020F20CD
:1028000006F0D0FEFEE710B5012805D0022805D05D
:10281000032809D0032102E0012100E00221BDE8E4
:102820001040032006F0A9BE0021032006F0A5FEFB
:10283000FEE710B504460146042006F09EFE012C7A
:1028400000D1FEE710BD0146082006F096BE014605
:10285000062006F092BE10B504460146072006F099
:102860008CFE24B1012C03D0022C02D1FEE7FEE73E
:10287000FEE710BD0220EEE738ED00E0042810006E
:1028800010B5002000F021FEBDE81040FDF7A0BC0F
:10289000704710B5002000F018FEBDE81040FDF7AD
:1028A000B1BCFDF7C5BD1A4810B5016821F004019F
:1028B0000160002000F009FEBDE81040FEF7D9BD20
:1028C00070470CF002BA10B5002000F0FEFDBDE824
:1028D000104006F024BD10B5002000F0F6FDBDE864
:1028E000104007F082B810B5002000F0EEFD094856
:1028F000006890F82901800703D5BDE8104006F074
:1029000022BD10BD704770477047704770477047D1
:1029100010ED00E04C28100010B542218E480CF05C
:10292000DEFA8D488D498E4A018042808D49818032
:102930008D4BC3808D4C04818D4C44818D4C8481A2
:102940008D4CC4818D4C04828D4C44828D4C84828C
:102950008D4CC4828D4C04838D4C44838D4C848378
:102960008D4CC4838D4C04848D4C44848D4C848464
:10297000C387428781878C49A0F840108B48006844
:10298000B0F89C274A80B0F8A027CA80B0F8A50705
:10299000088110BDF0B585B0FF22142168460CF007
:1029A00096FA6846FEF78CFE039803250127072652
:1029B00045F2AA54A04202D00498A0423AD1DDE9DF
:1029C0000001884206D00299884203D001988842CB
:1029D00008D100900498A04210D10098000E012860
:1029E00005D007E05FF00000FFF731FF0FE000982F
:1029F000C0F301370098C0F3032602E00120FFF77F
:102A000026FF0398A04213D1009800F007056849FB
:102A1000887920F0F30207F0030040EA0610104323
:102A200088716448017865F30201017005B0F0BD5A
:102A30000220D9E70120FFF70AFFF9E72DE9F0416D
:102A40004FF000563F2086F82100FEF79FFBFEF76F
:102A5000DFFC564D28680078A52802D00120FFF73A
:102A6000E8FE5548006810B10020FFF7E2FE286834
:102A70004FF000074FF0010490F829118A074FF03A
:102A8000085104D5C1F89873C1F8804301E0C1F83A
:102A9000984390F82811494A01F00101116090F81B
:102AA0002811121DC1F34001116045490C60091F36
:102AB0000C60091F0C6090F8C800C1070AD081079C
:102AC00008D5C0F38200012804D116F8510F20F078
:102AD00007003070FEF7B0FDFEF788FBFEF7FCFE46
:102AE000032802D10020FFF78EFEFEF7FDFCFEF763
:102AF00065FBFEF747FDFFF74DFF286890F82901B9
:102B00008107304801D5046000E007600460BDE83B
:102B1000F08110B54FF0005140F2B6304881FFF718
:102B20008DFFFFF7F9FE28493F2008602749002064
:102B3000086028482649016001F5AA602649086016
:102B4000FDF77EFB00F04AF800F05EF8FDF77FFB32
:102B5000FEF759F9012010BD00000120008001207E
:102B600074A30120F4A701204200012080840120E9
:102B70007E190120A2190120781B01209C1B012035
:102B8000D01F0120F41F0120C2160120E6160120EB
:102B9000E2190120061A01202C1D0120501D0120E0
:102BA000C81C0120EC1C0120FC3710004C28100030
:102BB0000010002020000020C810002288040022FD
:102BC000280A00227C040022481A0120A8281000AC
:102BD000C02C10007C2810008028100070B5454DD6
:102BE000002400210120FDF737FC45F8240020B126
:102BF000FDF726FD55F8240010B90020FFF72BFE45
:102C0000641C072CEDDB70BD1FB53A480121002480
:102C10000091001FCDE901042346402236A1384827
:102C20000394FDF73BFE012802D00120FFF713FEBD
:102C30003048062100911838CDE9010400234022D4
:102C400030A132480394FDF729FE012802D001206B
:102C5000FFF701FE2748052100911438CDE9010452
:102C600000234FF480722AA12C480394FDF716FE2E
:102C7000012802D00120FFF7EEFD1E48022100913D
:102C80000838CDE901040023B42225A12648039485
:102C9000FDF704FE012802D00120FFF7DCFD1548F6
:102CA000042100911038CDE9010400234FF4C872CB
:102CB0001EA121480394FDF7F1FD012802D0012057
:102CC000FFF7C9FD0B48032100910C38CDE9010441
:102CD00000234FF4007219A11A480394FDF7DEFD9A
:102CE000012805D004B00120BDE81040FFF7B3BDB6
:102CF0001FBD00002038100054736B5F436D6400EB
:102D0000E1EC000054736B5F527074003199000065
:102D100054736B5F5353797300000000E95F000048
:102D200054736B5F535300000587000054736B5F4F
:102D30005363616E000000008F92000054736B5F5C
:102D40004D74000023D000002DE9F0479246012584
:102D500047F6F87256429946AC460024089F16E0A2
:102D600030F8143031F81480A8EB03031BB29A42F8
:102D700000DD1A469E4200DA1E46002B02DA4FF0B2
:102D8000000502E001DD4FF0000C04F10104BC423B
:102D9000E6DB55EA0C0306D0012D01D02DB108E089
:102DA000BCF1010F05D1002203E0BCF1010F00D1FD
:102DB000324600252C462B4611E000BF30F8136048
:102DC00031F813C01644ACEB060636B24E4505DAB0
:102DD000C9F1000C664501DD3544641C5B1CBB4237
:102DE000ECDB95FBF4F10A44002105E030F81130EA
:102DF00013442AF81130491CB942F7DBBDE8F087CB
:102E000070B5034600200246FE4C09E09D5C521C52
:102E100005F00F0604EB1515A65D2D783044284407
:102E20008A42F3DB70BD884200D30846704788426F
:102E300000D808467047884200D30846904200D325
:102E4000104670472DE9F047D0F810C00568046AB5
:102E500085FB0C12A1FB041242694368914683FB77
:102E600002628269E246A6FB02677618D0E9021781
:102E700081FB07C8C069ACFB00C81CEB060682FBDF
:102E80000A2CA2FB011280FB0902A0FB05024018DC
:102E900084FB0712A1FB03120818301A4FEAE071F5
:102EA000ACE72DE9F04389B0044600680090606803
:102EB0000190206902906068039020690490A069E5
:102EC000059020690690A0690790E06908900D467A
:102ED0006846FFF7B7FF8046A0680190E06804905D
:102EE0006069079089466846FFF7ACFF0646606850
:102EF0000190A068029020690490E0680590A069A4
:102F00000790606908900F466846FFF79BFFC5E988
:102F10000401C5E90267C5E9008909B0BDE8F0838D
:102F20002DE9FF4F4FF0000A89B09B465746D14626
:102F3000D046564655465446202168460BF0F1FFD0
:102F40000B9810E00999824431F9102000FB00F140
:102F500002FB01668844414302FB009901FB0044E7
:102F600017440D44401C5845ECDD0B99ABEB0100B8
:102F7000401CCDE9000ACDE90654CDE90486CDE92F
:102F8000027968460A99FFF78CFF0DB0BDE8F08F13
:102F90009D480068017B427B41EA0221827BC07B25
:102FA00041EA024141EA00604000704796480068EB
:102FB0000179427941EA02218279C07941EA0241EC
:102FC00041EA0060704700B5FFF7E2FF40084000AB
:102FD00000BDF8B50E460446FFF7F5FF0090FFF779
:102FE000D7FF054604216846FFF70AFF04EB4007B8
:102FF00000240099204623464FF0010C0CFA03F2FE
:103000000A4207D02A4204D037F8102026F81420AC
:10301000641C401C5B1C122BF0DBF8BDC6E7FCB542
:103020000E460746FFF7CFFF0190FFF7BFFF009066
:10303000FFF7BCFF0546042101A8FFF7E1FE0446A7
:1030400004216846FFF7DCFE00EB440007EB400775
:1030500000200099044603464FF0010C0CFA03F2DD
:103060000A4207D02A4204D037F8142026F810204C
:10307000401C641C5B1C202BF0DBFCBD00B5FFF783
:1030800087FF40F0010000BD90E7604A520102EB6B
:10309000810101F108510860704701EB4010801078
:1030A00001EB41014900182291FBF2F300EB4000D3
:1030B00000F5801002FB1311006820F07F40C8402B
:1030C00000F03F00704701EB4010801010B501EB9D
:1030D00041014900182391FBF3F403FB141300EBA7
:1030E000400000F580103F2401689C40A1439A40B5
:1030F0000A430270110A4170110C817010BD2DE954
:10310000F14FFFF7BBFF8046FFF750FF00258446D5
:10311000A946AB46AA462F46012000FA07F111EA5C
:103120000C0F36D00024012D32DB37490968097DA8
:10313000491EA9422CDD00260120B04010EA080FEC
:1031400023D039463046FFF7A8FFE4B1022C1ADB42
:103150002D4909684A7D521EA24214DD484512D00D
:10316000097D009A04FB015332F9133004F1010286
:1031700002FB0152009931F91210591A00D5494247
:103180008B440AF1010A8146641C761C1D2ED3DB98
:103190006D1C7F1C202FBFDB9BFBFAF0BDE8F88F76
:1031A0002DE9F74F184B4FF0000B91B018681646F9
:1031B000DA4690F8770000F00F08C8F11009FFF721
:1031C0005DFF1090FFF7F2FE0025AC4603950F90CF
:1031D00001200F9A00FA0CF111427DD000210691D6
:1031E0000C460591012D78DB07490968097D491EC8
:1031F000A94272DD002701201099B840084270D022
:10320000614605E0E0F200004C281000481A012059
:103210003846FFF742FF0146F4B3022C5BDBD64889
:103220000068427D521EA24255DD039A914290F8F9
:103230007A201DD1007DBA4204FB0053119A0BDDA8
:1032400032F91320631C03FB0053119830F913006B
:10325000101A23E0404223E032F91330621C02FBD3
:103260000052119830F91200181A2FE040422FE056
:10327000BA4219DD007D119A04FB005332F9132084
:1032800004F1010303FB0053119830F91300101AE5
:1032900000D54042129A00E01DE0801A0028D9DBD8
:1032A000069A1044069016E0027D119804FB025322
:1032B00030F9133004F1010000FB0252119830F98B
:1032C0001200181A00D54042129A801A0028CDDB4D
:1032D000059A1044059002E01AE018E001E0641C31
:1032E00003917F1C1D2F86DB022D0CDB06990D98A8
:1032F000401A01D5C0F10000834405990C98401A8A
:1033000000D54042824406980D9005980C906D1CA3
:103310009948006890F87B00604518DD316801FB32
:1033200008F109FB0B104FEAE07100EB11704FEA56
:1033300020103060B06800FB08F009FB0A004FEA7B
:10334000E07100EB11704FEA2010B0601CE003D177
:103350004FF0000BDA4617E0706800FB08F009FB3D
:103360000B004FEAE07100EB11704FEA2010706023
:10337000F26802FB08F209FB0A204FEAE07100EB59
:1033800011704FEA2010F0600CF1010CBCF1200F1D
:10339000FFF61EAF14B0F9E504E000BF11F8013BE1
:1033A00000F8013B521EF9D270477CB50D46044629
:1033B000FFF709FE0090FFF7F9FD01900098042146
:1033C000400800906846FFF71BFD0646042101A84F
:1033D000FFF716FD3044820021462846FFF7DCFF48
:1033E0007CBD0B46644909684A7D097D521C4A43ED
:1033F000014652001846CFE770B504464C210BF049
:1034000090FD00235C4D23706370286890F8CD0711
:1034100000F0010043EA40106070296891F88C17B1
:10342000C1F3001140EA011060706360FFF726FEEF
:10343000A060FFF7BBFD514EE060708820822868D5
:1034400000F2AC70C17AA174017F2175817A617537
:10345000017BA1750178E17549494078097800F050
:10346000F00001F00F0108432076FFF7ACFD606229
:10347000FFF79CFDA062F088A085E085286800F237
:10348000AD70017F84F83210817F84F83310C17FE2
:1034900084F8341010F83B1C84F83510012184F8AE
:1034A0003610417F84F83710417884F83810C1789D
:1034B00084F8391010F8021CE174407B84F8400055
:1034C00084F8313084F8303070BD10B50446FCF714
:1034D000B7FE4FF00051012C09D12748006890F841
:1034E0001801400703D52748007805280CD091F82B
:1034F00021003F2804D03F2081F82100FDF746FE3F
:10350000BDE81040FCF7A3BE91F821003128F7D0A8
:103510003120F1E7184B10B51A68947E640704D582
:10352000D28A0468A2EB040202601A68947EA4079F
:1035300003D5128B0C68121B0A600268002A00DA9D
:10354000002202601C68E48AA24200DD224602607A
:103550000A68002A00DA00220A601C68248BA24252
:1035600000DD22460A601B689B7EDB0702D00368F1
:103570000B60026010BD00004C281000FC371000EA
:10358000F60710009C28100010B501461022FA48DA
:10359000FFF702FFF94841684FF40060FDF768FD4E
:1035A000002803D0BDE81040FCF72CBF10BD70B55B
:1035B00094B006460D4614466846FFF71DFF14F00A
:1035C000050F02D001208DF8000040F6E2500442C1
:1035D00021D0EB48026892F85001C0070ED192F852
:1035E000020258B992F8E002C00707D192F86002CF
:1035F000C00703D192F8B001C0070CD092F87A0747
:10360000C0079DF8000002D040F0060001E040F045
:1036100020008DF80000ADF82E50ADF81060ADF828
:103620002C50AFF29B00D44D03244FF40066019060
:103630006846FEF789FB00213046FDF799FC002122
:103640003046FDF7C3FC2878002804D0FFF7DBF8EC
:10365000641E002CECDC14B070BD10B50446C0072D
:1036600009D04FF49061C7480BF039FC4FF49051EA
:10367000C5480BF034FC14F0420F07D02421C34896
:103680000BF02DFC4021C2480BF029FCA0060AD506
:103690009021C0480BF023FCBDE810404FF480712E
:1036A000BD480BF01CBC10BD2DE9F0410746B448E5
:1036B000006890F82010490710D590F821000125E6
:1036C000C0F3011085400024B44E05E0F1887088F5
:1036D0003A46FFF76CFF641CAC42F7DBBDE8F081B3
:1036E0002DE9FF4F83B08046FFF7CEFC0190FFF736
:1036F000C5FC009004216846FFF782FB04460421C4
:1037000001A8FFF77DFB44439D4801264FF42A6141
:10371000006890F8210000F00707BE40A0480BF0B9
:1037200000FC0025DFF87892DFF870A2DFF848B2DD
:103730001DE000BFBAF8061042460498FFF737FFB5
:1037400018F0050F12D09749DBF8040005F05BF97B
:10375000944A0020494607E051F8203032F910C061
:10376000634441F82030401CA042F5DB6D1CB5429B
:10377000E0DB18F0050F0CD00020494607E000BF41
:1037800051F82020059B3A4123F81020401CA0420C
:10379000F6DB07B0BDE8F08F2DE9F74F784C84B029
:1037A00092462068B0F83B100391B0F83D100291AA
:1037B00090F85011C9070ED190F8021259B990F83B
:1037C000E012C90707D190F86012C90703D190F839
:1037D000B001C0077CD0FFF7F6FB0090FFF71EFC9E
:1037E000019004216846FFF70BFB8146042101A8E4
:1037F000FFF706FB484445002068A046264690F89F
:103800002100012400F00707BC40A90064480BF028
:1038100088FB316891F8F002C20706D0800704D413
:1038200091F8F102044405F06EFD0026C34630E035
:103830005A48DDE904214088FFF7B9FEDBF80000B3
:103840004D4990F8CD07D1F80880C00704D0424612
:10385000C968104605F05EF8DBF8000090F8F00249
:10386000C10708D0800706D44F49404604F0C2FF84
:1038700070B1DFF834810020494907E051F8203069
:1038800038F910201A4441F82020401CA842F5DBEA
:10389000761CA642CCDB424C00215A461EE0404832
:1038A000136850F8210093F8F06240FA07F05FEADD
:1038B000C67C08D0B60706D593F8F162761C46435D
:1038C000B3F8F202301AB1EB490F02DA039B01E0C0
:1038D0001DE0029B184424F81100491CA942DEDBBC
:1038E000106890F85011C90703D190F8B001C007D3
:1038F0000DD0049810F0220F09D02046DAF80010FD
:10390000FFF767FB2046DAF80410FFF788FB40E773
:103910002DE9F0479A461A4B8946002101251D4E94
:103920001C681AE032F8113030F81170DB1B1FB23E
:1039300000230AE003EBC30C06EB8C0C5B1C3CF889
:1039400011801BB2B8442CF8118094F880C305EBA9
:103950009C1C9C45EEDC491C09B2637D8B42E1DC7A
:1039600000200D4A33E000BF3AF8103039F810104B
:10397000591A0BB2002122E0A038100008381000BC
:103980004C28100042000120C2040120C216012070
:10399000E61601208A1701203E180120FC3710008E
:1039A000C02C100040890120C08D012002EB81163F
:1039B000491C36F8107009B21F4426F8107094F8AC
:1039C000806305EB96168E42F0DC401C00B2217D30
:1039D0008142C9DCBDE8F0872DE9F041064610F0D0
:1039E0000C0F17D0FE4D286890F8D000400711D575
:1039F000FC4F00242868002300EB4400B0F80211BB
:103A000004EBC40007EBC0123046FFF769FE641CEC
:103A1000042CEFDB62E62DE9F047F14C824686B0DC
:103A2000216800F4126091F8801349073AD5002804
:103A300038D00025DFF8B083DFF8B093012615E019
:103A400000EB45001421B0F8B27368460BF069FA38
:103A500005EBC50108EB8100009009EB8510019092
:103A60006A4639465046FFF797FE6D1C206890F86D
:103A7000801306EB9111A942E2DC90F85011C907BE
:103A800010D090F8911109060CD5407DD64942001E
:103A9000D748FFF781FC2068D449007D4200D54813
:103AA000FFF77AFC06B095E7F0B540F2824185B0A9
:103AB00010EA010532D000F41263C948CE4A00244E
:103AC0000068D688012190F8802301EB921106E06E
:103AD00000EB4407B7F8B273BE4202D0641CA142A7
:103AE000F6DCA1421CDD51071AD5CBB190F850117C
:103AF000C90703D190F8B001C0070FD0BA4904EB51
:103B0000C40001EB80012422BC48FFF745FCB74804
:103B1000402200EB8411BA48FFF73EFC05B0F0BD2F
:103B2000142168460BF0FDF9B4480090B4480190A8
:103B30006A4631462846FFF72FFEEFE72DE9F047AA
:103B4000A74C0125DFF8BC92206800F254400188A0
:103B5000828811444F084188C088084446080020E4
:103B6000014618E039F91130B2F85084434503DBBF
:103B7000B2F84C8443450DDDB2F84C240025934245
:103B800008DD4FEA4C029F499F48FFF705FC21687A
:103B90000120497D491C226892F815C08C45E1D866
:103BA0000022DFF8689218E039F91230B1F8528437
:103BB000434503DBB1F84E8443450DDDB1F84E14A7
:103BC00000258B4208DD4FEA4C0290499048FFF7F0
:103BD000E3FB216801200A7D521C216891F814C082
:103BE0009445E1D891F84924520701D501280AD01B
:103BF000012D09D0242187480BF071F94021864816
:103C00000BF06DF90020E5E600207C4A814D04466A
:103C100015E000BF32F91030B1F858C4634503DB3A
:103C2000B1F854C4634507DDA7EB030C25F810C0B9
:103C3000634422F8103001E025F81040401C4B7D11
:103C40008342E7D800206E4D734B13E035F9102006
:103C5000B1F85A74BA4203DBB1F85674BA4206DDC1
:103C6000B71A23F810703A4425F8102001E023F821
:103C70001040401C0A7D8242E8D8C3E72DE9F0419C
:103C800080466648002637460078800628D50025FD
:103C900004E0012C02D14046FFF706FFFFF74EFF7C
:103CA0000446012806D101F072F901266D1C032D8E
:103CB000EFDB17B1012E0CD00FE00120FEF7C3FDA2
:103CC000242154480BF00BF9402153480BF007F91D
:103CD00006E053490878401C0870C22005F0DEFC5D
:103CE0003F4C01234B492068427D444804F070FB5F
:103CF000206801234849027DBDE8F041404804F0B6
:103D000067BB374810B50068417D037DB0F84A2491
:103D10004448594300EB4303002006E033F91040C8
:103D2000944201DD012010BD401C8842F6DB0020DA
:103D300010BD2DE9F04781463B4800263746007804
:103D4000800629D50025DFF8B08008E0012C06D1D7
:103D5000B8F802100023334A4846FFF7C1FCFFF7CA
:103D6000D0FF0446012806D100F02FFC01266D1C6F
:103D7000032DEBDB17B1012E05D008E0BDE8F047BD
:103D80000020FEF760BD26490878401C0870BDE899
:103D9000F047C12005F082BC1CE62DE9F041234D1F
:103DA000002307465C1E224619462868FCF790FC53
:103DB000002322461946E868FCF78AFC17F0400405
:103DC0000AD024220D491A48FFF7E6FA1848402283
:103DD0000B492430FFF7E0FA3846FFF73EFC29E0B4
:103DE0004C281000C20401208A1701203E1801202F
:103DF0001A1801203E190120FC371000C2160120BC
:103E0000E6160120E21901202C1D0120061A0120CE
:103E1000501D0120888E0120AC8E01205C281000EE
:103E2000AD28100042000120582810002038100052
:103E30003C38100095480178012904D10021017017
:103E40003846FFF731FC3846FFF7C6FD3846FFF726
:103E5000E2FD17F0010606D08D4800238D4A418807
:103E60003046FFF73DFCF0078B4E16D0306890F8D7
:103E70002000000709D58748FFF741F98749884A9C
:103E8000086001468348FFF78BF9306890F84904D1
:103E9000C00702D03846FFF74CFF3846FFF704FE54
:103EA000306890F84904800702D53846FFF7E6FEEF
:103EB0005CB1306890F88003400706D57B49794BA8
:103EC000794AA1F12400FFF723FD79490120087008
:103ED0007849087005F00CFA2868FCF7B1FBE8682F
:103EE000BDE8F041FCF7ACBBF0B46B490022724C6A
:103EF0000B68B3F80211814213D2B3F80811814262
:103F000001D803220DE0012103EB4105B5F8025170
:103F1000A84201D10A4602E00DD2A1F101028A4273
:103F20000DD102EBC20004EBC011F0BC4FF4906263
:103F30005848FFF731BA491C0429E5DBF1E703EBE8
:103F40004103544DB3F80021B3F80231801A000246
:103F50009A1A90FBF2F301EBC10100204FF41076A6
:103F600004EBC11101EB4002A2F5906231F910405F
:103F7000B2F90020A41A5C4302EB242225F8102099
:103F8000401CB042EEDBF0BC70472DE9F0414249E5
:103F900000254A4A09684A4EB1F8B23383421AD220
:103FA00091F880339C0901EB4407B7F8B27387425C
:103FB0000AD9012404EB931313E000BF01EB44077B
:103FC000B7F8B273B84201D1254602E008D2A4F195
:103FD0000105A5421CD191F85001C00708D103E0AA
:103FE000641CA342EADCF6E791F8B001C0074CD0AC
:103FF00005EBC50002EB800124222B48FFF7CCF92A
:1040000006EB8511BDE8F04140222648FFF7C4B910
:1040100001EB4405B5F8B033B5F8B253C01A00024D
:10402000EB1A90FBF3F391F85001C00703D191F81C
:10403000B001C00729D01C4D04EBC401002002EBE5
:10404000810100BF01EB400231F9107032F9242CDC
:10405000BF1A5F4302EB272225F81020401C1228CC
:10406000F0DB104D002006EB841100BF01EB400295
:1040700031F9104032F9402CA41A5C4302EB24229F
:1040800025F81020401C2028F0DBC3E45428100041
:10409000FC371000420001204C281000842810003A
:1040A00060371000E6160120C216012060381000AB
:1040B0006228100098281000C20401208A170120ED
:1040C0003E1801202DE9FC5F0024A146A646A34628
:1040D0000226FE4A1268537D127D5B1E951E2EE05D
:1040E00002FB06F701EB470C00EB4707BCF902C0E7
:1040F000B7F90270009702271EE000BF06FB0278A6
:10410000CDF8048031F918A030F91880CDF804807A
:10411000E2450BD0DDE9008CBCEB080C01D5CCF1FD
:10412000000C644409F1010C1FFA8CF9DDF80480DD
:10413000D4467F1CCDF80080BD42DFDA761CB34246
:10414000CEDAB9F1000F01D0B4FBF9F4022639E060
:1041500002FB06F701EB470C00EB4707BCF902C076
:10416000B7F9027000974FF0020728E006FB0279CA
:1041700031F919A030F91990BAEB0C0C01D5CCF13A
:10418000000C0FFA8CFCDDF80080BCF1000FA9EBED
:10419000080C06D0BCF1000F01DACCF1000CACEB3E
:1041A000040CBCF1000F01DACCF1000C1FFA8CFCFE
:1041B000F44500D9E646D4467F1CCDF80090BD42B8
:1041C000D4DA761CB342C3DA012635E006EB4207A7
:1041D00031F917C030F9177000974FF0030728E046
:1041E00007FB026931F919A030F91990BAEB0C0CF0
:1041F00001D5CCF1000C0FFA8CFCDDF80080BCF18D
:10420000000FA9EB080C06D0BCF1000F01DACCF1CD
:10421000000CACEB040CBCF1000F01DACCF1000C8B
:104220001FFA8CFCDC4500D9E346D4467F1CCDF850
:104230000090BB42D4DA761CB542C7DA02B05A46C7
:104240007146BDE8F05F032005F06BBA0388934226
:1042500000D902800888904200D20A807047F0B5E9
:1042600087B00646002047F6FF71ADF80810ADF89C
:104270000400ADF81010ADF814000227934C10E0C4
:10428000012508E007FB005001A936F8102002A81C
:10429000FFF7DCFF6D1C2068007D411EA942F1DCA8
:1042A0007F1C2068407DB842EADC002512E02844EB
:1042B00005A936F8102004A8FFF7C8FF2068417D43
:1042C000007D01FB005005A936F8102004A8FFF777
:1042D000BDFF6D1C2068007DA842E8DC012514E0CC
:1042E000007D05A9684336F8102004A8FFF7AEFF4B
:1042F0002068691C007D484306EB400005A930F8A2
:10430000022C04A8FFF7A2FF6D1C2068417D491C08
:10431000A942E5DCBDF80420BDF80810012005F035
:1043200000FABDF81420BDF81010022005F0F9F9CC
:1043300007B0F0BD70B50C460546FFF790FF21466B
:104340002846BDE87040BDE610B501461022604821
:10435000FFF722F85F4841688020FCF789FE0028BB
:1043600003D0BDE81040FCF74DB810BD30B593B098
:1043700004466846FFF740F80021012C02D0022CC9
:1043800008D016E001208DF800008DF815108DF88A
:1043900014100EE04D48006890F87A07C00701D06D
:1043A000062000E020208DF800008DF834108DF8F4
:1043B00033109DF80100AFF26F0140F04C00444D06
:1043C00001918DF8010003246846FDF7BDFC002132
:1043D0008020FCF7CDFD00218020FCF7F7FD287838
:1043E000002804D0FEF70FFA641E002CECDC13B09A
:1043F00030BD02461621012000FA01F3134201D11B
:10440000491EF9D5491C8840104370472DE9F05FDB
:10441000FEF734FE0546FEF737FE2C4C07462068B3
:1044200090F88C07C00603D52846FFF7E2FF054643
:104430004FEA55094FF4906127480AF050FD4FF0BC
:104440001D084FF0000A0120FFF790FF20480026CA
:10445000D0F804B01D480068047D34E0012000FA63
:1044600006F111EA090F2DD000250120A84038429D
:1044700025D029463046FEF710FE1449DFF858C013
:1044800009683CF91430B1F83421991A3BF9143019
:10449000A3EB020200D54942002A00DA52429142BF
:1044A00004DD0E492CF8143021F814003F2805D201
:1044B000401CC2B229463046FEF705FE641C6D1C46
:1044C000202DD2DB761C4645C8DB09E04C281000C5
:1044D000B03810000838100074A30120F4A70120A0
:1044E000FDF754FE0AF1010ABAF1400FABDB0120DF
:1044F000FFF73CFFF848DFF8E4B3002500684FF011
:10450000010A067D0AFA05F111EA090F0FD000240D
:104510000AFA04F0384207D01BF816002146C2B24E
:104520002846FEF7D0FD761C641C202CF0DB6D1CA9
:104530004545E7DBFDF72AFE0120FFF717FFE848B6
:10454000E6494068BDE8F05FF4E62DE9F05FE24A35
:10455000116891F83001C407E248037803F0F005D0
:1045600014D0057000264B7D0C7DDFF874A35B1C16
:10457000B046914604FB03F783460120FFF7F6FEA1
:104580002046DAF80420D9F800100EE091F83E1128
:1045900001F00F0129430170BDE8F09F32F910309E
:1045A000B1F832C16345F7DB401C8742F6DC0F2EC1
:1045B000F2D2761CF6B245EA060108F101088BF842
:1045C0000010B8F1100FD8DBE6E710B54FF42E71EC
:1045D0004FF480100AF0A5FCFDF7D8FDFFF7B5FFFA
:1045E000FFF714FFBC4ABF481268401D017892F8DB
:1045F000FB2701F0F00102F00F0211430170BDE84A
:104600001040012005F04AB82DE9F0438DB000219B
:104610004FF6FF70ADF82C10DFF8CCC2ADF82800D3
:10462000ADF80400DFF8C082B04FDFF8AC92ADF80F
:104630000810ADF81800ADF80C10ADF81000ADF88A
:1046400014100CF1140C0D460E460124B96804FA3E
:1046500006F0084213D0002D0ADBD9F80000007DD7
:10466000801EA84204DB1CF805200BA90AA803E061
:104670001CF8052002A901A8FFF7E8FD6D1C761CB7
:10468000202EE3D300252E464FEA090C796804FA60
:1046900006F0084213D0002D0ADBDCF80000407D54
:1046A000801EA84204DB18F8052003A906A803E031
:1046B00018F8052005A904A8FFF7C8FD6D1C761C95
:1046C000202EE3D38748BDF82C20801CBDF828108D
:1046D0000078024492B2ADF82C20BDF804300144B9
:1046E0000344ADF80430BDF8083089B21844ADF881
:1046F00008007C48ADF82810401CBDF81830007840
:104700000344ADF81830BDF80C300344ADF80C305C
:10471000BDF810300344ADF81030BDF81430184423
:10472000ADF81400042004F0FCFFBDF80C20BDF827
:104730001810052004F0F5FFBDF80820BDF804109E
:10474000062004F0EEFFBDF81420BDF8101007207D
:1047500004F0E7FF0DB0BDE8F0832DE9F0476348B2
:104760005D4B002446694568D3F80030224601219C
:1047700040F6FF7901FA02F72F421FD036F9148074
:10478000B8F1000F05D0C84507D1076847F01007FA
:1047900012E0076847F020070EE0B3F836C1B3F81F
:1047A0004171E246BC44C44503DBAAEB0707474519
:1047B00003DD076847F040070760641C521C202A8D
:1047C000D8D300248769D0F80860224601FA02F5A0
:1047D00035421DD037F914502DB14D4507D105682C
:1047E00045F0100512E0056845F020050EE0B3F82D
:1047F0003AC1B3F843A10CEB0A08A84503DBACEBC4
:104800000A0CAC4503DD056845F040050560641CF5
:10481000521C202ADAD3BDE8F0872DE9F05F334C33
:104820000020314F666801460346012202FA03F573
:10483000354203D0FD5C854200D928465B1C202B05
:10484000F4D3294ED4F808701436002302FA03F585
:104850003D4203D0F55C8D4200D929465B1C202BDC
:10486000F4D3DFF880801C4D08F1030808F101093A
:1048700088F8000089F800102A68A8F1020AA8F157
:10488000010B92F87A37DE077ED09B077CD502F2C7
:104890008B72537D947D157E03EB04239CB2D37DF4
:1048A000D67E03EB05239DB2937E577F03EB062351
:1048B0009EB2137F127803EB07239FB2520617D5DF
:1048C000631900EB43009AF80020F31910449BF899
:1048D000002001EB430118E04C281000F4A7012050
:1048E000B0381000F6071000B8021000B028100011
:1048F0006219520002EB40029AF800001044F219CB
:10490000520002EB41029BF800101144FEF78FFAAF
:10491000FE49096801F27B72B1F87B37834201D20C
:10492000A1F87B0791F87A07400736D591F88B07F5
:10493000400617D5600040426B4291F87B1700EBB0
:10494000430001449AF80000091A88F8001070002A
:104950004042794200EB4100117801449BF800008D
:10496000081A38E09AF8000063191844B1F87B1768
:10497000404201EB4000C0F3470188F800109BF86B
:104980000000F119084400E008E01188404201EB02
:104990004000C0F3470189F80010FDE5DC4D9AF8AE
:1049A00000209BF800302D6802440B44FF2645F0A0
:1049B00080059A4209D2991A0844FF2802D888F83B
:1049C0000000E9E588F800600AE09342E5D2D01AD9
:1049D0000844FF2802D889F80000DDE589F8006066
:1049E0002560D9E52DE9F84FDFF82093C94DC94876
:1049F000D9F800101435DFF818B391F830110446D7
:104A000049064FF0010A7DD534210AF08AFAFFF7F2
:104A100004FFFDF70AFCFDF7F9FB042003264FF025
:104A2000000800900220FFF7A1FCF00729D04FF00A
:104A3000000E724670464F464FEA0B030AFA00F129
:104A4000D3F804C011EA0C0F13D05969D7F800C08D
:104A500031F91210BCF838C1614509DA215CDDF882
:104A600000C04FF0010E6144FF2900DDFF212154F9
:104A7000521C401C2028E1D3BEF1000F01D126F0CA
:104A80000106B00729D54FF0000E724670464F461A
:104A90004FEA0B030AFA00F1D3F808C011EA0C0F31
:104AA00013D09969D7F800C031F91210BCF83CC195
:104AB000614509DA295CDDF800C04FF0010E614460
:104AC000FF2900DDFF212954521C401C2028E1D37E
:104AD000BEF1000F01D126F0020656B1FFF79DFE90
:104AE000FDF7A3FBFDF792FB08F10108B8F1640F95
:104AF00098DB0326002000900220FFF737FCF00728
:104B000022D000E053E0002739463846CC465A46CA
:104B10000AFA00F3D2F8048013EA080F0ED05369A2
:104B2000DCF8008033F91130B8F83881434504DDF2
:104B3000235C13B101275B1E2354491C401C202811
:104B4000E6D30FB926F00106B00721D50027394674
:104B50003846CC464FEA0B020AFA00F3D2F8088036
:104B600013EA080F0ED09369DCF8008033F9113096
:104B7000B8F83C81434504DD2B5C13B101275B1E73
:104B80002B54491C401C2028E6D30FB926F00206FE
:104B9000002E0AD0FFF741FEFDF747FBFDF736FB7D
:104BA0000098401C00906428A6DBBDE8F88F7F22A7
:104BB00034210AF08CF9FFF730FEFDF736FBFDF7E4
:104BC00025FB40260327002000900220FFF7CEFBA4
:104BD000F80731D04FF00008434640464FEA0B013A
:104BE0000AFA00F2D1F804C012EA0C0F1CD04A698C
:104BF00040F6FF7C32F91320624506DB012E04DD0E
:104C0000225C4FF00108921B0CE0D9F800C0BCF800
:104C100038C1624507DA225C4FF001083244FF2AAE
:104C200000DDFF2222545B1C401C2028D8D3B8F1A1
:104C3000000F01D127F00107B80731D54FF0000868
:104C4000434640464FEA0B010AFA00F2D1F808C089
:104C500012EA0C0F1CD08A6940F6FF7C32F913204F
:104C6000624506DB012E04DD2A5C4FF00108921B31
:104C70000CE0D9F800C0BCF83CC1624507DA2A5CF8
:104C80004FF001083244FF2A00DDFF222A545B1C4A
:104C9000401C2028D8D3B8F1000F01D127F002071B
:104CA0006FB1FFF7BAFDFDF7C0FAFDF7AFFA002EBE
:104CB00005DD00987610401C0090642885DB0326F3
:104CC000002000900220FFF751FBF00727D00027BB
:104CD00039463846CC465A460AFA00F3D2F80480E0
:104CE00013EA080F0ED05369DCF8008033F9113055
:104CF000B8F83881434504DD235C13B101275B1EFE
:104D00002354491C401C2028E6D305E04C28100001
:104D1000B0281000B80210000FB926F00106B00745
:104D200020D5002739463846CC465A460AFA00F3C1
:104D3000D2F8088013EA080F0ED09369DCF80080DF
:104D400033F91130B8F83C81434504DD2B5C13B1D5
:104D500001275B1E2B54491C401C2028E6D30FB9A9
:104D600026F00206002E3FF420AFFFF756FDFDF7B8
:104D70005CFAFDF74BFA0098401C00906428A1DB18
:104D800013E72DE9F05FA54E0024A54D30684FF0E4
:104D90007F03224690F830118F0706D5012449067B
:104DA00001D42B7004E02A7002E090F83F112970C2
:104DB00090F83011DFF86C824F0709D544F00204F7
:104DC000480602D488F8003006E088F8002003E0A6
:104DD00090F8401188F80010002C77D034219248C8
:104DE0000AF09FF88F49FF20891C0870491E08703F
:104DF000FDF70CFAFDF719FA3068DFF83092B24689
:104E000090F83001400662D54FF0100B00260220CA
:104E1000FFF7ACFAE00723D0D9E9042300200146CC
:104E200006E000BF33F91170874200DD3846491CA7
:104E30009142F7DBDAF80010B1F83621824202DA4B
:104E40002878401E08E0B1F84B11814206DB287833
:104E50005844FF2800DDFF20287001E024F0010401
:104E6000A0072AD500200146D9F80C70D9F81830CF
:104E700006E000BF33F91120824200DD1046491CD4
:104E8000B942F7DBDAF80010B1F83A21824205DACC
:104E900098F80010491E88F800100EE0B1F84B1188
:104EA000814208DB98F800005844FF2800DDFF200D
:104EB00088F8000001E024F00204002C06D0FFF77F
:104EC000ACFCFDF7B2F9761C202EA0DB65E5402690
:104ED00000270220FFF74AFAE0071AD0D9E9042C8C
:104EE0000020014606E000BF3CF91130834200DD9E
:104EF0001846491C9142F7DBDAF80010B1F8361178
:104F0000814203DA2878A0EB060010E050B124F0CB
:104F10000104A00725D500200146D9F81830D9F89A
:104F20000C200DE028783044FF2800DDFF20287099
:104F3000EFE700BF33F911C0844500DD6046491C2E
:104F40009142F7DBDAF80010B1F83A11814205DA44
:104F500098F80010891B88F8001002E070B124F066
:104F60000204002CB2D0012E00DD7610FFF755FCB4
:104F7000FDF75BF97F1C202FABDB0EE598F80000F6
:104F80003044FF2800DDFF2088F80000E9E770B515
:104F9000264C00202060FEF716F86060FEF73EF811
:104FA000A0606068042140086060201DFDF728FFB4
:104FB0002061042104F10800FDF722FFE0600220D7
:104FC000FFF7D4F91A482169806800EB4102626159
:104FD000E26802EB410100EB4100A061FFF7D1FE66
:104FE0000E4D286890F83001800601D5FFF7FAFCD5
:104FF000FFF7B3FBFFF708FBFDF717F9094829682E
:10500000C01C027891F8FB1762F30301017020685D
:10501000BDE8704040F0020004F040BB4C28100096
:10502000F7071000F8071000B8021000B0281000B1
:10503000B038100010B5014610229848FEF7ACF9C0
:10504000974841688020FCF713F8002803D0BDE89A
:105050001040FBF7D7B910BDF0B5924D06460C468F
:1050600028684FF0FF3193B090F8B10000F00F00C6
:10507000401C8140CF436846FEF7BEF901208DF801
:1050800000008DF80140286800F5867001788DF8E1
:10509000121044F005018DF801100297ADF8106070
:1050A000AFF26F01019141788DF8161080787B4D39
:1050B0008DF8170003246846FCF746FE0021802087
:1050C000FBF756FF00218020FBF780FF287800289F
:1050D00004D0FDF798FB641E002CECDC13B0F0BD8F
:1050E0002DE9F0476F4D4FF00009DFF8B0812868D7
:1050F00000F570700478467887781AE049462046B3
:10510000FFF7AAFFD8F8040007F003FE014628685D
:1051100090F80B2112F00F0000D1012012094A4330
:10512000B2FBF0F082B22146302004F01AFBE01905
:1051300084B2B442E2DDBDE8F0872DE9FF5F4FF6AF
:10514000FF764FF0000A93460F4680463446554698
:10515000DFF850911CE000BF38F815005146FFF70A
:105160007BFF4E48406807F0D4FDD9F8001091F855
:105170000B2112F00F0100D1012112094243B2FBB1
:10518000F1F080B2A04202D238F8156004466D1CDE
:10519000BD42E1DBABF8006003980480BDE8FF9FEF
:1051A0002DE9F0413F4D04468846286888B000F15B
:1051B000D20690F8D10006AB00F00F01491C05AAF9
:1051C0003046FFF7BAFF2A6892F8D000800721D551
:1051D000BDF814600121ADF8006002F1F205002372
:1051E0004FF4803C6F4607E0E8563044604502D2F9
:1051F00027F81100491C5B1C92F8D100C0F3021083
:10520000401C9842F0DC002904DD06AB05AA3846B4
:10521000FFF793FFBDF814002080BDF81810A8F820
:10522000001008B0BDE8F0812DE9FC411E4E0023BE
:105230005A1E19463068FBF74BFA1C4C01A9684608
:105240006588FFF7ADFF174F3868B0F8FA10BDF862
:105250000400814201D9218000E02080BDF80000D7
:1052600060803068FBF7ECF9BDF80000854207D09C
:10527000386890F8D000400702D56088FEF734FE09
:105280000B49012008700B490870BDF80020294621
:10529000092004F029FABDE8FC810000C0381000A4
:1052A000083810004C28100020381000FC3710007F
:1052B00062281000982810002DE9F0470178FE4C74
:1052C00001B1217001461022FC48FEF765F8FC4B45
:1052D000186890F8CD17CA07F84901D0CD6800E0EA
:1052E0008D68427D6068F74E4243002014E000BFA5
:1052F00097F8F0125FEAC17C08D0890706D597F8C5
:10530000F17235F810107F1C794301E035F8101068
:105310001718401C26F817101F68797D8142E7DCBA
:1053200060684FF0000200F101006060797D01FBD0
:1053300000F71BE090F8F0C25FEACC780ED05FEA8D
:105340008C7C0BD501EB020C90F8F10235F81CC0F7
:10535000401C0CFB00FCB81826F810C0881807EB9E
:10536000020C35F8100026F81C00521C186890F842
:1053700015C09445DEDC61684FF0010801F10101C0
:10538000616090F8B12008EB121490F8F022D50774
:1053900005D0950703D490F8F1522C44E4B2A14211
:1053A00023DA90F87A27D20719D090F8CD378AB24D
:1053B000DB0701D0C1F34F0290F8BA0300F00F00F1
:1053C000B2FBF0F100FB1121BC484C3800294178B8
:1053D00002D041F0020101E021F002014170BDE87C
:1053E000F047B6484C38FCF7AFBCD1072FD0910737
:1053F0002DD4B0F8F2A2002522E0407DB1496843E7
:1054000001EB40018946002015E000BF94F8F1420D
:10541000012231F91060641C06E000BF02FB070C9A
:10542000521C31F91CC066449442F7DCA6EB0A0218
:1054300029F81020401C1C68677D8742E6DC6D1C43
:10544000186890F8B11008EB1111A942D5DC9E48FC
:1054500041688020FBF70CFE002803D0BDE8F04730
:10546000FAF7D0BFBDE8F0872DE9FF5FDFF84CB257
:105470004FF6FF7400258A46A046ABF14C0BA946B7
:105480008D4E5BE08D484C38FDF7B6FF8C4A1168B5
:1054900091F8CD07C00701D0102300E002238BF85C
:1054A0000030009830F81530ABF82C309BF8013004
:1054B00043F004038BF80130AFF2032301F2C9314A
:1054C000CBF804300A788BF83220CA788BF8342075
:1054D0004A788BF8372089788BF838100327C6F87C
:1054E000049000BF754886F800904C38FCF72CFCFF
:1054F00000218020FBF73CFD00218020FBF766FDAA
:10550000307820B1FDF77FF97F1E002FEADC6D486F
:1055100002F0FDFB6A49096891F8C82312F00F01F7
:1055200000D101211209424390B2B0FBF1F0A04238
:1055300003D20099044631F815806D1C5545A1DB56
:105540000299A1F8008003980480BDE8FF9F2DE92F
:10555000F04105465A4888468CB000680AAB00F214
:10556000823C90F8812300F2A23490F8800302F08C
:105570000F01C2F30216C0F3400709AA491C604696
:10558000FFF772FFDFB1BDF8243001210020ADF834
:1055900000304FF4803C6F46761C07E022561A44D8
:1055A000624502D227F81120491C401CB042F5DBAD
:1055B000012904DD0AAB09AA3846FFF755FFBDF8FB
:1055C00024002880BDF82810A8F800100CB0BDE811
:1055D000F0817CB53D4E00235A1E19463068FBF71A
:1055E00077F83B4C01A96846E588FFF7B0FF3448DF
:1055F0000168BDF80400B1F8AC23824201D9A28051
:1056000000E0A080BDF80000E0802081854205D048
:1056100091F88013490701D5FEF7B7FC2D49012009
:1056200008702D4908702D49002008602C49087029
:105630003068FBF705F8BDF8002029460A2004F081
:1056400053F87CBD2DE9F047DFF87480DFF86C90EB
:105650000025D8F80000A9F14C0900F2C3300488F5
:105660004688077950E015484C38FDF7C5FED8F854
:10567000000090F8CD07C00701D0102100E0022102
:1056800089F80010A9F82C4099F8011041F00401A4
:1056900089F80110AFF2DF31C9F804100649002083
:1056A000486006484C38FCF74FFB00218020FBF790
:1056B0005FFC0021802015E0CC2810001C39100070
:1056C0004C281000B4980120083810002038100031
:1056D000FC3710006228100098281000E429100000
:1056E000DA291000FBF772FC094802F010FB0246B1
:1056F000962D03DA074820F815206D1C214631202D
:1057000004F02FF8E01984B2B442ACDDAAE6000040
:10571000B49801204C1A01202DE9F04117460446A7
:105720000D46002609E0E00703D03146384603F075
:1057300059FF761C6D084FEA340454EA0500F2D193
:10574000BDE8F08130B5034600204FF0FF3201255F
:1057500005FA00F40C4202D0521C9A4203D0401CBD
:105760002028F5D3002030BDF0B50E4601250746B0
:1057700005FA06F2FE4C0F2FD4E9151065D2DFE8CA
:1057800007F064434B08106464192129323A5458D5
:105790005C003046FFF7D6FF8540A06A0543A5624E
:1057A00053E001463046FFF7CDFF8540206C0543AE
:1057B00025644AE03046FFF7C5FF8540E06A0543AF
:1057C000E56242E03046FFF7BDFF8540206B0543B0
:1057D00025633AE001463046FFF7B4FF8540A06CF0
:1057E0000543A56431E03046FFF7ACFF8540606BB0
:1057F0000543656329E001463046FFF7A3FF854076
:10580000E06C0543E56420E03046FFF79BFF8540F0
:10581000606A0543656218E001463046FFF792FF73
:105820008540E06B0543E5630FE0A06B0243A26394
:105830000BE0206D0243226507E001463046FFF78A
:1058400081FF8540606C054365642068401C2060D2
:10585000F0BD10B501461022C648FDF79DFDC648B3
:1058600041688020FBF704FC002803D0BDE810400D
:10587000FAF7C8BD10BDFDF799BB10B5FDF788FB61
:105880004008400010BD2DE9F047894605464FF01D
:10589000FF34FDF78BFBB64F00231946D7F80460A1
:1058A0004FF0010C0CFA01F2024200D0641CAC4231
:1058B00006D1B9F1010F0AD020EA02030E462021D9
:1058C000491C2029EED318467E60BDE8F0871346B8
:1058D000F4E72DE9F047894605464FF0FF34FFF71E
:1058E000CCFFA34F024600207B6801464FF0010C1D
:1058F0000CFA01F6164200D0641CAC4206D1B9F194
:10590000010F08D022EA06000B461221491C122979
:10591000EED37B60D9E73046F6E72DE9F04198B049
:10592000044688466846FDF767FD13A8FCF765FE48
:10593000FFF7A3FF8E4F40087865FDF737FB202661
:105940008E4DB865012C0AD0022C22D0032C26D013
:10595000042C29D0052C30D0062C4ED064E0FDF765
:105960008DFB0290FDF790FB039001208DF8000065
:105970000C20ADF8100040208DF812008DF8166054
:1059800091208DF817000298400878650398B86553
:105990004AE0FFF772FF0990FDF708FB14E0FDF7FE
:1059A00005FB01210A9003E0FDF700FB00210A90AE
:1059B0004046FFF78EFF099007E0FFF75EFF099072
:1059C00001214046FFF75FFF0A908DF800602868CC
:1059D00000F55A7081788DF83210C1788DF8371043
:1059E00001788DF8381041788DF839108188ADF83C
:1059F0002C100089ADF82E0016E0FFF73EFF09904D
:105A0000FDF7D4FA0A908DF80060286800F2613042
:105A100081788DF83210C1788DF8371001788DF8C3
:105A2000381040788DF8390000209DF801108DF86D
:105A3000140021F030018DF8150041F04A018DF875
:105A400034008DF833008DF80110AFF2F911032600
:105A50000191012C13D0092C27D00A2C25D000BF8E
:105A60008DF856008DF858008DF85700022C13D091
:105A7000032C11D0042C0FD0052C0DD015E0296873
:105A800091F889178DF8500041F003018DF84C1002
:105A90003C21ADF84E10E3E72868B0F86E13ADF87E
:105AA0005210B0F87203ADF8540013A8FCF7C6FD0D
:105AB000304C6846FCF748F900218020FBF758FA83
:105AC00000218020FBF782FA2078002804D0FCF720
:105AD0009AFE761E002EECDC18B031E62DE9FC5F54
:105AE00000210120FFF719FF22484768FDF7C6FA99
:105AF0000190FDF7C9FA0090042101A8FDF780F993
:105B0000064604216846FDF77BF9844600200546D9
:105B1000DFF85CB0DFF864A000905CE04FF00008B4
:105B2000C1465C462846DBF85810FFF70BFE0146DD
:105B300001208840A16C08424CD101243BE000BF09
:105B400004FB0C51DAF8000037F9112090F86703D4
:105B5000B2EB001F2EDA08F10108B9F1000F00D1F5
:105B6000A146721E944225D1B8F1010F22D107E05F
:105B7000D42810002C391000083810004C281000D0
:105B8000ACF10102954204D1611E0120FFF7ECFD4A
:105B90000EE007EB4101B1F90220B2EB001F05DB7B
:105BA00035B131F9021CB1EB001F01DA002000E031
:105BB00002208046641CB442C2DBA6EB09014145C9
:105BC00008D829460220FFF7CFFD01200099A84000
:105BD000084300906D1C6545A0DB01253BE000BF3C
:105BE0004FF0000844462CE0DBF84030DBF848205A
:105BF00000201A4311D0D9462046DBF85810FFF791
:105C0000A1FD014601208840D9F84810084203D17F
:105C1000D9F84010084000D0012005FB0C4137F9AD
:105C20001120DAF8001091F86713B2EB011F07DAC0
:105C300030B901200099A040084201D108F10108C3
:105C4000641C6445D0DBB8F1000F03D0691E01204D
:105C5000FFF78AFD6D1CB542C2DBBDE8FC9F2DE954
:105C6000F041E34C00200546E24FDFF88C83A06151
:105C70001EE029460520FFF750FE21690120BE687D
:105C800000EB410C36F91C10D8F8000090F87703AF
:105C9000B1EB001F03D929460E20FFF765FD36F949
:105CA0001C00A169884202DD36F91C00A0616D1C50
:105CB00060698542DDD343E52DE9F04100210620EE
:105CC000FFF72BFECB480025CB4EC94C87680EE072
:105CD000E0683168284437F9100091F86513B0EB9B
:105CE000011F03DD29460A20FFF73EFD6D1C2069D8
:105CF0008542EDDB00250EE0A0683168284437F9C5
:105D0000100091F86513B0EB011F03DD29460B204D
:105D1000FFF72AFD6D1C60698542EDDB10E52DE97A
:105D2000F041B34C00200646206237E031460420A3
:105D3000FFF7F3FDAF48002587682BE0FDF736F944
:105D400001462846FFF7FEFC014601208840216CF1
:105D500008421ED1A849A0682844096807EB400002
:105D600030F9040C91F87813B0EB011F07D93146D4
:105D70000820FFF7F9FC29460920FFF7F5FCA06889
:105D8000216A284407EB400030F9040C884200DD0A
:105D900020626D1C60698542D0D3761C20698642E2
:105DA000C4D3CDE42DE9F041914C00200546914F3C
:105DB000DFF84482E0611AE029460320FFF7ADFDD9
:105DC000BE68B6F90210D8F8000090F87603B1EB7F
:105DD000001F03D929460720FFF7C6FCB6F90200C9
:105DE000E169884202DDB6F90200E0616D1C2069BC
:105DF0008542E1D3A4E42DE9F04100210220FFF720
:105E00008CFD7C487C4D7A4C8768286890F860034C
:105E1000000713D500260EE0E0682968304437F902
:105E2000100091F87413B0EB011F03D93146032021
:105E3000FFF79AFC761C20698642EDDB286890F813
:105E40006003C00613D500260EE0A0682968304420
:105E500037F9100091F87513B0EB011F03D93146E3
:105E60000420FFF781FC761C60698642EDDB67E465
:105E70002DE9FC41614E00235A1E19463068FAF79D
:105E800027FC4FF48010411209F029F8FCF7CDF9F6
:105E9000FCF7BCF9FCF77AF9554C00202060FFF7BD
:105EA000ECFC0090FDF782F8019004216846FCF7B5
:105EB000A7FF0546042101A8FCF7A2FF014600EB5D
:105EC0004500C4E90205C4E904514B4D286890F827
:105ED0006003010701D4C00601D5FFF78CFF2868D5
:105EE00090F86003800601D5FFF75CFF286890F802
:105EF0006003000601D5FFF712FF286890F86003E1
:105F0000C00701D0FFF7D8FE286890F8600340066C
:105F100001D5FFF7A4FE286890F86003800701D53B
:105F2000FFF7DCFD206800285DD0D4E90A359D43E9
:105F3000E562606AD4E90F1C9843A8436062676C0D
:105F400021EA0C01B943E163A16B226D9943A94396
:105F5000256B22EA0C02A943A163A16CBA438A43D0
:105F6000AB43A362226501220021FFF7D5FB022289
:105F70000021E06BFFF7D0FB03220021A06AFFF7AE
:105F8000CBFB04220021206CFFF7C6FB0722002177
:105F9000E06AFFF7C1FB08220021206BFFF7BCFB82
:105FA00009220021A06CFFF7B7FB0A220021606BD9
:105FB000FFF7B2FB0B220021E06CFFF7ADFB0C22D8
:105FC0000021A06BFFF7A8FB0D220021206DFFF739
:105FD000A3FB0E220021606CFFF79EFB3068FAF7EE
:105FE0002FFBBDE8FC810021084603F0FBFAF5E732
:105FF000D42810002C3910004C2810002038100034
:106000006F490020087070476D4E00246D4DDFF819
:10601000B881DFF8B8A1DFF8B8B134704FF0FF39BC
:10602000287880B10128FBD140F27D700021FAF779
:106030009FFFFBF755F8C1071ED000210120FAF79A
:10604000C5FF2C70ECE7022701210020FDF71DF8A9
:1060500000213846FAF78CFF01210846FDF715F8B4
:10606000FBF73EF88007DBD5002140F27F70FAF79E
:10607000ADFF01202870D3E7010714D500210820C7
:10608000FAF7A4FF002347464A461946D8F800000D
:10609000FAF71EFB00234A461946B869FAF718FBBF
:1060A000FEF793FA15E041071AD500210420FAF70C
:1060B0008DFF002347464A461946D8F80000FAF7F4
:1060C00007FB00234A461946B869FAF701FBFEF7B9
:1060D0005EFFB869FAF7B4FA3868FAF7B1FA9FE7E1
:1060E000C1060AD500211020FAF770FF9AF80000C7
:1060F000002895D1FFF798F892E781060AD500218C
:106100002020FAF763FF9AF80000002888D1FFF7F3
:1061100060FA85E7C10507D500214FF48070FAF7D2
:1061200055FFFEF7DDFF7BE7810507D500214FF422
:106130000070FAF74BFFFFF785FA71E7410606D5C5
:1061400000214020FAF742FFFFF792FE68E7400582
:1061500091D500214FF48060FAF738FF1D480460A4
:106160001D48076804603846FDF717FEB80701D5DB
:1061700000F0DDFBA7F57060BF3801D105200AE013
:10618000F80701D0152006E017F0420F05D0DBF824
:10619000000040F0060003F081FA10480460104847
:1061A000CBF80040006890F84904C10701D180078E
:1061B00095D53078002892D008F0ECFC34702FE7A9
:1061C000AD2810003029100020381000722810006F
:1061D0005C281000E02910005028100058281000FA
:1061E0004C281000FE4900200870FE490870FE4946
:1061F0000870FE4908700121FD4A1170FD4A1170B6
:10620000FD49FF220861486188800870C861CA8022
:10621000FA4A086248621268B2F852318B81B2F8C9
:1062200054214A818862887000F0E0BF30B50024B4
:10623000234605E030F913508D4200DD641C5B1CE1
:106240009342F7DBED48006890F86101A04201D26B
:10625000012030BD002030BDF0B500252F462C4672
:10626000DDF814C009E000BF30F91460B54203DA6C
:10627000964201DD3546E7B2641C8C42F4DB25B161
:106280008CF8007001201D60F0BD0020F0BD30B51D
:1062900085B0DA4C01A800902068002503ABB0F966
:1062A0005221017DD648FFF7D7FF50B123689DF8F2
:1062B000040093F88A2102F00F01814219D81B7D56
:1062C00014E002A80090206804ABB0F95421417D8D
:1062D000CC48FFF7C1FF68B123689DF8080093F828
:1062E0008A2102F00F01814203D85B7D591A814255
:1062F00000DA150905B0284630BDFEB5BF4801AB30
:106300005022006890F88911B0F9877101F00F06EA
:106310000C09B0F9855102A90091017DB848FFF739
:106320009BFF0198B84201DD3046FEBDA84201DA6C
:106330002046FEBD401B311B4843791B90FBF1F00A
:106340002044FEBD30B5B048AC4D0478286890F8C4
:106350005101800703D5FFF7D0FFA4EB00042868A4
:1063600090F85101400702D5FFF791FF0444002C3B
:1063700001DA002402E00F2C00DD0F24204630BD9E
:1063800030B564290CD00023642407E030F91350A1
:106390004D4395FBF4F520F813505B1C9342F5DB5D
:1063A00030BD70B5002364250AE0CC5C642C06D0B7
:1063B00030F91360664396FBF5F420F813405B1C3C
:1063C0009342F2DB70BD2DE9F0470025894629464E
:1063D0002F462E46A8462B460DE000BF30F913C0CD
:1063E00039F913400CFB0C660CFB047704FB0488A2
:1063F000654421445B1C9342F0DB87FB020485FB70
:10640000013CC71A86FB020385FB056564EB0C049F
:10641000B0EB060C63EB050688FB020381FB012150
:10642000851A63EB01086421A7FB010304FB01311A
:10643000002207FB02113346624608F0DFFC0246E9
:10644000A2FB070301FB073102FB04112A46434666
:1064500008F0D4FC002C00DA4042BDE8F08730B5EB
:1064600047F6F873002405E030F91450AB4200DD24
:106470002B46641C9442F7DB002405E030F81450EE
:10648000ED1A21F81450641C9442F7DB30BD70B54E
:1064900003460020024601EBD17408E003EB4206FC
:1064A00033F91250B6F90260AD1B2844521CB2EB0E
:1064B000640FF3DB621008E003EB420533F912408E
:1064C00035F9025C641B2044521C8A42F4DB70BD27
:1064D000F0B587B00746494C03A8009020689C4659
:1064E0008E461646017D002504AB0FFA8CF27046ED
:1064F000FFF7B2FE01283BD102A80090206805AB4F
:1065000032B2417D3846FFF7A7FE012830D1DDE9E0
:10651000041081424FF0640203DD504390FBF1F11F
:1065200002E0514391FBF0F1206890F892218A42F9
:106530001EDD9DF8081019B990F89121D20716D0E8
:10654000427D521E8A4203D190F8911189070ED5DF
:106550009DF80C1019B990F89121520707D5027DCA
:10656000521E8A4204D190F89101000700D40125FF
:1065700007B02846F0BD2DE9FC41204C84460F466B
:1065800020680025164690F8901149077DD50096A1
:1065900090F89311427D0B091C49604601F0DEFE24
:1065A0000096206890F89311027D0B091749384630
:1065B000243101F0D3FE206890F89011090634D5FB
:1065C000427D90F8FA12CDE90012104A90F8F832A4
:1065D0000F49104601F0E7FF2068027D1AE0000035
:1065E000702810008D2810008E28100071281000CF
:1065F000982810009A281000342910004C28100008
:10660000F41F0120D01F01209B281000DC1B01205B
:10661000C216012090F8FB12CDE90012F74A90F85B
:10662000F932F749104601F0BEFF012700972068B4
:10663000F449437DB0F89E21F048243801F0CAFFA8
:10664000064600972068EE49037DB0F89C21EB4890
:1066500001F0C0FF07462068E849EA4A437DC83197
:10666000A1F1EC0001F017FF2068E449E44A037D42
:10667000EC31E24801F00FFFE3490022E348012E2C
:1066800006D00262012F14D042622846BDE8FC8188
:10669000036A5B1C0362266896F8936106F00F0696
:1066A0009E42EFDA02620B68012543F040030B6063
:1066B000E8E7436A5B1C4362246894F8934104F062
:1066C0000F049C42E1DA42620868012540F0400074
:1066D0000860DAE7F0B40446CD480B468021006834
:1066E0000D4690F8680110B10146C0F58075C748A5
:1066F0000089032805D22146F0BC52001846FCF759
:106700004BBE00200FE000BF33F9106034F9107069
:106710004E4307FB0566F71706EB176646F30F2691
:1067200023F81060401C9042EEDBF0BC7047F0B5DF
:106730000024B74D0FE030F8146031F81470012BCD
:106740000CD0F61B2F6897F86D717F4206EBC706D9
:1067500020F81460641C9442EDDBF0BD3E442F68C9
:1067600097F86D71F2E72DE9FC41A84D80460026AF
:10677000288998B92422A349A648FCF70DFE402297
:106780009F49A548FCF708FE9C482421643008F086
:10679000A6FB9A484021883008F0A1FB28890127F0
:1067A0009B4C032802D29D48077014E013D921683E
:1067B000B1F86B2182420ED94B7D9049954A6431E4
:1067C000904801F068FE20688C49934A037D883127
:1067D0008B4801F060FE206890F85011427D090757
:1067E00010D590F88D11CDE90012B0F954318C4AD2
:1067F0008449404601F0D7FE20688049427D8839AF
:10680000874802E07D4940468839FFF763FF2068EA
:106810007C4A90F85011437D0907824901D5804890
:1068200000E0404601F037FE2068764A7D49437D0E
:106830007248883801F02FFE206890F85011C90680
:1068400010D5427D90F896127648FFF799FD2168A1
:1068500091F85001C00605D54A7D01F51C717148BB
:10686000FFF79FFD2268704BDFF8B8C1B2F8540102
:10687000B2F86911527D084404B2002001461BE0C1
:106880003CF91080A04514DD761C012E12D96878E1
:10689000401C40B26870002803DD64481F706970B6
:1068A0000770288947F6FF71884201D2401C288171
:1068B000ECE60026401C00B28242E1DC69701970EF
:1068C000EFE7034610B50020024603E033F912401B
:1068D000521C20448A42F9DB10BDF0B54C4C0F46E7
:1068E00000252168497DFFF7ECFF06462068017D01
:1068F0003846FFF7E6FF236801460024D3F89C7270
:106900004248B74203D38F4201D3C4620DE0C16A4B
:10691000491CC16293F89B228A4206DC3A49012550
:106920000A6842F400520A60C4622846F0BD384842
:10693000006890F89011890606D5344901220A7042
:1069400090F895211209CA6190F8F002C00701D0B1
:1069500002F0D9BC70472DE9F0412D4C00231A46B6
:1069600021681846324E334F0D7D0DE036F9101078
:1069700037F910C0B1EB0C0100D5494289B28B4206
:1069800001D20B4682B2401C8542EFDC5908092037
:1069900002F0C7FE236800210A460846264D274E0E
:1069A0005C7D0CE035F9103036F91070DB1B00D53A
:1069B0005B429BB2994201D2194682B2401C84428A
:1069C000F0DCBDE8F04149080A2002F0AABE70B52B
:1069D0000F4A0020034640F2FF711268164D174C13
:1069E00005E000BF25F8101024F81030401C567D3B
:1069F0008642F7DC00200E4C0E4D26E0001C0120E4
:106A0000E6160120C21601205C281000342910006F
:106A10004C281000261701204A170120D029100009
:106A20006C391000D01F0120712810009828100028
:106A30003498012074980120EC97012010980120CF
:106A400024F8101025F81030401C167D8642F7DC23
:106A500070BD2DE9F041FF4C06460D46A078012897
:106A600044D1A06A08B9FFF7B2FFFD480022FA49F5
:106A7000DFF8E8C3076812E031F9123036F9120086
:106A8000834200DA184621F812003CF9120036F968
:106A90001230984200DC18462CF81200521C787D07
:106AA0009042E9DC0020EF4BEF4A12E033F910602E
:106AB00035F910108E4200DA314623F8101032F901
:106AC000106035F910108E4200DD314622F81010AA
:106AD000401C397D8142E9DCA06A401CA062642828
:106AE00004D3FFF738FF0020A070A062BDE8F0815A
:106AF0002DE9F34F85B0DFF868B34FF0FF31039114
:106B0000DBF800004FF0000AD84F90F82020D04664
:106B10005646D206D1464FF0010515D590F82520EE
:106B2000D34803889A420FD2A0F80090D148016858
:106B300041F022010160D0484168A802FAF767FAE3
:106B40003D7007B0BDE8F08FCC4C00235A1E1946AB
:106B5000E068F9F7BDFD00235A1E19462069F9F7D0
:106B6000B7FDC748BB4C007801281BD020890128FD
:106B700011D9DBF80000DC460123427DC149C2483F
:106B8000FFF7D5FDDCF80000BE490123027D24316A
:106B9000BE48FFF7CCFDBE48A4F808900178012953
:106BA00024D027E03A78DDE90501FFF7E4FC01286D
:106BB0000AD00598FFF7D7FDB04C2069F9F740FDE2
:106BC000E068F9F73DFDBCE7B2480570A94884F8D4
:106BD00001903D70016841F042010160A6484168A2
:106BE0004FF48060FAF713FA3D70E5E73D70E57009
:106BF00080F800909D480278DDE90501FFF7BBFCB5
:106C00000746DBF8000090F87001400606D5206AC0
:106C1000002802DC606A002800DD0126FFF792FBF5
:106C2000019092489749019B00780090DBF80000A2
:106C3000EC39427D059801F091FB8C489149019B0C
:106C400000780090DBF80000C839027D069801F05A
:106C500085FBDBF8000090F8501109071FD5417D36
:106C600090F88D31CDE90031864ACDF8089090F842
:106C70008B31EC3A8449104601F031FCDBF800001E
:106C80008249027D90F88E31CDE900327D4ACDF8FF
:106C9000089090F88C31C83A104601F020FC7349F6
:106CA0000020D9460870DBF80000774A7A49437D16
:106CB0007448EC3801F0EFFBD9F80000734A7749CB
:106CC000037D7048C83801F0E6FBD9F8000090F861
:106CD0009101000606D571496F48FFF7FEFD0128B6
:106CE00000D18246DFF89491D9F81000F9F7A8FC9A
:106CF000D9F80C00F9F7A4FCDBF80000D946DFF85E
:106D0000A0B190F89011090750D55E49427D243911
:106D10006148FFF7A4FBD9F800005A49427D2439A5
:106D200000F57470FFF74FFB6061D9F80000417DFA
:106D300054482438FFF7ABFB8646A0616069009099
:106D400032281CDD4F48D9F800202438B0F9003033
:106D5000B2F854118B4207DD92F815C000EB4C0CD1
:106D60003CF902CC8C4509DC49428B4207DA527D62
:106D700000EB420030F9020C884200DA0126D9F813
:106D80000000009990F894218A420FDAB0F8AC2103
:106D900072450BDA90F89001400601D54FF00108DA
:106DA000DBF8001041F48071CBF80010D9F8000036
:106DB000CC4690F85011C9060DD5427D90F8961238
:106DC0003548FFF7DDFADCF80000027D90F8DC12B0
:106DD0003248FFF7D5FADCF80000E14690F8901150
:106DE000890716D5B0F85231B0F854212B492A48FA
:106DF000FFF76EFB012806D1DBF80010804641F456
:106E00000071CBF80010D9F8000090F890018007CD
:106E100005D4D9F8000090F8901109070ED5B8F103
:106E2000010F09D1B4F9040000280CDB401E00B2A8
:106E3000A080002807DC0127D9F8000090F8950110
:106E400000F00F00A080D9F80010CC4691F8500156
:106E5000C00627E034291000EC970120109801208B
:106E60004C281000349801207498012098281000B4
:106E7000602810005028100008381000203810003A
:106E800063281000641C0120C2160120E6160120B0
:106E90009A281000712810006C39100090391000E9
:106EA0005C2810000DD54A7D01F51C71BF48FFF725
:106EB00078FADCF80010BE480A7D01F52871FFF76A
:106EC00070FADCF80000E04690F85011090610D581
:106ED0000095437DB74AB849B44801F0B2FA00952D
:106EE000D8F80000B34AB549037DB14801F0A9FACA
:106EF0000DE0407DAD494200AF48FCF74DFAD8F8AF
:106F00000000AB49007D4200AC48FCF745FAD8F8D8
:106F1000000090F89111C9062CD503A90091427D7B
:106F2000B0F8AC31521E0021A04801F03AFA012815
:106F300016D10398012805DBD8F800104A7D921E6F
:106F4000824212DAE0880126401E00B2E08000286A
:106F500010DADBF80010012741F48071CBF8001043
:106F6000D8F8000090F8950101E091F8950100F043
:106F70000F00E08091499048FFF76BFDD8F80000C2
:106F800090F85111C9070DD0B0F95E21417D8A48B2
:106F900001F012FBD8F80000B0F95E21017D8748AE
:106FA00001F00AFBD8F8000090F85011490712D5FB
:106FB0000095804A437D0A3A81497F4801F041FAB1
:106FC0000095D8F800007B4A7E49037D0A3A7B4849
:106FD00001F037FA0DE0407D774942007848FCF730
:106FE000DBF9D8F800007549007D42007548FCF7D0
:106FF000D3F9D8F8000094F800C0B0F85211B0F8F6
:107000005421BCF1010F07D0DFF8BCC19CF800C0CF
:10701000BCF1010F0DD016E0B0F898C1BCF1000F23
:1070200000D06146B0F89AC1BCF1000F0BD06246A7
:1070300009E090F857C1A1EB0C0190F856C189B254
:10704000A2EB0C0292B2DFF884C19CF800C0BCF144
:10705000000F07D090F8A3C1624490F8A4C192B287
:10706000614489B20FFA81F9A4F80C9011B26181E0
:10707000427D5348FFF7DAF88446D8F800004946C5
:10708000027D5048FFF7D2F85149DFF84C91BCF12E
:10709000010F81F800C04F49087001D101280BD0C1
:1070A0004E49002089F800000870206900281CDD86
:1070B000401E20610CD018E0434889F80050007849
:1070C000012812D1D8F8000090F8970120610CE057
:1070D000D8F8000090F89001C00606D5DBF8001043
:1070E00041F08001CBF8001002E0BAF1010F0CD1A1
:1070F0003B48016841F0220101603A4841684FF481
:107100008060F9F784FF38480570012F0BD13448AF
:10711000016841F04201016032484168B802F9F764
:1071200076FF31480570D8F80000454690F8901178
:10713000890624D52178012921D1E169002915DDAD
:10714000427DB0F954111E48FFF770F807462868D1
:10715000027DB0F952111B48FFF768F807B100B97A
:107160004EB1286890F895010009E06199F8000097
:10717000012807D017E0E069401EE061F6D1002049
:107180002070F3E72868B4F9041090F8950100F036
:107190000F00884207D1002E7FF415AD0949084839
:1071A00000F0B0FCCDE400F0D0FACAE46C39100075
:1071B000903910006E291000D0391000F4391000F9
:1071C000D01F0120F41F01208C281000742810000B
:1071D0008D2810008E2810007028100071281000D3
:1071E000502810000838100098281000F949002095
:1071F000FA4B0870F849012208614861C88008818B
:1072000048810870CA701A70F54A1070F54A1070FB
:10721000087148718881C881704730B5F24A0024EE
:107220001268937EDD0792F882310BD0834217DC1F
:10723000158BEB1A834213DB92F8830188420FDC33
:10724000D28A0AE083420BDCD58AEB1A834207DB41
:1072500092F88301884203DC128B101A884200DA0C
:107260000124204630BD2DE9FE430D460027DB49B1
:1072700014460646072B09D0D748092BB0F906203B
:1072800007D032800189298040895FE00F70BDE816
:10729000FE830B78012BF9D03188ADF802102988D4
:1072A000ADF80010B4F90070ADF8062081460089F1
:1072B000ADF8040001AA694602A806F0B2FE02A8D1
:1072C00006F0A7FEDFF820830346D8F800C09CF83C
:1072D0007401BCF8762100F00F01BCF878C10009F8
:1072E00052430CFB0CFC93420BDD634501DB08466B
:1072F00007E09B1A411A4B43ACEB020193FBF1F1FF
:10730000401ABDF90230C0F11002B9F906C053436A
:1073100000FB0C3343F30F133380BDF900305343AC
:10732000B9F9082000FB023040F30F102880D8F88C
:1073300000001022B9F90A1090F87501A2EB1012A2
:107340007A43000900FB012040F30F1020809EE7E4
:10735000F0B5A54C0022236893F87F7193F8805113
:1073600007B9D5B1B0F90260B1F90230F31A00D50E
:107370005B42BB4200D90122B0F90070B1F9003084
:10738000FB1A00D55B42AB4201D942F0020232B196
:10739000012A08D0022A08D008E00020F0BD0068C9
:1073A00008600120F0BD0F8000E04E80D30711D0AF
:1073B000B1F90230B0F90250AB4205DD256895F80D
:1073C0007F51A3EB050304E004DA256895F87F51AB
:1073D0002B444B80920711D5B1F90020B0F9003051
:1073E0009A4205DD236893F88031A2EB030204E0A2
:1073F00004DA236893F880311A440A80096801602E
:10740000CBE7002200EB82035B6840F82230521C7D
:10741000052AF7DB416170472DE9F04F002793B053
:1074200080463E463D46FFF7ECFF002158F821001C
:107430000744484300FB0155491C06440629F5DB77
:10744000654C09971C3460680A90A068CDE90B066A
:1074500020690D906069CDE90E05E0691090206A01
:10746000119009A8FBF7EEFC834603912068CDE953
:107470000907A0680B90E068CDE90C0660690E90E2
:10748000A069CDE90F05206A119009A8FBF7DAFC85
:107490008146206809906068CDE90A07E0680C9091
:1074A0002069CDE90D06A0690F90E069CDE91005CE
:1074B0008A4609A8FBF7C6FC0326A9FB06570A461D
:1074C0000AFB06710926A0FB0637002409FB0414F9
:1074D00002FB0672002100FB0120EA1844410399D7
:1074E00012EB0B0061414FF47562002307F086FC3C
:1074F000C8F80C0013B0BDE8F08F30B53A4A01244B
:107500001268937EDD0792F87A310BD0834217DC44
:10751000158BEB1A834213DB92F87B0188420FDC58
:10752000D28A0AE083420BDCD58AEB1A834207DB5E
:1075300092F87B01884203DC128B101A884200DA31
:107540000024204630BD2DE9FF4306462348DFF8DE
:10755000988000270178D8F800001F4C8BB090F875
:1075600070014FF001093D4601294FEAC07017D064
:1075700070B3082E46D02079BDF93410BDF9302003
:10758000012811D06079401C40B26071062837DABA
:10759000164B43F8202003F1180242F8201031E086
:1075A000B0B125716571E4E71046FFF7A6FF00282A
:1075B000BDF930100D481BD0FFF72EFFADF830009D
:1075C0000A48BDF934101830FFF726FFADF8340033
:1075D00018E000008C2810007829100037291000CE
:1075E00070281000712810004C2810003C39100041
:1075F000FFF707FFBDF93410FD48FFF702FF01E078
:1076000084F80490BDF93010ADF80210BDF93400D3
:10761000ADF80000072E02D0092E03D00CE084F84C
:10762000039009E0E278012A38D06946F148FFF773
:107630008FFE012853D02570012733460EAA0DA9CD
:107640000CA8FFF710FED8F80000C44690F87001AF
:10765000000609D5082E07D0BDF93410BDF9300059
:10766000FFF7DBFD012848D0C7B3BDF83010E1803B
:10767000BDF834202281BDF83800608104958DF872
:10768000106005958DF81200ADF81610ADF81420B5
:107690008DF8135004A801F0D6FE51E0D8F8002070
:1076A00092F97C31637092F97D21A2702570B4F952
:1076B00006C0BCEB010C01D5CCF1000C9C4506DAF0
:1076C000B4F908301B1A00D55B429342B5DB0222A5
:1076D000E270C84A012751801080AEE730E0207880
:1076E000401C40B22070D8F8001091F881118142FE
:1076F000A3DC84F8039025709FE7072E0DD0BE48C9
:1077000000780028DCF800001CD090F8A601401C8E
:10771000206100200FB0BDE8F083B8480570DCF8A8
:10772000000090F89001C0070AD0B548016841F008
:1077300022010160B34841684FF48060F9F767FCAB
:107740000120E7E790F87301E1E7AB4810B5017855
:10775000AD48006851B190F9A611A8480278A54833
:107760001838012A05D00021416110BD90F973112C
:10777000F3E70269521C02618A42F6D300231A46DB
:1077800019460820FFF7DFFEBDE810402EE5F0B5F2
:107790000746DDF814E037F912404FF0FF3074452A
:1077A00001DA002400E01046012517E0561B07D43B
:1077B00037F916C0F44503DDA44501DD30466446C3
:1077C0005619A1F1010C664507DC37F916C0F445DE
:1077D00003DDA44501DD304664466D1C9D42E5DDB8
:1077E000F0BD89490A68B2F86411814201DB0020CA
:1077F0007047B2F86621824201DC7F207047521A3E
:10780000401AC0EBC01090FBF2F07047F0B50024B6
:107810000125A1F101060BE0571B02D430F91770C6
:107820003C445719B74202DC30F917703C446D1CD8
:107830009D42F1DD012A02DB891E8A4200DD6400DF
:1078400030F912002044F0BD2DE9F0476E4D14468A
:107850009A462E6830F91420814602FB04F0012379
:10786000A1F1010196F862C117E0E51A08D439F9CF
:107870001570B6F85E81474502DB07FB05003A4408
:10788000E5188D4208DC39F91570B6F85E81474578
:1078900002DB07FB05003A445B1CB3EB1C1FE4DD75
:1078A0004A4380FB0A01D31707F0A8FA00B2BDE8EB
:1078B000F0872DE9F04F8FB00C4682461746994667
:1078C0000025182108A8189E07F02BFB2EB94E485A
:1078D000006890F8620100F00F06BA1B07EB060380
:1078E00000D50022661EB34200DD631E08A9504683
:1078F000FBF716FB45484FB1B74232D14249096800
:1079000091F85111890613D54D466EE03E4909683C
:1079100091F85111890668D4BAF904100160BAF9D6
:1079200000104160BAF902104B460122816010E05C
:107930000AEB440100EB84000C3831F9062D82601B
:10794000B1F904204260B1F902107F1C4B463AB2F3
:107950000160611E2D4802F0BBFB99FBF6F1451A50
:1079600043E0DDE90CB0B0F1000851DADDE90823AD
:1079700052EA03004CD0DDE90A010191049000298C
:1079800046DB2148056895F85001400611D5584658
:10799000414607F033FA002800DA404295F86311B7
:1079A000884206DA4B463A4621465046FFF74CFFDE
:1079B0001AE01BEB0B03A3FB062448EB080000FBBB
:1079C0000640F11703FB01030499019800244E427D
:1079D00064EB0004A6FB090704FB09714FEAE97593
:1079E00006FB051107F00AFA054628B20FB082E53A
:1079F0005439100090291000742810008C281000B1
:107A000050281000083810004C281000F43E1000D8
:107A1000B8F1000FC6DADDE908010843C2D00B98BF
:107A20000028BFDBE1E738B5A44D049C2D6895F82C
:107A30005051AD0603D50094FFF73BFF01E0FFF77F
:107A400003FF00B238BD2DE9F04700249A46CE1E50
:107A500081462346A44627462546022A03DBB24236
:107A600001DC104623E70020491E07E039F91080A9
:107A7000B8F1000F01DDC4447F1C401C8842F5DBD7
:107A80009CFBF7F7022A12DA10460DE039F9106074
:107A9000BE4203DA3CB90446002304E01CB19E4216
:107AA00001DD33460546401C8842EFDB14E0B2425C
:107AB00012DD10460EE000BF39F91010B94203DAAA
:107AC0003CB90446002304E01CB1994201DD0B4699
:107AD0000546401E0228EFDC534500DA15462846CD
:107AE000E5E630B5044630F911300020491C06E0C7
:107AF00034F911509D4201DD2B460846491C914244
:107B0000F6DB30BD2DE9F34F6C4C89B0226892F85A
:107B10008431567D03F00F056F4206EB4706F6B23F
:107B20000396167D1A0900EB45005342099006EBB7
:107B3000430301EB4200DBB201931A4600210A9095
:107B4000FFF7CFFF06460021039A0998FFF7C9FF08
:107B5000074620685A4D90F87001800607D5B5F9A0
:107B60000030324601990A98FFF76DFF06462068FB
:107B7000DFF850A190F87001C00607D5BAF90030BF
:107B80003A4603990998FFF75EFF0746DFF83891F8
:107B9000DFF838B199F80000012829D1206890F861
:107BA0006001010724D0010922D0B5F9001000912D
:107BB00000F00F03D846BBF90C2001990A98FFF793
:107BC000E6FD0546BAF9000000902068B8F90E20DD
:107BD000039990F8600103090998FFF7D8FD002D7B
:107BE00001DB002802DAFFF7B0FD01E02E46074670
:107BF0000FFA86F83AB2ABF80C80ABF80E200027EB
:107C0000009720685D460399B0F918300998FFF78E
:107C10000AFF00970890206842460199B0F9163093
:107C20000A98FFF700FF0790206890F8700180071E
:107C300004D5022208A907A803F0A0FD08A907A8F7
:107C4000FBF768FC0123324601990A98FFF7DEFD35
:107C5000FFF7C7FD1E4909780029216807D091F96F
:107C6000A52100BF99F800306C691BB104E091F9BF
:107C70007221F7E7641C6C6194421BD340F2FF123F
:107C8000C5E9047253B103B2089802B2079801B271
:107C90005FF00900FFF757FC50B10BE0012289F8B3
:107CA000002003B2089802B2079801B20720F1E75A
:107CB000FFF74BFD01200BB01DE400004C28100025
:107CC000402910003E2910008C281000782910004F
:107CD00074281000E548E64A0068B0F8AC139180BB
:107CE000E44990F8B10308817047E2490020DF4A77
:107CF0008880C880C86048801268DF4B92F85C2199
:107D000012091A7008610870DC49087070472DE983
:107D1000F04395B0814602AF4821384607F001F99B
:107D2000D2480123016891F8B1204C7D91F8A0114F
:107D300003EB1216890715D50025804610E000BF19
:107D4000D8F8001005FB04F009EB40004A7D91F8DB
:107D50008B31CDE900324946024600F024FC6D1C0F
:107D6000B542EDDB002010E000FB04F2002109E049
:107D700002EB010C57F8215039F91C302B4447F81D
:107D80002130491CA142F3DB401CB042ECDB002057
:107D900007E000BF57F8201091FBF6F147F82010DC
:107DA000401CA042F6DB00200121A4F1010517E0F0
:107DB0004FF0000C63460BE003FB041839F9182060
:107DC00057F82180B2EB080200D5524294445B1C64
:107DD000B342F1DB9CFBF6F2824200DD1046491C07
:107DE000A942E5DBB0F5803F04DB4FF6FF7015B02C
:107DF000BDE8F08380B2FAE730B59C499E4B096834
:107E000091F85021920725D59C4A12784AB191F8F1
:107E1000A74104F00F022509B1F8A841B1F8AA1151
:107E200007E001F5AC710C7904F00F0225090C880C
:107E30004988A04201DC1A7030BD884201DB1D7008
:107E400030BD001BAD1A6843091B90FBF1F01044D4
:107E5000187030BD91F85C0100F00F00F8E72DE9D3
:107E6000F041824D296891F88023B1F8AC33D407F2
:107E70007F4A3ED091F8AF4304B90124968891F827
:107E8000AEC3F71A07FB0CF797FBF4F4B1F8AA732B
:107E900037442744774CB8420BDD79480026E6602A
:107EA00041682020F9F7B3F8E680286890F8B1031C
:107EB00006E0864202D9714D2D7825B191F8B103C3
:107EC0002081BDE8F0816F4909780029F9D1B4F922
:107ED0000810002901DD491E218121890029F0D1E6
:107EE000B11E814200DA01468B4200DD19469180C5
:107EF000E7E79380E5E75D4A10B514680021B4F820
:107F0000A121824204D294F8B000800700D501215B
:107F100058485A4B0278914211D1197891420AD0AF
:107F2000584C2478224307D00169491E0161002979
:107F300001DC0078187010BD01700169F7E739B1F4
:107F400094F8B22002610170002AF4DC197010BDAF
:107F500094F8B320F6E7454910B5096891F8B010D8
:107F6000CA06444918D5484A14780A46D388C3EB50
:107F700003125200012C05D0C41A002C0CDC414C19
:107F8000247824B102EB4000C0F34F1004E0C3EBAF
:107F900083121044C0F38F10C88080B210BD10B59A
:107FA000FFF7B5FEFFF7D7FF324CA080FFF7A3FF26
:107FB000A088FFF721FFA088BDE810404FE7F0B48C
:107FC00031490B782B494A88B3B1322A01D2521C6D
:107FD0004A80264A0125136893F8B1405B7D05EB82
:107FE0001415CC6894FBF5F605FB1644274E634345
:107FF00006EB430700230CE0012AEAD9521E4A800F
:108000000022CA60E5E700BF30F813C027F813C0AC
:108010005B1CD2F800C09CF815C09C45F4DCCB6812
:108020005B1CCB60136893F8CD77FF0707D05B7DAF
:10803000641C5F00634306EB4304002307E0C86849
:108040000CE0FE1830F8166024F813605B1C16680C
:10805000767D9E42F5DCC868401CC860A84202DB01
:10806000F0BC0A489BE7F0BC704700004C281000A9
:10807000FC371000B82910009B281000742810004D
:10808000083810007028100063281000901D01208F
:10809000704710B500230AE030F91340002C00DAD5
:1080A00064428C4201DD012010BD5B1C1BB2934277
:1080B000F2DB002010BD70B5924C934A93492068C2
:1080C000437D934800F0E7F92068924A9249037D86
:1080D000924800F0E0F92068427DB0F998128B4890
:1080E000FFF7D7FF05462068027DB0F998128A484D
:1080F000FFF7CFFF00228A49012803D0012D01D0CC
:108100000A6070BD0868401C0860236893F89A32C2
:108110008342F6DC8348036843F48053036082485B
:108120000A60016841F02201016080484168BDE8B1
:1081300070404FF48060F8F76ABF2DE9F84F7C4833
:10814000007840077ED56F4C7A4B7B4D206890F8C5
:10815000230000F00F0279480078012800D10022A6
:10816000C2F110090020DFF8D8A14FF0010B3DE06B
:1081700033F91060B1F92A7006EB070C3AF9107068
:10818000BC4532DBB1F92CC0A6EB0C0CBC452CDC99
:10819000564307FB09664FEAE67706EB177646F388
:1081A0000F16009691F8806376071BD5614EDFF8B5
:1081B00060E136F81070009EF61B0FFA86FC002670
:1081C0000AE000BF06EBC6080EEB8807761C37F8FE
:1081D0001080E04427F8108091F880830BEB98170B
:1081E000B742EFDC009923F81010401C21684E7D47
:1081F0008642BDDC0020DFF84CA13DE035F910607F
:10820000B1F92A7006EB070C3AF91070BC4532DB65
:10821000B1F92CC0A6EB0C0CBC452CDC564307FB7B
:1082200009664FEAE67706EB177646F30F160096D7
:1082300091F8806376071BD53F4E36F81070009E8C
:10824000F61B00E039E00FFA86FC0026DFF8CCE0F0
:1082500008E000BF0EEB8617761C37F81080E0446C
:1082600027F8108091F880830BEB9817B742F1DC68
:10827000009925F81010401C21680E7D8642BDDC57
:1082800091F83404C0070CD0487D194642002948B3
:10829000FBF782F820682946007D42002648FBF75C
:1082A0007BF8206890F89111090606D590F88003B4
:1082B000400702D5BDE8F84FFDE6BDE8F88F11484C
:1082C00010B5006890F82000C00719D01E481F495B
:1082D0000078097808431E49097808431D49097840
:1082E00008430DD11C4C00235A1E1946E068F8F7CC
:1082F000EFF9FFF722FFE068BDE81040F8F7A0B9FA
:1083000010BD00004C2810001A1801206C39100014
:108310008A1701203E190120903910003E180120D3
:10832000CC2910005C2810005028100008381000DC
:10833000D4291000C2160120E6160120D029100011
:108340007E190120A21901206D2810006F2810004D
:108350008C2810007228100020381000F0B40C4651
:1083600001460498C3F11006012801D0002014E052
:108370002046F0BC5200FBF70FB800BF34F9105094
:1083800031F910705D4307FB0655EF1705EB1775C4
:1083900045F30F1524F81050401C9042EEDBF0BC62
:1083A0007047F0B50646002004460546521C059F5E
:1083B0000AE000BF36F911C09C4504DDA44502DD8A
:1083C00064460D460120491C9142F3DB3D60F0BD3F
:1083D000F0B50026B4463546374634460FE000BFB8
:1083E00031F914E0BEF1000F03DD764405F101051B
:1083F00003E002DAF44407F1010704F101049442B6
:10840000EEDB96FBF5F59CFBF7F6002416E03BB19E
:1084100031F91470002F09DD30F814702F4409E091
:1084200030F8147031F814C0674403E004DA30F80F
:108430001470374420F8147004F101049442E6DB10
:10844000F0BD2DE9F04391460022DDF81CC019E093
:1084500000252E464FEA050402EB0407BF1E08D490
:108460009F4206DA30F9178039F9147008FB075576
:108470003E44641C052CEFDBBCF1010F06D021F853
:108480001250521C9A42E3DBBDE8F08395FBF6F4F0
:1084900021F81240F5E770B5002407E032F81450D7
:1084A00030F81460AD1B21F81450641C9C42F5DBBD
:1084B00070BDF0B500252C4609E000BF31F914600D
:1084C00030F91470F61B964200DD6D1C641C9C4252
:1084D000F4DB022D01D90120F0BD0020F0BD2DE913
:1084E000F04F8946DDE90A67012447F6F8719A469C
:1084F0004D429346A4460023DDF824E018E000BF77
:1085000030F8132039F81380D21BA8EB020212B204
:10851000914200DD1146954200DA1546002A02DA42
:108520004FF0000402E001DD4FF0000C03F1010305
:10853000B342E5DB54EA0C0206D0012C01D02CB189
:1085400008E0BCF1010F05D1002103E0BCF1010FEF
:1085500000D1294600252C462A4611E030F8123079
:1085600039F812C0DB1B0B44ACEB03031BB25345C1
:1085700005DACEF1000C634501DD1D44641C521C7C
:10858000B242EBDB95FBF4F20A44002107E000BFA6
:1085900030F81130DB1B13442BF81130491CB14269
:1085A000F6DBBDE8F08F7EB50026DDE907458DE8F6
:1085B0007000FFF794FF7EBD30B500231C4606E037
:1085C00030F91350954201DA20F813405B1C8B42BE
:1085D000F6DB30BD2DE9F04300252E462C46DDF8B4
:1085E0001C9017E031F9147030F914C007EB020841
:1085F000C44505DDBCEB070700D57F423E4408E0DB
:10860000A7EB0208C44504DABCEB070700D57F429C
:108610003D44641C9C42E5DBB9F1000F00D100250C
:10862000B54201D201202FE700202DE710B500212F
:108630000420F8F7CBFC6248624A00685168414068
:1086400006D05060480703D5BDE81040FDF7CABD0D
:1086500010BD70B50546480713D55B4C00235A1E64
:1086600019462069F8F734F858492846FAF7B1FC5A
:1086700057492846FAF7D3FC2069BDE87040F7F760
:10868000DFBF70BD70B54F480021524D0170524997
:108690002C680C4237D040680440504800780028CD
:1086A00031D1494E0023CA171946B069F8F710F8BE
:1086B00021464B48FFF7CDFF4A48006890F8A011CB
:1086C000C9070AD0287800060DD447480078052845
:1086D00009D04348FFF773FC05E090F85C0143497B
:1086E00000F00F000870B069F7F7AAFF600703D524
:1086F00037493648FEF7FCF92868002803DABDE858
:108700007040FFF7DCBD70BD2E4910B500204860F9
:10871000FFF7BEFCFDF766FDFFF7E7FABDE8104086
:10872000FFF7D8BA274C00276770FFF7EDFF4FF629
:10873000FF780126607850B30128FBD10021352055
:10874000F8F716FCF8F7CCFC0546C00706D0002168
:108750004046F8F73BFCFFF7D7FF6770680705D581
:1087600000210420F8F732FCFFF78CFFE80605D55E
:1087700000211020F8F72AFCFFF758FFA806D9D5EA
:1087800000212020F8F722FC19480670D2E70421C6
:108790000020FAF77AFC00210220F8F7E9FB042117
:1087A0000120FAF772FCF8F79BFC8007C2D5002184
:1087B0004046F8F70BFCFFF7A7FF6670BAE700002A
:1087C000882A1000D0291000203810007E190120BE
:1087D000A2190120882810003C02008066281000A1
:1087E000C08D01204C2810009C2810009B281000F0
:1087F000362910002DE9FC4789460746FAF7E3FBC6
:108800000090FAF70BFC019004216846FAF7F8FA99
:108810000446042101A8FAF7F3FA2044F74C460075
:10882000F749E068F74D704301EB4000296872009A
:10883000B1F8F2823946FAF7AFFD2868E16890F89E
:10884000F102884202D10120A07002E0A078012844
:1088500019D1EB4F002014E02A68012137F91030BC
:1088600092F8F122521C05E006FB010C491C37F975
:108870001CC063448A42F7DCA3EB080229F81020ED
:10888000401CB042E8DB286890F8F112E0688142B1
:1088900001D3401C00E00020E060A078BDE8FC8728
:1088A0002DE9FC4115460E460746FAF78CFB009071
:1088B000FAF7B4FB01900098042140080090684644
:1088C000FAF79EFA0446042101A8FAF799FA00EB98
:1088D000440C07EB440207EB4C03014606EB44074C
:1088E00006EB4C06002006E032F810C00CFB05FC3D
:1088F00027F810C0401CA042F6DB002006E000BFB5
:1089000033F810206A4326F81020401C8842F7DB19
:10891000BDE8FC812DE9FC47154689460646FAF775
:1089200052FB0090FAF77AFB019004216846FAF7AF
:1089300067FA0446042101A8FAF762FA01463046B4
:1089400006EB440305EB4407002207E030F802CBB6
:1089500033F8028B521CC44427F802CBA242F5DB49
:1089600001EB440206EB840006EB420305EB4206F2
:10897000002207E030F8027B33F802CB521C674438
:1089800026F8027B8A42F5DB48462946002204E0AD
:1089900030F8023B21F8023B521CA242F8DB09EB03
:1089A000440005EB8402002105E000BF30F8023BE3
:1089B00022F8023B491CA142F8DB6FE72DE9F043A6
:1089C0008946904909684C7D0B7D641C012116E0A5
:1089D0004A1C01FB03F55A4300EB450600EB420736
:1089E00009EB4505002207E036F812C037F812807F
:1089F000C44425F812C0521C9A42F5DB491CA1421E
:108A0000E6DBBDE8F08370B505467E480C4600689D
:108A100090F88C17C9060AD5007D294642002046E9
:108A2000FAF7BAFC21462846BDE87040C6E7214661
:108A30002846BDE87040FAF7D4BC7248006890F848
:108A400029010106704802D50188491C01E06B49E3
:108A50008988018070472DE9F05F6A4C0026354611
:108A60002068B24690F8C800C1070FD081070DD525
:108A700066490A78C0F38201012000FA01F10A4236
:108A8000634901D0087001E081F800A05C4FDFF875
:108A90006C81103F387828B1F9F7B5FEC8F81CA0F2
:108AA000BDE8F09FFFF7C9FF206890F81801400764
:108AB00001D5F9F7DFFDDFF85CB19BF80000012874
:108AC000ECD0554800235A1E80691946F7F700FE7E
:108AD00098F81C00C00704D050497868FFF793FF4E
:108AE0000126B8F81C0010F4DE7F5CD0206890F8F6
:108AF000CD07C00705D0D7E90201494AFFF70AFFB1
:108B000003E04749B868FAF750FC98F81C0047465C
:108B1000000607D52068424990F8CC270846521C29
:108B2000FFF7BEFE20683F4990F8F002C0073C48BE
:108B300002D0FFF75FFE01E0FAF737FC206890F8FB
:108B4000F012C90702D0BD782E4600E0012590F84A
:108B50004914DFF8D090890711D5427D012309EB34
:108B600042003149FFF734FC20680123027D407D3B
:108B700002EB400109EB41002C49FFF729FC012DD4
:108B800011D19BF80000052819D021680B7D487D84
:108B900003EB400209EB4200B1F96E21244900BF0A
:108BA000FFF787FC78702349D8F81C0008601A4842
:108BB0008069F7F745FD204C012E09D00CE02068B4
:108BC0001E49437DB0F86E01420809EB4300E7E718
:108BD0000420E168F8F71BFA012D7FF45FAF184D10
:108BE0002878012804D10D2000F058FD85F800A058
:108BF00004202169F8F70BFA50E70000D82910008B
:108C0000443A10004C281000A42810004B0000200B
:108C1000752810009C281000203810004089012081
:108C20002C3E1000C08D0120888E0120AC8E0120CA
:108C3000E61601208828100008381000C21601200E
:108C40009928100010B501461022FE48FAF7A4FB3F
:108C5000FD4881680220F8F70BFA002803D0BDE830
:108C60001040F7F7CFBB10BD70B594B0044668460E
:108C7000FAF7C2FBF548F64BF649C461E20724D087
:108C80009DF8002042F001058DF800500A6892F826
:108C90007A67F60707D0F04E3678012E03D145F0FB
:108CA00080058DF8005092F82051ED070DD01D7809
:108CB000032D0AD002F2211255788DF81250157842
:108CC0008DF8175092788DF8132014F49E7F4FF092
:108CD000000544D00A6892F8A061F6070DD092F81A
:108CE000CD67F60709D01B78052B12D09DF8003010
:108CF00043F010038DF8003002E01B78052B08D0FC
:108D000092F87A27D2079DF8002024D042F006027C
:108D100023E0002C1ADA92F87A37DB079DF800304E
:108D200002D043F0060301E043F020038DF8003049
:108D300092F87037DB0703D092F873278DF836204E
:108D40008DF8345044F08002C26108E09DF8003094
:108D500043F00203EAE742F020028DF80020E2052A
:108D60000CD5BE4A1278012A03D0BD4A1278012AD6
:108D700004D10A6892F8B021120702D44278012A7D
:108D800010D18DF83450096891F8CD17C90705D076
:108D90009DF8001021F010018DF80010C16941F01C
:108DA0008001C161AFF2631001906846F8F7CCFF13
:108DB00014B070BD00EB80004FF6FF7101EA400077
:108DC000F8F78EBAA24810B50178A24805290068C4
:108DD00007D0A4490978012906D090F81A4134B186
:108DE00006E090F81D41FAE790F81B41F7E71424DC
:108DF000F8F75EFB002801DD04EB8404204610BD7B
:108E000070B59449054600200A6892F82010C907F9
:108E100014D08F490B788D49052B10D092F839303A
:108E20008E4C914E2478367834438D4E36783443C8
:108E30008E4E367834430BD05A428A6070BD0C781F
:108E400092F83A30032CEBD2641C0C708B60E7E78D
:108E50008C68641C8C609C42F0DD0020886092F875
:108E600050110120C9070ED192F8021259B992F897
:108E7000E012C90707D192F86012C90703D192F82E
:108E8000B011C90701D040F23D10284040F0004029
:108E900070BD2DE9F04FDFF8B8B16C4C7449002279
:108EA0009BF80070A0690978BA4690469446C307BB
:108EB00002D009B14FF00108430602D509B14FF0C5
:108EC0000108410709D568490978012903D0694992
:108ED0000978012901D14FF0010C5E49DFF8789142
:108EE000654E0D68654B0021B8F1010F09D0DE46D3
:108EF000032F0DD04FF0010B022F15D0052F32D0CC
:108F000034E0616121613170197089F800104CE022
:108F10002161317019706269521C626195F85D318E
:108F2000934242DA61613BE0BCF1010F14D095F845
:108F30001871BF071AD5616127697F1C276195F8F1
:108F400019C10CEBCC0808EB0C1CB7EB8C0F0DD344
:108F5000216186F800B02DE06161216131701970E6
:108F600089F8001002E0BCF1010F13D0BAF1020F32
:108F700016D0BAF1050F1DD08EF800B00240226263
:108F8000D30737D095F8B031DB0733D03C4B1B7893
:108F90006BB32FE0616121613170197089F80010A5
:108FA00002238EF800303F22E8E703238BF80030DD
:108FB0001A46E3E705278EF8007010F00C0F13D067
:108FC0001E2287070BD01F78012F08D195F8187142
:108FD000FF0604D519701B2289F800B0CEE783F88C
:108FE00000B089F80010C9E71F221970C6E742F4E3
:108FF00080722262327802B92170FFF701FF216A84
:1090000008432062BDE8F08F2DE9F0411D4E00239A
:109010005A1E19463068F7F75BFBFFF73AFF1A490B
:10902000086800280ADD124A12783AB9401E086022
:1090300004D1054841690220F7F7E9FF054C206893
:1090400024E00000343A100008381000D82910003D
:109050009C2810004C281000652810006D28100076
:109060006F2810006A281000702810007228100065
:109070006628100071281000632810006428100072
:109080007328100020381000842A100090F87A0706
:10909000B54FC00707D0B5480078032803D0388BF8
:1090A00010F49E7F03D1FFF78DFEFFF783FE20684B
:1090B000AF4D90F8F007C00708D0286830B1002104
:1090C0002020F7F755FF002028600CE0386AFFF7F2
:1090D000CBFD00210220F7F74BFF00210220F7F71C
:1090E00075FFFFF7B8FC3068F7F7AAFA206890F828
:1090F000F007800701D501202860BDE8F08110B598
:1091000000210120F7F762FFBDE810407CE7F8F787
:10911000F7B82DE9F05F002739460420F7F756FF2E
:109120009448914D0668A869014670403ED0DFF82A
:109130004892DFF848A2DFF848B230423C4620D0DF
:10914000F9B990480127002104604FF6FF70F7F746
:109150003DFFEC612C622C616C61AC6089F80040D1
:109160008AF800408BF800408748EC60AC700068DB
:1091700090F82901800704D58448AC800480844895
:109180000480DFF8E881AE618EB10220012F1AD091
:1091900098F80010052909D12C616C6189F800400C
:1091A0008AF800408BF8004088F8000078E4F8F76F
:1091B000A7F8012088F80000BDE8F05F00214FF615
:1091C000FF70F7F703BFF10700D0032088F8000015
:1091D000BDE8F05F18E710B500211020F7F7F6FEA4
:1091E0006248017801290CD0052101705E490020F8
:1091F000614A486108610121117060490870604945
:10920000087010BD10B500210820F7F7DFFE5749A0
:109210000878052813D1544A0020574B506110613B
:109220001870564B1870564B18709069C20701D0D1
:10923000032003E010F02C0F02D00220087010BDB4
:109240008005FCD50420F9E710B500215D20F7F773
:109250008FFEF7F745FF010702D5BDE81040D1E7C3
:10926000C10602D5BDE81040B5E7410609D4410763
:1092700002D5BDE810404CE7C00702D0BDE8104061
:109280003DE710BD10B502210020F9F7FEFE0021D8
:109290000420F7F76DFE02210120F9F7F6FEF7F73B
:1092A0001FFF400702D5BDE8104032E710BD2E4930
:1092B00000202E4C8861C8610122086222702E4B6A
:1092C0000861486118702D4B1870324B1A702C4A87
:1092D00010704870C860887007E02078012804D0BA
:1092E0000528FAD8FFF7B0FFF7E7FFF7CBFFF4E761
:1092F0001D490020486108611F4908701F49087016
:109300001F490870704718480021C160817070477C
:1093100010B5F9F71EF814490020C86110BD10B54A
:10932000F7F7EEFF1C4881680120F7F7A1FE00283F
:1093300003D0BDE81040F7F765B810BD80B2F7F76D
:10934000F9BFF8F707B810B5F8F704F806488188B0
:10935000491C8180BDE810400120EFE70A48006801
:1093600090F81C0126E50000D82910009C28100068
:1093700078281000882A1000632810006428100044
:1093800065281000882810004C281000A428100020
:10939000A6281000992810000838100070B5FE4C5F
:1093A000002305465A1E1946A068F7F791F90028D0
:1093B00007D02846F8F786F8A068BDE87040F7F7B0
:1093C0003FB970BDF8F77EB81CB50021009101913E
:1093D00002789DF8001062F303018DF800104278C6
:1093E00062F307118DF800104289BDF8011062F395
:1093F0000B01ADF801100289BDF8021062F30F11E4
:10940000ADF8021081798DF80410C1798DF805103E
:1094100001798DF8061080788DF807006846FFF70F
:10942000BDFF1CBD1CB500200090019002208DF8EE
:109430000000DA480068C007400E8DF80700684653
:10944000FFF7ACFF1CBD1CB5002100910191017814
:109450008DF8001041788DF80110C188C1F3071113
:109460008DF802108188C1F307118DF8031001797E
:1094700001F00F018DF80410827941EA02118DF894
:10948000041081788DF80510C07800F00F008DF879
:109490000600C2480068C007400E8DF80700684605
:1094A000FFF77CFF1CBD1CB5002000900190BC485C
:1094B00000684178827810208DF800004006437AD9
:1094C0008DF80130B74B1B788DF8023043891B0AA9
:1094D0008DF8033040898DF80400B0488DF80510F0
:1094E0008DF806200068C007400E8DF8070068461A
:1094F000FFF754FF1CBD1CB5002000900190112007
:109500008DF80000A5480068C007400E8DF80700E0
:109510006846FFF743FF1CBD2DE9FC4106460020CD
:1095200000900190122015460C468DF800004FF077
:1095300008571EE0200A8DF80100C4F30B008DF8D7
:109540000240315C30448DF8031041788DF80410EE
:1095500081788DF80510C0788DF80600D7F8E00105
:10956000C007400E8DF807006846FFF717FF241D5F
:109570002D1F002DDEDCBDE8FC811CB50022019210
:1095800000920F228DF800208DF801008DF8061052
:10959000402082498DF80700012008606846F7F7EF
:1095A00091FF1CBD1CB5002300930193DB238DF8B4
:1095B00000308DF801008DF80210100E8DF80300B8
:1095C000100C8DF80400100A8DF8050073488DF812
:1095D00006200068C007400E8DF807006846FFF7B8
:1095E000DDFE1CBD1CB50022009201920F228DF8F9
:1095F000002005228DF801208DF8020067488DF8C3
:1096000003100068C007400E8DF807006846FFF79A
:10961000C5FE1CBD7CB50025009519208DF8000005
:1096200040070195417A8DF801105E4909788DF85F
:1096300002104189090A8DF803104089584E8DF8AF
:109640000400564C306841788DF8051080788DF80C
:1096500006002068C007400E8DF807006846FFF737
:109660009DFE00951A2001958DF80000306800F5E8
:10967000FC6001788DF8011041788DF80210817836
:109680008DF80310C0788DF804002068C007400EE4
:109690008DF807006846FFF781FE7CBD1CB5404988
:1096A000096891F82911490603D400F00F010C292B
:1096B00019D100210091019116218DF800108DF82B
:1096C0000100010A8DF80210010C000E8DF8040053
:1096D00032488DF803100068C007400E8DF807006F
:1096E0006846FFF75BFE1CBD1CB500230093019389
:1096F00016238DF800308DF80100080A8DF802005D
:10970000100A8DF8040025488DF803108DF8052007
:109710000068C007400E8DF807006846FFF73EFE60
:109720001CBD1CB500230093019316238DF8003057
:109730000B238DF801308DF80200080A8DF8040023
:109740008DF80520100A8DF8060014488DF80310D6
:109750000068C007400E8DF807006846FFF71EFE40
:109760001CBD1CB5002300938DF80000080A8DF87D
:1097700002000193100A8DF8050008488DF80310C7
:109780008DF806200068C007400E8DF80700684677
:10979000FFF704FE1CBD000020381000E00100228D
:1097A0004C281000AC2810009748006890F82A0157
:1097B00000F00700801C00EB8000C000F7F7A5BD9B
:1097C0002DE9F047914D286850B3DFF8448200231B
:1097D0005A1E1946D8F81400F6F77AFF002401271C
:1097E000286807FA04F6304213D004EB440005EB76
:1097F000800999F8040005280BD104218548F9F760
:10980000FFFAC1B209F10400FFF7DEFD2868B0439A
:109810002860641C0A2CE3D3D8F81400F6F710FF74
:109820007C48001F4068002802D0BDE8F047BBE735
:10983000BDE8F087F7F779BD2DE9F05F754DDFF8EA
:10984000D0A12D1F0023D5F804805A1E1946DAF83E
:109850001400F6F73DFFDFF8B0914FF0005BD9F848
:10986000000090F82901800702D500218BF805102F
:10987000002766480126BE400168314239D007EB17
:10988000470200EB82042279032A09D0042A07D078
:10989000052A2ED1D9F8002092F82921D20628D401
:1098A000B14301602079032802D0042804D018E0D5
:1098B000686806436E6014E0D9F8000090F829014A
:1098C000C0070BD00520207104215248F9F798FAFF
:1098D000C1B2201DFFF778FD042020716868B043F5
:1098E000686004214B48F9F78BFAC1B2201DFFF7DD
:1098F0006BFD7F1C0A2FBCD3D9F800004C4690F8B2
:109900002901800702D580218BF80510DAF81400B0
:10991000F6F796FE206890F82901C0060ED5686813
:10992000B8F1000F05D0002808D1BDE8F05FF7F7C7
:10993000FCBC002802D0BDE8F05F35E7BDE8F09F31
:1099400034490020091F48607C21304805F0E9BAFD
:10995000304D00262D1F2E70F7F7E7FC287840B316
:109960000128FBD107200021F7F702FBF7F7B8FB2E
:109970000446400706D500210420F7F727FBF7F738
:10998000D4FC2E70A00705D500210220F7F71EFB9E
:10999000FFF752FFE007E1D000210120F7F716FBA7
:1099A0001948006890F82901C006D7D5FFF708FFCD
:1099B000D4E7002108240846F9F767FB0021204678
:1099C000F7F7D6FA00210120F9F75FFBF7F788FBDC
:1099D0000007C3D5FFF7B4FFF7F7A7FC00210F205E
:1099E000F7F7F4FA01202870B8E710B5F7F79DFCF7
:1099F000094801680120F7F73BFB002803D0BDE8C8
:109A00001040F6F7FFBC10BD4C2810008037100046
:109A100020381000002A1000083810002DE9F04707
:109A20008248834C01684D7D087D6D1C91F8232090
:109A3000454310234FEA1219A3EB121831E07D4A77
:109A4000B1F9266032F9103034F9102016449E42E4
:109A500026DBB1F92860961B9E4221DC02FB09F649
:109A600003FB08634FEAE37603EB167343F30F1A25
:109A700091F8D0305B0711D5AAEB020216B2DFF8DD
:109A8000B8C1002202EBC2030CEBC313521C33F823
:109A90001070042A374423F81070F3DB24F810A068
:109AA000401CA842CBDB91F8200000070BD5604892
:109AB000F9F725FB6149624A0860BDE8F0470146B5
:109AC0005B48F9F76DBBBDE8F0872DE9F04F5748CB
:109AD000006890F85011C90777D190F8B011C90704
:109AE00073D05849097800296FD190F82310DFF816
:109AF00058C101F00F03C3F110050021534C4FF082
:109B0000010936E034F91120B0F92A6097193CF9BF
:109B10001160B7422CDBB0F92C70D71BB74227DCA1
:109B200002FB03F706FB05764FEAE67706EB1776AE
:109B300046F30F1B90F88063760717D5ABEB020254
:109B400017B20022DFF808A10AE000BF02EBC2084A
:109B50000AEB8806521C36F81180B84426F81180AA
:109B600090F8808309EB98169642EFDC24F811B048
:109B7000491C427D8A42C5DC0021DFF8D8C0364C42
:109B800035E000BF34F91120B0F92A6097193CF98B
:109B90001160B7422ADBB0F92C70D71BB74225DC25
:109BA00002FB03F706FB05764FEAE67706EB17762E
:109BB00046F30F1B90F88063760715D5ABEB0202D6
:109BC00017B20022DFF894A008E013E00AEB821637
:109BD000521C36F81180B84426F8118090F8808322
:109BE00009EB98169642F1DC24F811B0491C027D6D
:109BF0008A42C7DCBDE8F08F0C4910B5096891F8BE
:109C00002010C90711D000280FD1154C00235A1E6F
:109C10001946E068F6F75CFDFFF700FFFFF755FF18
:109C2000E068BDE81040F6F70BBD10BD4C281000F1
:109C30004200012040890120C20401208428100034
:109C400060371000732810007E190120C216012011
:109C50008A170120A2190120E61601203E180120D2
:109C600020381000FE4900200870704700E01046C0
:109C70000A5C8242FBD1704770B500250E46034650
:109C80002C4606E019462046FFF7F0FF1855641CE5
:109C9000E4B2B442F6D300220AE0985C904203D1C9
:109CA0009D546D1CEDB201E0185C9854521CD2B268
:109CB000B242F2D3284670BD38B1884202D20B4678
:109CC00001461846884200D01154084670472DE9D5
:109CD000FF4F99B001200490E24819689A46006845
:109CE000067D477D41B19AF802109AF800905046DF
:109CF000B14205D2491C04E04FF000094D4608E08E
:109D0000314645789AF80300CEB2B84200D2471CDB
:109D1000FFB2002007A90854401C2D28FAD3199936
:109D200005EB051001EB400C681C67E01998E34651
:109D300008EB081100EB410C09F101045AE000BFE7
:109D40000CEB04001590006810B31CF8040000B37D
:109D50001598002310F8010C00B103461BF80410FD
:109D600021B107AA1846FFF7A7FF03461A98002853
:109D70000BEB04000ED0159010F8011C21B107AABE
:109D80001846FFF799FF034615984178D9B91FE0A7
:109D9000E41C2EE0189010F8011C59B115981BF81E
:109DA000042010F8010C104304D007AA1846FFF74E
:109DB00083FF03461898417851B115981BF8042089
:109DC0004078104304D007AA1846FFF775FF0346F2
:109DD00013B10CF804300CE004982D2806D20CF8CE
:109DE00004000498401CC0B2049002E0401E0CF82D
:109DF0000400641CB442A3D908F101008046B842B3
:109E000094D907A80499FFF737FF804641001B98B3
:109E100005F065F800204FF6FF7202E04AF82020B6
:109E2000401C4045FAD33BE0199905EB051001EBC6
:109E3000400022304C4605902FE005980119012082
:109E40004058A8B3487838B307AA105C48701B99EB
:109E50001B9A0AEB800B31F81010491C22F81010E5
:109E60009BF800102046F8F7DEFF8BF800009BF807
:109E700001102846F8F7D7FF8BF801009BF8021075
:109E80002046F8F7D4FF8BF802009BF80310284611
:109E9000F8F7CDFF8BF80300641CB442CDD36D1CE2
:109EA000BD42C1D3A8F101001DB0C0B2BDE8F08F22
:109EB000FFE7E41CF0E72DE9F043994655784FF0B1
:109EC000010C1BE005EB051300EB430622360023D3
:109ED000147897780CE000BF06EB040898F901802D
:109EE000884503D10CFA04F848EA0303641CE4B281
:109EF000A742F1D249F825306D1CEDB2D378AB42C0
:109F0000E0D2BDE8F083F0B5554B0026554D1C78E6
:109F100094B0012C11D11E700B78002B5AD04B78C5
:109F2000002B57D02B688F781C7D641EA74251D020
:109F30005B7DCC785B1E9C424CD000234FEA0D0425
:109F400044F823605B1C142BFAD34B7891F803C0C0
:109F50001BE000BF50F82370B7B17E0846EA470601
:109F60003E4354F82370374344F8237004EB8307CF
:109F7000D7F804E04EEA060EC7F804E0D7F808E088
:109F80004EEA060EC7F808E05B1C9C45E2D20023AF
:109F900004EB8306766840F823605B1C122BF7D332
:109FA000012A17D1087808B1401E0870487808B116
:109FB000401E48702A688878127D521E904201DA4D
:109FC000401C88702A68C878527D521E904201DA7F
:109FD000401CC87014B0F0BD2DE9F0478246107DDA
:109FE000012873D14C781F4E01234FF003096AE01A
:109FF00030685AF82450027D601C42431A480068B9
:10A0000000EB42000A7811E003FA02F72F420DD06C
:10A0100000EB420730F9128037F902CCB7F9027031
:10A02000C444BC449CFBF9F720F812708F78521C92
:10A030009742E9DC0A785AB303FA02F72F420DD0AF
:10A0400000EB420730F9128037F902CCB7F9027001
:10A05000C444BC449CFBF9F720F812708A7805E0F0
:10A06000042A10004C2810008028100037683F7D1B
:10A07000974203FA02F707EA050714D117B300EB7A
:10A08000420530F9127035F9025C3D446D1017E05D
:10A0900015F0010FE2D0B0F90020B0F902703A4497
:10A0A00052100280DAE76FB100EB420530F912C0BE
:10A0B00035F9027CB5F9025067442F4497FBF9F556
:10A0C00020F81250641CC878A04291DABDE8F087ED
:10A0D0002DE9F05F9B4600230D46144619464FF4C8
:10A0E000803A012A01DA002203E000EB840252F8F0
:10A0F000042C50F82490AC4201DB002002E000EB7D
:10A1000084004068824202DD0346114602E001DA23
:10A1100013460146A0EB02024FF4803CA2FB0C0860
:10A120004FEAE27707FB0C874FF0000602FB06764A
:10A130004944C3F1000201EB42024FEAE2733146A7
:10A1400004F05CFE4FF48036A4FB063CE7170A4699
:10A1500007FB06C6002104FB0161181851412A467D
:10A16000EB1704F04BFE0246A2FB0B0501FB0B5163
:10A170004FEAEB7402FB04115246002304F03EFE4A
:10A1800000B2BDE8F09F2DE9FF5F002704463D4681
:10A190003E468821FA48DDF83C9004F0C2FEDFF824
:10A1A000E4E36078DFF8E0B3DEF8003031E02178F6
:10A1B0002BE000BF93F814C0421C02FB0C1C92461B
:10A1C000DBF8002032F91C20BA420CDDDFF8B0C306
:10A1D0006D1CADB25CF820C016440CEB0208DFF831
:10A1E000A0C34CF8208099F81420012A0CD11A7DC4
:10A1F000DFF898C302FB0AF20CEB010A12F80AC05E
:10A200004CF0800802F80A80491CA2788A42D1DA10
:10A21000401C94F803808045C9DA00210A46607822
:10A2200008E0DFF85CC35CF820C08C4501D96146CA
:10A230000246401C8045F4DA597DF046491E12B2B0
:10A24000CF48029BFFF744FF0E9908608821CC4855
:10A2500004F067FE2078CA4ADBF800A0D8F800C0F6
:10A2600015E061780FE000BF9CF814804B1C03FBE5
:10A2700008083AF91830BB4204DD52F82080434404
:10A2800042F82030491CE3788B42EDDA401CA1787B
:10A290008142E6DA00231F46207806E052F820408B
:10A2A0009C4201D923460746401C8142F6DA9CF8BD
:10A2B00014103AB2491EB248019BFFF709FF0399F7
:10A2C0000860C9F80860A9F80450BDE8FF9F2DE9AF
:10A2D000F74FAC4E8C46002731681446127DB1F81A
:10A2E00068A084B03D463846B94612B1012A03D071
:10A2F00012E0B1F8C8A10FE091F8A02052070BD5E9
:10A3000002A8CDE90004B1F91820B1F9161003AB89
:10A310006046FFF738FF6DE09CF8011039E0049AC1
:10A3200052F821B09CF8001003912BE001219140DC
:10A3300011EA0B0F24D031680B7D02999E4601F182
:10A34000010808FB0321904B1B6833F9111051459C
:10A3500006DD531C03FB010008FB01990D447F1C23
:10A36000217D01295DD0894B00290EFB08F11344A2
:10A3700011F803805ED048F0200800BF01F8038088
:10A38000521C03929CF80210039A9142CEDA029971
:10A39000491C02919CF803208A42C0DA3268411BB2
:10A3A0009246D28A4FEAE17CA1FB02080CFB0282B2
:10A3B0004FF0000B01FB0B219AF81420521E6A4348
:10A3C000D31704F01BFD0390A9EB05013268CB17EE
:10A3D0009146128BA1FB020803FB028201FB0B21B9
:10A3E00099F81520521E6A43D31704F007FD029016
:10A3F000A560A780207D0028306890F880001CD0E0
:10A40000C00604D5002202A903A801F0B7F902A9E9
:10A4100003A8F9F77FF8039860800298208007B0BE
:10A4200044E55A4B0EFB08F1134411F8038048F041
:10A430008008A3E748F04008A0E78006E7D501229E
:10A44000E1E72DE9F04F4F4C4F4B834600204A780F
:10A450004FF0010AD4F80090CE78D3F8008015E0D0
:10A460005BF822700B78541C8D780CE00AFA03FC20
:10A470001CEA070F06D099F814C004FB0C3C38F90D
:10A480001CC060445B1C9D42F0DA521C9642E7DA25
:10A490000CE52DE9F04381465078079E23E000BF8C
:10A4A000384B00EB0014384D1B6809EB4404223490
:10A4B0001B7D401C2D68434305EB430513784FF08B
:10A4C000000C0CE0E71897F80180884505D135F9B4
:10A4D0001380B04501DC87F801C05B1C1BB2977884
:10A4E0009F42EFDA00B2D3788342D9DA09E52DE949
:10A4F000F0410746107D234D14460E46022807D131
:10A500002968E08891F86610884201D903202075F7
:10A510000422314604F11000F8F73EFF3146384678
:10A52000FFF78FFFE060012231463846FFF7EBFC72
:10A53000286890F8B00180070BD5207D022801D053
:10A54000012806D1E2683146384602F05FFA012858
:10A5500013D0286890F88C07C00604D522463146EF
:10A560003846FFF739FD224631463846FFF7AFFE41
:10A570002046BDE8F04103F02DBBBDE8F0810000AE
:10A58000F43E10004C28100080281000349D01205B
:10A5900030B595B01C4615466B46FFF78CFC22463D
:10A5A00029466846FFF7A3FF15B030BD2DE9FF4FE0
:10A5B00086468A4600204FF6FF755378D67826E007
:10A5C00003EB03140EEB440C14780CF1220CFE493F
:10A5D000DFF8F8B39778D1F8009014E00CEB0401A1
:10A5E00091F80180D0450CD199F81480591C01FBD9
:10A5F00008483BF81810884200D208468D4200D91E
:10A600000D46641C24B2A742E8DA5B1C1BB29E42D2
:10A61000D6DA039908800D990D8004B046E42DE93F
:10A62000F04F9B46824653782AE000BFE84D03EB8B
:10A6300003100AEB4004AD68223405EB40052235D7
:10A640001078E14FDFF884C34FF0010913E02618BA
:10A6500076788E420DD13E6896F814805E1C06FB1B
:10A6600008063CF916605E4503DD05EB000888F836
:10A670000190401C00B296788642E8DA5B1C1BB25F
:10A68000D0789842D2DA11E42DE9F047CE4F8146D6
:10A69000C8B038681E46884690F8705046A80090AA
:10A6A000144645AB4846FFF781FF307D10B9386846
:10A6B00090F8CE51BDF81411BDF818016422091AA2
:10A6C0006943B1FBF2F1C24F0D184FF42A71B8681B
:10A6D00004F005FCABB2224641464846FFF79FFF17
:10A6E0002068019001AB2EAA0121B868FFF7EFFAAC
:10A6F000054601281CD901240DF1B80A0DF1040901
:10A70000B84611E03AF81400F08009EB84073146AE
:10A71000384601F0E1F833463A462146D8F80800B9
:10A72000FFF736FF641CE4B2AC42EBD948B0CDE48D
:10A73000A84833462246B0F90000009041464846FA
:10A74000FFF7A7FE3346224641464846FFF720FF63
:10A75000ECE72DE9F04FA04D9B4E14782D789278C0
:10A760003768012D03D097F871501CB103E097F8BA
:10A77000C950FAE7012497F814809446A8F101071C
:10A78000BA4202D1ACF10102D2B203EB031C00EBDE
:10A790004C078F4822375B1C806808FB03F800EBEE
:10A7A0004C0C8A480CF1220C00EB48034FE038199E
:10A7B0004078884249D1DFF81C8233F91400B8F997
:10A7C0000080404541DD03EB4409284439F902BCCF
:10A7D0004FF0000A584503DAB9F90280404534DBEE
:10A7E000012C10D0D6F8008098F81480A8F1020847
:10A7F000A04512D139F9048C404521DAB9F902801B
:10A80000404522DB1CE0B3F90200B3F90080284484
:10A81000404515DAB3F90680F2E7584505DAB9F98B
:10A820000480404501DA4FF0010A39F9048C4045B3
:10A8300003DAB9F90280404507DBBAF1000F04D111
:10A840000CEB0408012088F80100641CE4B2944277
:10A85000ADD91DE62DE9F74F97B05478D778002091
:10A8600013905D48DFF860A115460178DAF8000022
:10A87000012905D07130067890F8019014B107E0F5
:10A88000C930F8E7DDE9170101240023FFF761FF74
:10A89000DAF80010E878497D491E884207D1401E49
:10A8A000C7B2CBB2DDE917012A46FFF752FF07E135
:10A8B000179904EB041001EB40034549223304F1DE
:10A8C000020C896804F1010E01EB400022300B906C
:10A8D000DAF80000611E007D00FB01F23B4900FB3D
:10A8E0000CFC01EB4202069200FB04F201EB420277
:10A8F000099200FB0EF201EB4C0B04F1030C00FB80
:10A900000CF001EB4000079001EB42022878D1E007
:10A91000191891F801C018998C4554D12D4932F974
:10A9200010C0B1F900108C454DDD0021DDF8248008
:10A9300011910CEB060138F91080CDF838804145B3
:10A9400007DA3BF91080414503DA4FF00108CDF8F2
:10A950004480B8B3DAF80080CDF8588098F81480B5
:10A96000CDF85480A8F1010880452BD002EB4008B7
:10A97000CDF8288038F9028CCDF82080414509DADD
:10A98000DDF82880B8F90280414503DA4FF001086C
:10A99000CDF84480DDF82480CC4408EB4008CDF8A5
:10A9A000488038F9028CC44509DA0BEB4008B8F945
:10A9B0000280C44503DA4FF00108CDF84480DDF889
:10A9C00048800BE061E062E04C281000F4A7012011
:10A9D000042A10004E2A100075281000B8F90280D1
:10A9E000C44505DA0BEB400838F9028CC4455FDB3F
:10A9F000DDF844C0BCF1000F5AD1DDF858C09CF816
:10AA000015C0ACF1020CA4450DD0DDF838C061458D
:10AA100009DADDF81CC03CF910C0614503DA4FF0DB
:10AA2000010CCDF844C0012C0DD0DDF818C03CF964
:10AA300010C0614507DA3BF910C0614503DA4FF0F9
:10AA4000010CCDF844C0012822D0DDF854C0ACF18F
:10AA5000020C84450DD0DDF820C0614509DADDF82F
:10AA600028C0BCF904C0614503DA4FF0010CCDF8F1
:10AA700044C0DDF828C03CF904CC614505DADDF8B6
:10AA800028C0BCF902C0614512DB119951B10FE039
:10AA9000B2F90210B2F900C031446145F5DAB2F9F9
:10AAA00006C0F0E70B994FF0010C014481F801C09A
:10AAB000401CC0B2A9788142BFF42AAF0EF0FF0457
:10AAC000BC427FF6F5AE13981AB0E1E42DE9FF4FD2
:10AAD0000E46C5B0154607464FF42A71FD4CA068D6
:10AAE00004F0FDF92A4631463846FFF7B3FE2968DF
:10AAF0006E460091C0BB33462DAA0021A068FFF727
:10AB0000E6F80746012830D903F0B4F80125DFF84C
:10AB1000C8830DF1B409AA4619E000BFD8F80010A7
:10AB200039F8150091F8751088420FD984F800A003
:10AB30004899C88006EB85008346489900F0CCFE12
:10AB4000E9B25A46489BA068FFF722FD6D1CBD4242
:10AB5000E4DDD8F8000090F84004800702D400201B
:10AB600003F08DF849B093E4FFE7321D0121489BC3
:10AB7000A068FFF70DFDF5E72DE9F04F8246D648B6
:10AB800000259146D0F800602A462B4609EB0300C9
:10AB9000401E21D4747D84421EDDD04C377D00F1EF
:10ABA0000100246807FB00F004EB400803EB430CB2
:10ABB0004FF000000AEB4C0B01EB0004641E08D4BC
:10ABC000A74206DD3BF910C038F91440624404FB8B
:10ABD0000C55401C0328EFDB5B1C032BD6DB02B9B2
:10ABE000012295FBF2F053E42DE9FF4F84B00C46AF
:10ABF00001464078DDF844B000B1401EB64F00F089
:10AC0000FF09C8783E68727D551EA84201DA401CD3
:10AC100000E0501EC5B2087800B1401E00F0FF0AE7
:10AC2000307D8978421E914201DA481C00E0401EC6
:10AC3000C6B2B4F9120009F1010102906CE0DFF82C
:10AC400098824F1CD8F80000007D00FB07F24843B3
:10AC50000BEB420203EB4000CDE900200AF10100BA
:10AC600057E09D49096891F814E007FB0E0103EBDA
:10AC70004101B1F9022006998A4245DD0199B4F9F2
:10AC8000008001EB40010022B1F900C00CFB08225A
:10AC9000B1F902C0B4F902800CFB0822B1F904C07A
:10ACA000B4F9048001EB4E010CFB08220392B1F9C8
:10ACB00000C0B4F906800CFB0822B1F902C0B4F957
:10ACC00008800CFB0822B1F904C0B4F90A8001EB3A
:10ACD0004E010CFB0822B1F900C0B4F90C800CFB4A
:10ACE0000822B1F902C0B4F90E80B1F904100CFBCE
:10ACF0000822B4F910C001FB0C21029A91FBF2F179
:10AD0000009A22F8101002E0009921F81020401C4F
:10AD100000B2B042A5DB39B2A94290DB4F4615E044
:10AD2000017D781C41430BEB410800903A465146A7
:10AD30002046FFF721FF28F81A003A463146204600
:10AD4000FFF71AFF28F81600009807B26248AF42D2
:10AD50000068E5DD007D691C41430BEB410100917A
:10AD600009F1010148430BEB4008574610E04A4601
:10AD700039462046FFF700FF28F817002A463946D3
:10AD80002046FFF7F9FE009921F817007F1C3FB21B
:10AD9000B742ECDD08B076E42DE9F74F86465078EF
:10ADA00000B1401E4C4ED178C0B235686B7D5C1E40
:10ADB000A14201DA491C00E0591ECCB2117801B160
:10ADC000491ECBB291782A7DB246551EA94201DABE
:10ADD0004A1C00E0521ED5B22DE000BFDAF8001088
:10ADE000421CDFF800B1097D51433C4A126802EB76
:10ADF00041063B4A02EB410700EB00120EEB420218
:10AE00002232194614E000BF37F911C002EB0109E4
:10AE100026F811C099F80180B8F1000F07D1BBF9ED
:10AE20000080C44503DDDDF804C089F801C0491C79
:10AE3000A942E9DD401CA042D0DDBDE8FE8FF8B597
:10AE4000074629480E46069900781546022816D26C
:10AE5000224A93F814C0224813681F4ABCF1000F1D
:10AE600014680DD094F84020920608D5012906D127
:10AE70000090B4F958201D492846FFF7B5FEF8BDEB
:10AE800094F8C0215FEA826CF9D552060CD5009087
:10AE9000B4F9C42116492846FFF7A6FE2A463146D2
:10AEA0003846BDE8F84077E70129E8D10090B4F9C9
:10AEB000C421E0E730B41C7D2CB1074C246894F821
:10AEC0006040E50702D030BCFFF7DEBBA40711D518
:10AED00030BCFBE5042A10004C281000802810002C
:10AEE000F4A70120462A1000732810004AF300003E
:10AEF00036F3000030BC70472DE9F0478146FB482F
:10AF00008A4600230168184601250E7D4F7D1DE00D
:10AF100000EB001409EB44042234194612E000BF90
:10AF200052F8208005FA01FC18EA0C0F08D004EB57
:10AF3000010898F801C0BCF1000F01D188F801A008
:10AF4000491CC9B2B142EBD3401CC0B2B842DFD3F6
:10AF5000BDE8F087F0B55478002613E004EB041345
:10AF600000EB43052235137807E0EF1897F801C08E
:10AF70008C4500D17E705B1C1BB297789F42F4DA3F
:10AF8000641C24B2D378A342E8DAF0BDD84A10B5E5
:10AF9000127801243AB9D54A126892F86020120753
:10AFA00018D5012916D181780278891A01D5C1F105
:10AFB000000101F10101CAB2C1784078081A00D538
:10AFC0004042401CC1B21046F7F72DFFC0B2012825
:10AFD00000D10024204610BD2DE9F04FC34BC54CD5
:10AFE0008A46834601205178D778D4F800901D68AE
:10AFF00022E000BF01EB01140BEB44042234137870
:10B00000967815E004EB030C9CF80180D0450DD137
:10B0100095F8148001F1010C0CFB083839F918C0BF
:10B02000B5F8D281E04501DA002003E05B1C1BB2D9
:10B030009E42E7DA491C09B28F42DBDA09E4AB4AE7
:10B0400010B5AD491268B1F90030AC4932F9A84FDA
:10B05000B2F90220B1F90010904201DD084610BD9E
:10B06000A04201DA184610BD101ACB1A5843121B21
:10B0700090FBF2F0081A00B210BD2DE9FF4F1078D6
:10B08000B3B0154600B1401E984B00F0FF0AA978F6
:10B090001A68107D841EA14201DD401E00E0481C9C
:10B0A000C6B2687800B1401E00F0FF09507DE97813
:10B0B000821E914201DD401E00E0481CC7B2A6EB93
:10B0C0000A01A7EB0900491C401C80460B91414531
:10B0D00000DD084600242F90A346182112A803F093
:10B0E00020FFDDE9330119AB2A46FEF7E4FE28789C
:10B0F0005FEA000E09D1687800287DD07B48E978A6
:10B100000068407D401E814276D0784895F802C0A4
:10B110000368187D411E8C4502D16A78002A7DD0D3
:10B120008C4504D1597DEA78491E8A4276D05FEA7F
:10B130000E01704AEE4605D0801E844502DC0B9954
:10B14000884524DD49467046D2F800901CE01A7DFF
:10B150004D1C6A4309EB4205002220F81420524698
:10B1600008E000BF30F814C035F81280521CC44407
:10B1700020F814C0B242F5DD30F81450641C05EB21
:10B180000B020FFA82FB491CB942E0DD21E0514677
:10B1900012681CE000202EF814004846F2460CE02D
:10B1A00093F81480451C05FB08153AF814C032F8D2
:10B1B0001550401C65442AF81450B842F0DD3EF8A2
:10B1C0001450641C05EB0B000FFA80FB491CB142C4
:10B1D000E0DD2F9B00225B1E12A97046F7F7A0FE50
:10B1E000DDE91601DDE9122303F008FE4FF47A7160
:10B1F000484390FBFBF000E010E0404204B22046E0
:10B20000FFF71DFF3949096891F8F017090601D5C4
:10B210003B498C803699898B814202DD012037B011
:10B22000E1E40020FBE72DE9F04399468046002049
:10B23000537822E003EB031408EB44062B4C2D4F0C
:10B24000223624685D1C3F68247D6C4307EB440C68
:10B2500014780EE037197F788F4208D13CF91470CA
:10B26000874204DDA9F802403846A9F80030641C82
:10B27000E4B29778A742EDD2EBB2D4789C42D9D20F
:10B28000BDE8F0832DE9FF4F184C1A4B8B468646DC
:10B29000266800205178D4781D6823E001EB01175F
:10B2A0000EEB4703377D01F1010A07FB0AF705EBB7
:10B2B000470922331178977810E000BF03EB010CA7
:10B2C0009CF80180D84507D139F91180DDF80CC010
:10B2D000E04501DD401C80B2491C09B28F42EDDA25
:10B2E0000FFA8AF18C42D9DA04B07CE44C281000C1
:10B2F00073281000802810004E2A1000502A1000D9
:10B30000F4A70120F8490278096822B10A7D837800
:10B31000521E934208D1427822B1C278487D401E25
:10B32000824201D1012070470020704730B50546A8
:10B3300095B0ED4800238DF8503002680C46107D22
:10B34000401E8DF852008DF85130507D6B46401EE6
:10B350008DF8530014AA2846FEF7ADFD002214A96B
:10B360006846FEF7D0FD6A4621462846FFF7C4FD31
:10B3700015B030BD2DE9F14FD8B003205190DB4816
:10B38000DB4CD94D00684FF0000800F52A71C4E984
:10B390000101296891F86010CA0701D1890701D518
:10B3A0004FF001084FF0000A1AAB03AA0121CDF8B3
:10B3B00068A0FEF78CFC2B68074601201A7DDFF899
:10B3C00034B3A14612E0012100EB00140AE000BFF3
:10B3D000D9F8046001EB440C16F80CC00BF802C05D
:10B3E000521C491C1E7D8E42F2DA401C597D81425E
:10B3F000E9DAC14901240DF10C0B81F800A06EE1DE
:10B40000E1B28DF83E113BF81400ADF826011AA800
:10B4100000EB8402019254ABD9F80400FFF703FF5C
:10B42000ADF83C01064689F800A0BDF9520158B1BB
:10B43000BDF9501141B12A68137D5B1E984203D0BB
:10B44000507D401E814201D1012000E0002000908B
:10B45000286890F8A010C90737D0A84990F8A7200D
:10B4600009888A42A649097801D211B12DE0022942
:10B470002BD201218DF83411A14990F8A42009782C
:10B48000012903D190F8BC1011448AB20099012916
:10B4900022D090F8A51047913BF81410914214D98E
:10B4A000479A914211D89749B1F900108E420CDDAC
:10B4B00090F8A000800712D5E1B248AB019AD9F804
:10B4C0000400FFF7DAFD012809D0DDE90010FFF7DD
:10B4D0005DFD01281ED001E190F8A610DBE78A4946
:10B4E000012048AB08704798E1B2C0B251900220E9
:10B4F000ADF83601ADF838018DF835A14E46019A08
:10B50000D9F80400FFF744F8E1B2019A7068FFF738
:10B5100021FDE3E07D48B0F900309E4260DDE1B2FC
:10B52000019AD9F80400FFF7ADFE2BF81400ADF82E
:10B53000260128685E4690F865C07148007850B1D1
:10B540000198FFF7DFFE0128286837D090F8BD008A
:10B5500060441FFA80FC36F81400B346604570D989
:10B5600069490120E3B2087063494E46087048A853
:10B5700000906748019AD9F80410006800F0C8F9F3
:10B580002A683BF8140092F86710884224D20221FE
:10B590008DF83411BDF83A31B2F86E20414693422D
:10B5A00000D20021519A90420BD351B10091E1B2E7
:10B5B00048AB019A7068FFF742FC82E090F8760091
:10B5C000C6E75248E1B248ABB0F900000090019ADA
:10B5D0007068FEF75EFF7BE004208DF83401F0E731
:10B5E000286890F8C011C90778D04A49096841B362
:10B5F0004949097829BB8DF834A190F8C00140076A
:10B6000005D5E1B21AAAD9F80400FFF78FFE009819
:10B6100047F6FF7201284148007809D001282868C0
:10B6200010D090F8CB013649097801290DD011E0EE
:10B630000128286802D090F8CD01F4E790F8CC01F9
:10B64000F1E744E090F8CA01EDE7296891F8D911D3
:10B65000084480B23BF8141081423FD991423DD852
:10B6600058990220E3B2087048A8009028484E4636
:10B67000019AD9F80410006800F04AF92868E1B28C
:10B6800048AB90F8C001019AC0F3C0000090706808
:10B69000FFF7D5FB286890F8C00180070CD51F483C
:10B6A0000078012808D1E1B2019A7068FFF794FC94
:10B6B000012801D11A490870286890F8C0010007D4
:10B6C00006D5E1B248AB019A7068FFF7F3FB05E0DD
:10B6D000E1B248AB019A7068FEF75AFF641CBC42A5
:10B6E0007FF68EAE59B0A9E44C2810007C281000DB
:10B6F000042A1000349D01206E281000122A100028
:10B7000073281000502A10006D2810004E2A1000D7
:10B71000802810009C010022672810006828100073
:10B72000442A100070470000F0B50024491E056847
:10B730000BE000BF32F91470AF4205DC02EB4406A7
:10B74000B6F90270AF4202DA641C8C42F2DB8C4222
:10B7500013D032F9146003EB440133F91430B1F91A
:10B76000021002EB4402AD1BC91AB2F90220694370
:10B77000921B91FBF2F119440160F0BDF0B50E4649
:10B780001D494FF0000C130009686446624604D05E
:10B79000012B09D0022B0ED018E091F871C491F85A
:10B7A000704401F272410CE091F871C691F8704654
:10B7B00001F2726105E091F871C591F8704501F2EE
:10B7C00072510A460CEB04013E2914DC02EB4C03D7
:10B7D00003EB4C0505EB4407BCF1010F02DD6146AC
:10B7E000FFF7A2FF012C06DD3B462A4621463046E4
:10B7F000BDE8F04098E7F0BD4C2810004FF47A7295
:10B80000504390FBF1F17D4810B5814201DAC0113F
:10B8100010BD42F6A640814201DD5A2010BD784A93
:10B82000002000BF32F910308B4205DC02EB4003F0
:10B83000B3F902308B4202DA401C4528F2D332F9C8
:10B84000104000EB800302EB4000091BB0F902003E
:10B85000553B001B01EB810191FBF0F0184410BD3A
:10B8600030B50D460446FFF7C9FF00EBD07040101D
:10B87000002D02D00DDD34B130BD002C03D005DD2C
:10B880004FF02D0030BD4FF0000030BD4FF05A009A
:10B8900030BD002C03D005DD00F15A0030BD6FF043
:10B8A000590030BDA0F15A0030BD10B58C1A00D53A
:10B8B0006442002800DA404204EB400011440A18B8
:10B8C000081A521040104FF47A71484390FBF2F07E
:10B8D000C0F57A70588310BD30B582780378CD8872
:10B8E000D21AC3784078521C1B1A5B1C05FB02F06D
:10B8F000D4185D4340006A00B0FBF4F0B2FBF4F2F0
:10B90000904202D9C8820A8330BDCA82088330BD02
:10B910002DE9FF4F1646002284B010461546964684
:10B9200093469246747896F8039036E0059904EBB6
:10B93000041301EB4301223103913378029396F80B
:10B9400002C027E0039919444F7807998F4220D10C
:10B950002C4909680F7D611C01FB0737049901EB35
:10B960004701A9EB0407B1F902107F1CCDE90017CC
:10B9700002995F1A00997F1C0A44794301FB07BBB7
:10B98000019F084401FB07EE0099794301FB07AAD8
:10B990000D445B1C9C45D5DA641CA145C6DA4FF406
:10B9A0007A71414391FBF2F14FF47A736B4393FB4D
:10B9B000F2F201FB05F44FF47A7394FBF3F7414381
:10B9C00091FBF3F1AEEB0704ABEB01076A4392FB8B
:10B9D000F3F1AAEB01056000791BFFF741FF119914
:10B9E0002A46487539462046119BFFF75EFF11999C
:10B9F00008B03046BDE8F04F6EE700005AD3FFFFB5
:10BA0000F0F200004C28100030B5F9490020F94A46
:10BA1000087001211170F8490870F8490870F84958
:10BA20000870F8490870F8490870F8490870F84932
:10BA30000870F8490870F84948708860F74AC8608B
:10BA4000F74C1268F74DB2F862302380B2F8A1408B
:10BA50002C80F54DB2F8C6212A80F44D2B80F44B92
:10BA60001C80F44B1A80F44A10804860087030BD86
:10BA70002DE9FF4F81B0E94A4FF00109CDF8009060
:10BA800012689B464D4692F815C0137D0CF1010CCF
:10BA900063E000BF4FF0000A47F6F8725442D64602
:10BAA000564619E005FB036730F8178031F8177028
:10BAB000A7EB08073FB2BA4200DD3A46BC4200DAC3
:10BAC0003C46002F02DA4FF0000903E002DD4FF0A0
:10BAD0000007009706F101069E42E3DB009F59EA4A
:10BAE000070608D0B9F1010F03D0B9F1000F04D057
:10BAF00006E0012F04D1002202E0012F00D12246EE
:10BB0000002412E005FB034630F8167031F8166089
:10BB10001744F61B36B25E4506DACBF10007BE428B
:10BB200002DDB2440EF1010E641C9C42EADBBEF160
:10BB3000000F01DD9AFBFEFA0AEB0204002209E085
:10BB400005FB0326DDF80C8030F81670521C2744E4
:10BB500028F816709A42F3DB6D1C65459ADB05B038
:10BB6000BDE8F08FF0B4C2F1100422B1012B02D075
:10BB70000023AA4F0EE0F0BCF7F733BC31F91350A5
:10BB800030F91360554306FB045545F30F1521F8B2
:10BB900013505B1C3E68757D367D6D1C75439D4260
:10BBA000ECDCF0BC7047F0B59C4D002784462D6856
:10BBB00001203C466E7D2D7D06F1010606FB05F653
:10BBC0000CE000BF3CF9145031F914E0B5EB0E0560
:10BBD00000D56D429D4200DD7F1C641CA642F1DC55
:10BBE000974200DD0020F0BDF0B58C4A00273E46AC
:10BBF0001468637D227D5B1C53430FE031F912C052
:10BC0000E58C0CEB050E30F91250AE4505DAB5EBBC
:10BC10000C0500D56D422F44761C521C9342EDDC7E
:10BC20007D485FB194F83610B14207D2C16809B1BE
:10BC30000120F0BD0121C1600020F0BD0021FAE724
:10BC40002DE9F047754C81460026206801251746EE
:10BC500090F820008846000720D57948774A016887
:10BC60004846F7F79DFA774974480A680368D0F8A0
:10BC700004C0D21A4B68A3EB0C031A448B68D0F8AB
:10BC800008C0C968C068A3EB0C03081A21681A44ED
:10BC90001044B1F87810814200DA0025206890F84D
:10BCA000200080070ED56848007858B967480078AA
:10BCB00040B95448007828B941464846FFF794FFF8
:10BCC00000B1002554480021427892B13970826851
:10BCD000521C8260236893F837301B0903EB8303FF
:10BCE000B2EB430F02DD8160417001263046BDE8B2
:10BCF000F08715B181603D70F8E78268531C83605E
:10BD0000236893F8373003F00F0404EB8404B2EB9C
:10BD1000440FF0DD0122427081601A09EBD14170BD
:10BD20000126E8E770B53D4B1B685C7D1B7D641CFC
:10BD30005C43002308E000BF32F8135030F8136072
:10BD4000AD1B21F813505B1CA342F5DB70BD2DE940
:10BD5000F05F32482C4C02682578B2F9A110B2F994
:10BD60006200B2F9C63192F8C0A1012D0DD1384C54
:10BD7000246854B1B2F96C005FEA8A7405D5234C8B
:10BD80002478012C01D1B2F96A002F4C2478012CBF
:10BD900062D0022C06D3B2F8BE1009B1B2F9BE00CF
:10BDA00001460B46DFF87CE01D4C0546AEF800105E
:10BDB00020801D4CDFF874C0DFF878B0238092F843
:10BDC00064601C46801B06B292F8A300081A07B2F2
:10BDD00092F8C301181A164B00B281461F80ACF8C6
:10BDE0000060ABF800001B480078012841D070E0EB
:10BDF0006628100062281000672810006F281000C5
:10BE00006D2810006E28100068281000442A1000C9
:10BE10006B2810006C281000102A10004C2810000D
:10BE2000482A10004A2A10004C2A10004E2A1000FE
:10BE3000502A1000522A1000462A100070371000B5
:10BE4000842810006037100073281000722810003A
:10BE50009C0100227528100092F8BA40214492F803
:10BE6000BB4009B2204492F8DA4100B223441BB22D
:10BE700098E792F8CC004FF0640C00FB05F8B8FB93
:10BE8000FCF84544DFF80884A8F8005000FB01F8EE
:10BE9000B8FBFCF800FB04F5B5FBFCF54144AEF83B
:10BEA0000010FC492C440C8000FB06F4B4FBFCF4AD
:10BEB000F94934440C8000FB07F1B1FBFCF100FBB5
:10BEC00009F0B0FBFCF43944198004EB0900ABF82D
:10BED000000092F8A000C00706D1ED480188EE48A6
:10BEE000AEF80010008818805FEACA7002D0EB48F4
:10BEF000006830B9E748BEF8001001801988ABF837
:10BF00000010E548BBF90020B0F90010B3F90000BB
:10BF1000F6F791FFE2490880BDE8F09FE14A10B5CD
:10BF20001268537D127D5B1C534306E030F91240CA
:10BF30008C4201DD012010BD521C9A42F6DB00202C
:10BF400010BD2DE9F0478046D74889460024006897
:10BF50004FF4AA61054602F0C2FFD24A1068037D81
:10BF60000120064616E000BF00EB001105EB41077B
:10BF7000012108E039F913C05B1CC44502DD641CD3
:10BF80007E54A4B2491CD2F800C09CF814C08C4561
:10BF9000F0DA401C1168497D8142E5DA2046A6E6C8
:10BFA00070B5C04B1B685C7D1B7D641C5C43002529
:10BFB00007E000BF30F91360964201DA21F8135010
:10BFC0005B1CA342F6DB70BDF0B50025B54C26E046
:10BFD00000220123767D0EE003FB075C30F91CC0D4
:10BFE000BCF1000F04DD0AB1944503DA624601E0BA
:10BFF0000022731C5B1C9E42EEDA002A0EDD012338
:10C0000008E0367D03FB065630F81670BF1A21F89B
:10C0100016705B1C2668777D9F42F2DA6D1C2668DD
:10C02000377DAF42D4DCF0BD2DE9F0439D4B814616
:10C030001868467D057D761C002028E01A6892F875
:10C040005C20642A06D9643A02FB00F494FBF5F400
:10C05000141B04E0C2F16402424392FBF5F4643421
:10C0600001224FF064080FE01F683F7D02FB0707C5
:10C0700039F917C0BCF1000F05DD0CFB04FC9CFB7B
:10C08000F8FC21F817C0521CB242EDDB401CA8425C
:10C09000D4DBBDE8F0832DE9F047824B81468A4628
:10C0A0001868447D057D641C01202EE01E6896F80A
:10C0B0005D10642907D96439421E777D4A4392FB9B
:10C0C000F7F28A1A06E0C1F16401421E5143727D03
:10C0D00091FBF2F2317D6432414309EB41060AEBF8
:10C0E000410700214FF064080CE000BF36F911C091
:10C0F000BCF1000F05DD0CFB02FC9CFBF8FC27F8F3
:10C1000011C0491CA942F1DB401CA042CEDBEEE588
:10C1100030B5644840F2FF75644B0068644C417D63
:10C12000007D491C4143002205E000BF23F8105068
:10C1300024F81020401C8842F8DB30BD2DE9F00FB8
:10C14000584800231C46066899460121777D1CE06B
:10C150000020DFF858A1DFF85881357D12E000BFDC
:10C1600001FB05023AF912C038F91220BCEB0202B9
:10C1700000D5524292B2934203D2134684B21FFAC0
:10C1800081F9401C8542EBDC491C8F42E0DA44EA2D
:10C190000920BDE8F00F590882B20820FDF7C1BAA6
:10C1A0002DE9F041434C0546207801282BD16068E9
:10C1B00008B9FFF7ADFF3B483C4B3D4E0168487D59
:10C1C000097D401C484312E033F9117035F9112004
:10C1D000974200DA3A4623F8112036F9117035F902
:10C1E0001120974200DD3A4626F81120491C814271
:10C1F000EADB6068401C6060642804D3FFF79EFFA0
:10C20000002020706060BDE8F0812DE9FC412A4FDC
:10C21000002305465C1E224619463869F4F758FA91
:10C22000002322461946F868F4F752FA23492846B3
:10C23000F6F7CFFE22492846F6F7F1FE194C214EBB
:10C24000214D206890F8501109074ED5417DB0F975
:10C25000B131CDE900311D4A1D491848FCF7A3F959
:10C2600020681C4A017DB0F9B131CDE900311A498D
:10C270001348FCF798F9287800902068337817491C
:10C28000427D1248FCF76AF828780090206827E081
:10C29000482A10004C2A10004E2A10009C0100224F
:10C2A000462A10004C2810007C281000EC8E01203B
:10C2B0006C930120102A1000203810007E190120F4
:10C2C000A21901209B281000212A10006C391000AF
:10C2D000C216012090391000E616012034200120FA
:10C2E000027D3378B249B3480EE029780091427D4F
:10C2F0003378B149B148FCF731F8287800902068CC
:10C300003378AB49027DAE48FCF728F8002028704E
:10C310002068AC4AAC49437DA748FCF7BCF82068CC
:10C32000AA4AAB49037DA248FCF7B5F8F868BDE816
:10C33000FC41F4F785B92DE9FE4F0027A54C89464D
:10C3400006463B467A1E3946E068F4F7C1F9FFF726
:10C35000FEFCA248A04DA24902682B783046FFF7A8
:10C3600001FC00262E7002AA9E499D48FFF768FC3A
:10C3700005469DF80800DFF87082E0B3D8F80000A9
:10C38000DFF868A290F8400080070FD59848BAF906
:10C390000010B0F900209748B0F90000F6F74BFD07
:10C3A0008F4A03B28F491046FFF762FB924D8D4AC8
:10C3B0008B482968FFF7B6FCE068F4F741F9D8F834
:10C3C0000000444690F84000400703D5296808461D
:10C3D000FFF7FAFD206890F84000000703D52968B0
:10C3E0000846FFF758FE206890F84000C00605D5C3
:10C3F0002968084600E00AE0FFF716FE2868FFF704
:10C40000CFFE206890F8B011C90722D11DE0E06886
:10C41000F4F716F9012D17D17848016841F00501AC
:10C420000160D8F8002092F8B031DB0703D192F810
:10C430002024D20702D041F02201016070484168F7
:10C440004FF48060F4F7E3FD8CE090F82004C0071F
:10C4500007D04846FFF7D9FE206890F8B001C00722
:10C4600008D1206890F8B011890703D490F84004EF
:10C47000800703D563492868F6F7B3FF2068296869
:10C48000B0F9B321484600F018FA5F480078012857
:10C4900024D0206890F86010490705D52968B0F9C4
:10C4A00068200846FFF77CFD58480078022830D005
:10C4B00057492868F6F795FFDFF858815448B8F9CE
:10C4C0000010FFF72BFDDFF850C1DFF85091544DFD
:10C4D0009CF80010C1B3012856D038E04C492868B8
:10C4E000F6F77FFF20684F4B427DB0F9B511364813
:10C4F00000F0B1F8054620684B4B027DB0F9B5114C
:10C50000334800F0A8F8012D2CD101282AD10327A7
:10C5100028E0206890F840104906CDD58DF80460D9
:10C520008DF80560017D491E8DF80610417D491E7C
:10C530008DF8071036490091B0F95A203B4901A8FF
:10C540002B68FEF751FBB7E7FFE701280DD038480D
:10C550008CF800603749067089F80060087808B1E7
:10C56000401E08703846BDE8FE8FBAF90010284812
:10C57000FFF7D4FC8CF800002E80206890F8290189
:10C58000000701D5FCF74EFF2B48012789F8007002
:10C5900001681F48F6F725FF1D49B8F90000FFF7AD
:10C5A000D0FC2649488029888142DBD22880D9E7FF
:10C5B0005820012090391000342001207E190120DC
:10C5C000A2190120C2160120D01F0120E616012069
:10C5D000F41F01202038100062281000302A1000BB
:10C5E00074A30120420001204C281000482A1000AA
:10C5F0004C2A10004A2A10007C28100050281000F5
:10C6000008381000982001207228100073281000AC
:10C61000F4A70120462A10006D2810006F28100092
:10C6200060281000942810009028100036F30000B5
:10C630006E2810006728100080281000102A1000B3
:10C64000FC480121FC4A41700021117005228280C2
:10C65000C280817070472DE9F04381460020054675
:10C66000064604460127186012E000BF39F914C0DD
:10C67000BCEB010807D41D6807FA04FC45EA0C0569
:10C680001D60012503E01CEB010C00D50126641C94
:10C690009442EBDB012E08D1E849096891F8B0110A
:10C6A000490702D50220BDE8F083012DFBD101200E
:10C6B000F9E7E24A10B51268537D127D5B1C5343C3
:10C6C00007E000BF30F912408C4201DA012010BDB2
:10C6D000521C9A42F6DB002010BD70B5D74DD84BE6
:10C6E0002868427DB0F9B111D648FFF7B4FF04467F
:10C6F0002868D54B027DB0F9B111D448FFF7ABFFE4
:10C70000012C08D0012806D00024D1480069F3F795
:10C7100097FF204670BD0124F7E730B50446B0F915
:10C7200000300020012206E034F912509D4201DD64
:10C730002B461046521C8A42F6DB30BD2DE9F047ED
:10C740008946BE4E1D4630F9121002F1010301FB6D
:10C7500003F437684FF00103D61A09D430F916C034
:10C76000B7F85E81C44503DB761C0CFB06446144CC
:10C77000D6184E4509DA30F916C0B7F85E81C445BF
:10C7800003DB761C0CFB064461445B1C062BE3DDDB
:10C79000A9F1010001FB00F2601A80FB0501D3172B
:10C7A00002F02CFB002800DA0020691E884200DD20
:10C7B000084600B2BDE8F0872DE9FC419F4C0746D2
:10C7C000884620681546017D4046FFF7A6FF84464F
:10C7D0002068417D3846FFF7A0FF06462068624684
:10C7E000C38A017D4046FFF7A9FF009020683246CA
:10C7F000038B417D3846FFF7A1FF019001A96846F0
:10C80000F6F788FE0098688001982880BDE8FC81D2
:10C8100000B589B002228DF814200522ADF806205B
:10C8200041F6583202920722ADF804206A46FFF71B
:10C83000C3FF684601F0CEF909B000BD2DE9F04311
:10C84000814681487E4A0068126840EA400040EA1A
:10C85000500040EA400040EA5006784842EA42026E
:10C8600042EA5202006842EA420242EA5207457D29
:10C87000037D6D1C012004461BE000BFA0F1010CEC
:10C8800004FA0CF23A4213D100FB03F209EB420C1A
:10C8900000220BE004FA02F818EA060F05D13CF971
:10C8A0001280884501DD0120FDE6521C9A42F1D339
:10C8B000401CA842E2D30020F5E62DE9F74FDFF84F
:10C8C0007CA100265B4CDAF800005B4D82B090F84A
:10C8D000B0113746C907B34602D05E49097869B13D
:10C8E00085F800B090F8B711E18090F8B801A08009
:10C8F000A07801287BD000287DD082E0DDE903010B
:10C90000FFF70CFB80460498404201B20398FFF702
:10C91000D0FE0090FFF7E1FE8146B8F1010F03D190
:10C92000B9F1000F00D10126009958EA010000D1A9
:10C930000127DAF8000090F8B001800705D5DDE99D
:10C940000301FFF77BFF012804D0012E03D0012F44
:10C9500012D021E00126B4F90600002806DB401EB3
:10C9600000B2E080002801DC01202870DAF8000025
:10C9700090F8B801A0800FE0B4F90400002806DBAD
:10C98000401E00B2A080002801DC85F800B0DAF873
:10C99000000090F8B701E08084F800B0B8F1010F12
:10C9A00001D1012020700098012803D1207840F0A7
:10C9B00002002070B9F1010F03D1207840F004008B
:10C9C0002070012E03D1207840F008002070012F44
:10C9D00003D1207840F0100020702878012887D1FA
:10C9E000207840F08000207082E700E003E02878A3
:10C9F00038B9082003E02878012802D10720FCF785
:10CA00004DFE2878A07005B0BDE8F08F2DE9F04FFD
:10CA100091460A4A864600201568044695F8B021DA
:10CA20009207F1D50B4A1278002AEDD14A7891F895
:10CA300003C02DE0202A1000722810004C2810009E
:10CA400094281000D01F012090281000F41F01200E
:10CA500020381000732810002B7D561C7343174E8E
:10CA60005EF8228006EB430A0B784FF0010B8F78BB
:10CA70000BE000BF0BFA03F616EA080F04D03AF9F0
:10CA80001360002E00DA34445B1C9F42F2DA521C21
:10CA90009445E1DA0CB94FF0FF34642209FB02F14E
:10CAA000624291FBF2F1B5F8BC218A42ACDDB5F8E7
:10CAB000BA214A45A8DD0120A6E700009820012000
:10CAC000E848E94A006830F8FA1F1180E749C07960
:10CAD000C8807047E5480021E24A41808180C160FA
:10CAE000126892F843201209826001610170E048E7
:10CAF000017070472DE9F041DA4D296891F8D02096
:10CB0000B1F8FA30D407D84A3ED091F8FF4004B9C2
:10CB10000124168891F8FEC0F71A07FB0CF797FB63
:10CB2000F4F4B1F8FC7037442744D04CB8420BDD24
:10CB3000D0480026E66041681020F4F768FAA68025
:10CB4000286890F8010106E0864202D9C84D2D7888
:10CB500025B191F80101E080BDE8F081C64909786E
:10CB60000029F9D1B4F90610002901DD491EE18040
:10CB7000E1880029F0D1B11E814200DA01468B42E2
:10CB800000DD19461180E7E71380E5E7F0B5B54908
:10CB9000B64D096891F84020D20752D0B44A1778B0
:10CBA000B64A1278AFB1012A09D091F84330B1F8F2
:10CBB0004A6003F00F021C09B1F8483013E091F805
:10CBC0004D30B1F8546003F00F021C09B1F8523037
:10CBD00009E0012A14D011F8423F03F00F021C09AA
:10CBE0004B888E88423991F820C15FEACC7C17D0FF
:10CBF000DFF884C29CF800C0BCF1000F09D00FE040
:10CC000011F84C3F03F00F021C094B888E884C39F9
:10CC1000E9E791F825110FB10A0901E001F00F02CF
:10CC2000984201DCAA60F0BDB04201DBAC60F0BD0F
:10CC3000C01AA11A4843F11A90FBF1F01044A86001
:10CC4000F0BD0020FBE7874A10B512680021B2F85A
:10CC5000B830834205D292F8B0301B0701D50321CA
:10CC600012E0B2F8B630834205D292F8B0305B07DA
:10CC700001D5022108E0B2F8B430834204D292F820
:10CC8000B000800700D501217848794C037899429B
:10CC900011D1217899420AD0774A1278134307D0EC
:10CCA0000169491E0161002901DC0078207010BD76
:10CCB00001700169F7E759B1022901D1012B07D0B1
:10CCC00092F8B22002610170002AF0DC217010BDE0
:10CCD00092F8B320F6E76349096891F8B010CA06E4
:10CCE00062490DD58A88831A002B09DC624B1B78B8
:10CCF0004BB1C2EB0212520002EB4000C0F34F10E6
:10CD0000888080B27047C2EB82121044C0F38F104B
:10CD1000F6E72DE9F04306465248A1B080210568A8
:10CD200095F8B10000F00F04641C684602F0F9F8B1
:10CD300000236A46297D10E001FB03F7002009E08B
:10CD400007EB000852F820C036F91880C44442F8B6
:10CD500020C0401C8142F3DC5B1CA342ECDB0020C2
:10CD6000914606E059F8203093FBF4F349F820305F
:10CD7000401C8142F6DC0020024628E04FF0000C07
:10CD800067460BE007FB012336F9138059F8223080
:10CD9000B8EB030300D55B429C447F1CA742F1DB48
:10CDA0009CFBF4F395F82071FF070CD0324F3F78CD
:10CDB0004FB995F824714FEA171C0CFB03FC07F0E0
:10CDC0000F039CFBF3F3834200DD1846521C914293
:10CDD000D4DCB0F5803F04DB4FF6FF7021B0BDE836
:10CDE000F08380B2FAE710B5FFF793FFFFF773FF08
:10CDF0001E4C4FF00051020A60804A738873FFF79F
:10CE000022FF6088FFF7C2FE6088BDE8104071E62F
:10CE1000F0B4144A116891F8B130097D03F00F04A1
:10CE2000124B641CDD6895FBF4F604FB1655694350
:10CE3000134D05EB4105002105E000BF30F81160FE
:10CE400025F81160491C1668367D8E42F6DCD868DC
:10CE5000401CD860A04202DBF0BC0948C3E7F0BC2C
:10CE6000704700004C281000FC371000282A1000E2
:10CE700073281000083810006D2810006828100072
:10CE8000749F012031B56846FEF774FA944C2078FF
:10CE9000022805D19DF80000012801D100F0E7FE2D
:10CEA0009DF80000207000F073FE38BD10B5FEF74D
:10CEB00039FCBDE8104000F07DBE10B5FEF7A4FDC2
:10CEC000FCF7D0FE00F04CFEFFF7BAFBBDE81040C7
:10CED000FFF700BE824900204860EEE710B500244D
:10CEE000FFF729FA012803D0032804D0E0B112E0AB
:10CEF000FFF7C8FF0FE07B4C00235A1E194620693C
:10CF0000F3F7E6FB78497948FFF782FC2069F3F7ED
:10CF100097FB00F03DFE76480124007810B175497A
:10CF200001200870204610BDFFF7C0FFFAE72DE989
:10CF3000F047714F71490026386808426DD0704C37
:10CF4000206890F82901800703D56E486E49008853
:10CF50000880DFF8909100235A1E1946D9F818006E
:10CF6000F3F7B6FB5E49387809790840C0072CD042
:10CF70002068664D90F86010CA064FF0000130D569
:10CF8000DFF88C8198F80010B9B962490978A1B12D
:10CF9000B0F87D3090F87C205F496048FEF703FED2
:10CFA00058B9206890F87F0028705D48017841F0FA
:10CFB00001010170012188F80010287890B1401E0D
:10CFC000287055495548F6F70CFA3868002802DAF7
:10CFD0003046FCF711FED9F81800BDE8F047F3F72A
:10CFE0002FBB2970206890F8B000C00706D04D48CC
:10CFF0000078052802D04948FFF70AFF4A48007820
:10D0000028B10128DDD1494800780028D9D1484904
:10D010004248FFF763FF0646D3E7BDE8F08710B547
:10D0200000210420F3F7D2FF42482D4A00685168DE
:10D03000414005D05060C80702D0BDE810403CE731
:10D0400010BD274C00276770FFF73AFD0126607876
:10D0500060B30128FBD140F285100021F3F788FF6F
:10D06000F4F73EF80546C00706D000210120F3F78B
:10D07000ADFF6770FFF72EFF680705D5002104207C
:10D08000F3F7A4FFFFF753FF280605D50021802002
:10D09000F3F79CFFFFF7C3FFE805D8D500214FF455
:10D0A0008070F3F793FF24480670D0E70225032130
:10D0B0000020F5F7EAFF00212846F3F759FF032186
:10D0C0000120F5F7E2FFF4F70BF88007BFD5FFF773
:10D0D00001FF002140F28710F3F778FF6670B6E792
:10D0E0003C2A100020381000F41F0120D01F01201E
:10D0F000662810009A28100088281000030000807D
:10D100004C281000A4281000A62810006B2810003E
:10D11000622810007328100074AC0120408901209F
:10D120006C2810009C281000632810006428100050
:10D13000C08D0120882A1000102A1000D448002138
:10D1400001704160704710B5827E017F531A9B1CAD
:10D15000042B05D9C37E447F1B1B5B1C022B0FD9FC
:10D16000CC4B1B7873B12AB1CB4A1268127D521E88
:10D17000914207D1C17E407F081A401C022801D885
:10D18000012010BD002010BD2DE9F05F4368054669
:10D190001804DFF808B3DFF80893000C12D000225F
:10D1A0000A2610464FF0010808FA00F10B4226D07B
:10D1B00000EB800105EB01110C318C7F012C16D0A6
:10D1C0000A261FE09BF8000028B999F8001021F00A
:10D1D000010189F80010B3480078002805D199F8BA
:10D1E000001021F0020189F80010BDE8F09FCC6822
:10D1F000098994FBF1F1914201DD0A460646401C83
:10D200000A28D1DBDFF88CC2DFF884A2002700BF38
:10D21000686808FA07F108427ED007EB870005EB43
:10D2200000140C34A07F012802D006285AD073E0E5
:10D230000220A077207948B19CF80000C0B396483E
:10D24000BE42006890F8C0001FD115E096480078F3
:10D25000012808D09548007801288F48006816D02A
:10D2600090F8CF0115E09CF8000040B18A48BE421A
:10D27000006890F8D80108D100F00F0009E0864856
:10D28000BE42006890F8D001F6D0000901E090F8A5
:10D29000D401E0702046FFF756FF012810D06078D7
:10D2A000DAF8042008FA00F18A43CAF8042033E0CF
:10D2B000FFE77948BE42006890F88200E5D1DBE7DD
:10D2C0007548E178006890F8830000F00F0008448A
:10D2D000E0706078DAF8042008FA00F11143CAF827
:10D2E000041019E00720A0779CF8000000286A4885
:10D2F000006824D090F8C10000F00F00E07066488C
:10D30000216A006890F88500B1EB101F04DDE17818
:10D3100000F00F000844E0707F1C0A2FFFF678AF82
:10D320000026686808FA06F14746084275D006EB01
:10D33000860005EB00140C34E07818B14BE090F84F
:10D340008400D9E7A07F022802D007282FD042E02E
:10D350000320A077207940B95348007818B94FF4DA
:10D360008670FCF79BF9504807709BF80000012875
:10D3700014D1032089F80000207902280ED14A48F0
:10D380000078012802D10C20FCF788F948490520D3
:10D3900008704549002008704649087041480078E7
:10D3A000012818D199F8001041F0020111E008207D
:10D3B000A0779BF8000028B999F8001021F001012E
:10D3C00089F800103748007828B999F8001021F042
:10D3D000020189F80010617807FA01F0DAF8041008
:10D3E000084216D02046FFF7AEFE90B92A48E178F1
:10D3F000006890F8830000F00F00081A002800DC95
:10D400000020E0706078DAF804108740B943CAF869
:10D410000410E07808B1401EE070761C0A2E80DB14
:10D42000E3E6F0B500211C4B012500BF426805FA78
:10D4300001F422421FD001EB810200EB02120C32F8
:10D44000947F022C17D1184ED4783678012E16D03E
:10D45000164E3678012E1E6817D096F8CF7100BF91
:10D4600096F8826006F00F06BE1BA41B24B2002CA7
:10D4700000DC0024D470491C0A29D7DBF0BD1E68EB
:10D4800096F8D07107F00F07EAE796F8D471E7E74E
:10D49000542A1000732810004C2810006D2810002A
:10D4A000662810006F2810006828100069281000F6
:10D4B00067281000442A100070472DE9F04F00271C
:10D4C00089B03E463D463B46C3F10502002900EBCC
:10D4D000820264D0B2F9002017445A4302FB03557C
:10D4E0005B1C1644062BEFDBF94C0097606801903B
:10D4F000A068CDE90206206904906069CDE90505C0
:10D50000E0690790206A08906846F5F79BFC824620
:10D510002068CDE90007A0680290E068CDE9030625
:10D5200060690590A069CDE90605206A08908B46E0
:10D530006846F5F787FC8046206800906068CDE972
:10D540000107E06803902069CDE90406A069069010
:10D55000E069CDE9070589466846F5F773FC0326BF
:10D56000A8FB06470B4609FB0671002508FB0511C1
:10D570000925A0FB056703FB0573002200FB0230B1
:10D58000A319414113EB0A0041EB0B014FF4756203
:10D59000002301F033FC09B000B2BDE8F08FB2F90E
:10D5A000022099E770B5054600243630214606462C
:10D5B000FFF783FF60F31F4401213046FFF77DFF33
:10D5C0000146204661F30F00C5F83E0070BDC14919
:10D5D0000A68B2F82B11814201D300207047B2F8DB
:10D5E0002D21824201D8FF207047521A401AC0EB09
:10D5F0000020B0FBF2F0C0B2704738B5B2F902308B
:10D60000B2F900205B4302FB02340A460146684639
:10D6100000F007FD684600F0FCFCA04201D90020A4
:10D6200038BD012038BDF0B5AA4C0022236893F81C
:10D6300087502B0701D12B091DD0B0F92C60B1F90F
:10D640000230F31A00D55B4205F00F07BB4200D948
:10D650000122B0F92A70B1F90030FB1A00D55B4203
:10D66000B3EB151F01D942F0020232B1012A09D0F1
:10D67000022A09D009E00020F0BDD0F82A00086095
:10D680000120F0BD0F8000E04E80D30715D0B1F926
:10D690000230B0F92C50AB4207DD256895F8875071
:10D6A00005F00F05A3EB050306E006DA256895F8FB
:10D6B000875005F00F052B444B80920712D5B1F926
:10D6C0000020B0F92A309A4205DD236893F88730AC
:10D6D000A2EB131205E005DA236893F8873002EB1A
:10D6E00013120A800968C0F82A10C4E72DE9F8432C
:10D6F000784E0D460446817F012730684FF00009BF
:10D7000003290DD0B4F93080002104F1360C04F166
:10D710002A03B8F1000F1EDD90F8982032B10AE01C
:10D7200090F889002086A4F82E9067E090F8998000
:10D73000B8F1000F0BD0ADF8022090F89900ADF8C9
:10D7400000006A4661461846FFF757FF0146208EE3
:10D75000401E208626E0B4F92E20002A0EDD90F827
:10D76000800040071ED529462046FFF75CFF014692
:10D77000012817D1E08D401EE08513E090F8862047
:10D7800022B990F89780B8F1000F0BD0ADF80220C5
:10D7900090F89700ADF800006A4661461846FFF71A
:10D7A0002CFF0146A07F052806D0042804D00728B6
:10D7B0002AD0082828D029E041B1306890F88000AC
:10D7C00080071FD5D4F82A0028601FE0E08D78B9C3
:10D7D000B5F90200B4F92C10084440106880B5F97E
:10D7E0000000B4F92A1008444010288028686062BC
:10D7F000A4F83090306890F88800E0852868C4F874
:10D800002A0003E0002701E00129DBD03846BDE80B
:10D81000F8832DE9F8430446807F16460F46032817
:10D8200024D004F13A02111FDFF8AC80294D0528FD
:10D830001ED02B6893F829315FEA836C01D4072846
:10D8400016D0082803D09B06E1D50728DFD168460B
:10D8500000F0E7FB684600F0DCFB014698F80000AA
:10D860000028286870D0B0F8C4006FE0086866E04F
:10D87000684600F0D6FB684600F0CBFB844698F87B
:10D88000000048B12B6813F8C20F00F00F015A884E
:10D89000000952439B8813E01048007801281FD0EC
:10D8A000207908B30128286822D090F88A0000BFA8
:10D8B0002B6800F00F01000933F88C2F5B8852436E
:10D8C0005B43944520DD9C4515DB08461CE00000C9
:10D8D0005C2A10004C2810007328100072281000D9
:10D8E000286890F8B901E3E7286890F8D101DFE7EC
:10D8F00090F8AC00DCE7ACEB020C411A0CFB01FC2D
:10D90000991A9CFBF1F1401A626A3968C0F1100360
:10D91000424301FB03206FF0F02101EA1010386050
:10D920002868228D318890F88B0000F00F00C0F13C
:10D930001003424301FB0320000930803868606215
:10D940003088208563E7FFE7B0F88C0040438142D0
:10D95000F8DC606A3860208D308058E72DE9FC479C
:10D96000DFF8E8A1DFF8E881074600264FF001095B
:10D97000786809FA06F528427ED006EB860007EBA8
:10D9800000140C34A07F03280ED005280CD00428E6
:10D990000AD0D8F8001091F829118906002901DA77
:10D9A000072801D0082867D1D4F836100091A18A41
:10D9B000ADF80410D8F8002092F829319B0604D560
:10D9C000042802D1D4F83A00009092F88000400672
:10D9D00003D52046FFF7E6FD0090D8F8000090F848
:10D9E0008000000704D501AA69462046FFF711FF11
:10D9F000D8F8000090F88000C00706D001AA694658
:10DA00002046FFF773FE00287ED0A07F032808D1B0
:10DA1000D8F8000090F82901400702D5D4F8320068
:10DA20000090DAF800104B4B2943CAF80010227915
:10DA30001B7850461A4304D1A27F082A01D0A9437B
:10DA4000016006EB46010AEB8105A07F2D1D03282E
:10DA50003AD004283ED005283CD0D8F8001091F8E0
:10DA60002911890601D5072834D004200099A9601E
:10DA70002870A078400800E046E028712179032949
:10DA800002D340F080002871207868702079687196
:10DA9000D8F800002289434690F82F01010951432C
:10DAA00000F00F00B1FBF0F0A870E08AFFF78FFDE7
:10DAB000A871207EE8711A68BDF80400B2F89010D1
:10DAC000814209D3002013E02146384600F0B1F826
:10DAD0000320CBE70520C9E7B2F89220824201D8A3
:10DAE0003F2005E0521A401AC0EB801090FBF2F084
:10DAF000E870A07F082807D12146384600F08FF84B
:10DB00002146384600F0A9F8761C0A2EFFF630AF01
:10DB1000BDE8FC8770B5104C002305465A1E194617
:10DB20006069F2F7D5FD2846FFF718FF6069F2F744
:10DB300087FD06480068002806D008480168BDE84F
:10DB400070400220F3F763BA70BD00008037100008
:10DB50004C281000682810002038100008381000E9
:10DB600010B54FF44B714C4801F0DBF94FF4E971FB
:10DB70004A4801F0D6F94A490020087000F094F8AC
:10DB8000FFF7DCFA00F0D4F9BDE81040FFF794BCD1
:10DB900010B54249404800F0C2FC3F4800F085F80B
:10DBA0003D48FFF7F1FA3C48FFF7B4FF3B4900203E
:10DBB000087010BD10B500F0AFF9374800F0B9F9A2
:10DBC0003548FFF7E1FA3448FFF7A4FF3349002056
:10DBD000087010BD10B5314C014620780F2809D2CD
:10DBE000C0EB40102044401C1F22F5F7D5FB2078E5
:10DBF000401C207010BD10B503460020596801225A
:10DC000002FA00F4214206D0401C40B20A28F7DB99
:10DC10004FF0FF3010BD82401143596010BD10B568
:10DC20004C7801234268A3409A43426000208877E1
:10DC300010BD30B50022D0F80030012404FA02F5FE
:10DC40002B4205D0521C0A2AF8DBFF20087030BD99
:10DC50009440234303600A7030BD10B50C78012353
:10DC60000268A3409A430260FF20087010BD0A4872
:10DC7000FFF7D7BB09480A4900780870704709497F
:10DC8000096891F86110C90705D002460448017877
:10DC9000024800F098B870477C3F1000A84210007E
:10DCA000802A10004C281000704770B500240546EB
:10DCB0005FF00106686806FA04F1084222D004EB1E
:10DCC000840005EB00110C31887F012801D0022867
:10DCD00018D10879022803D0012805D040B111E0FD
:10DCE000B1F805008D4A06E0B1F805008C4A02E063
:10DCF000B1F805008B4AB2F90020904202DA2846BA
:10DD0000FFF78DFF641C24B20A2CD3DB70BD2DE914
:10DD1000F0470446914254D007D901EB0200A0EB32
:10DD20000201CAB2A0EB0200C1B2C1EB411000EB8C
:10DD30000401C2EB421001F1010100EB0409CB88A0
:10DD4000B9F8075009F101002B44CB808B88B9F852
:10DD500005502B448B80CB68D9F80D502B44CB60F9
:10DD60008D680B680068D9F809704FEA234C4FEAB8
:10DD7000204805FB0CFC07FB08CC05EB07069CFBC9
:10DD8000F6FC6CF31F430FFA83FC05FB0CF500B2A5
:10DD900007FB005090FBF6F060F30F030B608E6002
:10DDA0002078A0F10101914208D0C0EB4010011988
:10DDB0001E3909F101001F22F5F7EEFA2078401E06
:10DDC0002070BDE8F0872DE9FC5F074656480C46F9
:10DDD0000025017855480129006806D090F87300A5
:10DDE0004FF0010900FB00FA90E090F8CB00F7E754
:10DDF00009FA04F02646009065E0009A09FA06F058
:10DE0000494610425ED0C6EB46103844D0F8012097
:10DE100020464BE0B04248D0C0EB40133B44D3F81F
:10DE200001304FEA234CACEB224CA3EB02030FFA78
:10DE30008CFC1BB26CF31F4563F30F059B463B4BF9
:10DE4000E6461B6893F861C0CDF804C05FEA8C7C9D
:10DE50000BD593F874800BFB08FC4FF064089CFB17
:10DE6000F8F808EB0B0C6CF30F05DDF804C05FEA63
:10DE70004C7C0AD593F874300EFB03FC64239CFBA6
:10DE8000F3FC0CEB0E0363F31F454FEA254C0CFB30
:10DE90000CFC2BB203FB03C3534506D2DDF800C0D4
:10DEA00001FA00F343EA0C030093401C3B788342E1
:10DEB000B0DC04216846F4F7A3FF012802D10098E2
:10DEC00040000090761C3878B04296DC0421684609
:10DED000F4F796FF01281DD0009A484600FA04F195
:10DEE000114203D03E78C846761E0CE0641CF5E76C
:10DEF000009908FA06F0084204D0F2B2E1B23846BE
:10DF0000FFF705FF761EA642F2DC641C3878A042BB
:10DF10003FF76EAFBDE8FC9F70470000482A100035
:10DF20004A2A10004C2A1000752810004C281000B6
:10DF300070472DE9F0410024012605465FF00607F1
:10DF4000686806FA04F1084213D004EB840005EB7C
:10DF500000110C31887F032806D0042804D005283E
:10DF600002D0022802D004E08F7702E02846FFF7B3
:10DF700056FE641C0A2CE3D3BDE8F08110B50522DF
:10DF800000EB8203521E53F8324F12F0FF025C6026
:10DF9000F6D1C0F8361010BD5FF0000200EB82032E
:10DFA000521CD2B2C3F83610062AF7D3704730B5E8
:10DFB00004464270087D2071C868E060886820616E
:10DFC000C888208188886081487DA0700D460869D6
:10DFD000C4F81A00E88AE082288B2083A88BA4F872
:10DFE0000500A889A082012B07D029682046FFF7E9
:10DFF000C5FF206A401C206230BD0120A07729683F
:10E000002046FFF7C9FF002020622868C4F83200CC
:10E0100030BDB0F90010B0F90200494300FB001018
:10E02000704710B553884C881B1B438012880988A1
:10E03000511A018010BD2DE9FF4F4FF004088946A9
:10E04000526808EBC004411E4FF0060C1D460CEB55
:10E05000C000DDE90D3A14441044B4F90040B0F9B1
:10E06000007000E0491E08EBC1001044B0F9000048
:10E07000A04201D00029F5DA08EBC1001044B0F944
:10E080000000A0427BD10CEBC1001044B0F900604D
:10E09000491E0CEBC1001044B0F90000B04201D0A1
:10E0A0000029F5DA0CEBC1001044B0F90000B042D1
:10E0B00078D108EBC1001044B0F900C004EB840033
:10E0C00003EB00100CEB8C0103EB0111C7EB4713C2
:10E0D00003EB0A02D0F84200D1F84210D2F8012036
:10E0E000C6EB4613009203EB0A024FEA204BD2F82C
:10E0F000012001920BEB21420FFA80FA09B20AEBE0
:10E10000010053104210BDF90200BDF90610BDF91F
:10E1100004800844BDF90010C3EB60004144C2EB29
:10E1200061015844ADF80E000AEB0100ADF80C0097
:10E130006A4603A902A8FFF774FF02A8FFF769FF68
:10E14000804601AA03A902A8FFF76BFF02A8FFF708
:10E1500060FF804526D9002000E0401C05EBC0018F
:10E16000B1F90410A14201D04845F6D305EBC00136
:10E17000B1F90420A24215D1CE80002101E011E0C6
:10E18000491C05EBC102B2F90420624501D04945A2
:10E19000F6D305EBC101B1F90420624504D005EBCB
:10E1A000C000C780BDE8FF8FCF80FBE7F0B500213E
:10E1B00018E04A1C12E0436803EBC10603EBC204FB
:10E1C000356823689D4208DD67682560756865606D
:10E1D000446804EBC10423606760521C03689342E7
:10E1E000E9DC491C02688A42E3DCF0BD70B5D0E985
:10E1F0000045062606EBC40635442A8004254268FD
:10E2000005EBC4052A441180416801EBC401641C7C
:10E210000B60046070BDF0B5B1F90240B2F9025074
:10E2200004FB05F6002E2ADDB1F90060B2F900709A
:10E230007E43002E23DD64435D4394FBF5F424B25A
:10E240004480B2F90020B1F900105A43494391FBD0
:10E25000F2F10AB278230280782C00DD4380B0F915
:10E2600002406FF077018C4200DA4180782A00DDAD
:10E270000380B0F900208A4200DA0180F0BD00215D
:10E280004180FAE72DE9FF4FADF5AF6D81464FF6BE
:10E29000FF70CDF844050DF23450CDF840052C3018
:10E2A000CDF870050020CDF83405002402A80F46F3
:10E2B0000DF25C5B0DF5AD6AA0462646CDF838053B
:10E2C0000120D9F80410B04001427DD0CB4806EBC4
:10E2D000860109EB011501680C3505F13602B1F82C
:10E2E00094004043CDF8300591F896C0111D0DF211
:10E2F0005C50CDF84C25CDF85015FFF792FE0DF28D
:10E300005C50FFF786FE0CFB0CFC0CFB00FCDDF800
:10E310003005844502DDCDF848C501E0CDF848055B
:10E32000B7480078012803D16FF00040CDF84805C8
:10E33000B4480178012905D16FF00041CDF84815A6
:10E34000002101704FF0000C55E000BFCCEB4C10E9
:10E350003844401CCDF830050DF5AC60DDF84C2597
:10E36000DDF85015FFF75DFE05F13E010DF264503A
:10E37000DDF85025FFF755FEDDF87005B0F9020015
:10E380006430C82806D8DDF87005B0F900006430A4
:10E39000C82801D9012300E003230DF26452111FA4
:10E3A000081FFFF738FF298FBBF802000844AAF8BE
:10E3B0000200E98EBBF800000844AAF800000DF541
:10E3C000AD610DF25C5000E018E0DDF83025FFF79C
:10E3D00028FE0DF25C50FFF71CFE0346DDF84805F1
:10E3E000834206DA0FFA8CF231B2DDF84005FFF70E
:10E3F000FDFE0CF1010C38786045A7DC761C0A2E76
:10E40000FFF65EAFDDF8340500287CD0DDF840056E
:10E41000FFF7CCFE00200DF5A16E0DF5976B4FF0C8
:10E42000040A3AE0DDF838150AEBC0020A44B2F9F2
:10E430000030062202EBC0021144B1F900C0DDF841
:10E4400080150D68012101FA03F215421FD1DDF894
:10E45000846501FA0CF136680E4218D1DDF880654A
:10E4600015433560DDF884552D680D43DDF88415BE
:10E470000D600BEBC401641C8B80A1F806C0DDF8B5
:10E4800044150A4203D14EF8280008F10108DDF8CE
:10E4900044159143401CCDF84415DDF834158142F4
:10E4A000C0DC7546B8F1000F33D0CDE90097A8F174
:10E4B00001080DF5976355F828002146DDF8402541
:10E4C000FFF7B9FDEEE7641E0BEBC4010023B1F9C1
:10E4D0000400B1F9061000EB800209EB0215C1EB54
:10E4E00041100C35C119491C95F901202846FFF748
:10E4F0005EFDA87F032807D0042808D0072806D08F
:10E50000052806D103E006E085F81EA001E00520FD
:10E51000A877002CD7D10DF5B16DBDE8F08F2DE9AE
:10E52000FC41064640680F4650B100200190009023
:10E5300001AB6A463046FFF7A5FE0025012437E00F
:10E54000002412E004EB840006EB00150C35304685
:10E55000FFF751FB021E07DBC2EB4210C119491C39
:10E5600001232846FFF723FD641C3878A042E9DC2C
:10E57000BDE8FC81019904FA05F0084217D1304644
:10E58000FFF739FBB0F1000C11DBC5EB4510C119E9
:10E590000CEB8C0006EB0010491C0C30012362468A
:10E5A000FFF705FD009904FA0CF0084300906D1C7C
:10E5B0003878A842DEDC00255FF00607716804FAAF
:10E5C00005F0014216D00099084213D105EB8500F1
:10E5D00006EB00110C31887F032806D0042804D0F4
:10E5E000052802D0022802D004E08F7702E03046EE
:10E5F000FFF715FB6D1C0A2DE0DBB9E74C28100076
:10E60000722810006C28100012490868124A10681D
:10E6100000280CD14FF4FA7300BF401C9842FBD382
:10E620000860106820B1086820F004000860704796
:10E6300030BF7047094810B50168491C016008489F
:10E64000006820B10120F4F740FF30BF10BDBDE8E5
:10E650001040D9E710ED00E0481A0120A82810006A
:10E6600084010022F9490020486088600860F84968
:10E67000086070472DE9F0474FF00857D7F884013C
:10E6800000286CD105210120F4F7FFFCEF4D4FF07D
:10E690000009DFF8C083C5F80490C5F80890EE4C77
:10E6A000C5F80090C8F8009002206168F2F7AFFC4E
:10E6B0000220E168F2F7ABFC08202168F2F7A7FC22
:10E6C00002202169F2F7A3FCE44E306890F829019A
:10E6D000800702D50120FAF731FEFAF70CFF306807
:10E6E00090F88003000703D520206168F2F78FFCC3
:10E6F000306890F8511109072ED590F85001C007E5
:10E700002AD06868410727D4D549012640F0040083
:10E710000E70D4490A6842F020020A606860D8F896
:10E720000010D14841F02201C8F800100670B00274
:10E730006168F2F76CFC0420A168F2F768FC102015
:10E740002169F2F764FCC7F89061C1494FF6E850BF
:10E75000C1F80090F2F7B2FD0120C7F88401BDE8CE
:10E76000F08770B54FF00856D6F88401002831D0F4
:10E77000BA48006890F82901800701D5FAF7E1FD51
:10E78000B4480025B44C056001206168F2F73FFCF5
:10E79000AE4845600420A168F2F739FC10202169D9
:10E7A000F2F735FC8020E168F2F731FC0120E168E6
:10E7B000F2F72DFC04202168F2F729FC01202169E1
:10E7C000F2F725FCC6F88451BDE870400521002011
:10E7D000F4F75BBC70BD70B59C4D6A68D0072BD157
:10E7E0009C48A24B016841F0050101601C6844F09F
:10E7F00020041C60994B1B6893F8B031DB0705D0EF
:10E8000012F40B7F02D141F04201016096480126CB
:10E81000914C0670B0026168F2F7F9FB686840F04D
:10E82000010068600420A168F2F7F1FB8020E16834
:10E83000F2F7EDFB8E4806608E490020087070BD2F
:10E84000824810B50079C00701D1FFF7C4FF89499C
:10E850000120087010BD7D4910B54868C2070ED070
:10E8600020F001007C4C48600420A168F2F7CFFB47
:10E870008020E168F2F7CBFB7D490020086010BDE5
:10E8800010B54FF00854D4F88401002807D072481E
:10E8900081680820F2F7BBFB0120C4F8880110BD95
:10E8A00010B54FF00854D4F88401002807D06A4806
:10E8B00081681020F2F7ABFB0020C4F8880110BD7E
:10E8C000F2F7BEBD654810B5006890F85001C0076A
:10E8D0000FD05E49486842070BD520F004005E4C1B
:10E8E00048600420A168F2F792FB10202169F2F73A
:10E8F0008EFB5F490020091D086010BD70B5574EA2
:10E90000306890F85001C0073CD050484268510729
:10E910002FD459490B78014689682BB141F0040185
:10E9200081600521016024E04D4B012442F0040286
:10E930001C704C4B21F004011D6845F020051D6042
:10E94000C0E901214348444D016841F022010160C2
:10E9500045480470A0026968F2F759FB0420A968D1
:10E96000F2F755FB10202969F2F751FB4048001DD2
:10E970000460306890F85101000703D5BDE870408D
:10E98000F2F7AABC70BD7047704770477047704778
:10E990007047324810B5006890F8C001C00712D027
:10E9A0002A49486842060ED5344B002220F0400028
:10E9B0001A70294C48600420A168F2F728FB8020D7
:10E9C000E168F2F724FB2A4900201031086010BDED
:10E9D000224810B5006890F8C001C00716D027493A
:10E9E000002008701949486842060FD440F04000E2
:10E9F000194C48600420A168F2F709FB8020E16807
:10EA0000F2F705FB1A4901201031086010BD1348C8
:10EA100010B5006890F8C001C00716D01749012052
:10EA200008700A49486842060FD440F040000A4C7A
:10EA300048600420A168F2F7EAFA8020E168F2F762
:10EA4000E6FA0B4901201031086010BD842A10003D
:10EA5000A028100050281000083810004C28100082
:10EA6000992810005C281000542810005828100025
:10EA70008C0100226A281000662810006928100006
:10EA8000F2F7C0BC6048007900070ED45F4840F63A
:10EA9000BF720168114301605D49012008705D4843
:10EAA00041684FF48060F2F7B2BA70475A4840F6B6
:10EAB000A252016841F0100101605549012008701F
:10EAC0005248016811430160524841684FF4806028
:10EAD000F2F79DBA4F4841680820F2F798BA4D48BE
:10EAE00041680420F2F793BA4A4841681020F2F7CF
:10EAF0008EBA484841682020F2F789BA45484168F3
:10EB00004020F2F784BA4548006890F8C800C00772
:10EB100002D0434901200870704741490020087025
:10EB2000704770470A46B0F5805F014602DA3B48FD
:10EB3000006801E04FF48010FAF7EEBCF0B54FF436
:10EB40000064B0F5805F02D2344B1D6803E0A0F58D
:10EB500080504FF48015002303E0D65C1F185B1C27
:10EB6000EE558B4201DAA342F7DBF0BD10B52B4C1A
:10EB700040F2FF112068F2F7C9FA22684FF40071E1
:10EB8000C2F8FC071046F2F744FEBDE8104003202F
:10EB9000FAF784BD10B54FF4801440F2FF112046FF
:10EBA000F2F7B4FA1F490860C9122046F2F741FE95
:10EBB000BDE810400420FAF771BDFAF72BBD1548E7
:10EBC00081682020F2F723BA124841684FF4807020
:10EBD000F2F71DBA0F4841684FF40070F2F717BA08
:10EBE00010B50C4C4FF48070E168F2F710FA21690F
:10EBF000BDE810402020F2F70ABA0348007A400727
:10EC000000D57BE670470000842A100050281000D1
:10EC100054281000083810005C2810004C28100000
:10EC200075281000FC07100070B504462F480D46EB
:10EC3000202C02DD2021016000E0046020212C480E
:10EC400000F04DF900222A4802E0A95C8154521CD0
:10EC5000A242FADB274841690120F2F709FA0028AD
:10EC600003D0BDE87040F1F7CDBB70BD032804DDD3
:10EC70000888897840BAFFF755BF7047032806DD3A
:10EC8000C31E08888A1C40BA1946FFF757BF704751
:10EC9000174916480B780068A3F190021F2A03D881
:10ECA000154850F822000047B02B07D0B22B07D0F0
:10ECB000FB2B07D0FC2B07D1FFF76CBF491CDDE70E
:10ECC000491CD3E7FFF752BF70470C4910B50868DD
:10ECD000401C086042F21071884205D9FFF7F2FD2E
:10ECE000BDE81040F2F7F8BA10BD0000902A1000FD
:10ECF0007A4410000838100060F30000A0281000CB
:10ED0000FFF7B0FC1148F2F7A2FBFAF7CCFB0521A4
:10ED10000020F4F7BAF903200021F2F729F9F2F7FD
:10ED2000DFF90446C00707D000210120F2F74EF9B1
:10ED3000FFF7AEFFF2F7B7FBA007ECD500210220EA
:10ED4000F2F744F9FFF759FFE5E7000009EC00008E
:10ED500070B5064600F03AF9056806F10B0020F0A0
:10ED60000704B4429CBF002070BD2B466A68BAB14C
:10ED70001068A04210D304F1080188423CBF5068DB
:10ED8000586007D35168101941601168091B016070
:10ED900058601460101D70BD13465268002AE7D1F8
:10EDA0002146284600F01AF90028DED170BD70B562
:10EDB0000446051F00F00AF90068002C14BF4468DF
:10EDC00070BD002C18BFA54284BF20466468F8D8E7
:10EDD00001680A18AA4218BF456003D12A6805468F
:10EDE0001144016028684119A1421CBF6C6070BDCC
:10EDF0006168696021680844286070BD10B54C10D6
:10EE000084EA530404D54042C1F1000138BF491ED1
:10EE10001B4204D55242C3F1000338BF5B1E00F011
:10EE200027F914F0804F04D04042C1F1000138BFEF
:10EE3000491E14F0004F04D05242C3F1000338BF02
:10EE40005B1E10BD032A40F2308010F0030C00F06E
:10EE5000158011F8013BBCF1020F624498BF11F814
:10EE600001CB00F8013B38BF11F8013BA2F10402CD
:10EE700098BF00F801CB38BF00F8013B11F0030345
:10EE800000F06D81083AC0F0088051F8043B083A60
:10EE900051F804CBA0E80810F5E7121D5CBF51F84B
:10EEA000043B40F8043BAFF30080D20724BF11F8C5
:10EEB000013B11F801CB48BF11F8012B24BF00F82A
:10EEC000013B00F801CB48BF00F8012B704702F06E
:10EED000FF0343EA032242EA024200F002B84FF085
:10EEE00000020429C0F0128010F0030C00F01B8017
:10EEF000CCF1040CBCF1020F18BF00F8012BA8BF25
:10EF000020F8022BA1EB0C0100F00DB85FEAC17CE8
:10EF100024BF00F8012B00F8012B48BF00F8012B9B
:10EF200070474FF0000200B51346944696462039CC
:10EF300022BFA0E80C50A0E80C50B1F12001BFF4B2
:10EF4000F7AF090728BFA0E80C5048BF0CC05DF818
:10EF500004EB890028BF40F8042B08BF704748BF66
:10EF600020F8022B11F0804F18BF00F8012B7047DA
:10EF700010B5044610F0030F08BF11F0030F40F066
:10EF800015804FF0013E121FC0F20E8051F8043B75
:10EF9000A3EB0E0C2CEA030C1CEACE1C08BF40F8B5
:10EFA000043BF0D0A1F1040102F10402521E08DB7F
:10EFB00011F8013B002B00F8013BF7D11146FFF798
:10EFC0008EFF204610BD704770477047004870475D
:10EFD000A4441000704770477047704738B5044626
:10EFE0000A4600206946AFF30080002808BF38BDFC
:10EFF00002460099204600F0E4F8012038BD0120C7
:10F0000000F0F9B8F8B5AFF30080054600200C46D3
:10F01000102000BF0646A819A0420DD93246694605
:10F020000020AFF30080070008BF00F0E4F800986C
:10F03000A04218BF0546C419FFF7C8FF0560074680
:10F04000F01D20F007004619284600F00AF8B442E7
:10F0500008BFF8BDA21B31463868BDE8F84000F093
:10F06000B0B800210160C0E901107047102070475E
:10F0700053EA020C00F069802DE9F04B4FF00006D6
:10F08000002B1FBFB3FA83F503FA05F424FA05F643
:10F090005E4012BF1643B2FA82F502FA05F4C5F1DA
:10F0A00020051EBF22FA05FC44EA0C04203556EA6E
:10F0B000044C4FEA144418BF641C4FF000084FF092
:10F0C0000009904271EB030C39D3002919BFB1FA42
:10F0D00081F701FA07F6B0FA80F700FA07F6C7F1F0
:10F0E00020071EBF20FA07FC46EA0C062037B6FBB5
:10F0F000F4FCA7EB0507103F07F01F0BCBF1200630
:10F100000CFA0BFB2CFA06F644BFB3460026202F60
:10F11000A4BF5E464FF0000B5BEA060C08BF4FF041
:10F12000010B19EB0B09ABFB027C48EB0608C01B7B
:10F1300006FB02CC0BFB03CC71EB0C01C1E70B46C9
:10F14000024641464846BDE8F08B13B54FF000003B
:10F150004FF00001AFF30080BDE81C40704710B5D0
:10F16000203AC0F00B80B1E81850203AA0E81850BF
:10F17000B1E81850A0E81850BFF4F5AF5FEA027C80
:10F1800024BFB1E81850A0E8185044BF18C918C0EF
:10F19000BDE810405FEA827C24BF51F8043B40F890
:10F1A000043B08BF7047D20728BF31F8023B48BF75
:10F1B00011F8012B28BF20F8023B48BF00F8012BB3
:10F1C0007047034640688C46002818BF814284BFC0
:10F1D00003464068F8D818681844884207D00CF1F4
:10F1E000030020F00700001D411A521A0146081DB5
:10F1F0000A60FFF7DCBD10B500F010F8BDE8104064
:10F2000000F007B870470446AFF300802046F0F7DF
:10F21000D9FF002801D000F029B8704710B50128A7
:10F2200005D0002103A000F027F8012010BD09A19E
:10F23000F8E7000053494752544D454D3A204F7569
:10F2400074206F662068656170206D656D6F7279DE
:10F25000000000003A2048656170206D656D6F7296
:10F260007920636F727275707465640001491820AB
:10F27000ABBEFEE72600020070B505460C460A202C
:10F2800000E06D1C00F011F835B128780028F8D1A5
:10F2900002E0641C00F009F814B120780028F8D1CD
:10F2A000BDE870400A20AFF3008008B569468DF8CC
:10F2B00000000320ABBE08BD991D0000B31D000077
:10F2C000CB1D0000E31D0000FF1D0000171E000005
:10F2D0002F1E0000451E000000000000991D0000C8
:10F2E0009D1D0000E31D0000171E00002F1E0000E2
:10F2F000FF1D0000B31D0000CB1D0000451E0000D7
:10F3000000010102010202030102020302030304DD
:10F310005AD3D9E96CF145F59FF73CF96CFA58FBE3
:10F3200018FCB9FC44FDBFFD2EFE94FEF4FE50FF18
:10F33000A9FF00005700B0000C016C01D20141028E
:10F34000BC024703E803A8049405C4066108BB0A8D
:10F35000940E2716A62C01000200010002000400F2
:10F3600002000100020001001000FFFFFFFFFFFF8D
:10F37000FFFF1400FFFFFFFFFFFFFFFF0C00000077
:10F3800043E7000055E6000037E80000B7E700005B
:10F39000A5E80000DDE8000067E9000069E9000079
:10F3A00061E8000081E800006FE9000071E90000F9
:10F3B00021E80000EFE9000073E90000B1E9000076
:10F3C000A1E8000061EA000065EA0000B5EA00007B
:10F3D000BFEA0000C9EA0000D3EA0000DDEA00004D
:10F3E000E7EA00008DEA00009BEB0000FBEA00006A
:10F3F000C1EB00009FEB0000A9EB0000B5EB0000A3
:10F4000000F4000000281000940200000001000039
:10F4100038F40000942A1000681A00005C01000013
:10F420001AAA01012C1AFF0101125305FA0214F85D
:10F4300002FF012116FFFFFEFF0A25FEFFFFFF125C
:10F44000011A0204011E3206320F9A37089AE108A7
:10F4500003A6D3030936C800000000000000000026
:10F46000000000000000000000000000000000009C
:10F47000000000000000000000000000000000008C
:10F48000000000000000000000000000000000007C
:10F49000000000000000000000000000000000006C
:10F81000000000000000000000000000D5918C995D
:10F82000A54E2600FFFFFF3F00000000FFFF010084
:10F83000000000001E11FF04CF02010000000000C4
:10F840000B010ACFF54070000001FF0FFF0FFF0F03
:10F850005000FF0FFF0F0001001010A0004000003B
:10F860005F00A4C9100060006000B000E4E910006F
:10F870005000100050000000300030001532000031
:10F8800006034002A00030802000BC026003E001BB
:10F890003C3050800901000AA001080F0300030357
:10F8A0003D00210A01F104221005A20810004000C9
:10F8B00000000010750004040D0D000000000000A1
:10F8C00007E00040000604024000AA00A200000079
:10F8D000138F0220200020010000003000002003D0
:10F8E0004303D80010004000034060701000000087
:10F8F00001090D000E000F0010001100120016008B
:10F90000170019001A0000000000000000000000AD
:10F910000000FF010000000000000A0016000301C3
:10F92000016400000000000000000041183F0300D7
:10F93000003218020F0510001F0407100E0B000004
:10F94000010318105AA8100000010000005000FA2E
:10F950006600AC0DB80B000C000C000C000C005E37
:10F960002BF0003200800C800C040000010000002D
:10F97000FB0F70006400101010003000C920100050
:10F98000FF01230000000010E0400000081E0008F6
:10F99000DF000604B4C018006000108015151008C0
:10F9A00008201E0100000190010412283060600050
:10F9B000EC10282A3C350030000100018000800056
:10F9C00003100030300806EA10003000000000008C
:10F9D000008000640080000308C8001020010000BF
:10F9E000310000401000A0000A00020602043C069C
:10F9F00042D2800003000000840210000020322068
:10FA0000FFFFFFFF00008022001F11121300000003
:10FA100002000200020000000008000000000000D8
:10FA200000220000000000000000000000000000B4
:10FA300000000000000000080000000000000000BE
:10FA40000000B400B40000002000C8000202000062
:10FA5000030303020203F000803E55002000000172
:10FA6000B408FF01FF01FF01FF014000000000009A
:10FA70000000002000000100000000000000000065
:10FA80001F500050004332430F14AA08000000002A
:10FA9000284C5054585C60646464605C5854504C0A
:10FAA0002864646464646464646464646464646452
:10FAB000646464646464D000000402020000000016
:10FAC000585A5C5E60626464646464646464646420
:10FAD000646464646464646462605E5C5A58646410
:10FAE00064646464646464646464646464646464D6
:10FAF000646464646464646464646464D000000086
:10FB000005DF000E800080000010000410070B00CD
:10FB10000101000000000000FFFFFFFF00000000E7
:10FB200000000000000000000000000000000000D5
:10FB300000000000000000000000000000000000C5
:10FB400000000000000000000000000000000000B5
:10FB500000000000000000000000000000000000A5
:10FB60000000000000000000000000000000000095
:10FB70000000000000000000000000000000000085
:10FB8000FAB2B240202828E0A2A240203C003C006B
:10FB90003C003C002020202020B2B240202807005A
:10FBA0008802F6000801180118010000000000009A
:10FBB0000000000000000000000000000000000045
:10FBC0000000000000000000000010001000030111
:10FBD00001FFF600080118011801050000000000EF
:10FBE000000000000000000021082042000000008A
:10FBF0003307E901BF00570028000A000A000A0085
:10FC00000A000A000A000A0028005700BF00E901A4
:10FC100033070000000000000000000000000000AA
:10FC200000000000000000000000000000000000D4
:10FC300000000000000000000000000000000000C4
:10FC400000000000000000000000008000800004B0
:10FC50000000000002000102030001020300000096
:10FC60000017A001090000000007100E100E100E72
:10FC7000280A280AC05DC05D581B581B0000000000
:10FC80000000000000000000000000000000000074
:10FC90001018000008001500360051007200920094
:10FCA000AF00CE004B01C6014402B7023403B103DA
:10FCB0002C044C046A048A04A604C604E604F8046E
:10FCC000FF04000002001200400062008200A20057
:10FCD000C100DF005601CD014402B7022E03A80384
:10FCE00020043A04590479049B04C504F204FF0477
:10FCF000FF040000070015003C0064008B00B0000A
:10FD000027019E01100237025F028702AE02C8027D
:10FD1000CF0200000200120043006A009800B90000
:10FD20002B019D01100232025C028A02C002CF0246
:10FD3000CF020000000000000000000000000000F2
:10FD400000000000000000000000000000000000B3
:10FD500000000000000000000000000000000000A3
:10FD60000000000000000000000000000000000093
:10FD70000000000000000000000000000000000083
:10FD80000000000000000000000000000000000073
:10FD9000070900001000300040018002C003C004C9
:10FDA000F004FF0400001000300048018002B0039E
:10FDB000B004D004FF040000100030006801A0026D
:10FDC000C002CF0200001000300068018A02AA02BF
:10FDD000CF02000000000000000000000000000052
:10FDE0000000000000000000000000000000000013
:10FDF0000000000000000000000000000000000003
:10FE000000000000000000000000000000000000F2
:10FE100000000000000000000000000000000000E2
:10FE200000000000000000000000000000000000D2
:10FE300000000000000000000000000000000000C2
:10FE400000000000000000000000000000000000B2
:10FE500000000000000000000000000000000000A2
:10FE60000000000000000000000000000000000092
:10FE70000000000000000000000000000000FF7F04
:10FE8000FF7F04000080010000010000000000006E
:10FE90001018000008001500360051007200920092
:10FEA000AF00CE004B01C6014402B7023403B103D8
:10FEB0002C044C046A048A04A604C604E604F8046C
:10FEC000FF04000002001200400062008200A20055
:10FED000C100DF005601CD014402B7022E03A80382
:10FEE00020043A04590479049B04C504F204FF0475
:10FEF000FF040000070015003C0064008B00B00008
:10FF000027019E01100237025F028702AE02C8027B
:10FF1000CF0200000200120043006A009800B900FE
:10FF20002B019D01100232025C028A02C002CF0244
:10FF3000CF020000000000000000000000000000F0
:10FF400000000000000000000000000000000000B1
:10FF500000000000000000000000000000000000A1
:10FF60000000000000000000000000000000000091
:10FF70000000000000000000F000FF00040000008E
:10FF80008A020000000007010000010010000000CC
:10FF900001020404001E00000000008C04040000A4
:10FFA00000000000000000F600530388000000007D
:10FFB000000000000000000000722000120012008B
:10FFC0000801C600000801C60000EA409300820351
:10FFD00082030000020000C0240000006000001046
:10FFE00000000000000000000008200000010000E8
:10FFF0000000000000000000000000000000000001
:020000021000EC
:10000000218100000000000000000000000000004E
:10001000000000000000000000000022D0FF642665
:00000001FF
