:100000005555AAAAD403000000000000000000001B
:1000100021960100000000000000000007D5880DB7
:10002000002810002D110000590200006F0200008E
:10003000850200009B020000B102000000000000E9
:10004000000000000000000000000000B5280000D3
:10005000C528000000000000C7280000D7280000C5
:10006000DB280000FF260000F528000039270000EB
:10007000F7280000FB2800000B2900001B290000C6
:10008000C7020000392900003B2900003D2900007B
:100090003F29000041290000432900000000000022
:1000A0000000000000000000000000000000000050
:1000B0000000000000000000000000000000000040
:1000C0000000000000000000000000000000000030
:1000D0000000000000000000000000000000000020
:1000E000D403000000F002F800F062F80AA090E8E3
:1000F000000C82448344AAF10107DA4501D100F0E3
:1001000057F8AFF2090EBAE80F0013F0010F18BF4D
:10011000FB1A43F001031847D4F30000F4F3000086
:100120000A444FF0000C10F8013B13F0070408BF1D
:1001300010F8014B1D1108BF10F8015B641E05D0BB
:1001400010F8016B641E01F8016BF9D113F0080F70
:100150001EBF10F8014BAD1C0C1B09D16D1E58BF02
:1001600001F801CBFAD505E014F8016B01F8016B39
:100170006D1EF9D59142D6D37047000000230024AC
:1001800000250026103A28BF78C1FBD8520728BFA7
:1001900030C148BF0B6070471FB5024802490EF0DE
:1001A000A7FF1FBD000810000028100010B510BDEB
:1001B000DFF80CD0FFF7F0FF02F0D9FC0FF099F850
:1001C0000028100003B4FFF7F1FF03BC0FF0C4F8E0
:1001D0001A4B19680868B0E8F00F80F309884FF0EF
:1001E000000080F311884EF00D0E704700000000F3
:1001F00003480068006880F3088862B600DF00BF2B
:1002000008ED00E0EFF309800C4B1A6820E9F00FCD
:10021000106008B54FF0200080F3118800F02FFD2A
:100220004FF0000080F31188BDE8084019680868A5
:10023000B0E8F00F80F30988704700BF0428100071
:1002400001B44FF0200080F3118801BC704701B465
:100250004FF0000080F3118801BC704740BA70472E
:10026000C0BA7047401E0028FCDC704700BE7047D3
:1002700040BA7047C0BA70471EF0040F0CBFEFF3CE
:100280000880EFF309804FF0010102F080BA1EF000
:10029000040F0CBFEFF30880EFF309804FF0020169
:1002A00002F075BA1EF0040F0CBFEFF30880EFF3F5
:1002B00009804FF0030102F06ABA1EF0040F0CBF70
:1002C000EFF30880EFF309804FF0040102F05FBA0A
:1002D0001EF0040F0CBFEFF30880EFF309804FF01E
:1002E000050102F054BA1EF0040F0CBFEFF30880B2
:1002F000EFF309804FF0000102F049BA10B504464F
:1003000000F029FC20460EF099FD044600F0BAFBEF
:10031000204610BD10B5040008D000F01CFC20469B
:100320000EF0BBFDBDE8104000F0ACBB10BD00F10D
:1003300008014FF0FF32C0E90112C16001610021E4
:1003400001607047002101617047426853684B604B
:1003500043688B605368996051604160086101682F
:10036000491C0160704710B50B685A1C02D000F19F
:10037000080202E0026904E05268546824689C4262
:10038000FAD953684B6099608A60516008610168CE
:10039000491C016010BDD0E901128A60D0E9011248
:1003A000516001694A68824201D182684A60002234
:1003B00002610868401E08607047000010B5031F06
:1003C0004FF0807420381C6081610021416140F849
:1003D000202910BD1D4810B5016841F47F0101605E
:1003E000016841F07F4101604FF0E0201849416110
:1003F00007210161174900200860FFF7F9FE00207E
:1004000010BD704711494FF080501C39086070478B
:1004100010B5FFF715FF0F480168491C016010BDBA
:100420000C490868401E086001D1FFF710BF7047F3
:10043000064910B51C394FF080500860FFF700FFE7
:1004400000F0D5FABDE81040FFF701BF20ED00E055
:1004500098990300002810002DE9F0410E46050090
:100460004FF000072AD05020FFF748FF040025D0A6
:10047000B84605FB06F0401CC4F84C80FFF73EFF71
:100480002060C0B105FB0601C4F838806160A0603F
:10049000691E01FB0600E563E060781EC4E9106098
:1004A000A06404F11000FFF742FF04F12400FFF7FD
:1004B0003EFF274602E02046FFF72CFF3846BDE806
:1004C000F08170B50446FFF7A3FF04F12405A06C8A
:1004D0000AE0606A50B1284600F0E6FC08B100F07E
:1004E00035FDA06C401EA0640028F2DC4FF0FF3602
:1004F000A664FFF795FFFFF78BFF04F11005606C12
:100500000AE0206950B1284600F0CEFC08B100F0A6
:100510001DFD606C401E60640028F2DC6664BDE86E
:100520007040FFF77DBF10B51346026C04466AB1F8
:1005300083B1E0680EF0FCFCE168206C091AE16010
:100540002268914202D26168081AE060A06B401CE8
:10055000A06310BDA0680EF0EBFC216CA0680844FD
:10056000A06061688842F1D32068A060EEE72DE9C1
:10057000FF41002582B01F46884604464FEA050623
:10058000FFF746FFA16BE06B814213D23A4641462A
:100590002046FFF7C8FF606A38B104F1240000F07C
:1005A00083FC012801D1FFF72DFFFFF739FF012060
:1005B00006B084E7049808B11DB106E0FFF730FFEC
:1005C0001DE0684600F098FC0125FFF729FF00F0C8
:1005D000C2FAFFF71DFF606C401C00D16664A06C7E
:1005E000401C00D1A664FFF71BFF04A9684600F079
:1005F00089FC30B12046FFF764FF00F043FA002089
:10060000D6E7FFF705FFA06BE16B884210D1FFF73B
:1006100007FF04F11000049900F02DFC2046FFF7BD
:1006200050FF00F02FFA0028AAD1FFF7EBFEA7E752
:10063000FFF7F6FE2046FFF744FF00F023FA9FE79E
:10064000944AC16C1268914201D000207047002387
:100650001A4619468BE72DE9F0411E4615460F460E
:100660000446FFF7EDFDA06BE16B884217D23246DE
:1006700039462046FFF757FFA06C411C03D0401CB1
:10068000A06401240CE0606A0028FAD004F1240080
:1006900000F00AFC0028F4D001202860F1E70024D3
:1006A000FFF7D5FD20460AE730B403680D46002B5E
:1006B0000CD0026CC1688C18C46041688C4200D3B5
:1006C000C360C168284630BC0EF032BC30BC7047F5
:1006D0002DE9FF43002683B09846894604463746F5
:1006E00000F12405FFF794FEA06B30B36948E6687B
:1006F0000068E06449462046FFF7D6FFB8F1000FD6
:100700000ED0E660606A28B1284600F0CDFB08B143
:10071000FFF778FEFFF784FE012007B0BDE8F08305
:10072000A06B401EA06320690028F3D004F11000E4
:1007300000F0BAFB0128EBD0ECE7059808B11EB138
:1007400006E0FFF76DFE1DE0684600F0D5FB0126D0
:10075000FFF766FE00F0FFF9FFF75AFE606C401CE1
:1007600000D16764A06C401C00D1A764FFF758FE5D
:1007700005A9684600F0C6FB30B12046FFF7A1FE90
:1007800000F080F90020C8E7FFF742FEA06B38B107
:10079000FFF746FE2046FFF794FE00F073F9A1E74D
:1007A000FFF73EFE2846059900F065FB2046FFF75F
:1007B00088FE00F067F9002894D1FFF723FE91E747
:1007C00070B515460E460446FFF73AFDA06BC8B15A
:1007D00031462046FFF768FFA06B401EA063606CA7
:1007E000411C03D0401C606401240CE020690028F7
:1007F000FAD004F1100000F057FB0028F4D00120DB
:100800002860F1E70024FFF722FD204670BD10B5F7
:100810000446FFF7FDFDA46BFFF702FE204610BD66
:10082000806B704710B504461B48002100EBC102E5
:100830005368A34203D1002240F8312002E0491C52
:100840000A29F3D32068FFF765FD2046BDE8104074
:10085000FFF760BD806B08B1002070470120704732
:10086000816BC06B814201D101207047002070472D
:1008700010B5094B002200BF53F832401CB1521C86
:100880000A2AF9D310BD43F8321003EBC2014860C5
:1008900010BD000004281000942A10002DE9F05F1C
:1008A0008346DDE90A6815469A46894648200C9F2A
:1008B000FFF724FD04004AD01FB9A800FFF71EFD72
:1008C0000746676338003FD0A900A5220EF075FBEC
:1008D0006FF0030101EB8501606B3546084420F0A1
:1008E00007074946102204F138000EF0B7FB00203C
:1008F00084F847000F2D00D30E25E5622086608620
:10090000201DFFF71FFD04F11800FFF71BFDC5F1C7
:100910000F012461A1615246594638466462FFF7CF
:100920004DFD2060B8F1000F01D0C8F80040FFF77E
:100930006FFDFB4D6868401C68602868DFF8E48341
:1009400040B1686968B331E02046FFF7E3FC4FF03F
:10095000FF3449E02C606868012827D15FF0000768
:1009600007EB870108EB8100FFF7E1FC7F1C0F2FED
:10097000F6D3ED48FFF7DBFCEB481430FFF7D7FC6C
:10098000E9482830FFF7D3FCE7483C30FFF7CFFCBD
:10099000E5485030FFF7CBFCE34828631430686328
:1009A00004E02868C06AB04200D82C60E06AE968B8
:1009B000884200D9E860A96A491CA962296988426D
:1009C00000D9286100EB800108EB8100211DFFF7B1
:1009D000BCFC0124FFF724FD686928B12868C06ABF
:1009E000B04201D2FFF70EFD2046BDE8F09F2DE991
:1009F000F041CB4CA06920B1E069401CE061BDE84A
:100A0000F081A068401CA060A0684FF0FF3570B96D
:100A1000206B616B21636063606A401C6062206BC5
:100A20000068A8B1206BC068C0684068E062A06838
:100A3000E16A8842E3D3BB4F206B006850B1206B62
:100A4000C068C668A1687068814205D2E062D6E7D6
:100A5000E562ECE7E562D2E7301DFFF79CFCB06A87
:100A600018B106F11800FFF796FCF06A2169884278
:100A700000D9206100EB800007EB8000311DFFF7FB
:100A800064FCD9E72DE9F0470026FFF7C1FCA44C30
:100A9000A069401EA061A069A8BB606898B3DFF898
:100AA0008882002508F12808DFF878921AE0C068EB
:100AB000C76807F11800FFF76EFC381DFFF76BFCE5
:100AC000F86A2169884200D9206100EB800109EBB6
:100AD0008100391DFFF739FCF86A2168C96A88422C
:100AE00000D30125D8F8001040460029DFD1E06985
:100AF00028B909E0FFF77BFFE069401EE061E0698B
:100B00000028F7D105E009E0012D02D0206A012874
:100B100004D1002001262062FFF774FCFFF780FC5F
:100B20003046BDE8F08770B57D4C054620684560CD
:100B3000A0682168854201F1040104D2606BBDE820
:100B40007040FFF710BC206BFFF70DFCE06A854298
:100B500000D2E56270BD72488169491C81617047AD
:100B600010B50B460246FFF7F6FF10686C49C41833
:100B70008B68984205D9A0420ED98868844202D871
:100B80000AE0A042F9D914600868001DFFF703FCD1
:100B90002046FFF7C8FF00E01460FFF773FF00284E
:100BA00003D1BDE81040FFF72DBC10BD10B5020009
:100BB0000FD0FFF7D0FF5A48816800688C18001DDD
:100BC000FFF7E9FB2046FFF7AEFFFFF75BFF0028CA
:100BD00003D1BDE81040FFF715BC10BD10B50446A9
:100BE000FFF716FC0CB94E480468E46AFFF718FCDE
:100BF000204610BD2DE9F04100270D4606460F297D
:100C000000D30E25FFF704FCDFF81481D8F80000AC
:100C1000864201D1002608E03EB13446E06AA8428F
:100C200029D0854204D926B904E0D8F80040F5E778
:100C300006B90127C5F10F01E562A161394D00EB4D
:100C40008000616905EB8000814210D1201DFFF713
:100C5000A2FBE06AD8F810204146904200D9086112
:100C600000EB800005EB8000211DFFF76EFB012FDC
:100C700001D1FFF7C7FBBDE8F041FFF7D1BB284822
:100C80008269284922B1012101627047521E026126
:100C9000026902EB820251F82220002A0269F5D093
:100CA00002EB820201EB82014A68526801F10803FB
:100CB0004A609A4201D152684A60D1680160704727
:100CC00070B50646FFF7A4FB154D2868864201D192
:100CD000002619E0C6B13446201DFFF75CFBA06A70
:100CE00018B104F11800FFF756FB0F48211D3C30E6
:100CF000FFF72BFBFFF794FB002E0FD1686928B19B
:100D0000BDE87040FFF77EBB2C68E5E706483C3045
:100D100000686968884209D10020286070BD000021
:100D200004281000E42A1000102C1000BDE87040C8
:100D3000A5E7F04B426900219A4206D1806AA3F1EF
:100D40001402904201D000B901210846704770B5E5
:100D50000400E3D0E84D28688442DFD0FFF758FB59
:100D60002046FFF7E6FF012816D1201DFFF713FBF1
:100D7000E06A2969884200D92861E04900EB8000D7
:100D800001EB8000211DFFF7E0FAE06A2968C96ADB
:100D9000884201D3FFF736FBBDE87040FFF740BB48
:100DA000BCE770B500260446FFF7C3FF01281FD13A
:100DB000D14DA86920B1CF4804F11801143815E0CD
:100DC000E06A2968C96A884201D3012600E000264A
:100DD000201DFFF7E0FAE06A2969884200D92861FE
:100DE000C64900EB800001EB8000211DFFF7ADFA42
:100DF000304693E7C14C2068012801D9FFF702FB78
:100E00000DF064FCF7E71FB50024009401940294F0
:100E100023464022BAA1BC480394FFF73FFD0128B6
:100E200009D1FFF70DFAB448012141618460BDE8A2
:100E30001F40FFF7CFBA1FBD10B5FFF701FAAE494B
:100E400000204861BDE81040FFF7DBBA10B5FFF79E
:100E5000DFFAA9488468FFF7E3FA204610BD10B511
:100E6000FFF7EEF9A4488468FFF7F1F9204610BDBA
:100E7000A1484068704770B59F4D0C4629681831ED
:100E8000FFF771FA2868001DFFF785FA601C04D08F
:100E9000A8682044BDE8704045E62968BDE8704078
:100EA000091D9448FFF751BA70B5C068C46804F1D1
:100EB00018000646FFF76FFA8F4DA86918B18D48E4
:100EC000314614380DE0201DFFF765FAE06A296904
:100ED000884200D92861894900EB800001EB80003D
:100EE000211DFFF732FAE06A2968C96A884201D3F6
:100EF000012013E7002011E77F494A6A02608968F0
:100F00004160704770B50D460446FFF781FA2868C6
:100F1000411C14D0784A2168536A994203D0616811
:100F2000936899420DD9616893685B1A834208D22D
:100F30009268511A401A28602046FFF7DDFF00240E
:100F400000E00124FFF76CFA2046E7E66A49012039
:100F5000086270476848006870476748416919B17E
:100F6000806918B102207047002070470120704747
:100F700070B5614D064639B14FEA0104FFF748FAF2
:100F8000208E304211D101E02C68F7E7201DFFF7D9
:100F900002FAA06A18B104F11800FFF7FCF95548ED
:100FA000211D1430FFF7D1F96686FFF739FA686919
:100FB00018B1BDE87040FFF725BA6868012802D073
:100FC000BDE870405BE600202860A7E670B50546E6
:100FD00009B9494801680C46FFF71AFA608EA84320
:100FE0006086208EA8432086BDE87040FFF718BABF
:100FF000404B4269002114339A4206D1806AA3F122
:101000002802904201D000B901210846704770B50E
:1010100006460C002BD0384D2868844227D0FFF7B5
:10102000F7F9208E30432086608E30421BD0204658
:10103000FFF7DEFF012816D1201DFFF7ACF9E06AAB
:101040002969884200D928612C4900EB800001EB16
:101050008000211DFFF779F9E06A2968C96A884292
:1010600001D3FFF7CFF9BDE87040FFF7D9B955E6D6
:1010700070B5002605460C000DD0FFF7E1F8208E74
:1010800028432086608E284227D02046FFF7B0FFF5
:10109000012802D021E0304640E6174DA86920B172
:1010A000144804F11801143815E0E06A2968C96A87
:1010B000884201D3012600E00026201DFFF76BF9CE
:1010C000E06A2969884200D928610C4900EB800058
:1010D00001EB8000211DFFF738F9FFF7B8F8DAE7D8
:1010E000054810B50468FFF793F9248EFFF798F9C7
:1010F000204610BD4C2C100004281000E42A1000DB
:1011000049444C4500000000D50D0000F0B5844670
:10111000002004460C4F14E05CF824600323DD003B
:1011200046FA05F280EA02600825002802DA87EA1A
:10113000400000E040006D1E002DF6DC5B1EEED589
:10114000641C8C42E8DBF0BD1B0000800D4880472A
:101150000D480047FEE7FEE7FEE7FEE7FEE7FEE795
:10116000FEE7FEE7FEE7FEE7FEE7FEE7FEE7FEE757
:10117000FEE7FEE7FEE7FEE7FEE7FEE7FEE7FEE747
:10118000FEE7FEE799110000C50000004FF0005196
:1011900091F8210010F00C0008D0042808D008288D
:1011A00008D0782001F8280F087070470F20F9E761
:1011B0001E20F7E73C20F5E77047000010B508490E
:1011C000042001240023C1F8FC00064A14601360C7
:1011D000054BA0221A70C1F8FC01C86710BD0000C1
:1011E00084E000E0D403002202E400E010B5042013
:1011F00000F0D6F8052000F0D3F8062000F0D0F873
:10120000072000F0CDF8082000F0CAF87649002049
:10121000086075492031086074490880724A121DBF
:101220001060714A2432106088806F4A0832106062
:101230006D4A2832106008816B4A0C3210606A4A8D
:101240002C3210608881684A10321060664A303251
:10125000106008820621042000F0BAF8062105205B
:1012600000F0B6F80621084600F0B2F80621072083
:1012700000F0AEF80421082000F0AAF8042000F0E5
:101280009BF8052000F098F8062000F095F807205C
:1012900000F092F8082000F08FF8042000F074F8B5
:1012A000052000F071F8062000F06EF8072000F02D
:1012B0006BF8BDE81040082000F066B800EB800035
:1012C0004FF6FF7101EA4001474800220260C20662
:1012D0001186012101607047434900200860704772
:1012E00000EB80004FF6FF7101EA40013E4800220A
:1012F000001D02604FF0005291860121016070478D
:1013000039490020091D0860704700EB80004FF646
:10131000FF7101EA400134480022083002604FF0BA
:10132000005211870121016070472F4900200831C8
:101330000860704700EB80004FF6FF7101EA400142
:10134000294800220C3002604FF0005291870121A1
:1013500001607047244900200C310860704700EBA1
:1013600080004FF6FF7101EA40011F480022103053
:1013700002601E4A0E3211800121016070471A4935
:10138000002010310860704700F01F0201219140D9
:1013900040094FF0E02202EB8000C0F800117047D6
:1013A00000F01F020121914040094FF0E02202EBC2
:1013B0008000C0F88011704700F01F0201219140A9
:1013C00040094FF0E02202EB8000C0F88012704725
:1013D0004907090E002803DA00F00F00044A00E074
:1013E000044A815470470000240500223200002086
:1013F00014ED00E000E400E0594801210160002103
:101400000160704757480121016000210160704769
:1014100010B5002000F08BF8534800220260FFF75F
:10142000F1FFFFF7E9FF514802605149A020087021
:10143000002000F088F8BDE81040002000F06BB8F4
:101440004A4801211C38016000210160704710B535
:101450000446002000F06BF8434841490460012035
:101460000860002000F06FF8BDE81040002000F098
:1014700052B830B53C4889B00468002C11D0202106
:1014800068460DF0C4FD3B4800783A4B00216A469F
:101490005B1C02E0CD5C5554491C8142FADB1146CD
:1014A000A04709B030BD2E4901201C3908607047A3
:1014B0003048203000782F4921310978401A00F057
:1014C0003F0070472C4902780A7042784A7082784F
:1014D0008A70C278CA7002790A7142794A71827937
:1014E0008A71C079C8717047244800684178827851
:1014F0004FF00050437A0374214B1B7843744389A7
:101500001B0A83744389C37401754275C17981755F
:10151000017AC175704700F01F0201219140400916
:101520004FF0E02202EB8000C0F80011704700F09D
:101530001F020121914040094FF0E02202EB8000A0
:10154000C0F88011704700F01F020121914040094E
:101550004FF0E02202EB8000C0F8801270470000DC
:101560005C840022A00000223C2810007C040022A1
:1015700000E400E000040020000200204C281000DD
:10158000A428100010B5092000F02AF80A2000F065
:1015900027F8092000F030F80A2000F02DF8052186
:1015A000092000F035F805210A2000F031F81E4826
:1015B0007F21417081700171002100F848191B4999
:1015C000096891F8C810CA0709D08A0707D510F82A
:1015D0004A2FC1F38203012199408A43027010BD52
:1015E00000F01F020121914040094FF0E02202EB80
:1015F0008000C0F88011704700F01F020121914067
:1016000040094FF0E02202EB8000C0F880127047E2
:101610004907090E002803DA00F00F00044A00E031
:10162000044A815470470000480000204C281000F4
:1016300014ED00E000E400E0704710B5A44C072072
:1016400060700020207044F2C000608000BF00BFC6
:1016500000BF4CF2C000608000BF00BF00BF4CF272
:10166000E00060800920FEF7FDFD44F2E0006080AC
:1016700000BF00BF00BF4FF48040608010BDF0B5D8
:1016800000252E464FF00054E02716E0883401F084
:101690003F0160702170678000BF00BF00BFD4F8B9
:1016A00008C043F825C06680883C00BF6D1C521EF0
:1016B000491C3F2901D9401CC0B2002AE6DCF0BD1C
:1016C0002DE9F047824C0026A41C05462680DFF851
:1016D00004920121C9F880104FF4C058A4F800808A
:1016E00000BF00BF00BF00BF00BF4FF4805727807E
:1016F0003520FEF7B7FD2680FFF79FFF00F0A9F821
:101700005C2000F0B7F82B46012202210720FFF7EA
:10171000B6FF2B1D012203210620FFF7B0FF05F1C4
:101720000803012204210520FFF7A9FF05F10C039E
:10173000012203210720FFF7A2FF05F11003012278
:1017400004210720FFF79BFF00F083F8FFF775FFE8
:10175000278000BF00BF00BF00BF00BF00BF00BFA9
:1017600000BF00BF00BFA4F8008000BF00BF00BFE3
:1017700000BF00BF4FF440602080C9F88060BDE822
:10178000F0872DE9F0439946079B002603B1802698
:101790000023504C1F4665044FF001081DE000BFB8
:1017A00085F8890001F03F0C4CEA060C85F888C0EA
:1017B00059F823C0C5F88CC0C4F8B080C4F8B07024
:1017C000491CC9B2402902D3401CC0B20021D4F840
:1017D000C0C0BCF1000FFAD15B1C9342E0DBBDE856
:1017E000F0834FF0005282F88900002319B1802065
:1017F00082F8880001E082F8883036480121C0F87C
:10180000AC10C0F8AC3000BFD0F8C0100029FBD13C
:10181000704738B50C4605460021F820FFF7E1FF78
:101820000020014600902B462246F820FFF7A9FF32
:1018300038BD38B50C46054601210020FFF7D1FF21
:101840000120002100902B4622460846FFF799FF11
:1018500038BD10B51E4C4FF48040A41C20800420DD
:10186000FEF700FD0020208000BF00BF00BF00BFCA
:1018700000BF10BD70B5164C2126A41C268000BFE9
:1018800000BF00BF00BF00BF40F02105258000BFA2
:1018900000BF00BF00BF00BF44F221010843208009
:1018A0000420FEF7DFFC258000BF00BF00BF00BFA3
:1018B00000BF268000BF00BF00BF00BF00BF0020E8
:1018C000208000BF00BF00BF00BF00BF70BD000090
:1018D0008800002000100022F8B5FD4C0026354697
:1018E00026700120A66000F050FC0E2000F04DFC98
:1018F0000D2000F04AFC0C2000F047FC032000F013
:1019000044FC012000F04DFC0E2000F04AFC0D20AC
:1019100000F047FC0C2000F044FC032000F041FCE8
:1019200000F074FD6A460221EA4800F0E0FEEA4950
:101930009DF8010008709DF80000422800D00326A1
:101940000521012000F039FC05210E2000F035FCB6
:1019500005210D2000F031FC05210C2000F02DFCAC
:101960000621032000F029FC012000F002FC0E20DB
:1019700000F0FFFB0D2000F0FCFB032000F0F9FB62
:10198000A57065703046F8BD70B5D14BD888C0F3EE
:101990008001C0F34016C0F300247140C0F3C022A0
:1019A0006140C0F3803551406940400840EAC13091
:1019B000D88070BD38B520F040400D4600901446E8
:1019C0000421684601F04EFAC4494978C90602D597
:1019D000062D00D1401C0099616484F8420038BD96
:1019E000906470472DE9F047BD4D0646BB4C286812
:1019F00090F83404800718D5607840F0800060705B
:101A0000FFF7C2FF296800F00700084490F835048A
:101A100084F83100FFF7B8FF2968C0F302100844CA
:101A200090F83504800084F83000002084F83A00F3
:101A3000AC484FF0E908C0F30E074FF00109042E3F
:101A400006D0032E1AD0022E37D0052E4CD072E0CD
:101A5000A24A3146606AFFF7ADFFA06AA064A7877B
:101A6000607880060028286890F88B0701DA40F03B
:101A7000060084F8410084F83E805CE0974A3146D5
:101A8000606AFFF797FFA06AA0649448042124309D
:101A900001F0E8F9934901EB8000C0F30E00A08744
:101AA000607880060028286890F88B0701DA40F0FB
:101AB000060084F84100ED2013E0884A3146606A50
:101AC000FFF778FFA06AA064A787607880060028E7
:101AD000286890F88B0701DA40F0060084F841008E
:101AE000E52084F83E0026E06078800623D528684B
:101AF000243400F2C930794A0178A173C178217485
:101B00004178E1748078207584F816903146206819
:101B1000FFF750FF7348C830C0F30E0020832868D9
:101B200090F88B0720F0060040F00200607784F800
:101B30001A80A4F12404286890F87A17C90708D0FD
:101B40006949C1F8009014F8400F40F0030020707C
:101B500008E0617890F8BA07890701D520F0030002
:101B600084F840005A484670BDE8F0475B4800F0F2
:101B7000EFBC2DE9F047594C4FF00009584E84F85E
:101B80003A90E123054684F83E303068DFF860C1C2
:101B90004F4F90F8881784F83F1090F87A175FEA53
:101BA000C1785249C1F30E022146497801D0012D76
:101BB00002D0062D1FD03AE0A37CFB7039710A23B6
:101BC000A37441F001016170A28790F8AD279CF8E1
:101BD000003002F0F00203F00F031A43227690F86F
:101BE000B4076076C80602D5F12084F83E003B4A6F
:101BF0002946012017E0A28790F8AD279CF800C085
:101C000002F0F0020CF00F0C42EA0C02227690F87F
:101C1000B4076076C80603D543F0100084F83E0090
:101C20002E4A2946A068FFF7C5FEE068A0646078E8
:101C3000410794F83F1002D521F0020105E0326817
:101C400092F8882702F00202114384F83F10C1077E
:101C500005D094F83E1041F0020184F83E1031683E
:101C600091F87A27D20716D0062D04D0072D02D07E
:101C7000012D05D017E014F8400F20F0030008E014
:101C80001949C1F8009014F8400F20F0030000F14A
:101C90000200207007E0800791F8BA0701D520F014
:101CA000030084F840007D70BDE8F0470B4800F069
:101CB0000BBC06281ED007281CD001281AD00428E7
:101CC00005D0032803D0052801D0022813D189E6C6
:101CD0004028100004100020A4281000742C1000CC
:101CE0004C28100080840120280A00220080012056
:101CF000F60710003DE770472DE9F843F94D81469E
:101D0000012901D1002068716C79F84F641CF64EEE
:101D1000A7F124080FE0306890F87A07C00702D0D6
:101D200057F8242001E058F8242069464846904797
:101D3000012805D0641C082CEDD90020BDE8F883EB
:101D40006C719DF80000F9E770B5017800292CD07E
:101D500001464C22E64801F051FBE34E306890F812
:101D60007A07C0070AD0E248017811F0760F05D053
:101D70004278920702D441F080010170D94D687811
:101D8000002812D10121DA48FFF7B6FF04000CD079
:101D9000306890F81801000708D500F09AFC01207F
:101DA000A8700A2000F082FB6C7070BD00202870C3
:101DB0002046BDE870407CE70020704782689200B2
:101DC00005D00078000602D5012008707047002079
:101DD00070478268920006D00078C00703D00620C2
:101DE00008700120704700207047C269920006D039
:101DF0000078000703D507200870012070470020F5
:101E00007047426A920008D0826A32B10078800638
:101E100003D5022008700120704700207047426AF5
:101E2000920006D00078C00603D505200870012076
:101E3000704700207047426A920006D00078800701
:101E400003D5042008700120704700207047826A83
:101E500032B10078400703D5032008700120704795
:101E60000020704700200870012070471FB500F067
:101E70009AFA01208DF800009E48019000F59060CC
:101E80000290C83003909A484168684688471FBD51
:101E90002DE9F05FDFF850A2974E0025DAF8000038
:101EA0004FF0010B90F87017C9073AD090493531BF
:101EB0000A784F78B2FBF7F807B90127894CDFF8A9
:101EC00038926178042907D1407D2225420009EB30
:101ED00040018A4801F092FA6078032813D18448BF
:101EE00040250421243000F0BDFFDAF8002009EB82
:101EF0008006107D527D00EB420209EB4201420058
:101F00007F4801F07BFA20466478022C0AD0052C29
:101F10000BD0042C10D0032C0ED0022C0CD0052C8E
:101F20000AD096E06225744E06E0DAF80010724E90
:101F3000222591F87187C83681688946414575DC4C
:101F4000B9F1000F04D14FF4C8716E480DF05FF87D
:101F5000644A6C48042C03D0032C01D0022C0BD112
:101F6000002107E050F8213036F911C0634440F8F1
:101F70002130491CA942F5DB052C0BD1002107E0DB
:101F800050F8213036F911C0634440F82130491C23
:101F9000A942F5DB09F101019160414554DB0021C3
:101FA0009160042C03D0032C01D0022C38D1DAF834
:101FB00000105346D1F8744700212FE0D3F800C039
:101FC0009CF851815FEAC86819D5DFF83C8198F820
:101FD0000080B8F1010F12D192F80180B8F1040F1E
:101FE0000DD19CF815C08C4509DD8C4430F821805A
:101FF00030F82CC0C444DFF8148128F811C030F840
:1020000021C0DFF80C810CFB07FCACEB040C26F8BC
:1020100011C050F821C048F821C0491CA942CDDBAD
:102020005178052915D100213A4A0AE011E000BF94
:1020300030F8213026F8113050F8213042F82130A4
:10204000491CA942F4DB04E02046FFF732FE4FF0C2
:10205000000B5846BDE8F09F2DE9FF41244D6878FC
:10206000400603D4FFF714FF002816D01E4F1D4C66
:10207000386890F87A07C00708D06078012805D141
:10208000E078A8742079687007F006FA00211848F3
:10209000FFF732FE18B1FFF70CFEBDE8FF81002606
:1020A0006670386890F87A17C90701D01A490E602F
:1020B0001A4AA421117390F81801000702D5A670DE
:1020C00000F002FB207801282AD08DF80060094832
:1020D000019009480290C8300390696868468847B3
:1020E000DBE70000402810004C281000A8F3000097
:1020F000742C10000080012080840120461A0120E9
:102100006A1A01209085012063281000B41D012067
:1021100020870120B0880120280A0022001000201A
:1021200002208DF80000D2E7294810B500684FF072
:10213000000290F818010107264806D58178012988
:1021400007D002290ED0032912D18270BDE81040B9
:102150008CE60221817000F0C1FABDE81040322007
:1021600000F0A4B9032181704078BDE81040A0E5DB
:1021700010BD00F01F020121914040094FF0E02204
:1021800002EB8000C0F80011704700F01F0201212F
:10219000914040094FF0E02202EB8000C0F880112E
:1021A000704700F01F020121914040094FF0E022EA
:1021B00002EB8000C0F8801270474907090E002822
:1021C00003DA00F00F00044A00E0044A815470472B
:1021D0004C2810004028100014ED00E000E400E05E
:1021E000F0B53A2500224FF480141146FE4B002032
:1021F000A65CC718521C401C87F860600C28F7DBEF
:1022000001F03F0040F0800083F83500491CA942EE
:10221000EDDBF0BD2DE9F0430024F34E8146254669
:10222000274600209C4206DA00EB060819F804C095
:1022300088F860C003E000EB060C8CF86070641C4A
:10224000401C0C28EEDB501900F03F00084340F022
:10225000800086F835006D1C032DE2DBBDE8F083BD
:1022600000B514233A220021E048FFF7D3FFDF48EE
:1022700020233D22002114305DF804EBCAE7DC483E
:102280000168D94801F29971183011F8122C00F840
:10229000112C11F8112C00F8102C11F8102C00F84A
:1022A0000F2C11F80F2C00F80E2C11F80E2C00F842
:1022B0000D2C0A7842704A7882708A78C270CA7887
:1022C00002710A7942714A7982718A79C271CA7936
:1022D00002720A7A42724A7A82728A7AC272C54A53
:1022E000127802730A7B42734A7B82738A7BC273C1
:1022F000CA7B0274BF4A521C127842744A7C8274B0
:102300008A7CC274CA7C0275BA4B0A7DDB1E02F05D
:10231000F0021B7803F00F031A4342754A7D827561
:102320008A7DC275CA7D02760A7E4276B14A921EC5
:1023300012788276AF4A521E1278C276CA7E02772F
:102340004A7F82778A7FC277CA7F80F8202091F8FF
:10235000202080F8212091F8212080F8222091F877
:10236000222080F8232091F8232080F8242091F85F
:10237000242080F8252091F8252080F8262091F847
:10238000262080F8272091F82F209B490A701E22D2
:102390000270332048740B20887470479748016896
:1023A0000029FCD1704796480022026094481C38EE
:1023B00002609448026101210161826081600260D3
:1023C000016002608D49A0F574700B68002BFCD190
:1023D00085490B7B43F020030B730B7B23F04003F9
:1023E0000B730B7B23F080030B730B7B23F0200319
:1023F0000B73C0F8D823C0F8E023834802707047FD
:102400007E48183001680029FCD1704730B57D48FE
:102410000024743004607B48803004607948C460D4
:102420000121C160C460046001600460724D20201D
:10243000AD1D287068706C49593D0873A42008735D
:102440006E48183001680029FCD1FFF7ACFFFFF798
:1024500016FFFFF705FFFFF7C3FE6C4804606B48EB
:1024600020300460AC8530BD5F49426C4A73130A6A
:102470008B73130CCB73130E0B7492FAA2F2B2FA95
:1024800082F24A7490F842208A74806CC874020AFE
:102490000A75020C4A75020E8A75820F81F8402077
:1024A00090FAA0F0B0FA80F0C87570475749002242
:1024B0000A600A0690850120086070474F48001F97
:1024C00001680129FCD1704710B50446FFF7CCFF25
:1024D0004948A18F401C0180434994F8402019319C
:1024E00081F82120424A126802F2997253784B70A7
:1024F00093788B70237CCB70238A1B0A0B71A37C8F
:102500008B77E37C8B74637D4B77237D00F8013CF4
:10251000A37DCB77E37DCB74237E0B7512780A7095
:1025200094F83E20427394F83F20543801F8112C5F
:10253000627ECA76314A1939121F1368012BFCD109
:1025400090F861000873BDE8104041F28830ADE7B3
:1025500070B50446FFF788FF4FF00053A08FA3F833
:1025600054002348016891F87A07C2071E4854D0E6
:102570006578B1F87D272D0691F8AA5709D594F80A
:102580003160354480F82A5094F830502A4492B291
:1025900001E080F82A508276120AC276193014F8C7
:1025A0002C2FC2712288120A0272A27802736288EA
:1025B000120A4273A2798277E27983F85320E27A91
:1025C000C277227B4275627BC275A27C83F8612050
:1025D000627D00F80E2C91F8992722F0070200F88E
:1025E0001929A27B2C3C13E000100020B802100037
:1025F0004C281000F907100053000020040B0022A3
:102600001C0C0022D00300224128100020050022CB
:10261000D20708D091F8CE1707E091F89A27827672
:1026200091F89B27B9E794F8341080F83610504998
:102630000A68012AFCD194F8401080F83A1093F807
:1026400061100173BDE8704041F288302EE74949BE
:10265000494B0A6892F8892702700A68B2F89E27E7
:10266000428009681B7801F2A27103F00F03CA7A55
:1026700002F0F0021A4302710A88C280B1F8052004
:1026800002814A7B8272CA7BC272897C0173704765
:102690003A49027801F80C2C82784A724288120A70
:1026A0008A7202790A7682794A73C288120A8A7318
:1026B000027A8A740289120ACA74827A8A76C27A83
:1026C0000A77007BC87770472C49042015390873B6
:1026D00070472A4920201539087370472749C020C0
:1026E000153908737047264900200860704770B597
:1026F0001F4C1C342368002BFCD11D4603E0C61878
:102700005B1C86F880508B42F9D32368002BFCD1E8
:1027100002E0C45CD4545B1C8B42FAD370BD10B58C
:10272000002000F004FF16490020086015480078DA
:10273000002810D00E48001D01680029FCD10F4868
:102740001538C078400602D50F4901200870BDE851
:102750001040FFF781BC10BD10B5002000F0E7FE6F
:10276000074900200860BDE81040FFF7DDBC00000D
:10277000000B00224C281000F60710001510002056
:10278000200500224128100040281000FEE70446E2
:10279000012006F0B1FF00210F20226806F0C1FFE2
:1027A00001210F20626806F0BCFF02210F20A26801
:1027B00006F0B7FF03210F20E26806F0B2FF0C21FC
:1027C0000F20226906F0ADFF0E210F20626906F08E
:1027D000A8FF0F210846A26906F0A3FF20210F20C1
:1027E000E26906F09EFF3948026821210F2006F0B9
:1027F00098FF36481038026822210F2006F091FF1A
:1028000032480C38026823210F2006F08AFF2F4837
:102810000838026824210F2006F083FF2B48001D92
:10282000026825210F2006F07CFF28483438026812
:1028300026210F2006F075FF24481438026827214E
:102840000F2006F06EFF224800683021C06AC0F1F8
:1028500006020F2006F065FFFEE710B5012805D03F
:10286000022805D0032809D0032102E0012100E05D
:102870000221BDE81040032006F03EBF00210320E6
:1028800006F03AFFFEE710B504460146042006F0C4
:1028900033FF012C00D1FEE710BD0146082006F0F1
:1028A0002BBF0146062006F027BF10B5044601469F
:1028B000072006F021FF24B1012C03D0022C02D105
:1028C000FEE7FEE7FEE710BD0220EEE738ED00E090
:1028D0000428100010B5002000F029FEBDE81040CB
:1028E000FDF776BC704710B5002000F020FEBDE873
:1028F0001040FDF787BCFDF79BBD1A4810B5016875
:1029000021F004010160002000F011FEBDE810403C
:10291000FEF7AFBD70470CF04EBA10B5002000F0C6
:1029200006FEBDE8104006F098BD10B5002000F08E
:10293000FEFDBDE8104007F01AB910B5002000F008
:10294000F6FD0948006890F82901800703D5BDE825
:10295000104006F096BD10BD704770477047704735
:102960007047704710ED00E04C28100010B5422170
:1029700090480CF02AFB8F488F49904A0180428092
:102980008F4981808F4BC3808F4C04818F4C448151
:102990008F4C84818F4CC4818F4C04828F4C448235
:1029A0008F4C84828F4CC4828F4C04838F4C448321
:1029B0008F4C84838F4CC4838F4C04848F4C44840D
:1029C0008F4C84848F4CC4848F4C0485C38742878A
:1029D00081878E49A0F840108D4801688B48B1F876
:1029E0009C274280B1F8A027C280B1F8A5170181C9
:1029F00010BDF0B585B0FF22142168460CF0DDFA59
:102A00006846FEF75DFE039803250127072645F279
:102A1000AA54A04202D00498A04239D1DDE90001B5
:102A2000884206D00299884203D00198884208D192
:102A300000900498A0420FD10098000E012804D005
:102A400006E00020FFF72DFF0FE00098C0F30137EC
:102A50000098C0F3032602E00120FFF722FF03984D
:102A6000A04213D1009800F007056A49887920F048
:102A7000F30207F0030040EA06101043887166482D
:102A8000017865F30201017005B0F0BD0220D9E7BD
:102A90000120FFF706FFF9E72DE9F0414FF000565E
:102AA0003F2086F82100FEF771FBFEF7B1FC584D80
:102AB00028680078A52802D00120FFF7E4FE5748D7
:102AC000006810B10020FFF7DEFE28684FF0000715
:102AD0004FF0010490F829118A074FF0085104D5EE
:102AE000C1F89873C1F8804301E0C1F8984390F8A9
:102AF00028114B4A01F00101116090F82811121DB4
:102B0000C1F34001116047490C60091F0C60091FA7
:102B10000C6090F8C800C1070AD0810708D5C0F33F
:102B20008200012804D116F8510F20F00700307000
:102B3000FEF782FDFEF75AFBFEF7CEFE032802D118
:102B40000020FFF78AFEFEF7CFFCFEF737FBFEF70B
:102B500019FDFFF74EFF286890F8290181073248D8
:102B600001D5046000E007600460BDE8F08110B5A5
:102B70004FF000514FF475704881FFF78DFFFFF75C
:102B8000F5FE2A493F2008602949002008602A48AC
:102B90002849016001F5AA6028490860FDF750FB4B
:102BA00000F04EF800F062F8FDF751FBFEF72BF94C
:102BB000012010BD000001200080012074A301202D
:102BC000F4A701204200012080840120E2190120A5
:102BD000061A0120DC1B0120001C01207C200120A2
:102BE000A0200120C2160120E6160120461A01206D
:102BF0006A1A01202C1D0120FC1D0120501D0120FE
:102C0000741D01207E190120A2190120FC3710003B
:102C10004C2810000010002020000020C8100022C6
:102C200088040022280A00227C040022AC1A012019
:102C3000A0281000C02C10007C2810008028100054
:102C400070B5454D002400210120FDF705FC45F835
:102C5000240020B1FDF7F4FC55F8240010B9002041
:102C6000FFF723FE641C072CEDDB70BD1FB53A484F
:102C7000012100240091001FCDE9010423464022D8
:102C800036A138480394FDF709FE012802D001203F
:102C9000FFF70BFE3048062100911838CDE90104FA
:102CA0000023402230A132480394FDF7F7FD0128AC
:102CB00002D00120FFF7F9FD2748052100911438C3
:102CC000CDE9010400234FF480722AA12C4803941B
:102CD000FDF7E4FD012802D00120FFF7E6FD1E48C4
:102CE000022100910838CDE901040023B42225A176
:102CF00026480394FDF7D2FD012802D00120FFF7FA
:102D0000D4FD1548042100911038CDE901040023B9
:102D10004FF4C8721EA121480394FDF7BFFD01289E
:102D200002D00120FFF7C1FD0B48032100910C38B0
:102D3000CDE9010400234FF4007219A11A4803944D
:102D4000FDF7ACFD012805D004B00120BDE810401E
:102D5000FFF7ABBD1FBD00002038100054736B5F40
:102D6000436D6400CDED000054736B5F52707400CE
:102D7000B59A000054736B5F5353797300000000E1
:102D80004D60000054736B5F53530000FB870000DD
:102D900054736B5F5363616E00000000C9930000C1
:102DA00054736B5F4D740000C3CE00002DE9F047F3
:102DB0009246012547F6F87256429946AC460024E1
:102DC000089F16E030F8143031F81480A8EB0303A4
:102DD0001BB29A4200DD1A469E4200DA1E46002BC4
:102DE00002DA4FF0000502E001DD4FF0000C04F1C3
:102DF0000104BC42E6DB55EA0C0306D0012D01D0EC
:102E00002DB108E0BCF1010F05D1002203E0BCF1B7
:102E1000010F00D1324600252C462B4611E000BFA1
:102E200030F8136031F813C01644ACEB060636B226
:102E30004E4505DAC9F1000C664501DD3544641CD8
:102E40005B1CBB42ECDB95FBF4F10A44002105E07E
:102E500030F8113013442AF81130491CB942F7DB1D
:102E6000BDE8F08770B5034600200246FE4C09E03D
:102E70009D5C521C05F00F0604EB1515A65D2D7820
:102E8000304428448A42F3DB70BD884200D30846B0
:102E90007047884200D808467047884200D30846E9
:102EA000904200D3104670472DE9F047D0F810C08B
:102EB0000568046A85FB0C12A1FB04124269436891
:102EC000914683FB02628269E246A6FB026776189E
:102ED000D0E9021781FB07C8C069ACFB00C81CEB36
:102EE000060682FB0A2CA2FB011280FB0902A0FB52
:102EF0000502401884FB0712A1FB03120818301AC0
:102F00004FEAE071ACE72DE9F04389B00446006870
:102F100000906068019020690290606803902069C9
:102F20000490A069059020690690A0690790E06967
:102F300008900D466846FFF7B7FF8046A0680190ED
:102F4000E06804906069079089466846FFF7ACFF27
:102F5000064660680190A068029020690490E068CD
:102F60000590A0690790606908900F466846FFF7D2
:102F70009BFFC5E90401C5E90267C5E9008909B0FD
:102F8000BDE8F0832DE9FF4F4FF0000A89B09B4662
:102F90005746D146D04656465546544620216846A7
:102FA0000CF035F80B9810E00999824431F91020A3
:102FB00000FB00F102FB01668844414302FB0099DB
:102FC00001FB004417440D44401C5845ECDD0B99AF
:102FD000ABEB0100401CCDE9000ACDE90654CDE978
:102FE0000486CDE9027968460A99FFF78CFF0DB097
:102FF000BDE8F08F9D480068017B427B41EA0221D9
:10300000827BC07B41EA024141EA00604000704798
:10301000964800680179427941EA02218279C079B3
:1030200041EA024141EA0060704700B5FFF7E2FF64
:103030004008400000BDF8B50E460446FFF7F5FF16
:103040000090FFF7D7FF054604216846FFF70AFF07
:1030500004EB400700240099204623464FF0010C62
:103060000CFA03F20A4207D02A4204D037F81020A3
:1030700026F81420641C401C5B1C122BF0DBF8BDEE
:10308000C6E7FCB50E460746FFF7CFFF0190FFF7F6
:10309000BFFF0090FFF7BCFF0546042101A8FFF722
:1030A000E1FE044604216846FFF7DCFE00EB440025
:1030B00007EB400700200099044603464FF0010C3F
:1030C0000CFA03F20A4207D02A4204D037F814203F
:1030D00026F81020401C641C5B1C202BF0DBFCBD80
:1030E00000B5FFF787FF40F0010000BD90E7604AA0
:1030F000520102EB810101F108510860704701EBB8
:103100004010801001EB41014900182291FBF2F3BD
:1031100000EB400000F5801002FB1311006820F066
:103120007F40C84000F03F00704701EB4010801026
:1031300010B501EB41014900182391FBF3F403FBA7
:10314000141300EB400000F580103F2401689C4000
:10315000A1439A400A430270110A4170110C817018
:1031600010BD2DE9F14FFFF7BBFF8046FFF750FF81
:1031700000258446A946AB46AA462F46012000FA00
:1031800007F111EA0C0F36D00024012D32DB37494C
:103190000968097D491EA9422CDD00260120B040A6
:1031A00010EA080F23D039463046FFF7A8FFE4B1F4
:1031B000022C1ADB2D4909684A7D521EA24214DDF9
:1031C000484512D0097D009A04FB015332F91330AF
:1031D00004F1010202FB0152009931F91210591A4F
:1031E00000D549428B440AF1010A8146641C761CD1
:1031F0001D2ED3DB6D1C7F1C202FBFDB9BFBFAF049
:10320000BDE8F88F2DE9F74F184B4FF0000B91B048
:1032100018681646DA4690F8770000F00F08C8F1F3
:103220001009FFF75DFF1090FFF7F2FE0025AC4696
:1032300003950F9001200F9A00FA0CF111427DD0F6
:10324000002106910C460591012D78DB074909689C
:10325000097D491EA94272DD002701201099B8405E
:10326000084270D0614605E0CCF300004C28100005
:10327000AC1A01203846FFF742FF0146F4B3022C96
:103280005BDBD6480068427D521EA24255DD039AA0
:10329000914290F87A201DD1007DBA4204FB005380
:1032A000119A0BDD32F91320631C03FB00531198B4
:1032B00030F91300101A23E0404223E032F91330B2
:1032C000621C02FB0052119830F91200181A2FE00C
:1032D00040422FE0BA4219DD007D119A04FB0053F1
:1032E00032F9132004F1010303FB0053119830F964
:1032F0001300101A00D54042129A00E01DE0801A17
:103300000028D9DB069A1044069016E0027D119839
:1033100004FB025330F9133004F1010000FB0252A8
:10332000119830F91200181A00D54042129A801AEA
:103330000028CDDB059A1044059002E01AE018E061
:1033400001E0641C03917F1C1D2F86DB022D0CDB2A
:1033500006990D98401A01D5C0F1000083440599E3
:103360000C98401A00D54042824406980D9005986A
:103370000C906D1C9948006890F87B00604518DD42
:10338000316801FB08F109FB0B104FEAE07100EB1B
:1033900011704FEA20103060B06800FB08F009FBA4
:1033A0000A004FEAE07100EB11704FEA2010B060A4
:1033B0001CE003D14FF0000BDA4617E0706800FB09
:1033C00008F009FB0B004FEAE07100EB11704FEAC7
:1033D00020107060F26802FB08F209FB0A204FEA35
:1033E000E07100EB11704FEA2010F0600CF1010C5D
:1033F000BCF1200FFFF61EAF14B0F9E504E000BFEA
:1034000011F8013B00F8013B521EF9D270477CB520
:103410000D460446FFF709FE0090FFF7F9FD019005
:1034200000980421400800906846FFF71BFD0646FF
:10343000042101A8FFF716FD3044820021462846EA
:10344000FFF7DCFF7CBD0B46644909684A7D097DB6
:10345000521C4A43014652001846CFE770B5044655
:103460004C210BF0D4FD00235C4D23706370286861
:1034700090F8CD0700F0010043EA40106070296821
:1034800091F88C17C1F3001140EA0110607063607D
:10349000FFF726FEA060FFF7BBFD514EE06070888D
:1034A0002082286800F2AC70C17AA174017F217576
:1034B000817A6175017BA1750178E1754949407890
:1034C000097800F0F00001F00F0108432076FFF7C3
:1034D000ACFD6062FFF79CFDA062F088A085E085EE
:1034E000286800F2AD70017F84F83210817F84F883
:1034F0003310C17F84F8341010F83B1C84F8351069
:10350000012184F83610417F84F83710417884F81F
:103510003810C17884F8391010F8021CE174407B2F
:1035200084F8400084F8313084F8303070BD10B534
:103530000446FCF785FE4FF00051012C09D12748C5
:10354000006890F81801400703D52748007805283F
:103550000CD091F821003F2804D03F2081F82100B1
:10356000FDF714FEBDE81040FCF771BE91F8210094
:103570003128F7D03120F1E7184B10B51A68947E46
:10358000640704D5D28A0468A2EB040202601A68B8
:10359000947EA40703D5128B0C68121B0A60026884
:1035A000002A00DA002202601C68E48AA24200DDE0
:1035B000224602600A68002A00DA00220A601C68BB
:1035C000248BA24200DD22460A601B689B7EDB073B
:1035D00002D003680B60026010BD00004C28100090
:1035E000FC371000F60710009428100010B50146B3
:1035F0001022FA48FFF702FFF94841684FF40060D3
:10360000FDF736FD002803D0BDE81040FCF7FABEF8
:1036100010BD70B594B006460D4614466846FFF7D7
:103620001DFF14F0050F02D001208DF8000040F6B8
:10363000E250044221D0EB48026892F85001C007E2
:103640000ED192F8020258B992F8E002C00707D1F1
:1036500092F86002C00703D192F8B001C0070CD005
:1036600092F87A07C0079DF8000002D040F00600EB
:1036700001E040F020008DF80000ADF82E50ADF8CC
:103680001060ADF82C50AFF29B00D44D03244FF4E2
:10369000006601906846FEF757FB00213046FDF7B3
:1036A00067FC00213046FDF791FC2878002804D003
:1036B000FFF7D3F8641E002CECDC14B070BD10B51D
:1036C0000446C00709D04FF49061C7480BF07DFC59
:1036D0004FF49051C5480BF078FC14F0420F07D01E
:1036E0002421C3480BF071FC4021C2480BF06DFC53
:1036F000A0060AD59021C0480BF067FCBDE8104039
:103700004FF48071BD480BF060BC10BD2DE9F04155
:103710000746B448006890F82010490710D590F883
:1037200021000125C0F3011085400024B44E05E0BE
:10373000F18870883A46FFF76CFF641CAC42F7DBF7
:10374000BDE8F0812DE9FF4F83B08046FFF7CEFC46
:103750000190FFF7C5FC009004216846FFF782FB4B
:103760000446042101A8FFF77DFB44439D48012640
:103770004FF42A61006890F8210000F00707BE406E
:10378000A0480BF044FC0025DFF87892DFF870A227
:10379000DFF848B21DE000BFBAF8061042460498B0
:1037A000FFF737FF18F0050F12D09749DBF8040038
:1037B00005F0A3F9944A0020494607E051F820306B
:1037C00032F910C0634441F82030401CA042F5DBC0
:1037D0006D1CB542E0DB18F0050F0CD00020494607
:1037E00007E000BF51F82020059B3A4123F8102044
:1037F000401CA042F6DB07B0BDE8F08F2DE9F74F83
:10380000784C84B092462068B0F83B100391B0F831
:103810003D10029190F85011C9070ED190F8021294
:1038200059B990F8E012C90707D190F86012C9079A
:1038300003D190F8B001C0077CD0FFF7F6FB0090F1
:10384000FFF71EFC019004216846FFF70BFB814641
:10385000042101A8FFF706FB484445002068A04664
:10386000264690F82100012400F00707BC40A9007B
:1038700064480BF0CCFB316891F8F002C20706D027
:10388000800704D491F8F102044405F0DAFD002623
:10389000C34630E05A48DDE904214088FFF7B9FE0D
:1038A000DBF800004D4990F8CD07D1F80880C0073B
:1038B00004D04246C968104605F0A6F8DBF80000BF
:1038C00090F8F002C10708D0800706D44F4940465F
:1038D00005F00AF870B1DFF834810020494907E0AB
:1038E00051F8203038F910201A4441F82020401CAB
:1038F000A842F5DB761CA642CCDB424C00215A469E
:103900001EE04048136850F8210093F8F06240FA36
:1039100007F05FEAC67C08D0B60706D593F8F162D7
:10392000761C4643B3F8F202301AB1EB490F02DAC3
:10393000039B01E01DE0029B184424F81100491C80
:10394000A942DEDB106890F85011C90703D190F846
:10395000B001C0070DD0049810F0220F09D0204606
:10396000DAF80010FFF767FB2046DAF80410FFF7DB
:1039700088FB40E72DE9F0479A461A4B894600211B
:1039800001251D4E1C681AE032F8113030F8117014
:10399000DB1B1FB200230AE003EBC30C06EB8C0C0D
:1039A0005B1C3CF811801BB2B8442CF8118094F8D1
:1039B00080C305EB9C1C9C45EEDC491C09B2637D71
:1039C0008B42E1DC00200D4A33E000BF3AF81030B2
:1039D00039F81010591A0BB2002122E0A03810005B
:1039E000083810004C28100042000120C2040120B9
:1039F000C2160120E61601208A1701203E18012078
:103A0000FC371000C02C100040890120C08D01201F
:103A100002EB8116491C36F8107009B21F4426F8D3
:103A2000107094F8806305EB96168E42F0DC401C13
:103A300000B2217D8142C9DCBDE8F0872DE9F0416B
:103A4000064610F00C0F17D0FE4D286890F8D000F5
:103A5000400711D5FC4F00242868002300EB4400E8
:103A6000B0F8021104EBC40007EBC0123046FFF7B8
:103A700069FE641C042CEFDB62E62DE9F047F14C93
:103A8000824686B0216800F4126091F880134907DD
:103A90003AD5002838D00025DFF8B083DFF8B0939E
:103AA000012615E000EB45001421B0F8B27368461A
:103AB0000BF0ADFA05EBC50108EB8100009009EBB6
:103AC000851001906A4639465046FFF797FE6D1CF7
:103AD000206890F8801306EB9111A942E2DC90F87F
:103AE0005011C90710D090F8911109060CD5407DEE
:103AF000D6494200D748FFF781FC2068D449007DB1
:103B00004200D548FFF77AFC06B095E7F0B540F2E1
:103B1000824185B010EA010532D000F41263C94831
:103B2000CE4A00240068D688012190F8802301EB5A
:103B3000921106E000EB4407B7F8B273BE4202D020
:103B4000641CA142F6DCA1421CDD51071AD5CBB1A1
:103B500090F85011C90703D190F8B001C0070FD0F9
:103B6000BA4904EBC40001EB80012422BC48FFF7F2
:103B700045FCB748402200EB8411BA48FFF73EFCF1
:103B800005B0F0BD142168460BF041FAB44800902E
:103B9000B44801906A4631462846FFF72FFEEFE70A
:103BA0002DE9F047A74C0125DFF8BC92206800F210
:103BB00056400188828811444F084188C0880844D3
:103BC00046080020014618E039F91130B2F8528455
:103BD000434503DBB2F84E8443450DDDB2F84E2475
:103BE0000025934208DD4FEA4C029F499F48FFF7AA
:103BF00005FC21680120497D491C226892F815C006
:103C00008C45E1D80022DFF8689218E039F91230CB
:103C1000B1F85484434503DBB1F8508443450DDDCE
:103C2000B1F8501400258B4208DD4FEA4C02904950
:103C30009048FFF7E3FB216801200A7D521C2168B0
:103C400091F814C09445E1D891F84924520701D560
:103C500001280AD0012D09D0242187480BF0B5F99D
:103C6000402186480BF0B1F90020E5E600207C4CAD
:103C7000814D024611E000BF34F91030B1F85AC44A
:103C8000634503DBB1F856C4634503DDFB1A25F831
:103C9000103001E025F81020401C4B7D8342EBD80A
:103CA0000020704D754C10E035F91030B1F85C749F
:103CB000BB4203DBB1F85874BB4203DDF31A24F8AE
:103CC000103001E024F81020401C0B7D8342EBD81B
:103CD000CAE72DE9F041804669480026374600785A
:103CE000800628D5002504E0012C02D14046FFF7CC
:103CF0000DFFFFF755FF0446012806D101F079F9C1
:103D000001266D1C032DEFDB17B1012E0CD00FE047
:103D10000120FEF7C2FD242157480BF056F940213F
:103D200056480BF052F906E056490878401C0870D6
:103D3000C22005F072FD434C01234F492068427DAB
:103D4000474804F0A5FB206801234C49027DBDE8EB
:103D5000F041444804F09CBBF0B53A480068437D0C
:103D6000017DB0F84C44B0F84A6447484B4300EB3F
:103D7000410500210A4608460AE000BF35F91070E7
:103D8000A74201DD491C02E0B74200DA521C401C88
:103D90009842F3DB914201DD0120F0BD0020F0BD2F
:103DA0002DE9F0418046394800252E4600788006EE
:103DB00023D50024294F0AE0012808D100F037FC60
:103DC000012579880023304A4046FFF7BBFCFFF706
:103DD000C3FF48B1641C032CEEDB012E04D0BDE808
:103DE000F0410020FEF759BDC12005F016FD012D60
:103DF00003D124490878401C0870A1E42DE9F04162
:103E0000234D002307465C1E224619462868FCF70E
:103E10005FFC002322461946E868FCF759FC17F0BE
:103E200040040AD024220E491A48FFF7E7FA19483D
:103E300040220C492430FFF7E1FA3846FFF73FFCF7
:103E400015482BE04C281000C20401208A170120DD
:103E50003E1801201A1801203E190120FC371000DD
:103E6000C2160120E6160120461A01202C1D012051
:103E70006A1A0120FC1D0120888E0120AC8E0120D1
:103E80005C281000A52810004200012058281000CE
:103E9000203810003C381000542810000178012907
:103EA00004D1002101703846FFF730FC3846FFF797
:103EB000C5FD3846FFF7E1FD17F0010606D08D4835
:103EC00000238D4A41883046FFF73CFCF0078B4EBB
:103ED00016D0306890F82000000709D58648FFF713
:103EE00040F98749874A086001468348FFF78AF905
:103EF000306890F84904C00702D03846FFF750FFF9
:103F00003846FFF703FE306890F84904800702D571
:103F10003846FFF7DEFE5CB1306890F8800340075A
:103F200006D57B49784B794AA1F12400FFF722FDA1
:103F30007849012008707849087005F077FA2868F8
:103F4000FCF77EFBE868BDE8F041FCF779BBF0B414
:103F50006A490022714C0B68B3F80211814214D2F5
:103F6000B3F80811814201D803220EE05FF001018D
:103F700003EB4105B5F80251A84201D10A4602E01F
:103F80000DD2A1F101028A420DD102EBC20004EB75
:103F9000C011F0BC4FF490625748FFF72FBA491C8C
:103FA0000429E5DBF1E703EB4103534DB3F80021AE
:103FB000B3F80231801A00029A1A90FBF2F301EB77
:103FC000C10100204FF4107604EBC11101EB400257
:103FD000A2F5906231F91040B2F90020A41A5C43B6
:103FE00002EB242225F81020401CB042EEDBF0BC8E
:103FF00070472DE9F04141490025494A0968494E79
:10400000B1F8B23383421AD291F880339C0901EBA4
:104010004407B7F8B27387420AD9012404EB93131B
:1040200013E000BF01EB4407B7F8B273B84201D107
:10403000254602E008D2A4F10105A5421CD191F861
:104040005001C00708D103E0641CA342EADCF6E794
:1040500091F8B001C0074CD005EBC50002EB800120
:1040600024222A48FFF7CAF906EB8511BDE8F04182
:1040700040222548FFF7C2B901EB4405B5F8B0333B
:10408000B5F8B253C01A0002EB1A90FBF3F391F8A3
:104090005001C00703D191F8B001C00729D01B4DD2
:1040A00004EBC401002002EB810100BF01EB4002E0
:1040B00031F9107032F9242CBF1A5F4302EB27222A
:1040C00025F81020401C1228F0DB0F4D002006EBD5
:1040D000841100BF01EB400231F9104032F9402C4D
:1040E000A41A5C4302EB242225F81020401C20284F
:1040F000F0DBC1E4FC371000420001204C28100026
:104100008428100060371000E6160120C216012036
:1041100060381000622810008F281000C2040120AF
:104120008A1701203E1801202DE9FC5F0024A146DA
:10413000A646A3460226FE4A1268537D127D5B1EE8
:10414000951E2EE002FB06F701EB470C00EB47073C
:10415000BCF902C0B7F90270009702271EE000BF49
:1041600006FB0278CDF8048031F918A030F91880E8
:10417000CDF80480E2450BD0DDE9008CBCEB080CE7
:1041800001D5CCF1000C644409F1010C1FFA8CF943
:10419000DDF80480D4467F1CCDF80080BD42DFDA14
:1041A000761CB342CEDAB9F1000F01D0B4FBF9F4BA
:1041B000022639E002FB06F701EB470C00EB47074C
:1041C000BCF902C0B7F9027000974FF0020728E06F
:1041D00006FB027931F919A030F91990BAEB0C0CF1
:1041E00001D5CCF1000C0FFA8CFCDDF80080BCF19D
:1041F000000FA9EB080C06D0BCF1000F01DACCF1DE
:10420000000CACEB040CBCF1000F01DACCF1000C9B
:104210001FFA8CFCF44500D9E646D4467F1CCDF845
:104220000090BD42D4DA761CB342C3DA012635E0F1
:1042300006EB420731F917C030F9177000974FF0BD
:10424000030728E007FB026931F919A030F919903A
:10425000BAEB0C0C01D5CCF1000C0FFA8CFCDDF89C
:104260000080BCF1000FA9EB080C06D0BCF1000FD8
:1042700001DACCF1000CACEB040CBCF1000F01DA5C
:10428000CCF1000C1FFA8CFCDC4500D9E346D44687
:104290007F1CCDF80090BB42D4DA761CB542C7DA59
:1042A00002B05A467146BDE8F05F032005F0F8BA47
:1042B0000388934200D902800888904200D20A8085
:1042C0007047F0B587B00646002047F6FF71ADF89D
:1042D0000810ADF80400ADF81010ADF81400022776
:1042E000934C10E0012508E007FB005001A936F8C7
:1042F000102002A8FFF7DCFF6D1C2068007D411E26
:10430000A942F1DC7F1C2068407DB842EADC002530
:1043100012E0284405A936F8102004A8FFF7C8FFCA
:104320002068417D007D01FB005005A936F8102072
:1043300004A8FFF7BDFF6D1C2068007DA842E8DCE3
:10434000012514E0007D05A9684336F8102004A873
:10435000FFF7AEFF2068691C007D484306EB400074
:1043600005A930F8022C04A8FFF7A2FF6D1C2068F5
:10437000417D491CA942E5DCBDF80420BDF80810C8
:10438000012005F08DFABDF81420BDF810100220B0
:1043900005F086FA07B0F0BD70B50C460546FFF78C
:1043A00090FF21462846BDE87040BDE610B50146A5
:1043B00010226048FFF722F85F4841688020FCF730
:1043C00057FE002803D0BDE81040FCF71BB810BD15
:1043D00030B593B004466846FFF740F80021012C41
:1043E00002D0022C08D016E001208DF800008DF8D4
:1043F00015108DF814100EE04D48006890F87A07FB
:10440000C00701D0062000E020208DF800008DF8C4
:1044100034108DF833109DF80100AFF26F0140F0B9
:104420004C00444D01918DF8010003246846FDF7CE
:104430008BFC00218020FCF79BFD00218020FCF7F5
:10444000C5FD2878002804D0FEF707FA641E002C6A
:10445000ECDC13B030BD02461621012000FA01F356
:10446000134201D1491EF9D5491C884010437047B9
:104470002DE9F05FFEF734FE0546FEF737FE2C4CC3
:104480000746206890F88C07C00603D52846FFF73A
:10449000E2FF05464FEA55094FF4906127480AF0BC
:1044A00094FD4FF01D084FF0000A0120FFF790FF28
:1044B00020480026D0F804B01D480068047D34E090
:1044C000012000FA06F111EA090F2DD00025012084
:1044D000A840384225D029463046FEF710FE144940
:1044E000DFF858C009683CF91430B1F83421991A42
:1044F0003BF91430A3EB020200D54942002A00DA4E
:104500005242914204DD0E492CF8143021F8140077
:104510003F2805D2401CC2B229463046FEF705FEB0
:10452000641C6D1C202DD2DB761C4645C8DB09E0DF
:104530004C281000B03810000838100074A3012077
:10454000F4A70120FDF74CFE0AF1010ABAF1400F71
:10455000ABDB0120FFF73CFFF848DFF8E4B30025B0
:1045600000684FF0010A067D0AFA05F111EA090F09
:104570000FD000240AFA04F0384207D01BF81600C6
:104580002146C2B22846FEF7D0FD761C641C202CC2
:10459000F0DB6D1C4545E7DBFDF722FE0120FFF750
:1045A00017FFE848E6494068BDE8F05FF4E62DE90A
:1045B000F05FE24A116891F83001C407E2480378DD
:1045C00003F0F00514D0057000264B7D0C7DDFF85C
:1045D00074A35B1CB046914604FB03F7834601209D
:1045E000FFF7F6FE2046DAF80420D9F800100EE0B6
:1045F00091F83E1101F00F0129430170BDE8F09FD1
:1046000032F91030B1F832C16345F7DB401C874204
:10461000F6DC0F2EF2D2761CF6B245EA060108F15E
:1046200001088BF80010B8F1100FD8DBE6E710B5E1
:104630004FF42E714FF480100AF0E9FCFDF7D0FD25
:10464000FFF7B5FFFFF714FFBC4ABF481268401DD3
:10465000017892F8FB2701F0F00102F00F021143FC
:104660000170BDE81040012005F0D7B82DE9F043F6
:104670008DB000214FF6FF70ADF82C10DFF8CCC2E2
:10468000ADF82800ADF80400DFF8C082B04FDFF8C5
:10469000AC92ADF80810ADF81800ADF80C10ADF8FC
:1046A0001000ADF814100CF1140C0D460E46012448
:1046B000B96804FA06F0084213D0002D0ADBD9F8D5
:1046C0000000007D801EA84204DB1CF805200BA919
:1046D0000AA803E01CF8052002A901A8FFF7E8FDDD
:1046E0006D1C761C202EE3D300252E464FEA090CC4
:1046F000796804FA06F0084213D0002D0ADBDCF8D2
:104700000000407D801EA84204DB18F8052003A9A4
:1047100006A803E018F8052005A904A8FFF7C8FDBE
:104720006D1C761C202EE3D38748BDF82C20801CFE
:10473000BDF828100078024492B2ADF82C20BDF8E4
:10474000043001440344ADF80430BDF8083089B2A8
:104750001844ADF808007C48ADF82810401CBDF89E
:10476000183000780344ADF81830BDF80C3003441D
:10477000ADF80C30BDF810300344ADF81030BDF882
:1047800014301844ADF81400042005F089F8BDF881
:104790000C20BDF81810052005F082F8BDF808209F
:1047A000BDF80410062005F07BF8BDF81420BDF814
:1047B0001010072005F074F80DB0BDE8F0832DE966
:1047C000F04763485D4B002446694568D3F80030E4
:1047D0002246012140F6FF7901FA02F72F421FD04D
:1047E00036F91480B8F1000F05D0C84507D1076825
:1047F00047F0100712E0076847F020070EE0B3F813
:1048000036C1B3F84171E246BC44C44503DBAAEBB0
:104810000707474503DD076847F040070760641C4A
:10482000521C202AD8D300248769D0F80860224679
:1048300001FA02F535421DD037F914502DB14D451E
:1048400007D1056845F0100512E0056845F0200520
:104850000EE0B3F83AC1B3F843A10CEB0A08A8453F
:1048600003DBACEB0A0CAC4503DD056845F0400505
:104870000560641C521C202ADAD3BDE8F0872DE9BC
:10488000F05F334C0020314F666801460346012239
:1048900002FA03F5354203D0FD5C854200D9284673
:1048A0005B1C202BF4D3294ED4F808701436002357
:1048B00002FA03F53D4203D0F55C8D4200D929464A
:1048C0005B1C202BF4D3DFF880801C4D08F103081B
:1048D00008F1010988F8000089F800102A68A8F199
:1048E000020AA8F1010B92F87A37DE077ED09B0707
:1048F0007CD502F28B72537D947D157E03EB0423ED
:104900009CB2D37DD67E03EB05239DB2937E577F69
:1049100003EB06239EB2137F127803EB07239FB2AB
:10492000520617D5631900EB43009AF80020F319DB
:1049300010449BF8002001EB430118E04C281000C4
:10494000F4A70120B0381000F6071000B8021000DC
:10495000A82810006219520002EB40029AF80000E9
:104960001044F219520002EB41029BF8001011446E
:10497000FEF78FFAFE49096801F27B72B1F87B37C6
:10498000834201D2A1F87B0791F87A07400736D518
:1049900091F88B07400617D5600040426B4291F8B2
:1049A0007B1700EB430001449AF80000091A88F8CD
:1049B000001070004042794200EB41001178014440
:1049C0009BF80000081A38E09AF8000063191844B0
:1049D000B1F87B17404201EB4000C0F3470188F873
:1049E00000109BF80000F119084400E008E011886D
:1049F000404201EB4000C0F3470189F80010FDE59B
:104A0000DC4D9AF800209BF800302D6802440B44DE
:104A1000FF2645F080059A4209D2991A0844FF28DA
:104A200002D888F80000E9E588F800600AE09342BF
:104A3000E5D2D01A0844FF2802D889F80000DDE545
:104A400089F800602560D9E52DE9F84FDFF820935B
:104A5000C94DC948D9F800101435DFF818B391F8DA
:104A60003011044649064FF0010A7DD534210AF081
:104A7000CEFAFFF704FFFDF702FCFDF7F1FB04207F
:104A800003264FF0000800900220FFF7A1FCF0077A
:104A900029D04FF0000E724670464F464FEA0B0386
:104AA0000AFA00F1D3F804C011EA0C0F13D05969C7
:104AB000D7F800C031F91210BCF838C1614509DAE5
:104AC000215CDDF800C04FF0010E6144FF2900DDDC
:104AD000FF212154521C401C2028E1D3BEF1000FBD
:104AE00001D126F00106B00729D54FF0000E72461D
:104AF00070464F464FEA0B030AFA00F1D3F808C09C
:104B000011EA0C0F13D09969D7F800C031F91210CF
:104B1000BCF83CC1614509DA295CDDF800C04FF002
:104B2000010E6144FF2900DDFF212954521C401C65
:104B30002028E1D3BEF1000F01D126F0020656B1C4
:104B4000FFF79DFEFDF79BFBFDF78AFB08F10108CF
:104B5000B8F1640F98DB0326002000900220FFF7D5
:104B600037FCF00722D000E053E0002739463846F2
:104B7000CC465A460AFA00F3D2F8048013EA080F2A
:104B80000ED05369DCF8008033F91130B8F8388161
:104B9000434504DD235C13B101275B1E2354491CEC
:104BA000401C2028E6D30FB926F00106B00721D516
:104BB000002739463846CC464FEA0B020AFA00F382
:104BC000D2F8088013EA080F0ED09369DCF8008051
:104BD00033F91130B8F83C81434504DD2B5C13B147
:104BE00001275B1E2B54491C401C2028E6D30FB91B
:104BF00026F00206002E0AD0FFF741FEFDF73FFB2C
:104C0000FDF72EFB0098401C00906428A6DBBDE851
:104C1000F88F7F2234210AF0D0F9FFF730FEFDF73C
:104C20002EFBFDF71DFB40260327002000900220ED
:104C3000FFF7CEFBF80731D04FF00008434640465F
:104C40004FEA0B010AFA00F2D1F804C012EA0C0F85
:104C50001CD04A6940F6FF7C32F91320624506DB1E
:104C6000012E04DD225C4FF00108921B0CE0D9F804
:104C700000C0BCF838C1624507DA225C4FF0010879
:104C80003244FF2A00DDFF2222545B1C401C2028F6
:104C9000D8D3B8F1000F01D127F00107B80731D5FB
:104CA0004FF00008434640464FEA0B010AFA00F273
:104CB000D1F808C012EA0C0F1CD08A6940F6FF7CBC
:104CC00032F91320624506DB012E04DD2A5C4FF029
:104CD0000108921B0CE0D9F800C0BCF83CC1624549
:104CE00007DA2A5C4FF001083244FF2A00DDFF2278
:104CF0002A545B1C401C2028D8D3B8F1000F01D1E6
:104D000027F002076FB1FFF7BAFDFDF7B8FAFDF71C
:104D1000A7FA002E05DD00987610401C009064284C
:104D200085DB0326002000900220FFF751FBF007EF
:104D300027D0002739463846CC465A460AFA00F3AF
:104D4000D2F8048013EA080F0ED05369DCF8008013
:104D500033F91130B8F83881434504DD235C13B1D1
:104D600001275B1E2354491C401C2028E6D305E084
:104D70004C281000A8281000B80210000FB926F027
:104D80000106B00720D5002739463846CC465A469A
:104D90000AFA00F3D2F8088013EA080F0ED09369DC
:104DA000DCF8008033F91130B8F83C81434504DD6C
:104DB0002B5C13B101275B1E2B54491C401C20287F
:104DC000E6D30FB926F00206002E3FF420AFFFF71E
:104DD00056FDFDF754FAFDF743FA0098401C009089
:104DE0006428A1DB13E72DE9F05FA54E0024A54D53
:104DF00030684FF07F03224690F830118F0706D5B8
:104E00000124490601D42B7004E02A7002E090F8D6
:104E10003F11297090F83011DFF86C824F0709D5E7
:104E200044F00204480602D488F8003006E088F80E
:104E3000002003E090F8401188F80010002C77D093
:104E4000342192480AF0E3F88F49FF20891C08704A
:104E5000491E0870FDF704FAFDF711FA3068DFF813
:104E60003092B24690F83001400662D54FF0100BF8
:104E700000260220FFF7ACFAE00723D0D9E904238B
:104E80000020014606E000BF33F91170874200DDC3
:104E90003846491C9142F7DBDAF80010B1F83621A8
:104EA000824202DA2878401E08E0B1F84B118142B4
:104EB00006DB28785844FF2800DDFF20287001E039
:104EC00024F00104A0072AD500200146D9F80C706F
:104ED000D9F8183006E000BF33F91120824200DD16
:104EE0001046491CB942F7DBDAF80010B1F83A2154
:104EF000824205DA98F80010491E88F800100EE08A
:104F0000B1F84B11814208DB98F800005844FF28A3
:104F100000DDFF2088F8000001E024F00204002CEE
:104F200006D0FFF7ACFCFDF7AAF9761C202EA0DB1B
:104F300065E5402600270220FFF74AFAE0071AD06D
:104F4000D9E9042C0020014606E000BF3CF91130ED
:104F5000834200DD1846491C9142F7DBDAF8001065
:104F6000B1F83611814203DA2878A0EB060010E090
:104F700050B124F00104A00725D500200146D9F83E
:104F80001830D9F80C200DE028783044FF2800DDD7
:104F9000FF202870EFE700BF33F911C0844500DD22
:104FA0006046491C9142F7DBDAF80010B1F83A117B
:104FB000814205DA98F80010891B88F8001002E099
:104FC00070B124F00204002CB2D0012E00DD761066
:104FD000FFF755FCFDF753F97F1C202FABDB0EE5E7
:104FE00098F800003044FF2800DDFF2088F800001A
:104FF000E9E770B5264C00202060FEF716F86060E7
:10500000FEF73EF8A0606068042140086060201D43
:10501000FDF728FF2061042104F10800FDF722FFBD
:10502000E0600220FFF7D4F91A482169806800EB9C
:1050300041026261E26802EB410100EB4100A061C4
:10504000FFF7D1FE0E4D286890F83001800601D59B
:10505000FFF7FAFCFFF7B3FBFFF708FBFDF70FF9CB
:1050600009482968C01C027891F8FB1762F3030114
:1050700001702068BDE8704040F0020004F0CDBB34
:105080004C281000F7071000F8071000B8021000B5
:10509000A8281000B038100010B50146102298481A
:1050A000FEF7ACF9974841688020FBF7E1FF002844
:1050B00003D0BDE81040FBF7A5B910BDF0B5924D87
:1050C00006460C4628684FF0FF3193B090F8B100C7
:1050D00000F00F00401C8140CF436846FEF7BEF948
:1050E00001208DF800008DF80140286800F58670D9
:1050F00001788DF8121044F005018DF80110029727
:10510000ADF81060AFF26F01019141788DF8161083
:1051100080787B4D8DF8170003246846FCF714FE59
:1051200000218020FBF724FF00218020FBF74EFFA9
:105130002878002804D0FDF790FB641E002CECDCDE
:1051400013B0F0BD2DE9F0476F4D4FF00009DFF8C7
:10515000B081286800F570700478467887781AE086
:1051600049462046FFF7AAFFD8F8040007F007FDDC
:105170000146286890F80B2112F00F0000D10120A1
:1051800012094A43B2FBF0F082B22146302004F00B
:10519000B1FBE01984B2B442E2DDBDE8F0872DE94D
:1051A000FF5F4FF6FF764FF0000A93460F468046AA
:1051B00034465546DFF850911CE000BF38F8150022
:1051C0005146FFF77BFF4E48406807F0D8FCD9F8FE
:1051D000001091F80B2112F00F0100D101211209EA
:1051E0004243B2FBF1F080B2A04202D238F815601F
:1051F00004466D1CBD42E1DBABF8006003980480FF
:10520000BDE8FF9F2DE9F0413F4D044688462868E0
:1052100088B000F1D20690F8D10006AB00F00F0183
:10522000491C05AA3046FFF7BAFF2A6892F8D00059
:10523000800721D5BDF814600121ADF8006002F1AE
:10524000F20500234FF4803C6F4607E0E8563044F7
:10525000604502D227F81100491C5B1C92F8D1006E
:10526000C0F30210401C9842F0DC002904DD06ABBC
:1052700005AA3846FFF793FFBDF814002080BDF85B
:105280001810A8F8001008B0BDE8F0812DE9FC4125
:105290001E4E00235A1E19463068FBF719FA1C4CA3
:1052A00001A968466588FFF7ADFF174F3868B0F869
:1052B000FA10BDF80400814201D9218000E020806D
:1052C000BDF8000060803068FBF7BAF9BDF8000057
:1052D000854207D0386890F8D000400702D5608832
:1052E000FEF735FE0B49012008700B490870BDF828
:1052F00000202946092004F0B6FABDE8FC81000030
:10530000C0381000083810004C2810002038100059
:10531000FC371000622810008F2810002DE9F0479C
:105320000178FE4C01B1217001461022FC48FEF7C5
:1053300065F8FC4B186890F8CD17CA07F84901D0FA
:10534000CD6800E08D68427D6068F74E42430020E2
:1053500014E000BF97F8F0125FEAC17C08D089071B
:1053600006D597F8F17235F810107F1C794301E0EB
:1053700035F810101718401C26F817101F68797D93
:105380008142E7DC60684FF0000200F101006060DC
:10539000797D01FB00F71BE090F8F0C25FEACC7862
:1053A0000ED05FEA8C7C0BD501EB020C90F8F10279
:1053B00035F81CC0401C0CFB00FCB81826F810C0C7
:1053C000881807EB020C35F8100026F81C00521C58
:1053D000186890F815C09445DEDC61684FF001084C
:1053E00001F10101616090F8B12008EB121490F80E
:1053F000F022D50705D0950703D490F8F1522C443C
:10540000E4B2A14223DA90F87A27D20719D090F8B3
:10541000CD378AB2DB0701D0C1F34F0290F8BA034F
:1054200000F00F00B2FBF0F100FB1121BC484C383A
:105430000029417802D041F0020101E021F002018F
:105440004170BDE8F047B6484C38FCF77DBCD10749
:105450002FD091072DD4B0F8F2A2002522E0407D94
:10546000B149684301EB40018946002015E000BFC7
:1054700094F8F142012231F91060641C06E000BF8B
:1054800002FB070C521C31F91CC066449442F7DC45
:10549000A6EB0A0229F81020401C1C68677D874291
:1054A000E6DC6D1C186890F8B11008EB1111A942E8
:1054B000D5DC9E4841688020FBF7DAFD002803D048
:1054C000BDE8F047FAF79EBFBDE8F0872DE9FF5F22
:1054D000DFF84CB24FF6FF7400258A46A046ABF1C8
:1054E0004C0BA9468D4E5BE08D484C38FDF7B6FF5E
:1054F0008C4A116891F8CD07C00701D0102300E055
:1055000002238BF80030009830F81530ABF82C30BF
:105510009BF8013043F004038BF80130AFF2032312
:1055200001F2C931CBF804300A788BF83220CA78FE
:105530008BF834204A788BF8372089788BF838102C
:105540000327C6F8049000BF754886F800904C38D1
:10555000FCF7FAFB00218020FBF70AFD00218020E8
:10556000FBF734FD307820B1FDF777F97F1E002F6F
:10557000EADC6D4802F0ADFB6A49096891F8C8237E
:1055800012F00F0100D101211209424390B2B0FB89
:10559000F1F0A04203D20099044631F815806D1C49
:1055A0005545A1DB0299A1F8008003980480BDE86D
:1055B000FF9F2DE9F04105465A4888468CB00068A7
:1055C0000AAB00F2823C90F8812300F2A23490F8FA
:1055D000800302F00F01C2F30216C0F3400709AACC
:1055E000491C6046FFF772FFDFB1BDF8243001218E
:1055F0000020ADF800304FF4803C6F46761C07E089
:1056000022561A44624502D227F81120491C401C38
:10561000B042F5DB012904DD0AAB09AA3846FFF7E1
:1056200055FFBDF824002880BDF82810A8F8001008
:105630000CB0BDE8F0817CB53D4E00235A1E1946E2
:105640003068FBF745F83B4C01A96846E588FFF751
:10565000B0FF34480168BDF80400B1F8AC238242C1
:1056600001D9A28000E0A080BDF80000E080208188
:10567000854205D091F88013490701D5FEF7B9FCA2
:105680002D49012008702D4908702D49002008601F
:105690002C4908703068FAF7D3FFBDF8002029467E
:1056A0000A2004F0E0F87CBD2DE9F047DFF87480B3
:1056B000DFF86C900025D8F80000A9F14C0900F241
:1056C000C33004884688077950E015484C38FDF708
:1056D000C5FED8F8000090F8CD07C00701D0102112
:1056E00000E0022189F80010A9F82C4099F8011077
:1056F00041F0040189F80110AFF2DF31C9F804105C
:1057000006490020486006484C38FCF71DFB002184
:105710008020FBF72DFC0021802015E0C42810001C
:105720001C3910004C281000B498012008381000D3
:1057300020381000FC371000622810008F2810005D
:10574000E4291000DA291000FBF740FC094802F0B8
:10575000C0FA0246962D03DA074820F815206D1C82
:105760002146312004F0C6F8E01984B2B442ACDD21
:10577000AAE60000B4980120B01A01202DE9F041FA
:10578000174604460D46002609E0E00703D03146DF
:10579000384603F0E6FF761C6D084FEA340454EAFD
:1057A0000500F2D1BDE8F08130B5034600204FF08E
:1057B000FF32012505FA00F40C4202D0521C9A4235
:1057C00003D0401C2028F5D3002030BDF0B50E4694
:1057D0000125074605FA06F2FE4C0F2FD4E91510F5
:1057E00065D2DFE807F064434B081064641921298F
:1057F000323A54585C003046FFF7D6FF8540A06A25
:105800000543A56253E001463046FFF7CDFF8540D2
:10581000206C054325644AE03046FFF7C5FF85400C
:10582000E06A0543E56242E03046FFF7BDFF854090
:10583000206B054325633AE001463046FFF7B4FF8D
:105840008540A06C0543A56431E03046FFF7ACFF0E
:105850008540606B0543656329E001463046FFF7EC
:10586000A3FF8540E06C0543E56420E03046FFF788
:105870009BFF8540606A0543656218E0014630463B
:10588000FFF792FF8540E06B0543E5630FE0A06BF7
:105890000243A2630BE0206D0243226507E001464C
:1058A0003046FFF781FF8540606C054365642068E2
:1058B000401C2060F0BD10B501461022C648FDF71F
:1058C0009DFDC64841688020FBF7D2FB002803D02D
:1058D000BDE81040FAF796BD10BDFDF799BB10B5B5
:1058E000FDF788FB4008400010BD2DE9F0478946D0
:1058F00005464FF0FF34FDF78BFBB64F00231946EA
:10590000D7F804604FF0010C0CFA01F2024200D00B
:10591000641CAC4206D1B9F1010F0AD020EA02039F
:105920000E462021491C2029EED318467E60BDE892
:10593000F0871346F4E72DE9F047894605464FF016
:10594000FF34FFF7CCFFA34F024600207B680146DF
:105950004FF0010C0CFA01F6164200D0641CAC4268
:1059600006D1B9F1010F08D022EA06000B46122138
:10597000491C1229EED37B60D9E73046F6E72DE9C2
:10598000F04198B0044688466846FDF767FD13A8C5
:10599000FCF75DFEFFF7A3FF8E4F40087865FDF72B
:1059A00037FB20268E4DB865012C0AD0022C22D060
:1059B000032C26D0042C29D0052C30D0062C4ED018
:1059C00064E0FDF78DFB0290FDF790FB0390012052
:1059D0008DF800000C20ADF8100040208DF812006A
:1059E0008DF8166091208DF81700029840087865B0
:1059F0000398B8654AE0FFF772FF0990FDF708FBCE
:105A000014E0FDF705FB01210A9003E0FDF700FB20
:105A100000210A904046FFF78EFF099007E0FFF74C
:105A20005EFF099001214046FFF75FFF0A908DF865
:105A30000060286800F55A7081788DF83210C178BE
:105A40008DF8371001788DF8381041788DF83910BD
:105A50008188ADF82C100089ADF82E0016E0FFF714
:105A60003EFF0990FDF7D4FA0A908DF8006028688F
:105A700000F2613081788DF83210C1788DF83710DE
:105A800001788DF8381040788DF8390000209DF8A5
:105A900001108DF8140021F030018DF8150041F04F
:105AA0004A018DF834008DF833008DF80110AFF203
:105AB000F91103260191012C13D0092C27D00A2CAF
:105AC00025D000BF8DF856008DF858008DF857008E
:105AD000022C13D0032C11D0042C0FD0052C0DD088
:105AE00015E0296891F889178DF8500041F00301FD
:105AF0008DF84C103C21ADF84E10E3E72868B0F863
:105B00006E13ADF85210B0F87203ADF8540013A83C
:105B1000FCF7BEFD304C6846FCF716F900218020EA
:105B2000FBF726FA00218020FBF750FA20780028A6
:105B300004D0FCF792FE761E002EECDC18B031E6A5
:105B40002DE9FC5F00210120FFF719FF224847687B
:105B5000FDF7C6FA0190FDF7C9FA0090042101A8EB
:105B6000FDF780F9064604216846FDF77BF9844677
:105B700000200546DFF85CB0DFF864A000905CE030
:105B80004FF00008C1465C462846DBF85810FFF786
:105B90000BFE014601208840A16C08424CD1012433
:105BA0003BE000BF04FB0C51DAF8000037F911208C
:105BB00090F86703B2EB001F2EDA08F10108B9F183
:105BC000000F00D1A146721E944225D1B8F1010FF9
:105BD00022D107E0CC2810002C3910000838100022
:105BE0004C281000ACF10102954204D1611E012045
:105BF000FFF7ECFD0EE007EB4101B1F90220B2EB3B
:105C0000001F05DB35B131F9021CB1EB001F01DAD1
:105C1000002000E002208046641CB442C2DBA6EBF8
:105C20000901414508D829460220FFF7CFFD012090
:105C30000099A840084300906D1C6545A0DB012534
:105C40003BE000BF4FF0000844462CE0DBF840305A
:105C5000DBF8482000201A4311D0D9462046DBF853
:105C60005810FFF7A1FD014601208840D9F84810DF
:105C7000084203D1D9F84010084000D0012005FBAC
:105C80000C4137F91120DAF8001091F86713B2EBE4
:105C9000011F07DA30B901200099A040084201D164
:105CA00008F10108641C6445D0DBB8F1000F03D093
:105CB000691E0120FFF78AFD6D1CB542C2DBBDE8FD
:105CC000FC9F2DE9F041E34C00200546E24FDFF850
:105CD0008C83A0611EE029460520FFF750FE216954
:105CE0000120BE6800EB410C36F91C10D8F800000A
:105CF00090F87703B1EB001F03D929460E20FFF778
:105D000065FD36F91C00A169884202DD36F91C00E8
:105D1000A0616D1C60698542DDD343E52DE9F0414A
:105D200000210620FFF72BFECB480025CB4EC94CA7
:105D300087680EE0E0683168284437F9100091F870
:105D40006513B0EB011F03DD29460A20FFF73EFD76
:105D50006D1C20698542EDDB00250EE0A0683168EE
:105D6000284437F9100091F86513B0EB011F03DDEB
:105D700029460B20FFF72AFD6D1C60698542EDDB8B
:105D800010E52DE9F041B34C00200646206237E0D3
:105D900031460420FFF7F3FDAF48002587682BE06C
:105DA000FDF736F901462846FFF7FEFC01460120C3
:105DB0008840216C08421ED1A849A068284409687F
:105DC00007EB400030F9040C91F87813B0EB011F99
:105DD00007D931460820FFF7F9FC29460920FFF7CB
:105DE000F5FCA068216A284407EB400030F9040C58
:105DF000884200DD20626D1C60698542D0D3761C2C
:105E000020698642C4D3CDE42DE9F041914C0020B5
:105E10000546914FDFF84482E0611AE029460320ED
:105E2000FFF7ADFDBE68B6F90210D8F8000090F893
:105E30007603B1EB001F03D929460720FFF7C6FC04
:105E4000B6F90200E169884202DDB6F90200E061BC
:105E50006D1C20698542E1D3A4E42DE9F0410021C5
:105E60000220FFF78CFD7C487C4D7A4C87682868BF
:105E700090F86003000713D500260EE0E06829685B
:105E8000304437F9100091F87413B0EB011F03D9B7
:105E900031460320FFF79AFC761C20698642EDDB31
:105EA000286890F86003C00613D500260EE0A068AD
:105EB0002968304437F9100091F87513B0EB011FD1
:105EC00003D931460420FFF781FC761C60698642C5
:105ED000EDDB67E42DE9FC41614E00235A1E1946B3
:105EE0003068FAF7F5FB4FF48010411209F06DF8B5
:105EF000FCF7C5F9FCF7B4F9FCF772F9554C002032
:105F00002060FFF7ECFC0090FDF782F8019004217F
:105F10006846FCF7A7FF0546042101A8FCF7A2FF8D
:105F2000014600EB4500C4E90205C4E904514B4DAC
:105F3000286890F86003010701D4C00601D5FFF777
:105F40008CFF286890F86003800601D5FFF75CFF9E
:105F5000286890F86003000601D5FFF712FF286853
:105F600090F86003C00701D0FFF7D8FE286890F8CA
:105F70006003400601D5FFF7A4FE286890F860038F
:105F8000800701D5FFF7DCFD206800285DD0D4E94B
:105F90000A359D43E562606AD4E90F1C9843A84323
:105FA0006062676C21EA0C01B943E163A16B226D69
:105FB0009943A943256B22EA0C02A943A163A16C72
:105FC000BA438A43AB43A362226501220021FFF753
:105FD000D5FB02220021E06BFFF7D0FB032200215A
:105FE000A06AFFF7CBFB04220021206CFFF7C6FB61
:105FF00007220021E06AFFF7C1FB08220021206B85
:10600000FFF7BCFB09220021A06CFFF7B7FB0A22B7
:106010000021606BFFF7B2FB0B220021E06CFFF761
:10602000ADFB0C220021A06BFFF7A8FB0D22002185
:10603000206DFFF7A3FB0E220021606CFFF79EFB93
:106040003068FAF7FDFABDE8FC810021084603F04C
:1060500088FBF5E7CC2810002C3910004C281000E4
:10606000203810006B49002008707047694E0024EA
:10607000694DDFF8A881DFF8A8A1DFF8A8B1347076
:106080004FF0FF39287880B10128FBD140F27D70B4
:106090000021FAF76DFFFBF723F8C1071ED000219E
:1060A0000120FAF793FF2C70ECE702270121002072
:1060B000FDF71DF800213846FAF75AFF012108467E
:1060C000FDF715F8FBF70CF88007DBD5002140F24F
:1060D0007F70FAF77BFF01202870D3E7010714D502
:1060E00000210820FAF772FF002347464A46194666
:1060F000D8F80000FAF7ECFA00234A461946B869C6
:10610000FAF7E6FAFEF793FA15E041071AD50021EF
:106110000420FAF75BFF002347464A461946D8F8A1
:106120000000FAF7D5FA00234A461946B869FAF78B
:10613000CFFAFEF75EFFB869FAF782FA3868FAF725
:106140007FFA9FE7C10606D500211020FAF73EFF2F
:10615000FFF79CF896E7810606D500212020FAF784
:1061600035FFFFF768FA8DE7C10507D500214FF429
:106170008070FAF72BFFFEF7E5FF83E7810507D56F
:1061800000214FF40070FAF721FFFFF78DFA79E74D
:10619000410606D500214020FAF718FFFFF79AFEC6
:1061A00070E7400599D500214FF48060FAF70EFFA3
:1061B0001D4804601D48076804603846FDF71EFE50
:1061C000B80701D500F0E3FBA7F57060BF3801D137
:1061D00005200AE0F80701D0152006E017F0420F6D
:1061E00005D0DAF8000040F0060003F016FB104876
:1061F0000460CAF80040DBF8000090F84904C107C9
:1062000001D180079DD5307800289AD008F034FD60
:10621000347037E7A5281000282910002038100016
:106220005C2810004C281000E029100050281000B5
:1062300058281000FE4900200870FE490870FE49E9
:106240000870FE490870FE4908700121FD4A11706E
:10625000FD4A1170FD49FF2208614861888008707D
:10626000C861CA80FA4A086248621268B2F85231BC
:106270008B81B2F854214A818862887001F02CB871
:1062800030B50024234605E030F913508D4200DD7F
:10629000641C5B1C9342F7DBED48006890F86101D9
:1062A000A04201D2012030BD002030BDF0B5002554
:1062B0002F462C46DDF814C009E000BF30F9146009
:1062C000B54203DA964201DD3546E7B2641C8C42E2
:1062D000F4DB25B18CF8007001201D60F0BD0020BA
:1062E000F0BD30B585B0DA4C01A8009020680025DB
:1062F00003ABB0F95221017DD648FFF7D7FF50B16B
:1063000023689DF8040093F88A2102F00F0181426E
:1063100019D81B7D14E002A80090206804ABB0F9E6
:106320005421417DCC48FFF7C1FF68B123689DF837
:10633000080093F88A2102F00F01814203D85B7DA7
:10634000591A814200DA150905B0284630BDFEB55C
:10635000BF4801AB5022006890F88911B0F98771ED
:1063600001F00F060C09B0F9855102A90091017DD9
:10637000B848FFF79BFF0198B84201DD3046FEBDEB
:10638000A84201DA2046FEBD401B311B4843791B61
:1063900090FBF1F02044FEBD30B5B048AC4D047820
:1063A000286890F85101800703D5FFF7D0FFA4EBD0
:1063B0000004286890F85101400702D5FFF791FFCB
:1063C0000444002C01DA002402E00F2C00DD0F242D
:1063D000204630BD30B564290CD00023642407E08A
:1063E00030F913504D4395FBF4F520F813505B1C26
:1063F0009342F5DB30BD70B5002364250AE0CC5C28
:10640000642C06D030F91360664396FBF5F420F84F
:1064100013405B1C9342F2DB70BD2DE9F047002571
:10642000894629462F462E46A8462B460DE000BF3A
:1064300030F913C039F913400CFB0C660CFB0477E0
:1064400004FB0488654421445B1C9342F0DB87FB1A
:10645000020485FB013CC71A86FB020385FB056528
:1064600064EB0C04B0EB060C63EB050688FB02033F
:1064700081FB0121851A63EB01086421A7FB01035D
:1064800004FB0131002207FB02113346624608F08B
:106490002BFD0246A2FB070301FB073102FB04119F
:1064A0002A46434608F020FD002C00DA4042BDE8B1
:1064B000F08730B547F6F873002405E030F9145042
:1064C000AB4200DD2B46641C9442F7DB002405E060
:1064D00030F81450ED1A21F81450641C9442F7DB84
:1064E00030BD70B503460020024601EBD17408E0D0
:1064F00003EB420633F91250B6F90260AD1B284493
:10650000521CB2EB640FF3DB621008E003EB4205B0
:1065100033F9124035F9025C641B2044521C8A4254
:10652000F4DB70BDF0B587B00746494C03A8009076
:1065300020689C468E461646017D002504AB0FFA66
:106540008CF27046FFF7B2FE01283BD102A8009002
:10655000206805AB32B2417D3846FFF7A7FE01281F
:1065600030D1DDE9041081424FF0640203DD504375
:1065700090FBF1F102E0514391FBF0F1206890F8BB
:1065800092218A421EDD9DF8081019B990F89121D8
:10659000D20716D0427D521E8A4203D190F8911143
:1065A00089070ED59DF80C1019B990F89121520762
:1065B00007D5027D521E8A4204D190F8910100074E
:1065C00000D4012507B02846F0BD2DE9FC41204C40
:1065D00084460F4620680025164690F8901149071A
:1065E00079D5009690F89311427D0B091C496046BD
:1065F00001F0F6FE0096206890F89311027D0B09D9
:1066000017493846243101F0EBFE206890F89011CC
:10661000090631D5407D43F6FF76CDE90060104A8A
:1066200033461049104602F032F82068007D1BE026
:10663000712810008D2810008E281000722810007C
:10664000732810008F281000922810002C291000A9
:106650004C281000A02001207C200120932810004D
:10666000401C0120C2160120CDE90060FE4A3346DD
:10667000FE49104602F00BF8012700972068FC49FC
:10668000437DB0F89E21F848243802F017F80646FA
:1066900000972068F549037DB0F89C21F24802F08C
:1066A0000DF807462068F049F14A437DEC31A1F529
:1066B000887001F064FF2068EC4AEE49037DEA48E7
:1066C00001F05DFFEC490022EC48012E06D0026289
:1066D000012F14D042622846BDE8FC81036A5B1C8E
:1066E0000362266896F8936106F00F069E42EFDA81
:1066F00002620B68012543F040030B60E8E7436A40
:106700005B1C4362246894F8934104F00F049C429C
:10671000E1DA42620868012540F040000860DAE7EB
:10672000F0B40446D6480B46802100680D4690F828
:10673000680110B10146C0F58075D0480089032872
:1067400005D22146F0BC52001846FCF757BE002087
:106750000FE000BF33F9106034F910704E4307FBAF
:106760000566F71706EB176646F30F2623F8106049
:10677000401C9042EEDBF0BC7047F0B50024C04DE9
:106780000FE030F8146031F81470012B0CD0F61BB8
:106790002F6897F86D717F4206EBC70620F81460EA
:1067A000641C9442EDDBF0BD3E442F6897F86D7198
:1067B000F2E72DE9FC47B14D80460026288998B9BB
:1067C0002422AB49AF48FCF719FE4022A749AE4846
:1067D000FCF714FEA4482421643008F0F6FBA2481C
:1067E0004021883008F0F1FB28890127A44C0328B8
:1067F00002D2A648077014E013D92168B1F86B21C2
:1068000082420ED94B7D98499E4A6431984801F0E6
:10681000B6FE206894499C4A037D8831934801F074
:10682000AEFE206890F85011427D090710D590F80F
:106830008D11CDE9001290F88B31954A8C49404674
:1068400001F025FF20688849427D8839904802E0A0
:10685000854940468839FFF763FF2068844A90F8ED
:106860005011437D09078B4901D5894800E0404616
:1068700001F085FE20687E4A8649437D7A48883843
:1068800001F07DFE206890F85011C90610D5427DB8
:1068900090F896127F48FFF79DFD216891F850010E
:1068A000C00605D54A7D01F51C717A48FFF7A3FDA6
:1068B0002268B2F85411B2F86901B2F86B41014490
:1068C0000BB229898C4201D2184403B2002004463D
:1068D000DFF8C4C1DFF8BC91527D1CE039F91080AB
:1068E000984515DD761C022E13D96878401C40B2FD
:1068F0006870002804DD69488CF800706C700770BF
:1069000047F6FF70814201D2491C2981BDE8FC870E
:106910000026401C00B28242E0DC6C708CF8004023
:10692000EEE7034610B50020024603E033F91240BB
:10693000521C20448A42F9DB10BDF0B5504C0F4682
:1069400000252168497DFFF7ECFF06462068017DA0
:106950003846FFF7E6FF236801460024D3F89C720F
:106960004648B74203D38F4201D3C4620DE0C16AE7
:10697000491CC16293F89B228A4206DC3E490125EC
:106980000A6842F400520A60C4622846F0BD3C48DE
:10699000006890F89011890606D5384901220A70DE
:1069A00090F895211209CA6190F8F002C00701D051
:1069B00002F047BD70471CB530480024008928B953
:1069C000002201241146104602F0ABFE1020CDE952
:1069D00000042B4C27490F2320686431427DA1F12C
:1069E000240001F020FD234924224031A1F1880038
:1069F000FCF704FD1F4924226431A1F18800FCF753
:106A0000FDFC20681B49437DB0F9AE216431A1F142
:106A1000240001F0C2FD012800D000201CBD2DE99A
:106A2000F041174C00231A46216818461C4E1D4F92
:106A30000D7D0DE036F9101037F910C0B1EB0C01E7
:106A400000D5494289B28B4201D20B4682B2401C2A
:106A50008542EFDC5908092002F022FF00210A4696
:106A60000846114D114E23E0641C0120E61601205A
:106A7000C2160120741D01205C2810002C29100072
:106A80004C281000261701204A170120D029100099
:106A90006C3910007C200120732810008F28100012
:106AA0003498012074980120EC970120109801205F
:106AB00023685C7D0DE000BF35F9103036F91070A9
:106AC000DB1B00D55B429BB2994201D2194682B2D0
:106AD000401C8442F0DCBDE8F04149080A2002F085
:106AE000DFBE70B5FF4A0020034640F2FF71126816
:106AF000FD4DFE4C05E000BF25F8101024F81030C5
:106B0000401C567D8642F7DC0020F94CF94D04E02C
:106B100024F8101025F81030401C167D8642F7DC52
:106B200070BD2DE9F041F44C06460D46A0780128D1
:106B300044D1A06A08B9FFF7D4FFEA480022EA4925
:106B4000DFF8A8C3076812E031F9123036F91200F5
:106B5000834200DA184621F812003CF9120036F997
:106B60001230984200DC18462CF81200521C787D36
:106B70009042E9DC0020DE4BDE4A12E033F910607F
:106B800035F910108E4200DA314623F8101032F930
:106B9000106035F910108E4200DD314622F81010D9
:106BA000401C397D8142E9DCA06A401CA062642857
:106BB00004D3FFF734FF0020A070A062BDE8F0818D
:106BC0002DE9F34F85B0CD4C4FF0FF314FF0000A67
:106BD000039120780125CA4ED1465746D046012858
:106BE0001ED0C048DFF81CB3006890F82020D20601
:106BF0001CD590F82520C44803889A4216D2A0F8E4
:106C00000080DBF80010C14841F02201CBF80010F1
:106C10004168A802FAF7FBF9357007B0BDE8F08FBC
:106C2000357000F059FB84F80080F6E7B84C00237B
:106C30005A1E1946E068F9F74BFD00235A1E194603
:106C40002069F9F745FDB348AB4C007801287DD0A9
:106C50002089012805D9A348AF49006890F8800130
:106C60000870002020813278DDE90501FFF7ADFCD6
:106C700006469C48006890F87001400606D5206AD8
:106C8000002802DC606A002800DD0127FFF784FB92
:106C900001909B48DFF84C82A04900780090D8F81A
:106CA0000000019B427D059801F09AFB94489B49A6
:106CB000019B00780090D8F800002431027D0698EE
:106CC00001F08EFBD8F8000090F8501109071CD590
:106CD00090F88D110023427D8DE80E008F4A90F8C8
:106CE0008B318F49104601F06EFCD8F8000000236C
:106CF00090F88E11027D8DE80E00884A90F88C3154
:106D000024328849104601F05EFC7D49DFF8D481C9
:106D100000200870D8F80000814A8349437D7F48ED
:106D200001F02DFCD8F800007E4A8049037D7B48A5
:106D3000243001F024FCD8F8000090F891010006FE
:106D400043D57A497848FFF7F8FD00E002E00128D2
:106D500039D03AE06348006890F85101C00605D583
:106D6000FFF729FE72490128087011D03278DDE959
:106D70000501FFF72AFC012812D00598FFF719FD3D
:106D8000634C2069F9F75CFCE068F9F759FC44E7CB
:106D90000122AA21DB2002F0C4FC84F8018010E06B
:106DA0006448057084F801803570DBF8001057489E
:106DB00041F04201CBF8001041684FF48060FAF7CF
:106DC00026F93570DCE74FF0010ADFF84481D8F886
:106DD0001000F9F735FCD8F80C00F9F731FCDFF8B2
:106DE0000481D8F8000090F8901109074FD54B495D
:106DF000427DC8314C48FFF75CFBD8F8000047499A
:106E0000427DC83100F57470FFF707FB6061D8F868
:106E10000000417D4148C830FFF763FB8646A06112
:106E20006069009032281CDD3C48D8F80020C8304A
:106E3000B0F90030B2F854118B4207DD92F815C05A
:106E400000EB4C0C3CF902CC8C4509DC49428B42EE
:106E500007DA527D00EB420030F9020C884200DA7A
:106E60000127D8F80000009990F894218A420EDAA0
:106E7000B0F8AC2172450ADA90F89001400601D5CD
:106E80004FF001092C48016841F480710160D8F885
:106E90000000C44690F85011C9060DD5427D90F807
:106EA00096122148FFF796FADCF80000027D90F870
:106EB000DC121E48FFF78EFADCF80000E04690F87E
:106EC0009011890743D5B0F85231B0F854211749D1
:106ED0001548FFF727FB012833D181461648016882
:106EE0002CE000004C281000EC97012010980120A5
:106EF00034980120749801202C2910009228100049
:106F00008F2810005028100060281000083810004A
:106F1000203810006328100070291000DC1B0120AD
:106F2000C2160120E61601206C39100090391000BD
:106F300072281000732810005C28100041F40071C2
:106F40000160D8F8000090F89001800705D4D8F8C7
:106F5000000090F8901109070ED5B9F1010F09D181
:106F6000B4F9040000280CDB401E00B2A080002809
:106F700007DC0126D8F8000090F8950100F00F001A
:106F8000A080D8F80010C44691F85001C0060DD575
:106F90004A7D01F51C71C048FFF72DFADCF800109E
:106FA000BE480A7D01F52871FFF725FADCF80000DC
:106FB000E04690F85011090610D50095437DB84A77
:106FC000B849B54801F0B2FA0095D8F80000B44AC3
:106FD000B549037DB14801F0A9FA0DE0407DAE4905
:106FE0004200B048FCF70AFAD8F80000AB49007D2F
:106FF0004200AD48FCF702FAD8F8000090F8911171
:10700000C9062BD503A90091427DB0F8AC31521EC0
:107010000021A14801F025FA012815D10398012883
:1070200005DBD8F800104A7D921E824211DAE08812
:107030000127401E00B2E08000280FDA9B4801269D
:10704000016841F480710160D8F8000090F8950162
:1070500001E091F8950100F00F00E080924991481D
:10706000FFF75FFDD8F8000090F85111C9070DD067
:10707000B0F95E21417D8B4801F012FBD8F8000089
:10708000B0F95E21017D884801F00AFBD8F80000C4
:1070900090F85011490712D50095814A437D0A3A6C
:1070A0008349804801F042FA0095D8F800007C4AF4
:1070B0008049037D0A3A7C4801F038FA0DE0407DB2
:1070C000784942007A48FCF799F9D8F800007649E7
:1070D000007D42007748FCF791F9D8F8000094F859
:1070E00000C0B0F85211B0F85421BCF1010F07D024
:1070F000DFF8C4C19CF800C0BCF1010F0DD016E050
:10710000B0F898C1BCF1000F00D06146B0F89AC148
:10711000BCF1000F0BD0624609E090F857C1A1EB1B
:107120000C0190F856C189B2A2EB0C0292B2DFF8C2
:107130008CC19CF800C0BCF1000F07D090F8A3C12F
:10714000624490F8A4C192B2614489B20FFA81F905
:10715000A4F80C9011B26181427D5548FFF790F878
:107160008446D8F800004946027D5248FFF788F867
:107170005349DFF85491BCF1010F81F800C0514927
:10718000087001D101280BD05049002089F8000077
:107190000870206900281BDD401E20610CD017E01C
:1071A000454889F800500078012811D1D8F800002E
:1071B00090F8970120610BE0D8F8000090F890015A
:1071C000C00605D53948016841F08001016002E040
:1071D000BAF1010F0DD1DBF800103D4841F022015A
:1071E000CBF8001041684FF48060F9F710FF394880
:1071F0000570012E0CD1DBF80010354841F042013A
:10720000CBF800104168B002F9F701FF3148057072
:10721000D8F80000454690F89011890624D52178C9
:10722000012921D1E169002915DD427DB0F9541110
:107230001F48FFF725F806462868027DB0F952116D
:107240001C48FFF71DF806B100B94FB1286890F847
:1072500095010009E06199F80000012807D017E0C6
:10726000E069401EE061F6D100202070F3E7286855
:10727000B4F9041090F8950100F00F00884207D18E
:10728000002F7FF4D2AC0B49094800F00DFCC4E498
:1072900000F052FAC1E400006C391000903910007F
:1072A00066291000D0391000F43910005C28100055
:1072B0007C200120A02001208C28100075281000BF
:1072C0008D2810008E2810007128100073281000DF
:1072D000083810008F281000FE4900200122087095
:1072E000FD498860C86008614861886148708A709B
:1072F000FA4A1070FA4A08701070C8708880C88006
:107300007047F8490A68B2F86411814201DB002035
:107310007047B2F86621824201DCFF207047521AA2
:10732000401AC0EB002090FBF2F0704730B5ED4AF8
:1073300000241268937EDD0792F882310BD08342DD
:1073400017DC158BEB1A834213DB92F8830188421A
:107350000FDCD28A0AE083420BDCD58AEB1A834227
:1073600007DB92F88301884203DC128B101A8842F3
:1073700000DA0124204630BD2DE9FE4314460D46B7
:107380000646072B08D0D448092B016906D0316086
:107390004169296080691060BDE8FE833288ADF8DC
:1073A00002202A88ADF800202768ADF80610814633
:1073B000808AADF8040001AA694602A806F0D0FD53
:1073C00002A806F0C5FDDFF81C830346D8F800C00C
:1073D0009CF87401BCF8762100F00F01BCF878C16C
:1073E000000952430CFB0CFC93420BDD634501DBAF
:1073F000084607E09B1A411A4B43ACEB020193FB92
:10740000F1F1401ABDF90230C0F11002D9F810C0F4
:10741000534300FB0C331B093360BDF90030534369
:10742000D9F8142000FB023000092860D8F80000C9
:107430001022D9F8181090F87501A2EB10127A43B7
:10744000000900FB012000112060A5E75FF00002A9
:1074500000EB82035B6840F82230521C052AF7DB00
:10746000416170472DE9F04F002793B080463E46BA
:107470003D46FFF7EBFF002158F821000744484341
:1074800000FB0155491C06440629F5DB924C09977F
:107490001C3460680A90A068CDE90B0620690D9045
:1074A0006069CDE90E05E0691090206A119009A885
:1074B000FBF7FAFC834603912068CDE90907A06831
:1074C0000B90E068CDE90C0660690E90A069CDE9EB
:1074D0000F05206A119009A8FBF7E6FC8146206899
:1074E00009906068CDE90A07E0680C902069CDE951
:1074F0000D06A0690F90E069CDE910058A4609A83C
:10750000FBF7D2FC0326A9FB06570A460AFB0671C5
:107510000926A0FB0637002409FB041402FB0672AF
:10752000002100FB0120EA184441039912EB0B00F3
:1075300061414FF47562002307F0D6FCC8F80C00D7
:1075400013B0BDE8F08F30B5664A01241268937E0F
:10755000DD0792F87A310BD0834217DC158BEB1ADA
:10756000834213DB92F87B0188420FDCD28A0AE067
:1075700083420BDCD58AEB1A834207DB92F87B014E
:10758000884203DC128B101A884200DA002420465D
:1075900030BDF0B589B0534ECDE900121C4605460A
:1075A0000794306800274C4C90F870010B46C007D8
:1075B00028D0082D26D094F90300062819DB11B233
:1075C00018B2FFF7C0FF00284748009909D0FFF71D
:1075D00049FF0090444801991830FFF743FF01909C
:1075E00010E0FFF733FF404801991830FFF72EFFF6
:1075F00008E0401C3C4940B2E07041F820301831AE
:1076000041F820202B4607AA01A96846FFF7B4FEDF
:10761000072D02D0092D08D02DE000982061019897
:10762000606107980127A06126E0316891F8700138
:10763000400720D522690098101A00D5404291F8E1
:107640007C3198420BDA63690198181A00D54042E0
:1076500091F87DC1604502DACDE9002300E0012701
:10766000A2690798101A00D5404291F87E1188420D
:1076700001DA079200E0012730684FF0000C90F823
:107680007001000609D5082D07D0019801B20098B5
:1076900000B2FFF74BFE01282AD0CFB1009921613B
:1076A00001986061079AA261CDF814C0ADF8161078
:1076B000CDF810C0ADF814008DF810501046FFF74B
:1076C00020FE8DF812008DF813C004A801F072FF9F
:1076D00001200BE08C281000702910007128100088
:1076E000732810004C2810003C39100009B0F0BD80
:1076F000072D0AD0FE4800780028306819D090F88D
:10770000A601401CA0600020E3E7FA4880F800C012
:10771000306890F89001C007F5D0F748016841F053
:1077200022010160F54841684FF48060F9F76FFC71
:10773000E9E790F87301E4E7ED4810B50178F04807
:10774000006849B190F9A611EA480278ED48012A8B
:1077500005D00021C1600DE090F97311F4E7826853
:10776000521C82608A4208D300231A461946082018
:10777000FFF70FFFBDE81040AEE510BDF0B50746BE
:10778000DDF814E037F912404FF0FF30744501DAAC
:10779000002400E01046012517E0561B07D437F9F6
:1077A00016C0F44503DDA44501DD30466446561994
:1077B000A1F1010C664507DC37F916C0F44503DD7D
:1077C000A44501DD304664466D1C9D42E5DDF0BDFB
:1077D000F0B500240125A1F101060BE0571B02D4EE
:1077E00030F917703C445719B74202DC30F9177072
:1077F0003C446D1C9D42F1DD012A02DB891E8A4258
:1078000000DD640030F912002044F0BD2DE9F0479E
:10781000BB4D14469A462E6830F91420814602FB6F
:1078200004F00123A1F1010196F862C117E0E51A05
:1078300008D439F91570B6F85E81474502DB07FBBD
:1078400005003A44E5188D4208DC39F91570B6F8A0
:107850005E81474502DB07FB05003A445B1CB3EB46
:107860001C1FE4DD4A4380FB0A01D31707F03CFBF1
:1078700000B2BDE8F0872DE9F04F8FB00C4682468C
:10788000174699460026182108A8189D07F0BFFB47
:107890002DB99B48006890F8620100F00F057A1B33
:1078A00007EB050300D50022651EAB4200DD631E19
:1078B00008A95046FBF766FB93484FB1AF4232D15F
:1078C0008F49096891F85111890613D54E466EE02B
:1078D0008B49096891F85111890668D4BAF90410E6
:1078E0000160BAF900104160BAF902104B4601225A
:1078F000816010E00AEB440100EB84000C3831F9A0
:10790000062D8260B1F904204260B1F902107F1C9B
:107910004B463AB20160611E7B4802F089FC99FB3C
:10792000F5F1461A43E0DDE90CB0B0F1000841DAA8
:10793000DDE9082352EA03003CD0DDE90A010191A8
:107940000490002936DB6E48066896F85001400620
:1079500011D55846414607F0C7FA002800DA4042E0
:1079600096F86311884206DA4B463A46214650465D
:10797000FFF74CFF1AE01BEB0B01A1FB052448EBC2
:10798000080000FB0540EB1701FB03030498019975
:107990004642A6FB0907002464EB010404FB0971BD
:1079A0004FEAE97506FB051107F09EFA06463046D8
:1079B0000FB0C6E5B8F1000FD6DADDE908010843DB
:1079C000D2D00B980028CFDBF1E738B54C4D049CA2
:1079D0002D6895F85051AD0603D50094FFF74BFF85
:1079E00038BD01B0BDE8304010E72DE9F047002474
:1079F0009A46CE1E81462346A44627462546022A9D
:107A000003DBB24201DC104633E70020491E07E0E9
:107A100039F91080B8F1000F01DDC4447F1C401C0F
:107A20008842F5DB9CFBF7F7022A12DA10460DE0DC
:107A300039F91060BE4203DA3CB90446002304E081
:107A40001CB19E4201DD33460546401C8842EFDBF7
:107A500014E0B24212DD10460EE000BF39F91010FA
:107A6000B94203DA3CB90446002304E01CB1994250
:107A700001DD0B460546401E0228EFDC534500DAC7
:107A800015462846F5E630B5044630F91130002099
:107A9000491C06E034F911509D4201DD2B46084691
:107AA000491C9142F6DB30BD2DE9F34F144C85B0F3
:107AB000226892F88431567D03F00F056F4206EB81
:107AC000470606F0FF0B167D1A0900EB45005342EE
:107AD000059006EB430301EB4200DBB203931A4629
:107AE00000210690FFF7CFFF05465A4600210DE022
:107AF000752810008C28100050281000083810003D
:107B00004C28100070291000F43E10000598FFF773
:107B1000BAFF064620685B4F90F87001800607D5D3
:107B2000B7F900302A4603990698FFF75EFF05462D
:107B30002068DFF854A190F87001C00607D5BAF9A3
:107B40000030324659460598FFF74FFF0646DFF8EA
:107B50003C91DFF83C8199F80000012828D1206889
:107B600090F86001010723D0010921D0B7F9001076
:107B7000009100F00F03B8F9042003990698FFF76D
:107B8000FDFD0746BAF9000000902068B8F906200C
:107B9000594690F8600103090598FFF7EFFD002FA3
:107BA00001DB002802DAFFF7C7FD01E03D4606468B
:107BB0002FB232B2A8F80470A8F80620002600966A
:107BC00020685946B0F918300598FFF7FEFE009678
:107BD000029020683A460399B0F916300698FFF7EC
:107BE000F4FE0190206890F87001800704D502220D
:107BF00002A901A803F028FF02A901A8FBF7BCFC19
:107C000001232A4603990698FFF7E2FD034621481F
:107C100000780028206816D090F9A52198F8000077
:107C20004146401E40B288F80000002806DB20686C
:107C300090F87F01104442B2FF20087099F80000CC
:107C4000CD6818B104E090F97221E7E76D1CCD60B2
:107C5000954214D340F2FF12CA60C8F8086038B1E8
:107C60005FF00900DDE90112FFF793FC28B106E09F
:107C7000012089F800000720F4E7FFF75DFD0120EF
:107C800007B05EE438291000362910008C28100057
:107C90007029100075281000E548E64A0068B0F821
:107CA000AC139180E44990F8B10308817047E24930
:107CB0000020DF4A8880C880C86048801268DF4B97
:107CC00092F85C2112091A7008610870DC4908708A
:107CD00070472DE9F04395B0814602AF4821384600
:107CE00007F095F9D2480123016891F8B1204C7D45
:107CF00091F8A01103EB1216890715D500258046CF
:107D000010E000BFD8F8001005FB04F009EB4000BC
:107D10004A7D91F88B31CDE900324946024600F0A8
:107D2000B6FC6D1CB542EDDB002010E000FB04F258
:107D3000002109E002EB010C57F8215039F91C3001
:107D40002B4447F82130491CA142F3DB401CB042D0
:107D5000ECDB002007E000BF57F8201091FBF6F1A4
:107D600047F82010401CA042F6DB00200121A4F1BE
:107D7000010517E04FF0000C63460BE003FB04180D
:107D800039F9182057F82180B2EB080200D5524289
:107D900094445B1CB342F1DB9CFBF6F2824200DDB3
:107DA0001046491CA942E5DBB0F5803F04DB4FF6E5
:107DB000FF7015B0BDE8F08380B2FAE730B59C499A
:107DC0009E4B096891F85021920725D59C4A12785C
:107DD0004AB191F8A74104F00F022509B1F8A84172
:107DE000B1F8AA1107E001F5AC710C7904F00F02AB
:107DF00025090C884988A04201DC1A7030BD8842F0
:107E000001DB1D7030BD001BAD1A6843091B90FBE0
:107E1000F1F01044187030BD91F85C0100F00F00D3
:107E2000F8E72DE9F041824D296891F88023B1F8F7
:107E3000AC33D4077F4A3ED091F8AF4304B9012454
:107E4000968891F8AEC3F71A07FB0CF797FBF4F48A
:107E5000B1F8AA7337442744774CB8420BDD794810
:107E60000026E66041682020F9F7D1F8E68028680E
:107E700090F8B10306E0864202D9714D2D7825B104
:107E800091F8B1032081BDE8F0816F49097800299C
:107E9000F9D1B4F90810002901DD491E2181218999
:107EA0000029F0D1B11E814200DA01468B4200DD8B
:107EB00019469180E7E79380E5E75D4A10B51468BD
:107EC0000021B4F8A121824204D294F8B0008007C6
:107ED00000D5012158485A4B0278914211D11978A6
:107EE00091420AD0584C2478224307D00169491E98
:107EF0000161002901DC0078187010BD0170016972
:107F0000F7E739B194F8B22002610170002AF4DC7D
:107F1000197010BD94F8B320F6E7454910B509680B
:107F200091F8B010CA06444918D5484A14780A4650
:107F3000D388C3EB03125200012C05D0C41A002CC5
:107F40000CDC414C247824B102EB4000C0F34F100C
:107F500004E0C3EB83121044C0F38F10C88080B2DA
:107F600010BD10B5FFF7B5FEFFF7D7FF324CA0806C
:107F7000FFF7A3FFA088FFF721FFA088BDE810400E
:107F80004FE7F0B431490B782B494A88B3B1322A14
:107F900001D2521C4A80264A0125136893F8B14049
:107FA0005B7D05EB1415CC6894FBF5F605FB1644D8
:107FB000274E634306EB430700230CE0012AEAD96E
:107FC000521E4A800022CA60E5E700BF30F813C0A5
:107FD00027F813C05B1CD2F800C09CF815C09C4564
:107FE000F4DCCB685B1CCB60136893F8CD77FF079C
:107FF00007D05B7D641C5F00634306EB43040023F2
:1080000007E0C8680CE0FE1830F8166024F813602A
:108010005B1C1668767D9E42F5DCC868401CC86013
:10802000A84202DBF0BC0A489BE7F0BC70470000A6
:108030004C281000FC371000B029100093281000C5
:1080400075281000083810007128100063281000EF
:108050003C1E0120CA490020886048600860C94968
:108060000870704710B500230BE000BF30F91340D3
:10807000002C00DA64428C4201DD012010BD5B1C43
:108080001BB29342F2DB002010BD70B5BE4CBF4A5C
:10809000BF492068437DBF4800F071FA2068BE4A9E
:1080A000BE49037DBE4800F06AFA2068427DB0F9FF
:1080B0009812B748FFF7D6FF05462068027DB0F951
:1080C0009812B648FFF7CEFF0022AD49012803D031
:1080D000012D01D00A6070BD0868401C086023684B
:1080E00093F89A328342F6DCAE48036843F4805337
:1080F0000360AD480A60016841F022010160AB48AD
:108100004168BDE870404FF48060F8F780BF70B5FB
:108110000546002003460BE035F9134031F91360A2
:10812000A41B00D5644224B2A04200DA20465B1CA6
:108130009342F1DB70BD2DE9F05F9D480078400768
:1081400078D59C48904E8E4C01783068002731B32A
:108150006760A76090F82C10B0F82F90B0F83350FB
:108160004FEA111A01F00F0B427D93499348FFF734
:10817000CEFF804630689249027D9248FFF7C7FFE4
:108180003268804BB2F854C1B8EB5C0F04DCB2F833
:108190005211B0EB510F1EDD012018701CE0616818
:1081A000491C616090F82A20B1EB121F00DD676066
:1081B000A16802F00F02491CA1608A4200DAA760A0
:1081C00010F82B1FB0F80290C5884FEA111A01F081
:1081D0000F0B2B38C8E71F70774F794B0020B6463E
:1081E0004CE0794A00211278012A09D0774A32F905
:1081F00010C037F9102094450DDAA2683AB11CE09E
:10820000724937F8102031F81010891A01E0CBF1CB
:10821000000109B211E0D4F80480B8F1000F0CD1CC
:10822000ACEB02020FFA8AF14A4506DDAA4202DDF2
:1082300029B202E082E00FFA89F196F88023520712
:1082400016D500220CE000BFDFF848C102EBC208DF
:108250000CEB880C521C3CF8108088442CF81080E1
:1082600096F880834FF0010C0CEB981C9445EBDCE6
:1082700037F81020114427F81010401CDEF8006079
:108280007246717D8142ACDC002048E04E4E0021F8
:108290003678012E09D04E4E36F910C033F91060F1
:1082A000B4450DDAA6683EB11BE0494933F81060C9
:1082B00031F81010891B01E0CBF1000109B210E088
:1082C000D4F80480B8F1000F0BD1ACEB06060FFA1E
:1082D0008AF14E4505DDAE4201DD29B201E00FFA1B
:1082E00089F197F88063760713D500264FF0010EC9
:1082F00009E0DFF8ACC00CEB861C761C3CF8108063
:1083000088442CF8108097F880830EEB981CB445B5
:10831000EFDC33F81060314423F81010401C17686C
:10832000397D8142B2DC97F89101000606D597F8B5
:108330008003400702D5BDE8F05FA6E6BDE8F09FE8
:10834000114810B5006890F82000C10716D02149E7
:108350000978002912D12049097809B180060DD584
:108360001E4C00235A1E1946E068F8F7B1F9FFF7D2
:10837000E2FEE068BDE81040F8F762B910BD000009
:10838000C4291000A72810004C2810001A1801203A
:108390006C3910008A1701203E1901209039100015
:1083A0003E1801205C2810005028100008381000EA
:1083B000D429100063281000C2160120DC1B012004
:1083C000E6160120001C0120D0291000E21901202E
:1083D000061A0120662810007128100020381000AD
:1083E000F0B40C4601460498C3F11006012801D0F0
:1083F000002014E02046F0BC5200FAF7FFBF00BF97
:1084000034F9105031F910705D4307FB0655EF1732
:1084100005EB177545F30F1524F81050401C9042DA
:10842000EEDBF0BC7047F0B40C460146DDE90460B9
:10843000F51A012801D0002010E02046F0BC5200BF
:10844000FAF7DCBF34F9107031F910C05F430CFB50
:10845000057797FBF6F724F81070401C9042F1DB8B
:10846000DFE7F0B50646002004460546521C059F8E
:108470000AE000BF36F911C09C4504DDA44502DDC9
:1084800064460D460120491C9142F3DB3D60F0BD7E
:10849000F0B54FF0000C67466646654664460EE050
:1084A00031F914E0BEF1000F03DDF44406F10106DA
:1084B00003E002DA774405F1010504F10104944276
:1084C000EEDB9CFBF6F697FBF5F70024DFF844C2E1
:1084D00029E08BB131F91450002D13DD30F8145020
:1084E00035442DB220F81450DCF800E0BEF858E412
:1084F000754517DD354413E030F8145031F814E0B9
:1085000075440DE00EDA30F814503D442DB220F8D9
:108510001450DCF800E0BEF85CE4754502DA3D4436
:1085200020F81450641C9442D3DBF0BD2DE9F043D5
:1085300091460022DDF81CC018E000252E462C468E
:1085400002EB0407BF1E08D49F4206DA30F91780F9
:1085500039F9147008FB07553E44641C052CEFDB09
:10856000BCF1010F06D021F81250521C9A42E4DBF4
:10857000BDE8F08395FBF6F421F81240F5E770B5FD
:10858000002407E032F8145030F81460AD1B21F8D5
:108590001450641C9C42F5DB70BDF0B500252C46E0
:1085A00009E000BF31F9146030F91470F61B9642EF
:1085B00000DD6D1C641C9C42F4DB022D01D90120FE
:1085C000F0BD0020F0BD2DE9F04F8946DDE90A67D6
:1085D000012447F6F8719A464D429346A44600237B
:1085E000DDF824E018E000BF30F8132039F81380DC
:1085F000D21BA8EB020212B2914200DD1146954255
:1086000000DA1546002A02DA4FF0000402E001DD2C
:108610004FF0000C03F10103B342E5DB54EA0C0216
:1086200006D0012C01D02CB108E0BCF1010F05D11E
:10863000002103E0BCF1010F00D1294600252C46A2
:108640002A4611E030F8123039F812C0DB1B0B4417
:10865000ACEB03031BB2534505DACEF1000C6345C6
:1086600001DD1D44641C521CB242EBDB95FBF4F2AD
:108670000A44002107E000BF30F81130DB1B13442F
:108680002BF81130491CB142F6DBBDE8F08F7EB506
:108690000026DDE907458DE87000FFF794FF7EBDF9
:1086A00030B500231C4606E030F91350954201DA3C
:1086B00020F813405B1C8B42F6DB30BD2DE9F04304
:1086C00000252E462C46DDF81C9017E031F9147079
:1086D00030F914C007EB0208C44505DDBCEB070701
:1086E00000D57F423E4408E0A7EB0208C44504DA07
:1086F000BCEB070700D57F423D44641C9C42E5DB90
:10870000B9F1000F00D10025B54201D201202FE7B9
:1087100000202DE74C28100010B500210420F8F7A8
:1087200055FC6448644A00685168414006D0506076
:10873000480703D5BDE81040FDF77CBD10BD70B5FE
:108740000546480713D55D4C00235A1E194620697B
:10875000F7F7BEFF5A492846FAF76DFC59492846F3
:10876000FAF78FFC2069BDE87040F7F769BF70BD6C
:108770002DE9F04150480021534D017053492C68B8
:108780000C423AD04068044051480078002834D167
:108790004A4E0023CA171946B069F7F799FF2146D8
:1087A0004C48FFF7CCFF4C484C4F006890F8A011A4
:1087B000C90709D0287800060CD43878052809D0D4
:1087C0004448FFF7DEFB05E090F85C01444900F007
:1087D0000F000870B069F7F733FF600703D5394918
:1087E0003748FEF7EDF93878052802D128680028C7
:1087F00003DABDE8F041FFF7A3BDBDE8F0812E49E3
:1088000010B500204860FFF725FCFDF713FDFFF7CA
:108810004EFABDE81040FFF73FBA274C00276770BB
:10882000FFF7EDFF4FF6FF780126607850B301287F
:10883000FBD100213520F8F79BFBF8F751FC0546EA
:10884000C00706D000214046F8F7C0FBFFF7D7FF6E
:108850006770680705D500210420F8F7B7FBFFF71C
:1088600087FFE80605D500211020F8F7AFFBFFF7DA
:1088700053FFA806D9D500212020F8F7A7FB1948F7
:108880000670D2E704210020FAF731FC0021022013
:10889000F8F76EFB04210120FAF729FCF8F720FC19
:1088A0008007C2D500214046F8F790FBFFF7A7FFED
:1088B0006670BAE7882A1000D0291000203810000E
:1088C000E2190120061A0120882810003C020080CD
:1088D00066281000C08D01204C281000942810003C
:1088E000932810002E2910002DE9FC4789460746E1
:1088F000FAF79BFB0090FAF7C3FB0190042168464E
:10890000FAF7B0FA0446042101A8FAF7ABFA2044BA
:10891000FA4C4600FA49E068FA4D704301EB40001A
:1089200029687200B1F8F2823946FAF767FD2868C3
:10893000E16890F8F102884202D10120A07002E0C3
:10894000A078012819D1EE4F002014E02A680121F7
:1089500037F9103092F8F122521C05E006FB010CA9
:10896000491C37F91CC063448A42F7DCA3EB0802B8
:1089700029F81020401CB042E8DB286890F8F1127A
:10898000E068814201D3401C00E00020E060A07854
:10899000BDE8FC872DE9FC4115460E460746FAF76F
:1089A00044FB0090FAF76CFB01900098042140080A
:1089B00000906846FAF756FA0446042101A8FAF72F
:1089C00051FA00EB440C07EB440207EB4C03014661
:1089D00006EB440706EB4C06002006E032F810C018
:1089E0000CFB05FC27F810C0401CA042F6DB002061
:1089F00006E000BF33F810206A4326F81020401C20
:108A00008842F7DBBDE8FC812DE9FC471546894625
:108A10000646FAF70AFB0090FAF732FB01900421B0
:108A20006846FAF71FFA0446042101A8FAF71AFA71
:108A30000146304606EB440305EB4407002207E0FD
:108A400030F802CB33F8028B521CC44427F802CB17
:108A5000A242F5DB01EB440206EB840006EB420385
:108A600005EB4206002207E030F8027B33F802CB28
:108A7000521C674426F8027B8A42F5DB48462946A9
:108A8000002204E030F8023B21F8023B521CA242D3
:108A9000F8DB09EB440005EB8402002105E000BF90
:108AA00030F8023B22F8023B491CA142F8DB6FE799
:108AB0002DE9F0438946934909684C7D0B7D641C80
:108AC000012116E04A1C01FB03F55A4300EB450661
:108AD00000EB420709EB4505002207E036F812C01B
:108AE00037F81280C44425F812C0521C9A42F5DBB4
:108AF000491CA142E6DBBDE8F08370B5054681481C
:108B00000C46006890F88C17C9060AD5007D2946E6
:108B100042002046FAF772FC21462846BDE8704024
:108B2000C6E721462846BDE87040FAF78CBC754878
:108B3000006890F829010106734802D50188491C94
:108B400001E06E498988018070472DE9F0476D4C3E
:108B500000273E462068B94690F8C800C1070FD0EC
:108B600081070DD569490A78C0F38201012000FA16
:108B700001F10A42664901D0087001E081F80090D5
:108B80005F4DDFF87881103D287828B1F9F765FE50
:108B9000C8F81C90BDE8F087FFF7C9FF206890F87F
:108BA0001801400701D5F9F78FFD5A4800780128D0
:108BB000EED0DFF864A100235A1E1946DAF8180037
:108BC000F7F786FD98F81C00C00715D05349686870
:108BD000FFF793FF2068077D417DB0F96E21504873
:108BE00007FB01F300EB47014C4800EB4700FFF7A0
:108BF000D4FC88F801000127B8F81C0010F4DE7FCF
:108C000046D0206890F8CD07C00705D0D5E902010D
:108C1000444AFFF7F9FE03E04249A868FAF7F7FB78
:108C200098F81C004546000607D520683D4990F895
:108C3000CC270846521CFFF7ADFE20683A4990F851
:108C4000F002C007374802D0FFF74EFE01E0FAF706
:108C5000DEFB206890F8F012C90701D0AE7800E082
:108C6000012690F84914890712D5427D2E4D012323
:108C700005EB42002D49FFF70BFC206801232C492E
:108C8000027D407D02EB400005EB4000FFF700FC59
:108C90002849D8F81C000860DAF81800F7F7D0FC6B
:108CA000254C012F03D10420E168F8F7B0F9012E1B
:108CB0007FF46EAF2148B0F90010002906DD491E8F
:108CC00009B2018011B90D2000F0A7FD042021692F
:108CD000F8F79DF95CE70146094810B510221038F5
:108CE000FAF78CFB144881680220F8F7C1F90028D4
:108CF00003D0BDE81040F7F785BB10BDD8291000A0
:108D0000443A10004C2810009C2810004B00002012
:108D10007628100094281000203810004089012087
:108D2000420001202C3E1000C08D0120888E0120C1
:108D3000AC8E012088281000083810009028100000
:108D400070B594B004466846FAF788FBFE48FF4BBE
:108D5000FF49C461E2072CD09DF8002042F00105D4
:108D60008DF800500A6892F87A67F60707D0F94E36
:108D70003678012E03D145F080058DF8005092F829
:108D80002051ED0715D0F44D2D7895B91D78032DA0
:108D90000FD0002C0DDB02F2211255788DF8125005
:108DA00015788DF8175092788DF8132044F480626E
:108DB000C26114F49E7F4FF0000545D00A6892F816
:108DC000A061F6070DD092F8CD67F60709D01B78A1
:108DD000052B12D09DF8003043F010038DF80030C1
:108DE00002E01B78052B08D092F87A27D2079DF86D
:108DF000002025D042F0060224E0002C1BDA92F875
:108E00007A37DB079DF8003002D043F0060301E01B
:108E100043F020038DF8003092F87037DB0703D061
:108E200092F873278DF836208DF83450C26942F0DD
:108E30008002C26108E09DF8003043F00203E9E7D8
:108E400042F020028DF80020E2051CD5C34A1278BA
:108E5000012A03D0C24A1278012A14D1096891F874
:108E6000B02112070FD58DF8345091F8CD17C907EE
:108E700005D09DF8001021F010018DF80010C16997
:108E800041F08001C161AFF2B11001906846F8F77E
:108E90005BFF14B070BD00EB80004FF6FF7101EA7C
:108EA0004000F8F71DBAA94810B50178A84805296F
:108EB000006807D0AB490978012906D090F81A411B
:108EC00034B106E090F81D41FAE790F81B41F7E74E
:108ED0001424F8F7EDFA002801DD04EB84042046A1
:108EE0000BE770B59A49054600200A6892F82040C1
:108EF000E1073ED095490B789349052B1CD092F899
:108F00003930994E36782EB1660603D492F849640A
:108F1000F6072FD0954E36780EB1A4062AD58C6868
:108F2000641C8C609C4224DD0020886092F8501103
:108F30000120C90718D108E00E7892F83A30032EC4
:108F4000DFD2761C0E708B60DBE792F8021259B903
:108F500092F8E012C90707D192F86012C90703D14D
:108F600092F8B011C90701D040F23D10284040F0FE
:108F7000004070BD5A428A6070BD2DE9F04FDFF8A5
:108F8000CCA1714C002378499AF800C0A0690A78F6
:108F9000E1461E469846C50719460DD06F4D2F78FD
:108FA000734D012F06D06778012F03D012B92F78A7
:108FB000012F01D129700126450601D502B10126F4
:108FC000420709D5694A1278012A03D0694A127802
:108FD000012A01D14FF001085E4F674D674A012E0B
:108FE0000ED05B4ED646BCF1030F36680ED04FF064
:108FF000010ABCF1020F15D0BCF1050F47D049E0C2
:10900000616121612970117039705AE02161297004
:1090100011706269521C626196F85D31934250DAB8
:10902000616149E0DFF858C19CF800C0BCF1010F54
:1090300027D0DFF850C19CF800C0BCF1010F20D050
:10904000DFF844C19CF800C0BCF1010F19D096F8BC
:1090500018C15FEA8C7C1DD56161D4F810C00CF199
:10906000010CE346C4F810C096F819C10CEBCC080B
:1090700008EB0C18BBEB880F0CD3216185F800A01E
:1090800023E06161216129701170397002E0B8F14B
:10909000010F0CD0B9F1020F0ED0B9F1050F14D0A9
:1090A0008EF800A0034023622A7872B32FE061613A
:1090B000216129701170397002238EF800303F232E
:1090C000F0E703238AF80030ECE74FF0050C8EF848
:1090D00000C010F00C0F15D01E235FEA807C0DD06D
:1090E00092F800C0BCF1010F08D196F81861F6069D
:1090F00004D511701B2387F800A0D3E782F800A0E5
:109100003970CFE71F231170CCE7FFE72170FFF71D
:10911000E8FE216A08432062BDE8F08F2DE9F041A6
:109120001A4E00235A1E19463068F7F7D1FAFFF796
:1091300024FF17490868002832DD0B4A12784ABB21
:10914000401E08602CD126E0D82910009428100079
:109150004C28100065281000A62810006D2810006B
:10916000702810006A28100066281000712810006E
:109170007228100073281000632810006428100063
:109180008D2810008E281000A7281000203810000D
:10919000842A100004E0C34841690220F7F737FF32
:1091A000C14CC24F206890F87A07C00707D0C0486A
:1091B0000078032803D0388B10F49E7F03D1FFF78B
:1091C00072FEFFF768FE2068BA4D90F8F007C007FE
:1091D00008D0286830B100212020F7F7C9FE002010
:1091E00028600CE0386AFFF7ABFD00210220F7F79A
:1091F000BFFE00210220F7F7E9FEFFF7A6FC30686A
:10920000F7F71EFA206890F8F007800701D50120D3
:109210002860BDE8F08110B500210120F7F7D6FEE7
:10922000BDE810407AE7F8F76BB82DE9F05F00274A
:1092300039460420F7F7CAFE9F48DFF870820668B7
:10924000D8F8181091EA06054CD0DFF870A2DFF8C4
:1092500070B2DFF8709235423C4626D029BB9A485E
:109260000127002104604FF6FF70F7F7AFFEC8F842
:109270001C40C8F82040C8F81040C8F81440C8F88E
:1092800008408AF8004089F8004087498BF8004080
:1092900088F80140096891F82911890705D58B489C
:1092A000A8F8044004808A480480042D05D1C8F839
:1092B0000C4088F8024089F800407D4D4046C8F8CF
:1092C00018608EB10221012F19D02A78052A09D100
:1092D0000461C8F814408AF8004089F800408BF80F
:1092E00000402970BDE8F09FF8F70AF801202870C7
:1092F000BDE8F05F00214FF6FF70F7F767BEF0079B
:1093000002D00320287000E02970BDE8F05F05E777
:1093100010B500211020F7F759FE654801780129A2
:109320000CD00521017061490020644A4861086140
:10933000012111706349087061490870DDE410B5BE
:1093400000210820F7F742FE59490878052813D173
:10935000564A0020594B506110611870594B1870D3
:10936000574B18709069C20701D0032003E010F03A
:109370002C0F02D002200870BFE48005FCD5042029
:10938000F9E710B500215D20F7F7F2FDF7F7A8FE29
:10939000010702D5BDE81040D1E7C10602D5BDE8FE
:1093A0001040B5E7410609D4410702D5BDE8104099
:1093B0003BE7C00702D0BDE810402CE79DE410B5A4
:1093C00002210020F9F793FE00210420F7F7D0FDD9
:1093D00002210120F9F78BFEF7F782FE400702D544
:1093E000BDE8104021E788E430490020304C886116
:1093F000C861012208622270304A08614861107019
:10940000304A344B10701E221A802D4A107048705A
:10941000C860887007E02078012804D00528FAD8B1
:10942000FFF7AFFFF7E7FFF7CAFFF4E71F49002098
:109430004861086121490870224908702049087074
:1094400070471A480021C1608170704710B5F8F765
:10945000AAFF16490020C8614FE410B5F7F750FF86
:10946000104881680120F7F703FE002803D0BDE80B
:109470001040F6F7C7BF40E480B2F7F75BBFF7F7DD
:1094800069BF10B5F7F766FF08488188491C8180DD
:10949000BDE810400120EFE70348006890F81C0188
:1094A000F9E40000083810004C281000D8291000FA
:1094B0009428100078281000882A100063281000D3
:1094C0006528100064281000882810009C281000CF
:1094D0009E2810009028100070B5FF4C0023054610
:1094E0005A1E1946A068F7F7F3F8002807D0284657
:1094F000F7F7E8FFA068BDE87040F7F7A1B870BDC6
:10950000F64B10B51B68024601201C8B944200D21A
:109510000020DA8A8A4200D2002010BDF7F7D2BFBD
:109520001CB500210091019102789DF8001062F3B2
:1095300003018DF80010427862F307118DF80010D6
:109540004289BDF8011062F30B01ADF801100289E8
:10955000BDF8021062F30F11ADF8021082798DF898
:109560000420C2798DF8052002798DF806208078D4
:10957000090900F0FE008DF80700BDF80100C0F3F6
:109580000B00FFF7BDFF012802D16846FFF7A4FFDB
:109590001CBD1CB500200090019002208DF8000039
:1095A000CF480068C007400E8DF807006846FFF7F7
:1095B00093FF1CBD1CB500210091019101788DF82D
:1095C000001041788DF80110C188C1F307118DF8A2
:1095D00002108188C1F307118DF80310017901F0A1
:1095E0000F018DF80410827941EA02118DF8041000
:1095F00081788DF80510C17801F00F018DF8061003
:10960000B7490968C907490E8DF80710B0F9041069
:10961000B0F90600FFF774FF012802D16846FFF792
:109620005BFF1CBD1CB5002000900190AB4800689A
:109630004178827810208DF800004006437A8DF83A
:109640000130A84B1B788DF8023043891B0A8DF836
:10965000033040898DF80400A1488DF805108DF87D
:1096600006200068C007400E8DF807006846FFF727
:1096700033FF1CBD1CB500200090019011208DF817
:10968000000097480068C007400E8DF80700684644
:10969000FFF722FF1CBD2DE9FC410646002000908B
:1096A0000190122015460C468DF800004FF0085727
:1096B0001EE0200A8DF80100C4F30B008DF8024073
:1096C000315C30448DF8031041788DF804108178B6
:1096D0008DF80510C0788DF80600D7F8E001C007B6
:1096E000400E8DF807006846FFF7F6FE241D2D1F7B
:1096F000002DDEDCBDE8FC811CB500220192009249
:109700000F228DF800208DF801008DF80610402002
:1097100073498DF80700012008606846F7F7D2FE0C
:109720001CBD1CB5002300930193DB238DF8003092
:109730008DF801008DF80210100E8DF80300100C4A
:109740008DF80400100A8DF8050065488DF8062094
:109750000068C007400E8DF807006846FFF7BCFEA2
:109760001CBD1CB50022009201920F228DF8002032
:1097700005228DF801208DF8020059488DF803105C
:109780000068C007400E8DF807006846FFF7A4FE8A
:109790001CBD7CB50025009519208DF80000400700
:1097A0000195417A8DF801104E4909788DF8021023
:1097B0004189090A8DF803104089484E8DF804004C
:1097C000474C306841788DF8051080788DF8060098
:1097D0002068C007400E8DF807006846FFF77CFE42
:1097E00000951A2001958DF80000306800F5FC60A6
:1097F00001788DF8011041788DF8021081788DF88C
:109800000310C0788DF804002068C007400E8DF862
:1098100007006846FFF760FE7CBD1CB52F4909684C
:1098200091F82911490603D400F00F010C2919D130
:1098300000210091019116218DF800108DF8010092
:10984000010A8DF80210010C000E8DF80400244866
:109850008DF803100068C007400E8DF807006846B9
:10986000FFF73AFE1CBD1CB500230093019316239D
:109870008DF800308DF80100080A8DF80200100AFA
:109880008DF8040016488DF803108DF80520006847
:10989000C007400E8DF807006846FFF71DFE1CBD8F
:1098A0001CB500230093019316238DF800300B2381
:1098B0008DF801308DF80200080A8DF804008DF84B
:1098C0000520100A8DF8060005488DF80310006881
:1098D000C007400E08E00000203810004C2810009F
:1098E000E0010022A42810008DF807006846FFF769
:1098F000F3FD1CBD1CB5002300938DF80000080A81
:109900008DF802000193100A8DF8050006488DF8C5
:1099100003108DF806200068C007400E8DF8070080
:109920006846FFF7D9FD1CBDE0010022974800689A
:1099300090F82A0100F00700801C00EB8000C000B6
:10994000F7F7E3BC2DE9F047914D286850B3DFF8F5
:10995000448200235A1E1946D8F81400F6F7B8FEC0
:1099600000240127286807FA04F6304213D004EBDC
:10997000440005EB800999F8040005280BD1042167
:109980008548F9F76FFAC1B209F10400FFF7C8FD85
:109990002868B0432860641C0A2CE3D3D8F814006C
:1099A000F6F74EFE7C48001F4068002802D0BDE854
:1099B000F047BBE7BDE8F087F7F7B7BC2DE9F05FEC
:1099C000754DDFF8D0A12D1F0023D5F804805A1E55
:1099D0001946DAF81400F6F77BFEDFF8B0914FF085
:1099E000005BD9F8000090F82901800702D500211A
:1099F0008BF80510002766480126BE4001683142F9
:109A000039D007EB470200EB82042279032A09D000
:109A1000042A07D0052A2ED1D9F8002092F829214E
:109A2000D20628D4B14301602079032802D004284B
:109A300004D018E0686806436E6014E0D9F80000AE
:109A400090F82A0100060BD5052020710421524808
:109A5000F9F708FAC1B2201DFFF762FD042020715A
:109A60006868B043686004214B48F9F7FBF9C1B25C
:109A7000201DFFF755FD7F1C0A2FBCD3D9F800002D
:109A80004C4690F82901800702D580218BF80510FB
:109A9000DAF81400F6F7D4FD206890F82901C00622
:109AA0000ED56868B8F1000F05D0002808D1BDE8D0
:109AB000F05FF7F73ABC002802D0BDE8F05F35E769
:109AC000BDE8F09F34490020091F48607C213048E0
:109AD00005F09DBA304D00262D1F2E70F7F725FC9E
:109AE000287840B30128FBD107200021F7F740FA7E
:109AF000F7F7F6FA0446400706D500210420F7F7E9
:109B000065FAF7F712FC2E70A00705D50021022098
:109B1000F7F75CFAFFF752FFE007E1D000210120E0
:109B2000F7F754FA1948006890F82901C006D7D50C
:109B3000FFF708FFD4E7002108240846F9F7D7FA11
:109B400000212046F7F714FA00210120F9F7CFFA97
:109B5000F7F7C6FA0007C3D5FFF7B4FFF7F7E5FB41
:109B600000210F20F7F732FA01202870B8E710B56E
:109B7000F7F7DBFB094801680120F7F779FA0028BD
:109B800003D0BDE81040F6F73DBC10BD4C281000D6
:109B90008037100020381000002A1000083810000C
:109BA0002DE9FF5F7A4810230026016891F86704C9
:109BB000020900F00F00CDE90220B1F8680400901E
:109BC000B1F86A04019091F823204C7DA3EB121A9E
:109BD000704B4FEA121B087D1A68641C521C1A60F5
:109BE00091F866544443B2EB151F00DD1E605A68BD
:109BF00005F00F05521C5A60954200DA5E60DFF8EE
:109C000098C1DFF89891664F74E000BF91F820206A
:109C1000520632D437F91080B1F926603CF9102091
:109C200008EB0605954264DBB1F92860A8EB060550
:109C300095425EDC08FB0BF502FB0A524FEAE27527
:109C400002EB157242F30F1E91F8D020520711D586
:109C5000AEEB08020FFA82F85FF0000202EBC206D8
:109C600009EBC615521C35F81060042A464425F845
:109C70001060F3DB27F810E03BE037F910E0B1F9B2
:109C800026603CF910500EEB0602AA4231DBB1F916
:109C90002860AEEB0602AA422BDC0022754504DAEE
:109CA0005D688DB9039A52420BE01E6866B9029A4C
:109CB000009EA5EB0E0512B2B54205DD019A954254
:109CC00001DD12B200E032B291F8D0506D070DD52F
:109CD0005FF0000505EBC50809EBC8166D1C36F8EA
:109CE0001080042D904426F81080F3DB724427F88E
:109CF0001020401CA04289DB91F8200000070CD501
:109D00002748F9F72EFA2749274A086004B0014688
:109D1000BDE8F05F2248F9F775BABDE8FF9F10B5BE
:109D20001B4C206890F84904C00703D0FAF714F8D8
:109D3000012817D0206890F82000C10727D01B49C0
:109D4000097809B1400622D5194C00235A1E19463C
:109D5000E068F6F7BDFCFFF723FFE068BDE81040C0
:109D6000F6F76EBC1348016841F005010160124826
:109D7000016841F02001016010490120087010487D
:109D80004168BDE810404FF48060F7F740B910BD5E
:109D90004C281000042A100040890120C204012030
:109DA000420001208428100060371000662810004F
:109DB0002038100050281000582810005428100097
:109DC00008381000FE4900200870704700E0104677
:109DD0000A5C8242FBD1704770B500250E460346EF
:109DE0002C4606E019462046FFF7F0FF1855641C84
:109DF000E4B2B442F6D300220AE0985C904203D168
:109E00009D546D1CEDB201E0185C9854521CD2B206
:109E1000B242F2D3284670BD38B1884202D20B4616
:109E200001461846884200D01154084670472DE973
:109E3000FF4F99B001200490E24819689A460068E3
:109E4000067D477D41B19AF802109AF8009050467D
:109E5000B14205D2491C04E04FF000094D4608E02C
:109E6000314645789AF80300CEB2B84200D2471C7A
:109E7000FFB2002007A90854401C2D28FAD31999D5
:109E800005EB051001EB400C681C67E01998E346F0
:109E900008EB081100EB410C09F101045AE000BF86
:109EA0000CEB04001590006810B31CF8040000B31C
:109EB0001598002310F8010C00B103461BF804109C
:109EC00021B107AA1846FFF7A7FF03461A980028F2
:109ED0000BEB04000ED0159010F8011C21B107AA5D
:109EE0001846FFF799FF034615984178D9B91FE046
:109EF000E41C2EE0189010F8011C59B115981BF8BD
:109F0000042010F8010C104304D007AA1846FFF7EC
:109F100083FF03461898417851B115981BF8042027
:109F20004078104304D007AA1846FFF775FF034690
:109F300013B10CF804300CE004982D2806D20CF86C
:109F400004000498401CC0B2049002E0401E0CF8CB
:109F50000400641CB442A3D908F101008046B84251
:109F600094D907A80499FFF737FF804641001B9852
:109F700005F02BF800204FF6FF7202E04AF820208F
:109F8000401C4045FAD33BE0199905EB051001EB65
:109F9000400022304C4605902FE005980119012021
:109FA0004058A8B3487838B307AA105C48701B998A
:109FB0001B9A0AEB800B31F81010491C22F8101084
:109FC0009BF800102046F8F760FF8BF800009BF824
:109FD00001102846F8F759FF8BF801009BF8021092
:109FE0002046F8F756FF8BF802009BF8031028462E
:109FF000F8F74FFF8BF80300641CB442CDD36D1CFF
:10A00000BD42C1D3A8F101001DB0C0B2BDE8F08FC0
:10A01000FFE7E41CF0E72DE9F043994655784FF04F
:10A02000010C1BE005EB051300EB43062236002371
:10A03000147897780CE000BF06EB040898F90180CB
:10A04000884503D10CFA04F848EA0303641CE4B21F
:10A05000A742F1D249F825306D1CEDB2D378AB425E
:10A06000E0D2BDE8F083F0B5554B0026554D1C7885
:10A0700094B0012C11D11E700B78002B5AD04B7864
:10A08000002B57D02B688F781C7D641EA74251D0BF
:10A090005B7DCC785B1E9C424CD000234FEA0D04C4
:10A0A00044F823605B1C142BFAD34B7891F803C05F
:10A0B0001BE000BF50F82370B7B17E0846EA4706A0
:10A0C0003E4354F82370374344F8237004EB83076E
:10A0D000D7F804E04EEA060EC7F804E0D7F808E027
:10A0E0004EEA060EC7F808E05B1C9C45E2D200234E
:10A0F00004EB8306766840F823605B1C122BF7D3D1
:10A10000012A17D1087808B1401E0870487808B1B4
:10A11000401E48702A688878127D521E904201DAEB
:10A12000401C88702A68C878527D521E904201DA1D
:10A13000401CC87014B0F0BD2DE9F0478246107D78
:10A14000012873D14C781F4E01234FF003096AE0B8
:10A1500030685AF82450027D601C42431A48006857
:10A1600000EB42000A7811E003FA02F72F420DD00B
:10A1700000EB420730F9128037F902CCB7F90270D0
:10A18000C444BC449CFBF9F720F812708F78521C31
:10A190009742E9DC0A785AB303FA02F72F420DD04E
:10A1A00000EB420730F9128037F902CCB7F90270A0
:10A1B000C444BC449CFBF9F720F812708A7805E08F
:10A1C0000C2A10004C2810008028100037683F7DB2
:10A1D000974203FA02F707EA050714D117B300EB19
:10A1E000420530F9127035F9025C3D446D1017E0FC
:10A1F00015F0010FE2D0B0F90020B0F902703A4436
:10A2000052100280DAE76FB100EB420530F912C05C
:10A2100035F9027CB5F9025067442F4497FBF9F5F4
:10A2200020F81250641CC878A04291DABDE8F0878B
:10A230002DE9F05F9B4600230D46144619464FF466
:10A24000803A012A01DA002203E000EB840252F88E
:10A25000042C50F82490AC4201DB002002E000EB1B
:10A2600084004068824202DD0346114602E001DAC2
:10A2700013460146A0EB02024FF4803CA2FB0C08FF
:10A280004FEAE27707FB0C874FF0000602FB0676E9
:10A290004944C3F1000201EB42024FEAE273314646
:10A2A00004F022FE4FF48036A4FB063CE7170A4672
:10A2B00007FB06C6002104FB0161181851412A461C
:10A2C000EB1704F011FE0246A2FB0B0501FB0B513C
:10A2D0004FEAEB7402FB04115246002304F004FE23
:10A2E00000B2BDE8F09F2DE9FF5F002704463D4620
:10A2F0003E468821F748DDF83C9004F088FEDFF800
:10A30000D8E36078DFF8D4B3DEF8003031E02178AC
:10A310002BE000BF93F814C0421C02FB0C1C9246B9
:10A32000DBF8002032F91C20BA420CDDDFF8A4C3B0
:10A330006D1CADB25CF820C016440CEB0208DFF8CF
:10A3400094C34CF8208099F81420012A0CD11A7D6E
:10A35000DFF88CC302FB0AF20CEB010A12F80AC008
:10A360004CF0800802F80A80491CA2788A42D1DAAF
:10A37000401C94F803808045C9DA00210A466078C1
:10A3800008E0DFF850C35CF820C08C4501D9614675
:10A390000246401C8045F4DA597DF046491E12B24F
:10A3A000CC48029BFFF744FF0E9908608821C948FA
:10A3B00004F02DFE2078C74ADBF800A0D8F800C0D2
:10A3C00015E061780FE000BF9CF814804B1C03FB84
:10A3D00008083AF91830BB4204DD52F820804344A3
:10A3E00042F82030491CE3788B42EDDA401CA1781A
:10A3F0008142E6DA00231F46207806E052F820402A
:10A400009C4201D923460746401C8142F6DA9CF85B
:10A4100014103AB2491EAF48019BFFF709FF039998
:10A420000860C9F80860A9F80450BDE8FF9F2DE94D
:10A43000F74FA94E8C46002731681446127DB1F8BB
:10A4400068A084B03D463846B94612B1012A03D00F
:10A4500012E0B1F8C8A10FE091F8A02052070BD587
:10A4600002A8CDE90004B1F91820B1F9161003AB28
:10A470006046FFF738FF6DE09CF8011039E0049A60
:10A4800052F821B09CF8001003912BE0012191407B
:10A4900011EA0B0F24D031680B7D02999E4601F121
:10A4A000010808FB03218D4B1B6833F9111051453E
:10A4B00006DD531C03FB010008FB01990D447F1CC2
:10A4C000217D01295DD0864B00290EFB08F1134444
:10A4D00011F803805ED048F0200800BF01F8038027
:10A4E000521C03929CF80210039A9142CEDA029910
:10A4F000491C02919CF803208A42C0DA3268411B51
:10A500009246D28A4FEAE17CA1FB02080CFB028250
:10A510004FF0000B01FB0B219AF81420521E6A43E6
:10A52000D31704F0E1FC0390A9EB05013268CB17C7
:10A530009146128BA1FB020803FB028201FB0B2157
:10A5400099F81520521E6A43D31704F0CDFC0290EF
:10A55000A560A780207D0028306890F880001CD07E
:10A56000C00604D5002202A903A801F06DFA02A9D1
:10A5700003A8F9F701F8039860800298208007B0DB
:10A5800044E5574B0EFB08F1134411F8038048F0E3
:10A590008008A3E748F04008A0E78006E7D501223D
:10A5A000E1E72DE9F04F4C4C4C4B834600204A78B4
:10A5B0004FF0010AD4F80090CE78D3F8008015E06F
:10A5C0005BF822700B78541C8D780CE00AFA03FCBF
:10A5D0001CEA070F06D099F814C004FB0C3C38F9AC
:10A5E0001CC060445B1C9D42F0DA521C9642E7DAC4
:10A5F0000CE52DE9F04381465078079E23E000BF2B
:10A60000354B00EB0014354D1B6809EB4404223434
:10A610001B7D401C2D68434305EB430513784FF029
:10A62000000C0CE0E71897F80180884505D135F952
:10A630001380B04501DC87F801C05B1C1BB2977822
:10A640009F42EFDA00B2D3788342D9DA09E52DE9E7
:10A65000F0410746107D204D14460E46022807D1D2
:10A660002968E08891F86610884201D90320207596
:10A670000422314604F11000F8F7C0FE3146384696
:10A68000FFF78FFFE060012231463846FFF7EBFC11
:10A69000286890F88C07C00604D522463146384613
:10A6A000FFF74AFD224631463846FFF7C0FE2046F6
:10A6B000BDE8F04103F0F1B930B595B01C46154640
:10A6C0006B46FFF7A8FC224629466846FFF7BFFF06
:10A6D00015B030BDF43E10004C281000802810004A
:10A6E000349D01202DE9FF4F86468A4600204FF613
:10A6F000FF755378D67826E003EB03140EEB440C79
:10A7000014780CF1220CFE49DFF8F8B39778D1F8F1
:10A71000009014E00CEB040191F80180D0450CD1BD
:10A7200099F81480591C01FB08483BF8181088421E
:10A7300000D208468D4200D90D46641C24B2A742BF
:10A74000E8DA5B1C1BB29E42D6DA039908800D99A9
:10A750000D8004B05AE42DE9F04F9B4682465378B1
:10A760002AE000BFE84D03EB03100AEB4004AD689C
:10A77000223405EB400522351078E14FDFF884C321
:10A780004FF0010913E0261876788E420DD13E680D
:10A7900096F814805E1C06FB08063CF916605E45C0
:10A7A00003DD05EB000888F80190401C00B29678A4
:10A7B0008642E8DA5B1C1BB2D0789842D2DA25E4F4
:10A7C0002DE9F047CE4F8246C8B03868DDF84081A9
:10A7D0001E4690F8705046A800908946144645AB36
:10A7E0005046FFF77FFF307D30B9C8480078012818
:10A7F000386829D090F8CE51BDF81411BDF8180171
:10A800006422091A6943B1FBF2F1BF4F0D184FF4EE
:10A810002A71B86804F0D9FBABB2224649465046CB
:10A82000FFF799FF2068019001AB2EAA0121B868BB
:10A83000FFF7FDFA0546012820D901240DF1B80AD9
:10A840000DF10409B84615E090F86E57D4E700BF43
:10A850003AF81400F08009EB84073146384601F0DD
:10A86000A1F933463A462146D8F80800FFF724FFFD
:10A87000641CE4B2AC42EBD948B0D7E4334622467C
:10A8800049465046CDF80080FFF7B3FE33462246D6
:10A8900049465046FFF710FFEEE72DE9F04F9C4D7B
:10A8A000974E14782D7892783768012D03D097F859
:10A8B00071501CB103E097F8C950FAE7012497F8EA
:10A8C00014809446A8F10107BA4202D1ACF101020A
:10A8D000D2B203EB031C00EB4C078B4822375B1C06
:10A8E000806808FB03F800EB4C0C86480CF1220C46
:10A8F00000EB48034FE038194078884249D1DFF82F
:10A90000148233F91400B8F90080404541DD03EBAF
:10A910004409284439F902BC4FF0000A584503DACB
:10A92000B9F90280404534DB012C10D0D6F8008004
:10A9300098F81480A8F10208A04512D139F9048CC6
:10A94000404521DAB9F90280404522DB1CE0B3F929
:10A950000200B3F900802844404515DAB3F90680B7
:10A96000F2E7584505DAB9F90480404501DA4FF0BD
:10A97000010A39F9048C404503DAB9F902804045EF
:10A9800007DBBAF1000F04D10CEB0408012088F8B2
:10A990000100641CE4B29442ADD929E62DE9F74FD9
:10A9A00097B05478D778002013905948DFF850A119
:10A9B00015460178DAF80000012905D071300678D3
:10A9C00090F8019014B107E0C930F8E7DDE917010C
:10A9D00001240023FFF761FFDAF80010E878497DD1
:10A9E000491E884207D1401EC7B2CBB2DDE917012C
:10A9F0002A46FFF752FF0AE1179904EB041001EB16
:10AA000040034149223304F1020C896804F1010E2C
:10AA100001EB400022300B90DAF80000611E007D4F
:10AA200000FB01F2374900FB0CFC01EB42020692ED
:10AA300000FB04F201EB4202099200FB0EF201EB73
:10AA40004C0B04F1030C00FB0CF001EB40000790F1
:10AA500001EB42022878D4E0191891F801C0189946
:10AA60008C457CD12B4932F910C0B1F900108C45CE
:10AA700075DD0021DDF8248011910CEB060138F919
:10AA80001080CDF83880414507DA3BF91080414508
:10AA900003DA4FF00108CDF84480E8B3DAF800801B
:10AAA000CDF8588098F81480CDF85480A8F10108AA
:10AAB000804531D002EB4008CDF8288038F9028C6F
:10AAC000CDF82080414509DADDF82880B8F9028008
:10AAD000414503DA4FF00108CDF84480DDF82480C9
:10AAE000CC4408EB4008CDF8488038F9028CC445C6
:10AAF00017DA0BEB4008B8F90280C44511DA0CE014
:10AB00004C281000F4A701200C2A1000A6281000E1
:10AB1000762810004E2A10005EE04FF00108CDF8B4
:10AB20004480DDF84880B8F90280C44505DA0BEBB3
:10AB3000400838F9028CC44561DBDDF844C0BCF143
:10AB4000000F5CD1DDF858C09CF815C0ACF1020CC8
:10AB5000A4450FD0DDF838C061450BDA00E03DE0D8
:10AB6000DDF81CC03CF910C0614503DA4FF0010C60
:10AB7000CDF844C0012C0DD0DDF818C03CF910C050
:10AB8000614507DA3BF910C0614503DA4FF0010C6B
:10AB9000CDF844C0012822D0DDF854C0ACF1020C3D
:10ABA00084450DD0DDF820C0614509DADDF828C004
:10ABB000BCF904C0614503DA4FF0010CCDF844C084
:10ABC000DDF828C03CF904CC614505DADDF828C081
:10ABD000BCF902C0614512DB119951B10FE0B2F925
:10ABE0000210B2F900C031446145F5DAB2F906C08D
:10ABF000F0E70B994FF0010C014481F801C0401CB3
:10AC0000C0B2A9788142BFF427AF0EF0FF04BC4266
:10AC10007FF6F2AE13981AB0EAE42DE9FF4FFD4C2F
:10AC20000E460746C5B015464FF42A71A06804F0D9
:10AC3000CCF92A4631463846FFF7B0FE29686E4601
:10AC40000091B8BB33462DAA0021A068FFF7EFF8AA
:10AC5000074601282FD902F08BFF0125DFF8B883C2
:10AC60000DF1B409AA4618E0D8F8001039F815001B
:10AC700091F8751088420FD984F800A04899C880CF
:10AC800006EB85008346489900F08CFFE9B25A46EE
:10AC9000489BA068FFF710FD6D1CBD42E4DDD8F8AD
:10ACA000000090F84004800702D4002002F065FF05
:10ACB00049B09DE4FFE7321D0121489BA068FFF7E2
:10ACC000FBFCF5E72DE9F04F8246D348002591467D
:10ACD000D0F800602A462B4609EB0300401E21D421
:10ACE000747D84421EDDCD4C377D00F10100246867
:10ACF00007FB00F004EB400803EB430C4FF00000AF
:10AD00000AEB4C0B01EB0004641E08D4A74206DDDD
:10AD10003BF910C038F91440624404FB0C55401C48
:10AD20000328EFDB5B1C032BD6DB02B9012295FB6A
:10AD3000F2F05DE42DE9FF4F84B00C460146407807
:10AD4000DDF844B000B1401EB34F00F0FF09C878F1
:10AD50003E68727D551EA84201DA401C00E0501E7C
:10AD6000C5B2087800B1401E00F0FF0A307D897836
:10AD7000421E914201DA481C00E0401EC6B2B4F9FE
:10AD8000120009F1010102906CE0DFF88C824F1C87
:10AD9000D8F80000007D00FB07F248430BEB4202AD
:10ADA00003EB4000CDE900200AF1010057E09A4989
:10ADB000096891F814E007FB0E0103EB4101B1F9BA
:10ADC000022006998A4245DD0199B4F9008001EB21
:10ADD00040010022B1F900C00CFB0822B1F902C009
:10ADE000B4F902800CFB0822B1F904C0B4F9048064
:10ADF00001EB4E010CFB08220392B1F900C0B4F93B
:10AE000006800CFB0822B1F902C0B4F908800CFBE3
:10AE10000822B1F904C0B4F90A8001EB4E010CFB21
:10AE20000822B1F900C0B4F90C800CFB0822B1F97A
:10AE300002C0B4F90E80B1F904100CFB0822B4F979
:10AE400010C001FB0C21029A91FBF2F1009A22F84A
:10AE5000101002E0009921F81020401C00B2B0420E
:10AE6000A5DB39B2A94290DB4F4615E0017D781C85
:10AE700041430BEB410800903A4651462046FFF70C
:10AE800021FF28F81A003A4631462046FFF71AFFFC
:10AE900028F81600009807B25F48AF420068E5DD69
:10AEA000007D691C41430BEB4101009109F1010157
:10AEB00048430BEB4008574610E04A4639462046C7
:10AEC000FFF700FF28F817002A4639462046FFF70B
:10AED000F9FE009921F817007F1C3FB2B742ECDD64
:10AEE00008B06CE42DE9F74F8646507800B1401E5B
:10AEF000494ED178C0B235686B7D5C1EA14201DA43
:10AF0000491C00E0591ECCB2117801B1491ECBB2E8
:10AF100091782A7DB246551EA94201DA4A1C00E00A
:10AF2000521ED5B22DE000BFDAF80010421CDFF847
:10AF3000F4B0097D5143394A126802EB4106384AA0
:10AF400002EB410700EB00120EEB420222321946DF
:10AF500014E000BF37F911C002EB010926F811C057
:10AF600099F80180B8F1000F07D1BBF90080C44502
:10AF700003DDDDF804C089F801C0491CA942E9DD00
:10AF8000401CA042D0DDBDE8FE8FF8B50E46264934
:10AF90000746069809781546022916D21F4A93F8E3
:10AFA00014C01F4913681C4ABCF1000F14680DD06F
:10AFB00094F84020920608D5012806D10091B4F9F2
:10AFC00058201A492846FFF7B5FEF8BD94F8C0018D
:10AFD0008206FAD54006F8D50091B4F9C421144987
:10AFE0002846FFF7A7FE2A4631463846BDE8F84016
:10AFF00078E738B51C7DFCB1074C246894F86040B4
:10B00000E5071BD00B4C00BFB4F900400094FFF7DC
:10B01000D7FB38BD0C2A10004C28100080281000E7
:10B02000F4A70120462A10007428100036F400000E
:10B0300022F400004E2A1000FD4CE5E7A407E8D5F5
:10B0400001B0BDE83040E8E52DE9F0478146F94818
:10B050008A4600230168184601250E7D4F7D1DE0BC
:10B0600000EB001409EB44042234194612E000BF3F
:10B0700052F8208005FA01FC18EA0C0F08D004EB06
:10B08000010898F801C0BCF1000F01D188F801A0B7
:10B09000491CC9B2B142EBD3401CC0B2B842DFD3A5
:10B0A000BDE8F087F0B55478002613E004EB0413F4
:10B0B00000EB43052235137807E0EF1897F801C03D
:10B0C0008C4500D17E705B1C1BB297789F42F4DAEE
:10B0D000641C24B2D378A342E8DAF0BDD64A10B596
:10B0E000127801243AB9D34A126892F86020120704
:10B0F00018D5012916D181780278891A01D5C1F1B4
:10B10000000101F10101CAB2C1784078081A00D5E6
:10B110004042401CC1B21046F7F7B7FEC0B201284A
:10B1200000D10024204610BD2DE9F04FC14BC34C87
:10B130008A46834601205178D778D4F800901D685C
:10B1400022E000BF01EB01140BEB4404223413781E
:10B15000967815E004EB030C9CF80180D0450DD1E6
:10B1600095F8148001F1010C0CFB083839F918C06E
:10B17000B5F8D281E04501DA002003E05B1C1BB288
:10B180009E42E7DA491C09B28F42DBDA05E430B5AA
:10B19000A84CAB4A2468B2F90030AA4A34F9A85F37
:10B1A000B2F90020B4F9024029B9A749B1F9003039
:10B1B000A649B1F90020A04201DD104630BDA842E9
:10B1C00001DA184630BD201AD11A4843611B90FBA2
:10B1D000F1F0101A00B230BD2DE9FF4F1078B5B074
:10B1E0001D46164600B1401E924BC0B231901A68FF
:10B1F000B178107D841EA14201DD401E00E0481C94
:10B20000C7B2707800B1401EC0B20090507DF17896
:10B21000821E914201DD401E00E0481CC0B20024A5
:10B220002890A34618210EA803F0F1FEA046DDE900
:10B230003501C246C14614AB3246FEF7ECFE30780B
:10B2400040B97078D8B17B48F1780068407D401EE5
:10B25000814214D07749B37808682D90027D501E42
:10B26000834204D196F801C0BCF1000F07D083429D
:10B270000DD12D98F378407D401E834207D16D4853
:10B280000068B0F8AA00801CA5F81F0070E06B4BA6
:10B290000098D3F800E013E0411C51430EEB41034A
:10B2A0000FFA80FC319908E033F91160464503DD5F
:10B2B000B0460FFA81FAE146491CB942F4DD401C60
:10B2C00028998842E8DDA9F1020003AA061D1FE0C3
:10B2D0002D99431C097D59430EEB4107002122F8AB
:10B2E0001410AAF102010B1D08E000BF32F814C0CF
:10B2F00037F81180491CC44422F814C09942F5DD86
:10B3000032F81430641C03EB0B010FFA81FB401C74
:10B31000B042DDDD042300220EA903A8F7F732FEB8
:10B32000DDE91201DDE90E2303F0DEFD4FF47A7151
:10B33000484390FBFBF0404204B2A5F81F400121B6
:10B340002046FFF724FF06463A48006890F8F007C9
:10B3500000060AD53E49369821F81040A88B2146B0
:10B3600046EA00424420FEF7DCF9A88BB04202DD39
:10B37000012039B0DDE40020FBE72DE9F0439946D8
:10B3800080460020537822E003EB031408EB4406C8
:10B39000284C2A4F223624685D1C3F68247D6C436C
:10B3A00007EB440C14780EE037197F788F4208D1F0
:10B3B0003CF91470874204DDA9F802403846A9F828
:10B3C0000030641CE4B29778A742EDD2EBB2D47897
:10B3D0009C42D9D2BDE8F0832DE9FF4F83B01878A5
:10B3E000109C92461E46A070987820705878E070A5
:10B3F000D87860704FF0000B5F785EE0039907EB40
:10B40000071001EB400101F12209049901EB400012
:10B4100000F1220807480068017D781C4143019033
:10B420000648006800EB41000090357840E00000DD
:10B43000522A10004C281000742810008028100098
:10B440004E2A1000502A1000482A10004A2A1000E4
:10B45000F4A7012009EB05004178514522D100985D
:10B4600030F91510119881421CDD0BF101001FFA13
:10B4700080FB21782846F7F708FD20706178384670
:10B48000F7F703FD6070A1782846F7F702FDA0707A
:10B49000E1783846F7F7FDFCE07008EB050080F82E
:10B4A00001A003E008EB0500002141706D1C2DB2E6
:10B4B000B078A842CEDA019807B2F078B8429DDAA7
:10B4C000584607B035E4FF490278096822B10A7D81
:10B4D0008378521E934208D1427822B1C278487DC7
:10B4E000401E824201D1012070470020704730B5D4
:10B4F000054695B0F34800238DF8503002680C469D
:10B50000107D401E8DF852008DF85130507D6B46F5
:10B51000401E8DF8530014AA2846FEF77CFD002239
:10B5200014A96846FEF79FFD6A4621462846FFF7A4
:10B530008BFD15B030BD2DE9F14FDCB003205390E9
:10B54000E148E24CDF4D00684FF0000800F52A7139
:10B55000C4E90101296891F86020D30701D192075D
:10B5600001D54FF00108DA4A1278012A13D091F878
:10B57000C011C1F3C00189464FF0000B1BAB02AAFA
:10B580000121CDF86CB0FEF752FC2B680746012074
:10B590001A7DA24618E091F86217C1F34001EAE76C
:10B5A000012100EB0016DFF82CE309E0DAF8044093
:10B5B00001EB460C14F80CC00EF802C0521C491CDA
:10B5C0001C7D8C42F2DA401C597D8142E8DAC24887
:10B5D0000178012907D00022C049BF480124CA834D
:10B5E00080F800B0F4E1BB22F6E7E1B202A88DF8E2
:10B5F0003E1130F81400ADF826011BA800EB8402C0
:10B60000199259ABDAF80400FFF7B7FEADF83C0128
:10B61000ADF83FB18AF800B0BDF96611064659B1E0
:10B62000BDF9640140B12A68137D5B1E994203D0C5
:10B63000517D491E884201D1012000E00020569032
:10B64000286890F8A010C9070CD0A14909780029F2
:10B6500008D1A34990F8A72009888A42A14909780E
:10B6600001D211B17CE002297AD201218DF8341186
:10B6700090F8A41052919B490978012905D190F8BE
:10B68000BC205299114489B252915699012964D033
:10B6900090F8A50051909448E2B2B0F900105BA870
:10B6A000CDE90001199BDAE90101FFF795FE89490F
:10B6B000ADF826010855894901EB440188824E8185
:10B6C000529988424CD95199884249D88648B0F954
:10B6D0000000864244DD286890F8A000800713D55A
:10B6E000E1B248AB5BAADAF80800FFF775FD012864
:10B6F0000AD0286890F8A010090731D590F8AD104D
:10B700007A48007881422BD2794901200870774825
:10B710000178491CC9B201702A6892F8AD308B4299
:10B7200002D292F8AE1001705198E1B2C0B25390BB
:10B730000220ADF83601ADF838018DF835B148ABCF
:10B740005BAA5646DAF80800FEF7B6FFE1B25BAA3C
:10B75000B068FFF7A7FC3AE102E090F8A60099E78D
:10B7600056991998FFF7BAFC0128F4D16148B0F94D
:10B7700000108E4272DD012F19D102AA32F8143066
:10B780002A6892F89D20934211D953490120E3B2CF
:10B79000087048A8009058485646199ADAF80410DC
:10B7A000006800F01BFA04208DF8340109E15BA861
:10B7B000CDE90001DAF80410E2B2199B0846FFF760
:10B7C0000BFE0DF1080C2CF81400ADF826012868CA
:10B7D00090F865604348007848B11998FFF773FE08
:10B7E000012828683BD090F8BD00304486B202A8FA
:10B7F00030F81400B04263D93D490120E3B208702B
:10B80000354956460870394948A881F800B000907B
:10B810003948199ADAF80410006800F0DFF929684D
:10B8200002A830F8140091F86720904225D2022235
:10B830008DF83421BDF83A31B1F86E1042468B4292
:10B8400000D20022539988420CD35AB10092E1B23F
:10B8500048AB199A7068FFF798FBABE011E090F8DD
:10B860007600C2E72348E1B248ABB0F9000000908F
:10B87000199A7068FEF7BDFEA3E004208DF834012C
:10B88000F0E7286890F8C011C90719D01B4909686A
:10B89000B1B11B49097899B98DF834B190F8C0015C
:10B8A0005E46400705D5E1B21BAADAF80400FFF7AF
:10B8B0001EFE074847F6FF720078012831D021E0CC
:10B8C0007EE000004C2810007C2810000C2A10009C
:10B8D000A6281000349D01206E281000F4A7012036
:10B8E0001A2A100074281000502A10006F28100027
:10B8F0006D2810004E2A1000802810009C010022A4
:10B900006728100056980128354800780DD0012886
:10B91000286813D090F8CB0132490978012910D05A
:10B9200014E0286890F86307F6E70128286802D039
:10B9300090F8CD01F0E790F8CC01EDE790F8CA015E
:10B94000EAE7296891F8D911084480B202A931F8D0
:10B95000141081423BD9914239D85C980221E3B25C
:10B9600001702148067048A8009020485646199A50
:10B97000DAF80410006800F031F9CDF80090E1B277
:10B9800048AB199A7068FFF700FB286890F8C0016F
:10B9900080070CD512480078012808D1E1B2199A25
:10B9A0007068FFF7C1FB012801D111490870B9F196
:10B9B000000F06D0E1B248AB199A7068FFF719FB87
:10B9C00005E0E1B248AB199A7068FEF775FE641C99
:10B9D000BC427FF60AAE5DB0BDE8F08F7047000054
:10B9E00068281000742810006F28100080281000AC
:10B9F000442A1000F0B50024491E05680BE000BF82
:10BA000032F91470AF4205DC02EB4406B6F902705D
:10BA1000AF4202DA641C8C42F2DB8C4213D032F962
:10BA2000146003EB440133F91430B1F9021002EB56
:10BA30004402AD1BC91AB2F902206943921B91FB63
:10BA4000F2F119440160F0BDF0B50E461D494FF00A
:10BA5000000C130009686446624604D0012B09D02B
:10BA6000022B0ED018E091F871C491F8704401F2E5
:10BA700072410CE091F871C691F8704601F2726162
:10BA800005E091F871C591F8704501F272510A46CE
:10BA90000CEB04013E2914DC02EB4C0303EB4C05D8
:10BAA00005EB4407BCF1010F02DD6146FFF7A2FF81
:10BAB000012C06DD3B462A4621463046BDE8F040D3
:10BAC00098E7F0BD4C2810004FF47A72504390FB79
:10BAD000F1F17D4810B5814201DAC01110BD42F686
:10BAE000A640814201DD5A2010BD784A002000BFE7
:10BAF00032F910308B4205DC02EB4003B3F902301F
:10BB00008B4202DA401C4528F2D332F9104000EB98
:10BB1000800302EB4000091BB0F90200553B001BFB
:10BB200001EB810191FBF0F0184410BD30B50D46DA
:10BB30000446FFF7C9FF00EBD0704010002D02D083
:10BB40000DDD34B130BD002C03D005DD4FF02D00EC
:10BB500030BD4FF0000030BD4FF05A0030BD002C1A
:10BB600003D005DD00F15A0030BD6FF0590030BD43
:10BB7000A0F15A0030BD10B58C1A00D564420028DF
:10BB800000DA404204EB400011440A18081A52102F
:10BB900040104FF47A71484390FBF2F0C0F57A7090
:10BBA000588310BD30B582780378CD88D21AC37817
:10BBB0004078521C1B1A5B1C05FB02F0D4185D4335
:10BBC00040006A00B0FBF4F0B2FBF4F2904202D9FC
:10BBD000C8820A8330BDCA82088330BD2DE9FF4F79
:10BBE0001646002284B01046154696469346924665
:10BBF000747896F8039036E0059904EB041301EB92
:10BC00004301223103913378029396F802C027E072
:10BC1000039919444F7807998F4220D12C4909681C
:10BC20000F7D611C01FB0737049901EB4701A9EB6C
:10BC30000407B1F902107F1CCDE9001702995F1AC1
:10BC400000997F1C0A44794301FB07BB019F08440C
:10BC500001FB07EE0099794301FB07AA0D445B1C29
:10BC60009C45D5DA641CA145C6DA4FF47A7141438C
:10BC700091FBF2F14FF47A736B4393FBF2F201FB09
:10BC800005F44FF47A7394FBF3F7414391FBF3F11E
:10BC9000AEEB0704ABEB01076A4392FBF3F1AAEBAF
:10BCA00001056000791BFFF741FF11992A4648758D
:10BCB00039462046119BFFF75EFF119908B03046C8
:10BCC000BDE8F04F6EE700005AD3FFFFDCF3000041
:10BCD0004C281000FB4900200870FB490870FB4904
:10BCE00008707047FA4930B40020FA4A0870012100
:10BCF0001170F949FF4A0870F8490870F84908704E
:10BD0000F8490870F8490870F8490870F84948700F
:10BD10008860C8601268B2F86230F74CF74D238033
:10BD2000B2F8A1402C80F64DB2F8C6212A80F54D1C
:10BD30002B80F54B1C80F54B1A80F54A108048602B
:10BD4000087030BCC6E72DE9FF4F81B0E94A4FF0DB
:10BD50000109CDF8009012689B464D4692F815C037
:10BD6000137D0CF1010C62E04FF0000A47F6F87207
:10BD70005442D646564619E005FB036730F8178053
:10BD800031F81770A7EB08073FB2BA4200DD3A4618
:10BD9000BC4200DA3C46002F02DA4FF0000903E013
:10BDA00002DD4FF00007009706F101069E42E3DB3B
:10BDB000009F59EA070608D0B9F1010F03D0B9F185
:10BDC000000F04D006E0012F04D1002202E0012F71
:10BDD00000D12246002412E005FB034630F816701D
:10BDE00031F816601744F61B36B25E4506DACBF121
:10BDF0000007BE4202DDB2440EF1010E641C9C42FB
:10BE0000EADBBEF1000F01DD9AFBFEFA0AEB020449
:10BE1000002209E005FB0326DDF80C8030F81670DF
:10BE2000521C274428F816709A42F3DB6D1C6545B6
:10BE30009ADB05B0BDE8F08F2DE9F041C2F11007A3
:10BE400042B1012B06D0B34B1C78AA4B012C05D074
:10BE500000244DE0BDE8F041F7F7F5BA002518E001
:10BE600000240FE0367D05FB0646641C31F916C040
:10BE700030F916E00CFB02FC0EFB07CC4CF30F1C58
:10BE800021F816C01E6896F862C7B4EBDC0FE9DD36
:10BE90006D1C1C68647D641CAC42E1DA0020012743
:10BEA0009D4D11E092F8622707EBD20207E000BF38
:10BEB00000FB0424521C35F8146021F814601C683F
:10BEC000247D9442F4DC401C1A68547D641C844236
:10BED000E8DABDE8F08100BF31F9145030F91460A0
:10BEE000554306FB075545F30F1521F81450641C04
:10BEF0001E68757D367D6D1C7543A542ECDCE8E758
:10BF0000F0B57C4D002784462D6801203C466E7DAF
:10BF10002D7D06F1010606FB05F60BE03CF91450F9
:10BF200031F914E0B5EB0E0500D56D429D4200DD00
:10BF30007F1C641CA642F1DC974200DD0020F0BDAE
:10BF4000F0B56C4A00273E4615686B7D2A7D5B1C68
:10BF5000534310E031F912C0B5F853470CEB040E0F
:10BF600030F91240A64505DAB4EB0C0400D5644262
:10BF70002744761C521C9342ECDC5D485FB195F877
:10BF80003610B14207D2C16809B10120F0BD0121CC
:10BF9000C1600020F0BD0021FAE72DE9F047554CC3
:10BFA0008146002620680125174690F82000884623
:10BFB000000720D55A48594A01684846F7F722F940
:10BFC0005848564902680B68D1F804C0D21A436831
:10BFD000A3EB0C031A448368D1F808C0C068C96891
:10BFE000A3EB0C03401A21681A441044B1F87810EE
:10BFF000814200DA0025206890F8200080070BD5E8
:10C000004948007840B93248007828B94146484646
:10C01000FFF796FF00B1002535480021427892B124
:10C0200039708268521C8260236893F837301B098C
:10C0300003EB8303B2EB430F02DD81604170012605
:10C040003046BDE8F08715B181603D70F8E7826841
:10C05000531C8360236893F8373003F00F0404EB1C
:10C060008404B2EB440FF0DD0122427081601A09B2
:10C07000EBD141700126E8E7F0B5012464251D48A5
:10C0800019E0377D674331F9176006FB02FC9CFB22
:10C09000F5FE764421F817600668367D04FB0666D7
:10C0A00001EB4607641C37F9026D06FB02FC9CFBA2
:10C0B000F5FC66443E800668777D7F1CA742E0DC85
:10C0C00000224CE068281000442A10006728100065
:10C0D0006628100062281000702810006D281000DB
:10C0E0006F2810006E2810006B2810006C281000BC
:10C0F000182A10004C281000482A10004A2A100064
:10C100004C2A10004E2A1000502A1000522A10000B
:10C11000462A1000A62810004200012070371000A7
:10C12000842810006037100074281000A61831F918
:10C13000164004FB03F797FBF5F73C4421F8164043
:10C140000468667D247D06FB0426521C31F91640E6
:10C1500004FB03F797FBF5F73C4421F8164004680D
:10C16000247D9442E2DCF0BD70B5FA4B1B685C7D27
:10C170001B7D641C5C4307E032F8135030F81360F9
:10C18000AD1B21F813505B1CA342F5DB70BD2DE9FC
:10C19000F05FF048F04B01681B78B1F9A120B1F9CC
:10C1A0006200012B0AD0B1F9C631EC4C2578E94C7C
:10C1B000012D246894F8C0A103D012E0B1F96437CE
:10C1C000F3E7E74C246864B1B1F96C00B1F99E2043
:10C1D0005FEA8A7405D5E34C2478012C01D1B1F9CA
:10C1E0006A00E14C2478012C2ED0022C06D3B1F841
:10C1F000BE200AB1B1F9BE0002461346DFF86CE377
:10C20000DB4C0546AEF800202080DA4CDFF86CC32A
:10C21000DFF86CB3238091F864601C46801B06B283
:10C2200091F8A300101A07B291F8C301181AD24B63
:10C2300000B281461F80ACF80060ABF80000D14826
:10C24000007801280DD03CE091F8BA40224491F8E2
:10C25000BB4012B2204491F8DA4100B223441BB231
:10C26000CCE791F8CC004FF0640C00FB05F8B8FB6C
:10C27000FCF84544DFF8F882A8F8005000FB02F80B
:10C28000B8FBFCF800FB04F5B5FBFCF54244AEF846
:10C290000020B84A2C44148000FB06F4B4FBFCF4E4
:10C2A000B64A3444148000FB07F2B2FBFCF200FBF8
:10C2B00009F0B0FBFCF43A441A8004EB0900ABF837
:10C2C000000091F8A000C00706D1A9480188AB483A
:10C2D000AEF80010008818805FEACA7002D0A0484B
:10C2E000006830B9A348BEF8001001801988ABF887
:10C2F0000010A248BBF90020B0F90010B3F900000B
:10C30000F6F7CBFDA0490880BDE8F09F914A10B533
:10C310001268537D127D5B1C534306E030F91240D6
:10C320008C4201DD012010BD521C9A42F6DB002038
:10C3300010BD2DE9F04780469448894600240068E6
:10C340004FF4AA61054602F040FE824A1068037D60
:10C350000120064616E000BF00EB001105EB410787
:10C36000012108E039F913C05B1CC44502DD641CDF
:10C370007E54A4B2491CD2F800C09CF814C08C456D
:10C38000F0DA401C1168497D8142E5DA204658E622
:10C39000F0B5704E33685D7D1B7D6D1C5D430024E0
:10C3A000274608E030F913C0944502DA21F81370EB
:10C3B00000E0641C5B1CAB42F4DB3068B0F89B000F
:10C3C000A04201DD0020F0BD0120F0BDF0B5002548
:10C3D000604C26E000220123767D0EE003FB075C23
:10C3E00030F91CC0BCF1000F04DD0AB1944503DA3A
:10C3F000624601E00022731C5B1C9E42EEDA002ABA
:10C400000EDD012308E0367D03FB065630F816707A
:10C41000BF1A21F816705B1C2668777D9F42F2DAFE
:10C420006D1C2668377DAF42D4DCF0BD2DE9F043AA
:10C43000484B81461868467D057D761C002028E023
:10C440001A6892F85C20642A06D9643A02FB00F468
:10C4500094FBF5F4141B04E0C2F16402424392FB26
:10C46000F5F4643401224FF064080FE01F683F7D4B
:10C4700002FB070739F917C0BCF1000F05DD0CFB03
:10C4800004FC9CFBF8FC21F817C0521CB242EDDB07
:10C49000401CA842D4DBBDE8F0832DE9F0472D4BCA
:10C4A00081468A461868447D057D641C01202EE083
:10C4B0001E6896F85D10642907D96439421E777D9D
:10C4C0004A4392FBF7F28A1A06E0C1F16401421E68
:10C4D0005143727D91FBF2F2317D6432414309EBAD
:10C4E00041060AEB410700214FF064080CE000BF51
:10C4F00036F911C0BCF1000F05DD0CFB02FC9CFB02
:10C50000F8FC27F811C0491CA942F1DB401CA042ED
:10C51000CEDB96E530B50F4840F2FF751C4B006846
:10C520001C4C417D007D491C4143002205E000BFB9
:10C5300023F8105024F81020401C8842F8DB30BD4E
:10C540002DE9F00F034800231C4606689946012197
:10C55000777D3EE04C281000A628100068281000C7
:10C560009C010022442A1000742810004A2A10005E
:10C57000482A10004C2A1000502A10004E2A1000A1
:10C58000522A100076281000462A10007C2810003D
:10C59000EC8E01206C9301200020DFF8E8A2DFF888
:10C5A000E882357D12E000BF01FB05023AF912C0B6
:10C5B00038F91220BCEB020200D5524292B29342EB
:10C5C00003D2134684B21FFA81F9401C8542EBDC8A
:10C5D000491C8F42E0DA44EA0920BDE8F00F59080F
:10C5E00082B20820FDF75CB92DE9F041A74C054661
:10C5F000207801282BD1606808B9FFF78BFFA44889
:10C60000A04BA14E0168487D097D401C484312E0C3
:10C6100033F9117035F91120974200DA3A4623F8C0
:10C62000112036F9117035F91120974200DD3A4694
:10C6300026F81120491C8142EADB6068401C6060DA
:10C64000642804D3FFF77CFF00202070606040E482
:10C650002DE9FE4F06468F480027007810B18E491D
:10C66000012008708D4C00235A1E1946E068F4F72B
:10C670002FF8FFF78CFD8B48894D8B4902682B788A
:10C680003046FFF7D9FB00262E7002AA874986485C
:10C69000FFF783FC05469DF80800DFF81482DFF8F9
:10C6A00014A250B3DFF8E891DFF80CB2D9F800001B
:10C6B00090F8400080070FD58048BBF90010B0F912
:10C6C00000207F48B0F90000F6F7E7FB764A03B296
:10C6D00076491046FFF737FB7A4D744A724829684D
:10C6E000FFF742FDE068F3F7ABFFD9F800004C46D6
:10C6F00090F88110C90711D017E0E068F3F7A0FFA8
:10C70000012D0AD1D8F80010A80241F00501C8F89F
:10C710000010DAF80410F4F77AFCB0E090F89A20F0
:10C72000296813460846FFF7A7FC206890F84000E8
:10C73000400703D529680846FFF748FE206890F8AF
:10C740004000000703D529680846FFF7A6FE2068C9
:10C7500090F84000C00603D529680846FFF766FE3A
:10C760002868FFF741FF206890F86010490718D546
:10C770002968B0F968200846FFF70AFE012810D1A1
:10C78000206890F8600080060BD5D8F800104FF4B0
:10C79000806041F00501C8F80010DAF80410F4F7E1
:10C7A00036FC49480078022819D048492868F6F72D
:10C7B0004AFEDFF81C914548B9F90010FFF7A6FDC5
:10C7C000DFF810C1DFF81081444D9CF800108CF8A0
:10C7D000006088F80060E9B101283BD01CE02068C7
:10C7E00090F840104906E4D58DF804608DF8056096
:10C7F000017D491E8DF80610417D491E8DF80710F8
:10C8000032490091B0F95A20354901A82B68FEF74A
:10C8100091FACEE701280ED03249087808B1401EBF
:10C820000870206890F8AD202F4801788A4225D200
:10C83000491E017023E0BBF900102448FFF766FD94
:10C840008CF800002E80206890F82901000701D59F
:10C85000FCF79FFE2548012788F8007001681B48F7
:10C86000F6F7F1FD1949B9F90000FFF762FD074934
:10C8700048802988814202D2288000E0067038462C
:10C88000BDE8FE8FEC8E01206C930120182A100069
:10C890004C281000A628100068281000203810002E
:10C8A00062281000302A100074A3012042000120E9
:10C8B0005028100008381000482A10004C2A100098
:10C8C0004A2A10007C28100074281000F4A70120C8
:10C8D000462A10006D2810007028100060281000F3
:10C8E00022F40000672810006F2810008028100034
:10C8F000FC48FD4A006830F8FA1F1180FB49C079F6
:10C90000C8807047F9480021F64A41808180C160A3
:10C91000126892F843201209826001610170F448A4
:10C92000017070472DE9F041EE4D296891F8D02053
:10C93000B1F8FA30D407EC4A3ED091F8FF4004B980
:10C940000124168891F8FEC0F71A07FB0CF797FB35
:10C95000F4F4B1F8FC7037442744E44CB8420BDDE2
:10C96000E4480026E66041681020F4F750FBA680FA
:10C97000286890F8010106E0864202D9DC4D2D7846
:10C9800025B191F80101E080BDE8F081DA4909782C
:10C990000029F9D1B4F90610002901DD491EE18012
:10C9A000E1880029F0D1B11E814200DA01468B42B4
:10C9B00000DD19461180E7E71380E5E7F0B5C949C6
:10C9C000CA4E096891F84020D20770D0C84A14783E
:10C9D000CA4A1278ACB1012A09D091F84330B1F8B3
:10C9E0004A7003F00F021D09B1F8483015E091F8C4
:10C9F0004D30B1F8547003F00F021D09B1F85230F8
:10CA00000BE0012A1AD011F8423F03F00F024FEA5F
:10CA100013154B888F88A1F1420191F820C15FEA7C
:10CA2000CC7C16D0DFF8D8C2BCF800C05FEA4C5C02
:10CA30000FD591F8252154B112090AE011F84C3FA5
:10CA400003F00F021D094B888F884C39E5E702F08F
:10CA50000F02984201DCB260F0BDB84201DBB56064
:10CA6000F0BDB1F95C47B1F95EC7B1F9601744EAAE
:10CA70000C0E5EEA010E11D04443444342F21072A0
:10CA80000CFB00FC94FBF2F39CFBF2F04FF47A7287
:10CA900091FBF2F118440844B060F0BDC01AA91A25
:10CAA0004843F91A90FBF1F01044F5E7FFE7002046
:10CAB000F2E78C4A10B512680021B2F8B830834210
:10CAC00005D292F8B0301B0701D5032112E0B2F86D
:10CAD000B630834205D292F8B0305B0701D502210F
:10CAE00008E0B2F8B430834204D292F8B000800774
:10CAF00000D501217D487E4C0378994211D12178DF
:10CB000099420AD07C4A1278134307D00169491E22
:10CB10000161002901DC0078207010BD01700169FD
:10CB2000F7E759B1022901D1012B07D092F8B220C1
:10CB300002610170002AF0DC217010BD92F8B32070
:10CB4000F6E76849096891F8B010CA0667490DD53B
:10CB50008A88831A002B09DC674B1B784BB1C2EB28
:10CB60000212520002EB4000C0F34F10888080B2E6
:10CB70007047C2EB82121044C0F38F10F6E72DE924
:10CB8000F043584E0546A3B03768802197F8B100AE
:10CB900000F00F04641C02A802F039FA97F8600450
:10CBA000C00714D0002710E03168087DB1F9633464
:10CBB000CDE9003000FB07F2B1F9613405EB42002A
:10CBC00002462946FBF763FD7F1CA742ECDB306879
:10CBD0000023814602A9007D11E000BF00FB03F69F
:10CBE000002209E006EB020C51F8227035F91CC056
:10CBF000674441F82270521C9042F3DC5B1CA34254
:10CC0000ECDB002207E000BF51F8223093FBF4F385
:10CC100041F82230521C9042F6DC002213462AE0F2
:10CC200000273E460DE000BF06FB003C51F8238084
:10CC300035F91CC0BCEB080C01D5CCF1000C6744E5
:10CC4000761CA642F0DB97FBF4F699F82071FF07FB
:10CC50000DD02B4F3F887F0509D599F824714FEAF5
:10CC6000171C0CFB06FC07F00F069CFBF6F6964221
:10CC700000DD32465B1C9842D2DCB2F5803F04DB1B
:10CC80004FF6FF7023B0BDE8F08390B2FAE710B51D
:10CC9000FFF775FFFFF755FF144C4FF00051020AE4
:10CCA00060804A738873FFF704FF6088FFF786FE91
:10CCB0006088BDE8104035E6F0B40A4A116891F882
:10CCC000B130097D03F00F04084B641CDD6895FB4F
:10CCD000F4F604FB165569430A4D05EB41050021A6
:10CCE00017E000004C281000FC371000282A100024
:10CCF00074281000083810006D28100068281000F3
:10CD000088281000749F012030F8116025F8116008
:10CD1000491C1668367D8E42F6DCD868401CD86007
:10CD2000A04202DBF0BC0248B1E7F0BC7047000053
:10CD3000749F012031B56846FEF7FDFB904C2078CA
:10CD4000022805D19DF80000012801D100F00DFF57
:10CD50009DF80000207000F089FE38BD10B5FEF788
:10CD60003DFEBDE8104000F071BE10B5FEF7BAFF01
:10CD7000FDF728F800F052FEFFF7C4FD81490020BE
:10CD800008608149086010BD7D4900204860ECE7DB
:10CD900010B50024FFF75CFC012801D098B101E038
:10CDA000FFF7C8FF79480124007850B17849012085
:10CDB00008707848006890F8F002C00701D0FCF7CE
:10CDC00040FB204610BDFFF7C9FFFAE72DE9F04709
:10CDD000714F724900263868084269D06D4C20684E
:10CDE00090F82901800703D56D486E4900880880B6
:10CDF000DFF8B49100235A1E1946D9F81800F3F74A
:10CE000067FC5F49387809790840C0072CD0206852
:10CE1000664D90F86010CA064FF0000130D5DFF87B
:10CE2000908198F80010B9B962490978A1B1B0F8B9
:10CE30007D3090F87C2060496048FFF761F858B970
:10CE4000206890F87F0028705D48017841F001016A
:10CE50000170012188F80010287890B1401E2870D8
:10CE600055495648F6F7EFFA3868002802DA304696
:10CE7000FCF755FFD9F81800BDE8F047F3F7E0BB21
:10CE80002970206890F8B000C00702D04B48FFF727
:10CE900013FF4C48007828B10128E1D14A480078B6
:10CEA0000028DDD149494548FFF772FF0646D7E71C
:10CEB000BDE8F08710B500210420F4F787F8444856
:10CEC0002F4900684C6844400AD04860E00701D010
:10CED000FFF74BFF600603D5BDE81040FEF7FABE32
:10CEE00010BD274C00276770FFF702FD0126607810
:10CEF00060B30128FBD140F285100021F4F738F827
:10CF0000F4F7EEF80546C00706D000210120F4F73B
:10CF10005DF86770FFF738FF680705D5002104202A
:10CF2000F4F754F8FFF752FF280605D500218020BA
:10CF3000F4F74CF8FFF7BEFFE805D8D500214FF411
:10CF40008070F4F743F823480670D0E702250321E8
:10CF50000020F6F7CCF800212846F4F709F8032161
:10CF60000120F6F7C4F8F4F7BBF88007BFD5FFF748
:10CF70000BFF002140F28710F4F728F86670B6E73F
:10CF80003C2A1000042A1000082A1000662810000D
:10CF9000922810004C281000882810000300008000
:10CFA0009C2810009E281000203810006B281000CC
:10CFB000622810007428100074AC01204089012000
:10CFC0006C2810006328100064281000C08D012018
:10CFD000882A1000182A1000ED48002101704160D5
:10CFE000704710B5027F817F531A9B1C042B05D913
:10CFF000437FC47F1B1B5B1C022B0FD9E54B1B78A7
:10D0000073B12AB1E44A1268127D521E914207D1CF
:10D01000417FC07F081A401C022801D8012010BDA2
:10D02000002010BD2DE9F84F436805461804DFF8CD
:10D030006CB3000C15D000220A279046104601263A
:10D0400006FA00F10B421CD0C0EBC00101EB41011C
:10D0500005EB81010C3191F82040012C06D00A2704
:10D0600012E000208BF80000BDE8F88FB1F808C08E
:10D07000CC6894FBFCF4944203DD91F807802246CF
:10D080000746401C0A28DBDBDFF80CA3DFF800931F
:10D090004FF0000C696806FA0CF001420CD0CCEBA2
:10D0A000CC0000EB400005EB80040C3494F8200029
:10D0B000012802D0062863D094E0022084F82000E2
:10D0C000207948B1B3480078C0B3DAF8000067456A
:10D0D00090F8C0001FD115E0B1480078012808D0B1
:10D0E000B04800780128DAF8000016D090F8CF0197
:10D0F00015E0A848007840B1DAF80000674590F8DC
:10D10000D80108D100F00F0009E0DAF80000674507
:10D1100090F8D001F6D0000901E090F8D401E07059
:10D120002046FFF75EFF012818D06178D9F8042067
:10D1300006FA01F08243C9F8042053E0FFE767458F
:10D1400002D0E179414504D1DAF8000090F882007C
:10D15000D8E7DAF8000090F88200DCE7DAF800009F
:10D16000E17890F8830000F00F000844E0706178E7
:10D17000D9F8042006FA01F01043C9F8040031E0A0
:10D18000072084F82000834800780028DAF800009F
:10D190003FD090F8C10000BF00F00F00E070DAF857
:10D1A0000000814B90F8AD201B789A4206D290F88F
:10D1B0008500E27800F00F001044E070DAF800001B
:10D1C000626A90F88510B2EB111F0BDD90F88400B5
:10D1D00000F00F0201F00F00E17802448A4201D909
:10D1E0000844E0700CF1010CBCF10A0FFFF652AFDD
:10D1F0005FF00007686806FA07F108427DD0C7EBC8
:10D20000C70000EB400005EB80040C34E07818B157
:10D2100058E090F88400BFE794F82000022804D07A
:10D22000072830D008284AD04CE0032084F820009A
:10D230009BF80010491C8BF80010207950B9DFF8DA
:10D24000608198F8000018B94FF48670FCF7E5FA91
:10D2500088F8006055480078012833D120790228E9
:10D2600030D1DFF83C8198F80000012802D10C2071
:10D27000FCF7D3FA4E49052008704E49002088F883
:10D28000000008701EE0DAF8000090F88000000648
:10D2900005D56946204601F073F9012809D0092017
:10D2A00084F820009BF8001061B1491E8BF8001033
:10D2B00008E02046009900F0FBFD0820F0E7092077
:10D2C00084F820006178B04606FA01F0D9F804101D
:10D2D000CC4608421AD02046FFF783FEB0B9DAF8F0
:10D2E0000000E17890F8830000F00F00081A002891
:10D2F00000DC0020E070607800E00BE008FA00F845
:10D30000DCF8040020EA0800CCF80400E07808B15A
:10D31000401EE0707F1C0A2FFFF66CAFA4E6F0B54C
:10D3200000211D4C012500BF426805FA01F31A4295
:10D3300021D0C1EBC10202EB420200EB82020C32AF
:10D3400092F82030022B16D1154ED3783678012E64
:10D3500015D0144E3678012E266816D096F8CF7167
:10D3600096F8826006F00F06BE1B9B1B1BB2002BBB
:10D3700000DC0023D370491C0A29D5DBF0BD2668E8
:10D3800096F8D07107F00F07EAE796F8D471E7E74F
:10D39000542A1000742810004C2810006628100031
:10D3A00068281000692810006F2810006D281000F0
:10D3B00067281000442A100070472DE9F04F00271D
:10D3C00089B03E463D463B46C3F10502002900EBCD
:10D3D000820264D0B2F9002017445A4302FB03557D
:10D3E0005B1C1644062BEFDBF74C0097606801903E
:10D3F000A068CDE90206206904906069CDE90505C1
:10D40000E0690790206A08906846F5F74DFD82466E
:10D410002068CDE90007A0680290E068CDE9030626
:10D4200060690590A069CDE90605206A08908B46E1
:10D430006846F5F739FD8046206800906068CDE9C0
:10D440000107E06803902069CDE90406A069069011
:10D45000E069CDE9070589466846F5F725FD03260D
:10D46000A8FB06470B4609FB0671002508FB0511C2
:10D470000925A0FB056703FB0573002200FB0230B2
:10D48000A319414113EB0A0041EB0B014FF4756204
:10D49000002301F029FD09B000B2BDE8F08FB2F918
:10D4A000022099E770B5054600243A302146064629
:10D4B000FFF783FF60F31F4401213046FFF77DFF34
:10D4C0000146204661F30F00C5F8420070BDBF4918
:10D4D0000A68B2F82B11814201D300207047B2F8DC
:10D4E0002D21824201D8FF207047521A401AC0EB0A
:10D4F0000020B0FBF2F0C0B2704738B5B2F902308C
:10D50000B2F900205B4302FB02340A46014668463A
:10D5100000F026FD684600F01BFDA04201D9002066
:10D5200038BD012038BDF0B5A84C0022236893F81F
:10D5300087502B0701D12B091DD0B0F93060B1F90C
:10D540000230F31A00D55B4205F00F07BB4200D949
:10D550000122B0F92E70B1F90030FB1A00D55B4200
:10D56000B3EB151F01D942F0020232B1012A09D0F2
:10D57000022A09D009E00020F0BDD0F82E00086092
:10D580000120F0BD0F8000E04E80D30715D0B1F927
:10D590000230B0F93050AB4207DD256895F887506E
:10D5A00005F00F05A3EB050306E006DA256895F8FC
:10D5B000875005F00F052B444B80920712D5B1F927
:10D5C0000020B0F92E309A4205DD236893F88730A9
:10D5D000A2EB131205E005DA236893F8873002EB1B
:10D5E00013120A800968C0F82E10C4E72DE9F84329
:10D5F000764E0D46044690F82010012730684FF013
:10D60000000903290DD0B4F93480002104F13A0C4B
:10D6100004F12E03B8F1000F1EDD90F8982032B10E
:10D620000AE090F88900A086A4F8329068E090F8AB
:10D630009980B8F1000F0BD0ADF8022090F8990056
:10D64000ADF800006A4661461846FFF756FF0146EE
:10D65000A08E401EA08626E0B4F93220002A0EDDFE
:10D6600090F8800040071ED529462046FFF75BFF53
:10D670000146012817D1608E401E608613E090F8A5
:10D68000862022B990F89780B8F1000F0BD0ADF842
:10D69000022090F89700ADF800006A4661461846EF
:10D6A000FFF72BFF014694F82000052806D0042838
:10D6B00004D007282AD0092828D029E041B13068B1
:10D6C00090F8800080071FD5D4F82E0028601FE056
:10D6D000608E78B9B5F90200B4F9301008444010F2
:10D6E0006880B5F90000B4F92E1008444010288075
:10D6F0002868A062A4F83490306890F888006086AA
:10D700002868C4F82E0003E0002701E00129DBD0DF
:10D710003846BDE8F8832DE9F843044690F8200028
:10D7200016460F4603281CD004F13E02111FDFF8F5
:10D73000A080264D052816D0082814D0072812D01E
:10D740000928E6D1684600F00BFC684600F000FCB2
:10D75000014698F800000028286863D0B0F8C4009B
:10D7600062E008685AE0684600F0FAFB684600F09C
:10D77000EFFB844698F8000048B12B6813F8C20FFD
:10D7800000F00F015A88000952439B880EE020796F
:10D7900098B10128286814D090F88A002B6800F00E
:10D7A0000F01000933F88C2F5B8852435B4394458B
:10D7B00019DD9C450EDB084615E0286890F8D1017C
:10D7C000ECE790F8AC00E9E75C2A10004C28100068
:10D7D00074281000ACEB020C411A0CFB01FC991AE6
:10D7E0009CFBF1F1401AA16A3B68C0F11002414371
:10D7F00003FB02106FF0F02101EA10103860286876
:10D80000338890F88B0000F00F01A08DC1F1100259
:10D81000484303FB0200000930803868A06230886A
:10D82000A08576E7B0F88C0040438142F9DCA06A1D
:10D830003860A08D30806CE72DE9FC47DFF8C8A187
:10D84000DFF8C891074600264FF00108786808FA0B
:10D8500006F528427ED0C6EBC60000EB400007EB81
:10D8600080040C3494F82000032807D0052805D044
:10D87000042803D0082801D009286BD1D4F83A0035
:10D880000090A08AADF80400D9F8000090F880005C
:10D89000400603D52046FFF705FE0090D9F80000AA
:10D8A00090F88000000704D501AA69462046FFF7DA
:10D8B00032FFD9F8000090F88000C00706D001AA16
:10D8C00069462046FFF792FE00287CD094F820009D
:10D8D000032808D1D9F8000090F82901400702D5A3
:10D8E000D4F836000090DAF80010494B2943CAF802
:10D8F000001022791B7850461A4305D194F8202055
:10D90000092A01D0A943016006EB46010AEB810513
:10D9100094F820002D1D032834D0052838D0042881
:10D9200036D0082834D004200099A9602870A07847
:10D93000400828712179032902D340F08000287122
:10D940002078687020796871D9F800004B4690F80B
:10D950002F0100E037E00109228900F00F00514358
:10D96000B1FBF0F0A870E08AFFF7B1FDA871207E4E
:10D97000E8711A68BDF80400B2F89010814209D32A
:10D98000002013E02146384600F0D2F80320CBE710
:10D990000520C9E7B2F89220824201D83F2005E075
:10D9A000521A401AC0EB801090FBF2F0E87094F825
:10D9B0002000092807D12146384600F0AEF821465C
:10D9C000384600F0C8F8761C0A2EFFF63FAFBDE8D7
:10D9D000FC8770B50F4C002305465A1E1946606936
:10D9E000F2F776FE2846FFF727FF6069F2F728FE78
:10D9F00005480068002806D007480168BDE8704067
:10DA00000220F3F704BB70BD803710004C281000D3
:10DA100068281000203810000838100010B54FF4A6
:10DA200055715C4801F0F3FA4FF4F8715A4801F06F
:10DA3000EEFA5A490020087000F0B6F8FFF7CCFA69
:10DA400000F00CFABDE81040FFF7B6BC10B500F0CE
:10DA5000F9F9504800F003FA4E48FFF7E3FA4D4851
:10DA6000FFF7B7FF4C490020087010BD10B54A4CB5
:10DA7000207878B12146474800F00AFD454800F07B
:10DA800094F84448FFF7CEFA4248FFF7A2FF00207F
:10DA9000207010BDBDE81040D8E770B53E4C22782C
:10DAA0000F2A25D23E490978012915D13D49B0F9FF
:10DAB00002300968B1F86657AB4219DBB1F8685714
:10DAC000AB4215DCB0F90030B1F86A57AB420FDB5E
:10DAD000B1F86C178B420BDC02EB42110B195B1C8B
:10DAE000014621221846F5F789FC2078401C207059
:10DAF00070BD10B5034600205968012202FA00F4F7
:10DB0000214206D0401C40B20A28F7DB4FF0FF301C
:10DB100010BD82401143596010BD10B54C780123EF
:10DB20004268A3409A434260002081F8200010BD63
:10DB300030B500220368012404FA02F52B4205D017
:10DB4000521C0A2AF8DBFF20087030BD94402343A2
:10DB500003600A7030BD10B50C7801230268A34041
:10DB60009A430260FF20087010BD0A48FFF7D7BB38
:10DB700009480A490078087070470A49096891F80D
:10DB80006110C90705D0024604480178024800F038
:10DB9000AFB870477C3F1000D0421000802A1000C0
:10DBA000A62810004C28100070472DE9F0410025F0
:10DBB00006460127706807FA05F1084236D0C5EB22
:10DBC000C50000EB400006EB80040C3494F8200004
:10DBD000012801D0022829D12079022803D0012868
:10DBE00005D0E0B122E0B4F8050097491AE0984961
:10DBF00096480968B0F9000091F8A010890705D58A
:10DC0000B4F91A000021FDF7C2FA00B2B4F8051009
:10DC100081420BDA21463046FFF77FFF06E0B4F879
:10DC200005008C49B1F900108842F3DB6D1C2DB260
:10DC30000A2DBFDBBDE8F0812DE9F0470446914293
:10DC400054D007D901EB0200A0EB0201CAB2A0EB4D
:10DC50000200C1B201EB411000EB040102EB4210E3
:10DC600001F1010100EB0409CB88B9F8075009F173
:10DC700001002B44CB808B88B9F805502B448B8056
:10DC8000CB68D9F80D502B44CB608D680B680068C9
:10DC9000D9F809704FEA234C4FEA204805FB0CFCE9
:10DCA00007FB08CC05EB07069CFBF6FC6CF31F4357
:10DCB0000FFA83FC05FB0CF500B207FB005090FB4C
:10DCC000F6F060F30F030B608E602078A0F1010185
:10DCD000914208D000EB40100119203909F10100F0
:10DCE0002122F5F78BFB2078401E2070BDE8F087DD
:10DCF0002DE9FC5F074658480C460025017854483A
:10DD00000129006807D090F8730000BF00FB00FAFB
:10DD10004FF0010990E090F8CB00F7E709FA04F022
:10DD20002646009065E0009A09FA06F0494610423E
:10DD30005ED006EB46103844D0F8012020464BE078
:10DD4000B04248D000EB40133B44D3F801304FEAD7
:10DD5000234CACEB224CA3EB02030FFA8CFC1BB25E
:10DD60006CF31F4563F30F059B46394BE6461B6872
:10DD700093F861C0CDF804C05FEA8C7C0BD593F8B2
:10DD800074800BFB08FC4FF064089CFBF8F808EB70
:10DD90000B0C6CF30F05DDF804C05FEA4C7C0AD570
:10DDA00093F874300EFB03FC64239CFBF3FC0CEB38
:10DDB0000E0363F31F454FEA254C0CFB0CFC2BB202
:10DDC00003FB03C3534506D2DDF800C001FA00F39C
:10DDD00043EA0C030093401C3B788342B0DC0421EF
:10DDE0006846F5F73FF8012802D1009840000090FE
:10DDF000761C3878B04296DC04216846F5F732F894
:10DE000001281DD0009A484600FA04F1114203D0BF
:10DE10003E78C846761E0CE0641CF5E7009908FAC7
:10DE200006F0084204D0F2B2E1B23846FFF704FF30
:10DE3000761EA642F2DC641C3878A0423FF76EAF33
:10DE4000BDE8FC9F70470000482A10004A2A1000D5
:10DE50004C2810004C2A10007628100070472DE93D
:10DE6000F0410024012605465FF00607686806FABF
:10DE700004F1084217D0C4EBC40000EB400005EBEE
:10DE800080010C3191F82000032806D0042804D02A
:10DE9000052802D0022803D005E081F8207002E0B6
:10DEA0002846FFF73AFE641C0A2CDFD3BDE8F08158
:10DEB00010B5052200EB8203521E53F8364F12F0C4
:10DEC000FF025C60F6D1C0F83A1010BD5FF00002AE
:10DED00000EB8203521CD2B2C3F83A10062AF7D3E1
:10DEE000704730B504464270087D2071C868E06014
:10DEF00088682061C888208188886081487DA070FA
:10DF00000D460869E061E88AE082288B2083B5F835
:10DF10001F006083A88BA4F80500A87FE071A88982
:10DF2000A082012B07D029682046FFF7C1FF606A55
:10DF3000401C606230BD012084F820002968204622
:10DF4000FFF7C4FF002060622868C4F8360030BDC7
:10DF5000B0F90010B0F90200494300FB001070470F
:10DF600010B553884C881B1B438012880988511AAE
:10DF7000018010BD2DE9FF4F4FF00408894652681B
:10DF800008EBC004411E4FF0060C1D460CEBC00010
:10DF9000DDE90D3A14441044B4F90040B0F90070C2
:10DFA00000E0491E08EBC1001044B0F90000A04297
:10DFB00001D00029F5DA08EBC1001044B0F90000E7
:10DFC000A0427DD10CEBC1001044B0F90060491EA5
:10DFD0000CEBC1001044B0F90000B04201D00029A0
:10DFE000F5DA0CEBC1001044B0F90000B0427DD16D
:10DFF00008EBC1001044B0F900C0C4EBC40000EB52
:10E000004000CCEBCC0103EB800001EB410103EBC2
:10E01000810107EB471303EB0A02D0F84600D1F861
:10E020004610D2F8012006EB4613009203EB0A02D9
:10E030004FEA204BD2F8012001920BEB21420FFA5C
:10E0400080FA09B20AEB01004310BDF90200BDF9E4
:10E050000610BDF9048008444010BDF90010A0EB83
:10E06000620041445844C3EB6101ADF80E000AEB75
:10E070000100ADF80C006A4603A902A8FFF770FF83
:10E0800002A8FFF765FF804601AA03A902A8FFF7CF
:10E0900067FF02A8FFF75CFF804527D9002000E05A
:10E0A000401C05EBC001B1F90410A14201D0484564
:10E0B000F6D305EBC001B1F90420A24216D100E06D
:10E0C00014E0CE80002100E0491C05EBC102B2F94A
:10E0D0000420624501D04945F6D305EBC101B1F9F1
:10E0E0000420624504D005EBC000C780BDE8FF8F67
:10E0F000CF80FBE7F0B5002118E04A1C12E043682E
:10E1000003EBC10603EBC204356823689D4208DDBA
:10E110006768256075686560446804EBC104236026
:10E120006760521C03689342E9DC491C02688A421A
:10E13000E3DCF0BD70B5D0E90045062606EBC40669
:10E1400035442A800425426805EBC4052A44118021
:10E15000416801EBC401641C0B60046070BDF0B544
:10E16000B1F90240B2F9025004FB05F6002E2ADD97
:10E17000B1F90060B2F900707E43002E23DD6443E4
:10E180005D4394FBF5F424B24480B2F90020B1F968
:10E1900000105A43494391FBF2F10AB278230280FE
:10E1A000782C00DD4380B0F902406FF077018C429B
:10E1B00000DA4180782A00DD0380B0F900208A422D
:10E1C00000DA0180F0BD00214180FAE72DE9FF4F20
:10E1D000ADF5AF6D81464FF6FF70CDF81C050DF221
:10E1E0001450CDF848054830CDF870050020CDF822
:10E1F0001405002402A80E460DF5AB6B0DF5AD6AB3
:10E20000A0462746CDF818050120D9F80410B840DB
:10E2100001427DD0C7EBC70000EB4001FF4809EB8E
:10E2200081050C35016805F13A02B1F894004043CC
:10E23000CDF8C00491F896C0111DCDF850250DF50C
:10E24000AB600091FFF78CFE0DF5AB60FFF780FE31
:10E250000CFB0CFC0CFB00FCDDF8C004844502DD6B
:10E26000CDF84CC501E0CDF84C05ED480178012909
:10E2700005D16FF00041CDF84C15002101704FF031
:10E28000000C53E00CEB4C103044401CCDF8C004A3
:10E290000DF25C50DDF850250099FFF761FE05F1A5
:10E2A00042010DF26450009AFFF75AFEDDF8700546
:10E2B000B0F902006430C82806D8DDF87005B0F95E
:10E2C00000006430C82801D9012300E003230DF2C7
:10E2D0005C510DF26452081FFFF741FFA98FBBF894
:10E2E00002000144AAF80210698FBBF8000008443C
:10E2F000AAF800000DF5AD610DF5AB60DDF8C024A6
:10E30000FFF72EFE0DF5AB60FFF722FE034600E09F
:10E310000FE0DDF84C05834206DA0FFA8CF239B2D1
:10E32000DDF84805FFF706FF0CF1010C3078604579
:10E33000A8DC7F1C0A2FFFF667AFDDF81405002864
:10E340007ED0DDF84805FFF7D5FE00200DF5A46E60
:10E350000DF2C44B4FF0040A3BE000BFDDF8181586
:10E360000AEBC0020A44B2F90030062202EBC002F6
:10E370001144B1F900C0DDF880150D68012101FAE2
:10E3800003F215421FD1DDF8847501FA0CF13F68E4
:10E390000F4218D1DDF8807515433D60DDF88455D6
:10E3A0002D680D43DDF884150D600BEBC401641C72
:10E3B0008B80A1F806C0DDF81C150A4203D14EF887
:10E3C000280008F10108DDF81C159143401CCDF828
:10E3D0001C15DDF814158142C0DC7546B8F1000F3C
:10E3E00050D0CDE90096A8F101080DF2C44355F8CC
:10E3F00028002146DDF84825FFF7BCFDEEE7641E46
:10E400000BEBC401B1F90400B1F90610C0EBC00276
:10E4100002EB420309EB83050C3501EB411131445A
:10E4200095F82020491C032A03D0042A01D0052A8C
:10E4300011D12A79022A0ED10A7D022A0BD000E0DE
:10E4400022E0DDF880150A6801218140DDF88005B1
:10E450008A43026016E095F9012000232846FFF761
:10E4600040FD95F82000032806D0042807D007288F
:10E4700005D0052806D102E085F820A002E005209D
:10E4800085F82000002CBAD10DF5B16DBDE8F08FF4
:10E490002DE9FC41064640680F4650B1002001902E
:10E4A000009001AB6A463046FFF790FE002501243C
:10E4B0003CE0002415E000BFC4EBC40000EB4000CA
:10E4C00006EB80050C353046FFF713FB021E07DB19
:10E4D00002EB4210C119491C01232846FFF701FD38
:10E4E000641C3878A042E7DCBDE8FC81019904FA9D
:10E4F00005F0084219D13046FFF7FBFAB0F1000CE5
:10E5000013DB05EB4510C119CCEBCC0000EB400050
:10E5100006EB8000491C0C3001236246FFF7E1FC4A
:10E52000009904FA0CF0084300906D1C3878A8425A
:10E53000DCDC00255FF00607716804FA05F0014293
:10E540001AD00099084217D1C5EBC50000EB400076
:10E5500006EB80010C3191F82000032806D0042836
:10E5600004D0052802D0022803D005E081F82070ED
:10E5700002E03046FFF7D1FA6D1C0A2DDCDBB3E771
:10E580002DE9F84300F13A020D4604469146111D6B
:10E590006846FFF7E5FC6846FFF7DAFC0746BDF87A
:10E5A000020010B90120ADF80200BDF900004FF4DF
:10E5B0007A714843BDF90210A28F90FBF1F011442B
:10E5C0000AB26A80618FBDF80030144E1944298068
:10E5D000336800214FF47A7CB3F81880424506DD99
:10E5E000B3F918206A80B4F93C30D21A05E0002A49
:10E5F00009DA6980B4F93C205242424392FBFCF2B2
:10E60000638F1A442A803368B5F90020B3F816C026
:10E6100062450BDDB3F91610298003E04C28100089
:10E620006C281000B4F93A20891A05E0002A0BDAA8
:10E630002980B4F93A1049424FF47A72514391FB60
:10E64000F0F0A18F084468804A4629466846FFF7E3
:10E6500087FC6846FFF77CFC3168642391F85227F9
:10E660007A43B2FBF3F2BA1A904216D9B5F90220F6
:10E6700091F8510782420DDD0B8B181A904209DD8B
:10E68000B5F9002091F85007824203DDC98A081AC3
:10E69000904202DC0120BDE8F8830020FBE7000087
:10E6A00012490868124A106800280CD14FF4FA7316
:10E6B00000BF401C9842FBD30860106820B1086876
:10E6C00020F004000860704730BF7047094810B55B
:10E6D0000168491C01600848006820B10120F4F776
:10E6E00026FF30BF10BDBDE81040D9E710ED00E0B7
:10E6F000AC1A0120A028100084010022F949002052
:10E70000486088600860F849086070472DE9F04764
:10E710004FF00857D7F8840100286DD1052101205A
:10E72000F4F7E5FCEF4D4FF00009DFF8C083C5F8C2
:10E730000490C5F80890EE4CC5F80090C8F8009019
:10E7400002206168F2F763FC0220E168F2F75FFCE7
:10E7500008202168F2F75BFC02202169F2F757FCE0
:10E76000E44E306890F82901800702D50120FAF7BD
:10E7700083FEFAF77FFF306890F88003000703D527
:10E7800020206168F2F743FC306890F851110907C6
:10E790002FD590F85001C0072BD06868410728D4C6
:10E7A000D54A1E2140F004001180D4490A6842F085
:10E7B00020020A606860D8F80010D14841F02201B8
:10E7C0000125C8F800100570A8026168F2F71FFC67
:10E7D0000420A168F2F71BFC10202169F2F717FC56
:10E7E000C7F89051C0494FF6E850C1F80090F2F7D1
:10E7F00065FD0120C7F88401BDE8F08770B54FF0D2
:10E800000856D6F88401002831D0BA48006890F83C
:10E810002901800701D5FAF732FEB4480025B44C2F
:10E82000056001206168F2F7F2FBAE484560042004
:10E83000A168F2F7ECFB10202169F2F7E8FB8020D9
:10E84000E168F2F7E4FB0120E168F2F7E0FB042065
:10E850002168F2F7DCFB01202169F2F7D8FBC6F84A
:10E860008451BDE8704005210020F4F740BC70BD24
:10E8700070B59C4D6A68D0072BD19C48A14B0168AC
:10E8800041F0050101601C6844F020041C60994BB4
:10E890001B6893F8B031DB0705D012F40B7F02D16F
:10E8A00041F04201016096480126914C0670B00289
:10E8B0006168F2F7ACFB686840F001006860042012
:10E8C000A168F2F7A4FB8020E168F2F7A0FB8E4874
:10E8D00006608E490020087070BD824810B500792E
:10E8E000C00701D1FFF7C4FF88490120087010BD9F
:10E8F0007C4910B54868C2070ED020F001007C4C5E
:10E9000048600420A168F2F782FB8020E168F2F7FA
:10E910007EFB7D490020086010BD764810B5006878
:10E9200090F8C001C00712D06E49486842060ED563
:10E93000774B002220F040001A706D4C4860042094
:10E94000A168F2F764FB8020E168F2F760FB6E4992
:10E9500000201031086010BD664810B5006890F8BE
:10E960006207C00707D06B4C2078012803D1FFF75E
:10E97000D4FF0020207010BD5E4810B5006890F8EC
:10E98000C001C00716D06249002008705549486888
:10E9900042060FD440F04000554C48600420A16866
:10E9A000F2F735FB8020E168F2F731FB5649012090
:10E9B0001031086010BD4F4810B5006890F862072C
:10E9C000C00707D0534C2078002803D1FFF7D4FFAD
:10E9D0000120207010BD10B54FF00854D4F8840108
:10E9E000002807D0424881680820F2F710FB012078
:10E9F000C4F8880110BD10B54FF00854D4F8840154
:10EA0000002807D03A4881681020F2F700FB002068
:10EA1000C4F8880110BDF2F713BD364810B5006880
:10EA200090F85001C00711D02E48002101604168C4
:10EA30004A070BD521F004012D4C41600420A16848
:10EA4000F2F7E5FA10202169F2F7E1FA2E490020E9
:10EA5000091D086010BD70B5264D286890F850015A
:10EA6000C0073DD01F484268510730D42A490B786F
:10EA7000014689682BB141F00401816005210160E4
:10EA800025E01D4C1E2342F0040223801B4B21F085
:10EA9000040101261C6844F020041C60C0E9012127
:10EAA0001248134C016841F02201016014480670BD
:10EAB000B0026168F2F7ABFA0420A168F2F7A7FA96
:10EAC00010202169F2F7A3FA0F48001D066028689C
:10EAD00090F85101000703D5BDE87040F2F7FCBB88
:10EAE00070BD0000842A10009828100050281000E3
:10EAF000083810004C281000902810005C281000E6
:10EB000054281000582810008C0100226A28100098
:10EB100069281000A628100066281000704770476A
:10EB20007047704770477047704810B5006890F89C
:10EB3000C001C00715D06E49012008706D494868B2
:10EB400042060ED440F040006B4C48600420A1689F
:10EB5000F2F75DFA8020E168F2F759FA674901207F
:10EB6000086010BDF2F74EBC6248007900070ED471
:10EB7000634840F6BF72016811430160614901209A
:10EB800008705D4841684FF48060F2F740BA704702
:10EB90005D4840F6A252016841F0100101605949F8
:10EBA00001200870564801681143016052484168CD
:10EBB0004FF48060F2F72BBA4F4841680820F2F713
:10EBC00026BA4D4841680420F2F721BA4A48416804
:10EBD0001020F2F71CBA484841682020F2F717BA13
:10EBE000454841684020F2F712BA4048006890F862
:10EBF000C800C00702D0454901200870704743494A
:10EC000000200870704770470A46B0F5805F0146E3
:10EC100002DA3648006801E04FF48010FAF73BBD95
:10EC2000F0B54FF40064B0F5805F02D22F4B1D6841
:10EC300003E0A0F580504FF48015002303E0D65C7C
:10EC40001F185B1CEE558B4201DAA342F7DBF0BDC7
:10EC500010B5264C40F2FF112068F2F757FA2268EF
:10EC60004FF40071C2F8FC071046F2F7D2FDBDE880
:10EC700010400320FAF7D1BD10B54FF4801440F2D4
:10EC8000FF112046F2F742FA21490860C9122046D6
:10EC9000F2F7CFFDBDE810400420FAF7BEBDFAF749
:10ECA00078BD154881682020F2F7B1B91248416853
:10ECB0004FF48070F2F7ABB90F4841684FF4007021
:10ECC000F2F7A5B910B50C4C4FF48070E168F2F77B
:10ECD0009EF92169BDE810402020F2F798B9054857
:10ECE000007A400700D5B6E6704700004C281000B7
:10ECF00069281000842A1000083810009C010022A6
:10ED000050281000542810005C28100076281000AD
:10ED1000FC07100070B504462F480D46202C02DD7C
:10ED20002021016000E0046020212C4800F04DF912
:10ED300000222A4802E0A95C8154521CA242FADB5C
:10ED4000274841690120F2F793F9002803D0BDE874
:10ED50007040F1F757BB70BD032804DD088889783F
:10ED600040BAFFF751BF7047032806DDC31E08886D
:10ED70008A1C40BA1946FFF753BF70471749164817
:10ED80000B780068A3F190021F2A03D8154850F8A9
:10ED900022000047B02B07D0B22B07D0FB2B07D0A7
:10EDA000FC2B07D1FFF768BF491CDDE7491CD3E7FF
:10EDB000FFF74EBF70470C4910B50868401C08604B
:10EDC00042F21071884205D9FFF727FEBDE81040D6
:10EDD000F2F782BA10BD0000902A1000C044100063
:10EDE000083810004CF4000098281000FFF786FC4B
:10EDF0001148F2F72CFBFAF715FC05210020F4F777
:10EE000076F903200021F2F7B3F8F2F769F9044626
:10EE1000C00707D000210120F2F7D8F8FFF7AEFFB6
:10EE2000F2F741FBA007ECD500210220F2F7CEF863
:10EE3000FFF755FFE5E70000F5EC000070B506466A
:10EE400000F03AF9056806F10B0020F00704B4421F
:10EE50009CBF002070BD2B466A68BAB11068A04202
:10EE600010D304F1080188423CBF5068586007D3B2
:10EE70005168101941601168091B016058601460E5
:10EE8000101D70BD13465268002AE7D1214628465E
:10EE900000F01AF90028DED170BD70B50446051FD8
:10EEA00000F00AF90068002C14BF446870BD002C03
:10EEB00018BFA54284BF20466468F8D801680A18C4
:10EEC000AA4218BF456003D12A6805461144016073
:10EED00028684119A1421CBF6C6070BD61686960FF
:10EEE00021680844286070BD10B54C1084EA5304B2
:10EEF00004D54042C1F1000138BF491E1B4204D570
:10EF00005242C3F1000338BF5B1E00F027F914F032
:10EF1000804F04D04042C1F1000138BF491E14F0B7
:10EF2000004F04D05242C3F1000338BF5B1E10BD36
:10EF3000032A40F2308010F0030C00F0158011F825
:10EF4000013BBCF1020F624498BF11F801CB00F8FD
:10EF5000013B38BF11F8013BA2F1040298BF00F851
:10EF600001CB38BF00F8013B11F0030300F06D81C5
:10EF7000083AC0F0088051F8043B083A51F804CB35
:10EF8000A0E80810F5E7121D5CBF51F8043B40F8FB
:10EF9000043BAFF30080D20724BF11F8013B11F806
:10EFA00001CB48BF11F8012B24BF00F8013B00F84A
:10EFB00001CB48BF00F8012B704702F0FF0343EA82
:10EFC000032242EA024200F002B84FF00002042994
:10EFD000C0F0128010F0030C00F01B80CCF1040C88
:10EFE000BCF1020F18BF00F8012BA8BF20F8022BBC
:10EFF000A1EB0C0100F00DB85FEAC17C24BF00F862
:10F00000012B00F8012B48BF00F8012B70474FF08F
:10F01000000200B5134694469646203922BFA0E868
:10F020000C50A0E80C50B1F12001BFF4F7AF090774
:10F0300028BFA0E80C5048BF0CC05DF804EB890065
:10F0400028BF40F8042B08BF704748BF20F8022BA8
:10F0500011F0804F18BF00F8012B704710B504461F
:10F0600010F0030F08BF11F0030F40F015804FF0B0
:10F07000013E121FC0F20E8051F8043BA3EB0E0CB0
:10F080002CEA030C1CEACE1C08BF40F8043BF0D06D
:10F09000A1F1040102F10402521E08DB11F8013B48
:10F0A000002B00F8013BF7D11146FFF78EFF2046F9
:10F0B00010BD70477047704700487047E844100023
:10F0C000704770477047704738B504460A460020BD
:10F0D0006946AFF30080002808BF38BD024600999A
:10F0E000204600F0E4F8012038BD012000F0F9B816
:10F0F000F8B5AFF30080054600200C46102000BF95
:10F100000646A819A0420DD9324669460020AFF341
:10F110000080070008BF00F0E4F80098A04218BF84
:10F120000546C419FFF7C8FF05600746F01D20F02B
:10F1300007004619284600F00AF8B44208BFF8BD97
:10F14000A21B31463868BDE8F84000F0B0B8002195
:10F150000160C0E9011070471020704753EA020CAB
:10F1600000F069802DE9F04B4FF00006002B1FBF27
:10F17000B3FA83F503FA05F424FA05F65E4012BFEC
:10F180001643B2FA82F502FA05F4C5F120051EBF56
:10F1900022FA05FC44EA0C04203556EA044C4FEAF6
:10F1A000144418BF641C4FF000084FF0000990424F
:10F1B00071EB030C39D3002919BFB1FA81F701FAB9
:10F1C00007F6B0FA80F700FA07F6C7F120071EBF6E
:10F1D00020FA07FC46EA0C062037B6FBF4FCA7EB46
:10F1E0000507103F07F01F0BCBF120060CFA0BFBB5
:10F1F0002CFA06F644BFB3460026202FA4BF5E4675
:10F200004FF0000B5BEA060C08BF4FF0010B19EB47
:10F210000B09ABFB027C48EB0608C01B06FB02CCCB
:10F220000BFB03CC71EB0C01C1E70B4602464146D8
:10F230004846BDE8F08B13B54FF000004FF00001D9
:10F24000AFF30080BDE81C40704710B5203AC0F015
:10F250000B80B1E81850203AA0E81850B1E81850D7
:10F26000A0E81850BFF4F5AF5FEA027C24BFB1E814
:10F270001850A0E8185044BF18C918C0BDE8104085
:10F280005FEA827C24BF51F8043B40F8043B08BF8E
:10F290007047D20728BF31F8023B48BF11F8012B55
:10F2A00028BF20F8023B48BF00F8012B70470346F7
:10F2B00040688C46002818BF814284BF03464068DE
:10F2C000F8D818681844884207D00CF1030020F0E1
:10F2D0000700001D411A521A0146081D0A60FFF777
:10F2E000DCBD10B500F010F8BDE8104000F007B824
:10F2F00070470446AFF300802046F0F763FF002814
:10F3000001D000F029B8704710B5012805D00021C0
:10F3100003A000F027F8012010BD09A1F8E70000C4
:10F3200053494752544D454D3A204F7574206F66EE
:10F330002068656170206D656D6F72790000000056
:10F340003A2048656170206D656D6F727920636F3A
:10F35000727275707465640001491820ABBEFEE7D7
:10F360002600020070B505460C460A2000E06D1C20
:10F3700000F011F835B128780028F8D102E0641CBB
:10F3800000F009F814B120780028F8D1BDE87040E9
:10F390000A20AFF3008008B569468DF8000003200D
:10F3A000ABBE08BD991D0000B31D0000CB1D0000C1
:10F3B000E31D0000FF1D0000171E00002F1E0000AF
:10F3C000451E000000000000991D00009D1D00006A
:10F3D000E31D0000171E00002F1E0000FF1D00008F
:10F3E000B31D0000CB1D0000451E000000010102FE
:10F3F0000102020301020203020303045AD3D9E902
:10F400006CF145F59FF73CF96CFA58FB18FCB9FC18
:10F4100044FDBFFD2EFE94FEF4FE50FFA9FF000048
:10F420005700B0000C016C01D2014102BC0247033D
:10F43000E803A8049405C4066108BB0A940E2716C5
:10F44000A62C0100020001000200040002000100DD
:10F45000020001001000FFFFFFFFFFFFFFFF14008D
:10F46000FFFFFFFFFFFFFFFF0C000000DDE70000D4
:10F47000EDE60000E7EB000051E80000FBE90000CA
:10F4800037EA000039E9000097E90000B7E9000019
:10F49000D7E9000005EB000007EB0000BBE8000027
:10F4A00009EB0000FBE8000059E90000F7E9000063
:10F4B00045EB000049EB000099EB0000A3EB0000D6
:10F4C000ADEB0000B7EB0000C1EB0000CBEB0000A0
:10F4D00071EB00007FEC0000DFEB0000A5EC00000A
:10F4E00083EC00008DEC000099EC0000ECF40000CF
:10F4F00000281000940200000001000024F5000024
:10F50000942A1000AC1A00005C0100001AAA010144
:10F510002C1AFF0101125305FA0214F802F9011620
:10F52000FFFFFEFF0A25FEFFFFFF12011A02040182
:10F530001E3206320F9A37089AE10803AED3030948
:10F5400036D00000000000000000000000000000B5
:10F5500000000000000000000000000000000000AB
:10F56000000000000000000000000000000000009B
:10F57000000000000000000000000000000000008B
:10F58000000000000000000000000000000000007B
:10F81000000000000000000000000000B6E87F10BB
:10F82000A5962600FFFFFF3F00000000FFFF01003C
:10F83000000000001E11FF04CF02010000000000C4
:10F840002B010AEFF540640032000A1255640010E3
:10F850000010001000000003001010000000000065
:10F860005F00A0C90C0025000C002E00E4E9080090
:10F87000280008002800000018001800505D000053
:10F880003603FA004000308010005E018001E00184
:10F890003C1828640901000AD000080F0380010306
:10F8A0003D01210A01F104221003A20810004000CA
:10F8B0000000000880000A040D0D0A980130F800CD
:10F8C0000F9000200006040240006400A203200004
:10F8D000138F0220180020010000003000002003D8
:10F8E0004302B40008003000032030701000000014
:10F8F00001040D000E000F001100120000000000B6
:10F9000000000000000000000000000000000000F7
:10F910000000FF010000000000000A0012000301C7
:10F92000014000000000000000000041181F03001B
:10F93000003218020F0510000F0407100E0B000014
:10F94000010312105A44100000000000005000FA99
:10F950006600AC0DB80B000C000C000C000C005E37
:10F960002BF0003200800C800C040000010000002D
:10F97000FB3F70006400101010003000C920100020
:10F98000FF01230000000010F040000008005001BB
:10F99000D7000604B4C018006000108000000010FA
:10F9A00050001E0100000190010412283060600028
:10F9B000E81028283C350030000100018000C0001C
:10F9C00001100030300806D91000300080005001CE
:10F9D000008000640080000308C8001020010000BF
:10F9E00051000020080050000A00010400021E031C
:10F9F00011D24000010000008402100000203220DB
:10FA0000FFFFFFFF00008022001F11121300000003
:10FA100002000200020000000008000000000000D8
:10FA200000220000000000000000000000000000B4
:10FA300000000000000000080000000000000000BE
:10FA40000000B400B40000002000C8000202000062
:10FA5000030303020203F000803E55002000000172
:10FA6000B408FF01FF01FF01FF014000000000009A
:10FA70000000002000000100000000000000000065
:10FA80001F500050004332430F14AA08000000002A
:10FA900028565A5C5E606264646462605E5C5A56BA
:10FAA0002864646464646464646464646464646452
:10FAB000646464646464E000000402020000000006
:10FAC000585A5C5E60626464646464646464646420
:10FAD000646464646464646462605E5C5A58646410
:10FAE00064646464646464646464646464646464D6
:10FAF000646464646464646464646464E000000076
:10FB000005DF000E800080000010000410070B00CD
:10FB10000101000000000000FFFFFFFF00000000E7
:10FB200000000000000000000000000000000000D5
:10FB300000000000000000000000000000000000C5
:10FB400000000000000000000000000000000000B5
:10FB500000000000000000000000000000000000A5
:10FB60000000000000000000000000000000000095
:10FB70000000000000000000000000000000000085
:10FB8000FAB2B240202828E0A2A240203C003C006B
:10FB90003C003C002020202020B2B240202807005A
:10FBA0008802F6000801180118010000000000009A
:10FBB0000000000000000000000000000000000045
:10FBC0000000000000000000000010001000030111
:10FBD00001FFF600080118011801050000000000EF
:10FBE000000000000000000021082042000000008A
:10FBF0003307E901BF00570028000A000A000A0085
:10FC00000A000A000A000A0028005700BF00E901A4
:10FC100033070000000000000000000000000000AA
:10FC200000000000000000000000000000000000D4
:10FC300000000000000000000000000000000000C4
:10FC400000000000000000000000008000800004B0
:10FC50000000000002000102030001020300000096
:10FC60000017A001090000000007C409100E100EC3
:10FC7000100EFC089808C05DC05D10272823000006
:10FC80000180008000000000000000000000000073
:10FC90001018000008001500360051007200920094
:10FCA000AF00CE004B01C6014402B7023403B103DA
:10FCB0002C044C046A048A04A604C604E604F8046E
:10FCC000FF04000002001200400062008200A20057
:10FCD000C100DF005601CD014402B7022E03A80384
:10FCE00020043A04590479049B04BC04DB04FF0497
:10FCF000FF040000070015003C0064008B00B0000A
:10FD000027019E01100237025F028702AE02C8027D
:10FD1000CF0200000200120043006A009800B90000
:10FD20002B019D01100232025C028A02AE02CF0258
:10FD3000CF020000000000000000000000000000F2
:10FD400000000000000000000000000000000000B3
:10FD500000000000000000000000000000000000A3
:10FD60000000000000000000000000000000000093
:10FD70000000000000000000000000000000000083
:10FD80000000000000000000000000000000000073
:10FD90000A0900001000300040018002C003C004C6
:10FDA000F004FF0400001000300048018002B0039E
:10FDB000B004D004FF0400003000F0006801F4013A
:10FDC00058028002A802BC02CF02000030000401E9
:10FDD0006801F40158028A02A802BC02CF020000A6
:10FDE0000000000000000000000000000000000013
:10FDF0000000000000000000000000000000000003
:10FE000000000000000000000000000000000000F2
:10FE100000000000000000000000000000000000E2
:10FE200000000000000000000000000000000000D2
:10FE300000000000000000000000000000000000C2
:10FE400000000000000000000000000000000000B2
:10FE500000000000000000000000000000000000A2
:10FE60000000000000000000000000000000000092
:10FE70000000000000000000000000000000000082
:10FE80000000000000000000000000000000000072
:10FE90001018000008001500360051007200920092
:10FEA000AF00CE004B01C6014402B7023403B103D8
:10FEB0002C044C046A048A04A604C604E604F8046C
:10FEC000FF04000002001200400062008200A20055
:10FED000C100DF005601CD014402B7022E03A80382
:10FEE00020043A04590479049B04C504F204FF0475
:10FEF000FF040000070015003C0064008B00B00008
:10FF000027019E01100237025F028702AE02C8027B
:10FF1000CF0200000200120043006A009800B900FE
:10FF20002B019D01100232025C028A02C002CF0244
:10FF3000CF020000000000000000000000000000F0
:10FF400000000000000000000000000000000000B1
:10FF500000000000000000000000000000000000A1
:10FF60000000000000000000000000000000000091
:10FF70006464326001000000000000000000000026
:10FF80000000930041002800A7020000700250000A
:10FF900001020404001E00000000018C04040000A3
:10FFA00000000000000000F600530388000000007D
:10FFB0000000000000000000007220000F001A0086
:10FFC0000801A600000801A60000EA409300820391
:10FFD000820300000200009817000000600000107B
:10FFE00000000000000000000008200000010000E8
:10FFF0000000000000000000000000000000000001
:020000021000EC
:100000002196010000000000000000000000000038
:10001000000000000000000000000022E3289D22F4
:00000001FF
