:100000005555AAAA7400000000000000000000007E
:10001000130100000000000000000000280C063959
:1000200000091000E9070000790200008F020000BB
:10003000A5020000BB020000D10200000000000089
:10004000000000000000000000000000151F00007C
:10005000191F000000000000E70200001B1F000045
:100060001D1F0000511D0000351F0000891D0000EC
:10007000371F0000391F0000471F0000551F0000F8
:10008000F9020000711F0000731F0000751F0000BF
:10009000771F0000791F00007B1F00000000000098
:1000A0000000000000000000000000000000000050
:1000B0000000000000000000000000000000000040
:1000C0000000000000000000000000000000000030
:1000D0000000000000000000000000000000000020
:1000E0007400000000F002F800F05AF80AA090E84E
:1000F000000C82448344AAF10107DA4501D100F0E3
:100100004FF8AFF2090EBAE80F0013F0010F18BF55
:10011000FB1A43F001031847ECE100000CE2000079
:100120000A444FF0000C10F8013B13F0070408BF1D
:1001300010F8014B1D1108BF10F8015B641E05D0BB
:1001400010F8016B641E01F8016BF9D113F0080F70
:100150001EBF10F8014BAD1C0C1B09D16D1E58BF02
:1001600001F801CBFAD505E014F8016B01F8016B39
:100170006D1EF9D59142D6D37047000000230024AC
:1001800000250026103A28BF78C1FBD8520728BFA7
:1001900030C148BF0B6070471FB51FBD10B510BD03
:1001A000DFF80CD0FFF7F8FF01F0F8FF0DF0F7FED5
:1001B0000009100003B4FFF7F1FF03BC0DF0F6FED9
:1001C0000A484FF0FF0101704FF0000080F31188E2
:1001D0004FF0000080F3098805484FF002010170DC
:1001E00062B604484FF080510160704722ED00E094
:1001F0000009100004ED00E002484FF0805101605A
:100200007047000004ED00E04FF0200080F31188FB
:10021000EFF3098058B10E49096820E9F00F8860B2
:1002200000B50B48006800F0F2F85DF804EB0848F0
:1002300008490A68026000688168B1E8F00F81F33C
:1002400009884EF0040E4FF0000080F311887047CB
:100250000409100008091000EFF311804FF020018D
:1002600081F31188704700004FF0000080F311887F
:100270007047000062B6704772B6704740BA704768
:10028000C0BA7047401E0028FCDC704700BE7047B3
:1002900040BA7047C0BA70471EF0040F0CBFEFF3AE
:1002A0000880EFF309804FF0010101F0A4BD1EF0BA
:1002B000040F0CBFEFF30880EFF309804FF0020149
:1002C00001F099BD1EF0040F0CBFEFF30880EFF3AF
:1002D00009804FF0030101F08EBD1EF0040F0CBF2A
:1002E000EFF30880EFF309804FF0040101F083BDC4
:1002F0001EF0040F0CBFEFF30880EFF309804FF0FE
:10030000050101F078BD4FF0000000B502F04DFC92
:100310005DF804EBFFF778BF1EF0040F0CBFEFF39E
:100320000880EFF309804FF0000101F064BD000088
:10033000194910B5012008701849002008601849B3
:100340000860184908601849086000F0B3F900F027
:1003500045F900F063F8002010BD10B5114800F019
:1003600024F90E490968884209D00D4908600A48F5
:100370000078022803D1BDE81040FFF73DBF10BD53
:1003800010B5FFF7EAFF044902200870FFF718FFD5
:100390004FF0FF3010BD00000009100004091000EC
:1003A000080910000C0910001009100070B50D4666
:1003B0000446C1698068CC220DF0F4FCE169A068B4
:1003C000084440384FF08071C163216A8163002185
:1003D00041630163C1628162C0E908514FF00B3192
:1003E000C1614FF00A3181614FF0093141614FF035
:1003F000083101614FF00731C1604FF00631816073
:100400004FF0053141604FF00431016070BD8269E9
:100410008168914201D801F066BF704710B54FF472
:10042000B4714C480DF0E8FC002010BD70B50546D5
:1004300000EBC501474800EB8104FFF70DFF0646BE
:10044000207828B13046FFF70FFF6FF0010070BD34
:100450000320207000206560206204F11C0000F081
:100460007DF83046FFF700FF002070BD2DE9F04118
:100470000F46384900EBC000012501EB800400263F
:10048000FFF7EAFE8046206A3843206204F11C0030
:10049000074600F08AF80BE0216A026C114202D094
:1004A00000F060F901262946384600F074F86D1C0A
:1004B0000028F1D1012E01D1FFF74FFF4046FFF791
:1004C000D3FE0020BDE8F08170B50D46214900EB58
:1004D000C00001EB8004FFF7BFFE216AA94321623F
:1004E000FFF7C2FE002070BD70B50C46194900EB45
:1004F000C00001EB800500202060FFF7ADFE296AF7
:100500002160FFF7B1FE002070BD2DE9F0410D46DE
:10051000104900EBC0001F46904601EB8004FFF736
:100520009BFE06460C4800680564216A294203D1F7
:1005300004F11C0100F028F9206A28403860B8F165
:10054000010F02D1206AA84320623046FFF78CFEDB
:100550000020B7E7980B100004091000002101608B
:100560000846704730B50A6812B10B46C46B09E003
:1005700000220860C0E903210BE000BF02F10C0378
:10058000D26812B1D56BA542F8DC1A68C0E9032124
:100590001860002030BD0068002201E0C068521CD5
:1005A0008A4201DA0028F9D1704700687047026971
:1005B0000AB1116831B96FF00400704701F10C0203
:1005C000C96839B18142F9D1C9681160002101615E
:1005D000084670476FF003007047000010B54FF4F5
:1005E000C87132480DF008FC002010BD2DE9F04123
:1005F000884605462D4900EB8500174601EBC004EF
:10060000FFF72AFE0646207830B13046FFF72CFE71
:100610006FF00100BDE8F08102202070E761142234
:10062000414604F1080065600DF077FB0020206270
:1006300004F12400FFF792FF3046FFF715FE00207B
:10064000E8E770B5194900EB800001EBC004FFF743
:1006500003FE0546D4E90701814205DB144804F195
:100660002401006800F090F8206A401C20622846AF
:10067000FFF7FAFD002070BD70B50C4900EB80005B
:1006800001EBC004FFF7E8FD0546206A08B1401EF3
:10069000206204F12400FFF788FF10B1606A00F0C7
:1006A00011F82846FFF7E0FD002070BD000D100096
:1006B0000409100010B54FF42A7140480DF09CFB5E
:1006C000002010BD10B5044690F8380002280BD069
:1006D0002046FFF76CFF022084F838003849204696
:1006E000FFF740FFFFF739FE002010BD2DE9F05F56
:1006F0008B460646314900EB06109046DDE90AA913
:1007000011F820201D461AB16FF00100BDE8F09FDE
:1007100001EB8004FFF7A0FD074601202070C4E92B
:100720000165C4E90585C4E907A91422594604F105
:1007300024000DF0F2FA002084F8370084F8380025
:100740006169E0602061C4E90F1020460C99FFF751
:100750002DFEA0602046FFF7B5FF3846FFF784FD69
:100760000020D3E710B5044690F83800022809D0DD
:100770002046FFF71CFF022084F83800104920466D
:10078000FFF7F0FE002010BD70B5044690F8380069
:100790000D4602280BD12046FFF709FF032084F8FD
:1007A000380029462046FFF7DDFEFFF7D6FD002082
:1007B00070BD04480068406870470000900E10004B
:1007C0000C09100004091000F0B58446002004460E
:1007D0000C4F14E05CF824600323DD0046FA05F2B8
:1007E00080EA02600825002802DA87EA400000E07B
:1007F00040006D1E002DF6DC5B1EEED5641C8C42A5
:10080000E8DBF0BD1B0000800D4880470D48004725
:10081000FEE7FEE7FEE7FEE7FEE7FEE7FEE7FEE7B0
:10082000FEE7FEE7FEE7FEE7FEE7FEE7FEE7FEE7A0
:10083000FEE7FEE7FEE7FEE7FEE7FEE7FEE7FEE790
:1008400057080000C50000004FF0005191F821004A
:1008500010F00C0009D0042809D0082809D078200D
:10086000401E01F8280F087070470F20F8E71E207F
:10087000F6E73C20F4E7704707493F200870E3E7BC
:10088000054931200870DFE7034800783F2801D090
:1008900000207047012070472100002010B5084952
:1008A000042001240023C1F8FC00064A14601360F0
:1008B000054BA0221A70C1F8FC01C86710BD0000EA
:1008C00084E000E0D403002202E400E010B504203C
:1008D00000F0D6F8052000F0D3F8062000F0D0F89C
:1008E000072000F0CDF8082000F0CAF87649002073
:1008F000086075492031086074490880724A121DE9
:100900001060714A2432106088806F4A083210608B
:100910006D4A2832106008816B4A0C3210606A4AB6
:100920002C3210608881684A10321060664A30327A
:10093000106008820621042000F0BAF80621052084
:1009400000F0B6F80621084600F0B2F806210720AC
:1009500000F0AEF80421082000F0AAF8042000F00E
:100960009BF8052000F098F8062000F095F8072085
:1009700000F092F8082000F08FF8042000F074F8DE
:10098000052000F071F8062000F06EF8072000F056
:100990006BF8BDE81040082000F066B800EB80005E
:1009A0004FF6FF7101EA4001474800220260C2068B
:1009B000118601210160704743490020086070479B
:1009C00000EB80004FF6FF7101EA40013E48002233
:1009D000001D02604FF000529186012101607047B6
:1009E00039490020091D0860704700EB80004FF670
:1009F000FF7101EA400134480022083002604FF0E4
:100A0000005211870121016070472F4900200831F1
:100A10000860704700EB80004FF6FF7101EA40016B
:100A2000294800220C3002604FF0005291870121CA
:100A300001607047244900200C310860704700EBCA
:100A400080004FF6FF7101EA40011F48002210307C
:100A500002601E4A0E3211800121016070471A495E
:100A6000002010310860704700F01F020121914002
:100A700040094FF0E02202EB8000C0F800117047FF
:100A800000F01F020121914040094FF0E02202EBEB
:100A90008000C0F88011704700F01F0201219140D2
:100AA00040094FF0E02202EB8000C0F8801270474E
:100AB0004907090E002803DA00F00F00044A00E09D
:100AC000044A8154704700002405002232000020AF
:100AD00014ED00E000E400E059480121016000212C
:100AE0000160704757480121016000210160704793
:100AF00010B5002000F08BF8534800220260FFF789
:100B0000F1FFFFF7E9FF514802605149A02008704A
:100B1000002000F088F8BDE81040002000F06BB81D
:100B20004A4801211C38016000210160704710B55E
:100B30000446002000F06BF843484149046001205E
:100B40000860002000F06FF8BDE81040002000F0C1
:100B500052B830B53C4889B00468002C11D020212F
:100B600068460DF049F93B4800783A4B00216A4647
:100B70005B1C02E0CD5C5554491C8142FADB1146F6
:100B8000A04709B030BD2E4901201C3908607047CC
:100B90003048203000782F4921310978401A00F080
:100BA0003F0070472C4902780A7042784A70827878
:100BB0008A70C278CA7002790A7142794A71827960
:100BC0008A71C079C871704724480068417882787A
:100BD0004FF00050437A0374214B1B7843744389D0
:100BE0001B0A83744389C37401754275C179817589
:100BF000017AC175704700F01F0201219140400940
:100C00004FF0E02202EB8000C0F80011704700F0C6
:100C10001F020121914040094FF0E02202EB8000C9
:100C2000C0F88011704700F01F0201219140400977
:100C30004FF0E02202EB8000C0F880127047000005
:100C40005C840022A0000022140910007C04002211
:100C500000E400E000040020000200202009100051
:100C60008009100010B5092000F02AF80A2000F0D1
:100C700027F8092000F030F80A2000F02DF80521AF
:100C8000092000F035F805210A2000F031F81E484F
:100C90007F21417081700171002100F848191B49C2
:100CA000096891F8C810CA0709D08A0707D510F853
:100CB0004A2FC1F38203012199408A43027010BD7B
:100CC00000F01F020121914040094FF0E02202EBA9
:100CD0008000C0F88011704700F01F020121914090
:100CE00040094FF0E02202EB8000C0F8801270470C
:100CF0004907090E002803DA00F00F00044A00E05B
:100D0000044A815470470000480000202009100068
:100D100014ED00E000E400E07047C9484FF4805152
:100D2000018000BF00BF00BF00BF00BF00BF00BF09
:100D300000BF00BF00BF4FF4C051018000BF00BF23
:100D400000BF00BF00BF4FF440610180704710B585
:100D5000BB4C0720A41E60700020207044F2C0002D
:100D6000608000BF00BF00BF4CF2C000608000BFC9
:100D700000BF00BF4CF2E00060800920FFF782FA5C
:100D800044F2E000608000BF00BF00BF4FF480402D
:100D9000608010BDF0B500252E464FF00054E027CE
:100DA00017E000BF883401F03F0160702170678058
:100DB00000BF00BF00BFD4F808C043F825C066805C
:100DC000883C00BF6D1C521E491C3F2901D9401CA4
:100DD000C0B2002AE6DCF0BD70B5994C2126268011
:100DE00000BF00BF00BF00BF00BF40F0210525804D
:100DF00000BF00BF00BF00BF00BF44F22101084395
:100E000020800420FFF73EFA258000BF00BF00BF0E
:100E100000BF00BF268000BF00BF00BF00BF00BFF3
:100E20000020208000BF00BF00BF00BF00BF70BD1A
:100E300070B50446824800250580824E012030604E
:100E400000F0EBF8FFF783FF00F0D7F85C20FFF726
:100E5000C3FF2346012202210720FFF79BFF231D2A
:100E6000012203210620FFF795FF04F10803012268
:100E700004210520FFF78EFF04F10C03012203215A
:100E80000720FFF787FF04F1100301220421072048
:100E9000FFF780FF00F0B1F8FFF759FFFFF73DFFC4
:100EA000356070BD70B50446654800250580654E07
:100EB0000120306000F0B1F8FFF749FF00F09DF825
:100EC0005C20FFF789FF2346012208210020FFF75D
:100ED00061FF231D012209210020FFF75BFF04F1C0
:100EE000080301220A210020FFF754FF04F10C033C
:100EF00001220B210020FFF74DFF04F11003012216
:100F00000C210020FFF746FF04F1140301220D21FC
:100F10000020FFF73FFF00F070F8FFF718FFFFF722
:100F2000FCFE356070BD2DE9F0439946079B002615
:100F300003B18026434C0023803CC0B21F466504A9
:100F40004FF001081DE000BF85F8890001F03F0C5B
:100F50004CEA060C85F888C059F823C0C5F88CC047
:100F6000C4F8B080C4F8B070491CC9B2402902D39B
:100F7000401CC0B20021D4F8C0C0BCF1000FFAD1AF
:100F80005B1C9342E0DBBDE8F0834FF0005282F837
:100F90008900002319B1802082F8880001E082F8DE
:100FA0008830284801218038C0F8AC10C0F8AC3037
:100FB000D0F8C0100029FBD1704738B50C46054663
:100FC0000021F820FFF7E1FF0020014600902B46AA
:100FD0002246F820FFF7A7FF38BD38B50C46054676
:100FE00001210020FFF7D1FF0120002100902B46B6
:100FF00022460846FFF797FF38BD10B5104C4FF456
:10100000804020800420FFF73DF90020208000BFB1
:1010100000BF00BF00BF00BF10BD10B5084C4FF4AB
:10102000C050208000BF00BF00BF00BF00BF4FF412
:10103000805020803520FFF725F90020208010BD4A
:101040008A000020801000222DE9F843FF4F002580
:101050002C463D70012000F0A8FB0E2000F0A5FBFF
:101060000D2000F0A2FB0C2000F09FFB032000F0FD
:101070009CFB012000F0A5FB0E2000F0A2FB0D2040
:1010800000F09FFB0C2000F09CFB032000F099FB7C
:1010900000F0BFFCDFF8B88300236A460221404617
:1010A00000F048FEEB4E9DF8010030709DF8000006
:1010B000402800D0032501236A460221404600F063
:1010C00039FE9DF80100317841EA001030709DF83A
:1010D0000000402800D003250521012000F07DFB01
:1010E00005210E2000F079FB05210D2000F075FB95
:1010F00005210C2000F071FB0621032000F06DFBA0
:10110000012000F046FB0E2000F043FB0D2000F014
:1011100040FB032000F03DFBBC707C70FC70284657
:10112000BDE8F883F8B50901840F44EA91041E462E
:1011300020F040450094042A08D13DB934B1254639
:101140000421684601F032F9C049C8700098C6E928
:101150001A50F8BD7FB582B0144602981E46C0F3FF
:101160001201012A19D0022C17D00398C006820B55
:10117000029842EAD0404200032C10D0042C0ED03A
:10118000052C18D141EAC071450800910421684638
:1011900001F00CF9052C05D008E0009100E0009268
:1011A0000025F3E7082102A801F000F986F85A00AB
:1011B0000098C6E9180506B070BD70B50646A64C85
:1011C0000020A64D84F8520021462868052E90F88C
:1011D000880784F85700D1E90E0102D0062E15D0F9
:1011E00031E09D4B3246FFF7B5FF40349A4BD4E9CE
:1011F00000013246FFF796FF9948C0F30E00A08227
:10120000286890F88B076076E9201AE0924B324606
:10121000FFF7A0FF4034904BD4E900013246FFF7BE
:1012200081FF8D480821383001F0C0F88C4901EB6E
:101230008000C0F30E00A082286890F88B076076CB
:10124000ED20A075403CA07880070028286890F821
:10125000BA0701DA20F0030084F8580014F8570F99
:1012600020F00200207079484670BDE870407A484E
:1012700000F084BC79487849006890F8002281F831
:10128000222090F801220A774A88D20504D490F8E7
:10129000022202F00F028A7700F203201A3102784C
:1012A00002F03F024A71B0F801200A80C2788A71C8
:1012B0006C4A0079127800F0F00040EA1210C87110
:1012C00070472DE9FC4705460020634CCDE900003E
:1012D000523406462070614FE12020713968DFF8F2
:1012E000849191F888076071523C012D06D0022D3F
:1012F0002ED0032D42D0042D7DD0D9E0A068C0F3BC
:101300001200CDE9000646083146002000F0D3FC6B
:101310003146012000F0CFFC94F8570020F008007F
:1013200084F857005048C0F30E00A4F85400386801
:1013300099F8002090F8AD1702F00F0201F0F001CB
:10134000114384F8211090F8B40784F8220058E083
:10135000A06AC0F31200CDE900064608314600201D
:1013600000F0A9FC3146012000F0A5FC94F85700DC
:1013700020F0080084F857003C4887E0227BA068F2
:1013800002F01F02C00C40EA4230D20CCDE900024C
:10139000804691F8B40784F822004146022000F00C
:1013A0008AFC4146032000F086FC94F8570008218F
:1013B00040F0080084F857002748103000F0F6FF8E
:1013C0008046A0680821C0F31200CDE900066846F7
:1013D00000F0ECFF244900FB08F001EB4000C0F3F3
:1013E0000E00A4F85400386899F8001090F8AD0782
:1013F00000F0F00000E00FE001F00F01084384F876
:101400002100D4E90201144B2A46FFF7A3FED4E9D8
:101410000401114B2A4649E094F82C10A06A01F00F
:101420001F01C00C40EA4130C90CCDE900018046E3
:101430004146022000F03FFC4146032000F03BFC07
:1014400094F8570040F0080012E00000180910005E
:10145000041000208009100038111000200910002D
:10146000808C0120F607100000800120D08D012023
:1014700084F85700A06A0821C0F31200CDE90006E5
:10148000684600F093FFDA4901EB4000C0F30E001C
:10149000A4F85400FFF7EEFED4E90A01D54B2A4622
:1014A000FFF758FED4E90C01D24B2A46FFF73AFE6B
:1014B0006088410794F8571002D521F0020105E039
:1014C0003A6892F8882702F00202114384F8571014
:1014D000C10705D094F8561041F0020184F8561067
:1014E000800710D4032D0ED0042D0CD0386890F84E
:1014F000BA0700BF84F85800BF484570BD4800F0E7
:10150000F5FABDE8FC87386890F8BA0720F00300C8
:10151000F0E701280AD0032808D0022806D00428C2
:1015200004D0052801D0062801D146E6C9E6704757
:10153000F8B5B14D0746012901D1002028712C7959
:10154000AE4E641C08E000BF56F8242069463846B9
:101550009047012804D0641C072CF5D90020F8BD61
:101560002C719DF80000F8BD70B5017800291CD0E1
:10157000014670229F4801F075FA9F4D6878002857
:1015800013D101219B48FFF7D3FF04000DD09C48E5
:10159000006890F81801000708D500F0BDFB012095
:1015A000A8700A2000F094FA6C7070BD00202870BA
:1015B0002046BDE87040ACE70020704782685203C7
:1015C00005D00078C00702D00120087070470020C5
:1015D0007047826A520306D00078000703D50220C4
:1015E00008700120704700207047037B826803F079
:1015F0001F036FF312021A4306D00078C00703D00E
:1016000003200870012070470020704790F82C30AC
:10161000826A03F01F036FF312021A4306D00078A8
:10162000000703D504200870012070470020704790
:1016300090F83C30826B03F01F031A4306D0007809
:10164000800703D5052008700120704700207047EF
:10165000D0E9102323F070431A4306D000784007E6
:1016600003D5062008700120704700207047002035
:1016700008700120704770B55F4D614C614E68780D
:10168000052807D12068407D420006EB40015E48F6
:1016900001F0E8F9687806280CD12168087D497DB9
:1016A000420000EB410106EB4101BDE870405748A4
:1016B00001F0D8B970BD1FB500F078F901208DF8A0
:1016C0000000534801904F4802904B484849C27867
:1016D00001EB420103910021C17046484168684610
:1016E00088471FBD7FB5FFF7C6FF00214148FFF7C0
:1016F0001FFF10B1FFF70DFF7FBD3F4D002445498F
:101700006C70A42008733E48006890F81801000728
:1017100002D5AC7000F0FBFA2878012810D08DF8C3
:1017200000403B480190374802903148E97800EB8F
:10173000410003902F48EC704168684688477FBDA0
:1017400002208DF80000ECE72D4810B500684FF03E
:10175000000290F818010107274806D58178012971
:1017600007D002290ED0032912D18270BDE81040A3
:10177000A1E70221817000F0D4FABDE810403220C8
:1017800000F0A6B9032181704078BDE81040C0E6A2
:1017900010BD00F01F020121914040094FF0E022EE
:1017A00002EB8000C0F80011704700F01F02012119
:1017B000914040094FF0E02202EB8000C0F8801118
:1017C000704700F01F020121914040094FF0E022D4
:1017D00002EB8000C0F8801270474907090E00280C
:1017E00003DA00F00F000C4A00E00C4A8154704705
:1017F000D08D0120381110001809100098DF00006A
:1018000020091000808C01202C8F01206C8F01207A
:10181000008001200010002014ED00E000E400E052
:101820002DE9F0430024FE4E814625462746002040
:101830009C4206DA00EB060819F804C088F860C07C
:1018400003E000EB060C8CF86070641C401C0F2851
:10185000EEDB501900F01F00084340F0800086F8CE
:1018600035006D1C022DE2DBBDE8F08300B51223CC
:101870001C220021EB48FFF7D3FFEA481E231A463B
:1018800000212430FFF7CCFFE64812231C22402120
:101890001230FFF7C5FF1E23E24840211A464230AE
:1018A0005DF804EBBCE7E0480168DD4801F28771B0
:1018B00018300A7800F8112C4A7800F8102C8A7831
:1018C00000F80F2CCA7800F80E2C0A7900F80D2CBD
:1018D0008A7C4270CA7C82700A7DC2704A7D027125
:1018E0008A7D4271CA7D82710A7EC2714A7E02720D
:1018F0008A7E4272CA7E82720A7FC272CB4A127894
:1019000002738A7F4273CA7F827391F82020C27368
:1019100091F821200274C54A521C12784274552253
:10192000827400F8132F11F8252F4270BF4B4A78AC
:10193000DB1E02F0F0021B7803F00F031A438270E3
:101940008A78C270CA7802710A7942714A798271C2
:10195000B64A921E1278C271B44A521E12780272AE
:101960000A7A42728A7AC272CA7A02730A7B427314
:101970004A7B82738A7BC273CA7B02740A7C42747C
:101980004A7C82748A7CC274CA7C02750A7FA84928
:101990000A701E2200F8132C332048740B20887420
:1019A0007047A44801680029FCD17047A248002272
:1019B0000260A1481C380260A04802610121016157
:1019C000826081600260016002609A49A0F57470D3
:1019D0000B68002BFCD192490B7B43F020030B7367
:1019E0000B7B23F040030B730B7B23F080030B7303
:1019F0000B7B23F020030B73C0F8D823C0F8E0233F
:101A00008F48027070478B48183001680029FCD15C
:101A1000704710B5894800247430046087488030CE
:101A200004608648C4600121C160C4600460016034
:101A300004607B480172017220210173A4210173AB
:101A40007C48183001680029FCD1FFF7AFFFFFF791
:101A50002AFFFFF70BFF7B4804607A4820300460C0
:101A60004FF00050848510BD6D49026E4A73130A11
:101A70008B73130CCB73130E0B7492FAA2F2B2FA9F
:101A800082F24A74426E81F84420130A81F845308C
:101A9000120C81F8462090F85A208A74826ECA741B
:101AA000130A0B75130C4B75130E8B7592FAA2F279
:101AB000B2FA82F2CA75C06E81F84000020A81F85B
:101AC0004120020C81F84220000E81F8430070474B
:101AD0005C4900220A600A06908501200860704770
:101AE0005448001F01680129FCD1704710B5044615
:101AF000FFF7BAFF4E481834401CA18F01804849B7
:101B000094F84020193181F82120474A126802F2E6
:101B1000997253784B7093788B702378CB702388AD
:101B20001B0A0B71A3784B7163881B0A8B71237995
:101B30008B77A3794B77637900F8013CE379CB7716
:101B4000237ACB74637A0B7512780A7094F83E206E
:101B5000427394F83F20543801F8112CA27ACA76C7
:101B6000344A1939121F1368012BFCD190F8610017
:101B70000873BDE8104041F28830A9E710B504466B
:101B8000FFF772FF2A494834491CA089088024487D
:101B9000E27B0272244A126892F89A3783761930EF
:101BA00092F89B3783702378C37123881B0A0372D2
:101BB000A378037363881B0A43732379837763795C
:101BC00001F8013CE379C377237A4375637AC375DF
:101BD000A37B4B73637C543900F80E3C92F8993721
:101BE00023F0070300F81939A37A483CDB0702D039
:101BF00092F8CE2701E094F84E2080F836200D4A66
:101C0000121F1368012BFCD194F8582080F83A2059
:101C100091F861100173BDE8104041F2883057E738
:101C2000001000203804100020091000F9071000EF
:101C300053000020040B00221C0C0022D0030022C1
:101C400019091000200500226149624B0A6892F8C8
:101C5000892702700A681B7892F8AD2703F00F03FA
:101C600002F0F0021A4342700A68B2F8A2274280DA
:101C7000096801F2A7710A8882800A7A82718A7AD9
:101C8000C271497B017270475349027801F80C2CEC
:101C900042780A7682784A734288120A8A730279F5
:101CA0008A748288120ACA7482798A76C2790A771B
:101CB000007AC8777047F0B5122628B1012806D0FF
:101CC00002280AD0454803E04FF4801007E044485A
:101CD000C024414D0023153D03E040480F388024C7
:101CE000F7E7CA070DD0002202EB050C875C8CF8E1
:101CF0006070521C0F2AF7DB03F01F02224385F8A5
:101D000035201E3049085B1CB342EADBF0BD324986
:101D100004201539087370472F492020153908739E
:101D200070472D49C0201539087370472D49002090
:101D30000860704770B52C4C2568002DFCD12A4EE8
:101D40001C361BB101233360002305E03560FBE73F
:101D5000C6185B1C86F880508B42F9D32368002B91
:101D6000FCD102E0C45CD4545B1C8B42FAD370BD3E
:101D700010B500F03AFF1B49002008601B480078AE
:101D8000002810D01848183801680029FCD11248E2
:101D90001538C078400602D5154901200870BDE805
:101DA0001040FFF79FBC10BD10B500F01EFF0D499D
:101DB00000200860BDE81040FFF7C6BC10B500F079
:101DC00014FF084900200860BDE81040FFF7BCBCC4
:101DD00020091000F6071000151000202B0210003B
:101DE0000F001000200500221C0B00221909100012
:101DF00018091000FEE70446012006F026F900212C
:101E00000F20226806F036F901210F20626806F0E3
:101E100031F902210F20A26806F02CF903210F20CE
:101E2000E26806F027F90C210F20226906F022F95A
:101E30000E210F20626906F01DF90F210846A269E4
:101E400006F018F920210F20E26906F013F938484E
:101E5000026821210F2006F00DF93548103802687C
:101E600022210F2006F006F931480C3802682321A0
:101E70000F2006F0FFF82E480838026824210F20B2
:101E800006F0F8F82A48001D026825210F2006F008
:101E9000F1F827483438026826210F2006F0EAF8C6
:101EA00023481438026827210F2006F0E3F8FEF7D4
:101EB00080FC024630210F2006F0DCF8FEE710B56A
:101EC000012805D0022805D0032809D0032102E00B
:101ED000012100E00221BDE81040032006F0B5B862
:101EE0000021032006F0B1F8FEE710B504460146D4
:101EF000042006F0AAF8012C00D1FEE710BD01462F
:101F0000082006F0A2B80146062006F09EB810B5DB
:101F100004460146072006F098F824B1012C03D0AE
:101F2000022C02D1FEE7FEE7FEE710BD0220EEE73D
:101F300038ED00E000F059BE704770471D4810B5FD
:101F4000016821F00401016000F04FFEBDE810407F
:101F5000FEF7FFBD7047704710B500F046FEBDE8C4
:101F6000104005F057BF10B500F03FFEBDE810402F
:101F700006F0A6BA10B500F038FE0F48006890F8D9
:101F80002901800703D5BDE8104005F051BF10BD01
:101F90007047704770477047704770477047704789
:101FA0007047704770477047704770477047704779
:101FB0007047000010ED00E02009100010B542212C
:101FC00088480BF0F7FE87488749018087494180A0
:101FD000874981808749C18087490181874941813B
:101FE000874981818749C181874901828749418227
:101FF000874981828749C182874901838749418610
:10200000874981868749C186874901878749A0F822
:102010004010874801688548B1F89C274280B1F894
:10202000A027C280B1F8A517018110BDF0B585B019
:10203000FF22142168460BF0B5FE6846FEF7F8FE55
:10204000039803250127072645F2AA54A04202D08F
:102050000498A0423AD1DDE90001884206D00299F5
:10206000884203D00198884208D100900498A04289
:1020700010D10098000E012805D007E05FF00000A5
:10208000FFF741FF0FE00098C0F301370098C0F35D
:10209000032602E00120FFF736FF0398A04213D188
:1020A000009800F007056349887920F0F30207F0F3
:1020B000030040EA0610104388715F48017865F319
:1020C0000201017005B0F0BD0220D9E70120FFF741
:1020D0001AFFF9E770B5FEF7CFFBFEF709FD544D87
:1020E00028680078A52802D00120FFF7FEFE53489B
:1020F000006810B10020FFF7F8FE28684FF00006D6
:102100004FF0010490F829118A074FF0085104D5C7
:10211000C1F89863C1F8804301E0C1F8984390F892
:102120002811474A01F00101116090F82811121D91
:10213000C1F34001116043490C60091F0C60091F85
:102140000C6090F8C800C1070BD0810709D5C0F317
:102150008200012805D138483130017821F007018B
:102160000170FEF7D9FDFEF7B1FBFEF76DFF032806
:1021700001D1FFF7A4FEFEF727FDFEF78FFBFEF768
:1021800071FDFFF753FF286890F8290181072E4859
:1021900001D5046000E00660046070BD10B54FF02A
:1021A000005174204881FFF795FFFFF707FF27498B
:1021B0003F20086026490020086027482549016023
:1021C00001F55D6025490860254800F00BFBFEF72E
:1021D00053F800F047F8FEF74DF8FEF7D1F801206C
:1021E00010BD000000000120008001202496012085
:1021F000A4A2012042000120808C0120AE10012009
:10220000EE100120581101209811012028180120FA
:1022100068180120CC0C01200C0D0120A410012015
:10222000D08F0120DA8F0120C20C0120643B100006
:10223000200910000010002020000020C8100022FB
:1022400088040022280A00227C0400225411012064
:102250007C091000281E1000480910004C091000CD
:10226000C83910007FB5FEF763F8204D002400BF89
:1022700005EB441000F11002017F4CCACDE9026168
:10228000CDE900230FC8FEF731FA10B10120FFF7A6
:102290003EFE641C072CEBDB144D002415F1E00519
:1022A00004EB440005EB8001091D55F8200006C928
:1022B000FEF79CF910B10120FFF729FE641C072CE2
:1022C000EEDB0B4D002400BF05EBC400416855F860
:1022D0003400FEF7ABF810B10120FFF718FE641CC4
:1022E000062CF1DB7FBD4068FFF720BEB8DF0000A1
:1022F000ECE000002DE9F0479246012547F6F87220
:1023000056429946AC460024089F16E030F8143037
:1023100031F81480A8EB03031BB29A4200DD1A4681
:102320009E4200DA1E46002B02DA4FF0000502E062
:1023300001DD4FF0000C04F10104BC42E6DB55EA7C
:102340000C0306D0012D01D02DB108E0BCF1010F26
:1023500005D1002203E0BCF1010F00D13246002577
:102360002C462B4611E000BF30F8136031F813C043
:102370001644ACEB060636B24E4505DAC9F1000C40
:10238000664501DD3544641C5B1CBB42ECDB95FB00
:10239000F4F10A44002105E030F8113013442AF822
:1023A0001130491CB942F7DBBDE8F08770B5034630
:1023B00000200246FD4C09E09D5C521C05F00F0612
:1023C00004EB1515A65D2D78304428448A42F3DBD2
:1023D00070BD884200D308467047884200D808463E
:1023E0007047884200D30846904200D31046704799
:1023F0002DE9F047D0F810C00568046A85FB0C127F
:10240000A1FB041242694368914683FB0262826920
:10241000E246A6FB02677618D0E9021781FB07C8DF
:10242000C069ACFB00C81CEB060682FB0A2CA2FBB1
:10243000011280FB0902A0FB0502401884FB071271
:10244000A1FB03120818301A4FEAE071ACE72DE93E
:10245000F04389B0044600680090606801902069EC
:1024600002906068039020690490A069059020693B
:102470000690A0690790E06908900D466846FFF74E
:10248000B7FF8046A0680190E068049060690790FB
:1024900089466846FFF7ACFF064660680190A06871
:1024A000029020690490E0680590A0690790606937
:1024B00008900F466846FFF79BFFC5E90401C5E990
:1024C0000267C5E9008909B0BDE8F0832DE9FF4F37
:1024D0004FF0000A89B09B465746D146D046564633
:1024E00055465446202168460BF086FC0B9810E0B8
:1024F0000999824431F9102000FB00F102FB0166CA
:102500008844414302FB009901FB004417440D44F9
:10251000401C5845ECDD0B99ABEB0100401CCDE9AC
:10252000000ACDE90654CDE90486CDE90279684672
:102530000A99FFF78CFF0DB0BDE8F08F9C48016849
:10254000087B4A7B40EA02208A7B40EA0240CA7B41
:10255000097C40EA026000184941704794480168CC
:1025600008794A794B7A40EA02208A7940EA0240A7
:10257000CA7940EA02600A7A42EA03228B7AC97A6F
:1025800042EA034242EA0161704700B5FFF7D6FF15
:1025900049084FEA30000018494100BD2DE9F34FCA
:1025A00083B00446FFF7F1FFCDE90001FFF7C6FF56
:1025B00081468A4608216846FFF7F8FE4FF000087A
:1025C000DDE9006704EB400B454644462246012006
:1025D00000210BF06BFB03460A46304039400843AC
:1025E0000DD003EA090302EA0A02134306D0049855
:1025F0003BF8152020F8182008F101086D1C641C18
:10260000202CE3DB05B097E7A8E72DE9F34F85B071
:102610000446FFF7BAFFCDE90201FFF7F5FFCDE968
:102620000001FFF79BFF81468A46082102A8FFF7B9
:10263000BDFE054608216846FFF7B8FE00EB4500E1
:102640004FF00008DDE9006704EB400B45464446C7
:102650002246012000210BF029FB02460B463040A8
:10266000394008430DD002EA090203EA0A031A437B
:1026700006D006983BF8152020F8182008F101082C
:102680006D1C641C322CE3DB07B055E72DE9F047E5
:10269000474800252C46006800F5F57890F8E87169
:1026A000AFB190F8E611C90715D000264FF0010927
:1026B00009FA06F0074207D018F806200120002189
:1026C0000BF0F4FA05430C43761C052EF0DB681979
:1026D00044EB040168E690F8E921012000210BF0A9
:1026E000E5FA05460C46F2E72DE9F04730480024AC
:1026F0002546006800F5F57890F8E871FFB190F88C
:10270000E611C90708D090F8E921012000210BF05B
:10271000CDFA04460D4612E000264FF0010900BF35
:1027200009FA06F0074207D018F806200120002118
:102730000BF0BCFA04430D43761C052EF0DB20465B
:10274000294631E670B50022194C012303FA02F63E
:10275000256895F8E851354203D030F8125021F839
:102760001250521C052AF1DB70BD00B5FFF7E6FEE2
:1027700040F0010000BDF1E60E4A520102EB81017A
:1027800001F1085108607047CA0700D00422C0EB6D
:10279000001001EB800000EBD0704FF4801101EBD2
:1027A00060000078D04000F00F0070471CE100008E
:1027B000200910005411012010B5CB0700D00423CC
:1027C000C0EB001001EB800000EBD0704FF48011E3
:1027D00001EB60010F2408789C40A0439A4010430D
:1027E000087010BD2DE9F14F82B04FF4807102984E
:1027F0000BF002FBFFF7B9FF5FEA51094FEA30081F
:10280000FFF7B9FF4FF0000A8B46554600902A4665
:10281000012000210BF04AFA009A01EA0B01104056
:10282000084323D0002601273446224601200021F8
:102830000BF03CFA00EA080001EA0901084310D055
:1028400029462046FFF7A0FFB04208D00299012395
:1028500001EBC70603FA0AF332681A4332600646F0
:102860007F1C641C242CE0DB0AF1010A6D1C3C2D4A
:10287000CDDBBDE8FE8F2DE9F0478246FE480026FD
:102880000121D0F80090324699F814305C1E1FE008
:10289000032099F8158018E0F84D012707FA01F791
:1028A00055F830503D402D000ED0A0F1010500FB41
:1028B000031705FB031C3AF917703AF91C507D1BEE
:1028C00000D56D422E44521C401C8045E4DC491C5E
:1028D0008C42DDDC02B9012296FBF2F064E52DE9C1
:1028E000FF4F85B00021E44C0391029101910091CA
:1028F0002168012B91F8775005F00F0700D10027D0
:102900004E7D91F87A10C7F1100BB14200D20E46FD
:1029100000210123049186E04FF00009C8460324FA
:1029200022E0D6494FF0010C0CFA03FC51F83410A8
:1029300001EA0C01090004FB053130F911C0A4F1D2
:10294000010101FB053130F91110ACEB010106D09A
:10295000002900DA4942DDF818C0A1EB0C0100297A
:1029600000DA49428944641CB442DADB31469EF8FD
:1029700015A022E0C14C4FF0010C0CFA03FC54F8F6
:10298000314004EA0C04240001FB053430F914C082
:10299000A1F1010404FB053430F91440ACEB04044C
:1029A00006D0002C00DA6442DDF818C0A4EB0C0459
:1029B000002C00DA6442A044491C8A45DADC049900
:1029C000012910D10199B1EB090101D5C1F1000133
:1029D000039C214403910099B1EB080100D54942C1
:1029E000029C21440291CDE900899EF87B10994216
:1029F00016D11168039D79430BFB0511CC1701EB30
:102A00001471091111609168029D79430BFB051146
:102A1000CC1701EB1471091191600021039102910F
:102A200001215B1C04919449D1F800E09EF81450F8
:102A3000691E99423FF770AF5068039B78430BFBC8
:102A40000300C11700EB117000115060D068029BA9
:102A500078430BFB0300C11700EB11700011D0602D
:102A600009B069E504E000BF11F8013B00F8013B43
:102A7000521EF9D299E67FB50E460446FFF785FD52
:102A8000CDE90001FFF7C0FDCDE90201DDE900015C
:102A900049084FEA3000CDE900014FF008016846CF
:102AA000FFF784FC0546082102A8FFF77FFC2844B5
:102AB000820021463046FFF7D5FF7FBD0B466E49A9
:102AC00009684A7D097D521C4A4301465200184656
:102AD000C8E770B5044670210BF08EF90020207015
:102AE00060806060FFF741FEC4E90201FFF743FE2A
:102AF000634DC4E90401604E68882083306800F2A9
:102B00009E7001886183417E217790F82A10617759
:102B1000017EA177817EE177817B84F8201059497D
:102B2000C07B097800F0F00001F00F01084384F841
:102B30002100FFF7ABFDC4E90A01FFF7D5FDC4E9A9
:102B40000C01FFF722FDC4E90E01FFF75DFDC4E9AA
:102B50001001E888A4F84800A4F84A00306800F2A0
:102B6000AE70C17E84F84C10417F84F84D10817F97
:102B700084F84E10017F84F84F10017884F85010CB
:102B8000817884F85110007B84F8580070BD3F2193
:102B9000B0FBF1F13F314908B0FBF1F211444908B3
:102BA000B0FBF1F008444008FFE510B50446FDF71E
:102BB00063FB012C09D13048006890F818014007E8
:102BC00003D531480078052803D0FDF75DFE30B10C
:102BD00007E0FDF759FE20B1FDF752FE01E0FDF7D9
:102BE0004BFEBDE81040FDF745BB0020DDE7224B62
:102BF00010B51A68947E640704D5D28A0468A2EBE3
:102C0000040202601A68947EA40703D5128B0C6834
:102C1000121B0A600268002A00DA002202601C68A7
:102C2000E48AA24200DD224602600A68002A00DA35
:102C300000220A601C68248BA24200DD22460A6042
:102C40001B689B7EDB0702D003680B60026010BD2F
:102C5000F0B500252C4608E031F9146030F9147005
:102C6000F61B964200DD6D1C641C9C42F4DB022DB9
:102C70000CD90120F0BD000020091000C839100057
:102C8000643B1000F6071000740910000020F1E703
:102C90002DE9F04F9246DDE909B7012547F6F872B4
:102CA00056429946AC46002417E000BF30F8143075
:102CB00031F81480A8EB03031BB29A4200DD1A46D8
:102CC0009E4200DA1E46002B02DA4FF0000502E0B9
:102CD00001DD4FF0000C04F10104BC42E6DB55EAD3
:102CE0000C0306D0012D01D02DB108E0BCF1010F7D
:102CF00005D1002203E0BCF1010F00D132460025CE
:102D00002C462B4611E000BF30F8136031F813C099
:102D10001644ACEB060636B24E4505DACBF1000C94
:102D2000664501DD3544641C5B1CBB42ECDB95FB56
:102D3000F4F10A44002105E030F8113013442AF878
:102D40001130491CB942F7DBBDE8F08F10B50146E0
:102D50001022F948FFF786FEBDE810404FF40061ED
:102D60000120FDF783BB70B59EB006460D461446A4
:102D70006846FFF7AEFE14F0050F02D001208DF873
:102D80000000EE4814F0180F09D0016891F8E8111E
:102D900029B19DF8001041F008018DF8001040F6AF
:102DA000E2510C4219D0026892F85001C0070ED1CE
:102DB00092F8040358B992F8E002C00707D192F8DC
:102DC0006002C00703D192F8B001C00705D09DF89A
:102DD000000040F006008DF80000ADF84A50ADF854
:102DE0001860ADF84850AFF29B00D34D03244FF468
:102DF000006601906846FEF7B7FB1CAB0022314627
:102E00000120FDF782FB31460120FDF75DFB2878AC
:102E1000002804D0FFF753F8641E002CEADC1EB033
:102E200070BD10B50446C00709D04FF44861C448CE
:102E30000AF0C0FFC348002101604160018114F025
:102E4000420F07D04021C0480AF0B4FF6421BF48B8
:102E50000AF0B0FFA0060BD54FF48071BC480AF011
:102E6000A9FFBDE810404FF4C871BA480AF0A2BFEC
:102E700010BD2DE9F0410746B048006890F82010D9
:102E8000490710D590F821000125C0F301108540B5
:102E90000024B14E05E0F18870883A46FFF763FFE1
:102EA000641CAC42F7DBBDE8F0812DE9FF4F8BB02D
:102EB0000446FFF760FCCDE90801FFF756FCCDE9B9
:102EC0000601082106A8FFF771FA0546082108A89F
:102ED000FFF76CFADFF864A245434FF0010BDAF814
:102EE00000004FF4DD5190F8210000F007070BFAC5
:102EF00007F99A480AF080FF142168460AF07CFF1F
:102F000000263FE094482246C1880C98FFF72BFF2B
:102F100014F0050F12D088489149406804F076FB00
:102F20008F4A00208D4907E051F8203032F910C057
:102F3000634441F82030401CA842F5DBDAF8000079
:102F400090F8E801E8B114F0140F1AD07A488549D6
:102F5000C068FFF7F7FBDAF80010824B002091F809
:102F6000E82169460BFA00FC12EA0C0F06D051F872
:102F700020C033F91080C44441F820C0401C05280B
:102F8000F0DB761C4E45BDDB14F0050F0BD00020A6
:102F9000724A06E052F820100D9B394123F81010B8
:102FA000401CA842F6DBDAF80000514690F8E80130
:102FB000002815D014F0140F12D000205A466C4689
:102FC0000B6802FA00F593F8E8312B4205D054F86B
:102FD00020300E9D3B4125F81030401C0528EFDBCA
:102FE0000FB0BDE8F08F2DE9F74F544D84B09046F7
:102FF000286890F85011C9070ED190F8041359B9F8
:1030000090F8E012C90707D190F86012C90703D100
:1030100090F8B001C00763D0FFF7B7FACDE900011F
:10302000FFF7F2FACDE9020108216846FFF7BEF981
:103030000446082102A8FFF7B9F920444400286893
:103040000126A94690F8210000F00707BE40A10024
:1030500042480AF0D1FE0025DFF800A1DFF8F8B001
:1030600017E000BFDDE90421BBF80200FFF77BFE9B
:10307000314851468268002008E000BF51F82030F6
:1030800032F910C0634441F82030401CA042F5DB07
:103090006D1CB542E6DB314D0021524606E000BF13
:1030A00052F82100384125F81100491CA142F7DBF4
:1030B000D9F8000090F85011C90703D190F8B00179
:1030C000C0070DD0049810F0220F09D02846D8F878
:1030D0000010FFF763FA2846D8F80410FFF795FAB6
:1030E00007B07EE72DE9F0479A46144B8946002148
:1030F0000125174E1C6818E032F8113030F81170B5
:10310000DB1B1FB2002308E006EB831C5B1C3CF8B2
:1031100011801BB2B8442CF8118094F880C305EBE1
:103120009C1C9C45F0DC491C09B2637D8B42E3DCAE
:103130000020084A35E00000B453100020091000B8
:1031400042000120C20C0120CC0C01200C0D0120FA
:10315000140E0120140F0120643B1000281E1000E3
:10316000A8111000A41001203AF8103039F81010FE
:10317000591A0BB200210CE001EBC10606EB011657
:1031800002EB8606491C36F8107009B21F4426F877
:10319000107094F8806305EB96168E42ECDC401CB0
:1031A00000B2217D8142DFDCBDE8F0872DE9F047E8
:1031B000B34D824686B0296800F4126091F88013FE
:1031C000490728D5002826D00024DFF8B882DFF888
:1031D000B892012718E000BF00EB44001421B0F8BA
:1031E000B26368460AF008FE08EB8410009004EB16
:1031F000C40000EB041109EB810001906A463146DE
:103200005046FFF7F0FE641C286890F8801307EB27
:103210009111A142E0DC06B0C6E7F0B540F2824170
:1032200085B010EA010535D000F412639448974A3E
:1032300000240068D688012190F8802301EB9211C8
:1032400007E000BF00EB4407B7F8B273BE4202D0FC
:10325000641CA142F6DCA1421EDD51071CD5DBB186
:1032600090F85011C90703D190F8B001C00711D0F0
:103270008448402200EB84118548FFF7F3FB04EB00
:10328000C400814900EB041001EB800164228148F5
:10329000FFF7E8FB05B0F0BD142168460AF0ACFD6D
:1032A0007B4800907B4801906A4631462846FFF7EC
:1032B0009AFEEFE770B506460020FDF7C2F903203D
:1032C000FDF7BFF916F040040AD040227049724859
:1032D000FFF7C8FB704864226E494030FFF7C2FB1D
:1032E0003046FFF79EFD6D480178012904D1002189
:1032F00001703046FFF7BDFD3046FFF757FF16F06F
:10330000110506D06148664B664A41882846FFF79A
:10331000CCFDE8075A4D0FD0286890F82000000730
:103320000AD56048FFF7A7FA5F4901235F4A0860A2
:1033300001465C48FFF7D3FA3046FFF76EFF5CB1F9
:10334000286890F88003400706D55349514B504AEE
:1033500040315148FFF7C6FE5549012008705549D4
:10336000087004F047FD0020FDF786F9BDE87040C5
:103370000320FDF781B92DE9F04141490025414A7B
:103380000968414EB1F8B23383421AD291F88033C2
:103390009C0901EB4407B7F8B27387420AD90124AC
:1033A00004EB931713E000BF01EB4403B3F8B2330F
:1033B000984201D1254602E008D2A4F10105A542B8
:1033C0001ED191F85001C00708D103E0641CA74248
:1033D000EADCF6E791F8B001C00750D002EB8511A6
:1033E00040222B48FFF73EFB05EBC50000EB051024
:1033F00006EB8001BDE8F04164222648FFF732BBAE
:1034000001EB4405B5F8B033B5F8B253C01A000269
:10341000EB1A90FBF3F391F85001C00703D191F838
:10342000B001C0072BD01A4D002002EB841100BF61
:1034300001EB400231F9107032F9402CBF1A5F43A2
:1034400002EB272225F81020401C2028F0DB04EB9B
:10345000C401104D01EB0411002006EB810100BFF7
:1034600001EB400232F9644C31F91020121B5A432F
:1034700004EB222225F81020401C3228F0DB12E554
:1034800020091000140E0120140F0120643B1000CD
:10349000CC0C01200C0D0120105310002809100045
:1034A000C20C01204200012050091000C83A10004F
:1034B000360910007009100010B501461022FE48B0
:1034C000FFF7D0FA8021BDE810400120FCF7CEBF05
:1034D00030B59DB004466846FFF7FBFA0021012C89
:1034E00004D0032C04D0022C0AD01BE0012000E001
:1034F00008208DF81E108DF800008DF81D1011E0C9
:103500008DF84E108DF84D10EC4906208DF8000016
:10351000D1E9062092184041CDE90E20D1E90802F8
:10352000CDE91002BDF80200AFF2730140F48670DD
:10353000E14D0191ADF8020003246846FEF714F84E
:103540001CAB002280210120FCF7DFFF802101203D
:10355000FCF7BAFF2878002804D0FEF7B0FC641E00
:10356000002CEADC1DB030BD2DE9FC5F002000908E
:10357000FFF78CF804460D46FFF7B6F88846D049A9
:1035800007464FF00000086048600881CD495FEAB7
:10359000550B4FEA340A0860486008814FEA000979
:1035A0004FF00300FFF794FFC34800242646C0688D
:1035B00001903246012000210AF078FB00EA0A005F
:1035C00001EA0B0108433CD000252A4601200021D6
:1035D0000AF06CFB384001EA080108432ED0BA48D3
:1035E000006890F8E8110120A040014226D0294649
:1035F0003046FFF7C9F8B449DFF8C4C209683CF99E
:103600001430B1F83421991A019B33F91430A3EB2B
:10361000020200D54942002A00DA5242914204DBFC
:10362000A8492CF8143021F814000F2805D2401CAA
:10363000C2B229463046FFF7BFF8641C6D1C3C2D12
:10364000C3DB761C242EB4DB09F10109B9F1100F9C
:10365000A6DB0320FFF73CFF002635462A46012063
:1036600000210AF023FB00EA0A0001EA0B010843EB
:1036700020D0DFF8549200242246012000210AF0D5
:1036800015FB384001EA0801084310D0D9F80000C2
:1036900090F8E8110120B040014208D08948214645
:1036A00010F81600C2B22846FFF786F8761C641C94
:1036B0003C2CE1DB6D1C242DD0DB0320FFF708FF41
:1036C0007D488249C068FFF73DF87F4A00207F4B64
:1036D0001268012140F6FF7592F8E82101FA00F422
:1036E000224209D033F91040002C01DDAC4203DB4B
:1036F00001200090BDE8FC9F401C0528EEDB0098EF
:10370000F8E72DE9F05F70490A6892F83001050684
:103710006F48037803F00F0407D492F83E1121F0AC
:103720000F0121430170BDE8F09F0025DFF888A15B
:10373000834604702E46012789460320FFF7C8FE02
:103740006249DAF80C00FEF7FDFFD9F800205F4B64
:10375000002092F8E81100BF07FA00FC11EA0C0FF4
:1037600005D033F910C0B2F84D81C445DBDB401CF5
:103770000528F1DB0F2DD6D26D1CEDB244EA051001
:10378000761C8BF80000102ED7DBCCE72DE9FC5F10
:10379000FEF7EBFF04460D46FEF7EDFF07468846B1
:1037A0005FEA550B4FEA340A4FF4486149480AF082
:1037B00001FB00204FF0240900900120FFF788FE54
:1037C0003D480026406801903F480068057D40E084
:1037D0003246012000210AF069FA00EA0A0001EAF3
:1037E0000B01084334D000242246012000210AF0B6
:1037F0005DFA384001EA0801084326D021463046E8
:10380000FEF7C2FF3049DFF8CCC009683CF915303B
:10381000B1F83421991A019B33F91530A3EB020258
:1038200000D54942002A00DA5242914204DD2A4979
:103830002CF8153021F815000F2805D2401CC2B213
:1038400021463046FEF7B8FF6D1C641C3C2CCBDBD8
:10385000761C4E45BCDB0098401C00901028ACDB69
:103860000120FFF735FE184800250068067D2A462E
:10387000012000210AF01AFA00EA0A0001EA0B010D
:10388000084316D000242246012000210AF00EFA37
:10389000384001EA0801084308D00F48214610F8D3
:1038A0001600C2B22846FEF787FF761C641C3C2C2B
:1038B000E9DB6D1C4D4511E0C45310008809100070
:1038C000D08F0120DA8F012020091000A4100120E0
:1038D000F607100024960120A4A20120C7DBBDE852
:1038E000FC5F0120F4E52DE9F05FFE4A116891F8D4
:1038F0003001C407FC48037803F0F00514D00570CC
:1039000000264B7D0C7DDFF8E4A35B1CB04691469E
:1039100004FB03F783460120FFF7DAFD2046DAF8BF
:103920000420D9F800100EE091F83E1101F00F01CB
:1039300029430170F7E600BF32F91030B1F832C107
:103940006345F7DB401C8742F6DC0F2EF2D2761C73
:10395000F6B245EA060108F101088BF80010B8F14B
:10396000100FD8DBDFE610B54FF487614FF48010FD
:103970000AF042FAFFF7B7FFFFF708FFD94C2068BB
:1039800090F8E80118B1FFF7BCFEFFF7EDFDD6484F
:103990002268401D017892F8FB2701F0F00102F047
:1039A0000F0211430170D248FEF71CFFBDE8104022
:1039B000012004F021BC2DE9F047FEF767FE8146A7
:1039C0008846FEF791FE06460F4600252A4601204E
:1039D00000210AF06BF900EA090001EA0801084336
:1039E00011D000242246012000210AF05FF9304066
:1039F0003940084304D0002221462846FEF7DCFE69
:103A0000641C3C2CEEDB6D1C242DDFDBBDE8F08755
:103A100010B5D124FFF7CFFFB248006890F8E80155
:103A200028B1FFF76EFEFFF79FFD44EA00442046F1
:103A3000BDE8104004F0E0BB2DE9F05FDFF8B48290
:103A4000A8480025D8F80CA0D8E90667D0F800905F
:103A50002C4640F6FF7B2246012000210AF026F981
:103A600030403940434608431CD03AF9150028B18C
:103A7000584507D1186840F0100011E0186840F070
:103A800020000DE0B9F83621B9F8411102EB010C24
:103A9000844502DB511A814203DD186840F0400082
:103AA00018606D1C641C402CD5D300251E6AD8F804
:103AB00010A0D8F824702C462246012000210AF0DC
:103AC000F5F830403940424608431DD03AF9150018
:103AD00028B1584507D1106840F0100011E0106877
:103AE00040F020000DE0B9F83A11B9F8433101EB8C
:103AF000030C844502DBC91A814204DD106840F0E2
:103B00004000C8F800006D1C641C402CD4D30AE6A9
:103B10002DE9F047DFF8DC910024DFF8DCA1D9E9DA
:103B20000678254626463246012000210AF0BEF8D6
:103B3000384001EA08014A46084304D01AF8060052
:103B4000A04200D90446761C402EECD3DFF8A8A191
:103B5000D2F82080D9F824700AF1240A00263246CF
:103B6000012000210AF0A2F800EA080039400843C9
:103B700004D01AF80600A84200D90546761C402E4B
:103B8000EDD3594E5B4BF61C721C3470D01E157071
:103B900000781B680119901EFF27007843F080030E
:103BA0002844814207D2401A2044FF2801D83070AF
:103BB0002CE7377008E08842FAD2081A2844FF2818
:103BC00001D8107022E71770C9F800301EE72DE900
:103BD000F84F4948DFF82091804609F12409602117
:103BE0000AF00AF9FFF794FFFDF75DFEFDF73EFED0
:103BF00004200324DFF8FCB0002600900220FFF729
:103C000067FCE0072DD04FF0000A574655462A467C
:103C1000012000210AF04AF8DBE9063C184001EADD
:103C20000C01084315D0DBF80C0030F917102D48B3
:103C30000068B0F8380181420ADA18F805000099E6
:103C40004FF0010A0844FF2800DDFF2008F80500B6
:103C50007F1C6D1C402DDAD3BAF1000F01D124F086
:103C60000104A0072DD54FF0000A574655462A46B5
:103C7000012000210AF01AF8DBE9083C184001EAAB
:103C80000C01084315D0DBF8100030F91710154867
:103C90000068B0F83C0181420ADA19F80500009981
:103CA0004FF0010A0844FF2800DDFF2009F8050055
:103CB0007F1C6D1C402DDAD3BAF1000F01D124F026
:103CC000020444B1FFF724FFFDF7EDFDFDF7CEFD43
:103CD000761C642E92DB032400260220FFF7F8FBFB
:103CE000E0070BE020091000F6071000C453100095
:103CF000C839100088091000380410002AD04FF08D
:103D0000000A574655462A460120002109F0CEFFF9
:103D1000DBE9063C184001EA0C01084312D0DBF84D
:103D20000C0030F9171096480068B0F8380181424D
:103D300007DD18F8050020B1401E4FF0010A08F811
:103D400005007F1C6D1C402DDDD3BAF1000F01D1A1
:103D500024F00104A0072AD54FF0000A5746554623
:103D60002A460120002109F0A1FFDBE9083C1840A8
:103D700001EA0C01084312D0DBF8100030F91710EB
:103D80007F480068B0F83C01814207DD19F8050062
:103D900020B1401E4FF0010A09F805007F1C6D1C80
:103DA000402DDDD3BAF1000F01D124F00204002C24
:103DB00008D0FFF7ADFEFDF776FDFDF757FD761C49
:103DC000642E8ADBBDE8F88F2DE9F0476C4A0024A9
:103DD0006C4D106890F830118B07214602D50124F4
:103DE000297002E090F83F312B70914690F8302115
:103DF000654E520703D544F00204317002E090F89A
:103E000040013070002C6CD06021604809F0F4FF54
:103E10005D49FF20891C0870491E0870FDF726FDCA
:103E2000FDF741FDDFF868814FF0100A00270220FE
:103E3000FFF74EFBE00723D0D8E902C3002001467C
:103E400006E000BF33F91120824200DD1046491C14
:103E50006145F7DBD9F80010B1F83621824202DA69
:103E60002878401E08E0B1F84B11814206DB287823
:103E70005044FF2800DDFF20287001E024F00104F9
:103E8000A00725D500200146D8F804C0D8F8103086
:103E900006E000BF33F91120824200DD1046491CC4
:103EA0006145F7DBD9F80010B1F83A21824202DA15
:103EB0003078401E08E0B1F84B11814206DB3078C3
:103EC0005044FF2800DDFF20307001E024F00204A0
:103ED000002C06D0FFF71CFEFDF7E5FC7F1C202F11
:103EE000A5DB93E570B52A4C00202060FEF74DFB62
:103EF000C4E90601FEF788FBC4E90801D4E906100D
:103F000040084FEA3101C4E906104FF0080104F1FE
:103F10001800FEF74BFAA060082104F12000FEF71C
:103F200045FA60600220FFF7D3FA1A48A16880685A
:103F300000EB4102E260626802EB410100EB4100EC
:103F40002061FFF741FF0E4D286890F83001800690
:103F500001D5FFF73CFEFFF76FFDFDF7A4FC0A4813
:103F60002968C01C027891F8FB1762F30301017005
:103F70002068BDE8704040F0020004F03DB9000048
:103F800020091000F7071000F8071000380410008F
:103F900088091000C453100010B5014610227A4859
:103FA000FEF760FD8021BDE810400120FCF75EBAFD
:103FB0002DE9F041754D80460C4628689EB090F87A
:103FC000B10000F00F024FF0FF30521C014609F023
:103FD0006DFEC643CF436846FEF77BFD01208DF89A
:103FE0000000ADF80240286800F5867001788DF871
:103FF0001C1044F00501ADF80210CDE90267ADF8E0
:104000001880AFF26B01019141788DF81F10807814
:104010005D4D8DF8200003246846FDF7A5FA1CAB22
:10402000002280210120FCF770FA80210120FCF79A
:104030004BFA2878002804D0FDF741FF641E002CBD
:10404000EADC1EB0BDE8F0812DE9FF5F4FF6FF7698
:104050004FF0000A93460F46804634465546DFF837
:104060002C911BE038F815005146FFF7A1FF464898
:10407000406807F057FED9F8001091F80B2112F0B4
:104080000F0100D1012112094243B2FBF1F080B2CD
:10409000A04202D238F8156004466D1CBD42E1DB37
:1040A000ABF8006003980480BDE8FF9F2DE9F04164
:1040B000364E05468846306888B090F8D12002F028
:1040C0000F01C2F30214491C641C0A2900DD0A21F5
:1040D000022C00DD0224D23006AB05AAFFF7B4FFA4
:1040E000326892F8D00080071BD5BDF8146001211A
:1040F000E632ADF8006000204FF4803C6F4607E0E8
:1041000013563344634502D227F81130491C401C32
:10411000A042F5DB002904DD06AB05AA3846FFF70F
:1041200093FFBDF814002880BDF81810A8F80010FF
:1041300008B087E77CB50020FCF783FA144C01A98E
:1041400068466588FFF7B2FF10480068B0F8FA10BB
:10415000BDF80400814201D9218000E02080BDF833
:10416000000060800020FCF787FA0A4901200870EF
:104170000949087009490870BDF80020294609203E
:1041800004F060F87CBD0000D4531000200910003A
:10419000643B1000360910007009100082091000FD
:1041A0002DE9F04101788C4C01B1217001461022BB
:1041B0008A48FEF757FC89488A49894B8568086810
:1041C000427D60684243002006E000BF35F8106081
:1041D0001718401C23F817600E68767D8642F5DCC0
:1041E00060680122401C6060096891F8B11002EB20
:1041F0001111884205DABDE8F04178487038FDF7C2
:10420000B3B9BDE8F04180210120FCF72FB92DE9B9
:10421000FF4F4FF6FF74002581B08A46A046A9469D
:104220006D4EDFF8C0B155E06C487038FEF751FCB8
:104230006A48022170380170019931F81510A0F810
:104240004810418841F004014180AFF2AB01416068
:10425000DBF80010032701F2C9310A7880F84C20FE
:10426000CA7880F84E204A7880F84F20897880F804
:104270005010C6F8049000BF584886F80090703877
:10428000FDF772F96B46002280210120FCF73DF911
:1042900080210120FCF718F9307820B1FDF70FFEDE
:1042A0007F1E002FE8DC4E4802F05DFCDBF80010BA
:1042B00091F8C82312F00F0100D1012112094243E5
:1042C00090B2B0FBF1F0A04203D20199044631F85C
:1042D00015806D1C5545A7DB0399A1F80080049853
:1042E000048005B0BDE8F08F2DE9F0413D4D064654
:1042F000884628688CB000F2823C00F2963790F82D
:10430000810300F00F01C0F30214491C641C0A2948
:1043100000DD0A21022C00DD02240AAB09AA604656
:10432000FFF775FF286890F8800380071AD5BDF85D
:1043300024300121ADF8003000204FF4803C6D4660
:1043400007E03A561A44624502D225F81120491C6A
:10435000401CA042F5DB012904DD0AAB09AA28466E
:10436000FFF755FFBDF824003080BDF82810A8F8ED
:1043700000100CB0BDE8F0817CB50020FCF761F9BD
:10438000194C01A96846E588FFF7AEFF154801689A
:10439000BDF80400B1F8AC23824201D9A28000E04C
:1043A000A080BDF80000E0802081854205D091F812
:1043B0008013490701D5FEF7DEFF0C490120087084
:1043C0000B4908700020FCF757F9BDF8002029467A
:1043D0000A2003F037FF7CBDB009100058541000CC
:1043E000A4A2012020091000643B1000360910002F
:1043F000700910002DE9F041174604460D460026CD
:1044000009E0E00703D03146384603F053FE761C3E
:104410006D084FEA340454EA0500F2D1BDE8F0819A
:104420002DE9F04116461F4680464FF0FF35002427
:1044300022460120002109F039FC30403940084370
:1044400004D06D1C454501D12046E7E7641C402C93
:10445000EED30020E2E72DE9F0410F4606460A467A
:10446000F44D0120002109F021FCA5F180040F2E5C
:1044700019D2DFE806F0BF7F900819BFBF2A3B4C76
:104480005D6EA1A8AF00D5E902233846FFF7C8FF4B
:1044900002460120002109F009FCD4E90C23104355
:1044A0001943C4E90C01A5E0D5E904233846FFF718
:1044B000B7FF02460120002109F0F8FBD4E91823D8
:1044C00010431943C4E9180194E0D5E902233846A2
:1044D000FFF7A6FF02460120002109F0E7FBD4E91F
:1044E0000E2310431943C4E90E0183E0D5E90223EA
:1044F0003846FFF795FF02460120002109F0D6FB60
:10450000D4E9102310431943C4E9100172E0D5E93E
:1045100004233846FFF784FF02460120002109F0FA
:10452000C5FBD4E91C2310431943C4E91C0161E015
:10453000D5E902233846FFF773FF02460120002128
:1045400009F0B4FBD4E9122310431943C4E9120162
:1045500050E0D5E904233846FFF762FF0246012008
:10456000002109F0A3FBD4E91E2310431943C4E939
:104570001E013FE0D5E902233846FFF751FF02460E
:104580000120002109F092FBD4E90A2310431943CA
:10459000C4E90A012EE0D5E904233846FFF740FFBD
:1045A00002460120002109F081FBD4E916231043C3
:1045B0001943C4E916011DE0D4E91423104319433B
:1045C000C4E9140116E0D5E9002310431943C5E9F5
:1045D00000010FE0D5E904233846FFF721FF02462A
:1045E0000120002109F062FBD4E91A23104319438A
:1045F000C4E91A012068401C20600FE710B501468D
:1046000010228D48FEF72EFA8021BDE810400120CF
:10461000FBF72CBF70B5FDF7A1FF04460D46FEF772
:1046200063F82043294370BD70B5FDF787FF4D083F
:104630004FEA3004FEF72AF849084FEA300040EA12
:10464000040041EA05010018494170BD2DE9F35FFE
:1046500083464FF0FF37FFF7E7FF81467548002498
:1046600080388846D0F804A02546264632460120E8
:10467000002109F01BFB02460B4600EA090001EA93
:104680000801084300D07F1C5F4514D10198012820
:104690001CD029EA020428EA0305122E09D9A6F142
:1046A00012020120002109F001FB29EA000428EA96
:1046B0000105B2462026761C202ED7D35D48294618
:1046C0008038C0F804A02046BDE8FC9F14461D4673
:1046D000122EEED9A6F112020120002109F0E6FA0D
:1046E00004430D43E5E72DE9F34FA1B004466846C6
:1046F000FEF7EFF91CA8FDF7A7FAFFF795FF0246B2
:104700004C4E48084FEA3201C6E90210FFF782FF1B
:104710004A4D4FF00C084FF020094FF0400A4FF07F
:10472000910B012CC6E904010DD00627022C2AD0DA
:10473000032C31D0042C35D00A2C55D0062C5ED059
:10474000082C7DD08FE0FEF710F8CDE90201FEF7CE
:1047500012F80122CDE904018DF80020ADF818808F
:104760008DF81F903C228DF81CA08DF820B0ADF87C
:104770001A20DDE9023252084FEA3303C6E9040188
:10478000C6E902326FE0FFF74FFFCDE90E01FFF7F8
:1047900041FFCDE910010FE0FFF73CFFCDE910012B
:1047A000012104E0FFF736FFCDE910010021229836
:1047B000FFF74CFFCDE90E018DF80070286800F579
:1047C0005A7081788DF84C10C1788DF84F100178AF
:1047D0008DF8501041788DF851108188ADF848104F
:1047E0000089ADF84A003EE0FFF71EFFCDE90E015B
:1047F000FFF710FFCDE910018DF8007033E0FFF7EF
:1048000013FFCDE90E01FFF705FFCDE910018DF88B
:104810000070286800F2613081788DF84C10C17802
:104820008DF84F1001788DF8501040788DF85100B8
:1048300019E005E0380A1000685410002009100043
:1048400008208DF80000ADF81880DDE90A018DF828
:104850001F908DF81CA08DF820B0C6E90201DDE99B
:104860000C01C6E904010020BDF802108DF84E00CD
:104870008DF81D0041F008018DF84D008DF81E00E7
:10488000ADF80210AFF28B2103260191012C12D05A
:10489000092C23D00A2C21D08DF876008DF87800D1
:1048A0008DF87700022C10D0032C0ED0042C0CD0E5
:1048B000052C0AD012E0296891F8891741F003010C
:1048C0008DF870108DF87100E6E72868B0F86E1367
:1048D000ADF87210B0F87203ADF874001CA8FDF7C3
:1048E000D3F9FE4C6846FCF73FFE1FAB0022802147
:1048F0000120FBF70AFE80210120FBF7E5FD20786F
:10490000002804D0FDF7DBFA761E002EEADC23B087
:10491000BDE8F08F2DE9FF5F00210120FFF7E3FEE6
:10492000EE48D0F80490FDF720FFCDE90201FDF735
:1049300022FFCDE90001082102A8FDF737FD074657
:1049400008216846FDF732FD06460020CDE900004B
:104950000546DFF88CB358E0E2484FF00008C24645
:10496000D0E904232846FFF75BFD02460120002121
:1049700009F09CF9DB4A803AD2E91C321840114018
:10498000084341D1012430E004FB0651DBF800006C
:1049900039F9112090F86703B2EB001F24DA08F10F
:1049A0000108BAF1000F00D1A2467A1E94421BD131
:1049B000B8F1010F18D1721E954204D1611E012079
:1049C000FFF749FD0EE009EB4101B1F90220B2EB1E
:1049D000001F05DB35B131F9021CB1EB001F01DA14
:1049E000002000E002208046641CBC42CCDBA7EB28
:1049F0000A01414508D829460220FFF72CFD012075
:104A0000009AA840104300906D1CB542A4DB01251C
:104A100051E000BF4FF0000A544642E0DFF8C48284
:104A20000021A8F18008D8E91C02D8E918C340EA9F
:104A30000C001A4310431FD0AA48D0E90423204693
:104A4000FFF7EEFC02460120002109F02FF9434652
:104A50000246D3E91C8C8E4600EA080001EA0C01EC
:104A6000084306D1D3E9181C0A400EEA0C000243A1
:104A700001D0012100E0002105FB0642DBF8000027
:104A800039F9122090F86703B2EB001F08DA39B940
:104A90000120009AA0401040000001D10AF1010A53
:104AA000641CB442BADBBAF1000F03D0691E0120C6
:104AB000FFF7D1FC6D1CBD42ACDBBDE8FF9F2DE9CB
:104AC000F04781468748DFF820824FF0FF35D0E974
:104AD0000467002422460120002109F0E7F8304055
:104AE0003940084307D06D1C4D4504D118F8040027
:104AF000103008F80400641C402CEBD3BDE8F047EC
:104B0000FCF7B4BE2DE9F04781467648DFF8D8813E
:104B10004FF0FF35D0E90467002422460120002130
:104B200009F0C4F830403940084307D06D1C4D45AA
:104B300004D118F80400103808F80400641C402C54
:104B4000EBD3BDE8F047FCF791BE2DE9F041654C91
:104B50000020803CA061FFF767FD644DC5E90001BE
:104B6000FFF758FD624AC2E90001D5E90001490892
:104B70004FEA3000C5E900014FF008012846FDF773
:104B800015FC5C4D082128605948FDF70FFC5A4E72
:104B900030600220FEF79CFC5848594A296880681A
:104BA00000EB410313603368564A03EB410100EB0D
:104BB00041001060FFF708F9FFF709F8FCF773FEF2
:104BC000022003F019FB50480178EF2902D9002197
:104BD000102016E010310170FCF765FE00210A205C
:104BE000FFF781FD3D4F00204FF47A68BA68A36853
:104BF00061690BE01D1832F91550454505DD0021AE
:104C00000F20BDE8F04103F055BA401C8842F1DBAB
:104C100000253BE02846FFF752FF002D02DD681E0D
:104C2000FFF770FF00210A20FFF75DFD0026B8683E
:104C300028E0AE4225D0A168314430F91110414539
:104C40001FDD2846FFF75EFF3046FFF738FF0021E3
:104C50000A20FFF748FDA168B868294430F911001F
:104C6000404503DD31460E20FFF7F5FB3046FFF7E8
:104C700049FF2846FFF723FF00210A20FFF733FDF5
:104C8000B868761C61698E42D3DB6D1C8D42C1DB36
:104C9000B3E42DE9F04700252E4629460820FFF70A
:104CA00022FD0E480E4C0021C76820684FF0010815
:104CB00000F5F57990F8E82108FA01F31A4208D0D6
:104CC00037F9113090F87DC3B3EB0C1F00DA6D1C7F
:104CD000761C491C0529EFDBB54217E0685410002B
:104CE00020091000380A10005C041000A009100010
:104CF000A8091000900910008C091000C45310007E
:104D00009409100098091000FA0710000CD190F8CF
:104D1000E611C90790F8E91101D00D2000E00C2040
:104D2000BDE8F047FFF797BB002D1CD00025206899
:104D300008FA05F290F8E811114211D037F9151070
:104D400090F87D23B1EB021F0ADA90F8E60119F81A
:104D50000510C00701D00C2000E00D20FFF77BFB01
:104D60006D1C052DE3DBBDE8F0872DE9F041002146
:104D70000620FFF7B8FCF1480025F14EF14C87689A
:104D80000EE0E0683168284437F9100091F86513A7
:104D9000B0EB011F03DD29460A20FFF75CFB6D1C09
:104DA00020698542EDDB00250EE0A06831682844CB
:104DB00037F9100091F86513B0EB011F03DD2946A8
:104DC0000B20FFF748FB6D1C60698542EDDB14E4A6
:104DD0002DE9F041DB4D0020064628623EE03146D9
:104DE0000420FFF780FCD5480024876832E000BF2C
:104DF000FFF710FC02460B462046FFF711FB024668
:104E00000120002108F052FFD5E918231040194075
:104E100008431ED1CA49A8682044096807EB40002E
:104E200030F9040C91F87813B0EB011F07D9314623
:104E30000820FFF710FB21460920FFF70CFBA868AC
:104E4000296A204407EB400030F9040C884200DD59
:104E50002862641C68698442CAD3761C2869864229
:104E6000BDD315E72DE9F047B64C00200546DFF825
:104E7000CC82DFF8CC92E06121E029460320FFF7E5
:104E800032FC6068D8F80870122801D9032600E0C7
:104E9000012637F91610D9F8000090F87603B1EB27
:104EA000001F03D929460720FFF7D5FA37F9160066
:104EB000E169884202DD37F91600E0616D1C206966
:104EC0008542DAD34FE72DE9F04100210220FFF7B8
:104ED0000AFC9A489A4D9B4C8768286890F86003B2
:104EE000000713D500260EE0E0682968304437F942
:104EF000100091F87413B0EB011F03D93146032061
:104F0000FFF7A9FA761C20698642EDDB286890F845
:104F10006003C00613D500260EE0A068296830445F
:104F200037F9100091F87513B0EB011F03D9314622
:104F30000420FFF790FA761C60698642EDDBA7E655
:104F40002DE9F04F89B00020FBF77BFB4FF4801078
:104F5000411208F02FFFFCF7A6FCFCF787FC794C08
:104F600000202060FFF760FBCDE90401FFF752FB52
:104F7000CDE90601082104A8FDF718FA0546082125
:104F800006A8FDF713FA014600EB4500C4E9020547
:104F9000C4E904516A4D286890F86003010701D400
:104FA000C00601D5FFF78FFF286890F860038006E0
:104FB00001D5FFF757FF286890F86003000601D578
:104FC000FFF706FF286890F86003C00701D0FFF7DD
:104FD000CCFE286890F86013490704D590F8E801E2
:104FE00008B1FFF756FE286890F86003400601D527
:104FF000FFF7ABFD286890F86003800701D5FFF745
:1050000089FC206800287DD004F1300393E8C810A3
:105010009F432CEA060CC4E90E7CD4E90A0121EA7C
:105020000609D4E91821D4E9168598438E468D43A4
:10503000B84329EA0C01C4E90A01CDE90201D4E927
:105040001AA928EA020828EA0A0825EA0905C4E993
:1050500016859346D4E914129943B243CDE9001260
:10506000DDE90012374DB943803522EA0C02D5E95B
:105070000008D4E910C721EA0C01BA43C4E91412AC
:10508000D4E91C2120EA0B0028EA0E0820EA0A00D5
:1050900028EA0908904328EA0108C5E9000823EA3C
:1050A0000C03BE43C4E90C36DDE902010122FFF71F
:1050B000A1F9D4E916010222FFF79CF9D4E90C0109
:1050C0000322FFF797F9D4E918010422FFF792F9B8
:1050D000D4E90E010722FFF78DF9D4E91001082267
:1050E000FFF788F9D4E91C010922FFF783F9D4E915
:1050F00012010A22FFF77EF9D4E91E010B22FFF705
:1051000079F900E014E0D4E914010C22FFF772F9F8
:10511000D5E900010D22FFF76DF9D4E91A010E223D
:10512000FFF768F90020FBF7A7FA09B0BDE8F08F98
:105130000021084602F0BEFFF4E7000068541000AA
:1051400020091000B8091000704708B55E4D5F4E89
:105150005F4F0024287880B10128FBD16B460022E4
:1051600041F27D71FBF7D1F90098C1071ED00121F2
:105170000846FBF7A9F92C70ECE701210020FDF7A8
:10518000FBFA6B46002202210120FBF7BEF9012148
:105190000846FDF7F1FA00988007DBD541F27F71F0
:1051A0000120FBF791F901202870D3E701070CD506
:1051B00008210120FBF788F90020FBF742FA0620BE
:1051C000FBF73FFAFEF7CFFB1DE041070CD50421AA
:1051D0000120FBF779F90020FBF733FA0620FBF7F3
:1051E00030FAFEF77FFE0EE0C10413D54FF4805174
:1051F0000120FBF769F90020FBF723FA0620FBF7F3
:1052000020FAFEF705FC0620FBF736FA0020FBF734
:1052100033FA9FE7C10609D510210120FBF754F9A5
:105220003078002896D1FEF785FF93E7810609D5EF
:1052300020210120FBF748F9307800288AD1FFF7B8
:105240009BF887E7C10502D54FF4807103E0810523
:1052500005D54FF400710120FBF736F97AE74106D6
:1052600006D540210120FBF72FF9FFF769FE71E712
:1052700040059AD54FF480610120FBF725F91548C8
:1052800004601548D0F8008004604046FEF712F82C
:105290005FEA887001D500F082FBA8F57061BF3924
:1052A00001D105200AE05FEAC87001D0152005E0B1
:1052B00018F0420F04D0386840F0060002F09CFF5E
:1052C000064804603C6045E7500A1000430910009E
:1052D00030091000F40A1000240910002C091000F5
:1052E000FE4900200870FE490870FE490870FE491A
:1052F00008700121FD4A1170FD4A1170FD49C86016
:105300000861488008708861C8610862FA480068CE
:10531000B0F852210A81B0F85401C88000F070BE84
:1053200030B50024234605E030F913508D4200DDEE
:10533000641C5B1C9342F7DBEF48006890F8610146
:10534000A04201D2012030BD002030BDF0B50025C3
:105350002F462C46DDF814C009E000BF30F9146078
:10536000B54203DA964201DD3546E7B2641C8C4251
:10537000F4DB25B18CF8007001201D60F0BD002029
:10538000F0BD30B585B0DC4C01A800902068002548
:1053900003ABB0F95221017DD848FFF7D7FF50B1D8
:1053A00023689DF8040093F88A2102F00F018142DE
:1053B00019D81B7D14E002A80090206804ABB0F956
:1053C0005421417DCE48FFF7C1FF68B123689DF8A5
:1053D000080093F88A2102F00F01814203D85B7D17
:1053E000591A814200DA150905B0284630BDFEB5CC
:1053F000C14801AB5022006890F88911B0F987715B
:1054000001F00F060C09B0F9855102A90091017D48
:10541000BA48FFF79BFF0198B84201DD3046FEBD58
:10542000A84201DA2046FEBD401B311B4843791BD0
:1054300090FBF1F02044FEBD30B5B248AE4D04788B
:10544000286890F85101800703D5FFF7D0FFA4EB3F
:105450000004286890F85101400702D5FFF791FF3A
:105460000444002C01DA002402E00F2C00DD0F249C
:10547000204630BD30B564290CD00023642407E0F9
:1054800030F913504D4395FBF4F520F813505B1C95
:105490009342F5DB30BD70B5002364250AE0CC5C97
:1054A000642C06D030F91360664396FBF5F420F8BF
:1054B00013405B1C9342F2DB70BD2DE9F0470025E1
:1054C000894629462F462E46A8462B460DE000BFAA
:1054D00030F913C039F913400CFB0C660CFB047750
:1054E00004FB0488654421445B1C9342F0DB87FB8A
:1054F000020485FB013CC71A86FB020385FB056598
:1055000064EB0C04B0EB060C63EB050688FB0203AE
:1055100081FB0121851A63EB01086421A7FB0103CC
:1055200004FB0131002207FB02113346624608F0FA
:10553000D0FB0246A2FB070301FB073102FB04116B
:105540002A46434608F0C5FB002C00DA4042BDE87D
:10555000F08730B547F6F873002405E030F91450B1
:10556000AB4200DD2B46641C9442F7DB002405E0CF
:1055700030F81450ED1A21F81450641C9442F7DBF3
:1055800030BD70B503460020024601EBD17408E03F
:1055900003EB420633F91250B6F90260AD1B284402
:1055A000521CB2EB640FF3DB621008E003EB420520
:1055B00033F9124035F9025C641B2044521C8A42C4
:1055C000F4DB70BDF0B587B007464B4C03A80090E4
:1055D00020689C468E461646017D002504AB0FFAD6
:1055E0008CF27046FFF7B2FE01283BD102A8009072
:1055F000206805AB32B2417D3846FFF7A7FE01288F
:1056000030D1DDE9041081424FF0640203DD5043E4
:1056100090FBF1F102E0514391FBF0F1206890F82A
:1056200092218A421EDD9DF8081019B990F8912147
:10563000D20716D0427D521E8A4203D190F89111B2
:1056400089070ED59DF80C1019B990F891215207D1
:1056500007D5027D521E8A4204D190F891010007BD
:1056600000D4012507B02846F0BD2DE9FC41224CAD
:1056700084460F4620680025164690F89011490789
:105680006AD5009690F89311427D0B091E49604639
:1056900001F078FD0096206890F89311027D0B09C7
:1056A00019493846403101F06DFD206890F890119D
:1056B000090632D5407D43F6FF76CDE90060124AF7
:1056C000334612491046FDF7E3FA20680E4A334686
:1056D000007D4032CDE900600D491BE0400910001B
:1056E000590910005A0910004109100070091000F2
:1056F00072091000540A10002009100068180120D7
:105700002818012073091000FC110120CC0C012085
:105710000C0D01201046FDF7BBFA01270097206809
:10572000FE49437DB0F89E21FD4801F0F9FD064693
:1057300000972068FB49037DB0F89C21F848403071
:1057400001F0EEFD0346F8490022F848012E06D08C
:10575000C261012B14D002622846BDE8FC81C669F3
:10576000761CC661276897F8937107F00F07B74258
:10577000EFDAC2610E68012546F040060E60E8E7E8
:10578000036A5B1C0362246894F8934104F00F04DD
:105790009C42E1DA02620868012540F0400008609E
:1057A000DAE7F0B40446E2480B46802100680D4673
:1057B00090F8680110B10146C0F58075DB4880881B
:1057C000032805D22146F0BC52001846FDF74AB91D
:1057D00000200EE033F9106034F910704E4307FBDF
:1057E0000566F71706EB176646F30F2623F81060D9
:1057F000401C9042EEDBF0BC7047F0B50024CC4D6D
:105800000FE030F8146031F81470012B0CD0F61B47
:105810002F6897F86D717F4206EBC70620F8146079
:10582000641C9442EDDBF0BD3E442F6897F86D7127
:10583000F2E72DE9FC47BD4D80460026A88890B9C7
:105840004022B649BB48FDF70DF96422B549BA4874
:10585000FDF708F9B2484021E43008F0ABFA6421C2
:10586000B64808F0A7FAA8880127B14C032802D24D
:10587000B348077013E012D92168B1F86B21824256
:105880000DD94B7DAD49AB4A4039A44801F02BFD01
:105890002068A94AA949037DA24801F024FD206897
:1058A00090F85011427D090710D590F88D11CDE97F
:1058B000001290F88B31A34A98494046FDF7E8F969
:1058C00020689749427DA4399E4802E094494046A9
:1058D000A439FFF766FF2068904A90F85011437D85
:1058E0000907994901D5974800E0404601F0FBFCC3
:1058F00020688A4A9449437D8948A43801F0F3FC22
:10590000206890F85011C90610D5427D90F8961283
:105910008D48FFF7AFFD216891F85001C00605D50D
:105920004A7D01F51C718848FFF7B5FD2268B2F881
:105930005411B2F86901B2F87F4101440BB2A98851
:105940008C4201D2184403B200200446DFF8FCC1A7
:10595000DFF8F491527D1CE039F91080984515DD8F
:10596000761C022E13D96878401C40B2687000285B
:1059700004DD77488CF800706C70077047F6FF7094
:10598000814201D2491CA980BDE8FC870026401C49
:1059900000B28242E0DC6C708CF80040EEE76448B4
:1059A000006890F89011890606D5604901220A70B6
:1059B00090F895010009886170472DE9F34FDFF8F1
:1059C00094910025012699F80000DFF8848183B0C6
:1059D0002F462C4601281FD0DFF854B1DFF878A1FC
:1059E000DBF8000090F82010C9061CD590F82510AF
:1059F0005A480288914216D20480DAF80010012039
:105A000041F02201CAF80010B102FAF72FFD88F820
:105A1000006005B0BDE8F08F88F8006000F0F0FA93
:105A200089F80040F5E70320FAF70BFE4C48DFF851
:105A3000FC900078012870D0B9F80400012817D92B
:105A4000DBF800003D49DC46427D01234039334804
:105A5000FFF7D3FEDCF8000001233849027D31480E
:105A6000FFF7CBFEDCF800003E4990F8FD0208701D
:105A70000020A9F8040098F80020DDE903014C4655
:105A8000FFF7F3FD8146DBF8000090F87001400657
:105A900006D5E069002802DC206A002800DD012725
:105AA000FFF7CAFC01902A481D49D84600780090AB
:105AB000DBF80000A439019B427D039801F062FBF2
:105AC00023481749019B00780090D8F800006439FA
:105AD000027D049801F056FBD8F8000090F85011B0
:105AE000090743D5427D90F88D11CDE900120C4A8B
:105AF00090F88B31A43A09491046FDF7C9F8D8F857
:105B00000000027D90F88E11CDE90012044A90F851
:105B10008C31643A0349104626E0C7E0CC0C0120E2
:105B2000FC1101200C0D012030091000540A100056
:105B300020091000700D0120B00D0120201301205C
:105B4000E80A1000A854100028180120410910008C
:105B500070091000720910002409100034091000A7
:105B6000370910008D0A1000FDF792F8FF494FF039
:105B7000000BFF4A81F800B0D8F80000FD49437DD2
:105B8000FD4801F0B0FBD8F80000FC4AFC49037D59
:105B9000F948403001F0A7FB0320FAF76DFD4022E1
:105BA000F449F848FCF75EFFF6486422F4494030B7
:105BB000FCF758FFD8F8000090F8901109074ED56F
:105BC000F049427DE439EB48FFF7C3FCD8F8000008
:105BD000EC49427DE43900F57470FFF76EFC2061FA
:105BE000D8F80000417DE748E438FFF7CAFC864654
:105BF00060612069009032281CDDE248D8F800205E
:105C0000E438B0F90030B2F854118B4207DD92F855
:105C100015C000EB4C0C3CF902CC8C4509DC494228
:105C20008B4207DA527D00EB420030F9020C8842C9
:105C300000DA0127D8F80000009990F894218A42F0
:105C40000DDAB0F8AC21724509DA90F890014006FF
:105C500000D50125CC48016841F480710160D8F875
:105C60000000C44690F85011C9060DD5427D90F849
:105C70009612C048FFF7FEFBDCF80000027D90F8AA
:105C8000DC12BF48FFF7F6FBDCF80000E04690F8B6
:105C9000901189073AD5B0F85231B0F85421B8497B
:105CA000B448FFF78FFC012824D029E098F80020A1
:105CB000DDE903014546FFF7D8FC012808D0039829
:105CC000FFF7B7FD05B00320BDE8F04FFAF7D4BCED
:105CD000AE48067089F801402E70DAF800100120F5
:105CE00041F04201CAF800104FF48061FAF7BEFBA0
:105CF0002E70E7E7A4480125016841F400710160B6
:105D0000D8F8000090F89001800705D4D8F800007A
:105D100090F8901109070DD5012D09D1B4F90200B1
:105D200000280CDB401E00B26080002807DCA9467A
:105D3000D8F8000090F8950100F00F006080D8F8C6
:105D40000010454691F85001C0060CD54A7D01F57A
:105D50001C718848FFF79FFB296889480A7D01F577
:105D60002871FFF798FB286890F8501109060FD5A5
:105D70000096437D864A87497E4801F08BFA00965B
:105D80002868834A8449037D7D4801F083FA0CE04A
:105D9000407D784942007F48FCF764FE28687849D6
:105DA000007D42007C48FCF75DFE286890F85111A8
:105DB000C9070CD0B0F95E21417D764801F0A1FA07
:105DC0002868B0F95E21017D734801F09AFA2868CD
:105DD00090F85011490711D500966D4A437D0A3A53
:105DE0006E496C4801F056FA00962868684A6C497A
:105DF000037D0A3A684801F04DFA0CE0407D6549A0
:105E000042006648FCF72EFE28686349007D420088
:105E10006348FCF727FE28682378B0F85211B0F8E1
:105E20005421012B04D05F4B1B78012B09D010E0CB
:105E3000B0F8983103B11946B0F89A314BB11A460F
:105E400007E090F85731C91A90F8563189B2D21A42
:105E500092B2554B1B783BB190F8A3311A4490F89D
:105E6000A43192B2194489B20FFA81F8A4F80880DB
:105E700011B2E180427D4948FFF752FA8446286812
:105E80004146027D4648FFF74BFA4849DFF8248136
:105E9000BCF1010F81F800C04549087001D101280B
:105EA0000BD03A4988F800B081F800B0E0680028CB
:105EB00025DD401EE0600BD021E03A4888F8006004
:105EC000007801281BD1286890F89701E06016E05F
:105ED000286890F89001C00611D52B48016841F060
:105EE00080010160DAF80010012041F02201CAF8B7
:105EF00000104FF48061FAF7B9FA1C480670B9F146
:105F0000010F0CD1DAF80010012041F04201CAF86B
:105F100000104FF48061FAF7A9FA14480670286857
:105F200090F8901189064BD52178012948D1A169B3
:105F3000002915DD427DB0F954111848FFF7F0F93A
:105F400006462868027DB0F952111548FFF7E8F9B6
:105F500006B100B94FB1286890F895010009A06119
:105F600098F8000001282ED040E025E070091000CC
:105F7000CC0C0120A8541000581101200C0D012058
:105F8000E85410008413012030091000410910006A
:105F9000820A10004C5510008C5510002818012062
:105FA000681801205809100045091000590910000F
:105FB0005A09100040091000A069401EA061CFD10D
:105FC00084F800B0CCE72868B4F9021090F8950185
:105FD00000F00F00884209D1002F7FF423AD05B0F7
:105FE0000549BDE8F04F054800F09CBC05B0BDE890
:105FF000F04F00F071BA0000681801202818012045
:1060000010B5F8490020F84C0870F849E0602061AC
:10601000A080E08020700870F54960700870A07062
:1060200020816081F3480068B0F8641189036161E0
:10603000B0F86601B1FBF0F080B2FCF7A8FDA061FA
:1060400010BD30B5EB4A00241268937EDD0792F84C
:1060500082310BD0834217DC158BEB1A834213DBA2
:1060600092F8830188420FDCD28A0AE083420BDC7B
:10607000D58AEB1A834207DB92F88301884203DC5E
:10608000128B101A884200DA0124204630BD2DE917
:10609000FE4314460D460646072B09D0D248092B6D
:1060A000B0F9041006D03180C188298000781070C2
:1060B000BDE8FE833288ADF802202A88ADF80020C2
:1060C0002778ADF806108146C088ADF8040001AA13
:1060D000694602A806F0E2FF02A806F0D7FFDFF843
:1060E00014830346D8F800C09CF87401BCF87621EC
:1060F00000F00F01BCF878C1000952430CFB0CFC06
:1061000093420BDD634501DB084607E09B1A411A09
:106110004B43ACEB020193FBF1F1401ABDF90230A5
:10612000C0F11001B9F904C04B4300FB0C3343F339
:106130000F133380BDF900304B43B9F9061000FB53
:10614000013040F30F102880D8F80000102199F892
:10615000002090F87501A1EB10117943000900FBB4
:106160000210C0F307102070A2E7002200EB8203A8
:106170005B6840F82230521C052AF7DB416170470A
:106180002DE9F04F002793B080463E463D46FFF78D
:10619000ECFF002158F821000744484300FB01555B
:1061A000491C06440629F5DB8F4C09971C346068AE
:1061B0000A90A068CDE90B0620690D906069CDE9D1
:1061C0000E05E0691090206A119009A8FCF710F9FB
:1061D000834603912068CDE90907A0680B90E06829
:1061E000CDE90C0660690E90A069CDE90F05206A23
:1061F000119009A8FCF7FCF88146206809906068B6
:10620000CDE90A07E0680C902069CDE90D06A06988
:106210000F90E069CDE910058A4609A8FCF7E8F877
:106220000326A9FB06570A460AFB06710926A0FBAE
:106230000637002409FB041402FB0672002100FB50
:106240000120EA184441039912EB0B0061414FF41D
:106250007562002307F03DFDC8F80C0013B0BDE8DF
:10626000F08F30B5634A01241268937EDD0792F8FF
:106270007A310BD0834217DC158BEB1A834213DB88
:1062800092F87B0188420FDCD28A0AE083420BDC61
:10629000D58AEB1A834207DB92F87B01884203DC44
:1062A000128B101A884200DA0024204630BD2DE9F6
:1062B000F047DFF8409105464B4CD9F800008AB012
:1062C0000E4690F870019A4617464FF00008C00736
:1062D00028D0082D26D094F90200062819DB114693
:1062E0003046FFF7BEFF00284348314609D0FFF78C
:1062F00047FF06B2404839461830FFF741FF07B262
:1063000010E0FFF732FF3C4839461830FFF72DFF09
:1063100008E0401C384940B2A07041F820601831B4
:1063200041F82070ADF80060ADF804708DF814A04D
:106330002B4605AA01A96846FFF7A9FE072D29D01B
:10634000092D27D1B4F90420BDF90000101A00D599
:106350004042D9F8001091F87C3198420EDAB4F935
:106360000630BDF90400181A00D5404291F87D614D
:10637000B04203DAADF80020ADF8043022789DF881
:106380001400101A00D5404291F87E11884201DABB
:106390008DF81420D9F800004E464FF0000790F811
:1063A000700100060FD5082D0DD0BDF90410BDF900
:1063B0000000FFF746FE8046012804D1306890F8BF
:1063C0007111C9071AD0BDF90010A180BDF90420D0
:1063D000E2809DF814C084F800C0B8F1010F2ED0FF
:1063E00065E00000580910008C0A100040091000F8
:1063F000410910002009100078541000072D0AD020
:10640000F7490978C1B190F8A601401CE06000206E
:106410000AB0BDE8F087F3490F7090F89001C0070B
:10642000F5D0F148016841F0220101604FF480612C
:106430000120FAF71BF8EAE790F87301E5E7306806
:1064400090F87131DB0732D0837EDB0790F8823120
:1064500013D08B4201DDADF80030018BC91ABDF9B4
:106460000030994201DAADF8001090F883119142A2
:1064700001DDADF80410C08A12E08B4201DDADF8F9
:106480000030C18AC91ABDF90030994201DAADF86D
:10649000001090F88311914201DDADF80410008BDB
:1064A000401ABDF90410884201DAADF804000397E0
:1064B000BDF800000297ADF80E008DF80850BDF849
:1064C0000400ADF80C008DF80AC08DF80B7002A81E
:1064D00001F00EFD01209BE7C14810B50178C348CB
:1064E000006849B190F9A611BE480278C048012A57
:1064F00005D0002101610DE090F97311F4E7C26845
:10650000521CC2608A4208D300231A46194608204A
:10651000FFF7CDFEBDE8104072E510BDF0B50746AF
:10652000DDF814E037F912404FF0FF30744501DA1E
:10653000002400E01046012517E0561B07D437F968
:1065400016C0F44503DDA44501DD30466446561906
:10655000A1F1010C664507DC37F916C0F44503DDEF
:10656000A44501DD304664466D1C9D42E5DDF0BD6D
:1065700010B59F4C6169B1FBF0F080B2FCF707FBEE
:10658000A169884201D8002010BD7F2801D37F2057
:1065900010BD401AC0EBC010C1F17F01B0FBF1F09B
:1065A00010BDF0B500240125A1F101060BE0571B39
:1065B00002D430F917703C445719B74202DC30F965
:1065C00017703C446D1C9D42F1DD012A02DB891EDF
:1065D0008A4200DD640030F912002044F0BD2DE94C
:1065E000F047824D14469A462E6830F914208146B1
:1065F00002FB04F00123A1F1010196F862C117E04A
:10660000E51A08D439F91570B6F85E81474502DB02
:1066100007FB05003A44E5188D4208DC39F915708E
:10662000B6F85E81474502DB07FB05003A445B1C78
:10663000B3EB1C1FE4DD4A4380FB0A01D31707F0CC
:1066400048FB00B2E5E62DE9F05F8B46D0E9001586
:106650009146002280689A4613464FF48034814266
:1066600002DD02460B4602E001DA0A460346A0EBD1
:1066700001014FF4803CA1FB0C084FEAE17707FBD6
:106680000C874FF000062B44C2F1000201FB06719B
:1066900003EB42024FEAE27307F01BFB4FF4803634
:1066A000A9FB063C4FEAE97505FB06C51B18A3FBD1
:1066B0000A06002709FB07524A4102FB0A614FEA1A
:1066C000EA7503FB051122463B4607F002FB5A46DA
:1066D0004FEAEB7307F0FDFA00B2BDE8F09F2DE939
:1066E000F04F93B00C468246174699460025182174
:1066F0000CA81C9E07F080FB0020029003900490E1
:106700002EB93A48006890F8620100F00F06BA1BF3
:1067100007EB060300D50022661EB34200DD631EB0
:106720000CA95046FBF7D2FE4FB1B7422FD12F48EC
:10673000006890F85101800613D54D4676E02B484D
:10674000006890F85101800670D4BAF904000290F4
:10675000BAF900000390BAF902004B4601220490F6
:106760000DE00AEB44007F1C30F9061D0291B0F9E0
:1067700004100391B0F902004B463AB20490611E36
:1067800002A8FFF760FF99FBF6F1451A4EE0DDE93C
:1067900010B1B1F100084BDADDE90C2352EA030035
:1067A00046D0DDE90E0105910890002940DB0F4835
:1067B000056895F8500140061CD55846414607F03B
:1067C00088FA002800DA404295F86311884211DA0D
:1067D0004B463A4621465046FFF701FF25E00000B0
:1067E0004509100058091000240910002009100064
:1067F0008C0A10001BEB0B01A1FB062448EB0800E0
:1068000000FB0640F31701FB030308980599454276
:10681000A5FB0907002464EB010404FB09714FEA9E
:10682000E97605FB061107F054FA054628B215E58E
:10683000B8F1000FCCDADDE90C010843C8D00F989D
:106840000028C5DBF2E738B5B04D049C2D6895F8FB
:106850005051AD0603D50094FFF741FF01E0FFF76B
:10686000BEFE00B238BD2DE9F04700249A46CE1E88
:1068700081462346A44627462546022A03DBB24228
:1068800001DC1046C5E50020491E07E039F91080FB
:10689000B8F1000F01DDC4447F1C401C8842F5DBC9
:1068A0009CFBF7F7022A12DA10460DE039F9106066
:1068B000BE4203DA3CB90446002304E01CB19E4208
:1068C00001DD33460546401C8842EFDB14E0B2424E
:1068D00012DD10460EE000BF39F91010B94203DA9C
:1068E0003CB90446002304E01CB1994201DD0B468B
:1068F0000546401E0228EFDC534500DA15462846BF
:1069000087E530B5044630F911300020491C06E017
:1069100034F911509D4201DD2B460846491C914235
:10692000F6DB30BD2DE9F34F784C85B0226892F844
:106930008451567D05F00F035F4206EB470606F0D3
:10694000FF0B167D2A09554200EB430006EB450577
:106950000590EDB201EB420001952A460021069018
:10696000FFF7CFFF06465A4600210598FFF7C9FFFB
:1069700005462068664F90F87001800607D5B7F984
:106980000030324601990698FFF76DFF06462068F1
:10699000DFF880A190F87001C00607D5BAF9003081
:1069A0002A4659460598FFF75EFF0546DFF86891CD
:1069B000DFF8688199F80000012828D1206890F854
:1069C0006001010723D0010921D0B7F9001000911F
:1069D00000F00F03B8F9082001990698FFF79EFD13
:1069E0000746BAF9000000902068B8F90A20594615
:1069F00090F8600103090598FFF790FD002F01DB77
:106A0000002802DAFFF768FD01E03E46054637B28E
:106A1000A8F808702AB2A8F80A204FF0000ACDF8AA
:106A200000A020685946B0F918300598FFF70BFF11
:106A3000CDF800A0039020683A460199B0F91630CD
:106A40000698FFF700FF0290206890F87001800719
:106A500004D5022203A902A803F0EEFE03A902A8AE
:106A6000FCF7C5F8012332462D480199FFF799FD3F
:106A7000064601232A4659462A48FFF792FD30442C
:106A8000FFF776FDC3B2284800780028206810D0B0
:106A900090F9A51198F801204046521E52B288F88C
:106AA0000120002A08DB226892F8FC22114449B236
:106AB00004E090F97211EDE7FF22427099F800406E
:106AC00005690CB96D1C05618D421AD340F2FF11A6
:106AD0000161C8F80CA04CB1039802B2029801B24F
:106AE0005FF00900FFF7E3FB48B10AE0012089F8F5
:106AF0000000039802B2029801B20720F2E7FFF704
:106B0000EBFC07B00120BDE8F08F00002009100069
:106B10005C0A10005A0A1000580910008C0A100074
:106B2000C41301208413012045091000D548D64A1A
:106B30000068B0F8AC139180D44990F8B103088193
:106B40007047D2490020CF4A8880C880C8604880FA
:106B50001268CF4B92F85C2112091A700861087014
:106B6000CC49087070472DE9F043A3B0814602AFCD
:106B70008021384607F040F9C2480123016891F8A6
:106B8000B1204C7D91F8A01103EB1216890715D5A1
:106B90000025804610E000BFD8F8001005FB04F087
:106BA00009EB40004A7D91F88B31CDE9003249462E
:106BB0000246FCF76DF86D1CB542EDDB002010E0DD
:106BC00000FB04F2002109E002EB010C57F8215010
:106BD00039F91C302B4447F82130491CA142F3DB22
:106BE000401CB042ECDB002007E000BF57F820104B
:106BF00091FBF6F147F82010401CA042F6DB002084
:106C00000121A4F1010517E04FF0000C63460BE0F1
:106C100003FB041839F9182057F82180B2EB080259
:106C200000D5524294445B1CB342F1DB9CFBF6F26C
:106C3000824200DD1046491CA942E5DBB0F5803FE9
:106C400004DB4FF6FF7023B0BDE8F08380B2FAE7B3
:106C500030B58C498E4B096891F85021920725D5A3
:106C60008C4A12784AB191F8A74104F00F02250925
:106C7000B1F8A841B1F8AA1107E001F5AC710C799F
:106C800004F00F0225090C884988A04201DC1A7023
:106C900030BD884201DB1D7030BD001BAD1A68435A
:106CA000091B90FBF1F01044187030BD91F85C01A5
:106CB00000F00F00F8E72DE9F041724D724A2E689E
:106CC00096F88013B6F8AC33C9073DD096F8AF43B9
:106CD00004B90124918896F8AEC3CF1A07FB0CF7CC
:106CE00097FBF4F4B6F8AA730F442744674CB842F4
:106CF0000ADD002620210120E660F9F7B7FBE680D7
:106D0000286890F8B10306E0814202D9614D2D78E0
:106D100025B196F8B1032081BDE8F0815E4D2D7854
:106D2000002DF9D1B4F90850002D01DD6D1E25812B
:106D30002489002CF0D1891E814200DA01468B4261
:106D400000DD19469180E7E79380E5E74D4A10B5ED
:106D500014680021B4F8A121824204D294F8B00052
:106D6000800700D5012149484A4B0278914211D150
:106D7000197891420AD0484C2478224307D00169FF
:106D8000491E0161002901DC0078187010BD0170F6
:106D90000169F7E739B194F8B22002610170002A65
:106DA000F4DC197010BD94F8B320F6E7354910B53E
:106DB000096891F8B010CA06344918D5374A1478D2
:106DC0000A46D388C3EB03125200012C05D0C41A23
:106DD000002C0CDC304C247824B102EB4000C0F3D2
:106DE0004F1004E0C3EB83121044C0F38F10C8802F
:106DF00080B210BD10B5FFF7B6FEFFF7D7FF234CEA
:106E0000A080FFF7A3FFA088FFF722FFA088BDE8BE
:106E1000104050E7F0B421490B781C494A88B3B1BF
:106E2000322A01D2521C4A80164B01251A6892F868
:106E3000B140527D05EB1414CD6895FBF4F604FBCC
:106E400016556A43164D05EB420500220BE0012A58
:106E5000EAD9521E4A800022CA60E5E730F8126083
:106E600025F81260521C1E68767D9642F6DCC868D2
:106E7000401CC860A04202DBF0BC0948BAE7F0BC85
:106E80007047000020091000643B1000CC0A10007D
:106E9000730910004509100040091000370910005F
:106EA00028140120A549002048600860A449087002
:106EB000704710B500230AE030F91340002C00DAC7
:106EC00064428C4201DD012010BD5B1C1BB2934269
:106ED000F2DB002010BD70B50546002003460BE034
:106EE00035F9134031F91360A41B00D5644224B274
:106EF000A04200DA20465B1C9342F1DB70BD2DE915
:106F0000F04F9048007840077BD58F488F4A8B4CD4
:106F100001781068002661B12660666090F82C1038
:106F2000B0F82F504FEA111A01F00F0BB0F83310E0
:106F300019E02168491C216090F82A30B1EB131F39
:106F400000DD2660616803F00F03491C61608B421D
:106F500000DA666010F82B1F4FEA111A01F00F0BD0
:106F60004588C1882B38944617468946427D784922
:106F70007848FFF7B0FF804638687749027D774848
:106F8000FFF7A9FF3A686E4BB2F85471B8EB570F90
:106F900004DCB2F85211B0EB510F02DD0120187081
:106FA00000E01E706A4E6C4A0020E64649E06C4BD9
:106FB00000211B78012B09D06A4B33F910C036F938
:106FC00010309C450DDA63683BB11CE0654936F82A
:106FD000103031F81010C91A01E0CBF1000109B2EC
:106FE00011E0D4F80080B8F1000F0CD1ACEB030332
:106FF0000FFA8AF1AB4206DD4B4503DD0FFA89F14A
:1070000001E075E029B297F880335B0713D50023C0
:1070100009E0DFF854C10CEB831C5B1C3CF81080CA
:1070200088442CF8108097F880834FF0010C0CEB0B
:10703000981C9C45EDDC36F81030194426F81010E9
:10704000401CDEF800707B7D8342B0DC00204AE00B
:10705000434B00211B78012B09D0444B32F91070AF
:1070600033F91030BB420DDA63683BB11AE03F4997
:1070700031F8103032F81010591A01E0CBF100014C
:1070800009B20FE0D4F800C0BCF1000F0AD1DB1B3D
:107090000FFA8AF1AB4205DD4B4502DD0FFA89F1AB
:1070A00000E029B296F880335B0716D50023DFF89D
:1070B000C0C00BE003EBC30707EB03170CEB87071C
:1070C0005B1C37F81080884427F8108096F880837E
:1070D000012707EB98179F42ECDC32F81030194477
:1070E00022F81010401CDEF80060317D8142AFDCD8
:1070F000BDE8F08F154810B5006890F82000C10772
:107100001AD01C490978002916D11B49097809B100
:10711000800611D51948007800280DD1184800784C
:10712000002809D10320F9F78CFAFFF7E8FEBDE843
:1071300010400320F9F7A0BA10BD0000E00A1000CB
:1071400081091000EC0A1000370910002009100016
:10715000CC0C0120581101200C0D012098110120A8
:10716000E80A1000AE100120140E0120EE100120DC
:10717000140F01203B0910004009100043091000C2
:1071800042091000F0B40C4601460498C3F1100601
:10719000012801D0002014E02046F0BC5200FBF78B
:1071A00061BC00BF34F9105031F910705D4307FB2A
:1071B0000655EF1705EB177545F30F1524F810501A
:1071C000401C9042EEDBF0BC7047F0B50646002054
:1071D00004460546521C059F0AE000BF36F911C05F
:1071E0009C4504DDA44502DD64460D460120491C92
:1071F0009142F3DB3D60F0BDF0B54FF0000C674607
:107200006646654664460EE031F914E0BEF1000FB3
:1072100003DDF44406F1010603E002DA774405F1E8
:10722000010504F101049442EEDB9CFBF6F697FBAA
:10723000F5F70024DFF840C129E08BB131F9145093
:10724000002D13DD30F8145035442DB220F81450C1
:10725000DCF800E0BEF858E4754517DD354413E06E
:1072600030F8145031F814E075440DE00EDA30F8BF
:1072700014503D442DB220F81450DCF800E0BEF864
:107280005CE4754502DA3D4420F81450641C9442D5
:10729000D3DBF0BD2DE9F04391460022DDF81CC0A0
:1072A00018E000252E462C4602EB0407BF1E08D42A
:1072B0009F4206DA30F9178039F9147008FB075538
:1072C0003E44641C052CEFDBBCF1010F06D021F815
:1072D0001250521C9A42E4DBBDE8F08395FBF6F4B1
:1072E00021F81240F5E770B5002407E032F8145099
:1072F00030F81460AD1B21F81450641C9C42F5DB7F
:1073000070BD30B500231C4607E000BF30F91350B4
:10731000954201DA20F813405B1C8B42F6DB30BD4E
:107320002DE9F04300252E462C46DDF81C9017E091
:1073300031F9147030F914C007EB0208C44505DDBB
:10734000BCEB070700D57F423E4408E0A7EB0208EC
:10735000C44504DABCEB070700D57F423D44641CFA
:107360009C42E5DBB9F1000F00D10025B54201D206
:107370000120B1E70020AFE7200910005C485D4A1A
:1073800000685168414004D05060480701D5FDF7BE
:10739000A7BF704710B5044648070FD50420F9F77A
:1073A00050F955492046FBF7F9F854492046FBF7B8
:1073B0002CF9BDE810400420F9F75EB910BD70B596
:1073C0004C4800214E4D01704E492C680C4236D07D
:1073D000406804404C480078002830D10620F9F776
:1073E00030F921464948FFF7D5FF4948494E006822
:1073F00090F8A011C90709D0287800060CD430787D
:10740000052809D04148FFF705FD05E090F85C012B
:10741000414900F00F0008700620F9F72DF96007C8
:1074200003D536493448FEF7C8FA3078052802D12A
:107430002868002803DABDE87040FFF75BBE70BD26
:107440002C4910B500204860FFF72CFDFDF748FFE0
:10745000FFF777FBBDE81040FFF768BB254C08B588
:1074600000256570FFF7ECFF4FF6FF76607820B3DC
:107470000128FBD16B46002215210420F9F745F8BD
:107480000098C00706D031460420F9F71DF8FFF731
:10749000D7FF65700098400705D504210846F9F725
:1074A00013F8FFF78CFF0098C006DFD510210420E9
:1074B000F9F70AF8FFF762FFD8E704210020FBF78D
:1074C0005BF96B46002202210420F9F71EF8042123
:1074D0000120FBF751F900988007C7D531460420F9
:1074E000F8F7F2FFFFF7ACFF01206070BEE7000085
:1074F0008C0B1000E80A1000AE100120EE100120E5
:10750000540910003C0200803B091000E48D01206A
:10751000200910007409100073091000F9490020B7
:10752000F94B08614861012288611A708860C8605F
:10753000F6490870F6490870F6490A70F64908706D
:10754000F648F74940880880F6490880704708B532
:1075500002210020FBF710F96B4600224FF48071E6
:107560000220F8F7D2FF02210120FBF705F900986D
:10757000C00509D5FFF7D2FF4FF6FF710220F8F7DB
:10758000A3FFE0490120487008BD2DE9FF411546E1
:107590000E460746FAF7F9FFCDE90001FBF734F88C
:1075A000CDE90201DDE9000149084FEA3000CDE9EB
:1075B00000014FF008016846FAF7F8FE044608217A
:1075C00002A8FAF7F3FE00EB440C07EB440207EBCA
:1075D0004C03014606EB440706EB4C06002006E090
:1075E00032F810C00CFB05FC27F810C0401CA0426C
:1075F000F6DB002006E000BF33F810206A4326F8CF
:107600001020401C8842F7DBBDE8FF81FBF756BA2B
:10761000C548006890F829010106C44802D50188D0
:10762000491C01E0B7494988018070472DE9F047BE
:10763000BD4EBF48002431680278254691F8C81035
:10764000A046CB0718D08B0716D5BA4B1B78C1F3D1
:107650008207012101FA07F73B4201D0017002E0E5
:10766000414680F80080C8B2824205D001280ED081
:107670005FF0CD0000F0C0FDAF4FDFF888A2387892
:1076800038B1FAF71CFCCAF81480BDE8F087CC20AA
:10769000F0E7FFF7BDFF3068B14690F818014007EA
:1076A00001D5FAF734FB984800780128EBD0062082
:1076B000F8F7C7FF9AF814005646C00704D09F4950
:1076C0007868FFF7A3FF0124D9F8000090F8E801DB
:1076D00038B1307D800704D59949F868FBF732F856
:1076E0000124B08A10F4DE7F17D09349B8681031B6
:1076F000FBF7C1F9307D000609D5D9F800008E49A5
:1077000090F8CC271031521C0846FFF73EFF8A48FC
:107710008C491030FBF7AFF901250620F8F7ACFFD4
:1077200089497069012C086003D104210320F8F70E
:107730009DFE012DA7D1774C2078012804D10D2082
:1077400000F05AFD84F8008004210846F8F78EFE08
:1077500099E710B5014610227748FBF783F902211B
:10776000BDE810400846F8F781BE30B59DB004462C
:107770006846FBF7AEF963486A49694B44610A8879
:107780001A80664A604B52880A806749E2071AD01D
:107790009DF8002042F001028DF800200A6892F85E
:1077A0002051ED070FD01D78032D0CD0002C0ADBE3
:1077B00092F822518DF81C5092F821218DF820204A
:1077C00044F480624261A20709D50A6892F8E82170
:1077D0002AB19DF8002042F008028DF8002014F430
:1077E0009E7F4FF0000208D01B78052B10D09DF82B
:1077F000003043F006038DF80030E3052FD5534BDE
:107800001B78012B16D0524B1B78012B12D026E08F
:107810009DF80030002C02DA43F0060301E043F04B
:1078200002038DF800308DF84E20436943F0800349
:107830004361E2E7096891F8B0311B070FD58DF875
:107840004E2091F8CD17C90705D09DF8001021F002
:1078500010018DF80010416941F080014161AFF2E3
:107860000D1001906846F9F77FFE1DB030BD00EBAA
:1078700080004FF6FF7101EA4000F9F7A1B82248F5
:1078800010B5017828480529006803D090F81A41FE
:107890001CB103E090F81D41FAE71424F9F778F9D8
:1078A000002801DD04EB8404204610BD70B51E499C
:1078B00005460020096891F82040E20721D0124ACD
:1078C0001378104A052B05D091F83930214E3678BF
:1078D00056B114E0167891F83A30032EF6D206F13C
:1078E000010616705360F1E71B4E36780EB1A40600
:1078F00005D51A4C247814B9194C247894B35942FC
:10790000516070BDF00A10007409100037091000B2
:10791000380910007109100082091000643B100042
:107920008409100086091000200910007609100053
:10793000460910004B000020F0551000A81110005F
:10794000A4100120E48D0120540910003D0910000D
:107950003C0910003B0910004009100043091000C9
:1079600042091000FFE75468641C54609C42C8DD63
:107970000020506091F8E821012002B1032091F825
:107980005021D2070ED191F804235AB991F8E02280
:10799000D20707D191F86022D20703D191F8B01134
:1079A000C90701D040F49E70284040F00040A8E78D
:1079B0002DE9F04FDFF8E4A3F94C00239AF80020FA
:1079C000206915469C469846C10708D0F5490978B4
:1079D000012902D0F449097809B14FF0010C81075F
:1079E00004D5F2490978012900D18C46410709D50F
:1079F000EF490978012903D0EE490978012901D11D
:107A00004FF00108EC49ED4EDFF8B4930F68002108
:107A10004FF0010BBCF1010F06D0032D06D0022D53
:107A200015D0052D49D04BE0032240E0A160317014
:107A300089F80010D4F80CC00CF1010CC4F80CC08B
:107A400097F85D81E0453BDA0222E1603AE0DFF839
:107A500074C39CF800C0BCF1010F28D0DFF868C3E4
:107A60009CF800C0BCF1010F21D0DFF860C39CF886
:107A700000C0BCF1010F1AD097F818C15FEA8C7CE6
:107A80001ED5E160D4F808C00CF1010CE646C4F83C
:107A900008C097F819C10CEBCC0808EB0C18BEEB2A
:107AA000880F0DD3A160052286F800B00AE0E160DE
:107AB000A160317089F8001002E0B8F1010F17D011
:107AC000AA4201D0C14D2970032A18D0022A1AD027
:107AD000052A1DD08AF800B00340A361DA0728D038
:107AE00097F8B021D20724D0B94A1278F2B120E039
:107AF000E160A1603170022289F80010E2E70323FF
:107B00008AF80030E8E702238AF800303F23E3E7F1
:107B100005238AF8003010F00C0F03D01E2389F8DB
:107B200000B0D9E71F2389F80010D5E743F480722D
:107B3000A261327802B92170FFF7B8FEA16908434B
:107B4000A061BDE8F08F08B50020F8F77AFDFFF7D7
:107B50002FFFA0490868002809DD934A127832B93E
:107B6000401E086003D102210520F8F77FFCFFF7D3
:107B700086FEFFF77CFE8A488069FFF7F6FD02214A
:107B80006B4600220846F8F7C0FC02210846F8F7C9
:107B90009BFCFFF74BFD0020F8F76EFD08BD10B50C
:107BA00001210220F8F790FCBDE81040CBE7F8F780
:107BB00017BF2DE9F05F002704210220F8F784FCAD
:107BC0008548DFF8DC810668D8F8101091EA0605D0
:107BD00041D0DFF8E8A1DFF8E89135424FF6FF7BAE
:107BE0003C4621D001BB7D48012759460460022054
:107BF000F8F76AFCC8F81440C8F81840C8F80840FC
:107C0000C8F80C40C8F804406B498AF8004089F86D
:107C10000040096891F82911890705D57048A8F82E
:107C2000024004806F480480042D01D189F800408F
:107C30005A4D4046C8F810607EB10221012F16D07F
:107C40002A78052A07D18460C8F80C408AF80040D9
:107C500089F800402970BDE8F09FF8F7C1FE0120C7
:107C600028705946BDE8F05F0220F8F72DBCF007F8
:107C700002D00320287000E02970BDE8F05F62E7C1
:107C800010B510210220F8F71FFC444801780129A3
:107C90000AD00521017042490020484AC860886026
:107CA000012111704649087010BD10B5082102204D
:107CB000F8F70AFC39480178052911D1384A002122
:107CC0003E4BD160916019703D4B19701169CA0724
:107CD00001D0032103E011F02C0F02D0022101702A
:107CE00010BD8905FCD50421F9E708B56B460022D3
:107CF0009D210220F8F709FC0098010702D5FFF743
:107D0000D4FF0DE0C10602D5FFF7BAFF08E0410736
:107D100002D5FFF74EFF03E0C00701D0FFF73FFF9A
:107D20000098000607D51E49002048704FF6FF71E5
:107D30000220F8F7C9FB08BD08B502210020FAF7B8
:107D40001BFD6B46002284210220F8F7DEFB022196
:107D50000120FAF711FD0098400701D5FFF729FF30
:107D60000098000607D50E49002048704FF6FF71B5
:107D70000220F8F7A9FB08BD094D0020074C6870E8
:107D800032E0687848B10128FBD1207801282ED054
:107D90000528F6D8FFF7A9FFF3E725E074091000DE
:107DA000F00A10003D0910003B09100042091000C4
:107DB0004009100041091000200910003709100087
:107DC00038091000590910005A09100081091000E3
:107DD00044091000880B10008C0B1000540910008F
:107DE0007609100078091000FFF7B1FBC9E7FFF72B
:107DF000A3FFC6E714490020C860886013490870D3
:107E000013490870704710B5F9F7D0FD0E490020EE
:107E1000486110BD10B5F8F7E3FD0121BDE8104041
:107E20000220F8F723BB80B2F8F7F4BDF8F702BEE2
:107E300010B5F8F7FFFD04484188491C4180BDE8B2
:107E400010400120EFE70000F00A10003709100091
:107E50003809100010B504460220F8F7F2FB20465E
:107E6000F8F7A0FEBDE810400220F8F705BCF8F7CF
:107E700099BE1CB500210091019102789DF8001077
:107E800062F303018DF80010427862F307118DF858
:107E900000104289BDF8011062F30B01ADF801102A
:107EA0000289BDF8021062F30F11ADF8021081795A
:107EB0008DF80410C1798DF8051001798DF8061040
:107EC00080788DF807006846FFF7C4FF1CBD1CB51D
:107ED00000200090019002208DF80000E848006822
:107EE000C007400E8DF807006846FFF7B3FF1CBDC2
:107EF0001CB500210091019101788DF800104178A6
:107F00008DF80110C188C1F307118DF80210818826
:107F1000C1F307118DF80310017901F00F018DF8FD
:107F20000410827941EA02118DF8041081788DF8ED
:107F30000510C07800F00F008DF80600D0480068EA
:107F4000C007400E8DF807006846FFF783FF1CBD91
:107F50001CB50021009101910E218DF800108DF8C3
:107F60000200C7480068C007400E8DF80700684649
:107F7000FFF770FF1CBD1CB5002000900190C148A8
:107F800000684178827810208DF800004006437A1E
:107F90008DF80130BC4B1B788DF8023043891B0AE9
:107FA0008DF8033040898DF80400B5488DF8051030
:107FB0008DF806200068C007400E8DF8070068465F
:107FC000FFF748FF1CBD1CB5002000900190112058
:107FD0008DF80000AA480068C007400E8DF8070021
:107FE0006846FFF737FF1CBD2DE9FC41064600201F
:107FF00000900190122015460C468DF800004FF0BD
:1080000008571EE0200A8DF80100C4F30B008DF81C
:108010000240315C30448DF8031041788DF8041033
:1080200081788DF80510C0788DF80600D7F8E0014A
:10803000C007400E8DF807006846FFF70BFF241DB0
:108040002D1F002DDEDCBDE8FC811CB50022019255
:1080500000920F228DF800208DF801008DF8061097
:10806000402087498DF80700012008606846F8F72E
:1080700099FD1CBD1CB5002300930193DB238DF8F3
:1080800000308DF801008DF80210100E8DF80300FD
:10809000100C8DF80400100A8DF8050078488DF852
:1080A00006200068C007400E8DF807006846FFF7FD
:1080B000D1FE1CBD1CB50022009201920F228DF84A
:1080C000002005228DF801208DF802006C488DF803
:1080D00003100068C007400E8DF807006846FFF7E0
:1080E000B9FE1CBD2DE9FC41044600250095192070
:1080F0008DF8000040070195417A8DF80110624922
:1081000009788DF802104189090A8DF80310408919
:108110005C4F8DF804005A4E386841788DF8051090
:1081200080788DF806003068C007400E8DF8070093
:108130006846FFF78FFE00951A2001958DF8000024
:10814000386800F5FC6001788DF8011041788DF8F1
:10815000021081788DF80310C0788DF80400306823
:10816000C007400E8DF807006846FFF773FE0095C4
:108170001B2001958DF800006068000E8DF801004D
:108180006068000C8DF80200A088000A8DF80300DA
:1081900020798DF8040020788DF80500207B8DF87B
:1081A00006003068C007400E8DF807006846FFF7EC
:1081B00051FE00951C2001958DF80000A068000E6E
:1081C0008DF80100A068000C8DF802002089000ADB
:1081D0008DF80300207A8DF80400207C8DF80500CE
:1081E000207D8DF806003068C007400E8DF807002E
:1081F0006846FFF72FFE26E71CB52249096891F86B
:108200002911490603D400F00F010C2919D10021CE
:108210000091019116218DF800108DF80100010ADE
:108220008DF80210010C000E8DF8040014488DF832
:1082300003100068C007400E8DF807006846FFF77E
:1082400009FE1CBD1CB500230093019316238DF875
:1082500000308DF80100080A8DF80200100A8DF830
:10826000040007488DF803108DF805200068C0074A
:10827000400E8DF807006846FFF7ECFD1CBD0000BE
:10828000E0010022200910008009100091480068D8
:1082900090F82A0100F00700801C00EB8000C0006D
:1082A000F8F7A3BB2DE9F0418B4D286818B30520E2
:1082B000F8F7C7F900240127286807FA04F63042C6
:1082C00013D004EB440005EB800898F8040005285F
:1082D0000BD104218148FAF769F8C1B208F1040012
:1082E000FFF7C7FD2868B0432860641C0A2CE3D35D
:1082F0000520F8F7C1F97948001F4068002802D02E
:10830000BDE8F041C2E7BDE8F081F8F77EBB2DE99A
:10831000F05F724D05202D1FD5F80480F8F791F914
:10832000DFF8B0914FF0005AD9F8000090F8290119
:10833000800702D500218AF80510DFF89CB10027DC
:108340000126DBF80010BE40584631423AD007EB18
:10835000470200EB82042279032A09D0042A07D0BD
:10836000052A2FD1D9F8002092F82921D20629D444
:10837000B143CBF800102079032802D0042804D0A0
:1083800018E0686806436E6014E0D9F8000090F8C1
:108390002901C0070BD00520207104214F48FAF7AE
:1083A00005F8C1B2201DFFF764FD04202071686844
:1083B000B043686004214948F9F7F8FFC1B2201DB5
:1083C000FFF757FD7F1C0A2FBAD3D9F800004C469F
:1083D00090F82901800702D580218AF80510052030
:1083E000F8F74AF9206890F82901C0060ED56868A8
:1083F000B8F1000F05D0002808D1BDE8F05FF8F70C
:1084000004BB002802D0BDE8F05F3FE7BDE8F09F65
:1084100032490020091F48607C212F4805F0ECBC40
:108420002E4C08B5241F00252570F8F7EEFA2078A9
:1084300050B30128FBD100226B4607211046F8F704
:1084400064F80098400706D504210020F8F73CF8AE
:10845000F8F7DBFA25700098800705D50221002087
:10846000F8F732F8FFF753FF0098C007DFD001217B
:108470000020F8F729F81748006890F82901C0068D
:10848000D5D5FFF70FFFD2E700210846FAF774F9B8
:1084900000226B4608211046F8F737F8002101202A
:1084A000FAF76AF900980007C1D5FFF7B1FFF8F7AE
:1084B000ACFA0F210020F8F707F801202070B6E78A
:1084C00010B5F8F7A2FA0121BDE810400020F7F737
:1084D000CDBF000020091000E83A1000100B10007A
:1084E000CE49002001220870CD490A70487088608A
:1084F00008718870C8700C3108600871C94908603B
:1085000048600881C1F80A00C1F80E00488270472F
:10851000F0B5C54B044600201D6802465FF0010718
:1085200095F8E86107FA02F31E421ED0DFF8FCC29C
:108530009CF800C0BCF1010F0FD195F8E6C15FEACD
:108540001C1E0AD031F912E04FEA1C1C9EFBFCFCF9
:1085500034F912E0F44506DB07E034F912C031F9D2
:1085600012E0F44501DD0343D8B2521C052AD9DBE1
:10857000F0BDF0B5AC4CAA4F0123226892F8F92166
:1085800002F00F053A78C5F11006012A4FF00002FB
:1085900011D1256803FA02F695F8E851354203D067
:1085A00030F8125021F81250521C12B2052AF0DB9A
:1085B00000203870F0BD276803FA02FC97F8E871D4
:1085C00017EA0C0F0AD030F9127031F912C06F435C
:1085D0000CFB067747F30F1721F81270521C12B2EA
:1085E000052AE8DBF0BDF0B500238F4D012404FA25
:1085F00003F72E6896F8E8613E4206D032F8136021
:1086000030F81370F61B21F813605B1C1BB2052BAE
:10861000EDDBF0BDF0B5DFF808C2034600229CF8A0
:1086200003000CF10C0583EA00067F48012407686B
:1086300004FA02F030420BD0184297F8E70102D05A
:1086400004EB101002E000F00F00401CA85411E0F1
:1086500015F802E0BEF1000F0CD0AEF1010E1EF0D5
:10866000FF0E05F802E005D1184202D00843C1B25E
:1086700000E08143521C052ADADB8CF803300846FF
:10868000F0BDF1B59DF80000002823D00121684617
:10869000F9F78CFEC0B201281DD0614A90780028FD
:1086A00018D1614C00215F4D24680123084694F8DD
:1086B000E8610A3503FA00F4264205D035F9104086
:1086C0008C4201DD21461071401C0528F2DB107937
:1086D0008340D8B2F8BD9DF80000F8BDF0B5524B0C
:1086E00000252C461B682A46012793F8E86100BF45
:1086F00007FA02F31E4211D030F91230002B01DBD1
:108700009C4601E0C3F1000C8C4507DD002B01DD28
:108710001D4403E001DAC3F100031C4402F101022D
:10872000052AE5DBA54201D20120F0BD0020F0BD05
:108730002DE9F05F3B49FFF71CFF0320F7F781FFAE
:1087400038493B4A0A313748FFF74DFF0320F7F716
:1087500093FF354E314F324C30684FF001094FF0E6
:10876000000590F8E611490730D56178DFF8C4A01C
:108770004FF018084FF4806B61B1A168491CA160EB
:1087800090F8FC01000900EB8000B1EB400F1DDD0B
:10879000A5602DE0B0F8FA1122480A30FFF79EFFDD
:1087A000012801D0A56011E0A068411CA1603168DA
:1087B00091F8FC1101F00F0202EB8202B0EB420FC4
:1087C00004DD84F80190A560080911D031681548CE
:1087D00001F2EF110A30FFF79BFE88B187F8009095
:1087E000316891F8E61189070BD5FFF74AFF08E0D9
:1087F000657059460120CAF80080F7F737FE09E096
:108800003D70A178FFF706FFA178884202D0A070E2
:10881000FFF79EFB3878BDE8F09F0000420910008A
:10882000140B1000D08F0120200910003F09100008
:10883000C20C0120240910002DE9F0419148924D0D
:1088400001684A7D087D521C91F8233042431F097C
:108850001024A4EB13161AE08C4B35F91040B1F933
:1088600026C033F91030A4449C450FDBB1F928C071
:10887000A4EB0C0C9C4509DC7C4303FB0643DC1792
:1088800003EB147343F30F1325F81030401C904290
:10889000E2DB91F8200000070CD57B48F9F7EBFFED
:1088A0007B4A014600231060BDE8F041794A7648D2
:1088B000FAF715B8BDE8F081F0B57248016891F893
:1088C000E80100282BD091F82400734A00F00F042F
:1088D0000020C4F11007012691F8E83106FA00F5EE
:1088E0002B4219D06D4B32F91050B1F96CC433F9E9
:1088F0001030AC449C450FDBB1F96EC4A5EB0C0CF9
:108900009C4509DC654303FB0753DD1703EB157337
:1089100043F30F1322F81030401C0528DCDBF0BDB8
:108920002DE9F04F5748006890F85011C90776D1EB
:1089300090F8B011C90772D05949097800296ED151
:1089400090F82310DFF85CC101F00F03C3F11005AC
:108950000021554C4FF0010935E000BF34F91120DA
:10896000B0F9646497193CF91160B7422ADBB0F999
:108970006674D71BB74225DC02FB03F706FB0576BE
:108980004FEAE67706EB177646F30F1B90F8806305
:10899000760715D5ABEB020217B20022DFF80CA167
:1089A00008E000BF0AEB8216521C36F81180B8446A
:1089B00026F8118090F8808309EB98169642F1DC36
:1089C00024F811B0491C427D8A42C7DC0021DFF83F
:1089D000E0C0384C39E000BF34F91120B0F96464CC
:1089E00097193CF91160B7422EDBB0F96674D71BBA
:1089F000B74229DC02FB03F706FB05764FEAE67770
:108A000006EB177646F30F1B90F88063760719D5AF
:108A1000ABEB020217B20022DFF89CA00CE017E0DB
:108A200002EBC20606EB02180AEB8806521C36F867
:108A30001180B84426F8118090F8808309EB9816CD
:108A40009642EDDC24F811B0491C027D8A42C3DC59
:108A5000BDE8F08F0B4910B5096891F82010C907DF
:108A60000FD000280DD10320F7F7EBFDFFF7E4FE50
:108A7000FFF722FFFFF754FFBDE810400320F7F790
:108A8000FBBD10BD2009100042000120A8111000FC
:108A900050091000C83A1000C20C0120A410012097
:108AA00044091000AE100120CC0C0120140E01204E
:108AB000EE1001200C0D0120140F0120FB490020B5
:108AC0000870704700E010460A5C8242FBD1704794
:108AD00070B500250E4603462C4606E01946204692
:108AE000FFF7F0FF1855641CE4B2B442F6D300223D
:108AF0000AE0985C904203D19D546D1CEDB201E0F8
:108B0000185C9854521CD2B2B242F2D3284670BDBF
:108B100038B1884202D20B4601461846884200D03E
:108B20001154084670472DE9FF4F99B00120049079
:108B3000DF4819689A460068067D477D79B19AF842
:108B400002109AF800905046B14200D24E1C45786F
:108B50009AF80300F6B2B84205D2401C04E04FF088
:108B600000094D4601E03846C7B2002007A9085465
:108B7000401C2D28FAD305EB850000EBC5011998A0
:108B800000EB810C681C69E000EB800101EBC80080
:108B90001999E34601EB800C09F101045AE000BF8A
:108BA0000CEB04001590006810B31CF8040000B32F
:108BB0001598002310F8010C00B103461BF80410AF
:108BC00021B107AA1846FFF7A3FF03461A98002809
:108BD0000BEB04000ED0159010F8011C21B107AA70
:108BE0001846FFF795FF034615984178D9B91FE05D
:108BF000E41C2EE0189010F8011C59B115981BF8D0
:108C0000042010F8010C104304D007AA1846FFF7FF
:108C10007FFF03461898417851B115981BF804203E
:108C20004078104304D007AA1846FFF771FF0346A7
:108C300013B10CF804300CE004982D2806D20CF87F
:108C400004000498401CC0B2049002E0401E0CF8DE
:108C50000400641CB442A3D908F101008046B84264
:108C600092D907A80499FFF733FF804641001B986B
:108C700005F0A0F800204FF6FF7202E04AF820202D
:108C8000401C4045FAD33DE005EB8500199900EB07
:108C9000C50001EB800034304C4605902FE005986C
:108CA000011901204058A8B3487838B307AA105CCE
:108CB00048701B991B9A0AEB800B31F81010491C65
:108CC00022F810109BF800102046F9F782FB8BF871
:108CD00000009BF801102846F9F77BFB8BF8010098
:108CE0009BF802102046F9F778FB8BF802009BF8FE
:108CF00003102846F9F771FB8BF80300641CB4429B
:108D0000CDD36D1CBD42BFD3A8F101001DB0C0B2D0
:108D1000BDE8F08FFFE7E41CF0E72DE9FF5F1646A2
:108D20008B4655782AE000BF05EB850000EBC501B6
:108D30000098347800EB8100002100F1340A884665
:108D40008946B77811E000BF0AEB040090F90110E2
:108D5000594508D122460120002104F0A7FF40EA2E
:108D6000080841EA0909641CE4B2A742ECD2039A5C
:108D700002EBC5026D1CC2E90089EDB2F078A84291
:108D8000D2D2BDE8FF9F2DE9F04F9346474ADFF866
:108D900020A1C5B01378012B13D1002313700A78DA
:108DA000002A75D04A78002A72D0DAF800208C7830
:108DB000137D5B1E9C426BD0527DCB78521E93423A
:108DC00066D000226D4605EBC2040023C4E90033DF
:108DD000521C222AF7D34B7891F803802DE000BF74
:108DE00000EBC302D2E900629146324324D05FEA2D
:108DF00059044FEA360216EB060C42EA0C0249EB24
:108E0000090732433C4305EBC30644EA0904D6E9AB
:108E1000007C17434CEA040CC6E9007CD6E9027CCE
:108E200017434CEA040CC6E9027CD6E9047C1743DC
:108E30004CEA040CC6E9047C5B1C9845D0D20022A5
:108E400005EBC20400EBC206D4E90234C6E90034E3
:108E5000521C202AF4D3BBF1010F19D1087808B1B4
:108E6000401E0870487808B1401E4870DAF800309B
:108E700088781B7D5B1E984201DA401C8870DAF806
:108E80000020C878527D521E904201DA401CC87002
:108E900045B03DE72DE9F74F107D92460E4601287B
:108EA00070D17778DFF808B092E00000280B10004E
:108EB000200910000098DAF8242000EBC701DBF845
:108EC0000000D1E900818946017D781C414302EB15
:108ED0004104357819E02A460120002104F0E6FE1D
:108EE00000EA080001EA090108430ED004EB45003E
:108EF00034F9152030F9021CB0F902001144014484
:108F0000032091FBF0F024F81500B0786D1CA84206
:108F1000E1DC3578ADB32A460120002104F0C6FE1D
:108F200000EA080001EA090108430ED004EB4500FD
:108F300034F9152030F9021CB0F902001144014443
:108F4000032091FBF0F024F81500DBF80000B57861
:108F50004FF00001007D2A46A8424FF001001FD1CA
:108F600004F0A4FE00EA080001EA090108432ED03B
:108F700004EB450034F9151030F9020C0844401098
:108F800023E000E028E0012000EA08000000DCD037
:108F9000B4F90000B4F90210084440102080D4E76E
:108FA00004F084FE00EA080001EA090108430ED03B
:108FB00004EB450034F9152030F9021CB0F9020029
:108FC00011440144032091FBF0F024F815007F1CAC
:108FD000F078B842BFF66EAFBDE8FE8FF0B5002561
:108FE000059E2C468F1E00EB410006D430F9045C30
:108FF000CF1E02D430F9067C3D448F1C974207DA1D
:10900000B0F90440C91C914202DAB0F906000444E8
:10901000281B00D540424FF435714843C11700EB7F
:1090200091508012A54203DD316808443060F0BDE4
:10903000196808441860F0BD2DE9FE4F00250F4661
:1090400016469A462C464FF4803B2946012A01DAFF
:10905000019104E000EB460232F9022C019230F952
:109060001690BE4203DA00EB4601B1F902100291FC
:10907000FE49096891F8A010090706D502A90091D8
:1090800001AB3A463146FFF7A9FFDDE90110814205
:1090900002DD05460C4602E001DA0D460446A0EB6F
:1090A00001014FF48033A1FB03084FEAE17C0CFB84
:1090B00003834FF0000201FB023109EB0402C5F10A
:1090C000000302EB43024FEAE27304F002FE4FF4A6
:1090D0008034A6FB043CF51705FB04C41B180A46A4
:1090E000A3FB0A05002106FB0141514101FB0A5186
:1090F0004FEAEA7403FB04115A46002304F0E9FD29
:109100003A46FB1704F0E5FD00B265E72DE9FF4F95
:10911000044681B000200F9F814682460090D348CC
:10912000006890F8A000000718D5207808B1401E0C
:109130002070607808B1401E6070CC49A0780A6841
:10914000127D521E904201DA401CA0700968E0783E
:10915000497D491E884201DA401CE0706821C448FC
:1091600004F028FE4FF0000B5E465D46607838E064
:10917000217832E0BD4AD7F824C0D2F800E0421C82
:1091800013469EF8148002FB08120CEB4202DDF835
:1091900000C0B2F9002062450BDDDFF8D4829244B2
:1091A00038F810C0944428F810C009F1010C1FFAD7
:1091B0008CF95A4502DD93460E4605463A7D012A52
:1091C0000AD19EF814205A43AA4B0B4412F803C04C
:1091D0004CF0800C02F803C0491CA2788A42C9DA1C
:1091E000401CE1788142C3DADFF880826078DFF8E2
:1091F00080B2D8F800100BE00B7D00F1010C0CFBE5
:1092000003637A6A02EB430213882BF81030401C88
:10921000E2788242F0DA497D2AB2491E9448039BE3
:10922000FFF70AFF0E9908606821914804F0C2FD1B
:1092300020785A466D1CD8F800100AE00B7DD7F84C
:1092400024C005FB03030CEB43031B8822F81030FA
:10925000401CA3788342F1DA097D32B2491E84486A
:10926000029BFFF7E9FE04990860C7F808A0A7F879
:10927000049005B04CE52DE9FF4F7C48964684B03C
:109280000D7891F80190CA780068002489780290DE
:10929000007D2346A0465FEA050B29D1CC4625E098
:1092A0000CF101060196DEF824604FF0000A01255A
:1092B000009609E0DDE9006707FB005706EB47066B
:1092C0006D1CB6F90070BA44A942F3DADDE9006515
:1092D000454306EB4505B5F900506D4395FBFAF59E
:1092E00005FB0C33641BA8440CF1010C6245D7DA72
:1092F000451EA9422FD1CC462BE000BF0CF1010640
:1093000001964E1E0396DEF824604FF0000A5D467B
:10931000009609E0DDE9006707FB005706EB47060A
:109320006D1CB6F90070BA44039EAE42F2DA019D9C
:1093300005FB0016009D05EB4605B5F900506D4391
:1093400095FBFAF505FB0C3305FB0044A8440CF132
:10935000010C6245D2DAB9F1000F25D15D4621E05A
:10936000DEF824704FF0000A012600970AE0771C0F
:1093700007FB0057DDF800C0761C0CEB4707B7F978
:1093800000C0E244B242F2DA009E471906EB4706FB
:10939000B6F90060764396FBFAF606FB05449B1B84
:1093A000B0446D1CA942DBDA029D6D7D01956D1EF6
:1093B000AA422BD15D4627E0DEF824704FF0000A68
:1093C0004E46A2F1010B00970AE0771C07FB0057FD
:1093D000DDF800C0761C0CEB4707B7F900C0E2448B
:1093E000B345F2DA561C06FB0057009E06EB470613
:1093F000019FB6F90060764396FBFAF606FB05443A
:1094000006FB0733B0446D1CA942D5DA0798046007
:10941000079843600798C0F8088008B078E42DE901
:10942000F74F88B04FF0000ADFF840B0CDF810A039
:10943000CDF814A0CDF818A0DBF800000F461546B3
:10944000B0F868100791117D5646D046D1460129E3
:1094500016D190F8A010490712D502A9CDE9001540
:10946000B0F91820B0F9161003AB05E02009100080
:1094700048571000E48F01203846FFF747FE9AE076
:10948000787840E0089901EBC000D0E90010CDE900
:1094900000103878039030E022460120002104F0CB
:1094A00005FCDDE9002310401940084323D0DBF818
:1094B000000002996A6A007D8E46491C01FB004348
:1094C00002EB4302079BB2F900209A4206DD04FB3F
:1094D00002880EFB029916440AF1010A2A7D012A2C
:1094E0007ED000FB01F0F849002A2144425C78D08C
:1094F00042F020024254641C0394B878039CA042BA
:10950000CADA0298401C0290F9788142BADADBF894
:1095100000005C4690F8600000060BD504AB2A46BC
:1095200039460898FFF7A7FE0499069888440599DC
:10953000064489442068A3464146027DC48A4FEA16
:10954000E87CA4FB0108002707FB0181521E72433F
:1095500004FB0C11D31704F0BCFB0390DBF80000F4
:109560004FEAE97C427D048B521EA4FB090807FBED
:109570000981724304FB0C11D31704F0AAFB02907B
:109580000398002800DA00200390DBF80010C98A55
:10959000814200DA084603900298002800DA002091
:1095A0000290DBF80010098B814200DA0846029035
:1095B000AE60A5F804A0DBF8000090F88000C006BB
:1095C00004D5002202A903A801F036F902A903A8D4
:1095D000F9F70DFB03986880029828800BB001E032
:1095E00002E008E0BDE8F08F4843B7492144425CFF
:1095F00042F080027EE742F040027BE72DE9F74F20
:10960000B24882B04C78006801900E464FF00008D6
:1096100091F8039025E00298357800EBC400D0E97A
:1096200000A08346601C0090B77817E02A4601200E
:10963000002104F03BFB00EA0A0001EA0B010843A9
:109640000BD00498416A0198027D009800FB0250FB
:1096500001EB4000B0F9001088446D1CAF42E5DA20
:10966000641CA145D7DA0499C1F80C8001E62DE904
:10967000F0410746107D954D14460E46022807D14D
:109680002968E08891F86610884201D90320207586
:109690000422314604F11000F9F7E4F9224631467C
:1096A0003846FFF7ABFF012231463846FFF76BFB28
:1096B000286890F8B00180070BD5207D022801D0E2
:1096C000012806D131463846E26802F09DF90128AA
:1096D00013D0286890F88C07C00604D5224631467E
:1096E0003846FFF7D7FB224631463846FFF797FE4C
:1096F0002046BDE8F04103F025BABDE8F08130B561
:10970000C5B01C4615466B46FFF707FB22462946A7
:109710006846FFF7ACFF45B030BD2DE9FF4F8646E8
:109720008B4600204FF6FF755378D7782BE000BFAB
:1097300003EB830101EBC3040EEB840101F1340957
:10974000624914789678D1F800A018E009EB04017A
:1097500091F801C0DC4510D10E999AF81480D1F827
:1097600028C0591C01FB08410CEB410109888842C3
:1097700000D208468D4200D90D46641C24B2A64290
:10978000E4DA5B1C1BB29F42D2DA039908800D9980
:109790000D8004B023E72DE9F04F9B4682465378B5
:1097A000DDF824E02EE000BF494D03EB830000EB21
:1097B000C300AD680AEB800405EB80053434343512
:1097C0001078424F4FF0010917E0261876788E4244
:1097D00011D13E68DEF828C096F814805E1C06FBA6
:1097E00008060CEB4606B6F900605E4503DD05EBA6
:1097F000000C8CF80190401C00B296788642E4DAA6
:109800005B1C1BB2D0789842CEDAE8E62DE9F0472F
:109810002E4F8146C8B038681D46884690F8706063
:1098200047A8CDE90005144646AB4846FFF775FF4B
:10983000287D10B9386890F8CE61BDF81811BDF8D0
:109840001C016422091A7143B1FBF2F1204F0E187A
:109850004FF4DD61B86804F0ADFAB3B22246414678
:1098600048460095FFF797FF2068029002AB2FAAA9
:109870000121B868FFF757F9064601281DD90124D0
:109880000DF1BC0A0DF10809B84611E03AF81400D0
:10989000E88009EB84072946384601F071F82B4629
:1098A0003A462146D8F80800FFF729FF641CE4B2C5
:1098B000B442EBD948B0BDE8F0872B46224641467A
:1098C0004846FFF71CFFF5E7E48F01202009100050
:1098D000280B10002DE9F04FFF4D147892782D7869
:1098E000FE4EDDF82490012D376803D097F87150B3
:1098F0001CB103E097F8C950FAE7012497F81480E7
:109900009446A8F10107BA4202D1ACF10102D2B2E9
:1099100003EB830707EBC30C00EB8C07F0483437ED
:109920005B1C806808FB03F800EB8C0CD9F828005E
:109930000CF1340C00EB48034FE0381940788842B2
:1099400049D1DFF8A08333F91400B8F9008040450D
:1099500041DD03EB4409284439F902BC4FF0000A09
:10996000584503DAB9F90280404534DB012C10D0A8
:10997000D6F8008098F81480A8F10208A04512D10A
:1099800039F9048C404521DAB9F90280404522DBDF
:109990001CE0B3F90200B3F900802844404515DA11
:1099A000B3F90680F2E7584505DAB9F90480404575
:1099B00001DA4FF0010A39F9048C404503DAB9F9AC
:1099C0000280404507DBBAF1000F04D10CEB04081C
:1099D000012088F80100641CE4B29442ADD9FEE590
:1099E0002DE9FF4F97B05478D77800201390BA48EC
:1099F000DFF8E8B21E460178DBF8000015460129C1
:109A000006D0713090F8009090F801A014B108E0F1
:109A1000C930F7E70096DDE9170101240023FFF7BD
:109A200059FFDBF80000E978407D401E814208D1F3
:109A3000491ECFB2C3B20096DDE917012A46FFF7EF
:109A400049FFFFE004EB8400179900EBC40001EB31
:109A50008003A349621E3433896804F1020C01EBD0
:109A6000800034300790DBF80000B16A007D42438B
:109A700001EB4202089200FB04F201EB4202099260
:109A8000621C149200FB0CFC424301EB4C0E04F1EF
:109A9000030C00FB0CF001EB40000A9001EB4202CA
:109AA0002878C9E0191891F801C018998C457CD123
:109AB0008C4932F910C0B1F900108C4575DD0021D8
:109AC000DDF8248010910CEB090138F91080CDF8F5
:109AD0003480414507DA3EF91080414503DA4FF002
:109AE0000108CDF84080E8B3DBF80080CDF858805D
:109AF00098F81480CDF85480A8F10108804531D041
:109B000002EB4008CDF82C8038F9028CCDF8448067
:109B1000414509DADDF82C80B8F90280414503DAC5
:109B20004FF00108CDF84080DDF82480D44408EBE4
:109B30004008CDF8488038F9028CC44509DA0EEBAC
:109B40004008B8F90280C44503DA4FF00108CDF8A7
:109B50004080DDF84880B8F90280C44507DA0EEB92
:109B6000400800E052E038F9028CC44562DBDDF8C1
:109B700040C0BCF1000F5DD1DDF858C09CF815C0A5
:109B8000ACF1020CA4450DD0DDF834C0614509DA12
:109B9000DDF828C03CF910C0614503DA4FF0010C34
:109BA000CDF840C0012C0FD000E031E0DDF820C03E
:109BB0003CF910C0614507DA3EF910C0614503DA8F
:109BC0004FF0010CCDF840C0012822D0DDF854C080
:109BD000ACF1020C84450DD0DDF844C0614509DAD2
:109BE000DDF82CC0BCF904C0614503DA4FF0010C6C
:109BF000CDF840C0DDF82CC03CF904CC614505DA55
:109C0000DDF82CC0BCF902C0614513DB109959B1D5
:109C100010E0B2F902C00CEB0901B2F900C06145D5
:109C2000F4DAB2F906C0EFE707994FF0010C0144EE
:109C300081F801C0401CC0B2A9788142BFF432AFA4
:109C40001498C4B2BC427FF6FDAE13981BB0C6E4B4
:109C50002DE9FF4F224C0E460746C5B015464FF47E
:109C6000DD61A06804F0A6F82A4631463846489BD4
:109C7000FFF7B6FE29686E460091A8BB33462DAAB1
:109C80000021A068FEF74FFF0746012838D902F0EF
:109C9000ADFF0125DFF844800DF1B409AA4618E0B4
:109CA000D8F8001039F8150091F8751088420FD9CE
:109CB00084F800A04899C88006EB8500834648993F
:109CC00000F05EFEE9B25A46489BA068FFF717FD18
:109CD0006D1CBD42E4DD08E04609100020091000BB
:109CE000280B1000660B10000AE0D8F8000090F86E
:109CF0004004800702D4002002F07DFF49B06EE4EA
:109D0000321D0121489BA068FFF7F9FCF6E72DE919
:109D1000F04F8A46FC49002599468646D1F80060F6
:109D200028462B4609EB0301491E1FD4747D8C4243
:109D30001CDD377D01F1010107FB01F10EEB41084C
:109D400003EB430C4FF000010AEB4C0B02EB010458
:109D5000641E08D4A74206DD3BF911C038F914404F
:109D6000604404FB0C55491C0329EFDB5B1C032BEF
:109D7000D8DB00B9012095FBF0F030E42DE9FF4F6E
:109D800082B00C464178DDF83CB001B1491EDE4A94
:109D900001F0FF09C1781668737D5D1EA94201DAE2
:109DA000491C00E02946CDB2017801B1491E01F0FD
:109DB000FF0A8178307D431E994201DA481C00E099
:109DC000401EC6B2B4F9120009F10101019064E02D
:109DD000CD4B4A1C1868007D00FB02F748430599EB
:109DE0000BEB470E01EB400000900AF1010051E03F
:109DF000C54909680B7D059902FB030701EB470183
:109E0000049FB1F90210B94240DD0099B4F9008015
:109E100001EB40010027B1F900C00CFB0877B1F954
:109E200002C0B4F902800CFB0877B1F904C0B4F9A0
:109E3000048001EB43010CFB0877B1F900C0B4F9D1
:109E4000068001EB43030CFB0877B1F902C0B4F9BB
:109E500008800CFB0877B1F904C0B4F90A80B3F9A3
:109E600000100CFB0877B4F90CC001FB0C71B3F9BE
:109E70000270B4F90EC0B3F9043007FB0C11B4F949
:109E8000107003FB0711019B91FBF3F12EF81010EA
:109E9000401C00B2B042ABDB11B2A94298DB4F4686
:109EA00017E0017D781C41430BEB410800903B46D5
:109EB000524621460598FFF72AFF28F81A003B462C
:109EC000324621460598FFF722FF28F81600009831
:109ED00007B28D48AF420068E3DD007D691C414355
:109EE0000BEB4101009109F1010148430BEB4008E4
:109EF000574612E04B463A4621460598FFF707FFC2
:109F000028F817002B463A4621460598FFF7FFFE32
:109F1000009921F817007F1C3FB2B742EADD06B076
:109F200073E4F8B579491046069A09781D46022966
:109F300014D2774C74492E7D236809687EB191F85C
:109F40004060B6060AD5012A08D10093B1F958201D
:109F5000704B7149FFF712FF2068A862F8BD91F8B5
:109F6000C061B706FAD5760609D50093B1F9C421C8
:109F7000684B6A49FFF702FF20686862F8BD012A52
:109F8000FCD10093B1F9C421E2E730B41C7D2CB1BF
:109F90005D4C246894F86040E50701D030BC35E49E
:109FA000A40701D530BC53E630BCFFF7A8BB2DE9B0
:109FB000F74F55484FF0000A5546006890F8148056
:109FC00090F8159025E000BF05EB850000EBC5017A
:109FD0000098544600EB810000F1340B15E0029824
:109FE000224600EBC5000021D0E90067012003F004
:109FF0005DFE06400F403E4305D00BEB0400417868
:10A0000009B901994170641CE4B24445E7D36D1C61
:10A01000EDB24D45D8D3BDE8FE8F3C4A10B512785D
:10A0200001243AB9384A126892F86020120718D50C
:10A03000012916D181780278891A01D5C1F1000170
:10A0400001F10101CAB2C1784078081A00D5404236
:10A05000401CC1B21046F8F7BCF9C0B2012800D1CB
:10A060000024204610BD2DE9F04F8A46264983463C
:10A070009E464FF001095078D6780C6827E000BF63
:10A0800000EB800101EBC0030BEB83033433117849
:10A09000957818E05F1897F801C0D44511D194F86D
:10A0A0001480471C07FB0817DEF824C00CEB470799
:10A0B000B4F8D2C1B7F90070BC4502DA4FF000091C
:10A0C00003E0491C09B28D42E4DA401C00B286422A
:10A0D000D6DA484683E430B50B4C114A2468B2F90D
:10A0E0000030104A34F9A85FB2F90020B4F90240F8
:10A0F00029B90D49B1F900300C49B1F90020A0424D
:10A1000016DD104630BD0000200910004409100083
:10A110004C091000A4A2012086E1000072E10000B9
:10A12000660B1000680B1000600B1000620B100033
:10A13000A84201DA1846E5E7201AD11A4843611B04
:10A1400090FBF1F0101A00B2DCE72DE9FF4F107818
:10A15000E3B01E46154600B1401EC0B26090AA781A
:10A16000FE490B68187D841EA24201DD401E00E0FE
:10A17000501CC7B2687800B1401EC0B200908B4638
:10A18000597DE8788A1E904201DD481E00E0401C9F
:10A1900000F0FF094FF0000A18210EA8CDF868A1C1
:10A1A00003F02AFED046DDE96301444616AB2A4699
:10A1B000CDF87481FEF7B1FD287840B96878D0B148
:10A1C000DBF80000E978407D401E814213D0DBF8C7
:10A1D0000020AB78107D8646401E834204D195F85E
:10A1E00001C0BCF1000F06D083420CD1507DEB784A
:10A1F000401E834207D1DBF80000B0F8AA00801CA3
:10A20000A6F81F0075E0009814E0431C0EFB03F154
:10A21000756A03B205EB410C609908E03CF91150F6
:10A22000454503DD0CB25D94A8461C46491CB94265
:10A23000F4DD401C4845E8DDA01E02ABA51C2CE067
:10A24000517D814228DD002826DB117D441C6143BD
:10A25000776A002407EB410723F81A405D995D9C5B
:10A26000891EA41C0EE000BF92F814C08C4508DDC6
:10A27000002906DB33F81AC037F81180C44423F8EC
:10A280001AC0491CA142EFDD33F81A405A990AF16D
:10A29000010A214409B25A91401CA842D0DD04238E
:10A2A00000220EA902A8F8F711F9DDE91201DDE993
:10A2B0000E2303F00EFD4FF47A7148435A9990FB38
:10A2C000F1F0404204B2A6F81F4001212046FFF7FA
:10A2D00002FFDBF8001091F8F017090606D5649923
:10A2E000022903D89E4A114401F8014CB18B8142E6
:10A2F00002DD012067B040E50020FBE72DE9F047D3
:10A300009A46804600205378DDF8209025E000BF73
:10A3100003EB830404EBC30408EB84068F4C343650
:10A32000D9F8247024685D1C247D6C4307EB440C31
:10A3300014780EE037197F788F4208D13CF91470F9
:10A34000874204DDAAF802403846AAF80030641CAF
:10A35000E4B29778A742EDD2EBB2D4789C42D7D240
:10A36000BDE8F0872DE9FF4F83B01878109C934625
:10A370001E46A070987820705878E070D878607089
:10A380004FF000085F784EE007EB8700039900EB81
:10A39000C70001EB800101F1340A049901EB800050
:10A3A00000F134091298426A6C480068017D781CFB
:10A3B0004143019002EB4100009035782EE000BF50
:10A3C0000AEB05004178594522D1009830F9151063
:10A3D000119881421CDD08F101001FFA80F82178F4
:10A3E0002846F7F7F6FF207061783846F7F7F1FF57
:10A3F0006070A1782846F7F7F0FFA070E178384642
:10A40000F7F7EBFF09EB0501E07081F801B003E01D
:10A4100009EB0500002141706D1C2DB2B078A842F7
:10A42000CEDA019807B2F078B842ADDA0FFA88F0C8
:10A4300007B0A2E449490278096822B10A7D83780D
:10A44000521E934208D1427822B1C278487D401E04
:10A45000824201D1012070470020704730B5054687
:10A46000C5B03E4800238DF8103102680C46107DBF
:10A47000401E8DF812018DF81131507D6B46401E43
:10A480008DF8130144AA2846FEF747FC002244A990
:10A490006846FEF778FC6A4621462846FFF787FDA6
:10A4A00045B02FE62DE9F04F2E482F4C2B4D00687C
:10A4B000DFB000F5DD61C4E9010129684FF0000A51
:10A4C000D04691F86010D146CA0701D1890701D55D
:10A4D0004FF0010A00210E910EAB3BAA0121FEF7BD
:10A4E00022FB2B68074693F8F007000601D51C48AD
:10A4F00007731A7D0120A34616E000EB80040121BA
:10A5000004EBC006DFF864E00AE000BFDBF80440BB
:10A5100001EB860C14F80C400EF80240521C491C4A
:10A520001C7D8C42F2DA401C597D8142E5DA01241F
:10A5300026E10F480C900D90E1B23BA88DF82A104F
:10A5400030F81400ADF8120003A800900EA800EB3C
:10A55000840252925CABDBF804000BE0200910008F
:10A560006E3B100048091000280B1000E48F0120FA
:10A57000A4A20120FFF7C2FE0646ADF82800002085
:10A58000ADF82B008BF80000BDF9720158B1BDF990
:10A59000701141B12A68137D5B1E984203D0507D33
:10A5A000401E814201D1012000E00020589028681F
:10A5B00090F8A010C90756D07F4990F8A7200988C5
:10A5C0008A427E49097801D211B14CE002294AD26F
:10A5D00001218DF8201090F8A4105991774909783D
:10A5E000012905D190F8BC205999114489B259919B
:10A5F000589901293ED090F8A50071495A9003A8B6
:10A60000B1F9002055A90091CDE90120529BDBE969
:10A610000101E2B2FFF7A6FE6A4980B2ADF812006E
:10A6200008552A6892F8F017090604D5664901EB27
:10A63000440188824E815999884214D95A99884296
:10A6400011D85F48B0F9000086420CDD92F8A000F6
:10A65000800712D5E1B203AB55AADBF80800FFF77B
:10A6600074FD012809D058995298FFF7D6FC0128AB
:10A6700013D084E090F8A600BFE70220ADF82200D6
:10A68000ADF8240000208DF821004FF00108E1B260
:10A6900003AB55AADBF808006FE04C48B0F90000A6
:10A6A00086426CDD3BA931F8141053914849B1F949
:10A6B0000010814213DA55AACDE9002003A90291C6
:10A6C000DBF80410E2B2529B0846FFF74BFE3BA9B1
:10A6D00021F814005299559A0A60ADF812002868C2
:10A6E00090F865603548007848B15298FFF7A2FEAF
:10A6F000012828683AD090F8BD00304486B23BA8C3
:10A7000030F81400B0423AD903A800904FF0010885
:10A71000C146E3B25E46529A0C98DBF8041000F092
:10A720004BF93BA830F81410286890F86720914244
:10A7300031D202218DF82010BDF82620B0F86E002D
:10A740005146824200D200215398032811D381B18F
:10A750000091E1B203AB529A7068FFF7E2FBE1B2FD
:10A7600003AB529A7068FFF710FC08E090F876008F
:10A77000C3E7E1B203AB529A7068FEF7C0FF641CF6
:10A78000BC427FF6D6AE134981F80080124981F8A9
:10A7900000905FB09EE404208DF82000E9E70F48A8
:10A7A000006890F8F007000604D50D4800210173F9
:10A7B0000170417070470000360B10004409100012
:10A7C000680B1000E48F0120A4A20120660B10008A
:10A7D0005E0B10003D0910003E091000200910001A
:10A7E0006E3B1000F0B50024491E05680BE000BF69
:10A7F00032F91470AF4205DC02EB4406B6F9027080
:10A80000AF4202DA641C8C42F2DB8C4213D032F984
:10A81000146003EB440133F91430B1F9021002EB78
:10A820004402AD1BC91AB2F902206943921B91FB85
:10A83000F2F119440160F0BDF0B51300184A0F465B
:10A840004FF0000112680C468C4602D0022B07D054
:10A8500010E092F8711492F8704402F2724205E02E
:10A8600092F8711592F8704502F2725294460A19E4
:10A870003E2A13DC0CEB410303EB410505EB4406D8
:10A88000012902DD6246FFF7ADFF012C06DD3346EC
:10A890002A4621463846BDE8F040A3E7F0BD000057
:10A8A000200910004FF47A72504390FBF1F17E487A
:10A8B00010B5814201DAC01110BD42F6A6408142B6
:10A8C00001DD5A2010BD794A002000BF32F9103056
:10A8D0008B4205DC02EB4003B3F902308B4202DA13
:10A8E000401C4528F2D332F9104000EB800302EB04
:10A8F0004000091BB0F90200553B001B01EB810130
:10A9000091FBF0F0184410BD30B50D460446FFF73A
:10A91000C9FF00EBD0704010002D02D00DDD34B126
:10A9200030BD002C03D005DD4FF02D0030BD4FF0C1
:10A93000000030BD4FF05A0030BD002C03D005DDC3
:10A9400000F15A0030BD6FF0590030BDA0F15A003F
:10A9500030BD10B58C1A00D56442002800DA4042A0
:10A9600004EB400011440A18081A521040104FF42A
:10A970007A71484390FBF2F0C0F57A70588310BDAD
:10A9800030B582780378CD88D21AC3784078521CCB
:10A990001B1A5B1C05FB02F0D4185D4340006A00E3
:10A9A000B0FBF4F0B2FBF4F2904202D9C8820A8301
:10A9B00030BDCA82088330BD2DE9FF4F1646002204
:10A9C00084B010461546964693469246747896F89B
:10A9D000039038E004EB840101EBC403059901EB1B
:10A9E0008301343103913378029396F802C027E053
:10A9F000039919444F7807998F4220D12C49671C3D
:10AA00000968097D07FB0137049901EB4701A9EBB0
:10AA10000407B1F902107F1CCDE9001702995F1AF3
:10AA200000997F1C0A44794301FB07BB019F08443E
:10AA300001FB07EE0099794301FB07AA0D445B1C5B
:10AA40009C45D5DA641CA145C4DA4FF47A714143C0
:10AA50004FF47A7391FBF2F16B4393FBF2F301FB3A
:10AA600005F44FF47A7294FBF2F7414391FBF2F153
:10AA7000AEEB0704ABEB01076B4393FBF2F1AAEBE0
:10AA800001056000791BFFF73FFF11992A464875C1
:10AA900039462046119BFFF75CFF119908B03046FC
:10AAA000BDE8F04F6CE700005AD3FFFF2CE1000037
:10AAB00020091000FF4910B50020FF4A087001214D
:10AAC0001170FE490870FE490870FE490870FE4981
:10AAD0000870FE49087048608860FD490968B1F84F
:10AAE0006220FC4BFC4C1A80B1F8A1302380FB4C57
:10AAF000B1F8C6112180FA4C2280FA4A1380FA4A32
:10AB00001180FA49088010BD2DE9FF4F81B0F04A4D
:10AB10004FF00109CDF8009012689B464D4692F81F
:10AB200015C0137D0CF1010C63E000BF4FF0000A6B
:10AB300047F6F8725442D646564619E005FB0367BD
:10AB400030F8178031F81770A7EB08073FB2BA4208
:10AB500000DD3A46BC4200DA3C46002F02DA4FF0F4
:10AB6000000903E002DD4FF00007009706F101063F
:10AB70009E42E3DB009F59EA070608D0B9F1010FB6
:10AB800003D0B9F1000F04D006E0012F04D1002258
:10AB900002E0012F00D12246002412E005FB03460B
:10ABA00030F8167031F816601744F61B36B25E4561
:10ABB00006DACBF10007BE4202DDB2440EF1010E0F
:10ABC000641C9C42EADBBEF1000F01DD9AFBFEFA39
:10ABD0000AEB0204002209E005FB0326DDF80C80E5
:10ABE00030F81670521C274428F816709A42F3DB8E
:10ABF0006D1C65459ADB05B0BDE8F08FF0B4C2F17D
:10AC0000100422B1012B02D00023B14F0EE0F0BCA2
:10AC1000F7F754BF31F9135030F91360554306FB71
:10AC2000045545F30F1521F813505B1C3E68757DE4
:10AC3000367D6D1C75439D42ECDCF0BC7047F0B571
:10AC4000A34D002784462D6801203C466E7D2D7D56
:10AC500006F1010606FB05F60CE000BF3CF91450B6
:10AC600031F914E0B5EB0E0500D56D429D4200DDD3
:10AC70007F1C641CA642F1DC974200DD0020F0BD81
:10AC8000F0B5934A00273E4615686B7D2A7D5B1C14
:10AC9000534310E031F912C0B5F8F6420CEB040E44
:10ACA00030F91240A64505DAB4EB0C0400D5644235
:10ACB0002744761C521C9342ECDC84485FB195F823
:10ACC0003610B14207D2816809B10120F0BD0121DF
:10ACD00081600020F0BD0021FAE72DE9F0477C4CAF
:10ACE0008146002620680125174690F820008846F6
:10ACF000000720D57F487E4A01684846F7F7EFFDF8
:10AD00007D497B480A680368D0F804C0D21A4B68B2
:10AD1000A3EB0C031A448B68D0F808C0C968C0685C
:10AD2000A3EB0C03081A21681A441044B1F87810F8
:10AD3000814200DA0025206890F8200080070ED5B7
:10AD40006E48007858B96E48007840B95948007884
:10AD500028B941464846FFF793FF00B100255B48FC
:10AD60000021027892B139704268521C4260236817
:10AD700093F837301B0903EB8303B2EB430F02DD7B
:10AD80004160017001263046BDE8F08715B1416091
:10AD90003D70F8E74268531C4360236893F83730EE
:10ADA00003F00F0404EB8404B2EB440FF0DD012246
:10ADB000027041601A09EBD101700126E8E770B515
:10ADC000434B1B685C7D1B7D641C5C43002307E0D8
:10ADD00032F8135030F81360AD1B21F813505B1C90
:10ADE000A342F5DB70BD2DE9F05F3948434C0168A3
:10ADF0002478B1F9A120B1F96200B1F9C631012C72
:10AE00002FD0022C06D3B1F8BE200AB1B1F9BE0092
:10AE100002461346DFF8C0E02E4C0546AEF800208F
:10AE200020802E4CDFF8B8B0DFF8BCA0238091F86A
:10AE3000646091F8C371801B1C4606B291F8A300B0
:10AE4000DB1B0FFA83FC101A264B00B281461880D8
:10AE50002C48ABF80060AAF800C0007801280DD09B
:10AE600067E091F8BA40224491F8BB4012B2204406
:10AE700091F8DA4100B223441BB2CBE791F8CC0041
:10AE8000642700FB05F8B8FBF7F84544DFF8448079
:10AE9000A8F8005000FB02F8B8FBF7F800FB04F537
:10AEA000B5FBF7F54244AEF800200C4A2C44148060
:10AEB0002AE000003B091000360910003C09100090
:10AEC0003D0910003E09100083091000340B1000EA
:10AED00020091000600B1000620B1000640B1000C2
:10AEE000660B1000680B10006A0B10005E0B100060
:10AEF000D83A100050091000C83A10004409100058
:10AF0000430910004609100000FB06F400FB09F29B
:10AF1000B4FBF7F43444ABF80040B2FBF7F400FBA9
:10AF20000CF0B0FBF7F004EB09021A806044AAF8B9
:10AF3000000091F8A000C00706D1FA480288AEF8D8
:10AF40000020BBF80000188091F8C001C00702D0B3
:10AF5000F548006830B9F548BEF80010018019883E
:10AF6000AAF80010BAF90020BBF90010B3F90000EC
:10AF7000F7F737FAEE490880BDE8F09FED4A10B5C3
:10AF80001268537D127D5B1C534306E030F912407A
:10AF90008C4201DD012010BD521C9A42F6DB0020DC
:10AFA00010BD2DE9F0478046E3488946002400683B
:10AFB0004FF45D61054602F0FDFEDE4A1068037D38
:10AFC0000120064618E000BF00EB800101EBC00144
:10AFD00005EB8107012108E039F913C05B1CC4456A
:10AFE00002DD641C7E54A4B2491CD2F800C09CF857
:10AFF00014C08C45F0DA401C1168497D8142E3DAC7
:10B000002046C1E6F0B5CB4E33685D7D1B7D6D1CDF
:10B010005D430024274608E030F913C0944502DA66
:10B0200021F8137000E0641C5B1CAB42F4DB306859
:10B03000B0F89A00A04201DD0020F0BD0120F0BD73
:10B04000F0B50025BB4C26E000220123767D0EE002
:10B0500003FB075C30F91CC0BCF1000F04DD0AB132
:10B06000944503DA624601E00022731C5B1C9E4299
:10B07000EEDA002A0EDD012308E0367D03FB0656DA
:10B0800030F81670BF1A21F816705B1C2668777DA1
:10B090009F42F2DA6D1C2668377DAF42D4DCF0BDEA
:10B0A0002DE9F043A34B81461868467D057D761C4B
:10B0B000002028E01A6892F85C20642A06D9643AD5
:10B0C00002FB00F494FBF5F4141B04E0C2F16402EB
:10B0D000424392FBF5F4643401224FF064080FE020
:10B0E0001F683F7D02FB070739F917C0BCF1000F4D
:10B0F00005DD0CFB04FC9CFBF8FC21F817C0521C7E
:10B10000B242EDDB401CA842D4DBBDE8F0832DE960
:10B11000F047884B81468A461868447D057D641C4B
:10B1200001202EE01E6896F85D10642907D9643965
:10B13000421E777D4A4392FBF7F28A1A06E0C1F17C
:10B140006401421E5143727D91FBF2F2317D643203
:10B15000414309EB41060AEB410700214FF0640827
:10B160000CE000BF36F911C0BCF1000F05DD0CFB8F
:10B1700002FC9CFBF8FC27F811C0491CA942F1DB3A
:10B18000401CA042CEDBFFE57CB504466B49F7F7D7
:10B1900005FA6B492046F7F738FA0320F5F751FA1C
:10B1A000644C684E684D206890F85011090725D509
:10B1B000417DB0F9B131CDE90031644A64495F485D
:10B1C000F7F766FD2068634A017DB0F9B131CDE93A
:10B1D000003161495A48F7F75BFD287800902068F4
:10B1E00033785E49427D5948FBF7CCFF28780090C0
:10B1F000206833785A49027D56480EE0297800913C
:10B20000427D337855494D48FBF7BCFF28780090C4
:10B21000206833785249027D4948FBF7B3FF00208C
:10B2200028700420F5F70DFA2068494A4D49437DFE
:10B230004A48FCF758F82068474A4B49037D48487C
:10B24000FCF751F80420F5F717FABDE87C4003201D
:10B25000F5F712BA2DE9FE4F0546444800278B4604
:10B26000047807703E460320F5F7EBF9FFF7BBFDC6
:10B270003F4823463F4902682846FFF7BFFC234664
:10B2800002AA3D493B48FFF728FD05469DF8080006
:10B29000DFF8E880274C4FF48069E0B32068DFF8DE
:10B2A00084A090F8400080070FD52048BAF900101C
:10B2B000B0F900203248B0F90000F7F792F82D4AB3
:10B2C00003B22D491046FFF71FFC1B4D2A4A29489F
:10B2D0002968FFF774FD0320F5F7CEF9206890F890
:10B2E0004000400703D529680846FFF7A9FE2068FB
:10B2F00090F84000000703D529680846FFF707FFCC
:10B30000206890F84000C00603D529680846FFF77A
:10B31000C7FE206800E035E090F8B011C90752D1AF
:10B320004DE00000600B10009C010022640B100037
:10B330005E0B10002009100048091000AE1001201B
:10B34000EE10012073091000410B1000A8541000EA
:10B35000CC0C0120E85410000C0D0120CC18012069
:10B360000C19012028180120681801203609100046
:10B37000500B1000249601204200012024091000E7
:10B38000620B10000320F5F777F9012D16D1D8F8DC
:10B39000001041F00501C8F80010226892F8B031A1
:10B3A000DB0703D192F82024D20703D041F0220119
:10B3B000C8F8001049460120F5F758F8A9E090F8C0
:10B3C0002004C00707D05846FFF7DEFE206890F83B
:10B3D000B001C00708D1206890F8B011890703D4E4
:10B3E00090F84004800703D55C492868F7F766FBAE
:10B3F00020682968B0F9B321584600F04AFA584845
:10B40000007801280DD0206890F8601049073ED5DB
:10B410002968B0F968200846FFF7F4FD01281BD021
:10B4200035E050492868F7F749FB20684E4B427DCC
:10B43000B0F9B5114D4800F0BCF8054620684C4BFA
:10B44000027DB0F9B5114B4800F0B3F8012D60D181
:10B4500001285ED103275CE0216891F86000800636
:10B4600015D5D8F8002042F00502C8F8002091F860
:10B47000B031DB0703D191F82014C90703D042F0A3
:10B480002201C8F8001049460120F4F7EFFF3A48BE
:10B490000078022815D033492868F7F70FFB374D9D
:10B4A0003048B5F90010FFF769FDDFF8D4C0DFF8C8
:10B4B000D480DFF8D4909CF80010E9B101283BD08B
:10B4C0001CE0206890F840104906E8D58DF804602B
:10B4D0008DF80560017D491E8DF80610417D491EDD
:10B4E0008DF807101F490091B0F95A20274901A88B
:10B4F0002B68FEF743FCD2E701280DD024488CF8D6
:10B5000000602449067088F80060087808B1401E81
:10B5100008703846BDE8FE8FBAF900101148FFF7F1
:10B520002DFD8CF80000A9F80060206890F8290132
:10B53000000701D5FCF7CBFC012788F8007009490A
:10B54000B5F90000FFF72DFD13494880B9F8002038
:10B550008242DED2A9F80000DBE70000B01F012024
:10B5600043091000A4A20120680910002818012036
:10B570006009100068180120440910005E0B1000DB
:10B580003D0910003C0910003409100072E1000070
:10B590003E09100039091000340B1000FE4801214B
:10B5A000FE4A41700021117005228280C2808170A4
:10B5B00070472DE9FF5F00251D608B469946924636
:10B5C0002846A8462C465D6018E0009931F9141011
:10B5D000B1EB0B020CD4D9E900672246012000210F
:10B5E00002F064FB06430F430120C9E9006704E051
:10B5F00011EB0B0101D54FF00108641C5445E4DB4D
:10B60000B8F1010F07D1E649096891F8B01149076F
:10B6100001D5022502E0012800D1012504B0284609
:10B62000BDE8F09FDE4A10B51268537D127D5B1CA9
:10B63000534306E030F912408C4201DA012010BD7C
:10B64000521C9A42F6DB002010BD70B50420F4F7BE
:10B65000F8FFD34DD34B2868427DB0F9B111D248E1
:10B66000FFF7A7FF04462868D04B027DB0F9B1115F
:10B67000CF48FFF79EFF012C07D0012805D00024FA
:10B680000420F4F7F9FF204670BD0124F8E730B537
:10B690000446B0F900300020012206E034F91250CF
:10B6A0009D4201DD2B461046521C8A42F6DB30BD1E
:10B6B0002DE9F0478946BA4E1D4630F9121002F1C5
:10B6C000010301FB03F437684FF00103D61A09D4D4
:10B6D00030F916C0B7F85E81C44503DB761C0CFB5D
:10B6E00006446144D6184E4509DA30F916C0B7F859
:10B6F0005E81C44503DB761C0CFB064461445B1C85
:10B70000062BE3DDA9F1010001FB00F2601A80FBCA
:10B710000501D31702F0DDFA002800DA0020691EC7
:10B72000884200DD084600B2BDE8F0872DE9FC4103
:10B730009B4C0746884620681546017D4046FFF72A
:10B74000A6FF84462068417D3846FFF7A0FF0646E5
:10B7500020686246C38A017D4046FFF7A9FF00903A
:10B7600020683246038B417D3846FFF7A1FF0190E8
:10B7700001A96846F7F73BFA00986880019828808D
:10B78000BDE8FC8100B58BB002228DF814200522A3
:10B79000ADF8062041F6583202920722ADF8042097
:10B7A0006A46FFF7C3FF684601F0CCF90BB000BD55
:10B7B0002DE9F34F7D4881B0D0E900317948D0E9D7
:10B7C0000040221940EB00050543680822434FEA78
:10B7D000320440EA0500DD1844EA020441EB0102AC
:10B7E0000A4351081D434FEA350341EA0201221979
:10B7F00043EA050340EB00050543680822434FEA8E
:10B80000320440EA050AD81844EA020B41EB01026F
:10B8100018430A4351084FEA300343EA00086048DE
:10B8200041EA02094FF001040068477D067D07F1F7
:10B8300001072AE0621E0120002102F037FA00EA27
:10B840000B0001EA0A0108431ED1019904FB06F02E
:10B8500001EB40000025009014E02A460120002161
:10B8600002F024FA00EA080001EA0901084308D1BD
:10B87000009830F915100298814202DD0120BDE8E0
:10B88000FE8F6D1CB542E8D3641CBC42D2D30020AD
:10B89000F5E72DE9F74FDFF808A100263E4CDAF86E
:10B8A00000003E4D82B090F8B0113746C907B3464C
:10B8B00002D04049097869B185F800B090F8B71115
:10B8C000E18090F8B801A080A078012863D000281A
:10B8D00072D094E0DDE90301FFF750FB8046049845
:10B8E000404201B20398FFF79DFE0090FFF7ADFEC6
:10B8F0008146B8F1010F03D1B9F1000F00D1012643
:10B90000009958EA010000D10127DAF8000090F808
:10B91000B001800705D5DDE90301FFF749FF0128E4
:10B9200004D0012E03D0012F12D021E00126B4F95A
:10B930000600002806DB401E00B2E080002801DC83
:10B9400001202870DAF8000090F8B801A0800FE01C
:10B95000B4F90400002806DB401E00B2A0800028D5
:10B9600001DC85F800B0DAF8000090F8B701E0805B
:10B9700084F800B0B8F1010F01D1012020700098C7
:10B98000012803D1207840F002002070B9F1010FA6
:10B9900016D1207811E028E0400B10004309100078
:10B9A0002009100068091000281801206009100003
:10B9B00068180120440910001BE040F004002070CA
:10B9C000012E03D1207840F008002070012F03D110
:10B9D000207840F010002070287801287FF474AFA0
:10B9E000207840F0800020706EE7287838B9082071
:10B9F00003E02878012802D10720FCF7FDFB287816
:10BA0000A07005B0BDE8F08F2DE9F74F84B000209D
:10BA10000646009028480F46D0F8008098F8B001FC
:10BA2000800745D525480078F0BB7D7897F803A0BE
:10BA300026E00498691C00EBC500D0E900B0029034
:10BA400098F8140048431E4901EB400001903C78EF
:10BA500097F8029011E022460120002102F026F919
:10BA6000029A00EA0B001140084305D0019830F912
:10BA70001400002800DA0644641CA145EBDA6D1CB2
:10BA8000AA45D6DA0EB94FF0FF360698642148432E
:10BA9000714290FBF1F0B8F8BC11814208DDB8F8B2
:10BAA000BA110698814200E002E001DD0120009019
:10BAB000009807B0A6E70000200910004409100014
:10BAC000B01F0120F948FA4A006830F8FA1F1180C7
:10BAD000F849C079C8807047F6480021F34A418090
:10BAE0008180C160126892F843201209826001616E
:10BAF0000170F148017070472DE9F041EB4DEC4ABF
:10BB00002E6896F8D010B6F8FA30C90744D096F8E7
:10BB1000FF4004B90124118896F8FEC0CF1A07FB34
:10BB20000CF797FBF4F4B6F8FC700F442744E14C93
:10BB3000B84211DD002610210120E660F4F796FCE2
:10BB4000286890F86010490602D5DC4A012111707E
:10BB5000A68090F8010106E0814202D9D64D2D78E9
:10BB600025B196F80101E080BDE8F081D44D2D7833
:10BB7000002DF9D1B4F90650002D01DD6D1EE580D0
:10BB8000E488002CF0D1891E814200DA01468B4204
:10BB900000DD19461180E7E71380E5E7F0B5C349FA
:10BBA000C44D096891F84020D20753D0C24A177893
:10BBB000C44A1278AFB1012A09D091F84330B1F8E4
:10BBC0004A6003F00F021C09B1F8483015E091F803
:10BBD0004D30B1F8546003F00F021C09B1F8523037
:10BBE0000BE0012A1AD011F8423F03F00F024FEA8E
:10BBF00013144B888E88A1F1420191F820C15FEAAD
:10BC0000CC7C16D0DFF8C0C2BCF800C05FEA4C5C48
:10BC10000FD591F8251157B10A090AE011F84C3FE8
:10BC200003F00F021C094B888E884C39E5E701F0C0
:10BC30000F02984201DCAA60F0BDB04201DBAC60AB
:10BC4000F0BDC01AA11A4843F11A90FBF1F010445C
:10BC5000A860F0BD0020FBE7944A10B512680021EF
:10BC6000B2F8B830834205D292F8B0301B0701D544
:10BC7000032112E0B2F8B630834205D292F8B03018
:10BC80005B0701D5022108E0B2F8B430834204D248
:10BC900092F8B000800700D501218648864C0378D1
:10BCA000994211D1217899420AD0854A12781343DA
:10BCB00007D00169491E0161002901DC007820706C
:10BCC00010BD01700169F7E759B1022901D1012BBB
:10BCD00007D092F8B22002610170002AF0DC2170D6
:10BCE00010BD92F8B320F6E77049096891F8B010DA
:10BCF000CA0670490DD58A88831A002B09DC704B5F
:10BD00001B784BB1C2EB0212520002EB4000C0F3B1
:10BD10004F10888080B27047C2EB82121044C0F38B
:10BD20008F10F6E72DE9F043604E0546B5B0376851
:10BD3000C82197F8B10000F00F04641C02A802F0BB
:10BD40005BF897F85F04C00714D0002710E0316853
:10BD5000087DB1F96234CDE9003000FB07F2B1F99A
:10BD6000603405EB420002462946F6F791FF7F1C3E
:10BD7000A742ECDB30680023814602A9007D10E079
:10BD800000FB03F6002209E006EB020C51F82270DA
:10BD900035F91CC0674441F82270521C9042F3DC14
:10BDA0005B1CA342ECDB002207E000BF51F822300D
:10BDB00093FBF4F341F82230521C9042F6DC00224F
:10BDC00013462AE000273E460DE000BF06FB003C7C
:10BDD00051F8238035F91CC0BCEB080C01D5CCF11F
:10BDE000000C6744761CA642F0DB97FBF4F699F84A
:10BDF0002071FF070DD0344F3F887F0509D599F892
:10BE000024714FEA171C0CFB06FC07F00F069CFB85
:10BE1000F6F6964200DD32465B1C9842D2DCB2F563
:10BE2000803F04DB4FF6FF7035B0BDE8F08390B281
:10BE3000FAE710B5FFF776FFFFF756FF1D4C4FF0FE
:10BE40000051020A60804A738873FFF705FF60881B
:10BE5000FFF7A4FE6088BDE810404DE6F0B4134A39
:10BE6000116891F8B130097D03F00F04114B641C87
:10BE7000DD6895FBF4F604FB16556943134D05EB9D
:10BE80004105002105E000BF30F8116025F8116080
:10BE9000491C1668367D8E42F6DCD868401CD86096
:10BEA000A04215DBF0BC0948C3E7000020091000E0
:10BEB000643B1000480B1000440910008309100077
:10BEC0003D0910003F0910005409100070190120AD
:10BED000F0BC704701B56846FEF7E4FA00F010FECA
:10BEE00008BD10B5FEF75BFCBDE8104000F0F8BDE2
:10BEF00010B5FEF7DFFDFCF7E1FD00F0D9FDFFF71F
:10BF00004DFBBDE81040FFF7E7BD734910B50020B9
:10BF10004860FFF7EDFF7148006890F8E8010028DD
:10BF200003D0BDE81040FCF7DBBA10BD10B500240B
:10BF3000FFF790F9012803D0032804D0C0B10EE028
:10BF4000FFF7C8FF0BE00420F4F77BFB644965486A
:10BF5000FFF718FC0420F4F78FFB00F0D1FD6248D6
:10BF60000124007810B1614901200870204610BDFD
:10BF7000FFF7B7FFFAE72DE9F0415D4F5D48002478
:10BF80003D6805424CD0554E306890F82901800735
:10BF900003D559485949008808804F4840680540F2
:10BFA0000620F4F74EFBA80703D55548FCF7C0FB65
:10BFB0000446E80729D0534D0020297801290AD1E9
:10BFC000316891F86010490605D54F494F4A4988B4
:10BFD0001288914200D12870306890F8B000C007F4
:10BFE00004D0287810B94A48FFF738FF494800784C
:10BFF00020B1012809D14848007830B9287820B903
:10C0000046494348FFF792FF04433868002802DAA4
:10C010002046FCF71FFDBDE8F0410620F4F72CBBDD
:10C02000BDE8F08110B53E482B4900684C6844409B
:10C0300009D04860A00701D5FCF752FAE00702D00A
:10C04000BDE8104054E710BD234C08B5002525700D
:10C05000FFF738FD207820B30128FBD16B46002282
:10C0600085210320F4F751FA0098C00706D001217A
:10C070000320F4F729FA2570FFF747FF00984007DF
:10C0800005D504210320F4F71FFAFFF774FF009889
:10C090000006DFD580210320F4F716FAFFF7C2FF70
:10C0A000D8E703210020F6F767FB6B460022022148
:10C0B0000320F4F72AFA03210120F6F75DFB00982C
:10C0C0008007C7D5FFF721FF87210320F4F7FCF98C
:10C0D00001202070BEE700006C0B1000200910004A
:10C0E00068180120281801203B091000720910006F
:10C0F0005409100003000080760910007809100030
:10C10000A410012083091000643B10008409100072
:10C11000A81110003709100038091000E48D012023
:10C120008C0B1000BD48002101704160704710B5B4
:10C13000027F817F531A9B1C042B05D9437FC47F48
:10C140001B1B5B1C022B0FD9B54B1B7873B12AB19B
:10C15000B44A1268127D521E914207D1417FC07FBE
:10C16000081A401C022801D8012010BD002010BD73
:10C170002DE9F05F436805461804DFF8ACB2000C07
:10C1800013D000220A2710465FF0010606FA00F1DC
:10C190000B4217D000EBC00105EBC1010C3191F847
:10C1A0002040012C06D00A270FE000208BF8000069
:10C1B000BDE8F09FCC68098994FBF1F1914201DD63
:10C1C0000A460746401C0A28E0DBDFF85482DFF805
:10C1D0005492DFF848A24FF0000C00BF686806FADE
:10C1E0000CF108425ED00CEBCC0005EBC0040C3423
:10C1F00094F82000012802D0062838D052E002200E
:10C2000084F8200098F8000048B1D9F8000067458C
:10C2100090F8C00009D100BF00F00F0006E0D9F887
:10C220000000674590F88200F6D00009E0702046D3
:10C23000FFF77DFF012808D0617806FA01F0DAF8EF
:10C2400004108143CAF804102CE0D9F80000E1780A
:10C2500090F8830000F00F000844E0706178DAF88D
:10C26000042006FA01F01043CAF804001AE007207F
:10C2700084F8200098F800000028D9F800002FD09A
:10C2800090F8C10000F00F00E070D9F80000616A7A
:10C2900090F88500B1EB101F04DDE17800F00F008D
:10C2A0000844E0700CF1010CBCF10A0F96DB00278A
:10C2B000686806FA07F108425FD007EBC70005EB94
:10C2C000C0040C34B0466178D44606FA01F0DAF8BE
:10C2D000041008421CD02046FFF729FF18B117E0D0
:10C2E00090F88400CEE7D9F80000E17890F8830058
:10C2F00000F00F00081A002800DC0020E0706078D1
:10C3000008FA00F8DCF8040020EA0800CCF8040081
:10C31000E07878BB94F82000022802D0072830D0BB
:10C320002BE04248032184F820100078012815D121
:10C330008BF800102079022810D1DFF8F48098F8EB
:10C340000000012802D10C20FBF756FF39490520D7
:10C3500008703949002088F80000087037480078D4
:10C36000012805D19BF8001041F002018BF8001064
:10C37000E07810B1C0B2401EE0707F1C0A2F97DB3E
:10C3800016E7082084F820002848007828B99BF890
:10C39000001021F001018BF80010284800780028D7
:10C3A000EBD19BF8001021F002018BF80010E4E7BC
:10C3B000F0B500211B4B0125426805FA01F4224229
:10C3C0001FD001EBC10200EBC2020C3292F82040F8
:10C3D000022C16D1164ED4783678012E15D0184E70
:10C3E0003678012E1E6816D096F8CF7196F88260C6
:10C3F00006F00F06BE1BA41B24B2002C00DC002498
:10C40000D470491C0A29D7DBF0BD1E6896F8D0719C
:10C4100007F00F07EAE796F8D471E7E7740B10000E
:10C4200044091000200910003B0910003D091000CC
:10C430003F091000390910005C0B10003C09100086
:10C440003A0910007047FE490A68B2F82B11814280
:10C4500001D300207047B2F82D21824201D8FF207D
:10C460007047521A401AC0EB0020B0FBF2F0C0B285
:10C47000704738B5B2F90230B2F900205B4302FBD5
:10C4800002340A460146684600F008FE684600F09D
:10C49000FDFDA04201D9002038BD012038BDF0B516
:10C4A000E74C0022236893F887502B0701D12B0912
:10C4B0001DD0B0F93060B1F90230F31A00D55B42FB
:10C4C00005F00F07BB4200D90122B0F92E70B1F977
:10C4D0000030FB1A00D55B42B3EB151F01D942F0C7
:10C4E000020232B1012A09D0022A09D009E0002053
:10C4F000F0BDD0F82E0008600120F0BD0F8000E0F4
:10C500004E80D30715D0B1F90230B0F93050AB42AC
:10C5100007DD256895F8875005F00F05A3EB0503A7
:10C5200006E006DA256895F8875005F00F052B44DC
:10C530004B80920712D5B1F90020B0F92E309A4203
:10C5400005DD236893F88730A2EB131205E005DAC6
:10C55000236893F8873002EB13120A800968C0F849
:10C560002E10C4E72DE9F843B54E0D46044690F869
:10C570002010012730684FF0000903290DD0B4F9CD
:10C580003480002104F13A0C04F12E03B8F1000FBD
:10C590001EDD90F8982032B10AE090F88900A0865C
:10C5A000A4F8329068E090F89980B8F1000F0BD0B1
:10C5B000ADF8022090F89900ADF800006A46614697
:10C5C0001846FFF756FF0146A08E401EA08626E0C3
:10C5D000B4F93220002A0EDD90F8800040071ED505
:10C5E00029462046FFF75BFF0146012817D1608EE0
:10C5F000401E608613E090F8862022B990F897805C
:10C60000B8F1000F0BD0ADF8022090F89700ADF80C
:10C6100000006A4661461846FFF72BFF014694F872
:10C620002000052806D0042804D007282AD008288E
:10C6300028D029E041B1306890F8800080071FD5EC
:10C64000D4F82E0028601FE0608E78B9B5F902009A
:10C65000B4F93010084440106880B5F90000B4F90E
:10C660002E100844401028802868A062A4F8349056
:10C67000306890F8880060862868C4F82E0003E0CF
:10C68000002701E00129DBD03846BDE8F8832DE919
:10C69000F843044690F8200016460F46032824D09D
:10C6A00004F13E02111FDFF89C81654D05281ED064
:10C6B0002B6893F829315FEA836C01D4072816D0E0
:10C6C000082803D09B067CD507287AD1684600F05D
:10C6D000E5FC684600F0DAFC014698F80000002806
:10C6E00028687ED0B0F8C4007DE0086875E0684630
:10C6F00000F0D4FC684600F0C9FC844698F80000BD
:10C7000048B12B6813F8C20F00F00F015A880009D6
:10C7100052439B8812E04C480078012815D02079BC
:10C72000B8B10128286818D090F88A002B6800F06A
:10C730000F01000933F88C2F5B8852435B4394450B
:10C740001ADD9C450CDB084616E0286890F8B90114
:10C75000ECE7286890F8D101E8E790F8AC00E5E74D
:10C76000ACEB020CA0EB01010CFB01FCA3EB020102
:10C770009CFBF1F1A0EB01002968C0F1100291F8D7
:10C78000F01709060DD5237830491BB90B7960F3F2
:10C7900007130B712378012B03D14B7960F303034B
:10C7A0004B71A16A3B68414303FB02106FF0F0211B
:10C7B00001EA10103860286890F88B0000F00F0133
:10C7C00001E00DE00DE0A08D3288C1F11003484377
:10C7D00002FB0300000930803868A0623088A08521
:10C7E00053E7B0F88C0040438142F9DCA06A38601E
:10C7F000A08D308049E72DE9FC47DFF844800746EB
:10C8000000264FF0010900BF786809FA06F52842B2
:10C810007DD006EBC60007EBC0040C3494F8200072
:10C82000032817D0052815D0042813D0D8F80010F5
:10C8300091F829118906002901DA07280AD007E0B2
:10C840002009100044091000430910006E3B10003D
:10C8500008285CD1D4F83A100091A18AADF80410F0
:10C86000D8F8002092F829319B0604D5042802D17B
:10C87000D4F83E00009092F88000000704D501AA89
:10C8800069462046FFF703FFD8F8000090F88000C3
:10C89000C00706D001AA69462046FFF763FE0028BC
:10C8A00035D094F82000032808D1D8F8000090F87B
:10C8B0002901400702D5D4F8360000906E4801687F
:10C8C0002943016006EB460100EB810594F8200046
:10C8D0002D1D032855D0042859D0052857D0D8F845
:10C8E000001091F82911890601D507284FD004209E
:10C8F000B5F90A20BDF902108A4216D1B5F908200F
:10C90000BDF900108A4210D1D8F8001000E059E0BB
:10C9100091F88010890708D5297901F07F02A17864
:10C92000B2EB510F01D1891CA170A178490829717E
:10C930002279032A02D341F0800129710099A9606C
:10C9400028702078687020796871D8F800002289F2
:10C95000434690F82F010109514300F00F00B1FB4D
:10C96000F0F0A870E08AFFF76EFDA871207EE871F4
:10C970001A68BDF80400B2F89010814209D3002073
:10C9800013E02146384600F011F90320B0E70520F6
:10C99000AEE7B2F89220824201D83F2005E0521A59
:10C9A000401AC0EB801090FBF2F0E87094F8200081
:10C9B000082807D12146384600F0EDF821463846D0
:10C9C00000F007F9761C0A2EFFF61EAFBDE8FC87C3
:10C9D00010B504460520F3F734FE2046FFF70BFFA1
:10C9E0000520F3F749FE2448006818B10221002011
:10C9F000F3F73CFD2148006890F8F007000639D5B0
:10CA00001F4802781F48817862F341011E4A12785C
:10CA100062F300011D4A127862F345111C4A127834
:10CA200062F3C3011B4A127862F3041121F0C001C2
:10CA3000817019490978417318490279097861F3BD
:10CA40000302174902710988418116494A88C28048
:10CA50000988018114490A78417962F3071141710B
:10CA6000C189491CC1810146BDE8104010220F4810
:10CA7000F5F7F8BF10BD0000E83A100020091000DB
:10CA80003E0910006E3B10003D0910003C091000EB
:10CA90003F091000430910008C5A1000500B100081
:10CAA0004A0B1000643B100044091000A4A20120AE
:10CAB00010B54FF43771564801F09EF94FF42671C6
:10CAC000544801F099F954490020087000F0A8F882
:10CAD000FFF728FB00F064FABDE81040FFF7B2BC96
:10CAE00010B500F047FA4A4800F05BFA4848FFF7F3
:10CAF0003FFB4748FFF76CFF46490020087010BD18
:10CB000010B5444C2078D0B14448006890F810012A
:10CB1000C00704D0204600F0EEF800280ED03D49B2
:10CB20003B4800F046FD3A4800F07FF83848FFF7F0
:10CB30001FFB3748FFF74CFF0020207010BDBDE8F9
:10CB40001040CDE710B5334C014620780F280CD2A9
:10CB500000EB400202EBC00004EB8000001D2C2221
:10CB6000F5F780FF2078401C207010BD10B50346FB
:10CB70000020D3F80410012202FA00F4214206D06A
:10CB8000401C40B20A28F7DB4FF0FF3010BD824056
:10CB90001143596010BD10B54C7801234268A34081
:10CBA0009A434260002081F8200010BD30B5002279
:10CBB0000368012404FA02F52B4205D0521C0A2A0C
:10CBC000F8DBFF20087030BD9440234303600A70F7
:10CBD00030BD10B50C7801230268A3409A4302606F
:10CBE000FF20087010BD0A48FFF7E2BB09480A4958
:10CBF0000078087070470949096891F86110C90701
:10CC000005D0024604480178024800F006B9704792
:10CC1000B05710008C5A10007C0B10002009100037
:10CC2000D84800210170416070472DE9F04100258E
:10CC300006460127706807FA05F1084233D005EB74
:10CC4000C50006EBC0040C3494F82000012801D084
:10CC5000022828D12079022803D0012805D0B8B1B4
:10CC600021E0B4F80500C84915E0C949C74809687A
:10CC7000B0F9000091F8A010890704D5B4F91A00A2
:10CC80000021FDF728FAB4F80510814207DB0AE01D
:10CC9000B4F80500BF49B1F90010884203DA214613
:10CCA0003046FFF778FF6D1C2DB20A2DC2DBBDE8C0
:10CCB000F08170B5B64A002319461268057810E075
:10CCC00001EB410404EBC10400EB840492F8116110
:10CCD0006489B4420BD892F81261B44200D95B1C4B
:10CCE000491C8D42ECDC92F81301984201D20120DC
:10CCF00070BD002070BDA84910B509780124012934
:10CD000008D0FFF7D6FF9F49012805D008780128F1
:10CD10000AD010E0012010BD012008709C48006876
:10CD200090F81401486006E04868002803DD401EC2
:10CD30004860002008700878012802D1FFF7D0FE73
:10CD40000024204610BD8F484168002903DD491E9C
:10CD500041600021017070472DE9F047044691427F
:10CD600059D007D901EB0200A0EB0201CAB2A0EB37
:10CD70000200C1B201EB410000EBC10004EB8001F5
:10CD800002EB420000EBC20004EB80094B89B9F8CA
:10CD90000A5009F104002B444B810B89B9F8085063
:10CDA0002B440B810B69D9F810502B440B61CE68D2
:10CDB0004B680068D9F80C704FEA234C4FEA2048C2
:10CDC00006FB0CFC06EB070507FB08CC9CFBF5FCFF
:10CDD0006CF31F430FFA83FC06FB0CF600B207FB53
:10CDE000006090FBF5F060F30F03CD604B6020789E
:10CDF000A0F1010191420BD000EB400101EBC0001A
:10CE000004EB8001283909F104002C22F5F72AFEF1
:10CE10002078401E2070BDE8F0872DE9FC5F0746B2
:10CE20005E48002502785A48012A006808D090F828
:10CE3000730000BF00FB00FA0C464FF0010993E0BD
:10CE400090F8CB00F6E700BF09FA04F02646009000
:10CE500067E000BF009909FA06F0084260D006EBCF
:10CE6000460000EBC60007EB8000416820464CE01E
:10CE7000B04249D000EB400202EBC00207EB820255
:10CE800052684FEA224CACEB214C0FFA8CFC6CF34D
:10CE90001F45E646DFF8F8C0A2EB010212B2DCF84B
:10CEA00000B062F30F059BF861C0CDF804C05FEAE3
:10CEB0008C7C0AD59BF874C002FB0CF84FF0640C14
:10CEC00098FBFCFC624462F30F05019A52070BD5F4
:10CED0009BF874C00EFB0CF24FF0640C92FBFCFC50
:10CEE0000CEB0E0262F31F454FEA254C0CFB0CFCC9
:10CEF0002AB202FB02C2524506D2DDF800C009FA8E
:10CF000000F242EA0C020092401C8342B0DC042191
:10CF10006846F5F74BFA012802D1009840000090CE
:10CF2000761C3B78B34295DC04216846F5F73EFA5F
:10CF300001281DD00099484600FA04F20A4203D0A5
:10CF40003E78C846761E0CE0641CF5E7009908FAA6
:10CF500006F0084204D0F2B2E1B23846FFF7FCFE18
:10CF6000761EA642F2DC641C3878A0423FF76CAF14
:10CF7000BDE8FC9F0648006890F81001C00700D08B
:10CF8000E1E67047800B1000600B1000620B100090
:10CF900020091000640B100043091000460910001E
:10CFA00070472DE9F0410024012605465FF0060791
:10CFB000686806FA04F1084215D004EBC40005EBDA
:10CFC000C0010C3191F82000032806D0042804D0B9
:10CFD000052802D0022803D005E081F8207002E085
:10CFE0002846FFF7D8FD641C0A2CE1D3BDE8F08188
:10CFF00010B5022200EB8203521E53F8364F12F096
:10D00000FF025C60F6D1C0F83A1010BD5FF000027C
:10D0100000EB8203521CD2B2C3F83A10032AF7D3B2
:10D02000704730B504464270087D2071C868E060E2
:10D0300088682061C888208188886081487DA070C8
:10D040000D460869E061E88AE082288B2083A88B7E
:10D05000A4F80500B5F81F006083A889A082012B01
:10D0600007D020462968FFF7C3FF606A401C606252
:10D0700030BD012084F8200020462968FFF7C6FF54
:10D08000002060622868C4F8360030BDB0F9001096
:10D09000B0F90200494300FB0010704710B55388F7
:10D0A0004C881B1B438012880988511A018010BDCF
:10D0B0002DE9FF4F4FF004088946526808EBC00481
:10D0C000411E4FF0060C1D460CEBC000DDE90D3A89
:10D0D00014441044B4F90040B0F9007000E0491E57
:10D0E00008EBC1001044B0F90000A04201D00029B3
:10D0F000F5DA08EBC1001044B0F90000A0427BD182
:10D100000CEBC1001044B0F90060491E0CEBC100EB
:10D110001044B0F90000B04201D00029F5DA0CEB60
:10D12000C1001044B0F90000B04278D108EBC10052
:10D13000104407EB4702B0F900C004EBC40003EB56
:10D14000C0000CEBCC0103EBC10102EBC7030AEBFF
:10D150008302D0F84600D1F846105268009206EBE0
:10D16000460202EBC6030AEB83024FEA204B0FFA9A
:10D1700080FA08B25268019250440BEB21424310EE
:10D18000BDF90200BDF90610BDF904800844411044
:10D19000BDF90000A1EB620140445944C3EB6000BB
:10D1A000ADF80E105044ADF80C006A4603A902A871
:10D1B000FFF774FF02A8FFF769FF804601AA03A9E1
:10D1C00002A8FFF76BFF02A8FFF760FF804526D992
:10D1D000002000E0401C05EBC001B1F90410A142A1
:10D1E00001D04845F6D305EBC001B1F90420A242B5
:10D1F00015D1CE80002101E011E0491C05EBC102F0
:10D20000B2F90420624501D04945F6D305EBC101CE
:10D21000B1F90420624504D005EBC000C780BDE829
:10D22000FF8FCF80FBE7F0B5002118E04A1C12E029
:10D23000436803EBC10603EBC204356823689D42D3
:10D2400008DD6768256075686560446804EBC104A3
:10D2500023606760521C03689342E9DC491C026842
:10D260008A42E3DCF0BD70B5D0E90045062606EB46
:10D27000C40635442A800425426805EBC4052A44C7
:10D280001180416801EBC401641C0B60046070BD37
:10D29000F0B5B1F90240B2F9025004FB05F6002ED8
:10D2A0002ADDB1F90060B2F900707E43002E23DD63
:10D2B00064435D4394FBF5F424B24480B2F900204A
:10D2C000B1F900105A43494391FBF2F10AB27823B5
:10D2D0000280782C00DD4380B0F902406FF07701C6
:10D2E0008C4200DA4180782A00DD0380B0F900200A
:10D2F0008A4200DA0180F0BD00214180FAE72DE981
:10D30000FF4FADF27C5D81464FF6FF70CDF81C05F6
:10D310000020CDF86C050DF5A260CDF85405503015
:10D320000F46CDF874050DF5A262002002A903C2D4
:10D33000DB490DF25C5B0DF5AD6A0A780446804668
:10D34000012A02D1CDF86C25087000260120D9F8F9
:10D350000410B04001427CD0D24806EBC60109EB74
:10D36000C1050168DDF86C250C35B1F89400012A7F
:10D3700003D1B1F89C2002B110464043CDF8080516
:10D3800091F896C005F13A02111D0DF25C50CDF8EE
:10D3900058250191FFF782FE0DF25C50FFF776FEF3
:10D3A0000CFB0CFC0CFB00FCDDF80805844502DDE1
:10D3B000CDF820C501E0CDF82005BB480078012854
:10D3C00003D16FF00040CDF820054FF0000C55E080
:10D3D0000CEB4C0000EBCC0007EB8000001DCDF8FF
:10D3E0000C050DF5AC60DDF858250199FFF756FEE8
:10D3F00005F142010DF26450019AFFF74FFEDDF88E
:10D400007405B0F902006430C82806D8DDF8740548
:10D41000B0F900006430C82801D9012300E00323DB
:10D420000DF26452111F081FFFF732FFA98FBBF8DE
:10D4300002000844AAF80200698FBBF8000001440A
:10D44000AAF800100DF5AD610DF25C50DDF80C2569
:10D4500000E016E0FFF722FE0DF25C50FFF716FE2B
:10D460000346DDF82005834206DA0FFA8CF231B26A
:10D47000DDF85405FFF7F7FE0CF1010C3878604534
:10D48000A6DC761C0A2EFFF661AFDDF81005002839
:10D490007ED0DDF85405FFF7C6FE00200DF22C5EAD
:10D4A0000DF5976B4FF0040A3BE000BFDDF8142543
:10D4B0000AEBC0011144B1F90030062101EBC001B3
:10D4C0001144B1F900C0DDF884150D68012101FA9D
:10D4D00003F215421FD1DDF8886501FA0CF13668B8
:10D4E0000E4218D1DDF8846515433560DDF88855A6
:10D4F0002D680D43DDF888150D600BEBC401641C2D
:10D500008B80A1F806C0DDF81C150A4203D14EF845
:10D51000280008F10108DDF81C159143401CCDF8E6
:10D520001C15DDF810158142C0DC7546B8F1000FFE
:10D5300039D0CDE90097A8F101080DF5976355F8AA
:10D5400028002146DDF85425FFF7B2FDEEE7641E02
:10D550000BEBC4010023B1F90400B1F9061000EB94
:10D56000C00201EB410009EBC20500EBC1000C3524
:10D5700007EB8001091D95F901202846FFF751FDB1
:10D5800095F82000032808D0042809D0072800E0D7
:10D590000BE005D0052806D102E085F820A002E0C6
:10D5A000052085F82000002CD1D10DF28C5DBDE85E
:10D5B000F08F2DE9FC41064640680F4650B100202F
:10D5C0000190009001AB6A463046FFF798FE0025B7
:10D5D00001243EE0002415E004EBC40006EBC00586
:10D5E0000C353046FFF7C2FA021E0ADB02EB42009E
:10D5F00000EBC20007EB8001091D01232846FFF75D
:10D6000010FD641C3878A042E6DCBDE8FC8100BF58
:10D61000019904FA05F008421AD13046FFF7A6FA3C
:10D62000B0F1000C14DB05EB450000EBC50007EB87
:10D6300080010CEBCC0006EBC000091D0C3001236F
:10D640006246FFF7EEFC009904FA0CF008430090E4
:10D650006D1C3878A842DBDC00250627716804FAC7
:10D6600005F0014218D00099084215D105EBC5001C
:10D6700006EBC0010C3191F82000032806D00428E5
:10D6800004D0052802D0022803D005E081F82070DC
:10D6900002E03046FFF77FFA6D1C0A2DDEDBB4E7AF
:10D6A000820910002009100043091000134908687E
:10D6B000134A106800280CD14FF4FA7300BF401CC5
:10D6C0009842FBD30860106820B1086820F004007D
:10D6D0000860704730BF70470A4C4FF0085520680B
:10D6E000401C2060D5F8840120B10120F5F75DFAD7
:10D6F00030BFF4E7FFF7DAFFF1E7000010ED00E0DC
:10D70000541101207C091000F9480021416081601A
:10D710000160704770B54FF00854D4F884010028B8
:10D7200036D105210120F5F727F8F149002048609E
:10D7300088600860EF4908604FF480710220F2F7BA
:10D7400095FE02210120F2F791FE02210320F2F75B
:10D750008DFE08210020F2F789FE02210420F2F755
:10D7600085FEE54D286890F82901800702D5012043
:10D77000FAF759FBFAF727FC286890F880030007AE
:10D7800003D520210120F2F771FE0120C4F88401A5
:10D7900070BD70B54FF00855D5F88401002834D01D
:10D7A000D548006890F82901800701D5FAF73EFBBB
:10D7B000D0480024012104600846F2F757FECC4807
:10D7C000042144600220F2F751FE10210420F2F7F8
:10D7D0004DFE80210320F2F749FE80210220F2F75E
:10D7E00045FE01210320F2F741FE04210020F2F75B
:10D7F0003DFE01210420F2F739FEC5F88441BDE861
:10D80000704005210020F4F7B7BF70BD70B5B84C6B
:10D810006268D0072AD1B748B84B016841F00501CA
:10D8200001601D6845F020051D60B34B1B6893F82F
:10D83000B031DB0705D012F40B7F02D141F0420179
:10D840000160AF480125A90205702846F2F70EFED7
:10D850006068042140F0010060600220F2F706FEDB
:10D8600080210320F2F702FEA648056070BDA049A2
:10D8700010B54868C2070DD020F0010048600421AF
:10D880000220F2F7F3FD80210320F2F7EFFD9D491E
:10D890000020086010BD10B54FF00854D4F8840182
:10D8A000002806D008210220F2F7E0FD0120C4F88C
:10D8B000880110BD10B54FF00854D4F88401002839
:10D8C00006D010210220F2F7D1FD0020C4F8880113
:10D8D00010BDF3F725B9884810B5006890F85001DD
:10D8E000C0070ED08249486842070AD520F00400DC
:10D8F000486004210220F2F7B9FD10210420F2F75C
:10D90000B5FD80490020091D086010BD70B57A483A
:10D91000006890F85001C0070DD0754C2079400781
:10D9200009D4794801782046806829B140F0040084
:10D93000A0600520206070BD7449012520F004001E
:10D940000D7073490A6842F020020A60A0606948BD
:10D95000016841F0220101606948A902057028466A
:10D96000F2F784FD6068042140F00400606002204A
:10D97000F2F77CFD10210420F2F778FD6148001DCC
:10D98000056070BD70477047704770475A4810B5C2
:10D99000006890F8E801002812D0554948688207CD
:10D9A0000ED520F00200486004210220F2F75EFD4F
:10D9B00080210320F2F75AFD524900200C31086003
:10D9C00010BD4D4810B5006890F8E80100281DD042
:10D9D000474C2079800719D44648016841F0180166
:10D9E00001604FF480610120F2F740FD606804217E
:10D9F00040F0020060600220F2F738FD8021032031
:10DA0000F2F734FD3F4901200C31086010BD70472A
:10DA10007047F3F767B83648007900070BD43548EC
:10DA200040F6BF720168114301603549012008705A
:10DA30008102F2F71BBD7047354840F6A2520168DB
:10DA400041F0100101602E49012008702948016849
:10DA5000114301604FF480610120F2F707BD704768
:10DA600008210120F2F702BD04210120F2F7FEBCDB
:10DA70004FF480510120F2F7F9BC10210120F2F798
:10DA8000F5BC20210120F2F7F1BC40210120F2F782
:10DA9000EDBC1948006890F8C800C00705D01D49C2
:10DAA00001200870CC20FAF7A7BB70471949002065
:10DAB0000870CD20FAF7A0BB70470A46B0F5805F2A
:10DAC000014602DA0C48006801E04FF48010FAF7D2
:10DAD0008BBAF0B54FF40064B0F5805F02D2064B0C
:10DAE0001D6803E0A0F580504FF48015002317E077
:10DAF000880B100024091000200910002C091000C8
:10DB0000280910008C0100223B0910007109100047
:10DB10003009100046091000D65C1F185B1CEE553A
:10DB20008B4201DAA342F7DBF0BD10B51E4C40F288
:10DB3000FF112068F2F748FE22684FF40071C2F826
:10DB4000FC071046F3F739FABDE810400320FAF756
:10DB500053BB10B54FF4801440F2FF112046F2F78A
:10DB600033FE12490860C9122046F3F736FABDE8C1
:10DB700010400420FAF740BB00B587B0FF221821FF
:10DB8000684600F00FF96846F3F78CF96846FAF733
:10DB9000A9FA07B000BD704770470548007A4007F2
:10DBA00000D5B3E67047000020091000FC07100004
:10DBB000880B100070B5044624480D46202C02DD69
:10DBC0002021016000E004602021214800F0F2F8EB
:10DBD00000221F4802E0A95C8154521CA242FADBD9
:10DBE000BDE8704001210520F2F740BC032804DDA8
:10DBF0000888897840BAFFF760BF7047032806DDC0
:10DC0000C31E08888A1C40BA1946FFF762BF7047D6
:10DC10000F490E480B780068A3F190021F2A03D821
:10DC20000C4850F822000047B02B07D0B22B07D089
:10DC3000FB2B07D0FC2B07D1FFF78BBF491CDDE77F
:10DC4000491CD3E7FFF771BF70470000940B100029
:10DC5000245D10009CE1000008B5FFF755FD124857
:10DC6000F2F765FFFAF787F905210020F4F784FD44
:10DC700003216B4600220520F2F747FC0098C007FD
:10DC800007D001210520F2F71FFCFFF7C1FFF2F7D3
:10DC90007AFF00988007EBD502210520F2F714FCEB
:10DCA000FFF77BFFE4E7000095DB0000B2F1200303
:10DCB0000AD5C2F1200301FA02F120FA03F300FAB7
:10DCC00002F041EA0301704700FA03F14FF000004F
:10DCD000704710B54C1084EA530404D54042C1F19A
:10DCE000000138BF491E1B4204D55242C3F1000354
:10DCF00038BF5B1E00F0AAF814F0804F04D04042F9
:10DD0000C1F1000138BF491E14F0004F04D0524247
:10DD1000C3F1000338BF5B1E10BD032A40F2308000
:10DD200010F0030C00F0158011F8013BBCF1020F5C
:10DD3000624498BF11F801CB00F8013B38BF11F8DD
:10DD4000013BA2F1040298BF00F801CB38BF00F8F4
:10DD5000013B11F0030300F0F080083AC0F00880A6
:10DD600051F8043B083A51F804CBA0E80810F5E755
:10DD7000121D5CBF51F8043B40F8043BAFF3008038
:10DD8000D20724BF11F8013B11F801CB48BF11F8AD
:10DD9000012B24BF00F8013B00F801CB48BF00F87D
:10DDA000012B704702F0FF0343EA032242EA0242DA
:10DDB00000F002B84FF000020429C0F0128010F009
:10DDC000030C00F01B80CCF1040CBCF1020F18BF57
:10DDD00000F8012BA8BF20F8022BA1EB0C0100F0EA
:10DDE0000DB85FEAC17C24BF00F8012B00F8012BBD
:10DDF00048BF00F8012B70474FF0000200B51346F2
:10DE000094469646203922BFA0E80C50A0E80C505A
:10DE1000B1F12001BFF4F7AF090728BFA0E80C500B
:10DE200048BF0CC05DF804EB890028BF40F8042B04
:10DE300008BF704748BF20F8022B11F0804F18BF71
:10DE400000F8012B704770477047704753EA020C87
:10DE500000F069802DE9F04B4FF00006002B1FBF4A
:10DE6000B3FA83F503FA05F424FA05F65E4012BF0F
:10DE70001643B2FA82F502FA05F4C5F120051EBF79
:10DE800022FA05FC44EA0C04203556EA044C4FEA19
:10DE9000144418BF641C4FF000084FF00009904272
:10DEA00071EB030C39D3002919BFB1FA81F701FADC
:10DEB00007F6B0FA80F700FA07F6C7F120071EBF91
:10DEC00020FA07FC46EA0C062037B6FBF4FCA7EB69
:10DED0000507103F07F01F0BCBF120060CFA0BFBD8
:10DEE0002CFA06F644BFB3460026202FA4BF5E4698
:10DEF0004FF0000B5BEA060C08BF4FF0010B19EB6B
:10DF00000B09ABFB027C48EB0608C01B06FB02CCEE
:10DF10000BFB03CC71EB0C01C1E70B4602464146FB
:10DF20004846BDE8F08B13B54FF000004FF00001FC
:10DF3000AFF30080BDE81C40704710B5203AC0F038
:10DF40000B80B1E81850203AA0E81850B1E81850FA
:10DF5000A0E81850BFF4F5AF5FEA027C24BFB1E837
:10DF60001850A0E8185044BF18C918C0BDE81040A8
:10DF70005FEA827C24BF51F8043B40F8043B08BFB1
:10DF80007047D20728BF31F8023B48BF11F8012B78
:10DF900028BF20F8023B48BF00F8012B7047044619
:10DFA000AFF300802046F2F705F9704701491820C9
:10DFB000ABBEFEE726000200991500009D1500008B
:10DFC000B3150000CB150000ED1500001116000080
:10DFD000311600004F1600000600000044E2000069
:10DFE000010000009052100080000000B9D600002F
:10DFF00000000000020000000500000034E2000004
:10E0000002000000905110000001000039DC000007
:10E010000000000002000000040000001CE20000FC
:10E0200003000000C04E1000D00200003D7400004C
:10E03000000000000200000003000000CBE200002E
:10E0400004000000C04610000008000029C00000C5
:10E0500000000000020000000200000065E2000075
:10E06000050000008040100040060000597D0000BF
:10E07000000000000200000001000000BBE2000000
:10E0800006000000803C1000000400002B5100003E
:10E09000000000000200000000000000DAE20000C2
:10E0A00007000000803B1000000100000184000018
:10E0B0000000000002000000060000009CE20000DA
:10E0C000010000000500000089E2000001000000DE
:10E0D000040000007CE200000100000003000000DA
:10E0E0004DE2000001000000020000006EE20000AE
:10E0F0000100000001000000AAE200000100000091
:10E10000000000003CE200000100000005000000EB
:10E110002CE2000004000000B4E200000300000054
:10E12000C4E20000020000005CE200000100000008
:10E1300023E2000000000000D2E200000001010222
:10E140000102020301020203020303045AD3D9E9C4
:10E150006CF145F59FF73CF96CFA58FB18FCB9FCDB
:10E1600044FDBFFD2EFE94FEF4FE50FFA9FF00000B
:10E170005700B0000C016C01D2014102BC02470300
:10E18000E803A8049405C4066108BB0A940E271688
:10E19000A62C0100020001000200040002000100A0
:10E1A000020001001000FFFFFFFFFFFFFFFF140050
:10E1B000FFFFFFFFFFFFFFFF0C00000073D7000011
:10E1C000F5D600004FD80000EDD70000B7D800000A
:10E1D000EDD8000051DA000099DA000077D800008D
:10E1E00095D800006DD90000A3D9000069D90000BE
:10E1F0006BD90000EFD90000F1D90000B3D80000BE
:10E20000F3D90000F7D9000041DA000049DA000034
:10E210005BDA000063DA00006BDA000073DA0000FA
:10E2200019DA000059DB00008DDA00003FDA000047
:10E2300099DA000077DB000079DB000054736B5F34
:10E24000535300456C665F5373766300456C665F9D
:10E25000436D640054736B5F436D640053656D5F81
:10E260004166650054736B5F49646C650053656D6E
:10E270005F43616C69624672616D6500456C665F03
:10E280005363616E0054736B5F5363616E0053653B
:10E290006D5F4576656E744669666F0053656D5FA8
:10E2A00053534275666665720053656D5F527074B4
:10E2B000546F7563684275666665720053656D5F7D
:10E2C0005261774275666665720053656D5F566987
:10E2D00070657200456C665F53730054736B5F53D7
:10E2E00053797300456C665F4D740054736B5F4DDA
:10E2F0007400456C665F5270740054736B5F5270AB
:10E300007400000004E300000009100098020000FF
:10E310000001000034E30000980B1000AC51000035
:10E320005C01000001210214F802FF01014216FF06
:10E33000FFFEFF0A25FEFFFFFF12011A0204011E65
:10E340003206320F9A37089AE108034AD303091EAE
:10E350008C016400000000000000000000000000CC
:10E3600000000000000000000000000000000000AD
:10E37000000000000000000000000000000000009D
:10E38000000000000000000000000000000000008D
:10E39000000000000000000000000000000000007D
:10F81000000000000000000000000000FBCB7C9A0C
:10F82000A5012800FFFFFFFFFF1F0000FFFFFF0FE4
:10F83000000000002D1CFF041F030000000000005A
:10F84000090210A55500C800C80000000000000013
:10F8500000000000000D00010A4040000000000010
:10F86000570081E8050040002000F00084B6100039
:10F8700050001000500000000000400050640000E4
:10F8800006050002800024401000BC029001000226
:10F8900050282840100100000002FFFF0000000077
:10F8A0001D00320601F105220505C40810004000C4
:10F8B0000000803E400008050505000080000000B3
:10F8C00001A00040000504051E001E00C4A00000A9
:10F8D00017FF000A2000F0000000101001010000D6
:10F8E0006202D800100040000120204010000000FB
:10F8F00001090F0016001E0026002E0035003D00F5
:10F9000045004D005400FF01000000000000000011
:10F9100000000000000000000000050010000201CF
:10F9200001640000000000000000001118254600DE
:10F93000003218020F05100000100A180010000015
:10F9400000860A0A5A8410100000000000FF00AA76
:10F95000BD00C409D007800C800C800C800C000016
:10F9600000F000F000800C800C00000000C40900D2
:10F970000010B400B4000000000000008810C800AF
:10F9800055006400F000803EA06002F000006002BC
:10F9900004000202B4002000000100000303030081
:10F9A00000030000000000000000000204204000EE
:10F9B0000000C80100000000B400B400B400B400AE
:10F9C000000000000002028800000000500050010A
:10F9D000006400640064000000B400102001000016
:10F9E00000000010000000000A00000000000002FB
:10F9F00022B4800004000000220000000020322019
:10FA0000FFFFFFFF000200220F1C2D2E2F300000F1
:10FA100001000100010001000008000000000000DA
:10FA20001210023FA000A300000000000000000030
:10FA300000000000000000000000000000000000C6
:10FA4000B600000100011010200010000202323246
:10FA50000A0A03020203F0000100880120000001ED
:10FA6000E8080000005A1000000101050000000035
:10FA70000000000000000020648000000000000082
:10FA800006000000006333330000AA0800000000F5
:10FA90006464646464646464646464646464646426
:10FAA0006464646464646464646464646464646416
:10FAB0006464646464646400000402020000000082
:10FAC00064646464646464646464646464646464F6
:10FAD00064646464646464646464646464646464E6
:10FAE00064646464646464646464646464646464D6
:10FAF00064646464646464646464646464000000F2
:10FB000002D0A00080008000001000052F070B002D
:10FB10000000000000006001204020401050000064
:10FB2000000000220F000F2D2E2F300000000000DB
:10FB300000000000000000000008000000000000BD
:10FB400000000000000000000000000000000000B5
:10FB500000000000000000000000000000000000A5
:10FB60000000000000000000000000000000000095
:10FB70000000000000000000000000000000000085
:10FB8000FFB2B240202828FAA2A240203C003C004C
:10FB90003C003C000707070707B2B24020280700D7
:10FBA000C000000000000000000000000000000095
:10FBB0000000000000000000000000000000000045
:10FBC0000000000000000000000000000000000035
:10FBD0000000000000000000000000000000000025
:10FBE0000000000000000000000000920000000083
:10FBF0000000000000000000000000000000000005
:10FC000000000000000000000000000000000000F4
:10FC100000000000000000000000000000000000E4
:10FC200000000000000000000000000000000000D4
:10FC300000000000000000000000000000000000C4
:10FC400000000000000000000000008000800004B0
:10FC50000000000000000102030303030300000092
:10FC60000017A001090000000000000000000000D3
:10FC70000000000000000000000000000000000084
:10FC800000000000FF0F5000FF0F0002FF0F0002F6
:10FC9000060600000A001E0019042D0437040400A3
:10FCA00005001E001904320433040000140064002F
:10FCB000BB020B031F03050007006400BB0218030F
:10FCC0001A03000000000000000000000000000017
:10FCD0000000000000000000000000000000000024
:10FCE0000000000000000000000000000000000014
:10FCF0000000000000000000000000000000000004
:10FD000000000000000000000000000000000000F3
:10FF90000000000000000000000000000140000020
:10FFA00000000000000000000153530900000000A1
:10FFB000000000000000000000723C001300FF0180
:10FFC000FF00200000200020000000328300A20378
:10FFD000A20300000300001825000000000000003C
:10FFE0000000000000000000006428000000000085
:10FFF0000000000000000000000000000000000001
:020000021000EC
:1000000013010000000000000000000000000000DC
:100010008000000000000000000000000CE62877CF
:00000001FF
