:1000000000200020611B030869BC02087DBC0208B7
:1000100091BC0208A5BC0208B9BC0208000000009F
:10002000000000000000000000000000CDBC02083D
:10003000E1BC020800000000C547000877A10008E5
:10004000151E0308191E03081D1E030883C202089B
:10005000251E0308DFC3020835BF0208C5C0020819
:1000600051C10208391E03083D1E0308411E030842
:10007000451E0308491E03084D1E0308511E0308B0
:10008000551E0308591E03085D1E0308611E030860
:10009000651E0308691E03086D1E0308711E030810
:1000A000751E0308791E03087D1E0308811E0308C0
:1000B000851E0308891E03088D1E0308911E030870
:1000C000951E0308991E03089D1E0308F9BC02082B
:1000D000A51E0308A91E0308AD1E0308B11E0308D0
:1000E000EFC1020843C30208BD1E0308C11E030876
:1000F000C51E0308C91E0308CD1E0308D11E030830
:10010000D51E0308D91E0308DD1E0308E11E0308DF
:10011000E51E0308E91E0308ED1E0308F11E03088F
:10012000F51E0308F91E0308FD1E0308011F03083E
:10013000051F0308091F03080D1F0308111F0308EB
:10014000151F0308191F03081D1F0308211F03089B
:10015000251F0308291F03082D1F0308311F03084B
:10016000351F0308391F03083D1F0308411F0308FB
:10017000451F0308491F03084D1F0308511F0308AB
:10018000551F0308591F030838B5DFF8CC4C002071
:10019000E06120626062A062E062A081DFF8BC0CD6
:1001A000E063DFF8BC0C206460643220E0824FF42E
:1001B00096702083DFF8AC5C4FF42072002105F1CB
:1001C000400002F04BF84FF42072002105F530702A
:1001D00002F044F89022002105F5B86002F03EF8E4
:1001E00040220021284602F039F840220021DFF8A1
:1001F0003C0D02F033F840220021DFF8340D02F00C
:100200002DF840220021DFF82C0D02F027F84022C3
:10021000002105F5A86002F021F84022002105F533
:10022000B06002F01BF840220021DFF80C0D02F054
:1002300015F840220021DFF8040D02F00FF8052226
:100240000021204602F00AF805220021DFF8F00C18
:1002500002F004F805220021DFF8D40D01F0FEFFC2
:100260000020A0822063A0632061A0606063E0643E
:100270000220A07331BD80B50FF2100002F092F899
:10028000DFF8D40B0021017301BD00004C54205352
:10029000746F70007047DFF8C01B4FF47A725043E0
:1002A000C86301460FF2040002F07CB84C5420539E
:1002B0005044202564000000DFF89C2B4FF47A7135
:1002C00048431064014651640FF2040002F06AB81A
:1002D0004C5420575044202564000000DFF8781B60
:1002E000C88201460FF2040002F05CB84C5420535F
:1002F0005220256400000000DFF85C1B08830146E3
:100300000FF2040002F04EB84C5420534152202505
:10031000640000000EB410B587B0DFF8184DBDF8CA
:100320006E0000281ED1DFF8100DD0E90023CDE9C2
:100330000223D4E90001CDE90001DDE9022300F048
:1003400088FFDFF8141BC96B4FF47A724243914265
:1003500006D201460FF2280002F024F801200AE03C
:10036000002008E004A802F0B8FA204604A90522FB
:1003700002F05CFB002007B010BC5DF810FB000031
:100380004C542053544F5020436865636B696E672B
:1003900020256400DFF8C00A01210162C16100214B
:1003A0008162C1627047DFF8B00A01214162C16118
:1003B0007047DFF8A40AC0697047DFF89C0A002183
:1003C000C1610FF2080001F0EDBF00004C54205253
:1003D000455345545F434D4452440000DFF8780ACA
:1003E000002101620FF2040001F0DCBF4C542052E6
:1003F000455345545F504F5352455100DFF8580A5A
:10040000002141620FF2040001F0CCBF4C54205295
:10041000455345545F504F4941434B00DFF8380A7C
:10042000012181620021C16201727047DFF8280A50
:100430000121C16270472DE9FC4106460F469046F6
:10044000DFF8E84ADFF81C5A20462946402202F02D
:10045000FDFA85ED000B85ED021B85ED042B85F87B
:10046000296085F82A7085F82B80D4E904230020C0
:10047000014602F027FB0ED1D4E9002302F022FB53
:1004800009D1D4E9022302F01DFB04D120462946FC
:10049000402202F0DBFA95ED020B8DED000BD5E961
:1004A00000230FF20C0001F07DFFBDE8F381000096
:1004B0004C54205550504F5320256620256600008F
:1004C00030B583B0DFF89049A06A012815D1DFF874
:1004D000605A2846DFF88C19402202F0B7FA95EDF1
:1004E000020B8DED000BD5E900230FF2140001F093
:1004F00059FF0020A06201203EBD00203EBD00004B
:100500004C54203173742025662C20256600000091
:1005100030B583B0DFF84049A06A012815D1DFF873
:10052000145A2846DFF83C19402202F08FFA95ED64
:10053000020B8DED000BD5E900230FF2140001F042
:1005400031FF0020A06201203EBD0020A0623EBD20
:100550004C5420326E642025662C20256600000055
:100560000020DFF8F418CA6A012A01D1C86201200C
:1005700070470FB400B59DB0DDE92E2302F0B2FA4A
:10058000CDE90C01DDE92001DDE9302302F0AAFA12
:10059000CDE90E010CA984B06846402202F056FA5B
:1005A0000FBC00F05DFD53EC102B0020DFF8241E83
:1005B00002F058FB41EC100B1DB05DF814FB00007D
:1005C0000FB470B52DED048B9CB0DFF88C58687AB1
:1005D000002801D1002043E00A2801D30A2600E0C8
:1005E000AE7A9FED998B002422E0DFF8781801EBBA
:1005F000801000F530710CA8402202F027FA24A9DF
:1006000084B06846402202F021FA0FBCFFF7B1FF28
:10061000B0EE409AF0EE609A51EC190B53EC182BA7
:1006200002F0FEFB03D2B0EE498AF0EE698A641C48
:10063000E4B22046B042D8DB288B02F017FC024619
:100640000B4651EC180B02F0EBFB01D2002007E047
:1006500053EC182B0FF2140001F0A4FE0120E86403
:100660001CB0BDEC048B70BC5DF814FB4C542053E3
:1006700041204F55542025660000000030B585B05C
:10068000DFF8E04794F969058DF8000004F269503D
:1006900090F901108DF8011090F902008DF8020018
:1006A000B4F86C05ADF80300DFF88C59D5E900010A
:1006B000CDE90201DDE90223DDE9000100F0C9FD19
:1006C000C4F87805DFF89007D5E90023C0E90023D6
:1006D00005B030BD0FB42DE9F0412DED088B84B08D
:1006E000DFF87447DFF87C57A07A05EB80109DEDAA
:1006F000120B80EDA00B00F520709DED140B80ED2A
:10070000020B9DED160B80ED040B2099816394F88C
:100710000980B8F10A0F01D34FF00A089FEDBF8B93
:10072000B0EE489AF0EE689AB0EE48AAF0EE68AAE9
:1007300000261DE005EB861753EC182BD7E9B00116
:1007400002F0A2FB41EC180B07F5307753EC192BA4
:10075000D7E9020102F098FB41EC190B51EC1A0B9E
:10076000D7E9042302F090FB41EC1A0B761CF6B299
:100770004645DFDB404602F079FB41EC1B0B51ECB8
:10078000180B53EC1B2B02F0F3FB05F5A862C2E932
:10079000000105F2405651EC190B53EC1B2B02F0F3
:1007A000E7FBC6E9020151EC1A0B53EC1B2B02F0DC
:1007B000DFFBC6E9040195F969058DF8000005F233
:1007C000695797F901008DF8010097F902008DF83B
:1007D0000200B5F86C05ADF80300DFF85C88D8E9D5
:1007E0000001CDE90201DDE90223DDE9000100F0AD
:1007F00030FD0246C5F87825D8E90001C4E90001BA
:100800000192B87800907B7895F86925617A0FF2AB
:10081000142001F0C7FD96ED020B8DED000B05F5E0
:10082000A860D0E900230FF2606001F0BBFD032057
:10083000A0730FF2044001F0B5FD04B0BDEC088BCD
:10084000BDE8F0015DF814FB00000000006AF8400C
:100850000FB42DE9F0472DED088B86B0DFF8D047B7
:10086000DFF8D4A7DAE90001CDE90401D4E90001F9
:10087000CDE90201DDE9042300F0EBFCDFF8D855F7
:10088000A97ADFF8E06506EB81129DED160B82ED8B
:10089000B00B02F530739DED188B83ED028B9DED4F
:1008A0001A9B83ED049B237882F8E93202F2E92354
:1008B00067785F70A7789F7000B2C2F8F802481C92
:1008C000A872C0B20A2801D10020A872687A00F18B
:1008D000010885F809805FFA88F8A8F1010002F0A4
:1008E000BBFA41EC1A0B06F2405953EC1A2BD9E92A
:1008F000020102F0B7F953EC182B02F0C5FA41ECF3
:10090000180B53EC1A2BD9E9040102F0ABF953ECA4
:10091000192B02F0B9FA41EC190B404602F0A6FA85
:1009200041EC1B0B53EC1A2B06F5A86041680068DC
:1009300002F098F9DDE9162302F0A6FA53EC1B2B1E
:1009400002F016FB06F5A862C2E9000151EC180B93
:1009500053EC1B2B02F00CFBC9E9020151EC190B03
:1009600053EC1B2B02F004FBC9E9040106F26957A2
:10097000B8F1010F0AD1207886F86905607878709F
:10098000A078B870B4F80300A6F86C0596F969056C
:100990008DF8000097F901008DF8010097F9020029
:1009A0008DF80200B6F86C05ADF80300DAE9000135
:1009B000CDE90201DDE90223DDE9000100F049FC97
:1009C0000246C6F87825DAE90001C5E9000101927E
:1009D000B87800907B7896F86925697A0FF2440020
:1009E00001F0E0FC99ED020B8DED000B06F5A8601F
:1009F000D0E900230FF2904001F0D4FC687A01287E
:100A000005D10120A8730FF28C4001F0CBFC06B099
:100A1000BDEC088BBDE8F0075DF814FB000000009A
:100A2000000000004C542025642053502025643AD7
:100A300025643A25642C2025640000000FB42DE9BC
:100A4000F0472DED0A8B86B0DFF8ECA5DAE900015E
:100A5000CDE90401DFF8E804D0E90023CDE9022361
:100A6000DDE90423DDE9020100F0F3FB8046DFF855
:100A7000E843A07A461E36B2002E01D50A3636B2B9
:100A8000607A02F0F3F941EC180BF64D05EB86168F
:100A900053EC182B05F5A8604168006802F0E2F8F5
:100AA000D6E9B02302F01EF841EC190B06F53077B9
:100AB00005F2405953EC182BD9E9020102F0D2F8A3
:100AC000D7E9022302F00EF841EC1A0B53EC182B75
:100AD000D9E9040102F0C6F8D7E9042302F002F8CC
:100AE00041EC1B0B9FEDE0CBD6E9B023DDE918010B
:100AF00002F0CAF953EC1C2B02F0B4F8C6E9B001BD
:100B0000D7E90223DDE91A0102F0BEF953EC1C2BF0
:100B100002F0A8F8C7E90201D7E90423DDE91C01C6
:100B200002F0B2F953EC1C2B02F09CF8C7E9040167
:100B3000C7F8388053EC1A2BD7E9020102F0A4F968
:100B400041EC1A0B51EC1B0BD7E9042302F09CF982
:100B500041EC1B0B51EC190BD6E9B02302F094F9D0
:100B600053EC182B02F004FA05F5A862C2E9000163
:100B700051EC1A0B53EC182B02F0FAF9C9E90201F7
:100B800051EC1B0B53EC182B02F0F2F9C9E90401EC
:100B900095F969058DF8000005F2695696F901008E
:100BA0008DF8010096F902008DF80200B5F86C0589
:100BB000ADF80300DAE90001CDE90201DDE9022325
:100BC000DDE9000100F045FB0246C5F87825DAE9C9
:100BD0000001C4E900010192B0780090737895F8A3
:100BE0006925617A0FF2380001F0DCFB99ED020B08
:100BF0008DED000B05F5A860D0E900230FF28820E9
:100C000001F0D0FB0320A0730FF22C0001F0CAFB0F
:100C100006B0BDEC0A8BBDE8F0075DF814FB0000E0
:100C20004C5420256420552D53502025643A2564CA
:100C30003A25642C202564004C5420415245412023
:100C400053544159000000000FB42DE9F0472DED39
:100C50000A8B86B09FED848BDDE91823DDE928013E
:100C600002F012F953EC182B01F0FCFF41EC190BC8
:100C7000DDE91A23DDE92A0102F006F953EC182B0D
:100C800001F0F0FF41EC1A0BDDE91C23DDE92C013A
:100C900002F0FAF853EC182B01F0E4FF41EC180BCA
:100CA000A74CDFF894A3DAE90001CDE90401D4E907
:100CB0000001CDE90201DDE9042300F0CAFA664D26
:100CC000A97ADFF8B06C06EB811282EDB09B02F5D9
:100CD000307383ED02AB83ED048B237882F8E93225
:100CE00002F2E92367785F70A7789F70B4F8033049
:100CF000A2F8EC32C2F8F802481CA872C0B20A2866
:100D000001D10020A872687A00F1010885F80980F5
:100D10005FFA88F8A8F1010002F09EF841EC1B0B85
:100D200006F2405953EC1B2BD9E9020101F09AFF5E
:100D300053EC1A2B02F0A8F841EC1A0B53EC1B2BC6
:100D4000D9E9040101F08EFF53EC182B02F09CF856
:100D500041EC180B404602F089F841EC1C0B53ECB7
:100D60001B2B06F5A8604168006801F07BFF53EC7F
:100D7000192B02F089F853EC1C2B02F0F9F806F558
:100D8000A862C2E9000151EC1A0B53EC1C2B02F0D3
:100D9000EFF8C9E9020151EC180B53EC1C2B02F0DF
:100DA000E7F8C9E9040106F26957B8F1010F0AD161
:100DB000207886F8690560787870A078B870B4F803
:100DC0000300A6F86C0596F969058DF8000097F9FF
:100DD00001008DF8010097F902008DF80200B6F8C5
:100DE0006C05ADF80300DAE90001CDE90201DDE9A7
:100DF0000223DDE9000100F02CFA0246C6F878254E
:100E0000DAE90001C5E900010192B87800907B7829
:100E100096F86925697A0FF2580001F0C3FA99ED46
:100E2000020B8DED000B06F5A860D0E900230FF250
:100E3000580001F0B7FA687A012805D10120A8739B
:100E40000FF2500001F0AEFA06B0BDEC0A8BBDE81F
:100E5000F0075DF814FB00006C210120E093040012
:100E600060E3160060C20020000000000000E03FC8
:100E70004C5420256420532D53502025643A25647A
:100E80003A25642C202564004C54202566202566D4
:100E9000000000004C54204152454120494E0000C2
:100EA0000FB410B584B0DFF8D00A016B01EBC102BA
:100EB000DFF8C03A03EBC20202F5B8639DED060B02
:100EC00083ED000B9DED080B83ED020B08AC94ED58
:100ED000021B83ED041B9DF8413082F8E93502F2D4
:100EE000E9530DF1410464785C700DF14104A4787C
:100EF0009C70BDF84430A2F8EC3502F2EC5211AB14
:100F0000DB685361C48A1483048B5483002901D1A4
:100F10000121016302938DED000BDDE906230FF241
:100F2000240001F03FFA1FBC5DF814FB8022012071
:100F3000C022012000230120402301208023012022
:100F4000B02A01204C5420555341202566202566A7
:100F5000202564000FB4F0B585B0DFF81C4A4825A1
:100F6000DFF8106A206B05FB006000F5B8619DEDAD
:100F70000A0B81ED000B9DED0C0B81ED020B0CAA11
:100F800092ED020B81ED040B9DF8511080F8E915EC
:100F900000F2E9520DF151035B7853700DF15107E6
:100FA000BF789770BDF95420A0F8EC258DF8041097
:100FB0008DF805308DF80670ADF8072094F9000023
:100FC0008DF80C0060788DF80D00A0788DF80E007B
:100FD000B4F80300ADF80F00DDE90323DDE90101FA
:100FE00000F037F9074600979DF906309DF9052076
:100FF0009DF904100FF2440001F0D4F9206B05FBB9
:101000000061C1F8007601F20061E28A8A80228BD9
:10101000CA80022801D2401C20630220A0730FF274
:10102000340001F0BFF905B0F0BC5DF814FB00001E
:10103000B82A0120C02A0120A82A01204C5420539C
:101040005341312025643A25643A25642C202564D7
:10105000000000004C542041524541204F5554009F
:101060000FB430B52DED048B8DB006AA08A90AA8DF
:101070009DED140B00F06EF8DDE90A230020DFF887
:10108000FC1801F0EFFD04460D46DDE90823DFF80A
:10109000F008DFF8F01801F0E5FD22462B4601F0DC
:1010A000F3FE04460D46DDE90623DFF8DC08DFF831
:1010B000DC1801F0D7FD22462B4601F0E5FE41EC9D
:1010C000180B00AA02A904A89DED160B00F042F827
:1010D000DDE904234FF03330DFF8B41801F0C2FD2E
:1010E00004460D46DDE90223DFF8A808DFF8A8185A
:1010F00001F0B8FD22462B4601F0C6FE04460D461F
:10110000DDE90023DFF87808DFF8901801F0AAFD88
:1011100022462B4601F0B8FE41EC190B53EC182B7C
:1011200051EC180B01F09EFD04460D4653EC192BB3
:1011300051EC190B01F096FD22462B4601F0A4FE5E
:1011400041EC100B02F038F80DB0BDEC048B30BC54
:101150005DF814FB70B52DED068BB0EE408AF0EE15
:10116000608A04460D46164651EC180B53EC182BBA
:1011700001F0B8FC41EC190B9FED94AB53EC192B2B
:1011800051EC1A0B01F06EFD41EC100B84ED008B5D
:1011900085ED000B53EC1A2B01F0EAFE02460B46DC
:1011A00051EC190B01F09EFC0022DFF8F43701F03E
:1011B00059FDC6E90001BDEC068B70BDDFF8B8072C
:1011C000006A7047DFF8B007406A704780B5402278
:1011D0000021DFF8D00701F041F840220021DFF8BC
:1011E000C80701F03BF8DFF8D40D0021417281728D
:1011F000016181820FF20C00BDE8024001F0D2B81B
:10120000000000004C542052455345545F41535058
:1012100000000000DFF8A40D006B704700B5DFF898
:10122000541701F5B06001F5A861402201F00EFCF1
:10123000DFF8880D0021016300BDC9B201EBC102D6
:10124000DFF8301701EBC20101F5B861482201F067
:10125000FDBB3FB581B04FF47A704EF66022DFF8E7
:10126000603D9DF904109DF90540544303FB014185
:101270009DF9064014FB0011BDF9074001FA84F105
:101280009DF90C409DF90D506A4303FB04229DF922
:101290000E3013FB0020BDF90F2000FA82F0441A33
:1012A00042F20F721319934205D200240FF23C0050
:1012B00001F078F807E0DFF80C2D944203DADFF84C
:1012C000082D1018441ADFF8040D844200DB044690
:1012D000204601F0C1FDDFF8F82CDFF8F83C01F002
:1012E000C1FC05B0BDE8304001F0E6BF41542D4CD3
:1012F0005420646966662054696D65205265736583
:10130000740000002DE9F64382B081460B98BDF9C8
:101310000B404EF66025DFF8A86C9DF908109DF98A
:1013200009206A4306FB01219DF90A204FF47A77D0
:1013300012FB071101FA84F1412808D15F18DFF888
:10134000980C87420BD3DFF8940CC71907E0994239
:1013500004D2DFF8740C4018C71A00E0CF1A3846E0
:1013600001F084FD0022DFF8783C01F001FE01F07D
:10137000A3FF80465FFA88F806FB1876304601F036
:1013800075FD0022DFF85C3C01F0F2FD01F094FFF6
:10139000C0B28DF8008001468DF8011005FB106089
:1013A00001F064FDDFF8282CDFF8283C01F05AFC3E
:1013B00001F082FF8DF80200ADF80340484600A915
:1013C000052201F033FB04B0BDE8F083000000000B
:1013D00000004E4000408F4010B50024DFF8980513
:1013E000C16C012907D101240021C1640FF254000E
:1013F00000F0D8FF23E0DFF87C05D0F87815D0F8AE
:10140000B825914216D190F8691590F8A925914216
:1014100010D100F2A95100F2695042784B789A42FB
:1014200008D180788978884204D10FF6E43000F042
:10143000B9FF04E001240FF6E03000F0B3FF2046CE
:1014400010BD00004C5420465500000000B58DB082
:10145000DFF82405407A00280AD0DFF88C1B84B01E
:101460006846402201F0F2FA0FBCFFF719FD06E0D2
:101470000FF6AC300DB05DF804EB00F093BF0DB08B
:1014800000BD00001CB5DFF8F044217B61732073C0
:10149000401E05284DD8DFE800F0034C16222C41F1
:1014A00000A801F01AFADFF8440B00A9052201F0A8
:1014B000BDFA616C21640020E0720FF67030BDE867
:1014C0001C4000F06FBF00A801F007FADFF81C0B0A
:1014D00000A9052201F0AAFAA06BA06413BD00A820
:1014E00001F0FBF9DFF8040B00A9052201F09EFAD8
:1014F00013BD00202061A08240220146DFF8A8042D
:1015000000F0ACFE00A801F0E8F9DFF8E00A00A95D
:10151000052201F08BFAA06BA06413BD00A801F0B6
:10152000DCF9DFF8C80A00A9052201F07FFAA06BF8
:10153000A06413BD0CB400B583B09DF939108DF8CB
:1015400000100DF1390191F901108DF801100DF124
:10155000390191F902108DF802100021ADF8031045
:1015600000A9052201F062FA0EBC5DF80CFB000038
:101570002DE9F04F2DED0A8B9DB082469FED558BE6
:10158000DFF8F483B8F81000B8F81290814502D261
:101590005FFA89F901E0C0B28146B8F91400461E2D
:1015A00000D50A36DFF8CCB30BEB861797ED109B0E
:1015B00097ED12AB97ED14BB01243CE0301A00D537
:1015C0000A300BEB801505F140010CA8402201F018
:1015D0003DFA07F1400184B06846402201F036FA36
:1015E0000FBCFEF7C6FFB0EE40CAF0EE60CA51EC89
:1015F000180B53EC1C2B01F013FC03D2B0EE4C8AF9
:10160000F0EE6C8A53EC1B2BD5E9140101F03CFC85
:1016100041EC1B0B53EC192BD5E9100101F034FC04
:1016200041EC190B51EC1A0BD5E9122301F02CFCFB
:1016300041EC1A0B641CE4B220464845BEDB484628
:1016400001F014FC41EC1C0B51EC1B0B53EC1C2B5C
:1016500001F08EFCCAE9040151EC190B53EC1C2B70
:1016600001F086FCCAE9000151EC1A0B53EC1C2B6B
:1016700001F07EFCCAE90201B8F81000B8F81210B7
:1016800088421ED207F140010CA8402201F0DEF989
:10169000DFF85C1984B06846402201F0D7F90FBC2E
:1016A000FEF767FFB0EE40CAF0EE60CA51EC180BCF
:1016B00053EC1C2B01F0B4FB03D2B0EE4C8AF0EEDD
:1016C0006C8AB0EE480AF0EE680A1DB0BDEC0A8BD9
:1016D000BDE8F08F00000000000000000FB42DE90D
:1016E000F0412DED068BA0B02CA984B068464022B5
:1016F00001F0ACF90FBCFEF763FF9F4D68639D4E90
:10170000012812D10020686306F5A86184B06846FC
:10171000402201F09BF90FBCFFF71CFCFFF756FDC0
:101720000FF6181000F03EFE18E1B5F9144006EB74
:10173000841040302CA9402201F088F9601CA88256
:1017400000B20A2801D10020A882288A0A2801D2E2
:10175000401C2882688A401C6882314682B06846F4
:10176000402201F073F90CBC0EA8FFF7E3FE288AB3
:101770000A2801D2002700E02F7D8B4CD4E900011C
:101780000022134601F09EF92FD1D4E9020101F0A5
:1017900099F92AD1D4E9040101F094F925D106EB95
:1017A0008716DFF8508896F9690088F8000006F27D
:1017B000690090F9011088F8011090F9020088F88A
:1017C0000200B6F86C00A8F80300DFF8240806F160
:1017D0004001402201F03AF9204606F14001402242
:1017E00001F034F90020A063B8E010A8FFF7C0FEB4
:1017F000B0EE408AF0EE608ADFF8F887288B400868
:1018000001F034FB53EC182B01F00AFB28D206EB55
:10181000871696F9690088F8000006F2690090F9C9
:10182000011088F8011090F9020088F80200B6F85B
:101830006C00A8F80300DFF8B80706F14001402269
:1018400001F004F9204606F14001402201F0FEF8C3
:101850000020A06368820FF2F47000F0A3FD7DE029
:10186000D8E90001CDE90001DDE90E23FFF7F1FC25
:10187000064631460FF2E47000F094FD286C4FF4F8
:101880007A717143884269D26F8A042F66D3A06B44
:10189000002816D19DED100B84ED000B9DED120B71
:1018A00084ED020B9DED140B84ED040BA663214621
:1018B00084B06846402201F0C9F80FBCFEF7C8FFAB
:1018C00043E0781E01F0C8FA41EC190B384601F0EC
:1018D000CDFA41EC1A0B51EC190BD4E9002301F0BD
:1018E000C1F9DDE92C2301F0CFFA53EC1A2B01F0FA
:1018F0003FFBC4E9000151EC190BD4E9022301F0CC
:10190000B1F9DDE92E2301F0BFFA53EC1A2B01F0F7
:101910002FFBC4E9020151EC190BD4E9042301F0B7
:10192000A1F9DDE9302301F0AFFA53EC1A2B01F0F5
:101930001FFBC4E90401A663214684B06846402227
:1019400001F084F80FBCFEF7C5FEA06B009053ECCD
:10195000182B698A0FF2147000F024FD20B0BDEC42
:10196000068BBDE8F0015DF814FB7047DFF84C060C
:10197000807B704760C200206C21012000C05B406A
:101980009A9999999999FD3F5839B4C876BE9F3F65
:1019900033335640AE47E17A14AEF73F9999993FF9
:1019A0000020AC40A0C70020402301200EB470B539
:1019B0002DED028B9FB00646DFF80046A06B08189D
:1019C000A06300A800F089FFDFF82C56284600A984
:1019D000052201F02BF8207B062800F2E782DFE8E1
:1019E00010F0070012007400C1006A011402C00266
:1019F000FFF7ECFB0120FFF745FD217B0FF2846030
:101A000000F0D0FCD2E225A983B06846582201F04C
:101A10001DF80EBC304680B2FEF77CFC002843D097
:101A2000D5E90001CDE903014D200090E36BDDE92C
:101A300003010A46014601A8FFF764FCDFF8BC0574
:101A400001A9052200F0F2FFDFF8B41582B0684664
:101A5000402200F0FBFF0CBC1CA8FFF76BFDD5E992
:101A60000001CDE90001DDE90023DDE91C01FFF7FC
:101A7000F0FB05463D2D07DB29460FF2186000F00C
:101A800091FCFEF787FC06E00120A06229460FF2D8
:101A9000146000F087FC0220FFF7F4FC217B0FF2BA
:101AA000146000F07FFC81E2A06A012840F07E8291
:101AB0000020A062DFF8481584B06846402200F09C
:101AC000C5FF0FBCFFF70AFE70E2FEF7F9FC002825
:101AD00034D00320FFF7D6FC0FF2E85000F062FC90
:101AE000607A00281FD0DFF81C55294684B068466C
:101AF000402200F0ABFF0FBCFEF762FD60630128DF
:101B000011D100206063DFF8E01484B06846402201
:101B100000F09CFF0FBCFFF71DFAFFF757FB0FF219
:101B2000B85000F03FFCDFF8D81484B0684640227B
:101B300000F08CFF0FBCFFF7D1FD37E2FEF710FD80
:101B4000002800F03382207A401C2072C0B20328A3
:101B500080F043810120FFF795FC0FF2985000F0D0
:101B600021FC23E2A06A012851D10020A062DFF805
:101B70009064607A00281DD0314684B068464022C7
:101B800000F064FF0FBCFEF71BFD6063012811D15C
:101B90000020606306F5A86184B06846402200F02A
:101BA00055FF0FBCFFF7D6F9FFF710FB0FF25C50A3
:101BB00000F0F8FB314684B06846402200F046FF52
:101BC0000FBCFFF78BFD31460CA8402200F03EFF12
:101BD000DFF8301484B06846402200F037FF0FBCB5
:101BE000FEF7C7FCB0EE408AF0EE608AE08A01F0B2
:101BF0003DF953EC182B01F013F908D20120FFF73F
:101C000041FC53EC182B0FF2105000F0CBFBD5E940
:101C10000001CDE90201DFF8D403D0E90023CDE9CA
:101C20000023DDE90223DDE90001FFF712FBA16BD0
:101C3000A26C8E1A332E08D30120FFF723FC314605
:101C40000FF2EC4000F0AEFBB0E1216C4FF47A7281
:101C50005043814280F0AA81DFF8A41382B0684625
:101C6000402200F0F3FE0CBC1CA8FFF763FCD5E992
:101C70000001CDE90001DDE90023DDE91C01FFF7EA
:101C8000E8FA05463D2D07DBFEF784FB29460FF2F7
:101C9000B84000F087FB06E00120A06229460FF261
:101CA000044000F07FFB0420FFF7ECFB0FF2A8409C
:101CB00000F078FB7AE1FEF72BFC002800F0828030
:101CC000D14E314684B06846402200F0BFFE0FBCC2
:101CD000FEF776FC6063012818D100206063C249DA
:101CE00084B06846402200F0B1FE0FBCFFF732F925
:101CF000FFF76CFA0FF2704000F054FB607B052890
:101D000040F054810120FFF7BDFB4FE1BD4D31464E
:101D10000CA8402200F09AFE294684B06846402272
:101D200000F094FE0FBCFEF724FCB0EE408AF0EE0B
:101D3000608AE08A01F09AF802460B4651EC180BD3
:101D400001F06EF82BD2607B052831460CD184B0AF
:101D50006846402200F07AFE0FBCFEF76FFE0FF2DD
:101D6000144000F01FFB10E00CA8402200F06EFEB3
:101D7000294684B06846402200F068FE0FBCFEF79A
:101D800063FF0FF2FC3000F00DFBFEF70CFB0520AB
:101D9000FFF778FB0FF2F03000F004FB06E10120C2
:101DA000FFF770FB53EC182B0FF2F03000F0FAFA4B
:101DB000934984B06846402200F048FE0FBCFFF70C
:101DC0008DFCF3E0FEF7CCFB002800F0EF80207ADA
:101DD000401C2072C0B2032807D30620FFF752FB35
:101DE0000FF2003000F0DEFAE0E0884820640320C3
:101DF000FFF748FB217A0FF2B83000F0D3FA216CDC
:101E00000FF2282000F0CEFAD0E0A06A012846D1D7
:101E10000020A0627A4E607A00281DD0314684B03E
:101E20006846402200F012FE0FBCFEF7C9FB60635B
:101E3000012811D10020606306F5A86184B06846CE
:101E4000402200F003FE0FBCFFF784F8FFF7BEF955
:101E50000FF2743000F0A6FA31460CA8402200F0D0
:101E6000F5FD684984B06846402200F0EFFD0FBCE4
:101E7000FEF77FFBB0EE408AF0EE608AE08A00F069
:101E8000F5FF53EC182B00F0CBFF08D20120FFF731
:101E9000F9FA53EC182B0FF23C3000F083FAD5E935
:101EA0000001CDE902015148D0E90023CDE900232A
:101EB000DDE90223DDE90001FFF7CBF9A16BA26C9C
:101EC0008E1A332E08D30120FFF7DCFA31460FF2C9
:101ED0001C3000F067FA69E0216C4FF47A725043CD
:101EE00081423BD2464E96F929008DF8700006F2E9
:101EF000290090F901108DF8711090F902008DF809
:101F00007200D5E90001CDE90001DDE90023DDE93A
:101F10001C01FFF79EF905463D2D07DBFEF73AFA57
:101F200029460FF2E02000F03DFA06E00120A06211
:101F300029460FF2E02000F035FA0420FFF7A2FA5C
:101F4000E07A401CE072C0B203282FD3606C4100DD
:101F500021640FF2D80000F025FA27E0FEF78EFB8F
:101F600024E0A06BA16C401A33280BD30120FFF7AB
:101F700089FA0FF2B42000F015FA0FF2C02000F039
:101F800011FA13E0A06A01280BD10120FFF77AFAB9
:101F90000FF2B42000F006FA0FF2A02000F002FACF
:101FA00004E0607B042801D1FEF768FB207B1FB0B2
:101FB000BDEC028B70BC5DF810FB00006C210120B1
:101FC00080EE3600F1D8FFFF005C2605C0E40A056C
:101FD000FCA9F1D24D62503F015C260500A4D9FA5C
:101FE00040774B41004CED40A0C70020C02A0120A3
:101FF00080230120B82A0120A82A0120B02A01202C
:1020000060C20020C022012000230120E0930400D0
:102010004C542053410000004C542044490000001F
:102020004C54204E6F20504F530000004C542D57FD
:1020300050204348414E4745202564004C542053CE
:10204000617665205341554D000000004C542052EC
:10205000455345545F474150000000004C54204711
:1020600041204D546D202564000000004C54205345
:102070005020534741522025642C2025662C2025D2
:10208000640000004C542D434B5F53544F502025A7
:10209000640000004C5420524551504F532D4620AF
:1020A000256400004C54204E2D524551504F532072
:1020B000256400004C542D4745545F315F504F5309
:1020C000202564004C542D434B5F555345525F4DC2
:1020D0004F564554000000004C54205353412D46A8
:1020E000500000004C542D53535F50415553455FF1
:1020F000535300004C542053535F475053204E4FCE
:1021000054204F4B20317374000000004C54205376
:1021100053412D554D0000004C542D434B5F5354FB
:102120004F502D554D2D64697374202566000000B5
:102130004C542D434B5F53544F502D554D2D7374BC
:1021400065702025640000004C5420524551504FCA
:10215000532D5320256400004C542D4745545F32C5
:102160005F504F53000000004C54205353412D53F7
:10217000500000004C54205544542053500000009F
:102180004C542053535000004C542D434B5F555337
:1021900045525F4C454156494E4700004C542D4333
:1021A0004845434B5F53544F502D535020256600F4
:1021B0004C542D475053204E4F54204F4B20326EDD
:1021C00064202564000000004C54205353412D55D9
:1021D0004C0000004C542D434B5F53544F502D5531
:1021E0004C20646973742025660000004C542D4314
:1021F0004B5F53544F5020554C207374657020250D
:10220000640000004C5420524551504F532D554C02
:10221000202564004C54204E2D524551504F532DD3
:10222000554C2025640000004C5420535320414756
:1022300041494E2042592053544550004C542D439F
:102240004B5F53544F5000004C5420535320414790
:1022500041494E20425920504F53000010B50446CA
:1022600010460A460146204601F052F8204610BDAD
:10227000BFF34F8FDFF81807016801F4E061DFF862
:10228000402711430160BFF34F8FFEE710B5DFF821
:1022900034474FF48E7200212046FFF7DFFF2046BF
:1022A00010BDDFF82007704710B5FFF7EFFF0446B9
:1022B00000231A461146084600F06EFAC046C04692
:1022C00001F05AF8204600F018F801F0ACFA204668
:1022D00000F0CFF9204600F014F8204600F01EF878
:1022E00000F092F900206072A072E0722073012069
:1022F00060730020E075012010BD0021C1710172E2
:1023000031E010B50446DFF88C0601F0E1F8DFF8A3
:10231000B80601F0DDF80120607110BD10B504466B
:1023200001F041F90120A07110BD38B50446012526
:1023300001F0ECF9012804D12846E0700020A070DB
:102340000AE0022804D10020E0702846A07003E0D3
:102350000020E070A0700546284632BD80B501F02F
:1023600027FB012002BD10B50446E07901F04EFCC8
:102370000121217010BD70B504460025E679E17198
:10238000FFF7F1FF002807D02046FFF7BAFF2046ED
:10239000FFF7C4FF012503E0E6712046FFF7E3FFE6
:1023A000284670BD0EB470B5C1B0054600A84FF404
:1023B000807102F0B7F9FFF774FF044645AB2A4677
:1023C0004FF4807100A802F0B1F900A802F0CCF936
:1023D000451C00A82818002100F8011CDFF8EC6556
:1023E0003078401C30707078F021084202D099207B
:1023F00002F0D6F902F041FA7078401C7070207E2D
:102400002818FF2810DA207E002803D0207E00192B
:102410000A2101762A4600A9207E0019193002F00F
:1024200043FA207E2818207600A802F094FC7078E9
:10243000F021084202D0992002F0B2F97078401ED3
:102440007070C0B2002801D102F011FA03F071F8E7
:1024500041B070BC5DF810FB0428DFF83C0503D8E0
:10246000DFF8301501607047DFF85C1501607047D8
:10247000DFF8281551F82000007F002807D0DFF88A
:10248000500501784A1C0270032900D3F0E670471A
:102490002DE9F84305460E4617464FF00208DFF8CF
:1024A0002C456078F021084202D0992002F078F99A
:1024B00002F0E3F96078401C60709DF80000401E57
:1024C0008DF8000017F8019B2846FFF7C5FF00AB09
:1024D0004A463946304601F0B2FC002810D06078F8
:1024E000F021084202D0992002F05AF96078401E8B
:1024F0006070C0B2002801D102F0B9F901201FE0DC
:102500005FFA88F8424629460FF2D040FFF74AFFAB
:102510004046A0F101080028D9D16078F021084296
:1025200002D0992002F03CF96078401E6070C0B281
:10253000002801D102F09BF92846FFF799FF0020FF
:10254000BDE8F2832DE9F04704460D4616461F46C6
:102550000898DFF84C8488F80000DFF8709499F848
:102560000100F021084202D0992002F019F902F08E
:1025700084F999F80100401C89F801002046FFF712
:102580006BFF4FF0020A434632463946284601F0B7
:1025900005FD002813D099F80100F021084202D06F
:1025A000992002F0FDF899F80100401E89F8010019
:1025B000C0B2002801D102F05AF9012022E05FFAEE
:1025C0008AFA524621460FF22040FFF7EBFE5046B2
:1025D000A0F1010A0028D6D199F80100F0210842A3
:1025E00002D0992002F0DCF899F80100401E89F829
:1025F0000100C0B2002801D102F039F92046FFF7EE
:1026000037FF0020BDE8F08703F0C2BCF8B50446F0
:1026100002270025DFF884630DE039464F1EC9B25A
:1026200000290AD1002804D120690121A94088434A
:10263000206102276D1C152D10DA56F82500006E5A
:10264000006880470128E8D121690122AA4011438E
:10265000216156F8251001220A77E3E72069032853
:1026600003D0022801D0012802D140F4805020611B
:10267000F1BD01F0D9BD01F034BE81B00022ADF84A
:102680000220ADF80020C079042808D0062809D01F
:1026900008280AD009280BD00A280CD00EE04FF4E5
:1026A000C8600DE04FF448600AE04FF4C85007E0FE
:1026B0004FF4FA5004E042F2107001E041F2707001
:1026C000ADF802200DE0BDF80020521CADF800204E
:1026D000BDF800208242F6DBBDF80220521CADF8A6
:1026E0000220BDF802208A4203D20022ADF8002069
:1026F000EEE701B07047417230B589B003F008FDD4
:102700000446FFF7CEFD054600A8242102F00AF892
:102710000020ADF8220001900A208DF8080000206A
:102720008DF809008DF80A00687A00280DD0002C79
:1027300018D000208DF80000052001900B208DF8A6
:10274000080000A805F034FB0CE0002C0AD00120A2
:102750008DF80000052001900B208DF8080000A8DE
:1027600005F026FB09B030BD01F0D8BD01F0E0BD99
:1027700001210846F8E701210846F7E70221012078
:10278000F2E702210120F1E701F0DCBD10B50446BB
:10279000FFF787FD447510BD2DE9F8430546174640
:1027A0000E464FF47A704FF03C0C4FF4616815FB05
:1027B00008F416FB0C443C1900FB0434DFF8E4E198
:1027C0009EF9009019FB08F89EF9019019FB0C8CFA
:1027D0009EF902804CFA88FCBEF9038000FB0C8055
:1027E0009EF808C0BCF1000F20D141EA050010435B
:1027F000184302D001208EF808008EF800502846B9
:10280000002802D518308EF800008EF801108EF8DE
:102810000220AEF8033000933B4632469EF900108A
:102820000FF2F410FFF7BEFDBDE8F183A0420ED316
:10283000A0EB040CACF2D17CDFF89881C445DCD36A
:10284000224601460FF2AC10BDE8F843AAE5D4D207
:10285000A4EB000CACF2D178DFF87891C845CCD36A
:102860006346224601460FF29C1001B0BDE8F043DA
:1028700098E510B504002FD003F0FFFC4949CA6861
:10288000002A00D0841AB1F80320A218A1F803206E
:1028900012B2B2F57A7F06DBA2F57A72A1F80320B4
:1028A0008A78521C8A7091F902203C2A04DB3C3A57
:1028B0008A704A78521C4A7091F901203C2A04DB44
:1028C0003C3A4A700A78521C0A7091F90020182A82
:1028D00001DB00220A70C86010BD3249052200F0F9
:1028E000A5B800000FB410B52DED028B2E4C10468C
:1028F00000F0BCFA2D4A2E4B00F0B4F92061616162
:102900009FED2C8B049800F0B1FA53EC182B00F0DB
:10291000A9F920606160059800F0A8FA53EC182B23
:1029200000F0A0F9A060E1609DF81C00207604F1A1
:1029300018009DF81D1041709DF81E1081709DF8C3
:102940001F10C1709DF820100171BDF8210000EE2C
:10295000100AB8EE400A10EE100A05F051FB174AB3
:102960001D4B00F07FF905F073FBC4F81D00BDF8A6
:102970002300A4F821009DF8250084F82300BDEC75
:10298000028B10BC5DF814FB0749242200F04EB8FE
:102990000CED00E0005400402C7A002000400020A4
:1029A000492B0120CC28012028260120FCA9F1D2A6
:1029B0004D62503F8DEDB5A0F7C6B03E3BDF4F8D69
:1029C0000400FA05940601200058004024790020F4
:1029D000482B01205F4C2605976EA23F49574520A2
:1029E00025642025640000004952452025642025E7
:1029F0006400000041542D53657454533120256404
:102A00002025640041542D536574545332202564AD
:102A1000202564202564000041542D536574542002
:102A200025643A25643A25642E25640062B38B0739
:102A300008D0521E11F8013B00F8013B00F0248041
:102A40008B07F6D1830740F0208000BF103A07D3F0
:102A500030B4B1E83810103AA0E83810F9D230BCE0
:102A6000530724BFB1E80810A0E8081044BF51F88C
:102A7000043B40F8043BD20724BF31F8022B20F876
:102A8000022B44BF0B7803707047083A07D3B1E8B4
:102A90000810083A40F8043B40F804CBF7D253073B
:102AA000E4E750F8041B61B150F8042BD30744BF8E
:102AB000A9F101039A18002342F8043B091FFAD137
:102AC000EFE7704790420CD141EA030C50EA4C0CFE
:102AD00007D0994205D14FF4001C1CEB410F38BFC1
:102AE0008942704770B44FF0004591EA030F44BF2C
:102AF0006B4000F0D3B900BF841A71EB030604D217
:102B00006E40001BB141121973414FF4001C1CEBC5
:102B1000410F34BF7CEB430684E00C0DA4EB13564D
:102B2000362E7DDC012E43DC45EAC32343EA5253B3
:102B300012BFD20292025B08240545EAC12141EA94
:102B40005051D2EBC020994125D407D1B0FA80F67C
:102B500010FA06F164D00020203608E0B1FA81F6C0
:102B6000B140C6F1200220FA02F21143B0404FEA10
:102B7000F474B4EB465434F001064FEA74040AD8F6
:102B8000D6F50016760D04F00044F04061FA06F226
:102B90005040F1404840C00A40EA415021F0004115
:102BA00028BF5FEA500550F1000044EBD12137E027
:102BB00045EAC323DB0A45EAC121C90AB6F120056B
:102BC0000EDD42EA0242120CC5F1200603FA06F6B7
:102BD000EB4042EA06056D42984161F100010DE0CB
:102BE00062FA06F5F240554063FA06FC82EA0C02EE
:102BF000F3405A406D42904161EB030111F4801F94
:102C000005D1641E620502D06D004041494121F4A6
:102C10008011430875F1004350F1000041EB04516D
:102C200070BC70471CEB410F15D223F0004352EAF1
:102C300043060BD04FEA4C0CBCEB410F04D80C0DF3
:102C4000661E342EB7DDEBE7801A994150EA410643
:102C500008BF0021E4E708BF1CEB430F28BF6FF05B
:102C60000001DDE7B0B581EA030C0CF0004C40F246
:102C7000FF7515EA11541DBF15EA1357AC42AF4258
:102C800039E0E41923EA455343F48013C90241F0C3
:102C9000004141EA505EC7021100A7FB0202002872
:102CA0004FF00000EEFB01204FF00001E3FB072195
:102CB00018BF42F00102401800214941E3FB0E0118
:102CC000A4F580640F0302D252004041494154F1FF
:102CD00001046CDD470872F1004250F1000051EB35
:102CE0000451A1F580115CBF41EA0C01B0BD4CEA72
:102CF00005510020B0BD05EA1357AC4214BFAF42E6
:102D000041E050EA410E1CBF52EA430E02E0614628
:102D10000020B0BD24423C441BD15FEA070EF6D030
:102D2000090302BF01460020AEF1140EB1FA81F78B
:102D3000AEEB070401FA07FE0C37C7F1200100FAD9
:102D400007F7C8404EEA000E23EA455343F48013C8
:102D5000A2E733F00043B3FA83F704BFB2FA82FE6E
:102D600077440B3FE41BB7F1200E2FBF02FA0EF39E
:102D7000BB40C7F1200E22FA0EFE38BF43EA0E0315
:102D8000BA40641C82E750EA410E14BF52EA430E77
:102D90006FF000014FF4001717EB430F8ABF19467D
:102DA00017EB410FB5E74CEA05510020B0BDD4F157
:102DB0000104B4F120070FDAC4F12007520828BF3C
:102DC00042F0010210FA07F501FA07F7E1BF2A43C2
:102DD000E0403843E1400FE0352C98DCC7F1200497
:102DE00052EA400220FA07F218BF42F0010231FA1B
:102DF00007F0A1400A43002172F1004250F10000A7
:102E000051EB0C01B0BD8268521C8260426832B145
:102E10000268531C036011704168491E416070478D
:102E20004FF4001C1CEB410F94BF1CEB430F09E057
:102E300041EA030C50EA4C0C52EA0C0C03D29942C2
:102E400008BF9042704714BF8B42824270470268AD
:102E5000531C036011707047010040F10980F44673
:102E6000404200F005F851F000416047010000BF0A
:102E700009D0B0FA80F18840C91CC1F58461090508
:102E800001EBD0214005704770B44FF0004591EA46
:102E9000030C44BF6B40FFF72FBE00BF841A71EBD9
:102EA000030603D2001BB141121973414FF4001CF9
:102EB0001CEB410F34BF7CEB430443E00C0DA4EB4F
:102EC0001356352E50DC45EAC323DB0A45EAC121FF
:102ED000C912B6F120050DDD63FA05F6EB4086EA6E
:102EE0000305124218BF45F00105C01851F1000159
:102EF0000CD213E062FA06F5F2405540F3415A4015
:102F0000B340F3405A408018594107D349085FEA5B
:102F100030005FEA350528BF45F0010501F5801155
:102F2000420875F1004250F1000041EB045170BCC1
:102F30004FF4001C1CEB410F38BF70470020090DF7
:102F4000090570471CEB410F10D252EA43060BD023
:102F5000BCEB410F05D80C0DAB43661E342EB5DD1E
:102F600002E0AB438018594170BC704770BC704799
:102F7000F0B540F2FF7581EA030C0CF0004C15EA45
:102F800011541DBF15EA1357AC42AF42E5E0BC41F6
:102F9000C1F31301C3F31303801A994143F480135F
:102FA00004D2641E4000494180185941C90241EAD7
:102FB0005051B1FBF3F603FB1611A2FB0675D7EBDC
:102FC000C020A94102D2761E80185941C90241EAA7
:102FD0005051B1FBF3FE03FB1E11A2FB0E75D7EBA4
:102FE000C020A94103D2AEF1010E801859418902D7
:102FF00041EA9051760546EA8E2EB1FBF3F603FBCB
:103000001611A2FB0675D7EB8020A94102D2761ECD
:1030100080185941C90241EA50514EEA060EB1FBEF
:10302000F3F603FB1611A2FB0675D7EBC020A941EE
:1030300002D2761E80185941C90241EA5051B1FBB3
:10304000F3F703FB1711A2FB0735D3EBC020A9410F
:1030500067F100070CBF004247F0010766F3D52770
:103060004FEA1E31B80814F5806412DDBD0775F112
:10307000004250EB0E5051EB045111F5801F5CBF24
:1030800041EA0C01F0BD4CF07F6141F0E0410020CD
:10309000F0BDBD076D0840EA0E5041F48011D4F137
:1030A0000104B4F120060ADAC4F120060200E0406F
:1030B00001FA06F3E1401843B24015430EE0342C08
:1030C00013DCC6F1200445EA40056D0820FA06F23B
:1030D000154321FA06F0A1400D43002175F100428D
:1030E00050F1000051EB0C01F0BD00205FEA0C0133
:1030F000F0BDCFB992185B41B3FA83F704BFB2FABF
:1031000082F6BF190B3FB7F120062FBF02FA06F374
:10311000BB40C7F1200622FA06F638BF3343BA4057
:103120001CB1E419641E33E77F4231F00041B1FA6B
:1031300081F404BFB0FA80F6A4190B3CB4F1200668
:103140002FBF00FA06F1A140C4F1200620FA06F6CE
:1031500038BF3143A0403C1B1AE7AC421ABF05EA16
:103160001357AF4212E050EA41061CBF52EA430631
:10317000BFE750EA4107304661461CBF41EA0551AE
:10318000F0BD52EA430C08BFC143F0BD00204FF42C
:10319000001616EB410F98BF16EB430F08BF16EB56
:1031A000410F24BFC14305E016EB430F0CBF61463E
:1031B0004CEA0551F0BD000051EC100B00B500F0D9
:1031C00003F841EC100B00BD40F2FF7C0B0D4DD01D
:1031D000634566D230B421EA035141F4801103F211
:1031E000FD3C5FEA5C0C01D300184941890041EACB
:1031F000907180004FF440140023E202D50AB1F52B
:10320000100107D46D081DD2091B6419001849412B
:10321000491BF7D56D080AD20919641B00184941EA
:10322000491BEFD56D08F7D301E0520817D0C0183D
:1032300061419B1AAC4100184941801AA941F4D45C
:1032400052080AD0C01AA1419B186C41001849418C
:10325000801AA941E9D45208F4D15B1C6C41610881
:103260004FEA330001EB0C5130BC704750EA0103C8
:10327000FBD030B4B1FA81F311B9B0FA80F41B1964
:103280000B3BB3F120042FBF00FA04F19940C3F1C6
:10329000200420FA04F438BF21439840D3F10103FD
:1032A0009DE76345E1D011F5801FDED850EA41016A
:1032B000DBD0D94304F014BFF446400D40EAC120EE
:1032C000490006D200F014F8004248BF6FF00040F9
:1032D000604700F00DF84FF0004188428CBF08466F
:1032E00040426047400D40EAC120490080F00D8017
:1032F00040F00040490DA1F58061491C05D4D1F191
:103300001F0154BFC840C01770474FF000007047FE
:1033100062F30F2262F31F42401810F0030308D03B
:10332000C91A1FD3DB0748BF00F8012D28BF20F8BA
:10333000022D130030B414461546103928BF20E979
:103340003C00FAD8490728BF20E90C0048BF40F8E4
:10335000042D890028BF20F8022D48BF00F8012D58
:1033600030BC7047C91818BF00F8012DCB0728BF23
:1033700000F8012D7047000030B583B00121032013
:1033800004F018FFDFF80C4C204604F0AFFFDFF824
:10339000085C284604F0AAFF01208DF804000020F4
:1033A0008DF8050001208DF8060000208DF807003B
:1033B000012128460183C0460120009000A928462B
:1033C00004F0F0FF022128460183C046022000904D
:1033D00000A9284604F0E6FF01208DF80400002033
:1033E0008DF80500ADF806004FF48070009000A93C
:1033F000284604F0D7FF4FF4807128464183C04629
:1034000001208DF8040000208DF8050001208DF8C2
:10341000060000208DF807004FF48050009000A9AE
:10342000204604F0BFFF4FF4805120464183C04640
:1034300004220621284605F003F804220721284625
:1034400004F0FEFF02208DF8040001208DF8050035
:103450008DF8060000208DF807004020009000A99C
:10346000284604F09FFF8020009000A9284604F021
:1034700099FF04220A21284604F0E2FF09220321D1
:10348000284604F0DDFF02208DF8040001208DF8AD
:1034900005008DF8060000208DF807004FF48060CD
:1034A000009000A9284604F07DFF0820009000A9A4
:1034B000284604F077FF286820F0300040F0100024
:1034C0002860206820F0300040F01000206037BDF8
:1034D0001FB5DFF8A84CA04230D101214FF40010F5
:1034E00004F073FE0121022004F064FE01214FF478
:1034F000001004F08BFE00214FF4001004F086FE53
:103500000020ADF804004BF6FF70ADF806004FF454
:103510008060ADF80A004FF48040ADF80C000A203E
:10352000ADF80800DFF8580C009000A9204604F020
:10353000CAFF0121204605F029F81FBDDFF8444CE1
:10354000A0422FD101214FF4800004F03EFE012162
:10355000022004F02FFE01214FF4800004F056FEFB
:1035600000214FF4800004F051FE0020ADF804006B
:103570004BF6FF70ADF806004FF48060ADF80A001E
:103580004FF48040ADF80C000A20ADF80800DFF8D9
:10359000F00B009000A9204604F095FF0121204681
:1035A00004F0F4FF1FBD2DE9F04192B001214FF46A
:1035B000805004F015FE0121084604F0FBFD0121B6
:1035C0004FF4800004F0F6FDDFF8C84905221146EB
:1035D000204604F035FF05220721204604F030FF85
:1035E00005220621204604F02BFF05220421204657
:1035F00004F026FF02208DF8040001208DF805005C
:103600000020ADF806002020009000A9204604F01C
:10361000C9FE8020009000A9204604F0C3FE40208F
:10362000009000A9204604F0BDFE1020009000A9E3
:10363000204604F0B7FEDFF8504B204605F008F8AE
:10364000DFF8485B00202880686001202881002086
:103650006881E8600720288200206880DFF8306BEE
:10366000304605F065F8DFF82C7B384605F060F849
:103670004FF48060069000210D9103210E910021EE
:103680000F910A910890DFF8C80B0390084610903C
:10369000099007904FF400300C9008460B904FF0C3
:1036A000C068CDF80880402005900846049002A923
:1036B000304605F0C1F800200B90CDF80880059049
:1036C00005F11400049002A9384605F0B5F8002071
:1036D00068802946204604F0EAFF012202212046A4
:1036E00005F014F801221146204605F00FF80121DB
:1036F000204604F0FFFF0021304605F0C4F8002109
:10370000384605F0C0F812B0BDE8F08130B589B098
:1037100001214FF0805004F058FD012005F01CF904
:1037200001214FF4802004F045FD0F2005F0C4FA7C
:103730000446102005F0C0FA0546012004F037FDCC
:10374000002004F034FD21460F2005F0A8FA294698
:10375000102005F0A4FA00214FF4802004F02AFD87
:10376000012004F0C3FC412004F071FD0028FAD0D0
:103770004FF4807004F005FD012004F015FD05F004
:103780003EF93F20069040F2FF1007900020059080
:1037900005A805F0EBF80020029002A905F050F909
:1037A00000208DF8070001208DF804008DF8050039
:1037B0008DF8060001A9002005F0BBF94FF4800048
:1037C00005F05AFB4FF48000039000208DF81000A4
:1037D00008208DF8110001208DF8120003A805F0D3
:1037E00009FB03208DF800000D208DF8010000205A
:1037F0008DF8020001208DF8030000A805F049FBB8
:10380000032005F00AFA4FF4804005F0C0FA4FF4A7
:10381000800005F031FB01214FF4804005F07DFA76
:10382000012009B030BD30B585B00121084604F053
:10383000C1FC01214FF4804004F0D2FC00208DF83F
:1038400010008DF8130001200390DFF8485703A9FA
:10385000284604F0A7FD4FF40064039403A928460A
:1038600004F0A0FD0420039003A9284604F09AFD6B
:103870000021084605F046FB0B21002005F042FB25
:103880000221002005F03EFB00208DF808000120F9
:103890008DF80A0001900C208DF8090001A805F0B0
:1038A000A9FA01940C208DF8090001A805F0A2FAEC
:1038B000204605F0E1FA042001900C208DF8090063
:1038C00001A805F097FA042005F0D6FA28208DF813
:1038D00000000F208DF8010000208DF8020001206B
:1038E0008DF8030000A805F0D4FA05B030BD30B55E
:1038F0008DB0044601214FF4807004F071FC00A8E3
:1039000004F08AFD0A20009003208DF804000020B6
:103910008DF8070000A9DFF87C0604F043FD05F0F0
:1039200005FB02A805F047FB4FF48030039002A886
:1039300005F033FB06A805F026FBDFF8705B06A94F
:10394000284605F000FB072301222146284605F002
:1039500043FB0121284605F084FB0121284605F0A0
:1039600030FB0DB030BD38B5DFF8404B204605F0D8
:1039700073FB4FF47A750221204605F089FB00287D
:1039800003D12846451E0128F5DA2046BDE832401D
:1039900005F072BB80B50021DFF8100B05F011FBBC
:1039A00000214FF48070BDE8044004F019BC000011
:1039B00038B5040039D0012004F0CEFF002005F016
:1039C00046F94FF40055042005F0C2F9012804D14E
:1039D0002846451E80B20028F5D100EE104AB8EE08
:1039E000400ADFED780A80EE800AF0EE000A20EE51
:1039F000200ADFED750A80EE800ABDEEC00A10EEE7
:103A0000100A401E80B205F018F94FF4804005F00E
:103A1000BEF94FF4800005F02FFA012005F017F9E8
:103A2000DFF8800B0121416031BD012004F094FFDB
:103A30000020BDE8324005F00AB9000030B401466C
:103A400001200023DFF8682A1C469460946814F073
:103A50000C0FFBD10C460B2C55D8DFE804F020549A
:103A6000545406192031383F464D946844F0800480
:103A70009460DFF8404A4FF4C0652560146824F074
:103A800080741460DFF8B04ADFF82C5A25603BE000
:103A90000346DFF8A44ADFF8A45A256034E09468AE
:103AA0009460DFF8104A4FF4C0652560146824F074
:103AB00080741460DFF8804ADFF8845A256023E0C0
:103AC0000223DFF8744ADFF87C5A25601CE00323E8
:103AD000DFF8644ADFF8705A256015E00423DFF848
:103AE000584ADFF8C45A25600EE00523DFF8484A3B
:103AF000DFF8B85A256007E00623DFF83C4ADFF814
:103B0000B05A256000E01846002B4AD003EBC303EF
:103B10000FF2B8041B1994689460146824F0807440
:103B20001460146824F0806414609C781D8844EA52
:103B30008514DD786D086D1E44EA05441D7944EA5C
:103B400005645460DC881D7A2D0745EA8414DFF88B
:103B5000C05A2C60146844F0807414601468A40186
:103B6000FCD55B7943F4C063DFF848492360936870
:103B7000936093689360052904D1916841F09001A6
:103B8000916005E00A2903D1916841F48051916068
:103B9000916841F002019160916801F00C010829DF
:103BA000FAD1DFF894190968DFF8682A914207D240
:103BB000DFF8F41A0A6822F4404242F480420A60B4
:103BC00030BC704700007A44000000472001100418
:103BD0000F03020103F00010060F01020103C000F1
:103BE00010080F01020103C00010060F01020103BB
:103BF000F00010060F01020103C80010040F0202BA
:103C00000103A80010020F030201030016E70028B9
:103C100000E0401EFDD170477CB50726DFF85C153B
:103C200088426BD101208DF804008DF805008DF8D5
:103C3000060000208DF8070040200090DFF8885A29
:103C400000A9284604F0AEFB8020009000A9284679
:103C500004F0A8FB402128464183C0460F20FFF70F
:103C6000D6FF402128460183C0460F20FFF7CFFF33
:103C70003046461E80B20028ECD18020009000A97A
:103C8000284604F08FFB402128464183C04605208A
:103C9000FFF7BDFF802128460183C0460520FFF7BE
:103CA000B6FF402128460183C0460A20FFF7AFFF38
:103CB000402128464183C0460520FFF7A8FF802108
:103CC00028464183C0460520FFF7A1FF02208DF85A
:103CD000040001208DF805008DF8060000208DF805
:103CE00007004020009000A9284604F05BFB8020DC
:103CF000009000A9284604F055FB73BDDFF884143A
:103D000088426AD101208DF804008DF805008DF8F5
:103D1000060000208DF807004FF480640094DFF85F
:103D2000A85900A9284604F03DFB0820009000A9EE
:103D3000284604F037FB214628464183C0460A2026
:103D4000FFF765FF214628460183C0460A20FFF79A
:103D50005EFF3046461E80B20028ECD1082000905D
:103D600000A9284604F01EFB214628464183C04690
:103D70000520FFF74CFF082128460183C046052097
:103D8000FFF745FF214628460183C0460A20FFF77A
:103D90003EFF214628464183C0460520FFF737FFF6
:103DA000082128464183C0460520FFF730FF022046
:103DB0008DF8040001208DF805008DF80600002024
:103DC0008DF80700009400A9284604F0EBFA0820BB
:103DD000009000A9284604F0E5FA73BD10B5DFF89D
:103DE000EC480121206804F00AFC206804F03CFB48
:103DF0002068FFF76DFB05E02068FFF70DFF2068E6
:103E0000FFF766FB4FF40031206804F003FC002844
:103E1000F2D110BD30B40022838A008BDFF8AC48A9
:103E2000656843EA00400840000255EA10206060DF
:103E30000840884200D10122104630BC70472DE96D
:103E4000F84F04460D4616464FF420491F78DFF818
:103E50007C884FF40031D8F8000004F0DBFB002828
:103E600008D04846A0F101090028F2D1FFF7B6FFBB
:103E700000208CE0D8F8000001884FF6FF52114076
:103E800001800121D8F8000004F08CFB4FF4805A27
:103E9000D1460020C8F80400D8F800B0DFF8301888
:103EA0005846FFF7B7FF002805D14846A0F10109A1
:103EB0000028F1D163E0D14600222146584604F0A3
:103EC00089FB0020C8F80400D8F80040DFF8041887
:103ED0002046FFF79FFF002805D14846A0F10109C1
:103EE0000028F1D14BE03146C9B220460182C046DC
:103EF000D1460020C8F80400D8F80040DFF8D817F1
:103F00002046FFF787FF002805D14846A0F10109A8
:103F10000028F1D133E0012F15D129782046018204
:103F2000C046D1460020C8F80400DFF8B017D8F822
:103F30000000FFF76FFF002823D14846A0F10109D8
:103F40000028F2D11BE03846471EC0B2002818D026
:103F500015F8011BD8F800000182C046D1460020A8
:103F6000C8F80400DFF87417D8F80000FFF752FF14
:103F70000028E8D14846A0F101090028F2D100202C
:103F800005E00121D8F8000004F018FB0120BDE88D
:103F9000F28F000000000240000402402DE9F54FBE
:103FA00081B00D461E464FF420483778DFF81C4795
:103FB0004FF40031206804F02DFB002808D0404663
:103FC000A0F101080028F3D1FFF708FF0020D3E09B
:103FD000206801884FF6FF521140018001212068BE
:103FE00004F0E0FA4FF48059C84600206060DFF822
:103FF000E0A6D4F800B051465846FFF70BFF002862
:1040000005D14046A0F101080028F2D191E000223C
:104010009DF80410584604F0DDFAC84600206060A0
:10402000D4F800B0DFF8AC165846FFF7F3FE0028CE
:1040300005D14046A0F101080028F1D179E0BDF892
:104040000810C9B258460182C046C846DFF890162B
:10405000206804F0DFFA002805D14046A0F10108ED
:104060000028F3D165E00121206804F09BFAC846DE
:1040700000206060D4F800B051465846FFF7CAFEF1
:10408000002805D14046A0F101080028F2D150E0F7
:1040900001229DF80410584604F09CFA022FC846ED
:1040A00039D2DFF84016206804F0B4FA002805D1B0
:1040B0004046A0F101080028F3D13AE00021206831
:1040C00004F091FA2068018B012104F077FAC846C8
:1040D000DFF81416206804F09DFA002805D1404648
:1040E000A0F101080028F3D123E02068008AC0B2C3
:1040F00028703078401E3070C846206801888905D5
:1041000005D54046A0F101080028F6D111E00121B3
:1041100004F069FA2BE000206060DFF8D015206819
:10412000FFF778FE002806D14046A0F101080028DC
:10413000F3D1002020E0012616E0012F0CD1012E42
:104140000AD100263146206804F04DFA2068818AA1
:10415000018B012104F032FA2068818A490603D5D7
:10416000008A05F8010B7F1EFFB2002FE5D1012167
:10417000206804F038FA0120BDE8FE8F00540040AA
:10418000801A06000058004000300140042601203B
:104190008864024010640240DFF854050168082971
:1041A00033D1DFF80C130A6842F080720A6042686B
:1041B000B2F1806F03D10A6842F080620A600A6837
:1041C0009201FCD58A6842F002028A608A6802F095
:1041D0000C02082AFAD14268B2F1806F02D10A6853
:1041E0001201FCD5DFF850130968DFF8282491424A
:1041F00007D2DFF8B4140A6822F4404242F4804245
:104200000A6000210160416070474168B1F1806F30
:1042100009D1A7490A6842F080620A600A6812015F
:10422000FCD5002141607047DFF8C804016841F007
:1042300080510160DFF8700401688908890041F04D
:1042400001010160DFF8B0040FF20901016070475D
:104250000C30014038B5DFF8A444208840F0040059
:104260002080FEF71EF8807A012803D1012004F097
:1042700076FB02E0002004F072FBDFF8845480211A
:10428000DFF8800404F04CFA002818D172B6884890
:10429000DFF85C14826802F00C020A60006800F02B
:1042A00080604860286840F00400286030BF62B633
:1042B000286820F004002860FFF76EFF0CE060889B
:1042C00040F004006080286820F00400286030BFBF
:1042D000286840F004002860608840F00400608096
:1042E00031BDDFF81404006800470000DFF818143F
:1042F000012806D010D3032809D005D3042809D0FB
:104300000AE0DFF8C41307E0DFF8001404E0DFF888
:10431000001401E0DFF8FC130846704710B50C46A6
:10432000FFF7E4FF214689B2BDE8104004F084B8ED
:1043300010B50C46FFF7DAFF214689B2BDE8104000
:1043400004F07CB8E0B500238DF8083001238DF827
:104350000A30002A03D10C228DF8092002E008223D
:104360008DF8092004283CD8DFE800F0030D19225D
:1043700022004FF40060019028208DF800000F20EB
:104380008DF801001CE01846019010208DF80900FE
:1043900006208DF800000E208DF8010010E00220AC
:1043A000019007208DF800000F208DF8010007E034
:1043B0000420019008208DF800000F208DF80100E6
:1043C00000208DF80200012903D118468DF8030062
:1043D00001E08DF8030001A804F00CFD00A804F032
:1043E00058FD07BD4FF40061C74804F01EB810B572
:1043F000044601214FF4802003F0DCFE214610200A
:1044000004F04DFC00214FF48020BDE8104003F083
:10441000D1BE10B501214FF4802003F0CBFE102057
:1044200004F04AFC044600214FF4802003F0C2FE51
:104430007B2003F00CFF002802D09CA0FDF7B2FF08
:104440007A2003F004FF002802D099A0FDF7AAFF0C
:10445000792003F0FCFE002802D096A0FDF7A2FF11
:104460007C2003F0F4FE002802D093A0FDF79AFF11
:104470007D2003F0ECFE002802D090A0FDF792FF13
:104480007E2003F0E4FE002802D08DA0FDF78AFF15
:104490007F2003F0DCFE002802D08AA0FDF782FF17
:1044A00003F0EBFE2046C0B210BD0000002001402A
:1044B00000380240003C024000127A003EB50C4633
:1044C00015460422014602A800F0EEF90422214616
:1044D00001A800F0E9F90422294600A800F0E4F957
:1044E00002A9002004F0ACFA01A9002004F021FB8D
:1044F00004F01AFB0446884A002300981946101A53
:1045000063EB0101490241EAD051400204F0EAFDA7
:104510000090844205D2011B4FF0004004F0D9FB0B
:1045200037BDA04207D2C4F50070009909184FF0BA
:10453000004004F0CEFB37BDD8790020809698006B
:104540000024F40000366E010048E8012DE97043B4
:1045500084B004460D46164602A9002004F0BFFAB6
:1045600001A9002004F035FB04F0DEFA00906A4A4D
:10457000A2FB00894FEA582848EAC958A2EB080074
:104580000090042202A9204600F08EF9042201A91D
:10459000284600F089F9042200A9304600F084F989
:1045A000BDE87F833C2A0120005A620280F0FA02B3
:1045B00000BD0105F0B4049C059D8E1E012E01DA9C
:1045C0000C36401E3C216427B0FBF7F7C7EB900781
:1045D0004FF4C87CB0FBFCFC674440F26F1C0CFB42
:1045E00006F64FF00C0CB6FBFCF6F619921940F2E9
:1045F0006D1606FB0020494A101800EB400203EB41
:10460000C20001FB004001FB0050F0BC70470000FD
:1046100084380240018793031CB50C460168019160
:10462000416800918368C2680169491C406900F2D1
:104630006C70FFF7BFFF2060002016BD10B58EB074
:1046400037480068C405E40D01A9002004F047FACA
:1046500000A9002004F0BDFA9DF8040006909DF822
:10466000050005909DF8060004909DF80100401E8D
:1046700008909DF8020007909DF8030064300990AF
:1046800002A904A8FFF7C8FF4FF47A7010FB04F0EA
:10469000400AC0F57A700390029A4FF47A73C117FA
:1046A000E3FB02010EB010BD00700040504F5200FD
:1046B00050494E00424F520053465400495744005F
:1046C000575744004C505700000402402C7A0020F9
:1046D000010003008200070080000700840007003B
:1046E000040000100200001040000010020003004F
:1046F000442A0120403802403C2A01201800024090
:1047000010ED00E0003001400000024000080240CF
:10471000000C02400010024000CA9A3B7505F5FFEC
:1047200028280040002204F055BD000008B584B0E0
:104730000023029311B90093019302E00090481EF8
:10474000019004AB00A907487844183004F05CFDE0
:10475000009909B100220A70002858BF029805B0DC
:1047600000BD00BFA3E6FFFF00F10103810704D0F5
:1047700010F8011B89B18107FAD10268B2F1013149
:10478000914311F0803F04BF50F8042FF6E710F872
:10479000011B11B110F8011BFBE7C01A70470000A4
:1047A00000B585B002460FF2140100A805F094FB95
:1047B00000A800F099FB05B000BD00004F4525643E
:1047C0000000000030488168002904BF08B008E0FC
:1047D000EFF30982A2F12802036882E8F84F8368A8
:1047E0005A6000F04DFD816859B14A6892E8F84F6F
:1047F000036002F1280282F3098813F47F4F36D058
:104800007047224822490968401A80F308884FF00F
:104810008071C1611F4981617FF0060E704701BC44
:104820002046DFF874E000BDFEE71C480068184928
:104830000968401A203820F0070080F308884FF0FC
:10484000000181F3118862B600F00DF8FEE74FF029
:10485000000181F311881249124A0A604FF0800169
:1048600081F3118870470E490E4A0A6070474FF075
:10487000000181F31188704700BF4FF0800181F380
:104880001188704700BF000024790020E01F00203D
:10489000EC1D030825A200082948000800000008B4
:1048A00004ED00E00000001010B50446FEF7BEF86D
:1048B000204610BDEFF303807047BFF34F8FDFF842
:1048C0006C06016801F4E061DFF8642611430160C1
:1048D000BFF34F8FFEE770B582B006460C46204608
:1048E000FFF742FF0546202D05D10422314600A8DE
:1048F000FFF7DAFF06E0102D16D10222314600A89C
:10490000FFF7D2FF002000E0401CA8420EDA015D54
:104910007829F9D0009A2B465B1E1B1ADA4002F068
:10492000010230398A42EFD0002076BD012076BDE9
:10493000DFF80016016006207047A0F10060DFF884
:10494000F81588428041C00F7047F8B504460D46FF
:10495000002000902068FFF7F0FF00281AD000A880
:10496000FFF7E6FF0646002700E07F1CB74211D2A2
:10497000009850F8371000EBC700406840422268AA
:10498000520810EB4200FFF7A6FF0028EDD02F6081
:104990000120F2BD0020F2BDF8B50C46DFF89C15F1
:1049A0000A6D4B6D002559082E465F1B062F11D34B
:1049B000482707FB01273F6C874200D20D46B842CB
:1049C00000D20B46E918490837467E1C1F2FECD34E
:1049D00000E06D1C9D4211D2482707FB05210E6C9B
:1049E000B042F6D34E6C8642F3D34022204605F007
:1049F0008DFA002084F840000120F2BD40220FF221
:104A00000861204605F082FA0020F2BDF0B591B0B1
:104A1000044600250EE032590FF2F85100A805F0C7
:104A20005BFA00A8FFF7A0FE024600A9381D05F0BA
:104A30006DFA6D1C05EBC500C600305900280BD07F
:104A4000371900A9FFF7A8FF0028E4D0402200A9E9
:104A5000381D05F05BFAECE711B0F0BDF8B507467C
:104A60000C461546002630460090002F1ED0002C24
:104A700009D1F2BD06EBC600C00057F8041B490877
:104A800049004151761C0C2E0FD200A93846FFF781
:104A90005CFF002807D13868FFF74FFF002802D1DC
:104AA0003F1DBC42F1D2BC42E4D23046F2BD70B5EB
:104AB000DFF88C140A460B68D21A1368DFF88444B6
:104AC000A34201D0002070BDDFF87044121D2265A2
:104AD0000968091F4822B1FBF2F1616510F1030F6B
:104AE00002D010F1130F0AD1DFF85C54A86805F06A
:104AF00043FA0646A86805F04BFA811905E005F06F
:104B000055FA054605F054FA4119DFF84054A069FA
:104B1000286005F14802A06AFFF7A0FF2846FFF7CA
:104B200075FF012070BD0EB430B5CCB0044600A8AE
:104B30004FF49671FFF7F6FD00254FAB22464FF478
:104B4000967100A8FFF7F2FD00A8FFF70DFE0446DE
:104B500009E0DFF8E813C86D421CCA6500A9695C6A
:104B600005F08EFA6D1CA542F3D34CB030BC5DF855
:104B700010FB38B50024DFF8C453E8650FF29C4001
:104B8000FFF7D1FFDFF8C80301680FF2B440FFF769
:104B9000CAFFA86C0090AB6B6A6B296B0FF2B84030
:104BA000FFF7C1FFE96C0FF2E840FFF7BCFF6A694D
:104BB000A9690FF2F040FFF7B6FF0FF20050FFF7C0
:104BC000B2FF06E01018021D0FF20850FFF7ABFF0E
:104BD000641C04EBC400C200DC4811580029F1D168
:104BE0000FF2FC40FFF79FFFA86D441E002505E073
:104BF0000918BCA0FFF797FF641E6D1C3C2D09D25D
:104C0000002C00D53B24322000FB04F1D1480A5C83
:104C1000002AEDD131BDD048D0490A6802604A6807
:104C200042608A688260CA68C2600A6902614A6931
:104C300042610A7E8261097F8161C9490A78826185
:104C40004A6842628A688262CA68C2620A6902630A
:104C50004A6942638A698263CA69C2638A6EC0F81C
:104C60008820C04A9369C0F89830D368C0F88C3067
:104C70001369C0F890305369C0F894300B6FC0F8D6
:104C80009C304B6FC0F8A0308B6FC0F8A430C96F58
:104C9000C0F8A810B4490968C0F8AC10B3490B6853
:104CA000C0F8CC304B68C0F8D0308B68C0F8D43036
:104CB000CB68C0F8D8300969C0F8DC105168C0F87A
:104CC000E8101168C0F8E410704770B506460C464D
:104CD0009A4D6FF01E01401A14D0083812D0001FF0
:104CE00005D0001F0ED008380CD0001F10D104F1E1
:104CF00020002862EFF3148040F00200E862286A86
:104D0000A86205E004F120002862EFF31480E86255
:104D1000EFF308806862EFF305802863EFF300800B
:104D20006863FFF7C7FDA863EFF31080E863EFF354
:104D300011802864EFF313806864F1EE100AA86410
:104D4000EE64002004E054F8201045F82010401CC8
:104D50000828F8D370BD70B5784CA16D3C2901D3FB
:104D60000021A165A56D32217A4A01FB05260A467C
:104D700001463046FFF798FD002086F83100681C98
:104D8000A06570BD70B5014674462046FFF79DFFD3
:104D9000FFF741FF2046FFF78AFE00F09AF800284F
:104DA00032D100F034F805F00BF9F32005F082F968
:104DB0006F484FF00054002505E02178641C05F091
:104DC0005FF930466D1C461CB5F5C03FF5D3532145
:104DD00005F056F95221304605F052F9741C412174
:104DE000204605F04DF9641C4D21204605F048F998
:104DF0006048C046C04604F10D00FFF7BAFE05F05A
:104E0000E8F85D4800F01FF8BDE8704055E510B5C2
:104E100005F0D6F8F32005F04DF9584C3820206005
:104E200002E02068083020602068402807D2002176
:104E300005F0D5F80928F4D0FFF73FFDFCE7BDE801
:104E4000104005F0C6B838B5044605F0B9F8F320AF
:104E500005F030F93E480168204605F0F5F8241DBC
:104E6000FF21204605F00CF9641C424D697920466B
:104E700005F006F9641CE978204605F001F9641C88
:104E80002979204605F0FCF8641C2978204605F0B5
:104E9000F7F8641C6978204605F0F2F8641CA978DC
:104EA000204605F0EDF8F521601C05F0E9F8BDE8B5
:104EB000314005F08EB880B505F082F8F32005F09A
:104EC000F9F8AA212E4805F0DBF8BDE8014005F00D
:104ED00080B800202A490978F52900D101207047BF
:104EE0000000000025730A0010B50446FFF73CFCE3
:104EF000C0B2142800D31320024621462148FFF7F0
:104F0000D3FC4FF0AC30007810BD80B500F04BF80A
:104F1000BDE80140D1E480B5FFF7CDFF4FF4C832C2
:104F200013490020BDE8084001F08EBF0CED00E001
:104F30000400FA05C478002001F80200181A0120C4
:104F4000FC4F0508FECAFECA24790020CCE70020E9
:104F5000447A0020F0AF0020AC08012000ED00E012
:104F600020ED00E004E000E0A0ED00E034EF00E020
:104F700000000608342A0120F4FF0708D82A01207F
:104F8000FFFF0708E027012010B500F01BF80FF223
:104F900070142046FFF7E8FB024621460020BDE8DA
:104FA000104001F051BF80B501214FF4802003F083
:104FB00001F9012003F0D0FC94210F20BDE804404A
:104FC00003F06DBE80B501214FF4802003F0F2F8AC
:104FD000012003F0C1FC00210F20BDE8044003F0D4
:104FE0005EBE10B5002401214FF4802003F0E2F8EA
:104FF000012003F0B1FC0F2003F05EFE942800D1E5
:105000000124204610BD00004E6F2053796D626F61
:105010006C00000030782530387800000A0A0A0A4F
:105020003D3D2043726173682044756D7020496E68
:10503000666F726D6174696F6E203D3D0A000000FD
:105040004669726D776172652056657273696F6E1D
:10505000203A2025640A00000A49505352203D207E
:10506000307825782C2041505352203D203078252F
:10507000782C2078505352203D20307825782C20F1
:105080005046534352203D20307825780A000000D6
:105090000A6661756C74206D6F6465203D20307800
:1050A000257800000A5043203D20307825782C20B8
:1050B0004C52203D20307825780A00000A3C43728B
:1050C0006173682043616C6C20537461636B3E0AAA
:1050D0000000000030782578202025730A000000A9
:1050E0000A0A3D3D20526563656E74204C6F67204F
:1050F0004D65737361676573203D3D0A00000000D4
:10510000534E414D590000000000000038B5FFF734
:10511000B4FBDFF830068468DFF82806002101714F
:10512000FFF7A5FB002C2CD02068002829D0607C3C
:105130002168497CC0B2814223D1256800E00D007E
:105140002968002903D04A7CC0B28242F7D0FFF719
:1051500094FBDFF8F0050069A04203D1DFF8E40515
:1051600021680161E06921680160C861E561296821
:105170002160002900D0CC612C6095F8410085F8B1
:105180004000FFF774FB31BD10B5FFF776FBDFF889
:10519000B8050468DFF8AC05006A201A012832DA85
:1051A000DFF8A005046A04E0DFF898050462FFF761
:1051B0005EFBDFF898050078C00722D5FFF75DFB9E
:1051C000DFF8880500788007EED5DFF880050078E5
:1051D00010F0FD00DFF874150870FFF748FBDFF8EA
:1051E0006405006A8442FAD0DFF858050462DFF8EB
:1051F00058050068401CDFF850150860DFF84415BA
:105200004862FFF73AFB10BD38B504000020A071DA
:10521000206A10F57A606062E069002802D0200000
:10522000E1698847FFF723FBE56809E0E868616A00
:10523000401A002801D5E8686062FFF718FB2D6866
:10524000002D1AD0FFF719FB2069002804D0687CD4
:105250002169497C884212D3287C4007EDD5E86853
:10526000216A401A0128E1DA280000F09EF9FFF7D0
:1052700004FB287C0028D9D101E0FFF7FEFA31BDFC
:1052800070B50400002060700120207004F08EFED4
:105290000078C0B2CD2802D07D20FFF781FAA06847
:1052A00000280CD0A068406C002808D0A068406C92
:1052B00001680800002802D0A0684068884794F878
:1052C000290000280BD0A06894F8281080F840101E
:1052D000DFF870040079002801D0FFF717FFDFF82E
:1052E00070040078002823D0DFF868040068DFF835
:1052F0005414096A401A002804D5DFF85404002128
:10530000017015E0FFF7B9FA04F099FF0500FFF707
:10531000AEFAA068002808D0A068406B2818DFF813
:1053200038140968401AA1684863DFF82C04056046
:10533000A068002808D0A068007C002804D1A068DC
:10534000006B401CA1680863206900282BD003E093
:1053500030682061FFF78BFAFFF78FFA2669002E7D
:1053600027D0357CEDB2002D23D0680710D5F0682A
:10537000216A411A012906DA300000F016F9307C62
:10538000002805D10FE0616A411A002900D560624A
:10539000EDB215F0FB001028DAD1B06880684068E3
:1053A000007C0028D4D1FFF768FA02E02000FFF764
:1053B0002BFFA0790028F9D1DFF890030078C0070F
:1053C00001D5FFF7E1FE002060712069002839D087
:1053D0002069007C002805D02069806880684068CA
:1053E000A06001E02069A060A06890F84C006428EB
:1053F00002D08020FFF7D4F9A068806A0078CD2819
:1054000002D07820FFF7CCF9A068406C002808D0C3
:10541000A068406C41680800002802D0A06840687D
:105420008847A06890F8400084F8280084F8290094
:10543000DFF810038068C06A401CDFF80813896831
:10544000C8620BE0002084F82900002084F82800BE
:105450000020A06000202070FFF709FA200070BD36
:1054600080B504F019FFDFF8F4120978002806D09F
:10547000022810D009D3042815D010D314E0002935
:1054800002D0A320FFF78CF911E0002902D1A4205B
:10549000FFF786F90BE0A620FFF782F907E0A720C7
:1054A000FFF77EF903E002E0A820FFF779F901BDDC
:1054B00010B504F0F1FE0400DFF8A0020078002827
:1054C00002D0A020FFF76CF9002C05D0022C08D0E8
:1054D00003D3032C09D00CE00EE0A420FFF760F901
:1054E0000AE0A620FFF75CF906E0A720FFF758F9CD
:1054F00002E0A820FFF754F910BD80B504F0CCFEFF
:10550000002805D0022808D006D3032809D00CE0D3
:10551000A320FFF745F90BE00AE0A620FFF740F9CA
:1055200006E0A720FFF73CF902E0A820FFF738F9D2
:1055300001BD80B5DFF80C020078002802D1972069
:10554000FFF72EF9DFF8FC010078401EDFF8F411B8
:105550000870C0B2002827D1DFF8E80140680028B1
:1055600022D0FFF78AF9DFF8DC01406800280BD071
:10557000DFF8D00101210170DFF8C801FFF767F9FA
:10558000DFF8C00100210170DFF8B8014078F02198
:10559000084202D09920FFF703F9DFF8A80140780C
:1055A000002801D1FFF763F901BD10B5816800291A
:1055B0000CD0DFF89011096AC16081680A684968F7
:1055C000002A00D051600A6000218160017C11F046
:1055D00003010174C9B2002945D1DFF868110969D6
:1055E000002929D1DFF85C110861DFF85801007843
:1055F00000280CD1DFF84C0101210170DFF84401D3
:10560000FFF725F9DFF83C010021017003E0DFF826
:10561000340101214171DFF82C014078F02108426A
:1056200002D09920FFF7BCF8DFF818014078002875
:1056300001D1FFF71CF916E0427C4B7CD2B29342B9
:10564000D0D38142D1D04B7CD2B29A420BD103004D
:10565000FFE71B68002BDED05C7CD2B2A242DAD11D
:105660008B42F6D1BEE710BD10B50400627C354810
:105670000078401C33490870394800E00800016890
:10568000002903D04B7CD2B29A42F7D32160E0616B
:10569000046000290AD0CC61487CD2B2904202D189
:1056A00094F8410000E0002084F84000207C0028AD
:1056B00012D1FFF7E2F82000FFF777FF214840788A
:1056C000F021084202D09920FFF76AF81D4840787F
:1056D000002801D1FFF7CBF8FFF72BFF10BD10B565
:1056E0001848047817480078401C16490870154877
:1056F000FFF7ADF81348047012484078F0210842D3
:1057000002D09920FFF74CF80E484078002801D1CC
:10571000FFF7ADF810BD10B504F0C4FD0948012134
:10572000017004F043FC04006846C046021B203AA6
:10573000012A03DBCD212000FCF790FD094801215F
:10574000017010BD24790020182B01206A2B012044
:105750006B2B0120302B01201C2B01206C2B0120F6
:10576000307900206E2B012050600260416008609B
:1057700070470A68F8E74860016070470168406850
:10578000F9E7F8B50600DFF8605802D505F15400D6
:10579000F2BD05F154040020E96E00E0096805F14E
:1057A0006C02914204D00C46A2689642F6D10120C8
:1057B000002840D1686FD0F88070182004F096FD62
:1057C0000446A660002F05D0B74203D2B6FBF7F01F
:1057D000784300E03046E060002F02D0B74200D2AC
:1057E0003E46266100202075DFF800683078401CB6
:1057F00030707078F021084202D09920FEF7D0FF77
:10580000FFF73BF87078401C707005F16C01204682
:10581000FFF7AFFF7078F021084202D09920FEF721
:10582000BFFF7078401E7070C0B2002801D1FFF732
:105830001EF8FFF77EFE2046F2BD38B5044694F907
:105840001400002829D1DFF8A4572878401C2870BC
:105850006878F021084202D09920FEF7A1FFFFF7F7
:105860000CF86878401C68702046FFF787FF2046D8
:1058700004F054FD6878F021084202D09920FEF728
:105880008FFF6878401E6870C0B2002801D1FEF713
:10589000EEFFBDE83140FFF74CBE31BDF8B5044620
:1058A00008466FF00045FFF76CFF064694F90500C7
:1058B00094F90410814214D1C01C800004F016FD3C
:1058C000074694F90500012807DB82002168384665
:1058D000FEF7EAFF206804F021FD27606079C01C14
:1058E000607194F90400411C2171216841F8206025
:1058F000DFF8FC06864202D0307D401C3075002067
:1059000008E0216851F820108A68954201DB1546AD
:10591000A160401C94F904108842F2DBF1BDF8B597
:1059200004466FF00046DFF8C02602F1540502F18C
:1059300054004FF0FF33002704E0664501DB664664
:1059400075467F1C94F904C067450DDAD4F800C091
:105950005CF827E0DEF808C0002BEED58C45ECD1D2
:1059600070463B465BB2ECE7002B11D4BCF1010F53
:105970000EDB06E0216801EB8306766841F82360C0
:105980005B1C94F904104E1EB342F3DB491E2171D7
:1059900002F15401884204D0017D491E0175FFF7D0
:1059A0004CFFA560F1BD10B4C26A836B406C9C686B
:1059B000002C02D56FF0004300E01B698468002CC6
:1059C00002D56FF0004000E00069984200DD184603
:1059D000D2685143884201DB012000E0002010BC66
:1059E000704738B5DFF800164A6FD36E012490F97E
:1059F0000850AC402343D36601F51061FFF7B9FEB0
:105A0000012032BD10B5DFF8E015496FCA6E0123E1
:105A100090F90840A3409A43CA66FFF7AFFE012001
:105A200010BD01207047F8B5044615461E4604F126
:105A30002400FFF733FF06EB460004EB80072946FE
:105A400007F13000FFF72AFF97F934000090334642
:105A5000627A94F908100FF29C50FCF7A3FCF1BD98
:105A6000F8B5044615461E4604F12400FFF757FF1B
:105A700006EB460004EB8007294607F13000FFF7EC
:105A80004EFF97F9340000903346627A94F908107B
:105A90000FF27050FCF786FCF1BDC16A8A68012ADA
:105AA00009DB0969012906DA006D002801D500200B
:105AB0007047022070470020704701EB410200EB65
:105AC0008201896B8A68012A09DB0969012906DAE2
:105AD000006D002801D5002070470220704700208B
:105AE0007047002900D5D8E7E7E7012900DA01214E
:105AF00013460A4697E7012900DA012113460A46B0
:105B0000AEE7DFF8E404C06A417A481E8041C00F66
:105B1000704713464FF0FF32114684E713464FF0AB
:105B2000FF3211469CE780B5DFF8BC040068417A7B
:105B3000002902D1006E40688047012002BD80B577
:105B4000FFF760FFDFF8A0040068417A002902D166
:105B5000006E80688047012002BDB1F57A7F01DCCC
:105B60004FF47A7113460A464FF4FA715BE7B1F5C8
:105B70007A7F01DC4FF47A7113460A464FF4FA71CA
:105B80006EE710B50446002922D5E06A8168012934
:105B90001CDB0069012819DA02212046FFF703FF08
:105BA000002813D194F954004FF0FF31884204D1FA
:105BB000002084F85400012010BD002806D10120E7
:105BC0006077084684F85400022010BD002010BD04
:105BD000BDE8104071E74FF0FF3280F8542000E735
:105BE000C92900DAC82113460A4642211BE7C92900
:105BF00000DAC82113460A46422131E710B50446AF
:105C0000002926D5E06A8168012920DB0069012886
:105C10001DDA03212046FFF7C6FE002817D194F9AC
:105C200054004FF0FF31884204D1002084F8540022
:105C3000012010BD002803D1012084F8540010BDBC
:105C4000012804D1084684F85400022010BD002029
:105C500010BDBDE8104030E74FF0FF3280F854200F
:105C6000DFF88423526FD2F88020C8325242026596
:105C7000B7E6DFF87423526FD2F88020C832524260
:105C80000265AEE613464FF0FF321146CBE61346EF
:105C90004FF0FF321146E3E680B5FFF7A2FEFCF7B6
:105CA00000FB00210175012002BD80B5FFF7AAFEAF
:105CB000FCF7F7FA00210175012002BD2DE9F04142
:105CC0000C46C94D55F82060307206F154070FF2AA
:105CD00044313961142800F22181DFE810F0150009
:105CE0002500310049003D00550065007500A40005
:105CF00084009400B400C400D200DF00EC00FA007D
:105D0000070114011401140106F10800062141766F
:105D10000A21817605F60811416040F2DC5181606C
:105D20000FF20C303861F9E006F1080006214176E7
:105D30000A21817605F6E461416064218160EDE02D
:105D400006F108000C2141761021817605F65C7180
:105D5000416010218160E1E006F1080007214176F1
:105D60000B21817605F6507141600B218160D5E0F1
:105D700006F10800062141760A21817605F66C714C
:105D800041600A218160C9E006F1080006214176E0
:105D90000A21817605F6787141604FF4FA718160CD
:105DA0000FF2E0203861B9E006F1080014214176D5
:105DB0001821817605F588516C3141601821816088
:105DC0000FF230303861A9E006F108000221417677
:105DD0000621817605F58D514160062181600FF223
:105DE000DC2038619AE006F108000A2141760E2194
:105DF000817605F58851903141600E2181600FF266
:105E0000A02038618AE006F10800012141760521D1
:105E1000817605F58851A8314160052181600FF236
:105E2000B82038617AE006F10800052141760921A1
:105E3000817605F5885184314160092181600FF236
:105E4000282038616AE006F10800062141760A211F
:105E5000817605F58851B03141600A2181600FF2E9
:105E6000EC1038615AE006F1080001214176052165
:105E7000817605F58851BC31416040F286618160D0
:105E80004CE006F10800012141760521817605F5F7
:105E9000C05144314160052181603FE006F10800B6
:105EA0000C2141761021817605F5C0514C314160BD
:105EB0001021816032E006F10800112141761521A0
:105EC000817605F5C0515C31416041F666318160F3
:105ED00024E006F10800112141761521817605F5AF
:105EE0004C51C43141601521816017E006F1080072
:105EF000042141760821817605F54C51DC31416061
:105F0000082181600AE006F108000121417605219F
:105F1000817605F6487141600521816006F108002F
:105F200000210175417581750176C1600161417083
:105F300006F128080846C8F828004FF0FF3086F818
:105F400054007880062206F15800FCF787F90020FB
:105F500010E000EB400106EB8101002281F83420C3
:105F600034314A7005F154024A6006EB8001002288
:105F70008A64401C0228ECDB002086F8280088F8A0
:105F8000010005F15400C8F80400FC60BDE8F08190
:105F900010B5154C04F0D2F96067002006E06821C6
:105FA00011FB0041783144F82010401C1528F6DB25
:105FB0004FF0FF30E06520660020606605F044FC8D
:105FC00006F041FA06F0DFFE07F054FE08F0CAFFC3
:105FD00008F040F908F0A7FB09F02EF809F02DFBB6
:105FE000BDE8104009F02DB80040002024790020C1
:105FF000544000204144202564202564202564204D
:1060000025640000524D202564202564202564204D
:1060100025640000235A0008E3590008235A0008A9
:10602000055A0008EB5A0008F75A0008E35A00081E
:10603000035B0008E3590008035B0008055A0008E9
:10604000EB5A0008F75A0008E35A0008275B0008DB
:10605000E3590008235A00083F5B0008135B00085F
:106060001D5B0008E35A0008235A0008D75B0008AC
:10607000235A0008055A00085B5B00086F5B0008A4
:10608000835B0008235A0008595C0008235A000863
:10609000055A0008E15B0008EF5B0008FD5B0008A3
:1060A000235A0008735C0008235A0008055A0008A8
:1060B000EB5A0008F75A0008E35A0008235A000870
:1060C000995C0008235A0008AB5C0008855C000856
:1060D0008F5C0008E35A0008235A0008E3590008BF
:1060E000235A0008055A0008EB5A0008F75A00081E
:1060F000E35A0008235A0008E3590008235A00080D
:10610000055A0008855C00088F5C0008E35A000807
:10611000DFF8080E007870472DE9F0418AB004F0EE
:106120000DF90446DFF8F85D2E6842E096F90800A4
:1061300007283DD00B283BDA062839D006F108079E
:10614000B86C002803D5D4F880100818B8644FF054
:10615000FF313046FA6D926990478046B8F1010FE1
:1061600004D197F84C00B96D09698847B8F1020F5E
:106170000BD1797E38697A688018BA6D5269904778
:10618000002802D0304609F08FFB00213046FA6D1E
:1061900092699047022801D10120B875012130464B
:1061A000FA6D92699047022802D1304609F028FC26
:1061B0003668AE42BAD1D4E91C01002901D10028C9
:1061C0000CD00A208DF8080002208DF80000D4F8C9
:1061D0008000ADF8220000A801F0EAFD01200AB01D
:1061E000BDE8F08130B585B004460D46CA208DF873
:1061F00000002888ADF801000220ADF80300BDF8CA
:106200000100001D04F072F8CDF8090002220DF122
:106210000301FEF749FB02222946DDF80900801C34
:10622000FEF742FB2A882146DDF80900001DFEF733
:106230003BFB0020288000A9DFF8E80C09F098FE5D
:1062400005B030BDC0F54060322801DA012070474A
:106250000020704780B5FCF724F8407B002804D06C
:1062600009F090FADFF8C01C086001BD80B509F0A4
:1062700089FADFF8B81C086001BDDFF8B00C0068CF
:10628000704718B400F10C030422DFF8A01C5C7DF9
:10629000DB68C0681818201818BCFEF705BB30B4BE
:1062A0001488651C1580052565541488651C1580A7
:1062B000635413885C1C1480007A585430BC7047B7
:1062C000F8B50E4614461D4629884A1C2A803722F6
:1062D0000A5529884A1C2A80027A0A5500F10807C3
:1062E0007A7E7868311828880019FEF7DDFA288848
:1062F000797E40182880787E796871184058DFF8D8
:10630000281C0968401A0090042200A92888001956
:10631000FEF7CAFA2888001D288080B2FFF792FF96
:10632000002803D029462046FFF75CFFF1BD2DE988
:10633000F04104460D4616461F46DDF8188008E079
:1063400043463A4629462046FFF7BAFF94F8220012
:106350002D18B542F4DBBDE8F081F8B504461546CA
:106360001E46069F00972269FFF7E1FF20698542DC
:1063700006DA009733462A4600212046FFF7D7FF6A
:10638000F1BD00F110018A688B7CD2188A60006927
:10639000824201D10020886000208873704770B568
:1063A00082B000F1140674684569002D07D500928B
:1063B0000B462246B17B6118FFF7CFFF73BDAC429D
:1063C00000920B462246294602DAFFF7C6FF73BD4C
:1063D000FFF7ADFF73BD70B504460D461646FFF7D7
:1063E000DEFF0123324629462046FFF758FFA06909
:1063F000606170BD2DE9F84304460D46164603F072
:106400009DFF8046FBF74DFF81462046FFF739FF91
:1064100004F10807386C012849DB99F80A000028C4
:1064200021D0B87D002868D000207864B87E3A6911
:10643000F9688B1A834205D0002910D1BB689B1ADA
:1064400083420CD13B7E002B06D000962B4682184F
:106450002046FFF782FF02E04FF0FF30F860204651
:10646000BDE8F2438DE7786CD8F88010401A786464
:10647000012815DA386C7864324629462046FFF741
:106480008EFFB87D002808D033462A463969204659
:10649000FFF716FF2046FFF774FF3869F8602CE01D
:1064A000B87D002829D02046BDE8F24369E7B87DD1
:1064B000002822D099F80A00002813D094F9080087
:1064C000092801D0072813D133462A4639692046C6
:1064D000FFF7F6FE7A7894F908100FF22400FBF724
:1064E00061FF05E033462A4639692046FFF7E8FE9A
:1064F0002046FFF746FF3869F860BDE8F1830000E9
:10650000415020537573202564202564000000004D
:10651000F8B504460D46DFF8086A376805E02A46F4
:1065200021463846FFF766FF3F68B742F7D1F1BD15
:106530002DE9F04104460D46DFF8346CF76907F1A8
:106540000C0898F81510D8F80C00FA688018D8F8DC
:1065500054205269904700280AD0012088F8120080
:10656000787A002804D02A4621463846FFF742FFB1
:10657000B66906F10C07797DF868F26880187A6DC3
:1065800052699047002809D00120B874707A002819
:1065900004D02A4621463046FFF72CFF0120BDE8F3
:1065A000F0810288D21C02800A80704780B50B8877
:1065B0009B1AADF80030BDF80030002B09D0101840
:1065C000012100F8031C022200A9801EFEF76CF9CD
:1065D00001BD0888C01E088001BD2DE9F04FADF651
:1065E0004C1D04460D4603F0A9FE8046FBF759FEFC
:1065F000074610A840F60811FEF794F800208DF821
:10660000020006A82821FEF78DF801A81421FEF744
:1066100089F80020ADF800000646D8E91C010029E1
:1066200002D1002800F0728397F909000AF05FF99F
:10663000002800F06B8300A92846FFF7B2FF374619
:106640001BE0012031463A460AF05CFBD8E91C23E6
:106650001040194001D100280ED007EB8700DFF869
:10666000141B01EBC00292F90900012804D10DF1BD
:10667000020110A8126A90477F1C2B2FE1DB3746DE
:106680001AE02888411C298099F8021001552888B1
:10669000FFF7D8FD00280DD0BDF800202946204680
:1066A000FFF784FF29462046FFF79CFD00A92846F6
:1066B000FFF777FF7F1C7FB29DF80200874280F2D0
:1066C0001D832988481C288040F2211010FB07F008
:1066D00010AA825C0A5529884A1C2A8010AA00EB5D
:1066E000020898F8010008552888411C298008F103
:1066F000010999F80110015599F8010003281ED0ED
:10670000092800F049810C2800F023811A2800F0A4
:1067100042821B2800F056811C2800F070821D2840
:1067200000F063811E2800F05A82252800F099822B
:10673000262800F0D382282800F0AE82A1E798F83E
:106740000100032805D12888411C298099F80210EE
:1067500001552888411C298099F80310015599F8A2
:106760000300C0280DD1B8F83020D8F8321028889E
:106770000019FEF799F82888B8F830100818288012
:1067800085E7711C00064ED401A808F10402527876
:106790003254C9B298F806200A54491CC9B20022E2
:1067A0000A544A1C08F20601D2B24B781354521C08
:1067B000B8F80E30D2B21E0A1654521CD2B213547C
:1067C000521C08F20E03D2B29E781654521CD2B25A
:1067D000DB781354521CD2B298F812301354521C66
:1067E000D2B298F813301354521CD2B28B7813548F
:1067F000521CD2B2C9781154511CC9B298F80A205F
:106800000A54491CC9B298F80B200A544E1CF6B21F
:10681000324601A928880019FEF746F8288850FA60
:1068200086F0288033E7D8F8052006A8130C3354E7
:10683000C9B2130A0B54491CC9B20A54491CD8F8EE
:106840000920C9B2130C0B54491CC9B2130A0B54CA
:10685000491CC9B20A54491CD8F80D20C9B2130CFE
:106860000B54491CC9B2130A0B54491CC9B20A542F
:10687000491CD8F81120C9B2130C0B54491CC9B2D9
:10688000130A0B54491CC9B20A54491CD8F82720D2
:10689000C9B2130C0B54491CC9B2130A0B54491C3E
:1068A000C9B20A544A1C08F22701D2B20B79135418
:1068B000521CD2B24B791354521CCB88D2B21E0A4E
:1068C0001654521CD2B21354521CD2B2097A11542B
:1068D000511CD8F81520C9B2130C0B54491CC9B26D
:1068E000130A0B54491CC9B20A54491CD8F8192080
:1068F000C9B2130C0B54491CC9B2130A0B54491CDE
:10690000C9B20A54491CD8F81D20C9B2130C0B5443
:10691000491CC9B2130A0B54491CC9B20A54491C78
:10692000D8F82120C9B2130C0B54491CC9B2130A60
:106930000B54491CC9B20A544E1CF6B2324606A981
:1069400028880019FDF7B0FF288850FA86F02880C3
:106950009DE608F20301B1F90300C0F3072242EA01
:106960000020A1F80300B1F90700C0F3072242EAB2
:106970000020A1F80700B1F90500C0F3072242EAA0
:106980000020A1F80500092228880019FDF78CFFD6
:106990002888093028807AE698F8010003280AD16F
:1069A000022208F1030128880019FDF77DFF2888DD
:1069B000801C28806BE62888411C298099F80210E9
:1069C000015564E62888411C298099F80210015578
:1069D00098F8010005287FF45AAE2888411C2980C8
:1069E00008F104014978015551E608F2030998F8C5
:1069F0000100012840F0BF802888411C298099F8B7
:106A0000041001554FF0000A9CE01B2010FB0A9B6C
:106A1000DBF80C20DBF808100FF2F820FBF7C2FCC3
:106A2000DBF81800010221F0FF11000A00F0FF104E
:106A30000843CBF818004FEA3040CBF81800042286
:106A40000BF1180128880019FDF72EFF2888001D7A
:106A50002880DBF80800010221F0FF11000A00F095
:106A6000FF100843CBF808004FEA3040CBF808008D
:106A700004220BF1080128880019FDF715FF28886A
:106A8000001D2880DBF80C00010221F0FF11000A34
:106A900000F0FF100843CBF80C004FEA3040CBF871
:106AA0000C0004220BF10C0128880019FDF7FCFEF4
:106AB0002888001D2880DBF81000010221F0FF115A
:106AC000000A00F0FF100843CBF810004FEA3040F6
:106AD000CBF8100004220BF1100128880019FDF7F3
:106AE000E3FE2888001D2880DBF81C00010221F04D
:106AF000FF11000A00F0FF100843CBF81C004FEA1A
:106B00003040CBF81C0004220BF11C01288800192E
:106B1000FDF7CAFE2888001D2880BBF81600010A70
:106B200041EA0020ABF8160002220BF1160128887A
:106B30000019FDF7B9FE2888801C28800AF1010A97
:106B40005FFA8AFA99F804008245FFF65EAFB8F85A
:106B50001B21D8F81D1128880019FDF7A5FE2888EB
:106B6000B8F81B1108182880B8F81B110FF2B410E0
:106B7000FBF718FC8BE505287FF489AD2888411CBC
:106B8000298099F8021001552888411C298099F81C
:106B9000031001557BE508F2030198F80100032872
:106BA00005D12888421C2A8098F80A200255D1F87D
:106BB0000100020222F0FF12000A00F0FF10104351
:106BC000C1F801004FEA3040C1F8010007222888CF
:106BD0000019FDF769FE2888C01D288057E508F2D6
:106BE00003010888020A42EA00200880022228885D
:106BF0000019FDF759FE2888801C288047E508F217
:106C0000030098F8011001297FF441AD99F80210B2
:106C1000012918D129884A1C2A8000780855B8F81B
:106C20000420D8F8061028880019FDF73DFE2888B2
:106C3000B8F8041008182880B8F804100FF2F8000B
:106C4000FBF7B0FB23E502297FF421AD29884A1C1C
:106C50002A8002780A5529884A1C2A80C07908555A
:106C600015E52888411C2980B9F8021001552888AB
:106C7000411C2980B9F9021009120155B9F9022005
:106C8000D8F8051028880019FDF70EFE2888B9F9F4
:106C9000021008182880FAE42888411C2980B9F8D5
:106CA000021001552888411C2980B9F902100912E7
:106CB00001552888411C298008F1040149780155B3
:106CC000B9F90220D8F8061028880019FDF7ECFD64
:106CD0002888B9F9021008182880D8E408F20301BE
:106CE0000888020A42EA0020088002222888001947
:106CF000FDF7DAFD2888801C2880C8E4BDF8002054
:106D000029462046FFF752FC09F01EFE0DF64C1DE9
:106D1000BDE8F08F4C54204E4D472025642025645B
:106D2000000000004F4A483A204154424420736911
:106D30007A653A20256400004F4A483A2041504481
:106D4000522073697A653A20256400002DE9F041EC
:106D500005460E46FBF7A5FA0746DFF8C84D207832
:106D6000401C20706078F021084202D09920FDF785
:106D700017FDFDF782FD6078401C607097F8188061
:106D8000B8F1010F26DB3088404480B2FFF75AFA91
:106D9000002803D031462846FFF724FA3088411CEA
:106DA0003180032141553088411C318000F8058035
:106DB000424607F1190130884019FDF775FD30880A
:106DC00040443080FF22002107F11900FBF746FA0A
:106DD000002038766078F021084202D09920FDF733
:106DE000DFFC6078401E6070C0B2002801D1FDF762
:106DF0003EFDBDE8F041FEF79CBB38B504460D46AC
:106E0000FBF74FFA817A002909D1417B002906D18D
:106E100029884A1C2A8006220A550121417331BD66
:106E200038B504460D46288800280CD02046FFF7C8
:106E30008DFF29462046FFF7E0FF29462046BDE8A2
:106E40003440FFF7CFB931BD14B585B0049101A925
:106E50000022134614461CC10A21ADF8001004217B
:106E60008DF804108DF805000A4605A90DF10600FD
:106E7000FDF71AFD042204A90DF10A00FDF714FD27
:106E800000A901A8FFF7AEF906B010BD80B5FBF769
:106E900008FA4FF49671FBF7F0FB07208DF802001B
:106EA0000120ADF8000000A90DF10200FFF79AF9EA
:106EB00001BD2DE9F041DFF8704C6068002828D052
:106EC000218888421FD003F011FA0546666827889A
:106ED000A6EB07081FFA88F84246381900F10801A6
:106EE0002846FDF7E1FC3A4604F1080108EB0500ED
:106EF000FDF7DAFC3246294604F10800FDF7D4FC20
:106F0000284603F00BFA626804F108010520FFF738
:106F10009BFF002060602080BDE8F081662B01208F
:106F200000490020D4A30020082B01200C2B0120B5
:106F30002DE9FC4105460F469046FBF7B2F90026C5
:106F4000D5F809100C1D2A781146012960D00F29A7
:106F500033D0352935D0802900F08880812900F090
:106F60008F80822900F08C80852900F08980862915
:106F700000F08680882900F083808A2900F08880CC
:106F80008B2900F0A1808C2900F0AD808D2900F0C4
:106F9000B580DD2900F0BF80DF2900F0D580F02921
:106FA00018D0F42921D0F62927D0F82945D0F9297D
:106FB00033D0FF2900F0A7805FE0807D20700120A2
:106FC0005CE0012007F02DFD304607F02EFD01208A
:106FD000207053E00422DFF8541B2046FDF764FCC8
:106FE0000120FDF704FA012048E0042200F110011D
:106FF0002046FDF759FC012040E00322214630469F
:10700000DFF82C3B9B681B6E1B6A9847012035E01C
:10701000204609F0A7FE012030E0B5F80120B5F8C0
:107020000300C010C0EB0011D5F8050000EB811182
:107030002046FDF739FC012020E03046ADF8040081
:107040000120D5F80510C9B2012900D10320FCF7B1
:107050004EFCFCF788FCADF80400FCF79BFC022218
:1070600001A92046FDF720FC012007E0D5F8050026
:1070700020702146304608F081FD3046BDE8F6819B
:1070800030462070214602F07F0008F077FDF4E7DB
:1070900001202070DFF8980A45683746287F0028CD
:1070A00001D13046EAE7687A002803D1286E4068AB
:1070B000804707462046296EC9698847002FDCD0E3
:1070C000286E80688047D8E70120B5F80310C1F327
:1070D000C101091D884040F00200207021460120B6
:1070E00008F04CFDC9E701782170C17861704179E1
:1070F000A1708079E07001202071BFE7204609F07F
:1071000045FE0646B9E704F10802211D2046FDF7B9
:107110001DFA0120B2E76879DFF8141A51F82050FF
:10712000687A00280CD0424639462846FFF753F9C2
:10713000DFF8001A082009F0EBFE0120207001E0C2
:1071400030462070012099E76879DFF8E41951F89A
:107150002050286995F8221090FBF1F0401E009015
:10716000042200A92046FDF79FFB012086E70000CE
:1071700000400020A8BB0020F0B593B00646FBF706
:1071800090F8054603F0DAF8D6F809100C1D3178AE
:10719000002208924FF0FF32099217460A46312A20
:1071A00000F00C81322A00F01381332A00F01F8195
:1071B000342A00F02681A12A00F05081A22A00F092
:1071C0006F81A42A00F07A81B12A00F0F482B22AF9
:1071D00000F06584B82A00F08C81C12A00F0B481E7
:1071E000CD2A7BD0CE2A00F09280D02A35D0D12A69
:1071F0002BD0D22A36D0D32A3DD0D42A3FD0D62A7B
:1072000049D0D72A47D0D82A4DD0D92A4BD0DB2A0B
:1072100000F00F81DC2A00F01381F12A4BD0F22A12
:1072200000F08E80F52A00F0A280F72A00F0B580E9
:10723000FA2A00F05E84FB2A00F05D84FD2A00F04B
:10724000A180FE2A00F06684B5E000212846FBF705
:1072500052FAFFF72EFE0120AEE00020FDF7C7F83E
:107260000120A9E001212846FBF745FA012009F099
:107270009FFE0120A0E00020A87201209CE00120D8
:10728000A87200206873E87A002802D1012009F072
:107290008FFE012090E0D62901D1012000E00020DE
:1072A000E872012088E0D92901D1012000E0002006
:1072B0002873012080E000210CE00A180B5D82F8A1
:1072C0008430022905D10A5D80F887200A5D80F8A4
:1072D0008820491C0329F0DB01206DE0002512E025
:1072E000DFF84C08466806EB4506022204EB450130
:1072F00006F15800FDF7D8FAB6F95810DFF838084B
:10730000FBF750F86D1C032DEADB012054E000254B
:1073100012E0DFF81C08066806EB4506022204EBC3
:10732000450106F15800FDF7BFFAB6F95810DFF82D
:107330000C08FBF737F86D1C032DEADB01203BE05E
:10734000297C090601D4012036E02178A0F88A10B2
:107350006178A0F88C1002212046DFF8D427D2698A
:10736000126E92699047002825D0012024E0032264
:1073700021460120DFF8B8379B681B6E1B6A9847CF
:10738000012019E01B2221460720DFF8A4379B6863
:107390001B6E1B6A984701200EE0DFF89407866990
:1073A000306E80688047002805D0012221460520E4
:1073B000336E1B6A9847002013B0F0BD07F039FB0D
:1073C000012801D10120F7E7204607F05DFAF2E736
:1073D00007F02FFB012801D10120EDE7204607F03F
:1073E000D8FA20780028E6D007F004FBE3E707F09E
:1073F00020FB012801D10120DEE7207807F001FB06
:10740000D9E707F016FB012801D10120D4E74FF49A
:1074100080510020FBF7A8F9012007F089F901202D
:1074200007F003FB207807F007FB07F0F3F90120D2
:10743000C2E7D6F80510DFF80807FAF7B3FFBAE796
:10744000FDF747FD002802D0FDF765FDB3E7FDF726
:10745000C8FD0028AFD0FDF797FDACE794F90050C8
:107460000422611C08A8FDF71FFAB6F801000628DF
:1074700006D30422611D09A8FDF716FA94F90970D4
:10748000042D04D1DFF8A8060069A17A8172009763
:10749000099B00220899284608F0CBFB20708AE758
:1074A00094F900500422611C08A8FDF7FDF900239F
:1074B0001A460899284608F017FC7DE794F9005011
:1074C0000422611C08A8FDF7EFF9B6F801000628B0
:1074D00006D30422611D09A8FDF7E6F994F90970A5
:1074E0000097099B00220899284608F043FC207069
:1074F00061E720780146032906D01A2911D02529F1
:1075000013D0282915D018E060788DF80A000128DA
:1075100005D1A0788DF80B00204600F0FCFB01207F
:107520004AE7204600F0F7FBF9E7204600F0F3FBBE
:10753000F5E7204600F0EFFBF1E794F9011040B2C7
:1075400009F0A2FAC0B237E7207801460E3908D018
:10755000091F03291CD9091F3DD0491E00F0A18035
:1075600013E10E208DF8080060788DF80A00A178EC
:107570008DF80B10E2788DF80C200023ADF80D305B
:1075800052B249B240B2FBF707F900F0BBFBFCE096
:107590008DF80800122802D160788DF80A009DF855
:1075A0000800132802D160788DF80B009DF80800C0
:1075B000142802D160788DF80C009DF80800152879
:1075C00002D160788DF80A0062782178DFF87405BE
:1075D000FAF7E8FED9E06078A178090401EB0060D1
:1075E000E17800EB012021794018CDF80A0060799C
:1075F000A179090401EB0060E17900EB0120217A17
:107600004018CDF80E00607AA17A090401EB006001
:10761000E17A00EB0120217B4018CDF81200607B5D
:107620008DF81600A07B8DF81700E07B8DF8180010
:10763000207C8DF81900607C8DF81A00A07CE17C1C
:1076400011EB002000B20146ADF81B10217D00EBCC
:107650000120617D4018ADF81D00A07D8DF81F0050
:10766000DDF80A00002807D1DDF80E00002803D15C
:10767000DDF81200002809D00DF10A0184B0684637
:107680001622FBF7D3F90FBCFBF72CF90DF10A0119
:1076900084B068461622FBF7C9F90FBC00F05FFB07
:1076A00073E060788DF809001D283DD1A0788DF831
:1076B0001300A07801280DD1E078217911EB002189
:1076C000ADF80A1089B20A461D210FF28040FAF780
:1076D00069FE5AE002280BD1E078217911EB0021F4
:1076E000ADF80C1089B20FF27440FAF75BFE4CE073
:1076F00003280BD1E078217911EB0021ADF81410AB
:1077000089B20FF26440FAF74DFE3EE004283CD106
:10771000E078217911EB0021ADF8161089B20FF253
:107720005440FAF73FFE30E0262809D1A0788DF8C2
:107730000E00A078012828D1E0788DF80D0024E013
:107740001C2822D1A0788DF80D00A078012807D13F
:10775000E1788DF80A100FF22840FAF723FE14E0C2
:10776000022807D1E1788DF80B100FF22840FAF7C4
:1077700019FE0AE0032808D0052806D1E1788DF823
:107780000C100FF22440FAF70DFE06208DF82800A9
:1077900020780B900DF1310002A91822FBF746F971
:1077A0000B208DF830000020ADF84A000AA800F048
:1077B000FFFAC0B200E694F9000008F024FC0128AA
:1077C00040F03F8120780146032924D0062961D06A
:1077D000092927D00C2941D00D294DD019297DD058
:1077E0001A2964D01B2900F08E801C2900F0C98062
:1077F0001D2900F0A1801E2900F0D080252900F06D
:10780000E980262900F0D880272900F0EA8028297D
:1078100000F00E8110E10322611C0DF10A00FDF75A
:1078200043F80EE10722611C0DF10A00FDF73CF858
:10783000BDF80A00010A41EA0020ADF80A00BDF8CF
:107840000C00010A41EA0020ADF80C00BDF80E0062
:10785000010A41EA0020ADF80E00F2E00322611CAB
:107860000DF10A00FDF720F8BDF80B00010A41EA0E
:107870000020ADF80B00E4E00322611C0DF10A00CA
:10788000FDF712F8BDF80B00010A41EA0020ADF83F
:107890000B00D6E00122611C0DF10A00FDF704F88F
:1078A0009DF80A100FF21430FAF77CFDC9E00822A7
:1078B000611C0DF10A00FCF7F7FFBDF80D00010A8D
:1078C00041EA0020ADF80D0000239DF911209DF93B
:1078D00010109DF90F00FAF75FFFB2E00622611C5D
:1078E0000DF10A00FCF7E0FFBDF80A00010A41EAC9
:1078F0000020ADF80A00BDF80E00010A41EA0020A0
:10790000ADF80E009DE00422611C0DF10A00FCF7A9
:10791000CBFFBDF80A00010A41EA0020ADF80A00D9
:10792000BDF80C00010A41EA0020ADF80C000FF28E
:107930009820FAF737FD84E00922611C0DF10A0056
:10794000FCF7B2FFBDF80A00010A41EA0020ADF8D9
:107950000A00BDF80C00010A41EA0020ADF80C0055
:10796000BDF80E00010A41EA0020ADF80E00002328
:107970009DF912209DF911109DF91000FAF70CFFE6
:107980005FE060788DF80A00A0788DF80B00A2788F
:1079900061780FF24020FAF705FD52E00322611CE6
:1079A0000DF10A00FCF780FFBDF80B00010A41EA67
:1079B0000020ADF80B0044E00522611C0DF10A0027
:1079C000FCF772FFBDF80B00010A41EA0020ADF898
:1079D0000B0036E00922611C0DF10A00FCF764FF80
:1079E0002FE00A22611C0DF10A00FCF75DFFBDF9D2
:1079F0000A00C0F3072141EA0020ADF80A00BDF9F2
:107A00000C00C0F3072141EA0020ADF80C00BDF9DD
:107A10000E00C0F3072141EA0020ADF80E00BDF9C9
:107A20001000C0F3072141EA0020ADF8100008E083
:107A300060788DF80A0004E08DF8080060788DF811
:107A400009002078052807D13F4801210170687A94
:107A500000280ED10846AFE418280AD18DF8080096
:107A600060788DF80900A0788DF80A00E0788DF82C
:107A70000B0000208DF8280020780B900DF13100CC
:107A800002A91822FAF7D2FF0B208DF8300000204F
:107A9000ADF84A000AA800F08BF9C0B28CE4207857
:107AA000052804D1284800210170012084E41A2807
:107AB0000CD10522611C0DF10A00FCF7F5FEBDF8A2
:107AC0000D00010A41EA0020ADF80D0001208DF8FB
:107AD000280020780B900DF1310002A91822FAF746
:107AE000A5FF0B208DF830000AA800F061F9C0B2A4
:107AF00062E4012060E42078002802D0052805D047
:107B000006E00FF2E000FDF7EFF901E0FFF7D1F931
:107B1000012051E404F10802211D2046FCF7CEFCAF
:107B2000012049E4247900205CEE0020447A002002
:107B30000040002048900020ECDA0208F8DA020841
:107B400004DB020810DB0208662B01204C54205392
:107B5000502025642C202564000000004C54205740
:107B600050202564000000004C542053522025640E
:107B7000000000004C5420534152202564000000B6
:107B80005B415044525D204E545F5357554E202563
:107B9000640000005B415044525D204E545F5457D6
:107BA00055532025640000005B415044525D204E37
:107BB000545F4241544348202564000050443A2019
:107BC00053432025640000004C542053532041446B
:107BD0004400000041504452204144442025642088
:107BE0002564000041505F524551554553540000F3
:107BF0006E4870472DE9F04182B00C4616460125CB
:107C000000282DD106EB8600684901EBC007284605
:107C100000FA04F8F86810EA080F08D02346FA685A
:107C200031460FF20830FAF7BDFB022046E04FF074
:107C3000FF30009003462A467968204607F0F9FF96
:107C400000280BD02346FA6831460FF2F020FAF7ED
:107C5000A9FBF86848EA0000F8602EE002202DE059
:107C600001282AD106EB8600504901EBC0072846BF
:107C700000FA04F8F86810EA080F08D12346FA68F9
:107C800031460FF2C820FAF78DFB032515E04FF0BF
:107C9000FF332A467968204608F026F8002807D0E6
:107CA0002346FA6831460FF2B420FAF77BFB00E076
:107CB0000325F86820EA0800F8602846BDE8F68148
:107CC00008F0EEBE02B58AB00021ADF82210019195
:107CD0000A218DF8081000218DF809108DF80A107E
:107CE00005218DF80010019004220AA90DF1090068
:107CF000FCF7DAFD0020ADF8220000A800F058F8EB
:107D00000BB000BD80B509F0E3FE0FF26020BDE8C6
:107D10000240FAF747BB38B54478857800780328E5
:107D200010D01A281AD1012C18D101200BF0BDFA5D
:107D3000012322461A210FF2402001B0BDE8304055
:107D4000FAF730BB012C09D1284609F0CCFE2946B0
:107D50000FF23420BDE83440FAF724BB31BD0FB434
:107D600080B5002805D10846002802D11046002819
:107D700004D00CF05AF8C046C04601E00CF03EF8C2
:107D800001BC5DF814FB0022C0B22B280CD240B21B
:107D900000EB8003054800EBC300C068012303FA31
:107DA00001F1084200D01A4610467047A8BB0020D7
:107DB00030B585B00446012594F90000062800F28C
:107DC000A180DFE800F00428445F76979B0004F16F
:107DD000090182B068461822FAF728FE0CBC94F913
:107DE0000810606840B208F0A8FA02280AD160685A
:107DF00000B208F073FC002561680FF29810FAF7E2
:107E0000D1FA85E0032840F0838061680FF28C107E
:107E1000FAF7C8FA7CE060681A280AD104F1090070
:107E200008F0E5FE637B227BE17A0FF27810FAF727
:107E3000B9FA94F90810606840B208F070FB0328A2
:107E400066D161680FF27410FAF7ACFA60E0618CE9
:107E500000A808F05DFC9DF9040002280AD10098F2
:107E600000B208F03BFC002500990FF25810FAF719
:107E700099FA4DE003284BD100990FF25010FAF710
:107E800091FA45E00CF0EEF802280AD1606800B2E1
:107E900008F024FC002561680FF23810FAF782FA26
:107EA00036E0032834D161680FF23010FAF77AFA1D
:107EB0002EE0606805280CD128460CF09AF90228BB
:107EC0000DD0032824D161680FF22010FAF76AFA66
:107ED0001EE002281CD10CF07DFA0228F1D1606866
:107EE00000B208F0FBFB002561680FF2F800FAF71A
:107EF00059FA0DE0204608F071FC09E0204608F030
:107F000015FE05E061680FF2EC00FAF74BFA002568
:107F1000284605B030BD012070470FB4022004B0E0
:107F2000704701207047002070477047534D414310
:107F3000202564202564202564000000534D412045
:107F4000256420256420256400000000534D524321
:107F5000202564202564202564000000534D522014
:107F6000256420256420256400000000504420532F
:107F7000657453540000000041542052492D25647B
:107F8000202564202564000050442055542D25648C
:107F900000000000414C4F4620256400414C434600
:107FA000202564004F4A4820454C20307825782011
:107FB000307825782030782578000000524C4346F0
:107FC00020256400504C4F4620256400504C434609
:107FD0002025640050414F4620256400504143460F
:107FE0002025640050504F462025640050504346E1
:107FF000202564004558204C4D454C202564000048
:108000005FF0FF0C1CEAD05114BF614506E0C110BF
:10801000400721F0E04101F16051704779B900F06B
:10802000004100020AD0B0FA80FC00FA0CF001F125
:108030006051A1EB0C5101EBD0214005704741028A
:108040000CBF40F4E0016FF0000100207047000019
:108050004FEAF17CBCF1E04C2CBFBCF5001F11E0F5
:108060005FEA4C0C34BFBCF17F5F2EE05FEA9C0CF2
:108070004FEA0C1C4FEA3C0CC10071F100414CEB83
:1080800050707047C90241EA5051C00218BF41F018
:10809000010141F000414FEA6C50C0F10900212874
:1080A00010D240EACC7CCCF1200C11FA0CF070F12B
:1080B0000040CCF1200C21FA0CF00CF0004C40EB0D
:1080C0000C0070474FEACC707047490011F5001F53
:1080D00004D84FEACC10FF30C0057047C81770476E
:1080E0001FB50CF0D7F9212101601FBDDFF8B011D9
:1080F00000220A700A70012802D0042803D07047B9
:1081000001200870704705200870704765490860B5
:10811000704710B464494A6802F00C02644B082AA4
:1081200012D10A680C6804F03F04B3FBF4F30A6848
:10813000C2F388125A430B68C3F301435B1C5B0014
:10814000B2FBF3F2026000E003604A6802F0F00361
:10815000584A1B099B5C046824FA03F343604C688B
:1081600004F4E054A40AA45CE3408360496801F489
:108170006041490B895C426822FA01F1C16010BC80
:1081800070474A4900F44072B2F5407F06D10A6850
:1081900022F4F812484B03401A430A608A6E000525
:1081A00052EA105088667047444908607047444955
:1081B00008607047434A0029116802D008431060E4
:1081C000704721EA0000106070473F4A002911689B
:1081D00002D008431060704721EA00001060704729
:1081E0003A4A0029116802D008431060704721EA1A
:1081F000000010607047364A0029116802D0084319
:108200001060704721EA000010607047314A002971
:10821000116802D008431060704721EA0000106026
:1082200070472D4A0029116802D00843106070473A
:1082300021EA000010607047284A0029117802D016
:1082400008431070704721EA000010707047002149
:108250004209124B012A01D11A6804E0022A01D115
:108260001A6F00E05A6F012300F01F0003FA00F0BC
:10827000024200D01946084670471948016841F08B
:108280008071016070470021164A1268024200D0D6
:1082900001210846704714490870704700380240B1
:1082A00070380240800E47420438024008380240CD
:1082B0000024F4000C7A0020FFFCFF0F3C0E474224
:1082C000400E4742303802404038024044380240B5
:1082D0001038024020380240243802400D38024055
:1082E000743802400C3802400E38024080B52749ED
:1082F000884209D101210846FFF77DFF00210120B6
:10830000BDE80440FFF777BF2149884209D1012128
:108310000220FFF770FF00210220BDE80440FFF7B4
:108320006ABF1C49884209D101210420FFF763FF7D
:1083300000210420BDE80440FFF75DBF16498842D4
:1083400009D101210820FFF756FF00210820BDE8D0
:108350000440FFF750BF1149884209D10121102084
:10836000FFF749FF00211020BDE80440FFF743BF9D
:108370000B49884209D101218020FFF73CFF0021F1
:108380008020BDE80440FFF736BF01BD0000024079
:108390000004024000080240000C024000100240AD
:1083A000001C0240F0B4002232E0012393400C682C
:1083B0001C409C422BD154000325A540ED43066888
:1083C0002E40066006680F79A7403E4306600E798E
:1083D000012E01D0022E11D186682E40866086685B
:1083E0004F79A7403E438660466826EA0303436010
:1083F00043688E799640B6B233434360C3682B40DE
:10840000C360C368CD7905FA04F42343C360521CEA
:10841000102ACAD3F0BC70474FF6FF7101600021EB
:10842000017141718171C171704700220069084278
:1084300000D0012210467047018370474183704786
:1084400010B4CB1000EB830001F007018900036A30
:108450000F248C40A3430362036A02FA01F119431B
:10846000016210BC7047000080B5434988420BD1BF
:1084700001214FF40010FFF7C9FE00214FF4001056
:10848000BDE80440FFF7C2BE3C4988420BD1012140
:108490004FF48000FFF7BAFE00214FF48000BDE8E2
:1084A0000440FFF7B3BE364988420BD101214FF497
:1084B0000000FFF7ABFE00214FF40000BDE80440D0
:1084C000FFF7A4BE01BD7FB504460D46A68800A8EF
:1084D000FFF71FFE02992B48B1FBF0F04FF6C07278
:1084E00032400243A28022884FF6FE731A40228057
:1084F0002A68254B9A420AD25200B1FBF2F10A4691
:1085000092B2042A00D20421401C208421E0EB888E
:108510004BF6FF76B34204D102EB4202B1FBF2F11B
:1085200006E019235A43B1FBF2F141F4804189B2CC
:108530000A0502D141F0010189B241F4004180B243
:108540004FF4967250434FF47A7290FBF2F0401C55
:108550002084A183208840F00100208020884FF6ED
:10856000F5310840A9880843698908432080A88913
:108570002989084320817FBD0054004000580040F5
:10858000005C004040420F00A186010000290188E4
:1085900003D041F00101018070474FF6FE72114097
:1085A000018070470029018803D041F48071018067
:1085B00070474FF6FF621140018070470029018823
:1085C00003D041F40071018070474FF6FF52114013
:1085D00001807047002A02D041F0010101E001F062
:1085E000FE01018270470029018803D041F48061B7
:1085F000018070474FF6FF3211400180704700291B
:10860000018803D041F40041018070474904490CBE
:108610000180704782B00246002003460193009318
:1086200000920A0F01920902090A019A002A03D056
:10863000009A1432009203E0090C009A183200925A
:10864000009A12680A4200D0012002B07047000070
:1086500080B5254988420BD101214FF48050FFF7A6
:10866000E0FD00214FF48050BDE80440FFF7D9BD84
:108670001E4988420BD101214FF48040FFF7C6FD0F
:1086800000214FF48040BDE80440FFF7BFBD18490A
:1086900088420BD101214FF40040FFF7B7FD0021C4
:1086A0004FF40040BDE80440FFF7B0BD01BD0288B3
:1086B00002F441520B881A434B881A438B881A43A1
:1086C000CB881A430B891A434B891A438B891A4367
:1086D000CB891A430280828B4FF2FF731A40828348
:1086E000098A0182704700000030014000380040D4
:1086F000003C00400029018803D041F04001018086
:1087000070474FF6BF72114001807047002A82887F
:1087100002D011438180704722EA010181807047B5
:1087200000220089084200D0012210467047000054
:1087300001684908490001600021016041608160D1
:10874000C1600161212141616A49884203D16A48BF
:108750003D21016070476949884204D166484FF461
:108760007461016070476649884204D162484FF4E1
:108770007411016070476349884204D15E484FF02C
:108780007461016070476049884203D15A485F496B
:10879000416070475E49884203D157485D49416056
:1087A00070475D49884203D153485C494160704736
:1087B0005B49884204D150484FF03D5141607047B9
:1087C0005849884203D158483D21016070475749B4
:1087D000884204D154484FF4746101607047544991
:1087E000884204D150484FF47411016070475149D8
:1087F000884204D14C484FF07461016070474E4983
:10880000884203D148484149416070474B498842FA
:1088100003D145483F49416070474949884203D1E7
:1088200041483E49416070474649884203D13E482D
:108830004FF03D51416070470268434B1A400B684E
:108840001A43CB681A434B691A438B691A43CB69A5
:108850001A430B6A1A434B6A1A438B6A1A434B6BCF
:108860001A438B6B1A4302604269D208CB6A53EAFF
:10887000C2020B6B1A4342610A6942604A68826015
:108880008968C16070470029016803D041F0010187
:10889000016070474908490001607047002A01D013
:1088A00001617047C1607047006800F001007047C7
:1088B00000221C4B984201D2244800E024488B003F
:1088C00001D5406800E0006808402249084200D015
:1088D000012210467047134A904201D21B4800E023
:1088E0001B481C4A0A40890001D5C260704782605B
:1088F000704700001060024008600240286002409B
:108900004060024058600240706002403D0000201C
:1089100088600240400F0020A060024000003D201F
:10892000B8600240106402400864024028640240BB
:10893000406402405864024070640240886402400F
:10894000A0640240B86402403F801CF00060024016
:10895000006402407D0F7D0F0249086070470249A4
:108960000860704720000E4224000E4270B5044695
:108970000026DFF83854CA20E8615320E86100F08F
:1089800018F8002811D0286820F0400028602868D6
:10899000216808432860A068A860A868616840EA68
:1089A0000140A86000F024F80126FF20E86130466D
:1089B00070BD81B000200090DFF8F4030168490623
:1089C00013D44FF0FF310160016801F04001009ABB
:1089D000521C0092009AB2F5803F01D00029F3D0DA
:1089E0000068800900F0010000E0012001B070473C
:1089F000DFF8BC03016821F080010160704781B09D
:108A000000200090DFF8A813CA20886153208861F5
:108A1000086820F0A0000860086800F02000009AB4
:108A2000521C0092009AB2F5003F01D00028F3D00A
:108A30000868400900F00100FF228A6101B0704718
:108A4000F8B507460E460024DFF85C53002FA868EF
:108A500004D140060AD42046F07007E0400603D552
:108A6000307800F0BEF901E02046F0703078002F39
:108A700009D07178090241EA0040B1780843F178E1
:108A800040EA01460FE000F0A1F90746707800F0D7
:108A90009DF9000240EA0747B07800F097F93843A3
:108AA000F17840EA0146CA20686253206862FFF705
:108AB00080FF00280FD0DFF8FC0230402860FFF76D
:108AC00097FFA868800605D4FFF799FF002802D019
:108AD000012400E00124FF2068622046F2BD10B5A9
:108AE0000C46DFF8C4120968DFF8C82211400A0CEE
:108AF00002F03F0323700B0A03F07F03637001F061
:108B00007F01A17002F04001E17000280BD12078B4
:108B100000F067F92070607800F063F96070A07869
:108B200000F05FF9A07010BDDFF88C12486A096888
:108B3000704770B506460D460024002E06D16878B1
:108B4000C10603D500F0EF000A306870002E05D092
:108B5000687800F046F9A87800F043F9E878002E2C
:108B600009D06978090241EA0040A97808432978C8
:108B700040EA41360FE000F029F90646687800F037
:108B800025F9000240EA0646A87800F01FF93043B4
:108B9000297840EA4136DFF82052CA202862532063
:108BA0002862FFF706FF00280FD0DFF810023040E0
:108BB0002860FFF71DFF6868800605D4FFF71FFFD8
:108BC000002802D0012400E00124FF202862204672
:108BD00070BD10B50C46DFF8E0110968DFF8DC2144
:108BE00011400A0CE2700A0A02F01F02627001F0E2
:108BF0003F02A270490B01F00701217000280BD140
:108C0000E07800F0EEF8E070607800F0EAF860706C
:108C1000A07800F0E6F8A07010BDDFF89011CA222D
:108C2000CA615322CA610A68D208D2000A600A687F
:108C300010430860FF20C8617047DFF88411CA2222
:108C40000A6153220A610860FF200861704781B001
:108C500000210091DFF85411CA22CA615322CA616F
:108C60000028086804D040F480600860012012E009
:108C700020F480600860486800F00400009A521CEC
:108C80000092009AB2F5803F01D00028F3D04868E6
:108C9000800800F00100FF22CA6101B0704781B076
:108CA00000220092474A0092009A02EB8000009056
:108CB0000098016001B0704781B0002100914149E6
:108CC0000091009901EB800000900098006801B0CD
:108CD000704738B500242246344DCA23EB61532334
:108CE000EB616B681B0701D406E0521C6B681B0725
:108CF00002D5B2F5805FF8D16A68120709D42A68F4
:108D0000D20606D408436862FFF779FE002800D037
:108D10000124FF20E861204632BD244ACA23D361E2
:108D20005323D36100F0040320F0040000291168EC
:108D300005D008431060906B1843906305E021EA6A
:108D400000001060906B98439063FF20D0617047E3
:108D50000021174A12681C4B1A40024200D0012120
:108D60000846704710B40021104A936B03F00403C7
:108D70001468044003EAD0332343526802EA101017
:108D800002D0000400D00121084610BC70470849F9
:108D90000003000C40F080000A6802F0800262EAE2
:108DA00000000860704700000028004008280040CC
:108DB0000C2800407F7F7F00042800403FFFFF0019
:108DC00014280040502800407F3F0100002101E0AE
:108DD000491C0A38C0B20A28FAD240EA0110C0B2CF
:108DE0007047010901EB810200F00F0000EB420027
:108DF000C0B2704730B40168CB4321498279002A60
:108E000027D00A4614682340136053680468A343BC
:108E100053600379CC18236805682B43236093685B
:108E20000468A3439360D3680468A343D360437981
:108E30000568102B07D1916829439160D1680068BB
:108E40000843D0600AE051FA83F420682843206088
:108E500004E000790C1820681840206030BC70478E
:108E60000021074A136803405269024202D0002BD6
:108E700000D0012108467047024908607047000091
:108E8000003C0140143C014019490843194908605D
:108E9000704770B403781A460121C478002C1DD0A5
:108EA000144B1B6803F4E063C3F5E0631B0A4478CA
:108EB000C3F10405AC4085780F2646FA03F32B4036
:108EC00023431B010C4C1355007842110B4B00F04F
:108ED0001F0001FA00F043F8220006E05011084A92
:108EE00003F01F03994042F8201070BC7047000047
:108EF0000000FA050CED00E000E400E000E100E015
:108F000080E100E030B401F00302920021F003019F
:108F1000054BCC580F259540AC43CC50CC589040D5
:108F20002043C85030BC70470838014080B501214B
:108F30004FF48070FFF775F900214FF48070BDE8A1
:108F40000440FFF76EB942684D4B1A400B7942EA74
:108F500003220B681A43426082684A4B1A400B692D
:108F60001A43CB681A438B681A434B7942EA43028F
:108F70008260C26A22F47002097D491EC9B242EAC7
:108F80000151C1627047002101600171417181602E
:108F9000C16001610121017570473B490A683B4B83
:108FA0001A4003681A4343681A4383681A43C06827
:108FB0001043086070470021016041608160C1601A
:108FC00070470029816803D041F00101816070473A
:108FD000490849008160704770B407240A290BD3FF
:108FE000C568A1F10A0606EB4606B44025EA04046A
:108FF000B3402343C36008E0056901EB4106B44078
:1090000025EA0404B340234303611F23072A0AD23D
:10901000446B521E02EB8202934024EA0303914008
:109020001943416316E00D2A0AD2046BD21F02EBEA
:109030008202934024EA030391401943016309E04B
:10904000C46A0D3A02EB8202934024EA0303914082
:109050001943C16270BC7047816841F080418160F2
:1090600070470029816803D041F4806181607047B6
:1090700021F4806181607047C06C80B2704700004D
:10908000FFFEFFFCFDF7FFC004230140E030FCFFC2
:1090900000220068084200D00122104670470000FC
:1090A00013F0004C03D55B42524263F100039CEA8B
:1090B000210C00F0178010B5644603D349424042AA
:1090C00061F1000100F00EF8640004D3494240420F
:1090D00061F10001244203D55B42524263F1000377
:1090E00010BD00001B4213D1094236D12AB184467B
:1090F000B0FBF2F002FB10C270470BF0D1B9FCD309
:109100000022002370470B0002000021002070475E
:10911000904271EB030CF6D370B5B1FA81F4B3FA57
:1091200083F52C1BA340C4F1200532FA05F6334326
:10913000A2405FF00046E64002E05B085FEA3202D0
:10914000841A71EB030524BF204629467641F4D3E7
:1091500002000B003000002170BD012ACFD970B58C
:10916000140C20D0B1FA81F4B2FA82F5C4F12004D3
:109170006419B4F12006D6D3B2405FF00044F44045
:10918000002502E052085FEA3303C61A71EB020EB3
:1091900024BF3046714664416D41F3D302000B0099
:1091A0002000290070BD0C46B1FBF2F102FB114515
:1091B0002D0445EA1045B5FBF2F402FB145580B2CC
:1091C00040EA0545B5FBF2F002FB105240EA0440CC
:1091D00070BD000000B500BF1300964694461039DC
:1091E00028BFA0E80C50FAD85FEA417C28BF0CC029
:1091F00048BF40F8042BC90728BF20F8022B48BFFE
:1092000000F8012B00BD00002DE9F04FA1B0804611
:1092100017461D46029102AE0020706211AC6FF03D
:1092200000490AE017F8011B0298C0470290002885
:1092300000F06A82706A401C7062387808B9706AFF
:1092400064E22528EED10020F06030617061B061E9
:10925000F061306201E040F0010017F8011F2029A1
:10926000F9D023290DD02B2904D02D2906D030295F
:109270000AD00CE040F0020080B2EEE740F00400BB
:10928000FAE740F00800F7E740F01000F4E72A2979
:109290000DD129680A1D2A600968F162002904D5E8
:1092A0004942F16240F0040080B27F1C12E00021CC
:1092B000F16209E0F16A494505D001EB810302EB57
:1092C00043013039F1627F1C3A78A2F13001C9B212
:1092D0000A29EFD339782E2903D04FF0FF31B1623C
:1092E0001DE017F8011F2A2906D129680A1D2A60E6
:1092F0000968B1627F1C12E00021B16209E0B16A25
:10930000494505D001EB810302EB43013039B162DD
:109310007F1C3A78A2F13001C9B20A29EFD3308616
:1093200039780FF698300BF0BDF808B117F8010B3B
:109330008DF83A009DF83A00682804D138786828FA
:109340000AD1622005E06C2804BF38786C2803D16C
:1093500071208DF83A007F1C11A8B0603978B1F106
:10936000250023D01C3871D0001F02286ED9133875
:1093700000F09680093869D0801E00F02781401ED9
:1093800000F0D180401E022860D9001F00F0CB8081
:10939000401F30D0401E00F08380401E20D0C01EF1
:1093A00009D0801E7CD0C01E7AD017E1F068411C25
:1093B000F16025211BE12868011D296000687060AB
:1093C000B26A002A02D5FBF7CFF907E000210BF0C3
:1093D00075F800281ABF7168401AB06A306107E159
:1093E0002868011D296000680021CDE9000111A84D
:1093F00070607821E6E09DF83A00622818D068286D
:1094000006D06A280BD06C2819D0712807D016E036
:109410002868011D2960716A00680180E8E02A68F7
:10942000101D2860706AC1171268C2E90001DFE0F0
:109430002868011D2960716A00680170D8E02868F9
:10944000011D2960716A00680160D1E02868C01DB3
:1094500020F00700286000F108022A60D0E900230C
:10946000CDE90023002B04D5F068421CF2602D22C8
:109470000DE0308E820704D5F068421CF2602B228A
:1094800005E0C00704D5F068421CF26020220255B6
:10949000F06811AA8018706000A800F0C5F9A7E074
:1094A0009DF83A006C2808BF2A6811D0712808BFBF
:1094B0002A6802D06A282A680AD1D21D22F007023F
:1094C0002A6094460CF108022A60DCE9002303E0DC
:1094D000131D2B6012680023CDE90023682808BF04
:1094E00092B207D0622808BFD2B203D0742818BF46
:1094F0007A2802D10023CDE9002396F83000000736
:109500005CD5DDE90023002B08BF002A56D041F0CE
:109510002000782852D1F06830220255401C421CAD
:10952000F26001554AE09DF83A0062280CD06828A4
:1095300010D06A281AD06C2823D0712816D074282D
:109540001FD07A280CD01CE02868021D2A6090F9F0
:1095500000201AE02868021D2A60B0F9002014E0FB
:109560002868021D2A60026800230FE02868C01DD9
:1095700020F00700286000F108022A60D0E90023EB
:1095800004E02868021D2A600268D317CDE9002391
:10959000002B04DAF068421CF2602D220DE0308EC0
:1095A000820704D5F068421CF2602B2205E0C00758
:1095B00004D5F068421CF26020220255F06811AA1E
:1095C0008018706000A800F0A4F811E0F068411C59
:1095D000F16029680A1D2A60096808E0F068421CE9
:1095E000F2602522025519B1F068421CF260015563
:1095F0007F1CF06AF168401AB169401A3169401A5B
:10960000F169401A7169401A316AA0EB010A96F8B3
:109610003000400711D420208DF84000BAF1010F2E
:109620000BDBD346012310AA00A9404600F02FFC13
:10963000002869D1BBF1010BF4D1F36811AA00A98C
:10964000404600F024FC00285ED130208DF8400018
:10965000D6F818B0BBF1010F0ADB012310AA00A94C
:10966000404600F014FC00284ED1BBF1010BF4D1B0
:109670003369726800A9404600F009FC002843D114
:1096800030208DF84000D6F81CB0BBF1010F09DB8B
:10969000012310AA00A9404600F0F9FBA0BBBBF1D2
:1096A000010BF5D1736930697168421800A9404611
:1096B00000F0EDFB40BB30208DF84000D6F820B024
:1096C000BBF1010F09DB012310AA00A9404600F0FD
:1096D000DEFBC8B9BBF1010BF5D196F830004007AD
:1096E0007FF5ABAD20208DF84000BAF1010FFFF6F9
:1096F000A4AD012310AA00A9404600F0C8FB18B988
:10970000BAF1010AF5D198E54FF0FF3021B0BDE87C
:10971000F08F2DE9FA4782B0064635696F2908BFF8
:10972000082705D041F02000782814BF0A27102709
:109730003C24D6E90001804689469DF80820642A29
:1097400018BF692A05D1002903DAD8F1000869EBAE
:109750004909B9F1000F08BFB8F1000F0CD1306B07
:1097600050B9082F3BD196F83800000737D53B2475
:10977000302085F83B0032E0A4F1010A5446FB1783
:10978000404649463A46FFF7ADFCCDE90089B84668
:10979000A8FB0023DDE90089A8EB02023032D2B237
:1097A0003A2A03D39DF80830513B9A180AF805204D
:1097B00080465FEA010908BFB8F1000F03D0F068E6
:1097C00061198842D8D3082F09D196F838000007CC
:1097D00005D5605D302802D0641E30206055C4F18C
:1097E0003C00B0616119F160316B884207DA081AF8
:1097F0003062308F4FF6EF710840308710E000295B
:109800000ED596F8381001F01401102908D1716BAB
:109810007269891A326A891A081A0128A8BF306247
:1098200004B0BDE8F08700002DE9F24F8EB0044689
:1098300004AED4E90001CDE902019DF8380040F002
:1098400020008DF8000061280BD0206B002848BF55
:10985000062005D404BF9DF80000672801D101202F
:1098600020636168C1F30A5040F2FF7398421ED131
:10987000080304BF206800280AD10320A0619DF8D6
:1098800038006138C0B21A2838D30FF2446109E0B9
:109890000320A0619DF838006138C0B21A282AD38D
:1098A0000FF224610322E068F9F7C0F8B9E101285A
:1098B00017DA20460AF02EFE012812DB00270020CE
:1098C0009DF80010612920D1E168302201F8012BB8
:1098D0004A1CE2609DF83820612A0CBF7822582289
:1098E0000FE040F2FE31626861F31E526260471A77
:1098F0004FF0FF30E4E70FF2CC51D3E70FF2CC5139
:10990000D0E70A706169891C616110B900250027E0
:109910007EE19DF80000612840F09780206B0028D0
:109920004CBF2125451C2DB26E1CD4E90089DDE910
:10993000020100220023F9F773FA3ABF89F00040D0
:10994000CDE90280CDE902893F1F8DF810200DF18D
:109950001108012E35DBDDE90201002200230AF0A7
:10996000FBFD2ED21C2102A80AF00EFEDDE9020149
:10997000F9F7A2FC8146F61F012E09DBF9F76CFA14
:1099800002460B46DDE90201F9F7ACF8CDE9020128
:1099900008F20700072105E009F00F0200F8012D89
:1099A0004FEA2919B9F1010F01DB491EF4D5491E0F
:1099B0005CBF002200F8012DF9D500F20708012E46
:1099C000C9DA0DF11100A8EB00010DF11106A94251
:1099D000B8BF0D462DB2002D30D42846884206DA95
:1099E00004A941184978082928BF0F2100D2002175
:1099F00004AA821800E06D1E401E12F801398B4245
:109A0000F9D00F2904D104A941184A78521C4A7090
:109A1000002802D504AE6D1C3F1D2DB2681E0DD46A
:109A200081190A783032D2B23A2A03D39DF83830FD
:109A30003A3B9A1801F80129401EF2D5206B002804
:109A400040F1E680681E2063E2E0DDE902010022C9
:109A50000023F9F7E5F93CBF81F00041CDE90201AF
:109A60003FB247F297507843474990FBF1F73FB236
:109A7000C7F107069246DFF814B1012E19DBDDE9C4
:109A80000289F00707D552465B4640464946F9F73A
:109A9000E9F88046894676105046594652465B465C
:109AA000F9F7E0F882468B46002EEAD1CDE902892B
:109AB00021E076429046DFF8D89012E0F00707D513
:109AC00052465B4640464946F9F7CCF880468946FF
:109AD00076105046594652465B46F9F7C3F882461F
:109AE0008B46002EEAD1DDE9020142464B46F9F7EA
:109AF0003FFACDE902019DF8000066280CBF07F18E
:109B00000A000620216B4518142DA8BF132530200C
:109B10008DF810000DF11106DFF87890012D3BDB78
:109B2000DDE90201F9F7DEFB06F1080104220A264D
:109B3000B0FBF6F303EB830EA0EB4E00303001F8E0
:109B4000010DB3FBF6F000EB8006A3EB46033033C8
:109B500001F8013D521EEAD101F10806083D012D30
:109B6000DCDBDDE90201F9F7BDFBF9F77FF902461D
:109B70000B46DDE90201F8F7B5FF00224B46F9F785
:109B800071F8CDE90201CBE7A08601000000244076
:109B90000000F03F84D797410DF11100301A0DF10C
:109BA000110602E0401E7F1E761C31783029F9D064
:109BB0009DF80010662902D13FB2791C03E06529A7
:109BC0000CBF01210021226B8D182DB2A842B8BF15
:109BD00005462DB2002D1BD42946814204DA885D4A
:109BE000352828BF392000D230208A19521E00E0C3
:109BF0006D1E491E12F801398342F9D0392802D16D
:109C0000885D401C8855002902D5761E6D1C7F1C7E
:109C10003FB200972BB232469DF83810204600F034
:109C200003F80FB0BDE8F08F2DE9F04385B005468D
:109C3000894617461E46D5F83080012E02DA0126E5
:109C40000FF2902749F02000BDF93040662808BF88
:109C5000641C18D0672840F082806FF003008442B3
:109C6000C0F28380444580F28080641C95F83800FF
:109C7000000702D44645B8BFB04624B2B8EB04088A
:109C800048BF4FF00008E868A96924B2012C25DA22
:109C90004A1C30230B54B8F1010F03DA95F8381041
:109CA000090702D52E211154521CAA6118EB040F8A
:109CB000B8BFC8F1000424B261426962A044B04553
:109CC000B8BF464636B2EE6132463946AB6918181F
:109CD000F8F7ACFEA8EB0600A862C1E00818A6429F
:109CE00018DA32463946F8F7A1FEA9697118A96158
:109CF000A01B6862B8F1010F03DA95F8380000077D
:109D000005D5E8682E220A54E869401CE861C5F8C8
:109D10002880A5E022463946F8F788FEA869201871
:109D2000361BB8F1010F03DA95F83810090703D58F
:109D3000E9682E224254401CA86136B2B045B8BF33
:109D4000464636B23246E119EB68C018F8F76EFEA7
:109D5000A8693018A861A8EB0600686280E0B9F134
:109D6000610F16D14FF0700918E0464504DA95F8F6
:109D70003810090758BFB046B8F1010848BF4FF086
:109D80000008B9F1670F14BF4FF045094FF065099E
:109D900004E0B9F1410F08BF4FF05009A9694A1C0E
:109DA000E86817F8013B0B54B8F1010F05DA95F894
:109DB0003810090758BFAA6117D52E211154531C1A
:109DC000AB61B8F1010F10DB761E36B2B045B8BFFB
:109DD000464636B2324639461818F8F727FEA869C3
:109DE0003018A861A8EB06006862A869E9684718FE
:109DF00007F8019B002C03D42B2007F8010B03E08C
:109E00002D2007F8010B644200260DF1080809E037
:109E10000A22214600A80AF041FC019808F8010B2B
:109E2000009C761C24B2012CF2DA022E06DA49F0EC
:109E30002000652804BF302007F8010B4EB9302000
:109E400007F8010B07E0761E02A8305C303007F8F7
:109E5000010B012EF7DAA869E9684018381AE861A1
:109E600095F8380000F0140010280DD16869A96930
:109E70000818696A0818E9690818A96A0818696B56
:109E80008842BCBF081A286205B0BDE8F083F8B567
:109E900004460D4616461F46002077B116F8011BF2
:109EA000A868A047A86030B1E86A401CE8620020BA
:109EB0007F1EF3D1F2BD4FF0FF30F2BD686A6C74C3
:109EC0007A4C00006E616E004E414E00696E660075
:109ED000494E4600300000000CB41CB5044604A8EE
:109EE0000190009401AB0A4600A907487844183055
:109EF000FFF78AF9009900220A7000285CBF0098D9
:109F0000001B16BC5DF80CFB478FFFFF01B58B07EC
:109F100018D1121F21D351F8043BA3F1013C2CEAC4
:109F2000030C1CF0803C04BF40F8043BF1E79CFAB2
:109F30008CFCBCFA8CF1C1F118018B40CB4040F88D
:109F4000043B13E0042A09D311F8013B521E00F828
:109F5000013B5BB18B07F7D1DBE7121D5AB111F85A
:109F6000013B521E00F8013B03B1F8D111001CBFA8
:109F70000022F9F7D1F901BD002801D10A48806813
:109F800090F84C10642901D0002000E0806A7047EE
:109F9000002801D10448806890F84C10642901D051
:109FA000002000E0406A7047247900200248704792
:109FB00002480149401A704700000020002000209C
:109FC0004C48C168002903D54B4901604B490160E9
:109FD00070474B48016841F000410160704770B51F
:109FE0000446002600290BD0012902D14FF48076C7
:109FF00006E0022902D14FF4007601E04FF44076EA
:10A0000000F082F809281ED13D4D286820F44070E8
:10A010002860286830432860286820F0F80028600D
:10A02000286844F0020108432860286840F4803022
:10A03000286000F069F8296821F002012960296888
:10A0400021F0F801296070BD70B504460D4600F09E
:10A050005BF8092813D12A4E306820F44070306034
:10A06000306840F400703060306840F001003060CB
:10A07000256000F049F8316849084900316070BD39
:10A0800070B505460E4600F03FF8092811D11C4C6A
:10A09000206820F44070206020682060206840F034
:10A0A000010020602E7000F02FF821684908490057
:10A0B000216070BD134908607047092011490A6882
:10A0C000D20301D5012070470A68D20601D50620C7
:10A0D00070470A68D20501D5022070470A6812F05D
:10A0E000EF0F01D0072070470968890700D50820C5
:10A0F00070470000043C024023016745AB89EFCD67
:10A10000103C02400C3C024080B509208DF8000054
:10A11000FFF7D3FF8DF8000003E0FFF7CEFF8DF8C7
:10A1200000009DF800000128F7D09DF8000002BD56
:10A130000901002806D500F00F004C4A801800F8ED
:10A14000041C70474A4A8154704710B5B0F1807FB3
:10A1500001D3012010BD474C0002000A401E606080
:10A160000F214FF0FF30FFF7E3FF0020A060072032
:10A170002060002010BD38B53F4D2878401C287065
:10A180003E4C2078401C2070FBF7B7F90AF08EFA9D
:10A190002878411E2970002802D19820FAF700FB88
:10A1A0002078012804D16068002801D0FAF75BFB11
:10A1B0002078401E207031BD10B5304C6078F02101
:10A1C000084202D09920FAF7EBFAFAF756FB6078CA
:10A1D000401C60700AF0C4FA294800684FF47A7194
:10A1E000B0FBF1F0FFF7B1FF002800D0FEE72548F3
:10A1F000254901600E214FF0FF30FFF799FF60788D
:10A20000F021084202D09920FAF7CAFA6078401E7D
:10A210006070C0B2002803D1BDE81040FAF727BB38
:10A2200010BD0000194C4FF400512046FEF706F90E
:10A2300030BF4FF400512046FEF7FEF8F3E710B4AC
:10A240000E48006A0E4909684FF47A72B1FBF2F1C8
:10A250000F4A1368CB1A0F4C2468640102D51268A8
:10A260008B1A401C00FB013010BC704718ED00E059
:10A2700000E400E010E000E06C2B012024790020D5
:10A28000D879002008ED00E000000008001002402E
:10A2900018E000E004ED00E0EFF3058000284AF04C
:10A2A000BF82704780B5EFF3108072B60B49096822
:10A2B00051F47F01094A116080F310880848006852
:10A2C00010F4700F02D1A720FAF76AFA05485FF080
:10A2D0000071016004480021016001BD20ED00E033
:10A2E00088ED00E03CEF00E034EF00E010B5040042
:10A2F00010480078002805D10F480AF0D0FA0D4820
:10A30000012101700C480AF000FB20000BF07CF9E1
:10A31000040009480AF02DFB200010BD10B5040010
:10A3200005480AF0F2FA20000BF0BAFA02480AF0E7
:10A3300020FB10BD6F2B01204428012000487047EE
:10A3400010110120BFF34F8FDFF8B40C006810F438
:10A35000E060DFF8B01C0843DFF8A41C0860BFF31E
:10A360004F8FFEE700B583B00020ADF80400002059
:10A370008DF8060000208DF80700012000900DF1F7
:10A3800006037622D0210020F8F7DCF8002801D15E
:10A39000002044E076208DF804009DF8060050F07F
:10A3A00020008DF80500022301AAD0210020F8F733
:10A3B0006FF8002801D1002031E0012000900DF15C
:10A3C00007034922D0210020F8F7BCF8002801D16A
:10A3D000002024E049208DF804009DF8070050F08B
:10A3E00001008DF80500022301AAD0210020F8F712
:10A3F0004FF8002801D1002011E076208DF80400EC
:10A400009DF806008DF80500022301AAD021002046
:10A41000F8F73EF8002801D1002000E001200EBD31
:10A4200038B50400F7F73DFF0500DFF8040D0078AC
:10A43000401CDFF8FC1C0870DFF8F40C4078F021B9
:10A44000084202D09920FAF7ABF9FAF716FADFF8CA
:10A45000E00C4078401CDFF8D81C4870210089B21D
:10A460002800F8F70AF9DFF8C80C4078F021084214
:10A4700002D09920FAF794F9DFF8B40C4078401E26
:10A48000DFF8AC1C4870C0B2002801D1FAF7EFF930
:10A49000FBF74FF831BD10B582B00020ADF80000D9
:10A4A000F7F7FFFE04006B208DF8000080208DF888
:10A4B0000100022300AAD0210020F7F7E9FF0028BD
:10A4C00001D1002094E064212000F8F7D6F8FFF7CE
:10A4D00049FF002801D100208AE06B208DF80000A0
:10A4E00000208DF80100022300AAD0210020F7F7F8
:10A4F000CFFF002801D100207AE028212000F8F7C2
:10A50000BCF819208DF8000004208DF8010002230A
:10A5100000AAD0210020F7F7BBFF002801D10020BE
:10A5200066E01A208DF8000003208DF80100022358
:10A5300000AAD0210020F7F7ABFF002801D10020AE
:10A5400056E01B208DF8000008208DF80100022342
:10A5500000AAD0210020F7F79BFF002801D100209E
:10A5600046E01D208DF8000003208DF80100022335
:10A5700000AAD0210020F7F78BFF002801D100208E
:10A5800036E06A208DF8000000208DF801000223DB
:10A5900000AAD0210020F7F77BFF002801D100207E
:10A5A00026E06C208DF800003F208DF801009DF81A
:10A5B0000110DFF8500DF7F7F5FE022300AAD021B5
:10A5C0000020F7F765FF002801D1002010E06B2084
:10A5D0008DF8000040208DF80100022300AAD02150
:10A5E0000020F7F755FF002801D1002000E00120EE
:10A5F00016BD0178407850EA012000B2704780B55E
:10A6000002200090DFF8003D6B22D0210020F7F7F8
:10A6100099FF002801D100205BE001200090DFF8C5
:10A62000EC3C1A22D0210020F7F78CFF002801D142
:10A6300000204EE001200090DFF8D43C1B22D02106
:10A640000020F7F77FFF002801D1002041E0012022
:10A650000090DFF8C03C1C22D0210020F7F772FFE9
:10A66000002801D1002034E001200090DFF8A83C50
:10A670001D22D0210020F7F765FF002801D100201E
:10A6800027E001200090DFF8943C6A22D0210020CE
:10A69000F7F758FF002801D100201AE001200090B0
:10A6A000DFF87C3C3822D0210020F7F74BFF002850
:10A6B00001D100200DE001200090DFF8683C192254
:10A6C000D0210020F7F73EFF002801D1002000E054
:10A6D000012002BD80B50020ADF800001A208DF8E1
:10A6E0000000DFF8240C00798DF80100022300AA95
:10A6F000D0210020F7F7CCFE002801D1002090E007
:10A700001B208DF80000DFF8000C40798DF8010067
:10A71000022300AAD0210020F7F7BAFE002801D1B9
:10A7200000207EE01C208DF80000DFF8DC0B807933
:10A730008DF80100022300AAD0210020F7F7A8FE1F
:10A74000002801D100206CE01D208DF80000DFF80A
:10A75000B80BC0798DF80100022300AAD021002097
:10A76000F7F796FE002801D100205AE06A208DF804
:10A770000000DFF8940BC0788DF80100022300AAD6
:10A78000D0210020F7F784FE002801D1002048E006
:10A7900019208DF80000DFF8700B80788DF801002B
:10A7A000022300AAD0210020F7F772FE002801D171
:10A7B000002036E038208DF80000DFF84C0B007ADE
:10A7C0008DF80100022300AAD0210020F7F760FED7
:10A7D000002801D1002024E06B208DF80000DFF874
:10A7E000280B00788DF80100022300AAD021002058
:10A7F000F7F74EFE002801D1002012E06C208DF802
:10A800000000DFF8040B40788DF80100022300AA55
:10A81000D0210020F7F73CFE002801D1002000E005
:10A82000012002BD10B582B00020ADF80000DFF8B5
:10A83000D80A0078400612D56B208DF80000002061
:10A840008DF80100022300AAD0210020F7F720FE96
:10A85000002801D10020C9E03220FFF7E1FD6C2083
:10A860008DF80000DFF8A00A407810F0F8008DF8AD
:10A870000100022300AAD0210020F7F709FE0028DA
:10A8800001D10020B2E06A208DF8000000208DF890
:10A890000100022300AAD0210020F7F7F9FD0028CB
:10A8A00001D10020A2E0002400E0641C062C10DA94
:10A8B00014F113008DF8000000208DF80100022330
:10A8C00000AAD0210020F7F7E3FD0028EDD10020F9
:10A8D0008CE019208DF8000000208DF80100022383
:10A8E00000AAD0210020F7F7D3FD002801D10020D5
:10A8F0007CE01A208DF8000003208DF801004FF451
:10A90000FA642000FA281DD0B0F5FA7F13D0B0F514
:10A910007A7F09D0B0F5FA6F19D19DF8010050F097
:10A9200018008DF8010016E09DF8010050F01000AD
:10A930008DF801000FE09DF8010050F008008DF83F
:10A94000010008E09DF801008DF8010003E09DF88A
:10A9500001008DF80100022300AAD0210020F7F7A2
:10A9600097FD002801D1002040E0FA2C14D0B4F566
:10A97000FA7F0DD0B4F57A7F06D0B4F5FA6F0FD117
:10A9800003208DF801000EE002208DF801000AE09E
:10A9900001208DF8010006E000208DF8010002E0A2
:10A9A00000208DF801001B208DF800009DF80100AB
:10A9B000C0008DF80100022300AAD0210020F7F783
:10A9C00067FD002801D1002010E038208DF800003C
:10A9D00000208DF80100022300AAD0210020F7F703
:10A9E00057FD002801D1002000E0012016BD00B570
:10A9F00083B00020ADF8060000208DF804006B2025
:10AA00008DF8060001208DF8070002230DF10602E3
:10AA1000D0210120F7F73CFD002801D1002023E0E0
:10AA20002820FFF7FDFC0120009001AB6C22D02113
:10AA30000120F7F787FD002801D1002014E06C20E9
:10AA40008DF806009DF8040010F0C0008DF8070096
:10AA500002230DF10602D0210120F7F719FD00288D
:10AA600001D1002000E001200EBD2DE9F04F85B09E
:10AA700004000D0016001F000020ADF8040002A81D
:10AA80000021002206C0083806208DF80600382074
:10AA90008DF8040000208DF80500022301AAD021C2
:10AAA0000120F7F7F5FC002802D15FF0FF3070E1DC
:10AAB00023208DF8040000208DF80500022301AA50
:10AAC000D0210120F7F7E4FC002802D15FF0FF302D
:10AAD0005FE16A208DF8040000208DF80500022354
:10AAE00001AAD0210120F7F7D3FC002802D15FF0A2
:10AAF000FF304EE16A208DF8040004208DF8050037
:10AB0000022301AAD0210120F7F7C2FC002802D1BC
:10AB10005FF0FF303DE11A208DF8040001208DF830
:10AB20000500022301AAD0210120F7F7B1FC00287B
:10AB300002D15FF0FF302CE119208DF804000020D5
:10AB40008DF80500022301AAD0210120F7F7A0FC0F
:10AB5000002802D15FF0FF301BE11B208DF80400BC
:10AB60008DF80540022301AAD0210120F7F790FCBF
:10AB7000002802D15FF0FF300BE1FFB2002F0FD0B1
:10AB80001C208DF804008DF80540022301AAD02175
:10AB90000120F7F77DFC002802D15FF0FF30F8E0DC
:10ABA00064B2002C02D0C820FFF73AFC6A208DF86E
:10ABB000040044208DF80500022301AAD0210120C1
:10ABC000F7F766FC002802D15FF0FF30E1E02320B8
:10ABD0008DF80400FFB2002F03D008208DF8050087
:10ABE00002E070208DF80500022301AAD021012087
:10ABF000F7F74EFC002802D15FF0FF30C9E00A20D1
:10AC0000FFF70EFC002408E0E4B2002045F8240021
:10AC1000E4B2002046F82400641CE4B2032CF3D311
:10AC20005FF00009B9F1320F6EDA0A20FFF7F8FB86
:10AC30000220009002AB7222D0210120F7F782FCA3
:10AC4000002802D15FF0FF30A3E002A8FFF7D1FC9B
:10AC50009DF8061090FBF1F8B8F1070F02DA7FF0CB
:10AC6000010096E000241AE05FFA8AFA55F82AB04B
:10AC70005FFA8AFA02A810EB4A00FFF7BAFC0BFA57
:10AC800080F05FFA8AFA45F82A001AF1010A5FFAA1
:10AC90008AFABAF1030FE7D319F10109641CE4B28F
:10ACA0004445BFDAB9F1320FBCDA9DF806000090D6
:10ACB00002AB7422D0210120F7F744FC002802D116
:10ACC0005FF0FF3065E0FFB2002F1AD05FF0000A9E
:10ACD0005FFA8AFABAF1030FDED25FFA8AFA56F8FF
:10ACE0002AB05FFA8AFA02A810EB4A00FFF781FC4B
:10ACF0000BFA80F05FFA8AFA46F82A001AF1010A84
:10AD0000E6E75FF0000AC2E723208DF80400002088
:10AD10008DF80500022301AAD0210120F7F7B8FB26
:10AD2000002802D15FF0FF3033E05FF0000A0FE04F
:10AD30005FFA8AFA55F82A004FF47A7148433221B3
:10AD400090FBF1F05FFA8AFA45F82A001AF1010A3D
:10AD50005FFA8AFABAF1030FEAD3FFB2002F17D0D5
:10AD60005FF0000A0FE05FFA8AFA56F82A004FF403
:10AD70007A714843322190FBF1F05FFA8AFA46F883
:10AD80002A001AF1010A5FFA8AFABAF1030FEAD32C
:10AD9000012005B0BDE8F08F2DE9F04389B0040033
:10ADA0000D00160000275FF0010801A800210160D6
:10ADB0005FF000090320009001AB0D22D02101209B
:10ADC000F7F7C0FB002801D15FF0FF385FF0000902
:10ADD00005E005A8002140F8291019F10109B9F191
:10ADE000030F11DA01A819F800000028F1D001A81A
:10ADF00019F80000DFF8641A11EB400030F8020C7B
:10AE000005A941F82900E8E75FF000091FE002A862
:10AE100050F82900DFF8481A884207DADFF8440AB8
:10AE2000F7F7C0FA012010FA09F0074302A850F81A
:10AE30002900DFF8341A884207DBDFF8300AF7F719
:10AE4000B1FA012010FA09F0074319F10109B9F12B
:10AE5000030F2BDA55F8290056F82910401A0AF08A
:10AE600097FF02A941F8290005A850F829000028F9
:10AE7000CDD002A850F8290005A951F8291090FB5F
:10AE8000F1F0B0F57A700AF083FF24F8190034F974
:10AE9000190040F2F5118842D7DBDFF8D409F7F743
:10AEA00081FA012010FA09F00743CEE7B4F9040053
:10AEB0000090B4F90230B4F900203900DFF8B40989
:10AEC000F7F770FA002F05D0DFF8AC09F7F76AFA48
:10AED0007FF00208404640B209B0BDE8F08338B5C3
:10AEE00005000020ADF800000020ADF80200F7F7E3
:10AEF000D8F9040038208DF8000000208DF80100FA
:10AF0000022300AAD0210020F7F7C2FA002801D1BD
:10AF1000002074E000F01AFB002801D100206EE050
:10AF20001F208DF800004B208DF80100022300AA9D
:10AF3000D0210020F7F7ACFA002801D100205EE014
:10AF40001E208DF8000006208DF80100022300AAC3
:10AF5000D0210020F7F79CFA002801D100204EE014
:10AF600069208DF80000C0208DF80100022300AA9E
:10AF7000D0210020F7F78CFA002801D100203EE014
:10AF8000012201210320F7F7FFFB0020F7F7FEFB6A
:10AF900038208DF8000040208DF80100022300AA1F
:10AFA000D0210020F7F774FA002801D1002026E014
:10AFB000012028702000407DC046012810D00121CA
:10AFC0002000F7F75AFBBDF80200401CADF8020064
:10AFD000BDF802003228EDD3DFF8A008F7F7E2F958
:10AFE000012200210320F7F7CFFB0020F7F7CEFB6B
:10AFF00000F0A2FB002801D1002000E0012032BDBA
:10B000000CED00E00400FA0570B58EB0040000A855
:10B010000021002206C00838012500260BA80021C7
:10B02000002200230EC00C3808A8002100220023B3
:10B030000EC00C3805A80021002200230EC00C38D9
:10B0400002A80021002200230EC00C38FFF7D7FA17
:10B05000002801D1002056E0FFF7E4FB002806D0CD
:10B060000126FFF7C4FC002803D100204BE000209C
:10B0700049E0012302AA08A90020FFF7F6FC050019
:10B080006DB2012D04D0DFF8F007F7F78BF91CE063
:10B09000012305AA0BA97FF01F00FFF7E6FC0500BE
:10B0A0006DB2012D04D0DFF8C807F7F77BF90CE08B
:10B0B00005AA02A900A8FFF76FFE05006DB2012DD9
:10B0C00003D0DFF8A007F7F76DF92670BDF8000090
:10B0D0006070BDF900000012A070BDF80200E070C1
:10B0E000BDF9020000122071BDF804006071BDF9C5
:10B0F00004000012A071E571FFF7ECFA002801D1FD
:10B10000002000E001200EB070BD80B5DFF87007B0
:10B110000078002809D1FFF7BEF9002801D10020EE
:10B1200004E0DFF85C0701210170012002BD00008E
:10B13000247900201CB500208DF806000020ADF811
:10B140000400F7F7AEF80400012000900DF10603AB
:10B150006B22D0210020F7F7F5F9002801D100205B
:10B1600088E09DF806006021084216D06B208DF81B
:10B1700004009DF8060010F09F008DF805000223E2
:10B1800001AAD0210020F7F783F9002801D100207F
:10B1900070E014212000F7F770FA012000900DF103
:10B1A00006036C22D0210020F7F7CCF9002801D14A
:10B1B00000205FE06C208DF804009DF8060010F080
:10B1C000C7008DF80500022301AAD0210020F7F75F
:10B1D0005FF9002801D100204CE00A212000F7F798
:10B1E0004CFA1D208DF8040043208DF80500022341
:10B1F00001AAD0210020F7F74BF9002801D1002047
:10B2000038E01C208DF8040000208DF80500022392
:10B2100001AAD0210020F7F73BF9002801D1002036
:10B2200028E020208DF8040080208DF805000223FE
:10B2300001AAD0210020F7F72BF9002801D1002026
:10B2400018E01F208DF8040080208DF805000223EF
:10B2500001AAD0210020F7F71BF9002801D1002016
:10B2600008E0DFF82006007850F00100DFF814163F
:10B270000870012016BD00B583B000208DF80600CF
:10B280000020ADF80400012000900DF106036C22AF
:10B29000D0210020F7F756F9002801D1002030E036
:10B2A0006C208DF804009DF8060050F038008DF8F1
:10B2B0000500022301AAD0210020F7F7E9F80028B1
:10B2C00001D100201DE0DFF8BC05007880070FD415
:10B2D0006B208DF8040040208DF80500022301AAA0
:10B2E000D0210020F7F7D4F8002801D1002008E091
:10B2F000DFF89005007810F0FE00DFF88815087080
:10B3000001200EBDD41C03080C29012010290120A6
:10B310001129012012290120132901200F290120C0
:10B32000142901200E29012000B583B000208DF8DA
:10B3300004000020ADF806000120009001AB6C2253
:10B34000D0210020F7F7FEF8002801D1002014E0FA
:10B350006C208DF806009DF8040050F038008DF840
:10B36000070002230DF10602D0210020F7F790F824
:10B37000002801D1002000E001200EBDF0B585B00D
:10B3800004000E0002A80021002206C00838002098
:10B39000ADF804000125F6F784FF0700DFF8E804A4
:10B3A0000068401CDFF8E01408600120009002AB48
:10B3B0006B22D0210020F7F7C5F8002801D100202A
:10B3C000C2E09DF8080040061AD56B208DF80400F5
:10B3D0009DF8080010F0BF008DF80500022301AAB7
:10B3E000D0210020F7F754F8002801D10020ABE06D
:10B3F00014213800F7F741F9DFF89004F6F7D2FF8F
:10B400000120009002AB6C22D0210020F7F79AF8BF
:10B41000002801D1002097E09DF80800382108425B
:10B420001ED06C208DF804009DF8080010F0C700B5
:10B430008DF80500022301AAD0210020F7F728F893
:10B44000002801D100207FE005213800F7F715F929
:10B45000DFF83C04F6F7A6FFDFF8380401210160AD
:10B46000F6B2009602AB3B22D0210020F7F76AF833
:10B47000002805D1DFF82004F6F794FF002063E0F0
:10B480009DF8090020709DF8080060709DF80B0081
:10B49000A0709DF80A00E0709DF80D0020719DF8E5
:10B4A0000C006071002000E0401C062806D2015DFF
:10B4B000DFF8E823825C9142F6D00025EDB2012D41
:10B4C00018D1DFF8DC030068401CDFF8D4130860F3
:10B4D000DFF8CC030068132804D1DFF8C803F6F7BF
:10B4E00061FF0BE0DFF8B8030068142806D1FEF70F
:10B4F00029FF03E0DFF8A8030021016006222100F4
:10B50000DFF89803F9F7D0F9DFF87C030068C82169
:10B5100090FBF1F201FB1200002814D1B4F90400F1
:10B520000090B4F90230B4F90020DA480168DFF87D
:10B530007803F6F737FFD4480068DC49884202DB1D
:10B54000D14800210160012005B0F0BD30B583B0C5
:10B5500001240020ADF8060000208DF80400F6F765
:10B56000A0FE05000120009001AB6B22D02100203D
:10B57000F6F7E8FF002801D100208BE09DF80400D9
:10B5800040061AD56B208DF806009DF8040010F0D7
:10B59000BF008DF8070002230DF10602D021002024
:10B5A000F6F776FF002801D1002073E0142128006F
:10B5B000F7F763F8BE48F6F7F5FE1D208DF8060094
:10B5C00008208DF8070002230DF10602D02100208B
:10B5D000F6F75EFF002801D100205BE0012000901B
:10B5E00001AB6C22D0210020F6F7ACFF002801D17E
:10B5F00000204FE06C208DF806009DF8040050F00C
:10B6000080008DF804009DF8040050F007008DF8CC
:10B6100004009DF8040010F0C7008DF804009DF8A8
:10B6200004008DF8070002230DF10602D02100204E
:10B63000F6F72EFF002801D100202BE0012000901A
:10B6400001AB6B22D0210020F6F77CFF002801D14E
:10B6500000201FE06B208DF806009DF8040010F01C
:10B66000BF008DF804009DF8040050F020008DF814
:10B6700004009DF804008DF8070002230DF1060276
:10B68000D0210020F6F704FF002801D1002001E0BE
:10B690002000C0B23EBD80B50020ADF80000FFF72D
:10B6A00055FF002801D1002045E01F208DF8000043
:10B6B0004B208DF80100022300AAD0210020F6F7CC
:10B6C000E7FE002801D1002035E01E208DF80000A3
:10B6D00006208DF80100022300AAD0210020F6F7F1
:10B6E000D7FE002801D1002025E069208DF8000058
:10B6F000C0208DF80100022300AAD0210020F6F717
:10B70000C7FE002801D1002015E0012201210320FD
:10B71000F7F73AF838208DF8000040208DF8010046
:10B72000022300AAD0210020F6F7B2FE002801D1A2
:10B73000002000E0012002BD80B50020ADF800002F
:10B74000012200210320F7F71FF838208DF80000B0
:10B7500000208DF80100022300AAD0210020F6F776
:10B7600097FE002801D1002058E06B208DF80000E2
:10B7700000208DF80100022300AAD0210020F6F756
:10B7800087FE002801D1002048E01D208DF8000030
:10B7900000208DF80100022300AAD0210020F6F736
:10B7A00077FE002801D1002038E06C208DF80000E1
:10B7B00034480078032803D100208DF8010012E0FE
:10B7C00030480078022803D138208DF801000AE0C3
:10B7D0002C480078012803D107208DF8010002E0F1
:10B7E0003F208DF80100022300AAD0210020F6F7A7
:10B7F0004FFE002801D1002010E069208DF80000E4
:10B8000000208DF80100022300AAD0210020F6F7C5
:10B810003FFE002801D1002000E0012002BD80B5DC
:10B820000178012905D1FFF75AFB00280AD1002031
:10B8300009E00178022905D1FFF7E6FB002801D1D4
:10B84000002000E0012002BD80B51A490020FAF76F
:10B8500035FA19490B20FAF731FA01BD1806030829
:10B86000003E4900541D030801EFE7005C1D03087A
:10B870004C1D0308981C0308641D03086C1D030875
:10B880006B280120442B0120FC290120741D030892
:10B890007C1D0308542A0120841D03082C2A012042
:10B8A000C82A0120141D0308241D0308A1860100D5
:10B8B0008C1D0308F81B03081C1C030810B500248A
:10B8C000DFF8900B007800280AD1FEF7E4FD00288D
:10B8D00001D1002007E0DFF87C0B0121017000E0BE
:10B8E00001242000C0B210BD1CB500208DF8060058
:10B8F0000020ADF80400F6F7D4FC0400012000900D
:10B900000DF106036B22D0210120F6F71BFE002863
:10B9100001D1002068E09DF806006021084216D0A1
:10B920006B208DF804009DF8060010F09F008DF844
:10B930000500022301AAD0210120F6F7A9FD002865
:10B9400001D1002050E032212000F6F796FE0120C0
:10B9500000900DF106036C22D0210120F6F7F2FDD4
:10B96000002801D100203FE06C208DF804009DF8F4
:10B97000060010F0F8008DF80500022301AAD0217E
:10B980000120F6F785FD002801D100202CE00A21D6
:10B990002000F6F772FE1B208DF8040008208DF8B9
:10B9A0000500022301AAD0210120F6F771FD00282D
:10B9B00001D1002018E01A208DF8040003208DF832
:10B9C0000500022301AAD0210120F6F761FD00281D
:10B9D00001D1002008E0DFF8800A007850F0020072
:10B9E000DFF8741A0870012016BD00B583B000207E
:10B9F0008DF806000020ADF80400012000900DF144
:10BA000006036C22D0210120F6F79CFD002801D10D
:10BA1000002030E06C208DF804009DF8060050F006
:10BA200007008DF80500022301AAD0210120F6F7B6
:10BA30002FFD002801D100201DE0DFF81C0A00784E
:10BA4000C0070FD46B208DF8040040208DF805004E
:10BA5000022301AAD0210120F6F71AFD002801D106
:10BA6000002008E0DFF8F009007810F0FD00DFF8B2
:10BA7000E819087001200EBD00B583B000208DF8D4
:10BA800004000020ADF806000120009001AB6C22FC
:10BA9000D0210120F6F756FD002801D1002014E046
:10BAA0006C208DF806009DF8040050F007008DF81A
:10BAB000070002230DF10602D0210120F6F7E8FC71
:10BAC000002801D1002000E001200EBD7FB5040058
:10BAD00002A80021002206C0083800260020ADF888
:10BAE0000400F6F7DEFB05000120009002AB6B229C
:10BAF000D0210120F6F726FD002801D1002083E0A7
:10BB00009DF80800400625D56B208DF804009DF8AF
:10BB1000080010F0BF008DF80500022301AAD02113
:10BB20000120F6F7B5FC002801D100206CE032219D
:10BB30002800F6F7A2FDDFF82409F6F733FC00260B
:10BB400003E0F6B200203055761CF6B2062EF8D38C
:10BB5000012059E00120009002AB6C22D02101208D
:10BB6000F6F7F0FC002801D100204DE09DF8080018
:10BB70000721084225D06C208DF804009DF80800AC
:10BB800010F0F8008DF80500022301AAD021012051
:10BB9000F6F77EFC002801D1002035E00A212800BC
:10BBA000F6F76BFDDFF8B808F6F7FCFB002603E0BC
:10BBB000F6B200203055761CF6B2062EF8D30120DE
:10BBC00022E00620009002AB4322D0210120F6F7AC
:10BBD000B9FC002805D1DFF88C08F6F7E3FB00205C
:10BBE00012E09DF8090020709DF8080060709DF833
:10BBF0000B00A0709DF80A00E0709DF80D00207108
:10BC00009DF80C006071012004B070BD2DE9F64F65
:10BC1000ADF63C6D05000020ADF8080003A8142126
:10BC2000F8F780FD002608A80021002200230EC09E
:10BC30000C385FF0000940F68C1068444FF49661B0
:10BC4000F8F770FDFFA8E0304FF49661F8F76AFD51
:10BC50000BA84FF49661F8F765FD5FF00008002728
:10BC600000240020070000E07F1C032F80F2BA8030
:10BC70006B208DF80800781C8DF80900022302AAB9
:10BC8000D0210120F6F704FC002801D1002099E121
:10BC90003220FEF7C5FB6A208DF8080044208DF89D
:10BCA0000900022302AAD0210120F6F7F1FB0028A7
:10BCB00001D1002086E1012409E019EB060608A85D
:10BCC00050F8270019EB000008A941F827002000D0
:10BCD000441E012875DB23208DF8080070208DF8A4
:10BCE0000900022302AAD0210120F6F7D1FB002887
:10BCF00001D1002066E14B20FEF792FB23208DF856
:10BD0000080000208DF80900022302AAD02101209A
:10BD1000F6F7BEFB002801D1002053E1022000907D
:10BD200003AB7222D0210120F6F70CFC002801D1D0
:10BD3000002047E103A8FEF75CFC00EE100AB8EE15
:10BD4000C00A10EE100AFCF75BF9DFF81C27DFF8D9
:10BD50001C37F6F787FFF7F7AFFA8146B9F14800CD
:10BD60000128B4DB5FF000081DE003A8FEF741FCEA
:10BD700018EB060140F68C126A4422F811000DF10E
:10BD80000E00FEF736FC18EB0601FFAAE03222F89F
:10BD9000110004A8FEF72DFC18EB06010BAA22F8EF
:10BDA000110018F10108C84587DA0620009003AB9E
:10BDB0007422D0210120F6F7C5FB0028D5D1002040
:10BDC00000E123208DF8080000208DF809000223EF
:10BDD00002AAD0210120F6F75BFB00287FF444AFD4
:10BDE0000020EFE0002E01D0340000E001245FF0DD
:10BDF000000800200021C5E9000100200021C5E95C
:10BE0000020100200021C5E9040122E0D5E900017A
:10BE100040F68C126A4432F91820D3178018594121
:10BE2000C5E90001D5E90201FFAAE03232F9182084
:10BE3000D31780185941C5E90201D5E904010BAABD
:10BE400032F91820D31780185941C5E9040118F1B7
:10BE50000108B045DADBD5E900012200E317FDF760
:10BE60001FF9C5E90001D5E902012200E317FDF73A
:10BE700017F9C5E90201D5E904012200E317FDF72E
:10BE80000FF9C5E904015FF00008DDF83C0E00225F
:10BE90000023C0E90023DDF83C0E00220023C0E9A6
:10BEA0000223DDF83C0E00220023C0E9042382E0D7
:10BEB000DDF83C2ED2E90001CDE9000140F68C10FE
:10BEC000684430F91800C117D5E90023801A994158
:10BED00040F68C126A4432F918A05FEAEA7BD5E991
:10BEE0000023BAEB02027BEB0303A2FB00AB02FBD5
:10BEF00001BB03FB00BBDDE9000110EB0A0051EBC5
:10BF00000B01DDF83C2EC2E90001DDF83C2ED2E940
:10BF10000201CDE90001FFA8E03030F91800C11797
:10BF2000D5E90223801A9941FFAAE03232F918A01C
:10BF30005FEAEA7BD5E90223BAEB02027BEB03035B
:10BF4000A2FB00AB02FB01BB03FB00BBDDE9000170
:10BF500010EB0A0051EB0B01DDF83C2EC2E90201A7
:10BF6000DDF83C2ED2E90401CDE900010BA830F93F
:10BF70001800C117D5E90423801A99410BAA32F998
:10BF800018A05FEAEA7BD5E90423BAEB02027BEB57
:10BF90000303A2FB00AB02FB01BB03FB00BBDDE91B
:10BFA000000110EB0A0051EB0B01DDF83C2EC2E959
:10BFB000040118F10108B045FFF67AAFDDF8400E34
:10BFC000066001200DF6446DBDE8F08F2DE9F043C9
:10BFD00089B004000D00160001275FF0000801A8D9
:10BFE000002101600320009001AB0022D02101203C
:10BFF000F6F7A8FA002801D15FF0FF375FF00009DB
:10C0000007E04FFA89F905A8002140F8291019F135
:10C0100001094FFA89F9B9F1030F17DA4FFA89F9D3
:10C0200001A819F800000028EBD04FFA89F901A8FF
:10C0300019F80000DFF8381411EB400030F8020C5A
:10C040004FFA89F905A941F82900E0E75FF00009F6
:10C0500025E04FFA89F902A850F82900DFF81414F6
:10C06000884208DADFF81004F6F79CF9012010FA8C
:10C0700009F050EA08084FFA89F902A850F8290097
:10C08000DFF8F813884208DBDFF8F403F6F78AF9E3
:10C09000012010FA09F050EA080819F101094FFAD5
:10C0A00089F9B9F1030F3BDA4FFA89F955F82900FC
:10C0B0004FFA89F956F82910401A09F069FE4FFA2B
:10C0C00089F902A941F829004FFA89F905A850F821
:10C0D00029000028BDD04FFA89F902A850F829009C
:10C0E0004FFA89F905A951F8291090FBF1F0B0F544
:10C0F0007A7009F04DFE4FFA89F924F819004FFAC9
:10C1000089F934F9190040F2F5118842C5DBDD48A0
:10C11000F6F748F9012010FA09F050EA0808BCE7E0
:10C120004FFA88F8B8F1000F04D0D748F6F73AF97B
:10C130007FF00207380040B209B0BDE8F0832DE976
:10C14000F0439DB00400012501260CA81821F8F742
:10C15000E9FA06A81821F8F7E5FA02A8002101601B
:10C1600000A80021002206C00838002718A80021D6
:10C17000002200230EC00C3815A800210022002345
:10C180000EC00C3812A80021002200230EC00C386B
:10C1900003A80021002200230EC00C38BB48D0F8B1
:10C1A0000480FEF72CFA002801D10020EDE0FEF714
:10C1B00039FB0500EDB2012D09D1012702AA06A91C
:10C1C0000CA8FFF723FD002803D10020DDE00020AC
:10C1D000DBE0FEF70CFC002801D10020D5E00023B5
:10C1E00003AA15A90020FEF740FC060076B2012E36
:10C1F00002D0A748F6F7D6F8002312AA18A97FF0B4
:10C200001F00FEF732FC060076B2012E02D0A148D4
:10C21000F6F7C8F818AA15A900A8FFF7D7FE060078
:10C2200076B2012E02D09C48F6F7BCF85FF0000908
:10C2300018E05FFA89F918EB49025FFA89F90CA84E
:10C2400010EBC903D3E900018000A2F858005FFA9F
:10C2500089F918EB4900B0F958109048F6F7A2F8A0
:10C2600019F101095FFA89F9B9F1030FE1D32770D8
:10C27000BDF800006070BDF900000012A070BDF8AC
:10C280000200E070BDF9020000122071BDF8040048
:10C290006071BDF904000012A071E671029820726D
:10C2A00002980012607202980014A07202980016A0
:10C2B000E072DDE90C012073DDE90C0100B200122F
:10C2C0006073DDE90C010014A073DDE90C010016B8
:10C2D000E073DDE90E012074DDE90E0100B2001209
:10C2E0006074DDE90E010014A074DDE90E01001692
:10C2F000E074DDE910012075DDE9100100B20012E3
:10C300006075DDE910010014A075DDE9100100166B
:10C31000E075DDE906012076DDE9060100B20012D4
:10C320006076DDE906010014A076DDE9060100165D
:10C33000E076DDE908012077DDE9080100B20012AE
:10C340006077DDE908010014A077DDE90801001637
:10C35000E077DDE90A0184F82000DDE90A0100B296
:10C36000001284F82100DDE90A01001484F822009B
:10C37000DDE90A01001684F82300FEF7ABF9002876
:10C3800001D1002001E02800C0B21DB0BDE8F0835B
:10C3900030B583B004000020ADF8040000203B4914
:10C3A0004D68697A002907D1286E40688047F5F703
:10C3B00078FF0A21F6F761F90220009001AB4122D3
:10C3C000D0210120F6F7BEF8002801D1002017E0A7
:10C3D0009DF805009DF8041050EA0120032110FB90
:10C3E00001F04FF47A7190FBF1F0153020700020CD
:10C3F0006070687A002802D1286E8068804701202A
:10C400003EBD80B50178002905D1FFF798FE0028D0
:10C410000AD1002009E00178012905D1FFF7B8FF12
:10C42000002801D1002000E0012002BD80B5C0B28B
:10C43000062806D10800FFF7ABFF002801D1002035
:10C4400000E0012002BD80B515490120F9F736FC56
:10C4500001BD00006B280120442B0120941D03081E
:10C460009C1D0308A41D03082D211FF46C56C53F15
:10C470001808030830FD1300B41D030879E2D10049
:10C48000BC1D0308AC1D0308C41D030800400020A8
:10C49000CC1D0308D41D0308DC1D0308341D03084C
:10C4A000401C0308DFF87C05704730B583B00020DE
:10C4B000ADF806008DF804000120009001AB0022C9
:10C4C00018210220F6F73EF804469DF8040048289B
:10C4D0001FD131208DF806000DF10605012068708E
:10C4E00002230DF1060218211846F5F7D1FF0028A6
:10C4F0000DD031208DF806000020687002230DF168
:10C50000060218211846F5F7C3FF002802D10020C3
:10C510003EBD002418220021DFF80805F5F79EFE35
:10C5200020463EBD70B582B00020ADF8000009F095
:10C5300038FC0446DFF8F0048168497AC268527A10
:10C5400051180069407A0818012801DB012076BDE6
:10C55000DFF8D854687801281CD032208DF800000C
:10C5600000AE01207070022300AA18211846F5F7CA
:10C570008FFF00280CD031208DF800000120707052
:10C58000022300AA18211846F5F782FF002803D1DC
:10C59000002076BD01202870281D61698847012090
:10C5A00076BD38B50020ADF8000009F0FAFB04466E
:10C5B000DFF874048168497AC268527A51180069B8
:10C5C000407A0818022801DB012032BDDFF85C54F4
:10C5D0002878012812D031208DF8000000208DF835
:10C5E0000100022300AA18211846F5F751FF002880
:10C5F00001D1002032BD0020687001E000202870C9
:10C60000281D21698847012032BD80B50020ADF882
:10C61000000031208DF8000000208DF80100022379
:10C6200000AA18211846F5F733FF401E8041C04389
:10C63000C00F02BD7CB504460020ADF806008DF8A1
:10C6400004000120009001AB002218210220F5F720
:10C6500079FF05469DF80400482829D131208DF83E
:10C6600006000DF106061F20707002230DF1060270
:10C6700018211846F5F70CFF002817D0032000906A
:10C680002346602218210220F5F75CFF00280DD018
:10C6900031208DF806000020707002230DF1060293
:10C6A00018211846F5F7F4FE002802D1002076BDC7
:10C6B0000025284676BD0021DD4A02E00B5C8B5444
:10C6C000491C1B29FADBDB48C0F8D4230120704742
:10C6D0002DE9F04387B004460D4616461F464FF03D
:10C6E00000084046ADF8040002A841460A460B4641
:10C6F0000EC04FF0050906C00120009002AB1022C9
:10C7000018210220F5F71EFF9DF80810C9070ED565
:10C7100001280CD1082000900DF1090311221821E5
:10C720000220F5F70FFF002807D140467AE048467F
:10C73000A0F1010980B20028DED1BF489DF80810A1
:10C74000017002A90A7A4270CA7982704A78C2706E
:10C750008A780271CA7842710A7982714A79C27103
:10C76000897901720AE002A800EB480081784078DC
:10C7700010EB012024F8180008F10108B8F1030FAC
:10C78000F1DBA948D0F80C8008F10C0999F81520C4
:10C790002146D9F80C00D8F80C30C018F8F784F806
:10C7A000404603F081F899F81520D9F80C00D8F824
:10C7B0000C1041182046F8F777F8DFF8788205AAC0
:10C7C0002146404609F040FD98F9F4023860B8F877
:10C7D000EE00288008F2EE00418869808188A980F7
:10C7E00081892180C1896180008AA0802088298870
:10C7F000401A308060886988401A7080A088A988B3
:10C80000401AB08031208DF8040001208DF8050019
:10C81000022301AA18211846F5F73AFE401E80416E
:10C82000C043C00F07B0BDE8F08330B585B0044603
:10C830000020ADF8040002A800210A460B460EC0F5
:10C8400005250120009002AB102218210220F5F7E7
:10C8500079FE9DF80810C9070ED501280CD10820D3
:10C8600000900DF10903112218210220F5F76AFE4C
:10C87000002806D1002028E02846451E80B2002866
:10C88000DFD16D489DF80810017002A90A7A427044
:10C890004878207088786070C878A0700879E07057
:10C8A000487920719DF80E00607131208DF80400E8
:10C8B00001208DF80500022301AA18211846F5F77A
:10C8C000E7FD401E8041C043C00F05B030BD2DE9DB
:10C8D000F04104460025FDF731FD0746FFF7E2FD74
:10C8E00006465148D0F81080F86E40070BD406F188
:10C8F000140306F10C02B11D3046FFF7E9FE0028D3
:10C9000001D1284651E098F80A00012848D14A4848
:10C910000178217041786170C178A1700179E1706E
:10C920004179217181796171C179A171007AE071D8
:10C930004048818D2172B0F92C100912617200F10A
:10C940002C014A88A272B1F902201212E2728A887E
:10C950002273B1F9041009126173B0F8F410A173D5
:10C96000B0F9F4100912E173F43041882174B0F980
:10C970000210091261748188A174B0F904000012D8
:10C98000E074284620750FE006EB4500C18804F8E6
:10C99000151004EB4501B0F90600001248706D1C3B
:10C9A000032DF1DB7069A0710120BDE8F081F8B5BD
:10C9B00004460025FDF7C2FC0746FFF773FD064657
:10C9C000F86E000705D52046FFF72FFF002826D177
:10C9D00009E006F1140306F10C02B11D3046FFF721
:10C9E00077FE002814D12846F2BD36F8150004F869
:10C9F000150004EB450036F915100912417006EBDD
:10CA000045018A898271B1F90C100912C1716D1C3E
:10CA1000032DEADB182231460248F7F745FF0120D3
:10CA2000F2BD00000027012000400020F427012073
:10CA3000AC26012018D30020302901207CB5044603
:10CA40000020ADF806008DF80400F5F72AFC054635
:10CA50000120009001AB002218210220F5F772FDA1
:10CA60009DF80410482932D131208DF806000DF1CF
:10CA700006061F20707002230DF1060218211846C9
:10CA8000F5F706FD00281BD031208DF806000020A8
:10CA9000707002230DF1060218211846F5F7F8FC14
:10CAA00000280DD001212846F5F7E7FD0120009070
:10CAB00001AB312218210220F5F744FD002801D1F5
:10CAC000002076BD9DF804002070012076BDFF2176
:10CAD000217076BD2DE9F0478AB0044604A80021F4
:10CAE0000A460B460EC00846ADF80C0007A806C063
:10CAF0004FF00509F5F7D5FB05460220009004AB81
:10CB000000221821F5F71EFD06469DF81000482862
:10CB100040F01D819DF81000207004AF787860709F
:10CB200031208DF80C000DF10C081F2088F8010051
:10CB3000022303AA18211846F5F7AAFC002800F0E2
:10CB400007810320009004AB602218210220F5F732
:10CB5000F9FC002800F0FC809DF81000A0707878A7
:10CB6000E070B878207131208DF80C00002088F832
:10CB70000100022303AA18211846F5F789FC0028B2
:10CB800000F0E6800120009004AB31221821022041
:10CB9000F5F7D8FC002800F0DB809DF810006075E8
:10CBA00031208DF80C00012088F80100022303AA2F
:10CBB00018211846F5F76CFC002800F0C9801E21EA
:10CBC0002846F5F75AFD0120009004AB10221821E9
:10CBD0000220F5F7B7FC06469DF81000C0070DD5FA
:10CBE000012E0BD1082000900DF111031122182104
:10CBF0000220F5F7A7FC002806D16AE04846A0F11C
:10CC0000010980B20028DED1B879029078790190CC
:10CC100038790090FB78BA7879780FF29010F5F7B0
:10CC2000C1FBB878797811EB0020ADF81C000DF14C
:10CC30001C0A3879F97811EB0020AAF80200B879BB
:10CC4000797911EB0020AAF80400BDF91C0000124C
:10CC50006071BDF81C00A071BAF902000112E17107
:10CC60002072BAF9040001126172A0729DF81000DE
:10CC7000E072387A207331208DF80C00102088F88B
:10CC80000100022303AA18211846F5F701FC002829
:10CC90005ED01E212846F5F7F0FC4FF00509012073
:10CCA000009004AB102218210220F5F74BFC064639
:10CCB0009DF81000C0070ED5012E0CD10820009061
:10CCC0000DF11103112218210220F5F73BFC002879
:10CCD00007D100203DE04846A0F1010980B20028BC
:10CCE000DDD1B87902907879019038790090FB789D
:10CCF000BA7879780FF2D000F5F754FBB8787978E4
:10CD000011EB0020ADF81C003879F97811EB002008
:10CD1000AAF80200B879797911EB0020AAF804008A
:10CD2000BDF91C0000126073BDF81C00A073BAF9B5
:10CD300002000112E1732074BAF904000112617457
:10CD4000A0749DF81000E074387A207500E0002689
:10CD500030460AB0BDE8F08718B404460B461146C9
:10CD60000020032C04D0042C05D0072C06D008E0AA
:10CD7000184614BC5EE4184612BC5FE6184612BCA6
:10CD800099E412BC704710B50FF2580421460220F6
:10CD9000F8F794FF0FF270010420F8F78FFF214697
:10CDA0000320BDE81040F8F789BF0000474D53311C
:10CDB0002D25642C2025642C2025642C2025642C12
:10CDC0002025642C20256400474D53322D25642CEA
:10CDD0002025642C2025642C2025642C2025642CFF
:10CDE00020256400ABC4000825C50008A3C50008C1
:10CDF0000BC6000800000000AFC9000800000000DA
:10CE0000D5CA000859CD0008ABC4000825C50008E4
:10CE1000A3C500080BC6000800000000CFC800082A
:10CE200000000000D5CA000859CD000838B5002020
:10CE3000ADF800000446F5F734FA05464FF480518A
:10CE40002046F5F791FC0A212846F5F716FC00E08C
:10CE5000641C062C12D2DFF8FC0C215C8DF800104B
:10CE60002018007A8DF80100022300AA7221072001
:10CE7000F5F70EFB0028EBD1002032BD012032BDBA
:10CE80002DE9FC4107468846FDF758FA0446002084
:10CE9000ADF80400DFF8C05C288C0646B8F1000F3E
:10CEA00002D03843288401E0B84328840120009050
:10CEB0000DF10603AB2272210620F5F743FB002893
:10CEC00001D10020C4E1288C0E2800F2A681DFE801
:10CED00010F00F00A4011C00A4013F00A4013F00BA
:10CEE000A401B700A401B700A401B700A401B700D2
:10CEF00080208DF8040000208DF805009DF80600C4
:10CF000000F0FD008DF8060087E116F00C0F01D04F
:10CF10000120687581208DF8040001AEEE2070704C
:10CF2000022301AA72210920F5F7B2FA002801D1E3
:10CF300000208DE17078E87080208DF804000320D7
:10CF400070709DF8060000F0FD008DF8060064E1A9
:10CF50003046000701D4022E01D1012068759D20C2
:10CF60008DF8040001AE0C207070022301AA72211A
:10CF70000920F5F78DFA002801D1002068E19E20F4
:10CF80008DF804000C207070022301AA7221092080
:10CF9000F5F77EFA002801D1002059E181208DF8B3
:10CFA0000400FD207070022301AA72210920F5F708
:10CFB0006FFA002801D100204AE17078E8708E20D5
:10CFC0008DF80400287A002812D00C218F2009F057
:10CFD000A2FC04218F2009F075FC3021902009F07B
:10CFE0009AFC3021902009F06DFC4520707011E012
:10CFF0000C218F2009F08FFC08218F2009F062FCA2
:10D000003021902009F087FC1021902009F05AFC73
:10D0100082207070022301AA72210920F5F738FAE4
:10D02000002801D1002013E180208DF80400272082
:10D0300070709DF8060000F0FD008DF80600ECE031
:10D0400016F0080701AE4FD109F06EFD012068759A
:10D05000A4208DF8040000207070DFF8780D002106
:10D060000170022301AA72210920F5F711FA0028A4
:10D0700001D10020ECE0A5208DF8040000207070A4
:10D08000DFF8540D00210170022301AA722109204A
:10D09000F5F7FEF9002801D10020D9E0A7208DF88E
:10D0A000040000207070DFF8A40D0021017002233D
:10D0B00001AA72210920F5F7EBF9002801D100201F
:10D0C000C6E0A9208DF8040000207070DFF8800D04
:10D0D00000210170022301AA72210920F5F7D8F975
:10D0E000002801D10020B3E081208DF80400FE204B
:10D0F0007070022301AA72210920F5F7C9F90028EE
:10D1000001D10020A4E07078E8708E208DF8040032
:10D11000287A002812D00C218F2009F0FCFB042172
:10D120008F2009F0CFFB3021902009F0F4FB302153
:10D13000902009F0C7FB4F20707011E00C218F2068
:10D1400009F0E9FB08218F2009F0BCFB3021902079
:10D1500009F0E1FB2121902009F0B4FB84207070DC
:10D16000022301AA72210920F5F792F9002801D1C2
:10D1700000206DE0002F20D1B4F88A00B4F88C10A4
:10D18000401AE883B4F88A108900A98389B2FF297C
:10D1900001D3FE21A98380B28100652902DB6420CE
:10D1A000E88301E08000E883A98BE88B0A1AEA8310
:10D1B00092B20FF2A000F5F7F5F8A6208DF8040062
:10D1C000287A00280AD06021A32009F0A4FB41217D
:10D1D000A32009F077FB5720707009E06021A3209D
:10D1E00009F099FB4121A32009F06CFB8B207070A2
:10D1F000022301AA72210920F5F74AF9002801D17A
:10D20000002025E080208DF80400672070709DF8D4
:10D21000060040F002008DF80600022301AA7221E8
:10D220000920F5F735F9002801D1002010E0AB20E6
:10D230008DF804009DF806008DF80500022301AA70
:10D2400072210920F5F724F9401E8041C043C00F28
:10D25000BDE8F681233E6755703D25642C674C6F11
:10D260003D25640010B534220021DFF88C0CF4F762
:10D27000F5FFDFF8E4480120A07109F0DFFF09F0B5
:10D2800073FB01202073DFF8E80D0021017010BD51
:10D2900010B582B00FF25C00F5F784F80020ADF80D
:10D2A000000080208DF8000000AC03206070022395
:10D2B00000AA72210620F5F7EBF8002818D0DFF855
:10D2C0009808817A00290DD08C218DF8001000215A
:10D2D00061708170022300AA72210620F5F7D8F848
:10D2E000002805D0FFF7BEFF01210020FFF7C8FD91
:10D2F00013BD0000233E484C5300000010B582B01F
:10D300000FF24000F5F74EF80020ADF8000004469B
:10D3100000E0641C052C12D2DFF8580D215C8DF85A
:10D3200000102018007A8DF80100022300AA722153
:10D330000720F5F7ADF80028EBD1002016BD01203D
:10D3400016BD0000233E50525000000030B583B09F
:10D350000FF28400F5F726F80020ADF804008DF8F0
:10D360000600DFF8F447607180208DF8040001ADFD
:10D3700003206870022301AA72210720F5F788F8BC
:10D38000002801D100203EBD8C208DF80400002033
:10D390006870A070022301AA72210720F5F778F8BF
:10D3A000002801D100203EBD01206072014604200A
:10D3B000FFF766FD002801D100203EBD012000904E
:10D3C0000DF10603E52272210720F5F7BBF8401E98
:10D3D0008041C043C00F3EBD233E50524F0000006D
:10D3E00000B583B00FF26000F4F7DCFF0020ADF869
:10D3F00006008DF8040080208DF8060003208DF8CB
:10D40000070002230DF1060272210720F5F740F80C
:10D41000002801D100200EBDDFF83C070021417239
:10D420000420FFF72DFD002801D100200EBD0120B2
:10D43000009001ABE52272210720F5F783F8401E2A
:10D440008041C043C00F0EBD233E50524300000038
:10D450000120704730B583B004460020ADF80400C9
:10D46000DFF8F456A87B00282CD1A87A002802D037
:10D47000287C207031E0012000900DF105039322FB
:10D4800072210720F5F75EF800280DD09DF8050001
:10D49000800722D50120009001AB9C227221072039
:10D4A000F5F750F8002801D100203EBD9DF804009A
:10D4B000697951FA80F080B2400820709DF804002C
:10D4C00068710AE0012808D1DFF82C0A41696A79FD
:10D4D0008918491021704069687101203EBD2DE90D
:10D4E000F04391B00446FCF729FF0546F4F7D9FE56
:10D4F00006460020ADF80800ADF80C008DF80A00D3
:10D50000012000900DF10A03932272210720F5F704
:10D5100019F8002801D1002024E20220009003AB7A
:10D52000942272210720F5F70DF8002801D1002080
:10D5300018E2DFF824769DF80D009DF80C1041EA02
:10D540000020DFF8081D4843F978C1F580713A7969
:10D55000DFF8FC3CD25C12FB01F140F24232514355
:10D5600090FBF1F0797B002902D0B97A002901D132
:10D57000B86208E0B86AF97D4A1CFA75062902D338
:10D5800000217973F975397A00290CD141F65931A6
:10D5900088422DDB01213972F86200203876FFF7CE
:10D5A00077FE0120DEE1F96A411A44F621629142D8
:10D5B00015DA40F6B831884218DA9DF80A2092064A
:10D5C00014D53A7E531C3B76C92A04D2BA7A002A73
:10D5D0000ED188420CDA884201DA00213972F862F1
:10D5E00000203876FFF754FE0120BBE1002038769A
:10D5F0009DF80A00800640F1B4810020B873012034
:10D6000000900DF10A03932272210720F4F79AFF8C
:10D61000002801D10020A5E19DF80A0080071BD554
:10D620000120009003AB9C2272210720F4F78AFFAF
:10D63000002801D1002095E19DF80C00797951FA7C
:10D6400080F080B2400860709DF80C00F8739DF87F
:10D650000C00787160783874387B002802D0002084
:10D66000387371E1DFF80C8D607888F80000B879C4
:10D6700000280AD009F082F9002806D1B87A0028DB
:10D6800003D0607809F08CF97AE0787A002839D0F4
:10D69000B87AB978084335D1002030758C208DF8E0
:10D6A00008000DF10809202089F80100B870022354
:10D6B00002AA72210720F4F7EBFE002801D1002016
:10D6C00050E189208DF80800002089F8010002232C
:10D6D00002AA72210720F4F7DBFE002801D1002006
:10D6E00040E18B208DF80800B5F88A0089F8010028
:10D6F000022302AA72210720F4F7CAFE002801D1F2
:10D7000000202FE1B87A00280ED105F18A00428866
:10D71000B5F88A100FF25420F4F744FE61780FF246
:10D720005C20F4F73FFE2BE0414684B068461822A7
:10D73000F5F78CF90FBC09F092FD04A809F0F5FD8E
:10D74000DFF8B09C484604A93422F5F77FF999F830
:10D750001C00002807D034224946DFF89C07F7F761
:10D76000A3F80120787009F11C00417D88F814109D
:10D77000817D88F81510007D002801D0FFF772FD2B
:10D78000787A002800F0E080B87A002840F0DC8049
:10D790006078B5F88A10884231D3307D00282ED1C8
:10D7A0000120F87120702078307589208DF80800EC
:10D7B0000DF1080905F18A00408889F8010002236B
:10D7C00002AA72210720F4F763FE002801D100208D
:10D7D000C8E08B208DF80800FF2089F801000223A3
:10D7E00002AA72210720F4F753FE002801D100207D
:10D7F000B8E061780FF29010F4F7D4FDA4E005F2E0
:10D800008A0041886278914231D3317D01292ED13D
:10D810000120F871002020702078307589208DF863
:10D8200008000DF10809002089F80100022302AA6E
:10D8300072210720F4F72CFE002801D1002091E08E
:10D840008B208DF80800B5F88A0089F801000223C2
:10D8500002AA72210720F4F71BFE002801D1002044
:10D8600080E061780FF22810F4F79CFD6CE0B5F8C9
:10D870008A106278914235D3317D002932D1797C8A
:10D8800001292FD10120F8710020207020783075F7
:10D890000020787489208DF808000DF10809002017
:10D8A00089F80100022302AA72210720F4F7F0FD93
:10D8B000002801D1002055E08B208DF80800B5F834
:10D8C0008A0089F80100022302AA72210720F4F7D6
:10D8D000DFFD002801D1002044E00FF2BC00F4F786
:10D8E00061FD31E06178428891422DD3317D01297B
:10D8F0002AD1797C012927D10021797489218DF8D9
:10D9000008100DF10809408889F80100022302AAD5
:10D9100072210720F4F7BCFD002801D1002021E08E
:10D920008B208DF80800FF2089F80100022302AA4D
:10D9300072210720F4F7ACFD002801D1002011E08E
:10D940000FF25C00F4F72EFD0120009003ABE522FE
:10D9500072210720F4F7F6FD401E8041C043C00F3E
:10D9600000E0002011B0BDE8F0830000233E5570B8
:10D970003D25642C4C6F3D2564000000233E505231
:10D980004157202564000000233E503120256400CB
:10D99000233E503220256400233E52655448310016
:10D9A000233E5265544832002DE9F84304460D46A3
:10D9B000694EB07C002805D000F0F8FE0020F0741D
:10D9C0003075C5E0FCF7BAFC804600273846ADF854
:10D9D00000002078072823D16078FF2820D129462D
:10D9E000601CFFF737FD6078B8F88A10884208D3CA
:10D9F00001202070627821780FF26010F4F7D2FCD9
:10DA00000CE0B8F88C006178884207D33846207063
:10DA1000627821780FF24410F4F7C4FC012097E0FB
:10DA20000020F074307529462046FFF758FD002885
:10DA30000DD0707A00280AD0F079002807D00FF2B4
:10DA40003010F4F7AFFC0020F07101203075B07A8F
:10DA5000002877D0DFF8508DD8F8189009F10C0025
:10DA6000417DC068D9F80C20801800F047FA0028E2
:10DA700068D0DFF8FC050078411E8941C90FF174B8
:10DA80007078002801D000207070707A002857D07C
:10DA9000D9F80C0040780DF1000989F80100B18B2C
:10DAA000814218D2F4F7FDFB007D002813D1707E6F
:10DAB000401C7076C0B202282DD10020707601275C
:10DAC000F4F7EFFB3946017599F801100FF2A80041
:10DAD000F4F768FC1FE099F80100F18B884218D236
:10DAE000F4F7DFFB007D012813D1707E401C7076B7
:10DAF000C0B202280FD1002070760127F4F7D1FBC5
:10DB00000021017599F801100FF27800F4F74AFC32
:10DB100001E000207076002F12D0D8F81C80F4F7B6
:10DB2000C0FB007D8DF8000008F10C00427D00A9CB
:10DB3000C068D8F80C30C018F6F7B6FE0120307572
:10DB400000203070F6F74EFC00283FF469AF307DBE
:10DB5000BDE8F283DC790020F4780020233E536C8A
:10DB60006565702041444320256420256400000041
:10DB7000233E505550000000233E6775703120252C
:10DB800064000000233E67757032202564000000A9
:10DB9000F8B507460020ADF80000FCF7CFFB0546BE
:10DBA000DFF8E04C012060743878A5F88A0005F2AF
:10DBB0008A0678787080B5F88A00002802D07088CC
:10DBC000002808D10FF29400F4F7ECFB7820A5F8B8
:10DBD0008A000020708089208DF8000000AF7088D6
:10DBE0007870022300AA72210720F4F751FC002864
:10DBF0000DD08B208DF80000B5F88A0078700223D4
:10DC000000AA72210720F4F743FC002801D100206C
:10DC1000F2BD7288B5F88A100FF24800F4F7C2FB23
:10DC2000B5F88A007188401AE083B5F88A10890037
:10DC3000A18389B2FF2901D3FE21A18380B2810093
:10DC4000652902DB6420E08301E08000E083A08B93
:10DC5000E18B401AE0830120F2BD0000233E5054C6
:10DC6000483D3000233E5448534554202564202528
:10DC70006400000080B50FF218010720F8F71EF8C5
:10DC80000FF230010A20BDE80440F8F717B8000091
:10DC9000FDD200084DD30008E1D3000851D400089C
:10DCA00000000000A9D9000891DB00080000000076
:10DCB00000000000FDD200084DD30008E1D30008A9
:10DCC00051D400080000000055D4000891DB000882
:10DCD000000000000000000010B582B00FF25000FC
:10DCE000F4F760FB0020ADF80000FFF79FF8002874
:10DCF00003D10FF24400F4F755FB002400E0641C4C
:10DD00000B2C12D2DFF84C0D2118097B8DF8001076
:10DD1000205C8DF80100022300AA72210620F4F78E
:10DD2000B7FB0028EBD1002016BD012016BD000076
:10DD3000233E474550000000233E47504641494C92
:10DD40000000000038B50FF29400F4F72BFB002020
:10DD5000ADF8000080208DF8000000AC032060705A
:10DD6000022300AA72210620F4F792FB002801D1B9
:10DD7000002032BD8C208DF8000000206070DFF89C
:10DD8000045BA870022300AA72210620F4F780FB2E
:10DD9000002801D1002032BDA3208DF80000DFF85B
:10DDA000B40CC0786070022300AA72210620F4F738
:10DDB0006FFB002801D1002032BD0120A872FFF7BF
:10DDC00051FA01210820FFF75BF8401E8041C04353
:10DDD000C00F32BDDB270120DC270120233E474551
:10DDE0004F00000010B582B00FF26800F4F7DAFAC5
:10DDF0000020ADF8000080208DF8000000AC03206A
:10DE00006070022300AA72210620F4F741FB00286B
:10DE100001D1002016BDDFF8400C002181720820DE
:10DE2000FFF72EF8002801D1002016BD9F208DF8A5
:10DE3000000000206070022300AA72210620F4F77F
:10DE400027FB401E8041C043C00F16BDDD270120C7
:10DE5000DE270120233E4745430000000120704794
:10DE600030B58DB0DFF81C5AA879002814D008F01E
:10DE700085FD002810D0DFF8FC44201D0FC808F0F5
:10DE80007BFE08F084FD002832D00020A87101201C
:10DE900060752075A0752BE0A879002828D1DFF8DF
:10DEA000D444214684B068461822F4F7CFFD0FBC55
:10DEB00009F008FA00A809F038FADFF838552846C2
:10DEC00000A93422F4F7C2FD05F11C00417D217543
:10DED000817D6175007D002801D0FFF7C3F9287F9F
:10DEE000002805D034222946DFF8D00CF6F7DCFCF8
:10DEF00001200DB030BD0000FC23012010B584B01E
:10DF0000044602A8002101600846ADF80400012083
:10DF1000009001AB932272210620F4F713FB002836
:10DF200000F088809DF8040010F0040004D1DFF8B0
:10DF30005419497800297DD0002806D0DFF844091B
:10DF40004178002901D101218173012000900DF158
:10DF50000503AE2272210620F4F7F4FA002869D0F6
:10DF60009DF80500002817D00420009002ABFC2289
:10DF700072210620F4F7E6FA00285BD0DFF8F403FC
:10DF80009DF80810416002A94A7882608A78C260D0
:10DF9000C9780161FFF764FFDFF8201C0A78DFF819
:10DFA000E4084378002B227007D000226270A27030
:10DFB000E27022716271A2710BE04A6962708A6933
:10DFC000A2704A68E2708A682271CA6862710A693E
:10DFD000A2710A6AE2714A6A22728A6A6272CA6A23
:10DFE000A2724A7FE272DFF8D82B12782273DFF830
:10DFF000D42B12786273DFF8D02B1278A273DFF87B
:10E00000CC2B1278E273DFF8C82B12782274DFF879
:10E01000C42B12786274DFF8C02B1278A274C27B12
:10E02000E274002202700878042801D110460870BA
:10E03000012000E0002004B010BDDFF81C0AC07C05
:10E04000704780B5052802D1084600F002F801208B
:10E0500002BD80B5017841F04103DFF8801BCB7031
:10E06000027801780FF69430F4F79CF9012002BD94
:10E07000462B0120EC79002070B584B004460020C6
:10E08000019002A8002101600E460FF68430F4F7DB
:10E0900089F901210820FEF7F3FEA0208DF8040085
:10E0A00001AD30466870022301AA72210620F4F700
:10E0B000EFF9002801D13046C5E0A1208DF8040019
:10E0C000FF206870022301AA72210620F4F7E0F90C
:10E0D000002801D13046B6E0AB208DF804000120C5
:10E0E0006870022301AA72210620F4F7D1F90028F2
:10E0F00001D13046A7E0012000900DF106038022F7
:10E1000072210620F4F71EFA002801D130469AE069
:10E1100080208DF804009DF8060040F045006870EE
:10E12000022301AA72210620F4F7B2F9002801D1D6
:10E13000304688E0A3208DF80400DFF81809C07885
:10E140006870022301AA72210620F4F7A1F90028C1
:10E1500001D1304677E0012000900DF10703AF2296
:10E1600072210620F4F7EEF9002801D100206AE0C0
:10E170009DF80700C0070BD50420009002ABFC22DD
:10E1800072210620F4F7DEF900280CD100205AE0B5
:10E190003046461CB0F57A7FDDDB0FF67C20F4F7C5
:10E1A00001F900204FE09DF80800207002A8417896
:10E1B00061708178A170C078E070012000900DF14D
:10E1C0000603802272210620F4F7BCF9002801D151
:10E1D000002038E080208DF80400DFF87C08417AC8
:10E1E000002905D09DF8060000F0BF0068700CE023
:10E1F0009DF8061001F0BB016970C07A002804D1B7
:10E200009DF8060000F0BA006870022301AA72218E
:10E210000620F4F73DF9002801D1002013E0AB20DF
:10E220008DF8040000206870022301AA72210620E4
:10E23000F4F72EF9002801D1002004E00021082085
:10E24000FEF71EFE012004B070BD0000D8D0010012
:10E25000B4EC00080FF660210620F7F72FBD1CB5BF
:10E260000FF6C010F4F79EF800208DF80400ADF80A
:10E270000600044600E0641C052C13DADFF8600990
:10E28000215C8DF806102018007A8DF80700022313
:10E290000DF1060272210920F4F7FAF80028EAD1FC
:10E2A000002016BD0120009001ABD622722106206D
:10E2B000F4F748F9002801D1002016BD9DF804109C
:10E2C0000FF66810F4F76EF8DFF88C079DF804106D
:10E2D000C9098176012016BD30B583B0DFF87847D3
:10E2E000A07E002804D00FF65410F4F75BF803E08A
:10E2F0000FF65010F4F756F80020ADF80400802017
:10E300008DF8040001AD03206870022301AA722178
:10E310000920F4F7BDF8002801D100203EBD8F2070
:10E320008DF804000B206870022301AA72210920D5
:10E33000F4F7AEF8002801D100203EBD0320207183
:10E340000120A075E07201460220FEF799FD002829
:10E3500001D100203EBD012000900DF10603E62210
:10E3600072210920F4F7EEF8401E8041C043C00F2F
:10E370003EBD00003027012000B583B00FF6CC0071
:10E38000F4F710F80020ADF8060080208DF80600A4
:10E3900003208DF8070002230DF1060272210920E7
:10E3A000F4F776F8002801D100200EBD012000907E
:10E3B00001AB8F2272210920F4F7C4F8002801D1A3
:10E3C00000200EBDDFF890060021C1720220FEF78A
:10E3D00057FD002801D100200EBD0120009001ABA7
:10E3E000E62272210920F4F7ADF8401E8041C043B7
:10E3F000C00F0EBD3024012001207047FEB5044639
:10E400000020ADF804000290DFF84C56A87D0128EA
:10E4100003D0687D002840F090800220009001AB7E
:10E42000942272210920F4F78DF800282DD09DF850
:10E430000400A07101AE7078E0710220009001AB81
:10E44000962272210920F4F77DF800281DD09DF84E
:10E4500004002070707860700220009001AB982258
:10E4600072210920F4F76EF800280ED09DF8040000
:10E47000A0707078E0700220009001AB9A227221A7
:10E480000920F4F75FF8002801D10020FEBD9DF8B7
:10E490000400207170786071E878207228796072C9
:10E4A0006078217841EA0020E178A27842EA0121EF
:10E4B0006279237943EA0222E379A67946EA0323C3
:10E4C00002AE009600F0BEF800281BD1A87D0128FE
:10E4D00034D10020A875DFF80C075B210170002102
:10E4E0004170852181700021C170AE210171002130
:10E4F0004171702181710121C171EE2101720021F0
:10E5000041721BE00020A875DFF8D8062178017061
:10E5100061784170A1788170E178C17021790171D1
:10E5200061794171A1798171E179C171217A0172B9
:10E53000617A41720298686234E033D0DFF8A40651
:10E5400001782170417861708178A170C178E170A3
:10E5500001792171417961718179A171C179E1718B
:10E56000017A2172407A60720020687560782178A3
:10E5700041EA0020E178A27842EA01216279237918
:10E5800043EA0222E379A67946EA0323EE78277A62
:10E59000EF702F79647A2C7102AC009400F052F87D
:10E5A000EE702F710120FEBD1CB504460020ADF8B1
:10E5B00006008DF804000120009001AB8F2272212B
:10E5C0000920F3F7BFFF002801D1002016BD9DF8F8
:10E5D000040000F0FC008DF80400012C0AD0042C8B
:10E5E00004D0102C1FD0402C22D026E040F0010097
:10E5F0008DF804008F208DF806009DF804008DF83A
:10E600000700DFF854449DF8040000F00300207177
:10E6100002230DF1060272210920F3F739FF0028C9
:10E620000DD1002016BD40F002008DF80400E1E796
:10E6300040F003008DF80400DCE7002016BD012047
:10E64000607316BD2DE9F04105460E461746701958
:10E650003818C01A401C441024B2002C00D50024E5
:10E66000DFF8F41308790FF24C62805CC978C1F5C9
:10E67000807110FB01F240F6DC2C0CFB02F88902E1
:10E68000B1F5803F01D34FF6FF71C9000A22B1FBFB
:10E69000F2F110282DD18B422BD30120FFF784FFFC
:10E6A00000283ED1311B0698AC4206DA02682B1BCB
:10E6B0004FF4B47505FB03220260B44205DA026828
:10E6C0004FF47A7303FB01210160BC4201DA016857
:10E6D00001600168002901D50021016040F2A641D6
:10E6E000B8FBF1F10268B2FBF1F101600120BDE875
:10E6F000F081102807D1642B05D24020FFF754FF8A
:10E7000000280ED1CEE7402802D164398B4203D2D3
:10E710000128C7D1642BC5D21020FFF745FF002880
:10E72000C0D00020E3E70FF2B4510920F7F7C6BAD2
:10E73000C94988740120704710B5DFF8AC44202027
:10E740002070002060700A20A0700020E0700A2075
:10E750002071002060713220A0710020E072072239
:10E760002146DFF88804F6F79FF800206072012048
:10E7700010BD00B583B000A800210A4606C00722DC
:10E78000DFF864140DF10100F6F78EF8A0208DF883
:10E790000000082300AA72210720F3F779FE401E2B
:10E7A0008041C043C00F0EBD0040002000B583B0C3
:10E7B00000208DF80400DFF83004417B012903D1EB
:10E7C00000F0ABF901200EBD418AFF290CD00029D1
:10E7D0000DD0C27A521CC272491E4182417AD2B215
:10E7E000914201D20021C17200F014F805E0818A43
:10E7F00041820021C17200F00DF80120009001ABB0
:10E80000E32272210720F3F79DFE401E8041C043A2
:10E81000C00F0EBD38B50020ADF80000DFF8C843CA
:10E82000608A002801D1A07A60720722E07AC0EBEA
:10E83000C000DFF8B81341182046F6F735F8FFF7A7
:10E8400098FF80208DF8000000AD812068700223C1
:10E8500000AA72210720F3F71BFE002801D1002037
:10E8600032BDA7208DF80000208A6870022300AA1C
:10E8700072210720F3F70CFE401E8041C043C00FF9
:10E8800032BD0000F478002030B585B00446002089
:10E890008DF80C00ADF80E0060790290207901909F
:10E8A000E0780090A378627821780FF2A830F3F72F
:10E8B00079FD0120009003AB802272210720F3F73D
:10E8C00041FE002801D1002061E0C74D9DF80C00F9
:10E8D00028720120009003AB8F2272210720F3F7EA
:10E8E00031FE002801D1002051E09DF80C00A873F2
:10E8F0000120009003AB902272210720F3F722FE43
:10E90000002801D1002042E09DF80C00E87300F0DF
:10E91000A5F88F208DF80E000DF10E050B20687004
:10E9200002230DF10E0272210720F3F7B1FD00283A
:10E9300001D100202BE090208DF80E00012068709E
:10E9400002230DF10E0272210720F3F7A1FD00282A
:10E9500001D100201BE0A64D8122FF212846F3F7BC
:10E960007DFC80222146681CF5F79EFF0020287060
:10E9700081232A4672210720F3F78AFD002805D15A
:10E980000FF2E820F3F70EFD002000E0012005B0B3
:10E9900030BD80B501780F2904DA934A527A521CAF
:10E9A0008A4205DA0FF2D020F3F7FCFC002002BD0A
:10E9B0004278202A01D3202242700022C270427184
:10E9C000C1EBC101894A20238B54891800224A7067
:10E9D0004278002A01D1002201E05200521E8A71C1
:10E9E00082788A70C278CA7002790A714079487157
:10E9F000012002BD7C48417A491C4172817201208C
:10EA0000704738B50446784D6C82FFF795FE002CB0
:10EA100000D0AC8221460FF27020F3F7C3FC012036
:10EA200032BD714948730120704772490870012056
:10EA3000704770480078704780B56B4908730A7B4F
:10EA400052000A8201460FF25020F3F7ABFC01207E
:10EA500002BD000074790020F478002000B583B076
:10EA60000020ADF806008DF8040080208DF8060027
:10EA700001208DF8070002230DF106027221072004
:10EA8000F3F706FD002801D100200EBD10200090F4
:10EA9000594BA02272210720F3F754FD002801D121
:10EAA00000200EBD0120009001AB802272210720C2
:10EAB000F3F748FD401E8041C043C00F0EBD00B5B6
:10EAC00087B00020ADF8000001A81421F5F72AFE58
:10EAD00080208DF8000001208DF80100022300AA9B
:10EAE00072210720F3F7D4FC002801D1002012E0A6
:10EAF000102241490DF10500F5F7D6FEA0208DF852
:10EB00000400112301AA72210720F3F7C1FC401E63
:10EB10008041C043C00F07B000BD30B583B00020B6
:10EB2000ADF804008DF806002F4C217A0FF2781012
:10EB3000F3F738FC0020FFF7FBFD002060736072E4
:10EB4000FFF7BDFF8F208DF8040001ADA07B68703A
:10EB5000022301AA72210720F3F79AFC002801D1B1
:10EB600000203EBD90208DF80400E07B68700223F9
:10EB700001AA72210720F3F78BFC002801D10020A5
:10EB80003EBD80208DF80400207A6870022301AA1F
:10EB900072210720F3F77CFC002801D100203EBD44
:10EBA000012000900DF10603E32272210720F3F704
:10EBB000C9FC401E8041C043C00F3EBDFC23012064
:10EBC00068280120DB270120DC270120DD27012028
:10EBD000DE270120692801206A280120747900209D
:10EBE000FC7900203C290120C027012010180120B9
:10EBF000C4120120452B01207C280120233E4745DB
:10EC00002043552025782025782025780000000015
:10EC1000233E4753454C4600233E475354455252EA
:10EC200000000000233E4C4947500000233E4C4367
:10EC3000484950203078257800000000233E3E4CA3
:10EC400049474F00233E4C49474F0000233E4C4963
:10EC5000474300004D42442025642025642025645C
:10EC60002025642025642025640000004D6F626526
:10EC7000616D2057460000004D6F6265616D204850
:10EC80006F70204661696C004D4220486F70436F81
:10EC9000756E7420256400004D6F6265616D204CB7
:10ECA000656E3D25640000004D4220436C6F736526
:10ECB0002025640001041040D9DC000845DD00086F
:10ECC000E5DD00085DDE0008000000003BE0000814
:10ECD0000000000079E0000843E000085FE200085F
:10ECE000D9E2000879E30008F9E300080000000019
:10ECF000FDE300080000000000000000000000002C
:10ED00007CB500242046ADF80400F3F7CAFA0546A6
:10ED100020208DF8040001AE20467070022301AA65
:10ED2000BA210520F3F7B4FB002801D1204676BDB7
:10ED300001212846F3F7A1FC641C0120009001ABDF
:10ED40002122BA210520F3F7FDFB002801D1002084
:10ED500076BD40F2F510A4B2844205D30FF2102024
:10ED6000F3F720FB002076BD9DF804000006DFD4F9
:10ED700020208DF8040002207070034601AABA21F9
:10ED80000520F3F785FB401E8041C043C00F76BDD0
:10ED90001CB504460020ADF804000120009001AB32
:10EDA0000F22BA210520F3F7CDFB002801D1002066
:10EDB00016BD9DF80400BD2833D100F034F80028BA
:10EDC00001D1002016BD032001E0401E40B2002802
:10EDD00007D40FF2B41151F830108C4201D2002840
:10EDE000F3D120208DF8040001ACA4206070022330
:10EDF00001AABA210520F3F74BFB002801D100201E
:10EE000016BD10208DF804007F206070022301AA37
:10EE1000BA210520F3F73CFB401E8041C043C00FE0
:10EE200016BD002016BD80B50020ADF800002020E2
:10EE30008DF8000000208DF80100022300AABA21FD
:10EE40000520F3F725FB002805D10FF22C10F3F76E
:10EE5000A9FA002002BD012002BD80B58F20FFF776
:10EE600097FF401E8041C043C00F02BD80B5FFF731
:10EE700047FF002805D10FF20810F3F793FA00209E
:10EE800002BD012002BD80B5FFF7E7FF401E8041B3
:10EE9000C043C00F02BD80B5FFF7C5FF401E8041D3
:10EEA000C043C00F02BD01207047012070471FB54D
:10EEB000044601A800210A460B460EC0012000901E
:10EEC00001AB0F22BA210520F3F73CFB002821D02B
:10EED0009DF80400BD281DD10520009001ABA8229B
:10EEE000BA21F3F72FFB002801D1002013E09DF891
:10EEF0000400207001A8417861708178A170002120
:10EF0000E170C178217100796071E01C00F006F8B1
:10EF1000012000E0002004B010BD0000417800781E
:10EF200040EA01204FF4F07190FBF1F000EE100A7E
:10EF3000B8EEC00ADFED070A30EE200ABDEEC00AC7
:10EF400010EE100A80B204490870000A48700120CF
:10EF50007047000000002A42402B0120012070472A
:10EF6000012070470FF240010520F6F7A7BE000010
:10EF700042522D524600000042522D4346000000EE
:10EF800042522D5046000000280000007000000092
:10EF900050000000600000008F00000050000000E2
:10EFA000E8030000100000006DEE000887EE000886
:10EFB00097EE0008A7EE0008ABEE0008AFEE0008E1
:10EFC000000000005DEF000861EF000800207047BE
:10EFD000012070470120704738B504460D46F3F70D
:10EFE00060F90521F3F749FB0020104904E00A68A5
:10EFF0000255521C0A60401CA842F8DB012032BDB9
:10F000000120704701207047094802680A704A7061
:10F01000511C01600120704706490A680270427065
:10F02000501C086001207047000000003C7A00205E
:10F03000D02A0120D42A01200FF22C010820F6F753
:10F040003DBE10B50FF2200421461220F6F736FE21
:10F0500021461320F6F732FE21461420BDE8104069
:10F06000F6F72CBE00000000CDEF0008D1EF00083D
:10F07000D5EF0008D5EF000805F00008D9EF00082B
:10F0800001F0000819F0000809F0000810B500248C
:10F09000F3F707F9007CC00700D50124204610BD16
:10F0A00000B589B000A82421F5F73CFB0020ADF89D
:10F0B00022000A208DF8080000208DF809008DF844
:10F0C0000A008DF800001F20019000A8F8F770FEDC
:10F0D000012009B000BD00B589B000A82421F5F7D2
:10F0E00021FB0020ADF822000A208DF80800002046
:10F0F0008DF809008DF80A0001208DF800001F200E
:10F10000019000A8F8F754FE012009B000BD00B539
:10F1100089B000A82421F5F705FB0020ADF82200F6
:10F120000A208DF8080000208DF809008DF80A00EB
:10F1300001208DF800001F20019000A8F8F738FE8C
:10F14000012009B000BD0120704710B50024F3F77D
:10F15000A8F8007CC00700D50124204610BD00B5EA
:10F1600089B000A82421F5F7DDFA0020ADF82200CF
:10F170000A208DF8080000208DF809008DF80A009B
:10F180008DF800002020019000A8F8F711FE012062
:10F1900009B000BD00B589B000A82421F5F7C2FA76
:10F1A0000020ADF822000A208DF8080000208DF81C
:10F1B00009008DF80A0001208DF800002020019040
:10F1C00000A8F8F7F5FD012009B000BD00B589B031
:10F1D00000A82421F5F7A6FA0020ADF822000A20A5
:10F1E0008DF8080000208DF809008DF80A00012034
:10F1F0008DF800002020019000A8F8F7D9FD01202B
:10F2000009B000BD0120704710B50024F3F749F89C
:10F21000007C800700D50124204610BD00B589B0D0
:10F2200000A82421F5F77EFA0020ADF822000A207C
:10F230008DF8080000208DF809008DF80A008DF87F
:10F2400000002120019000A8F8F7B2FD012009B0CC
:10F2500000BD00B589B000A82421F5F763FA0020AD
:10F26000ADF822000A208DF8080000208DF8090072
:10F270008DF80A0001208DF800002120019000A8DF
:10F28000F8F796FD012009B000BD00B589B000A8CF
:10F290002421F5F747FA0020ADF822000A208DF866
:10F2A000080000208DF809008DF80A0001208DF873
:10F2B00000002120019000A8F8F77AFD012009B094
:10F2C00000BD0120704710B50024F2F7EAFF007C72
:10F2D00000F00300032800D10124204610BD00B532
:10F2E00089B000A82421F5F71DFAB748017841F04C
:10F2F00002010170032903D1032008F0B7FD12E0D9
:10F300000020ADF822000A208DF8080001208DF8B9
:10F3100009008DF80A1000208DF8000022200190CD
:10F3200000A8F8F745FD012009B000BD00B589B07F
:10F3300000A82421F5F7F6F9A349087810F0FD009C
:10F34000087014D10020ADF822000A208DF80800C2
:10F3500001208DF8090000208DF80A0001208DF8A9
:10F3600000002220019000A8F8F722FD02E040B240
:10F3700008F07CFD012009B000BD0120704701208C
:10F38000704710B50024F2F78CFF007C00F00700F6
:10F39000072800D10124204610BD00B589B000A87F
:10F3A0002421F5F7BFF98848017841F00101017087
:10F3B000032903D1032008F059FD11E00020ADF826
:10F3C00022000A208DF8080000208DF809008DF831
:10F3D0000A108DF800002220019000A8F8F7E8FC40
:10F3E000012009B000BD00B589B000A82421F5F7BF
:10F3F00099F97549087810F0FE00087013D10020C3
:10F40000ADF822000A208DF8080000208DF80900D0
:10F410008DF80A0001208DF800002220019000A83C
:10F42000F8F7C6FC02E040B208F020FD012009B068
:10F4300000BD012070470120704710B50024F2F78D
:10F4400030FF007CC00700D50124204610BD00B568
:10F4500089B000A82421F5F765F90020ADF8220055
:10F460000A208DF8080000208DF809008DF80A00A8
:10F470008DF800002320019000A8F8F799FC0120E6
:10F4800009B000BD00B589B000A82421F5F74AF9FC
:10F490000020ADF822000A208DF8080000208DF829
:10F4A00009008DF80A0001208DF80000232001904A
:10F4B00000A8F8F77DFC012009B000BD00B589B0B7
:10F4C00000A82421F5F72EF90020ADF822000A202B
:10F4D0008DF8080000208DF809008DF80A00012041
:10F4E0008DF800002320019000A8F8F761FC0120AE
:10F4F00009B000BD0120704770B582B005460E46C8
:10F50000F8F776FB0446002000900422294600A864
:10F51000F5F7CAF9009A31460FF26010F2F742FF90
:10F5200030460C38052822D8DFE800F0030C11160D
:10F5300016080098C4F8DC04012076BD0098C4F8D1
:10F540007C05F9E704F2DC4042218162F4E704F231
:10F55000DC4000990165EFE70099304640B200F0C9
:10F560000CF8009004F2DC4000998167E4E70FF2A8
:10F570001C10F2F717FF002076BD10B4134AD36BAE
:10F58000126C114C2478002C1AD00F2802D01028AD
:10F590000BD015E0507A002812D0906B80680028BC
:10F5A0000ED488420DDD08460BE0587A002807D0BB
:10F5B000986B8068002803D4884202DD084600E08A
:10F5C000084610BC70470000472B01200040002077
:10F5D00012B589B001460C39052928D8DFE801F0B9
:10F5E000031D1F21211B1F240020ADF822000190C4
:10F5F0000A208DF8080005208DF8000001940422EF
:10F6000009A90DF10900F5F74FF900A8F8F7D0FBAB
:10F6100001200AB010BD2324E6E72024E4E72124DA
:10F62000E2E722240999FFF7A8FF0990DCE70FF22F
:10F630006400F2F7B7FE0020EBE780B50FF25C0143
:10F640000C20F6F73BFB0FF278011120F6F736FBA2
:10F650000FF290010D20F6F731FB0FF2AC010E20F6
:10F66000F6F72CFB0FF2C4010F20F6F727FB0FF281
:10F67000E0011020BDE80440F6F720BB4D523220D7
:10F6800044523D25642C2564000000004D52322078
:10F69000534446004D523220524346008DF000083C
:10F6A000A1F00008D7F000080FF1000800000000EA
:10F6B00047F10008F9F40008000000000000000015
:10F6C0003BF400084FF4000885F40008BDF400087E
:10F6D00000000000F5F40008F9F400080000000044
:10F6E000000000004BF100085FF1000895F10008F0
:10F6F000CDF100080000000005F20008F9F4000850
:10F70000000000000000000009F200081DF20008DF
:10F7100053F200088BF2000800000000C3F200085A
:10F72000F9F400080000000000000000C7F2000823
:10F73000DFF200082DF300087BF300080000000052
:10F740007FF30008F9F4000800000000000000004A
:10F7500083F300089BF30008E7F3000833F4000884
:10F760000000000037F40008F9F400080000000071
:10F770000000000080B5FAF7E1FDDFF8A41708608B
:10F78000012002BD10B5F4F759FF0246C317DFF898
:10F790009447D4E90001101A0021012905DB01DC9E
:10F7A000002802D3C4E90023084610BDF0B583B099
:10F7B000044600A800210A4606C0A069E168451871
:10F7C0002888ADF80000B5F9027000A84780B5F9A7
:10F7D00004608680BDF80000B4F85810401A2880F4
:10F7E000B4F85A00381A6880B4F85C00301AA8805F
:10F7F000BDF90000B5F90010C913B1EBE03F13D01B
:10F80000B4F95810C913B1EBE03F0DD00FF23070CE
:10F81000F2F7C8FDB5F90000012802DBDFF80807A0
:10F8200001E047F6FF702880B5F90210C913B1EB6B
:10F83000E73F13D0B4F95A10C913B1EBE73F0DD02D
:10F840000FF20870F2F7AEFDB5F90200012802DBF5
:10F85000DFF8D40601E047F6FF706880B5F90410C0
:10F86000C913B1EBE63F13D0B4F95C10C913B1EB87
:10F87000E63F0DD00FF2E060F2F794FDB5F9040019
:10F88000012802DBDFF8A00601E047F6FF70A88040
:10F8900094F90800002804D1002000E0401C03284F
:10F8A000FCDBF7BD00000000FEB5044600A8002107
:10F8B0000A460B460EC0A069E1684518174694F940
:10F8C0000860052E80F09A80012E02D12046FFF7B5
:10F8D0006DFF3046012802D9C01E40F08A80002EFC
:10F8E00001D14FF6FF77DFF838060068301890F83E
:10F8F0008400401E06285ED8DFE800F004101D29B1
:10F9000036424F00B5F90200009000A8B5F900108A
:10F91000791A4160B5F90410816056E0B5F900002C
:10F92000381A009000A8B5F90210791A4160B5F9AB
:10F930000410816049E0B5F90200381A009000A86F
:10F94000B5F900104160B5F9041081603DE0B5F9EA
:10F950000000381A009000A8B5F902104160B5F90E
:10F960000410791A816030E0B5F90200009000A817
:10F97000B5F900104160B5F90410791A816024E0EE
:10F98000B5F90000009000A8B5F90210791A41609D
:10F99000B5F90410791A816017E0B5F90200381A38
:10F9A000009000A8B5F90010791A4160B5F904106B
:10F9B000791A816009E0B5F90000009000A8B5F956
:10F9C00002104160B5F904108160012E0AD10021B6
:10F9D00006E050F8212002F30F0240F82120491CD4
:10F9E0000329F6DB0098288000A8416869808068B8
:10F9F000A880002E02D12046FFF7D8FE0120FEBDD0
:10FA000070B52DED028B84B000A9002213460CC105
:10FA10008169C2688A1890F9081008460A2800F21D
:10FA2000A480DFE800F006317FA2A271A2A2A28C1E
:10FA30009A001088ADF80000B2F9024000A8448096
:10FA4000B2F904508580DFF8D80400689FEDC60A3B
:10FA5000BDF9001000EE901AF8EEE00A60EE800AA0
:10FA6000C0ED000A00EE904AF8EEE00A60EE800A6F
:10FA7000C0ED010A00EE905AF8EEE00A20EE800A8E
:10FA8000001D80ED010A74E01088ADF80000B2F9A5
:10FA9000024000A84480B2F904508580DFF8800459
:10FAA0000068061D9FEDB18BBDF9000000EE100A45
:10FAB000B8EEC00A10EE100AF8F7A2FA53EC182BB1
:10FAC000F3F7D0F8F8F7C4FAB06000EE104AB8EED9
:10FAD000C00A10EE100AF8F793FA53EC182BF3F75C
:10FAE000C1F8F8F7B5FAF06000EE105AB8EEC00AA7
:10FAF00010EE100AF8F784FA53EC182BF3F7B2F86B
:10FB0000F8F7A6FA306134E01846029010680290C7
:10FB10009DED020ABAEECA0ADFF80404006880ED1F
:10FB20000C0A26E0DFF8F80300681188A0F85A10E4
:10FB300000F25A00518841809188818019E0DFF8F5
:10FB4000E003006800F25A001188C18051880181E9
:10FB500091884181D18881810BE0DFF8C40300687E
:10FB600092F9001080F8681003E00FF2F830F2F715
:10FB700019FC012004B0BDEC028B70BD70B50D46C0
:10FB8000DFF8A81351F820400026207F002801D17B
:10FB9000304670BD607A002803D0206E80688047B0
:10FBA00006462846216EC96988470546002E02D0C0
:10FBB000206E40688047284670BD9B0701D542F201
:10FBC000107292FBF1F190F82220514300698142BA
:10FBD00001DA0120704700207047002901D48164B8
:10FBE000C164002A03D4910701D580F82020704712
:10FBF000002903D400218164416181617047C0B252
:10FC0000042815D101F10C008A7A012A08D00722B4
:10FC100042750B228275C64ACA600B21416070474B
:10FC20001522427519228275C24ACA6019214160A3
:10FC30007047F2B5054614461946EDB2152D3DD272
:10FC40006DB2BA4850F825600227307F002835D0C1
:10FC50009DF91820002A08D4D00706D513460A4675
:10FC600000993046FFF7A9FFF2BD3046FFF7B5FF18
:10FC7000A5F10C00C0B2062805D22946C9B200A8D9
:10FC8000326E9269904731462846FFF7B8FF707A86
:10FC900000281BD1214649B23046726E1268904747
:10FCA00000280DD0306E40688047002804D13946C6
:10FCB0004F1EC9B20029F5D1002801D10020F2BDA4
:10FCC000214649B23046726E52689047707A401CA5
:10FCD0007072224652B200993046736E1B69984783
:10FCE00000F093F80120F2BDF8B50C461546194610
:10FCF000C0B2152807D240B28C4A52F820600227C1
:10FD0000307F002801D10020F2BD3046FFF770FFA0
:10FD1000707A012817D1294649B23046726E92682E
:10FD20009047002809D0306E80688047002804D1B1
:10FD30003846471EC0B20028F5D1294649B23046A0
:10FD4000726ED2689047707A002801D0401E70729F
:10FD50002A4652B221463046736E5B69984700F0DE
:10FD600054F80120F2BD000060F61C3A89AD84FA17
:10FD70000A74313F2DE9F04104460D4616461946F6
:10FD8000E4B2152C1CD264B2684850F82470387F55
:10FD9000002815D09DF91820002A08D4D00706D5D0
:10FDA00013460A4629463846BDE8F04105E706EB0A
:10FDB000460007EB8008D8F838008068002801D595
:10FDC000002020E03846FFF708FF324652B2D8F84C
:10FDD0003800816838467B6E5B699847324652B27C
:10FDE000294638467B6E1B699847A4F10C00C0B2C7
:10FDF000062805D229462046FFF7EAFB012002E04B
:10FE000000F003F80120BDE8F08170B56FF0004507
:10FE10002C464948016804E08A68A24200DA144688
:10FE200009688142F8D1454E3078401C30707078B6
:10FE3000F021084202D09920F4F7B2FCF4F71DFD3E
:10FE40007078401C7070AC4200D1002434480168C6
:10FE5000CC67D1F88020204682420BD0002801D008
:10FE6000002A04D1C1F88000F2F778FA02E00120FC
:10FE700008F056F87078F021084202D09920F4F783
:10FE80008FFC7078401E7070C0B2002801D1F4F76A
:10FE9000EEFCF5F74EFB012070BD38B50546274C4A
:10FEA0002078401C20706078F021084202D0992010
:10FEB000F4F776FCF4F7E1FC6078401C60701848B9
:10FEC0000068C0F880501C48016805E08A68B2FBF1
:10FED000F5F26A43CA6009688142F7D16078F0217F
:10FEE000084202D09920F4F75BFC6078401E6070F5
:10FEF000C0B2002801D1F4F7BAFCBDE83140F5F7F3
:10FF000018BB0D490A6808E01369012B01DAD368B0
:10FF1000136113691B1A136112688A42F4D1704786
:10FF2000E42A0120582A01200080FFFF0040002021
:10FF3000504F0020E42601206C400020247900204E
:10FF400058206973206F766572000000592069732C
:10FF5000206F7665720000005A206973206F766505
:10FF60007200000055435354282564294E53000065
:10FF700038B504000D0014480078401C1249087080
:10FF800012480078002802D0A120F4F709FCF5F708
:10FF90008FFA607E662802D08220F4F701FCF4F725
:10FFA0006CFC05E03821200007F0C0FFF4F765FC89
:10FFB000E06821698842F5D02900200007F0D8FFC9
:10FFC000F5F7B7FA31BD00BF247900206D2B012071
:10FFD0004FF0FF31801E012812D9C01E04280FD90E
:10FFE000801F05280CD908380AD0801E042807D99C
:10FFF000401F03D0401E0F2802D902E0072100E075
:020000021000EC
:1000000001210846704780B501460020C91E18D05E
:10001000C91E16D0C91E14D0C91E012911D90D3907
:1000200003290ED9091F05D0491E0AD0C91F03296B
:1000300007D902BD1D210FF21000F2F7B3F901201C
:1000400002BD012002BD000050443A204C4C532018
:100050002564000038B504464FF0FF35F7F7C8FDBA
:100060002A2C35D8DFE804F02F34332F2F332F2FED
:100070003333342F183316162F343433342F2F2FB5
:10008000182F332F332F2F1B1E22262A2D333333C5
:1000900033333100C8251BE04FF47A7518E0D0F8EF
:1000A000DC5415E000F2DC40856A11E000F2DC402F
:1000B000056D0DE000F2DC40856F09E0D0F87C555D
:1000C00006E00A2504E0422502E0052500E01425AB
:1000D000284632BD38B5DFF8D049FAF72FF9E0628B
:1000E00007F0AEFFF7F784FD2063002512E0DFF88C
:1000F000BC190161DFF8B8194161DFF8B8298261E4
:10010000DFF8B429C261DFF8B42902624162406AB3
:1001100080476D1C2B2D80F20E81216B05EB850035
:10012000C00000224254401842704FF0FF3242603B
:1001300000220272C2604272032D04D17431DFF8D2
:1001400080298A62E3E7022D03D1DFF878294A6724
:10015000DDE7002DCBD0042D04D17431DFF8682900
:100160000A65D4E7052D04D17431DFF860298A6768
:10017000CDE7062D04D1DFF85829C1F81421C6E7D0
:10018000072D05D101F58A71DFF848298A62BEE79B
:10019000082D05D101F58A71DFF83C290A65B6E71B
:1001A000092D05D101F58A71DFF830298A67AEE79C
:1001B0000A2D9CD00B2D9AD0012D98D00C2D04D156
:1001C000DFF81C29C1F80422A1E70D2D05D101F5A6
:1001D0000171DFF810298A6299E70E2D05D101F52A
:1001E0000171DFF804290A6591E70F2D05D101F5AA
:1001F0000171DFF8002A8A6789E7102D04D1DFF842
:10020000002AC1F8A42282E7122D3FF470AF142D0A
:100210003FF46DAF132D3FF46AAF162D3FF467AF77
:10022000152D04D1DFF8DC29C1F86C236FE7172DF9
:1002300005D101F55B71DFF8D0290A6567E7182D54
:1002400005D101F55B71DFF8C4298A675FE71A2DD4
:1002500005D101F20C41DFF8B8298A6257E71E2D5B
:1002600005D101F2AC41DFF8AC298A624FE7192DC4
:1002700004D1DFF8A429C1F80C2448E71F2D05D1CB
:1002800001F2AC41DFF894290A6540E7202D05D141
:1002900001F2AC41DFF888298A6738E7212D04D1C3
:1002A000DFF88029C1F84C2531E7222D05D101F274
:1002B0004C51DFF874298A6229E7232D05D101F218
:1002C0004C51DFF868290A6521E71B2D05D101F2A1
:1002D0000C41DFF85C290A6519E71C2D05D101F2F4
:1002E0000C41DFF850298A6711E71D2D04D1DFF892
:1002F0004829C1F8AC240AE7262D04D1DFF83C29AF
:10030000C1F8142603E7272D05D101F21461DFF8A7
:1003100030298A62FBE6292D05D101F21461DFF84C
:1003200024298A67F3E62A2D7FF4E1AEDFF8182945
:10033000C1F8B426EBE6012032BD0CB42DE9F04340
:1003400085B005460E4601241A2D44D005EB8500E4
:10035000C700DFF854870B2E20D1D8F8300007EB08
:10036000000999F80100002818D02846FFF730FE50
:10037000012813DB2846FFF72BFE99F80110814274
:100380000CDB284600F074F90446D8F83000381821
:10039000002141700FF6BC00F2F704F8D8F83000E5
:1003A000395C002943D139184A78002A3FD100220C
:1003B0003A54104648700CA983B068461822F2F7E8
:1003C00045FB0EBC284600F073F802282AD003280B
:1003D0002DD103242BE00B2E14D11A20FFF7F8FDAA
:1003E00001280FDB1A20FFF7F3FDDFF8BC16096BBD
:1003F00091F81114814205DB0FF66000F1F7D2FF8E
:10040000022050E03046C0B202F04AF80CA983B096
:1004100068461822F2F71AFB0EBC1A2000F048F8C2
:10042000022801D102203EE0032800D103240A2E35
:100430000AD1DFF87486D8F8300005EB8501CF00CB
:10044000395C491C395416E00B2E14D1DFF858865C
:10045000032D07D1D8F8300090F87900002801D199
:1004600001F082FA05EB8500C700D8F83000381893
:100470004178491C4170DFF83086D8F83000D8F850
:100480002C1005EB8502D700D1E91C23CDE902230E
:10049000C96E009139184B783A5C29460FF2C87042
:1004A000F1F780FF204605B0BDE8F0035DF80CFBD6
:1004B0000EB42DE9F04183B005460124C0B2FFF728
:1004C000C9FDDFF8E46505EB8501326B02EBC1077E
:1004D000786000203872F86009A984B06846182254
:1004E000F2F7B4FA0FBC3F69B847022801D10220E5
:1004F00011E0032801D103240CE0D6F82C80D8E9C0
:100500001C67204600212A4600F0FCFB304339439B
:10051000C8E91C012046BDE8FE015DF810FB2DE98D
:10052000F04385B004460D460126DFF87C75386B34
:100530001A2C58D004EB84014FEAC10808EB0009DB
:1005400099F80100022814D32046FFF741FD012845
:100550000FDB2046FFF73CFD99F80110814208DBD4
:100560002046FFF735FD89F801000FF21070F1F712
:1005700019FF386B18F80010002904D108EB0002AD
:100580005278002A5AD00A2D09D1002903D0491ED9
:1005900008F8001017E0002108F8001013E00B2DF8
:1005A00011D108EB00014A78002A02D0521E4A708D
:1005B00001E000224A70032C05D190F87900002850
:1005C00001D101F0E0F9386B18F80010002935D19D
:1005D00040444078002831D1204600F049F80328F3
:1005E0002CD103262AE090F81014002904D100F53C
:1005F00082625278002A21D00A2D09D1002903D025
:10060000491E80F810140FE0002180F810140BE050
:100610000B2D09D100F210404178002902D0491E6B
:10062000417001E0002141702846C0B201F038FF5E
:100630001A2000F01DF8032800D10326386BF96A50
:1006400004EB84024FEAC208D1E91C23CDE902235E
:10065000C96E009108EB00014B7818F80020214684
:100660000FF22060F1F79EFE304605B0BDE8F08342
:100670002DE9F0410746012607EB8700C500DFF8AA
:100680002844206B281840698047032800D103269E
:10069000384640B200F080F9032800D10326206BD1
:1006A000295C002917D128184178002913D14FF06F
:1006B000FF31416000210172C160D4F82C80D8E97B
:1006C0001C4501203A4600F01DFB24EA000025EA03
:1006D0000101C8E91C013046BDE8F08138B5044687
:1006E00004EB8400C000DFF8C053296B00224254A1
:1006F0004018114641702046FFF7BAFFE86AD0E97A
:100700001C2321460FF29050F1F74CFE012032BD20
:100710002DE9F041B6B004460E46B6B201208DF880
:100720006400DFF884531AA8E96A6C22F2F78EF9A4
:1007300017951AA984B068466C22F2F787F90FBCA6
:1007400000F0D4F900270BE0032803D11897032009
:100750008DF86400286B4044002101727F1C7FB239
:100760002B2F2BDA012000213A4600F0CBFAD5F8E6
:100770002CC0DCE91C231040194001D10028EDD029
:1007800007EB87004FEAC008286B40444168002906
:10079000E4D4027A521C0272D2B2724389B28A4203
:1007A000DCDB806980470228CED1189702208DF8C3
:1007B0006400DDE91801C4E9000103E0DDE9180186
:1007C000C4E9000136B0BDE8F08100210A3842F2E8
:1007D0000772904200D20121084670472DE9F0438C
:1007E00083B0044600200190042204F1090101A80D
:1007F000F4F75AF86168DFF8B062376B282505FB1B
:1008000001704068019A904204D10FF29C40F1F7C8
:10081000C9FD6AE01046FFF7D8FF002809D16168DA
:10082000019B05FB017042680FF28840F1F7BAFDA9
:100830005BE0DFF818743868D0F8008026E090F9A3
:1008400008906068316B05FB0010C068012101FA57
:1008500009F1084217D04FF0FF3000900346012203
:1008600001994846FFF7E5F940B200280BD16168CD
:1008700001980090306B05FB010043684A460FF277
:100880004840F1F78FFD4046D0F80080B842D6D1FD
:100890003868D0F8008020E090F90890C8680122FC
:1008A00002FA09F2104215D04FF0FF3301224968D5
:1008B0004846FFF719FA40B200280BD16168019849
:1008C0000090306B05FB010043684A460FF2104070
:1008D000F1F768FD4046D0F800806168326B05FB97
:1008E0000121B842D8D101984860BDE8F7832DE9CD
:1008F000F84381464FF0000844466B4E1FE004EB7E
:100900008400C500306B2F18002078720120002170
:10091000224600F0F7F9D6F82CC0DCE91C23104081
:10092000194001D1002809D04846F96988470028B4
:1009300004D0306B2818012141728846641C2B2C8E
:10094000DDDB4046BDE8F2835748C16AD1E91C238C
:10095000002B01D1002A0BD0002107E001EB81021E
:10096000036B03EBC20200235372491C2B29F5DBF6
:10097000704730B502460120002100F0C3F94A4A11
:10098000D26AD2E91C452040294001D1002801D07B
:10099000012030BD002030BD2DE9F0478146012403
:1009A00009EB8900C500404E306B2818C06800284C
:1009B00029D0DFF898723868D0F8008003E003246B
:1009C0004046D0F80080B8421DD090F908A0306BA6
:1009D0002818C168012202FA0AF2114021FA0AF12C
:1009E00049B20129ECD14FF0FF3301224168504652
:1009F000FFF77AF90028E2D0524649460FF2F82074
:100A0000F1F7D0FCDCE72046BDE8F08710B58AB0EE
:100A100004460020ADF8220001900A208DF808005D
:100A200000208DF809008DF80A00ADF8220060075B
:100A300019D50520FFF79DFF002807D004208DF869
:100A400000000520019000A8F7F7B2F90220FFF797
:100A500090FF002807D004208DF8000002200190AC
:100A600000A8F7F7A5F9E0060CD50820FFF781FFED
:100A7000002807D003208DF800000820019000A86E
:100A8000F7F796F90AB010BD02460020092A00D0F7
:100A9000704780B5012902D107F018FC012002BD82
:100AA00001492C22F1F7D2BFCC2401201B7F000882
:100AB000177F0008237F0008277F00082B7F00088E
:100AC0006D130108A7430108290D01089141010890
:100AD000B30403084D150308C93F01081B82010830
:100AE0003F1001086103030815F702080FB41B98B3
:100AF0000099016001994160029981600399C16088
:100B00000499016105994161BDF85A100183BDF84E
:100B10005C104183BDF85E1081830C9901621399CA
:100B200041621499816204B0704700004168122943
:100B300003D1C17A002000F0D4BF132903D1017B77
:100B4000012000F0CEBF142903D1417B022000F028
:100B5000C8BF152902D1C07A00F0D4BF172945D1EA
:100B6000817A1B2906D01C2930D01D290FD02629B7
:100B700026D07047C17B012903D1B0F80B0003F0E8
:100B800041B9022932D1B0F80D0003F039B9017D25
:100B9000012903D1B0F80B0007F07ABE022903D176
:100BA000B0F80D0007F068BE042903D1B0F81700B3
:100BB00007F07ABE032919D1B0F8150007F080BEFE
:100BC000C17B012912D1807B07F0B3BF817B012952
:100BD00002D1C07A08F0B5B9022902D1007B08F031
:100BE000BAB9052902D1407B08F095B97047184978
:100BF00008607047AD0D0308154800687047000095
:100C0000331403086516030895180308890C0308B4
:100C100023300108BD00030885100308D9A301088B
:100C2000FF2E0208230B03080F7E010835A50108DB
:100C3000A53D0108918D010817880108778A0108F0
:100C40007BE402088917030815E602080049002022
:100C5000E82A0120414C204558000000414C204525
:100C6000582D415400000000414C2564202564208B
:100C7000256420256420256C6C750000524C2045AD
:100C800058000000524C256420256420256420254E
:100C90006420256C6C7500005445524D202564205D
:100CA000256C6C75000000004558204C4D435231B6
:100CB000202564004558204C4D43523220256420A5
:100CC00025642025640000004558204C4D435233D4
:100CD0002025642025642025642025640000000070
:100CE0004558204C4D43523420256420256420254E
:100CF0006420256400000000534D524120256420EB
:100D000025640000D2B2203A22BF00FA02F100208E
:100D100070475242D041D2F1200291404140D04030
:100D2000904041407047000038B5F6F761FF044637
:100D3000104DF9F703FB286005F02EF805F031F8A7
:100D4000686005F069F90C48C4F8B00004F1B0001F
:100D50000A4941600A4981600A49C1600A49016142
:100D6000012032BD03494968896808470148406845
:100D700000680047802A01201B7F0008177F0008B9
:100D8000237F0008277F00082B7F00082DE9F0470C
:100D900086B0044601A81421F3F7C4FCF1F781FAE8
:100DA00005464FF00208002601E0761C76B20A2EB6
:100DB00080F29E80022EF8D0032EF6D0062EF4D0BC
:100DC000524850F82670787A002806D107F10C00B6
:100DD000406D406880470028E7D008F8046008F1BB
:100DE00001084FFA88F8304609284FD8DFE800F0AC
:100DF000050A4E4E10204E154E49C8212846F1F7DF
:100E00003CFC43E04FF448712846F1F736FC3DE0E6
:100E100032212846F1F731FC38E007208DF8040034
:100E2000FF208DF8050032212846F1F726FC2DE041
:100E30003C212846F1F721FC4FF0000A07F10C098C
:100E4000BAF1030F22DA0020D9F854100969884753
:100E500014212846F1F711FC0120D9F85410096932
:100E6000884714212846F1F708FCBAF1020F05DA89
:100E7000062101A8D9F85420526990470AF1010AC5
:100E8000DEE74FF416712846F1F7F7FB07F10C097E
:100E900099F8151001A8D9F85420526990470028F4
:100EA00019D0D9F80C00F96800EB010A99F815205F
:100EB00001A95046F3F7F8FC3846FEF7F5FC99F81F
:100EC0001520514608EB0400F3F7EEFC99F91500E4
:100ED00080444FFA88F8787A00287FF466AFD9F812
:100EE00054008068804700287FF45FAF002009E04D
:100EF000A8F10200ADF80000022200A92046F3F795
:100F0000D3FC002006B0BDE8F087000000400020C0
:100F100038B505000C0094F84C00642802D08020FD
:100F2000F3F73EFCF4F79CFAF3F7A7FC606928435B
:100F30006061207C10F0F800082806D1A069616982
:100F4000084202D02000F4F730FB07484078F02137
:100F5000084202D09920F3F723FC03484078002888
:100F600001D1F3F784FC31BD247900200FB480B5A2
:100F7000BDF80B0065494880022802D3801E088016
:100F800001E0002008800C229DF90A100020F6F7ED
:100F900031FE032801D1022000E0012002BC5DF8EF
:100FA00014FB5A4801214180002101800120704733
:100FB000574908707047000030B58DB002A8F6F7A9
:100FC0007FFE524C2088401C2080618880B288427D
:100FD00032D300202080054628E06068D0F8EC017C
:100FE0000121A940084220D0284607F07AF80028BD
:100FF0001BD400EB80009FED440ADDED0B0A60EE90
:10100000800AFDEEE00A10EE901A00AA8152DDED92
:101010000C0A20EE800ABDEEC00A10EE101A8218EB
:10102000518000A94018012101716D1C162DD4DBDF
:10103000DDE9000107F05EF801200DB030BD80B59C
:10104000F6F7D6FD314948603249C0F8F01100F595
:10105000F87031494160314981600FF21101C1607E
:101060000FF225010161012002BD000010B500242E
:10107000274890F90000002804D107F05AF800280A
:1010800000D00124204610BDF8B504460D4640F2BC
:101090002116287816FB004001210170287816FBE4
:1010A00000404170287816FB00400C2181702878A0
:1010B00016FB0040164991F90010002902D00221C8
:1010C000C17001E00121C170287816FB00400121A8
:1010D0000171287816FB0040C180287816FB004774
:1010E000002006F0C8FF3881287816FB0044002055
:1010F00006F0C6FF60812878401C28700C20BDE8EF
:10110000F24006F0D6BF00000000C842347A00204A
:10111000502B01206D0F0108A30F0108B90F010822
:101120000FB410B5032200210846F6F763FD02282C
:1011300001D102201BE00FF23C00F1F733F9DFF898
:10114000784C00206073608220629DF80C209DF82E
:101150000B109DF80A0008F08BFC58220021DFF8E4
:101160005C0CF1F77BF800202074A073012010BC08
:101170005DF814FB50443A205374617274506564F6
:101180006F2D3032323500000120704730B58BB002
:1011900000A8F6F795FD05210320F6F7F4FD0028D9
:1011A00002D1DFF81C0C0890DFF80C4CA069C56F69
:1011B00008F0F4FB207294F90800022806D1422DB1
:1011C00004D114210320F6F77DFD07E0012805D1A5
:1011D000142D03D142210320F6F774FD284680B276
:1011E000DDED081A00A991EC030A08F0A7FAE069FE
:1011F0002818E06101200BB030BD10B5DFF8B84B06
:1012000094F9000000283BD494F90A0094F90110E5
:10121000814229D1217B0818A07240B23D2801DB10
:101220003C38A07294F90A100FF27000F1F7BAF886
:101230000020E061DFF8900B90F901004FF0FF31E2
:10124000884201D1012010BD94F90110081AF1F76C
:1012500003FE21F00041F2F72FF840B2012801DB34
:10126000012010BD002010BDDFF8600B90F90120B7
:10127000914203D0D4E90023C0E90023002010BD2F
:10128000E069DFF84C1B884205DB0FF21C00F1F728
:1012900089F8012010BD002010BD000050443A2004
:1012A0004E5420256400000050443A204E6F54698B
:1012B0006D6500002DE9F8430026DFF8FC4A07E0E1
:1012C0007A19A27252B231460FF26C00F1F76AF845
:1012D00094F90A50002E21D46078461B76B294F916
:1012E0000C70002EECD53046F1F7B6FD21F0004130
:1012F00002460B46904699463846F1F7ADFD424608
:101300004B46F1F78DFDE3D2EA1BA272002652B2E2
:1013100031460FF23800F1F745F8D9E73C2D02DBF2
:10132000A5F13C00A07294F90A100FF23400BDE858
:10133000F443F1F737B8000050443A20636F6D7002
:10134000312025642C2025640000000050443A2000
:10135000636F6D70322025642C202564000000002E
:1013600050443A20435554202564000010B5DFF85E
:10137000484A0020A07301202072002060724FF0C4
:10138000FF3020700F20E072142020730020607363
:10139000608220626074A062E06228220146DFF869
:1013A000340AF0F75BFFF6F723FCA061DFF8281A98
:1013B000C0F888108830DFF8241A4160DFF8201A5E
:1013C00081600FF28D21C1600FF6192101610120AA
:1013D00010BD10B582B04FF46163C1EB0114A400DD
:1013E00013FB0043D3184FF47A746343DFF8E449E6
:1013F0002360DFF8C4391B7C009313460A4601467C
:101400000FF20800F0F7CEFF13BD00005044204259
:1014100054202564202564202564202564000000D4
:101420002DE9F0412DED028BAAB0DFF8906931462D
:1014300084B068465822F1F709FB0FBC00F074FC39
:1014400010EE100AF6F7DCFD41EC100B9FED7E8BE1
:10145000DFF88049656853EC102B51EC180BF1F75D
:1014600001FCF1F729FF15FA80F060604FF6FF7577
:10147000A84200D36560314684B068465822F1F72F
:10148000E5FA0FBC00F008FC10EE100AF6F7B8FD04
:1014900041EC100BA76853EC102B51EC180BF1F733
:1014A000E1FBF1F709FF17FA80F0A060A84200D332
:1014B000A5600020139002201290314684B0684647
:1014C0005822F1F7C3FA0FBC00F07AFAA18940184C
:1014D000A08180B2FF2801D3FF20A08100201390BB
:1014E00003201290314684B068465822F1F7AEFAD4
:1014F0000FBC00F065FA216940182061A84200D3B2
:1015000025610020139006201290314684B0684671
:101510005822F1F79BFA0FBC00F052FAA18A40184A
:10152000A08280B2FF2801D3FF20A0820020139068
:1015300007201290314684B068465822F1F786FAA7
:101540000FBC00F03DFAE18A4018E08280B2FF282B
:1015500001D3FF20E0820020139008201290314632
:1015600084B068465822F1F771FA0FBC00F028FAEF
:10157000A1694018A061A84200D3A5610020139082
:1015800009201290314684B068465822F1F75EFA7D
:101590000FBC00F015FAE1694018E061A84200D3E1
:1015A000E56114A808F0FEF9DFF82C7DD7F8288053
:1015B0002398F6F725FD0022DFF8003DF1F752FBF6
:1015C000F1F77AFE58FA80F0B862F96A491CF962BC
:1015D000B0FBF1F084F8200000201390012012905D
:1015E000314684B068465822F1F730FA0FBC00F05B
:1015F000E7F9616A40186062A84200D36562F87B2F
:1016000000F0C9FA2AB0BDEC028BBDE8F081DFF82A
:10161000C4078189002914D10169002911D1818A67
:1016200000290ED1C18A00290BD18169002908D176
:10163000C169002905D1406A401E8041C043C00FE6
:101640007047012070470000000000000000594072
:101650002DE9F04FABB00546002414A808F0A2F91C
:10166000DFF858B72046139001201290594684B0F5
:1016700068465822F1F7EAF90FBC00F0A1F90646D6
:101680009DED230ADBED0F0A30EE600A10EE100A22
:10169000F6F7B6FC2246DFF8243CF1F7E3FAF1F75F
:1016A0000BFE0746BFB2BDF89A00BBF84A10A0EB8C
:1016B000010A5FFA8AFADFF8208C002D4BD1002E48
:1016C00002D15AEA07001BD00124002E18D0DFF8FF
:1016D000209CD9F81000B04212D0204608F09BFEA2
:1016E000204608F046FFD9F81000301AC8F8240048
:1016F000C9F81060524631460FF60840F0F752FE26
:10170000DFF8EC9BC9F810600020C8F81C004FF00F
:10171000FF3088F80000DFF8B426D8E90001C2E9FC
:101720000001C9E90001DFF8A026C2E9000198F82C
:101730000B0088F80A0098F80E00002846D0002018
:1017400088F80E0098F8100000283FD0012088F893
:10175000110004463AE000F0C0F900281CD000A8AF
:10176000F1F7BBF8404600A90522F1F75FF92046E2
:1017700088F80900DFF85426D8E90001C2E9000121
:1017800098F9023098F9012098F900100FF680308E
:10179000F0F708FEFFF78EFD00A8F1F79EF840462F
:1017A00000A90522F1F742F9FFF727FD00280DD027
:1017B000DFF81426D8E90001C2E9000198F810000A
:1017C000002802D0012088F811000124012D08D141
:1017D00098F80E00012804D000F04CFA012088F897
:1017E0000E00012D69D1002E67D0DFF8049B98F818
:1017F0000F0098F81010084310D1012088F810004D
:101800000522414609F10800F3F74EF898F8022046
:1018100098F8011098F80000FFF7DBFD98F9010037
:1018200099F90910401A411E222901D2012005E030
:1018300010F1230F01DA012000E00020012835D14A
:101840000020C8F82800C8F82C00FFF7E0FE0028A8
:101850002CD028220021DFF87C05F0F7FFFC98F857
:101860000F00401C88F80F00C0B215280BD10FF6EE
:10187000B820F0F797FD012088F81100002088F8C3
:101880000F00012412E098F81000401C88F81000A6
:1018900098F8022098F8011098F80000FFF799FDD9
:1018A0000522414609F10800F2F7FEFFFFF7B8FDF7
:1018B000582214A95846F2F7F7FF98F80D000128AE
:1018C0003BD1B8F81200002805D10FF66C20F0F7D4
:1018D00069FD012428E0D8F82010814219D2002E99
:1018E00002D15AEA070000D00124DFF8049A99F9DE
:1018F000020098F90220904216D0491CC8F8201026
:101900000FF64820F0F74EFDD8E90001C9E90001C3
:101910000AE0002088F80D00A8F81200C8F820009E
:101920000FF63820F0F73EFD012D06D198F8100093
:10193000002802D0012088F81100012C02D10020DB
:10194000C8F81C00D8F8180090F87900002807D1D2
:101950000020C8F81C00012C01D100F08BF90024F4
:1019600020462BB0BDE8F08F10B5DFF86C090021E0
:10197000C161032205210020F6F73CF9044600F07E
:1019800007F8204610BD032205210120F6F732B9E1
:1019900000B597B000A808F005F8582200A9DFF8B4
:1019A0003C09F2F781FF012017B000BDDFF82809DC
:1019B000406A7047DFF8200900214162704700004B
:1019C0000FB430B597B09DF9C0409DF9C400002513
:1019D00001280BD108F0DDF81A99884202D3451A84
:1019E000EDB270E08038451AEDB26CE000A807F067
:1019F000D9FF641E082C66D8DFE804F02905111D04
:101A00002936424E5A0001981B99884201D3451A43
:101A100059E0DFF8E0281018401A451C53E00298FE
:101A20001C99884201D3451A4DE0DFF8C8281018E8
:101A3000401A451C47E003981D99884201D3451A76
:101A400041E0DFF8B0281018401A451C3BE0009830
:101A50001A99884201D3451A35E0DFF8981808181A
:101A60001A99401A451C2EE004981E99884201D309
:101A7000451A28E0DFF87C281018401A451C22E09F
:101A800005981F99884201D3451A1CE0DFF86428A5
:101A90001018401A451C16E006982099884201D378
:101AA000451A10E0DFF84C281018401A451C0AE0CF
:101AB00007982199884201D3451A04E0DFF83428B9
:101AC0001018401A451C284617B030BC5DF814FBAE
:101AD000DFF80408012141727047DFF8FC07407A03
:101AE000704707F071BFDFF8F017792802D378222A
:101AF0004A8200E0488201224A7301460FF67000D4
:101B0000F0F750BC10B5040001D1012402E0072C0D
:101B100000D3062421460FF66C00F0F743FC641E48
:101B2000052C2DD8DFE804F0030A11181F26DFF872
:101B3000A8073721C1723C21017321E0DFF8980723
:101B40001921C1721E2101731AE0DFF88C070F21E1
:101B5000C1721421017313E0DFF87C070A21C172FE
:101B60000F2101730CE0DFF870070721C1720C210F
:101B7000017305E0DFF860070521C1720A210173D6
:101B8000DFF85407C17A8172BDE81040FFF792BBBD
:101B9000DFF82C07704700EB80018800421CDFF85B
:101BA00020078C4992B20B681B0E1354521C92B240
:101BB0000B681B0C1354521C92B20B681B0A135473
:101BC000521C92B20B681354521C92B24B681B0AFF
:101BD0001354521C92B24B681354521C92B28B682D
:101BE0001B0A1354521C92B28B681354521C92B2AB
:101BF0008B891354521C92B20B691B0A1354521C4A
:101C000092B20B691354521C92B28B8A1354521C19
